{
  "_format": "hh-sol-artifact-1",
  "contractName": "ERC20PresetMinterPauserUpgradeable",
  "sourceName": "@openzeppelin/contracts-upgradeable/token/ERC20/presets/ERC20PresetMinterPauserUpgradeable.sol",
  "abi": [
    {
      "anonymous": false,
      "inputs": [
        {
          "indexed": true,
          "internalType": "address",
          "name": "owner",
          "type": "address"
        },
        {
          "indexed": true,
          "internalType": "address",
          "name": "spender",
          "type": "address"
        },
        {
          "indexed": false,
          "internalType": "uint256",
          "name": "value",
          "type": "uint256"
        }
      ],
      "name": "Approval",
      "type": "event"
    },
    {
      "anonymous": false,
      "inputs": [
        {
          "indexed": false,
          "internalType": "address",
          "name": "account",
          "type": "address"
        }
      ],
      "name": "Paused",
      "type": "event"
    },
    {
      "anonymous": false,
      "inputs": [
        {
          "indexed": true,
          "internalType": "bytes32",
          "name": "role",
          "type": "bytes32"
        },
        {
          "indexed": true,
          "internalType": "bytes32",
          "name": "previousAdminRole",
          "type": "bytes32"
        },
        {
          "indexed": true,
          "internalType": "bytes32",
          "name": "newAdminRole",
          "type": "bytes32"
        }
      ],
      "name": "RoleAdminChanged",
      "type": "event"
    },
    {
      "anonymous": false,
      "inputs": [
        {
          "indexed": true,
          "internalType": "bytes32",
          "name": "role",
          "type": "bytes32"
        },
        {
          "indexed": true,
          "internalType": "address",
          "name": "account",
          "type": "address"
        },
        {
          "indexed": true,
          "internalType": "address",
          "name": "sender",
          "type": "address"
        }
      ],
      "name": "RoleGranted",
      "type": "event"
    },
    {
      "anonymous": false,
      "inputs": [
        {
          "indexed": true,
          "internalType": "bytes32",
          "name": "role",
          "type": "bytes32"
        },
        {
          "indexed": true,
          "internalType": "address",
          "name": "account",
          "type": "address"
        },
        {
          "indexed": true,
          "internalType": "address",
          "name": "sender",
          "type": "address"
        }
      ],
      "name": "RoleRevoked",
      "type": "event"
    },
    {
      "anonymous": false,
      "inputs": [
        {
          "indexed": true,
          "internalType": "address",
          "name": "from",
          "type": "address"
        },
        {
          "indexed": true,
          "internalType": "address",
          "name": "to",
          "type": "address"
        },
        {
          "indexed": false,
          "internalType": "uint256",
          "name": "value",
          "type": "uint256"
        }
      ],
      "name": "Transfer",
      "type": "event"
    },
    {
      "anonymous": false,
      "inputs": [
        {
          "indexed": false,
          "internalType": "address",
          "name": "account",
          "type": "address"
        }
      ],
      "name": "Unpaused",
      "type": "event"
    },
    {
      "inputs": [],
      "name": "DEFAULT_ADMIN_ROLE",
      "outputs": [
        {
          "internalType": "bytes32",
          "name": "",
          "type": "bytes32"
        }
      ],
      "stateMutability": "view",
      "type": "function"
    },
    {
      "inputs": [],
      "name": "MINTER_ROLE",
      "outputs": [
        {
          "internalType": "bytes32",
          "name": "",
          "type": "bytes32"
        }
      ],
      "stateMutability": "view",
      "type": "function"
    },
    {
      "inputs": [],
      "name": "PAUSER_ROLE",
      "outputs": [
        {
          "internalType": "bytes32",
          "name": "",
          "type": "bytes32"
        }
      ],
      "stateMutability": "view",
      "type": "function"
    },
    {
      "inputs": [
        {
          "internalType": "address",
          "name": "owner",
          "type": "address"
        },
        {
          "internalType": "address",
          "name": "spender",
          "type": "address"
        }
      ],
      "name": "allowance",
      "outputs": [
        {
          "internalType": "uint256",
          "name": "",
          "type": "uint256"
        }
      ],
      "stateMutability": "view",
      "type": "function"
    },
    {
      "inputs": [
        {
          "internalType": "address",
          "name": "spender",
          "type": "address"
        },
        {
          "internalType": "uint256",
          "name": "amount",
          "type": "uint256"
        }
      ],
      "name": "approve",
      "outputs": [
        {
          "internalType": "bool",
          "name": "",
          "type": "bool"
        }
      ],
      "stateMutability": "nonpayable",
      "type": "function"
    },
    {
      "inputs": [
        {
          "internalType": "address",
          "name": "account",
          "type": "address"
        }
      ],
      "name": "balanceOf",
      "outputs": [
        {
          "internalType": "uint256",
          "name": "",
          "type": "uint256"
        }
      ],
      "stateMutability": "view",
      "type": "function"
    },
    {
      "inputs": [
        {
          "internalType": "uint256",
          "name": "amount",
          "type": "uint256"
        }
      ],
      "name": "burn",
      "outputs": [],
      "stateMutability": "nonpayable",
      "type": "function"
    },
    {
      "inputs": [
        {
          "internalType": "address",
          "name": "account",
          "type": "address"
        },
        {
          "internalType": "uint256",
          "name": "amount",
          "type": "uint256"
        }
      ],
      "name": "burnFrom",
      "outputs": [],
      "stateMutability": "nonpayable",
      "type": "function"
    },
    {
      "inputs": [],
      "name": "decimals",
      "outputs": [
        {
          "internalType": "uint8",
          "name": "",
          "type": "uint8"
        }
      ],
      "stateMutability": "view",
      "type": "function"
    },
    {
      "inputs": [
        {
          "internalType": "address",
          "name": "spender",
          "type": "address"
        },
        {
          "internalType": "uint256",
          "name": "subtractedValue",
          "type": "uint256"
        }
      ],
      "name": "decreaseAllowance",
      "outputs": [
        {
          "internalType": "bool",
          "name": "",
          "type": "bool"
        }
      ],
      "stateMutability": "nonpayable",
      "type": "function"
    },
    {
      "inputs": [
        {
          "internalType": "bytes32",
          "name": "role",
          "type": "bytes32"
        }
      ],
      "name": "getRoleAdmin",
      "outputs": [
        {
          "internalType": "bytes32",
          "name": "",
          "type": "bytes32"
        }
      ],
      "stateMutability": "view",
      "type": "function"
    },
    {
      "inputs": [
        {
          "internalType": "bytes32",
          "name": "role",
          "type": "bytes32"
        },
        {
          "internalType": "uint256",
          "name": "index",
          "type": "uint256"
        }
      ],
      "name": "getRoleMember",
      "outputs": [
        {
          "internalType": "address",
          "name": "",
          "type": "address"
        }
      ],
      "stateMutability": "view",
      "type": "function"
    },
    {
      "inputs": [
        {
          "internalType": "bytes32",
          "name": "role",
          "type": "bytes32"
        }
      ],
      "name": "getRoleMemberCount",
      "outputs": [
        {
          "internalType": "uint256",
          "name": "",
          "type": "uint256"
        }
      ],
      "stateMutability": "view",
      "type": "function"
    },
    {
      "inputs": [
        {
          "internalType": "bytes32",
          "name": "role",
          "type": "bytes32"
        },
        {
          "internalType": "address",
          "name": "account",
          "type": "address"
        }
      ],
      "name": "grantRole",
      "outputs": [],
      "stateMutability": "nonpayable",
      "type": "function"
    },
    {
      "inputs": [
        {
          "internalType": "bytes32",
          "name": "role",
          "type": "bytes32"
        },
        {
          "internalType": "address",
          "name": "account",
          "type": "address"
        }
      ],
      "name": "hasRole",
      "outputs": [
        {
          "internalType": "bool",
          "name": "",
          "type": "bool"
        }
      ],
      "stateMutability": "view",
      "type": "function"
    },
    {
      "inputs": [
        {
          "internalType": "address",
          "name": "spender",
          "type": "address"
        },
        {
          "internalType": "uint256",
          "name": "addedValue",
          "type": "uint256"
        }
      ],
      "name": "increaseAllowance",
      "outputs": [
        {
          "internalType": "bool",
          "name": "",
          "type": "bool"
        }
      ],
      "stateMutability": "nonpayable",
      "type": "function"
    },
    {
      "inputs": [
        {
          "internalType": "string",
          "name": "name",
          "type": "string"
        },
        {
          "internalType": "string",
          "name": "symbol",
          "type": "string"
        }
      ],
      "name": "initialize",
      "outputs": [],
      "stateMutability": "nonpayable",
      "type": "function"
    },
    {
      "inputs": [
        {
          "internalType": "address",
          "name": "to",
          "type": "address"
        },
        {
          "internalType": "uint256",
          "name": "amount",
          "type": "uint256"
        }
      ],
      "name": "mint",
      "outputs": [],
      "stateMutability": "nonpayable",
      "type": "function"
    },
    {
      "inputs": [],
      "name": "name",
      "outputs": [
        {
          "internalType": "string",
          "name": "",
          "type": "string"
        }
      ],
      "stateMutability": "view",
      "type": "function"
    },
    {
      "inputs": [],
      "name": "pause",
      "outputs": [],
      "stateMutability": "nonpayable",
      "type": "function"
    },
    {
      "inputs": [],
      "name": "paused",
      "outputs": [
        {
          "internalType": "bool",
          "name": "",
          "type": "bool"
        }
      ],
      "stateMutability": "view",
      "type": "function"
    },
    {
      "inputs": [
        {
          "internalType": "bytes32",
          "name": "role",
          "type": "bytes32"
        },
        {
          "internalType": "address",
          "name": "account",
          "type": "address"
        }
      ],
      "name": "renounceRole",
      "outputs": [],
      "stateMutability": "nonpayable",
      "type": "function"
    },
    {
      "inputs": [
        {
          "internalType": "bytes32",
          "name": "role",
          "type": "bytes32"
        },
        {
          "internalType": "address",
          "name": "account",
          "type": "address"
        }
      ],
      "name": "revokeRole",
      "outputs": [],
      "stateMutability": "nonpayable",
      "type": "function"
    },
    {
      "inputs": [
        {
          "internalType": "bytes4",
          "name": "interfaceId",
          "type": "bytes4"
        }
      ],
      "name": "supportsInterface",
      "outputs": [
        {
          "internalType": "bool",
          "name": "",
          "type": "bool"
        }
      ],
      "stateMutability": "view",
      "type": "function"
    },
    {
      "inputs": [],
      "name": "symbol",
      "outputs": [
        {
          "internalType": "string",
          "name": "",
          "type": "string"
        }
      ],
      "stateMutability": "view",
      "type": "function"
    },
    {
      "inputs": [],
      "name": "totalSupply",
      "outputs": [
        {
          "internalType": "uint256",
          "name": "",
          "type": "uint256"
        }
      ],
      "stateMutability": "view",
      "type": "function"
    },
    {
      "inputs": [
        {
          "internalType": "address",
          "name": "recipient",
          "type": "address"
        },
        {
          "internalType": "uint256",
          "name": "amount",
          "type": "uint256"
        }
      ],
      "name": "transfer",
      "outputs": [
        {
          "internalType": "bool",
          "name": "",
          "type": "bool"
        }
      ],
      "stateMutability": "nonpayable",
      "type": "function"
    },
    {
      "inputs": [
        {
          "internalType": "address",
          "name": "sender",
          "type": "address"
        },
        {
          "internalType": "address",
          "name": "recipient",
          "type": "address"
        },
        {
          "internalType": "uint256",
          "name": "amount",
          "type": "uint256"
        }
      ],
      "name": "transferFrom",
      "outputs": [
        {
          "internalType": "bool",
          "name": "",
          "type": "bool"
        }
      ],
      "stateMutability": "nonpayable",
      "type": "function"
    },
    {
      "inputs": [],
      "name": "unpause",
      "outputs": [],
      "stateMutability": "nonpayable",
      "type": "function"
    }
  ],
  "bytecode": "0x608060405234801561001057600080fd5b50613c1a806100206000396000f3fe608060405234801561001057600080fd5b50600436106101cf5760003560e01c80635c975abb11610104578063a217fddf116100a2578063d539139311610071578063d539139314610554578063d547741f14610572578063dd62ed3e1461058e578063e63ab1e9146105be576101cf565b8063a217fddf146104a6578063a457c2d7146104c4578063a9059cbb146104f4578063ca15c87314610524576101cf565b80638456cb59116100de5780638456cb591461041e5780639010d07c1461042857806391d148541461045857806395d89b4114610488576101cf565b80635c975abb146103b457806370a08231146103d257806379cc679014610402576101cf565b8063313ce567116101715780633f4ba83a1161014b5780633f4ba83a1461035657806340c10f191461036057806342966c681461037c5780634cd88b7614610398576101cf565b8063313ce567146102ec57806336568abe1461030a5780633950935114610326576101cf565b806318160ddd116101ad57806318160ddd1461025257806323b872dd14610270578063248a9ca3146102a05780632f2ff15d146102d0576101cf565b806301ffc9a7146101d457806306fdde0314610204578063095ea7b314610222575b600080fd5b6101ee60048036038101906101e99190612754565b6105dc565b6040516101fb919061279c565b60405180910390f35b61020c610656565b6040516102199190612850565b60405180910390f35b61023c60048036038101906102379190612906565b6106e8565b604051610249919061279c565b60405180910390f35b61025a610706565b6040516102679190612955565b60405180910390f35b61028a60048036038101906102859190612970565b610710565b604051610297919061279c565b60405180910390f35b6102ba60048036038101906102b591906129f9565b610808565b6040516102c79190612a35565b60405180910390f35b6102ea60048036038101906102e59190612a50565b610828565b005b6102f4610851565b6040516103019190612aac565b60405180910390f35b610324600480360381019061031f9190612a50565b61085a565b005b610340600480360381019061033b9190612906565b6108dd565b60405161034d919061279c565b60405180910390f35b61035e610989565b005b61037a60048036038101906103759190612906565b610a03565b005b61039660048036038101906103919190612ac7565b610a81565b005b6103b260048036038101906103ad9190612c29565b610a95565b005b6103bc610b85565b6040516103c9919061279c565b60405180910390f35b6103ec60048036038101906103e79190612ca1565b610b9d565b6040516103f99190612955565b60405180910390f35b61041c60048036038101906104179190612906565b610be6565b005b610426610c61565b005b610442600480360381019061043d9190612cce565b610cdb565b60405161044f9190612d1d565b60405180910390f35b610472600480360381019061046d9190612a50565b610d0a565b60405161047f919061279c565b60405180910390f35b610490610d75565b60405161049d9190612850565b60405180910390f35b6104ae610e07565b6040516104bb9190612a35565b60405180910390f35b6104de60048036038101906104d99190612906565b610e0e565b6040516104eb919061279c565b60405180910390f35b61050e60048036038101906105099190612906565b610ef9565b60405161051b919061279c565b60405180910390f35b61053e600480360381019061053991906129f9565b610f17565b60405161054b9190612955565b60405180910390f35b61055c610f3b565b6040516105699190612a35565b60405180910390f35b61058c60048036038101906105879190612a50565b610f5f565b005b6105a860048036038101906105a39190612d38565b610f88565b6040516105b59190612955565b60405180910390f35b6105c661100f565b6040516105d39190612a35565b60405180910390f35b60007f5a05180f000000000000000000000000000000000000000000000000000000007bffffffffffffffffffffffffffffffffffffffffffffffffffffffff1916827bffffffffffffffffffffffffffffffffffffffffffffffffffffffff1916148061064f575061064e82611033565b5b9050919050565b606060cc805461066590612da7565b80601f016020809104026020016040519081016040528092919081815260200182805461069190612da7565b80156106de5780601f106106b3576101008083540402835291602001916106de565b820191906000526020600020905b8154815290600101906020018083116106c157829003601f168201915b5050505050905090565b60006106fc6106f56110ad565b84846110b5565b6001905092915050565b600060cb54905090565b600061071d848484611280565b600060ca60008673ffffffffffffffffffffffffffffffffffffffff1673ffffffffffffffffffffffffffffffffffffffff16815260200190815260200160002060006107686110ad565b73ffffffffffffffffffffffffffffffffffffffff1673ffffffffffffffffffffffffffffffffffffffff168152602001908152602001600020549050828110156107e8576040517f08c379a00000000000000000000000000000000000000000000000000000000081526004016107df90612e4b565b60405180910390fd5b6107fc856107f46110ad565b8584036110b5565b60019150509392505050565b600060656000838152602001908152602001600020600101549050919050565b61083182610808565b6108428161083d6110ad565b611504565b61084c83836115a1565b505050565b60006012905090565b6108626110ad565b73ffffffffffffffffffffffffffffffffffffffff168173ffffffffffffffffffffffffffffffffffffffff16146108cf576040517f08c379a00000000000000000000000000000000000000000000000000000000081526004016108c690612edd565b60405180910390fd5b6108d982826115d5565b5050565b600061097f6108ea6110ad565b848460ca60006108f86110ad565b73ffffffffffffffffffffffffffffffffffffffff1673ffffffffffffffffffffffffffffffffffffffff16815260200190815260200160002060008873ffffffffffffffffffffffffffffffffffffffff1673ffffffffffffffffffffffffffffffffffffffff1681526020019081526020016000205461097a9190612f2c565b6110b5565b6001905092915050565b6109ba7f65d7a28e3265b37a6474929f336521b332c1681b933f6cb9f3376673440d862a6109b56110ad565b610d0a565b6109f9576040517f08c379a00000000000000000000000000000000000000000000000000000000081526004016109f090612ff4565b60405180910390fd5b610a01611609565b565b610a347f9f2df0fed2c77648de5860a4cc508cd0818c85b8b8a1ab4ceeef8d981c8956a6610a2f6110ad565b610d0a565b610a73576040517f08c379a0000000000000000000000000000000000000000000000000000000008152600401610a6a90613086565b60405180910390fd5b610a7d82826116ac565b5050565b610a92610a8c6110ad565b8261180d565b50565b600060019054906101000a900460ff16610abd5760008054906101000a900460ff1615610ac6565b610ac56119e6565b5b610b05576040517f08c379a0000000000000000000000000000000000000000000000000000000008152600401610afc90613118565b60405180910390fd5b60008060019054906101000a900460ff161590508015610b55576001600060016101000a81548160ff02191690831515021790555060016000806101000a81548160ff0219169083151502179055505b610b5f83836119f7565b8015610b805760008060016101000a81548160ff0219169083151502179055505b505050565b600061012d60009054906101000a900460ff16905090565b600060c960008373ffffffffffffffffffffffffffffffffffffffff1673ffffffffffffffffffffffffffffffffffffffff168152602001908152602001600020549050919050565b6000610bf983610bf46110ad565b610f88565b905081811015610c3e576040517f08c379a0000000000000000000000000000000000000000000000000000000008152600401610c35906131aa565b60405180910390fd5b610c5283610c4a6110ad565b8484036110b5565b610c5c838361180d565b505050565b610c927f65d7a28e3265b37a6474929f336521b332c1681b933f6cb9f3376673440d862a610c8d6110ad565b610d0a565b610cd1576040517f08c379a0000000000000000000000000000000000000000000000000000000008152600401610cc89061323c565b60405180910390fd5b610cd9611a96565b565b6000610d028260976000868152602001908152602001600020611b3a90919063ffffffff16565b905092915050565b60006065600084815260200190815260200160002060000160008373ffffffffffffffffffffffffffffffffffffffff1673ffffffffffffffffffffffffffffffffffffffff16815260200190815260200160002060009054906101000a900460ff16905092915050565b606060cd8054610d8490612da7565b80601f0160208091040260200160405190810160405280929190818152602001828054610db090612da7565b8015610dfd5780601f10610dd257610100808354040283529160200191610dfd565b820191906000526020600020905b815481529060010190602001808311610de057829003601f168201915b5050505050905090565b6000801b81565b60008060ca6000610e1d6110ad565b73ffffffffffffffffffffffffffffffffffffffff1673ffffffffffffffffffffffffffffffffffffffff16815260200190815260200160002060008573ffffffffffffffffffffffffffffffffffffffff1673ffffffffffffffffffffffffffffffffffffffff16815260200190815260200160002054905082811015610eda576040517f08c379a0000000000000000000000000000000000000000000000000000000008152600401610ed1906132ce565b60405180910390fd5b610eee610ee56110ad565b858584036110b5565b600191505092915050565b6000610f0d610f066110ad565b8484611280565b6001905092915050565b6000610f3460976000848152602001908152602001600020611b54565b9050919050565b7f9f2df0fed2c77648de5860a4cc508cd0818c85b8b8a1ab4ceeef8d981c8956a681565b610f6882610808565b610f7981610f746110ad565b611504565b610f8383836115d5565b505050565b600060ca60008473ffffffffffffffffffffffffffffffffffffffff1673ffffffffffffffffffffffffffffffffffffffff16815260200190815260200160002060008373ffffffffffffffffffffffffffffffffffffffff1673ffffffffffffffffffffffffffffffffffffffff16815260200190815260200160002054905092915050565b7f65d7a28e3265b37a6474929f336521b332c1681b933f6cb9f3376673440d862a81565b60007f7965db0b000000000000000000000000000000000000000000000000000000007bffffffffffffffffffffffffffffffffffffffffffffffffffffffff1916827bffffffffffffffffffffffffffffffffffffffffffffffffffffffff191614806110a657506110a582611b69565b5b9050919050565b600033905090565b600073ffffffffffffffffffffffffffffffffffffffff168373ffffffffffffffffffffffffffffffffffffffff161415611125576040517f08c379a000000000000000000000000000000000000000000000000000000000815260040161111c90613360565b60405180910390fd5b600073ffffffffffffffffffffffffffffffffffffffff168273ffffffffffffffffffffffffffffffffffffffff161415611195576040517f08c379a000000000000000000000000000000000000000000000000000000000815260040161118c906133f2565b60405180910390fd5b8060ca60008573ffffffffffffffffffffffffffffffffffffffff1673ffffffffffffffffffffffffffffffffffffffff16815260200190815260200160002060008473ffffffffffffffffffffffffffffffffffffffff1673ffffffffffffffffffffffffffffffffffffffff168152602001908152602001600020819055508173ffffffffffffffffffffffffffffffffffffffff168373ffffffffffffffffffffffffffffffffffffffff167f8c5be1e5ebec7d5bd14f71427d1e84f3dd0314c0f7b2291e5b200ac8c7c3b925836040516112739190612955565b60405180910390a3505050565b600073ffffffffffffffffffffffffffffffffffffffff168373ffffffffffffffffffffffffffffffffffffffff1614156112f0576040517f08c379a00000000000000000000000000000000000000000000000000000000081526004016112e790613484565b60405180910390fd5b600073ffffffffffffffffffffffffffffffffffffffff168273ffffffffffffffffffffffffffffffffffffffff161415611360576040517f08c379a000000000000000000000000000000000000000000000000000000000815260040161135790613516565b60405180910390fd5b61136b838383611bd3565b600060c960008573ffffffffffffffffffffffffffffffffffffffff1673ffffffffffffffffffffffffffffffffffffffff168152602001908152602001600020549050818110156113f2576040517f08c379a00000000000000000000000000000000000000000000000000000000081526004016113e9906135a8565b60405180910390fd5b81810360c960008673ffffffffffffffffffffffffffffffffffffffff1673ffffffffffffffffffffffffffffffffffffffff168152602001908152602001600020819055508160c960008573ffffffffffffffffffffffffffffffffffffffff1673ffffffffffffffffffffffffffffffffffffffff16815260200190815260200160002060008282546114879190612f2c565b925050819055508273ffffffffffffffffffffffffffffffffffffffff168473ffffffffffffffffffffffffffffffffffffffff167fddf252ad1be2c89b69c2b068fc378daa952ba7f163c4a11628f55a4df523b3ef846040516114eb9190612955565b60405180910390a36114fe848484611be3565b50505050565b61150e8282610d0a565b61159d576115338173ffffffffffffffffffffffffffffffffffffffff166014611be8565b6115418360001c6020611be8565b60405160200161155292919061369c565b6040516020818303038152906040526040517f08c379a00000000000000000000000000000000000000000000000000000000081526004016115949190612850565b60405180910390fd5b5050565b6115ab8282611e24565b6115d08160976000858152602001908152602001600020611f0590919063ffffffff16565b505050565b6115df8282611f35565b611604816097600085815260200190815260200160002061201790919063ffffffff16565b505050565b611611610b85565b611650576040517f08c379a000000000000000000000000000000000000000000000000000000000815260040161164790613722565b60405180910390fd5b600061012d60006101000a81548160ff0219169083151502179055507f5db9ee0a495bf2e6ff9c91a7834c1ba4fdd244a5e8aa4e537bd38aeae4b073aa6116956110ad565b6040516116a29190612d1d565b60405180910390a1565b600073ffffffffffffffffffffffffffffffffffffffff168273ffffffffffffffffffffffffffffffffffffffff16141561171c576040517f08c379a00000000000000000000000000000000000000000000000000000000081526004016117139061378e565b60405180910390fd5b61172860008383611bd3565b8060cb600082825461173a9190612f2c565b925050819055508060c960008473ffffffffffffffffffffffffffffffffffffffff1673ffffffffffffffffffffffffffffffffffffffff16815260200190815260200160002060008282546117909190612f2c565b925050819055508173ffffffffffffffffffffffffffffffffffffffff16600073ffffffffffffffffffffffffffffffffffffffff167fddf252ad1be2c89b69c2b068fc378daa952ba7f163c4a11628f55a4df523b3ef836040516117f59190612955565b60405180910390a361180960008383611be3565b5050565b600073ffffffffffffffffffffffffffffffffffffffff168273ffffffffffffffffffffffffffffffffffffffff16141561187d576040517f08c379a000000000000000000000000000000000000000000000000000000000815260040161187490613820565b60405180910390fd5b61188982600083611bd3565b600060c960008473ffffffffffffffffffffffffffffffffffffffff1673ffffffffffffffffffffffffffffffffffffffff16815260200190815260200160002054905081811015611910576040517f08c379a0000000000000000000000000000000000000000000000000000000008152600401611907906138b2565b60405180910390fd5b81810360c960008573ffffffffffffffffffffffffffffffffffffffff1673ffffffffffffffffffffffffffffffffffffffff168152602001908152602001600020819055508160cb600082825461196891906138d2565b92505081905550600073ffffffffffffffffffffffffffffffffffffffff168373ffffffffffffffffffffffffffffffffffffffff167fddf252ad1be2c89b69c2b068fc378daa952ba7f163c4a11628f55a4df523b3ef846040516119cd9190612955565b60405180910390a36119e183600084611be3565b505050565b60006119f130612047565b15905090565b600060019054906101000a900460ff16611a46576040517f08c379a0000000000000000000000000000000000000000000000000000000008152600401611a3d90613978565b60405180910390fd5b611a4e61205a565b611a566120ab565b611a5e6120fc565b611a6661214d565b611a70828261219e565b611a7861221f565b611a80612270565b611a886122dd565b611a92828261232e565b5050565b611a9e610b85565b15611ade576040517f08c379a0000000000000000000000000000000000000000000000000000000008152600401611ad5906139e4565b60405180910390fd5b600161012d60006101000a81548160ff0219169083151502179055507f62e78cea01bee320cd4e420270b5ea74000d11b0c9f74754ebdbfc544b05a258611b236110ad565b604051611b309190612d1d565b60405180910390a1565b6000611b4983600001836123f7565b60001c905092915050565b6000611b6282600001612422565b9050919050565b60007f01ffc9a7000000000000000000000000000000000000000000000000000000007bffffffffffffffffffffffffffffffffffffffffffffffffffffffff1916827bffffffffffffffffffffffffffffffffffffffffffffffffffffffff1916149050919050565b611bde838383612433565b505050565b505050565b606060006002836002611bfb9190613a04565b611c059190612f2c565b67ffffffffffffffff811115611c1e57611c1d612afe565b5b6040519080825280601f01601f191660200182016040528015611c505781602001600182028036833780820191505090505b5090507f300000000000000000000000000000000000000000000000000000000000000081600081518110611c8857611c87613a5e565b5b60200101907effffffffffffffffffffffffffffffffffffffffffffffffffffffffffffff1916908160001a9053507f780000000000000000000000000000000000000000000000000000000000000081600181518110611cec57611ceb613a5e565b5b60200101907effffffffffffffffffffffffffffffffffffffffffffffffffffffffffffff1916908160001a90535060006001846002611d2c9190613a04565b611d369190612f2c565b90505b6001811115611dd6577f3031323334353637383961626364656600000000000000000000000000000000600f861660108110611d7857611d77613a5e565b5b1a60f81b828281518110611d8f57611d8e613a5e565b5b60200101907effffffffffffffffffffffffffffffffffffffffffffffffffffffffffffff1916908160001a905350600485901c945080611dcf90613a8d565b9050611d39565b5060008414611e1a576040517f08c379a0000000000000000000000000000000000000000000000000000000008152600401611e1190613b03565b60405180910390fd5b8091505092915050565b611e2e8282610d0a565b611f015760016065600084815260200190815260200160002060000160008373ffffffffffffffffffffffffffffffffffffffff1673ffffffffffffffffffffffffffffffffffffffff16815260200190815260200160002060006101000a81548160ff021916908315150217905550611ea66110ad565b73ffffffffffffffffffffffffffffffffffffffff168173ffffffffffffffffffffffffffffffffffffffff16837f2f8788117e7eff1d82e926ec794901d17c78024a50270940304540a733656f0d60405160405180910390a45b5050565b6000611f2d836000018373ffffffffffffffffffffffffffffffffffffffff1660001b61248b565b905092915050565b611f3f8282610d0a565b156120135760006065600084815260200190815260200160002060000160008373ffffffffffffffffffffffffffffffffffffffff1673ffffffffffffffffffffffffffffffffffffffff16815260200190815260200160002060006101000a81548160ff021916908315150217905550611fb86110ad565b73ffffffffffffffffffffffffffffffffffffffff168173ffffffffffffffffffffffffffffffffffffffff16837ff6391f5c32d9c69d2a47ea670b442974b53935d1edc7fd64eb21e047a839171b60405160405180910390a45b5050565b600061203f836000018373ffffffffffffffffffffffffffffffffffffffff1660001b6124fb565b905092915050565b600080823b905060008111915050919050565b600060019054906101000a900460ff166120a9576040517f08c379a00000000000000000000000000000000000000000000000000000000081526004016120a090613978565b60405180910390fd5b565b600060019054906101000a900460ff166120fa576040517f08c379a00000000000000000000000000000000000000000000000000000000081526004016120f190613978565b60405180910390fd5b565b600060019054906101000a900460ff1661214b576040517f08c379a000000000000000000000000000000000000000000000000000000000815260040161214290613978565b60405180910390fd5b565b600060019054906101000a900460ff1661219c576040517f08c379a000000000000000000000000000000000000000000000000000000000815260040161219390613978565b60405180910390fd5b565b600060019054906101000a900460ff166121ed576040517f08c379a00000000000000000000000000000000000000000000000000000000081526004016121e490613978565b60405180910390fd5b8160cc9080519060200190612203929190612645565b508060cd908051906020019061221a929190612645565b505050565b600060019054906101000a900460ff1661226e576040517f08c379a000000000000000000000000000000000000000000000000000000000815260040161226590613978565b60405180910390fd5b565b600060019054906101000a900460ff166122bf576040517f08c379a00000000000000000000000000000000000000000000000000000000081526004016122b690613978565b60405180910390fd5b600061012d60006101000a81548160ff021916908315150217905550565b600060019054906101000a900460ff1661232c576040517f08c379a000000000000000000000000000000000000000000000000000000000815260040161232390613978565b60405180910390fd5b565b600060019054906101000a900460ff1661237d576040517f08c379a000000000000000000000000000000000000000000000000000000000815260040161237490613978565b60405180910390fd5b6123916000801b61238c6110ad565b61260f565b6123c27f9f2df0fed2c77648de5860a4cc508cd0818c85b8b8a1ab4ceeef8d981c8956a66123bd6110ad565b61260f565b6123f37f65d7a28e3265b37a6474929f336521b332c1681b933f6cb9f3376673440d862a6123ee6110ad565b61260f565b5050565b600082600001828154811061240f5761240e613a5e565b5b9060005260206000200154905092915050565b600081600001805490509050919050565b61243e83838361261d565b612446610b85565b15612486576040517f08c379a000000000000000000000000000000000000000000000000000000000815260040161247d90613b95565b60405180910390fd5b505050565b60006124978383612622565b6124f05782600001829080600181540180825580915050600190039060005260206000200160009091909190915055826000018054905083600101600084815260200190815260200160002081905550600190506124f5565b600090505b92915050565b6000808360010160008481526020019081526020016000205490506000811461260357600060018261252d91906138d2565b905060006001866000018054905061254591906138d2565b90508181146125b457600086600001828154811061256657612565613a5e565b5b906000526020600020015490508087600001848154811061258a57612589613a5e565b5b90600052602060002001819055508387600101600083815260200190815260200160002081905550505b856000018054806125c8576125c7613bb5565b5b600190038181906000526020600020016000905590558560010160008681526020019081526020016000206000905560019350505050612609565b60009150505b92915050565b61261982826115a1565b5050565b505050565b600080836001016000848152602001908152602001600020541415905092915050565b82805461265190612da7565b90600052602060002090601f01602090048101928261267357600085556126ba565b82601f1061268c57805160ff19168380011785556126ba565b828001600101855582156126ba579182015b828111156126b957825182559160200191906001019061269e565b5b5090506126c791906126cb565b5090565b5b808211156126e45760008160009055506001016126cc565b5090565b6000604051905090565b600080fd5b600080fd5b60007fffffffff0000000000000000000000000000000000000000000000000000000082169050919050565b612731816126fc565b811461273c57600080fd5b50565b60008135905061274e81612728565b92915050565b60006020828403121561276a576127696126f2565b5b60006127788482850161273f565b91505092915050565b60008115159050919050565b61279681612781565b82525050565b60006020820190506127b1600083018461278d565b92915050565b600081519050919050565b600082825260208201905092915050565b60005b838110156127f15780820151818401526020810190506127d6565b83811115612800576000848401525b50505050565b6000601f19601f8301169050919050565b6000612822826127b7565b61282c81856127c2565b935061283c8185602086016127d3565b61284581612806565b840191505092915050565b6000602082019050818103600083015261286a8184612817565b905092915050565b600073ffffffffffffffffffffffffffffffffffffffff82169050919050565b600061289d82612872565b9050919050565b6128ad81612892565b81146128b857600080fd5b50565b6000813590506128ca816128a4565b92915050565b6000819050919050565b6128e3816128d0565b81146128ee57600080fd5b50565b600081359050612900816128da565b92915050565b6000806040838503121561291d5761291c6126f2565b5b600061292b858286016128bb565b925050602061293c858286016128f1565b9150509250929050565b61294f816128d0565b82525050565b600060208201905061296a6000830184612946565b92915050565b600080600060608486031215612989576129886126f2565b5b6000612997868287016128bb565b93505060206129a8868287016128bb565b92505060406129b9868287016128f1565b9150509250925092565b6000819050919050565b6129d6816129c3565b81146129e157600080fd5b50565b6000813590506129f3816129cd565b92915050565b600060208284031215612a0f57612a0e6126f2565b5b6000612a1d848285016129e4565b91505092915050565b612a2f816129c3565b82525050565b6000602082019050612a4a6000830184612a26565b92915050565b60008060408385031215612a6757612a666126f2565b5b6000612a75858286016129e4565b9250506020612a86858286016128bb565b9150509250929050565b600060ff82169050919050565b612aa681612a90565b82525050565b6000602082019050612ac16000830184612a9d565b92915050565b600060208284031215612add57612adc6126f2565b5b6000612aeb848285016128f1565b91505092915050565b600080fd5b600080fd5b7f4e487b7100000000000000000000000000000000000000000000000000000000600052604160045260246000fd5b612b3682612806565b810181811067ffffffffffffffff82111715612b5557612b54612afe565b5b80604052505050565b6000612b686126e8565b9050612b748282612b2d565b919050565b600067ffffffffffffffff821115612b9457612b93612afe565b5b612b9d82612806565b9050602081019050919050565b82818337600083830152505050565b6000612bcc612bc784612b79565b612b5e565b905082815260208101848484011115612be857612be7612af9565b5b612bf3848285612baa565b509392505050565b600082601f830112612c1057612c0f612af4565b5b8135612c20848260208601612bb9565b91505092915050565b60008060408385031215612c4057612c3f6126f2565b5b600083013567ffffffffffffffff811115612c5e57612c5d6126f7565b5b612c6a85828601612bfb565b925050602083013567ffffffffffffffff811115612c8b57612c8a6126f7565b5b612c9785828601612bfb565b9150509250929050565b600060208284031215612cb757612cb66126f2565b5b6000612cc5848285016128bb565b91505092915050565b60008060408385031215612ce557612ce46126f2565b5b6000612cf3858286016129e4565b9250506020612d04858286016128f1565b9150509250929050565b612d1781612892565b82525050565b6000602082019050612d326000830184612d0e565b92915050565b60008060408385031215612d4f57612d4e6126f2565b5b6000612d5d858286016128bb565b9250506020612d6e858286016128bb565b9150509250929050565b7f4e487b7100000000000000000000000000000000000000000000000000000000600052602260045260246000fd5b60006002820490506001821680612dbf57607f821691505b60208210811415612dd357612dd2612d78565b5b50919050565b7f45524332303a207472616e7366657220616d6f756e742065786365656473206160008201527f6c6c6f77616e6365000000000000000000000000000000000000000000000000602082015250565b6000612e356028836127c2565b9150612e4082612dd9565b604082019050919050565b60006020820190508181036000830152612e6481612e28565b9050919050565b7f416363657373436f6e74726f6c3a2063616e206f6e6c792072656e6f756e636560008201527f20726f6c657320666f722073656c660000000000000000000000000000000000602082015250565b6000612ec7602f836127c2565b9150612ed282612e6b565b604082019050919050565b60006020820190508181036000830152612ef681612eba565b9050919050565b7f4e487b7100000000000000000000000000000000000000000000000000000000600052601160045260246000fd5b6000612f37826128d0565b9150612f42836128d0565b9250827fffffffffffffffffffffffffffffffffffffffffffffffffffffffffffffffff03821115612f7757612f76612efd565b5b828201905092915050565b7f45524332305072657365744d696e7465725061757365723a206d75737420686160008201527f76652070617573657220726f6c6520746f20756e706175736500000000000000602082015250565b6000612fde6039836127c2565b9150612fe982612f82565b604082019050919050565b6000602082019050818103600083015261300d81612fd1565b9050919050565b7f45524332305072657365744d696e7465725061757365723a206d75737420686160008201527f7665206d696e74657220726f6c6520746f206d696e7400000000000000000000602082015250565b60006130706036836127c2565b915061307b82613014565b604082019050919050565b6000602082019050818103600083015261309f81613063565b9050919050565b7f496e697469616c697a61626c653a20636f6e747261637420697320616c72656160008201527f647920696e697469616c697a6564000000000000000000000000000000000000602082015250565b6000613102602e836127c2565b915061310d826130a6565b604082019050919050565b60006020820190508181036000830152613131816130f5565b9050919050565b7f45524332303a206275726e20616d6f756e74206578636565647320616c6c6f7760008201527f616e636500000000000000000000000000000000000000000000000000000000602082015250565b60006131946024836127c2565b915061319f82613138565b604082019050919050565b600060208201905081810360008301526131c381613187565b9050919050565b7f45524332305072657365744d696e7465725061757365723a206d75737420686160008201527f76652070617573657220726f6c6520746f207061757365000000000000000000602082015250565b60006132266037836127c2565b9150613231826131ca565b604082019050919050565b6000602082019050818103600083015261325581613219565b9050919050565b7f45524332303a2064656372656173656420616c6c6f77616e63652062656c6f7760008201527f207a65726f000000000000000000000000000000000000000000000000000000602082015250565b60006132b86025836127c2565b91506132c38261325c565b604082019050919050565b600060208201905081810360008301526132e7816132ab565b9050919050565b7f45524332303a20617070726f76652066726f6d20746865207a65726f2061646460008201527f7265737300000000000000000000000000000000000000000000000000000000602082015250565b600061334a6024836127c2565b9150613355826132ee565b604082019050919050565b600060208201905081810360008301526133798161333d565b9050919050565b7f45524332303a20617070726f766520746f20746865207a65726f20616464726560008201527f7373000000000000000000000000000000000000000000000000000000000000602082015250565b60006133dc6022836127c2565b91506133e782613380565b604082019050919050565b6000602082019050818103600083015261340b816133cf565b9050919050565b7f45524332303a207472616e736665722066726f6d20746865207a65726f20616460008201527f6472657373000000000000000000000000000000000000000000000000000000602082015250565b600061346e6025836127c2565b915061347982613412565b604082019050919050565b6000602082019050818103600083015261349d81613461565b9050919050565b7f45524332303a207472616e7366657220746f20746865207a65726f206164647260008201527f6573730000000000000000000000000000000000000000000000000000000000602082015250565b60006135006023836127c2565b915061350b826134a4565b604082019050919050565b6000602082019050818103600083015261352f816134f3565b9050919050565b7f45524332303a207472616e7366657220616d6f756e742065786365656473206260008201527f616c616e63650000000000000000000000000000000000000000000000000000602082015250565b60006135926026836127c2565b915061359d82613536565b604082019050919050565b600060208201905081810360008301526135c181613585565b9050919050565b600081905092915050565b7f416363657373436f6e74726f6c3a206163636f756e7420000000000000000000600082015250565b60006136096017836135c8565b9150613614826135d3565b601782019050919050565b600061362a826127b7565b61363481856135c8565b93506136448185602086016127d3565b80840191505092915050565b7f206973206d697373696e6720726f6c6520000000000000000000000000000000600082015250565b60006136866011836135c8565b915061369182613650565b601182019050919050565b60006136a7826135fc565b91506136b3828561361f565b91506136be82613679565b91506136ca828461361f565b91508190509392505050565b7f5061757361626c653a206e6f7420706175736564000000000000000000000000600082015250565b600061370c6014836127c2565b9150613717826136d6565b602082019050919050565b6000602082019050818103600083015261373b816136ff565b9050919050565b7f45524332303a206d696e7420746f20746865207a65726f206164647265737300600082015250565b6000613778601f836127c2565b915061378382613742565b602082019050919050565b600060208201905081810360008301526137a78161376b565b9050919050565b7f45524332303a206275726e2066726f6d20746865207a65726f2061646472657360008201527f7300000000000000000000000000000000000000000000000000000000000000602082015250565b600061380a6021836127c2565b9150613815826137ae565b604082019050919050565b60006020820190508181036000830152613839816137fd565b9050919050565b7f45524332303a206275726e20616d6f756e7420657863656564732062616c616e60008201527f6365000000000000000000000000000000000000000000000000000000000000602082015250565b600061389c6022836127c2565b91506138a782613840565b604082019050919050565b600060208201905081810360008301526138cb8161388f565b9050919050565b60006138dd826128d0565b91506138e8836128d0565b9250828210156138fb576138fa612efd565b5b828203905092915050565b7f496e697469616c697a61626c653a20636f6e7472616374206973206e6f74206960008201527f6e697469616c697a696e67000000000000000000000000000000000000000000602082015250565b6000613962602b836127c2565b915061396d82613906565b604082019050919050565b6000602082019050818103600083015261399181613955565b9050919050565b7f5061757361626c653a2070617573656400000000000000000000000000000000600082015250565b60006139ce6010836127c2565b91506139d982613998565b602082019050919050565b600060208201905081810360008301526139fd816139c1565b9050919050565b6000613a0f826128d0565b9150613a1a836128d0565b9250817fffffffffffffffffffffffffffffffffffffffffffffffffffffffffffffffff0483118215151615613a5357613a52612efd565b5b828202905092915050565b7f4e487b7100000000000000000000000000000000000000000000000000000000600052603260045260246000fd5b6000613a98826128d0565b91506000821415613aac57613aab612efd565b5b600182039050919050565b7f537472696e67733a20686578206c656e67746820696e73756666696369656e74600082015250565b6000613aed6020836127c2565b9150613af882613ab7565b602082019050919050565b60006020820190508181036000830152613b1c81613ae0565b9050919050565b7f45524332305061757361626c653a20746f6b656e207472616e7366657220776860008201527f696c652070617573656400000000000000000000000000000000000000000000602082015250565b6000613b7f602a836127c2565b9150613b8a82613b23565b604082019050919050565b60006020820190508181036000830152613bae81613b72565b9050919050565b7f4e487b7100000000000000000000000000000000000000000000000000000000600052603160045260246000fdfea26469706673582212201e87e72d199840a82e2136fb2bd0f724bbe10514e47c6c9eca32d816258c9ed164736f6c634300080b0033",
  "linkReferences": {},
  "deployedLinkReferences": {}
}