{
  "_format": "hh-sol-artifact-1",
  "contractName": "KRBTokenV01",
  "sourceName": "contracts/KRBTokenV01.sol",
  "abi": [
    {
      "inputs": [],
      "stateMutability": "nonpayable",
      "type": "constructor"
    },
    {
      "anonymous": false,
      "inputs": [
        {
          "indexed": false,
          "internalType": "address",
          "name": "previousAdmin",
          "type": "address"
        },
        {
          "indexed": false,
          "internalType": "address",
          "name": "newAdmin",
          "type": "address"
        }
      ],
      "name": "AdminChanged",
      "type": "event"
    },
    {
      "anonymous": false,
      "inputs": [
        {
          "indexed": true,
          "internalType": "address",
          "name": "owner",
          "type": "address"
        },
        {
          "indexed": true,
          "internalType": "address",
          "name": "spender",
          "type": "address"
        },
        {
          "indexed": false,
          "internalType": "uint256",
          "name": "value",
          "type": "uint256"
        }
      ],
      "name": "Approval",
      "type": "event"
    },
    {
      "anonymous": false,
      "inputs": [
        {
          "indexed": true,
          "internalType": "address",
          "name": "beacon",
          "type": "address"
        }
      ],
      "name": "BeaconUpgraded",
      "type": "event"
    },
    {
      "anonymous": false,
      "inputs": [
        {
          "indexed": false,
          "internalType": "bytes32",
          "name": "uuid",
          "type": "bytes32"
        },
        {
          "indexed": false,
          "internalType": "string",
          "name": "reason",
          "type": "string"
        }
      ],
      "name": "Deleted",
      "type": "event"
    },
    {
      "anonymous": false,
      "inputs": [
        {
          "indexed": false,
          "internalType": "bytes32",
          "name": "uuid",
          "type": "bytes32"
        },
        {
          "indexed": false,
          "internalType": "bytes32",
          "name": "disputedBy",
          "type": "bytes32"
        }
      ],
      "name": "Disputed",
      "type": "event"
    },
    {
      "anonymous": false,
      "inputs": [
        {
          "indexed": false,
          "internalType": "bytes32",
          "name": "uuid",
          "type": "bytes32"
        }
      ],
      "name": "Expired",
      "type": "event"
    },
    {
      "anonymous": false,
      "inputs": [
        {
          "indexed": false,
          "internalType": "bytes32",
          "name": "uuid",
          "type": "bytes32"
        },
        {
          "components": [
            {
              "internalType": "string",
              "name": "_context",
              "type": "string"
            },
            {
              "internalType": "string",
              "name": "_type",
              "type": "string"
            },
            {
              "internalType": "string",
              "name": "id",
              "type": "string"
            },
            {
              "components": [
                {
                  "internalType": "string",
                  "name": "id",
                  "type": "string"
                },
                {
                  "internalType": "address",
                  "name": "ethereumAddress",
                  "type": "address"
                }
              ],
              "internalType": "struct VCTypesV01.Issuer",
              "name": "issuer",
              "type": "tuple"
            },
            {
              "components": [
                {
                  "internalType": "string",
                  "name": "id",
                  "type": "string"
                },
                {
                  "internalType": "address",
                  "name": "ethereumAddress",
                  "type": "address"
                },
                {
                  "internalType": "string",
                  "name": "_type",
                  "type": "string"
                },
                {
                  "internalType": "string",
                  "name": "typeSchema",
                  "type": "string"
                },
                {
                  "internalType": "string",
                  "name": "value",
                  "type": "string"
                },
                {
                  "internalType": "string",
                  "name": "encrypted",
                  "type": "string"
                },
                {
                  "internalType": "uint8",
                  "name": "trust",
                  "type": "uint8"
                },
                {
                  "internalType": "uint256",
                  "name": "stake",
                  "type": "uint256"
                },
                {
                  "internalType": "uint256",
                  "name": "price",
                  "type": "uint256"
                },
                {
                  "internalType": "uint256",
                  "name": "nbf",
                  "type": "uint256"
                },
                {
                  "internalType": "uint256",
                  "name": "exp",
                  "type": "uint256"
                }
              ],
              "internalType": "struct VCTypesV01.CredentialSubject",
              "name": "credentialSubject",
              "type": "tuple"
            },
            {
              "components": [
                {
                  "internalType": "string",
                  "name": "id",
                  "type": "string"
                },
                {
                  "internalType": "string",
                  "name": "_type",
                  "type": "string"
                }
              ],
              "internalType": "struct VCTypesV01.CredentialSchema",
              "name": "credentialSchema",
              "type": "tuple"
            },
            {
              "internalType": "string",
              "name": "issuanceDate",
              "type": "string"
            },
            {
              "internalType": "string",
              "name": "expirationDate",
              "type": "string"
            }
          ],
          "indexed": false,
          "internalType": "struct VCTypesV01.VerifiableCredential",
          "name": "vc",
          "type": "tuple"
        }
      ],
      "name": "Issued",
      "type": "event"
    },
    {
      "anonymous": false,
      "inputs": [
        {
          "indexed": false,
          "internalType": "address",
          "name": "account",
          "type": "address"
        }
      ],
      "name": "Paused",
      "type": "event"
    },
    {
      "anonymous": false,
      "inputs": [
        {
          "indexed": false,
          "internalType": "bytes32",
          "name": "uuid",
          "type": "bytes32"
        },
        {
          "indexed": false,
          "internalType": "string",
          "name": "reason",
          "type": "string"
        }
      ],
      "name": "Revoked",
      "type": "event"
    },
    {
      "anonymous": false,
      "inputs": [
        {
          "indexed": true,
          "internalType": "bytes32",
          "name": "role",
          "type": "bytes32"
        },
        {
          "indexed": true,
          "internalType": "bytes32",
          "name": "previousAdminRole",
          "type": "bytes32"
        },
        {
          "indexed": true,
          "internalType": "bytes32",
          "name": "newAdminRole",
          "type": "bytes32"
        }
      ],
      "name": "RoleAdminChanged",
      "type": "event"
    },
    {
      "anonymous": false,
      "inputs": [
        {
          "indexed": true,
          "internalType": "bytes32",
          "name": "role",
          "type": "bytes32"
        },
        {
          "indexed": true,
          "internalType": "address",
          "name": "account",
          "type": "address"
        },
        {
          "indexed": true,
          "internalType": "address",
          "name": "sender",
          "type": "address"
        }
      ],
      "name": "RoleGranted",
      "type": "event"
    },
    {
      "anonymous": false,
      "inputs": [
        {
          "indexed": true,
          "internalType": "bytes32",
          "name": "role",
          "type": "bytes32"
        },
        {
          "indexed": true,
          "internalType": "address",
          "name": "account",
          "type": "address"
        },
        {
          "indexed": true,
          "internalType": "address",
          "name": "sender",
          "type": "address"
        }
      ],
      "name": "RoleRevoked",
      "type": "event"
    },
    {
      "anonymous": false,
      "inputs": [
        {
          "indexed": true,
          "internalType": "address",
          "name": "from",
          "type": "address"
        },
        {
          "indexed": true,
          "internalType": "address",
          "name": "to",
          "type": "address"
        },
        {
          "indexed": false,
          "internalType": "uint256",
          "name": "value",
          "type": "uint256"
        }
      ],
      "name": "Staked",
      "type": "event"
    },
    {
      "anonymous": false,
      "inputs": [
        {
          "indexed": false,
          "internalType": "bytes32",
          "name": "uuid",
          "type": "bytes32"
        },
        {
          "indexed": false,
          "internalType": "string",
          "name": "reason",
          "type": "string"
        }
      ],
      "name": "Suspended",
      "type": "event"
    },
    {
      "anonymous": false,
      "inputs": [
        {
          "indexed": true,
          "internalType": "address",
          "name": "from",
          "type": "address"
        },
        {
          "indexed": true,
          "internalType": "address",
          "name": "to",
          "type": "address"
        },
        {
          "indexed": false,
          "internalType": "uint256",
          "name": "value",
          "type": "uint256"
        }
      ],
      "name": "Transfer",
      "type": "event"
    },
    {
      "anonymous": false,
      "inputs": [
        {
          "indexed": false,
          "internalType": "address",
          "name": "account",
          "type": "address"
        }
      ],
      "name": "Unpaused",
      "type": "event"
    },
    {
      "anonymous": false,
      "inputs": [],
      "name": "Updated",
      "type": "event"
    },
    {
      "anonymous": false,
      "inputs": [
        {
          "indexed": true,
          "internalType": "address",
          "name": "implementation",
          "type": "address"
        }
      ],
      "name": "Upgraded",
      "type": "event"
    },
    {
      "inputs": [],
      "name": "DEFAULT_ADMIN_ROLE",
      "outputs": [
        {
          "internalType": "bytes32",
          "name": "",
          "type": "bytes32"
        }
      ],
      "stateMutability": "view",
      "type": "function"
    },
    {
      "inputs": [],
      "name": "DOMAIN_SEPARATOR",
      "outputs": [
        {
          "internalType": "bytes32",
          "name": "",
          "type": "bytes32"
        }
      ],
      "stateMutability": "view",
      "type": "function"
    },
    {
      "inputs": [],
      "name": "GOVERN_ROLE",
      "outputs": [
        {
          "internalType": "bytes32",
          "name": "",
          "type": "bytes32"
        }
      ],
      "stateMutability": "view",
      "type": "function"
    },
    {
      "inputs": [
        {
          "internalType": "address",
          "name": "owner",
          "type": "address"
        },
        {
          "internalType": "address",
          "name": "spender",
          "type": "address"
        }
      ],
      "name": "allowance",
      "outputs": [
        {
          "internalType": "uint256",
          "name": "",
          "type": "uint256"
        }
      ],
      "stateMutability": "view",
      "type": "function"
    },
    {
      "inputs": [
        {
          "internalType": "address",
          "name": "spender",
          "type": "address"
        },
        {
          "internalType": "uint256",
          "name": "amount",
          "type": "uint256"
        }
      ],
      "name": "approve",
      "outputs": [
        {
          "internalType": "bool",
          "name": "",
          "type": "bool"
        }
      ],
      "stateMutability": "nonpayable",
      "type": "function"
    },
    {
      "inputs": [
        {
          "internalType": "address",
          "name": "account",
          "type": "address"
        }
      ],
      "name": "balanceOf",
      "outputs": [
        {
          "internalType": "uint256",
          "name": "",
          "type": "uint256"
        }
      ],
      "stateMutability": "view",
      "type": "function"
    },
    {
      "inputs": [
        {
          "internalType": "uint256",
          "name": "amount",
          "type": "uint256"
        }
      ],
      "name": "burn",
      "outputs": [],
      "stateMutability": "nonpayable",
      "type": "function"
    },
    {
      "inputs": [
        {
          "internalType": "address",
          "name": "account",
          "type": "address"
        },
        {
          "internalType": "uint256",
          "name": "amount",
          "type": "uint256"
        }
      ],
      "name": "burnFrom",
      "outputs": [],
      "stateMutability": "nonpayable",
      "type": "function"
    },
    {
      "inputs": [
        {
          "internalType": "address",
          "name": "issuer",
          "type": "address"
        },
        {
          "internalType": "uint256",
          "name": "stake",
          "type": "uint256"
        }
      ],
      "name": "burnStake",
      "outputs": [],
      "stateMutability": "nonpayable",
      "type": "function"
    },
    {
      "inputs": [],
      "name": "decimals",
      "outputs": [
        {
          "internalType": "uint8",
          "name": "",
          "type": "uint8"
        }
      ],
      "stateMutability": "view",
      "type": "function"
    },
    {
      "inputs": [
        {
          "internalType": "address",
          "name": "spender",
          "type": "address"
        },
        {
          "internalType": "uint256",
          "name": "subtractedValue",
          "type": "uint256"
        }
      ],
      "name": "decreaseAllowance",
      "outputs": [
        {
          "internalType": "bool",
          "name": "",
          "type": "bool"
        }
      ],
      "stateMutability": "nonpayable",
      "type": "function"
    },
    {
      "inputs": [
        {
          "components": [
            {
              "internalType": "string",
              "name": "_context",
              "type": "string"
            },
            {
              "internalType": "string",
              "name": "_type",
              "type": "string"
            },
            {
              "internalType": "string",
              "name": "id",
              "type": "string"
            },
            {
              "components": [
                {
                  "internalType": "string",
                  "name": "id",
                  "type": "string"
                },
                {
                  "internalType": "address",
                  "name": "ethereumAddress",
                  "type": "address"
                }
              ],
              "internalType": "struct VCTypesV01.Issuer",
              "name": "issuer",
              "type": "tuple"
            },
            {
              "components": [
                {
                  "internalType": "string",
                  "name": "id",
                  "type": "string"
                },
                {
                  "internalType": "address",
                  "name": "ethereumAddress",
                  "type": "address"
                },
                {
                  "internalType": "string",
                  "name": "_type",
                  "type": "string"
                },
                {
                  "internalType": "string",
                  "name": "typeSchema",
                  "type": "string"
                },
                {
                  "internalType": "string",
                  "name": "value",
                  "type": "string"
                },
                {
                  "internalType": "string",
                  "name": "encrypted",
                  "type": "string"
                },
                {
                  "internalType": "uint8",
                  "name": "trust",
                  "type": "uint8"
                },
                {
                  "internalType": "uint256",
                  "name": "stake",
                  "type": "uint256"
                },
                {
                  "internalType": "uint256",
                  "name": "price",
                  "type": "uint256"
                },
                {
                  "internalType": "uint256",
                  "name": "nbf",
                  "type": "uint256"
                },
                {
                  "internalType": "uint256",
                  "name": "exp",
                  "type": "uint256"
                }
              ],
              "internalType": "struct VCTypesV01.CredentialSubject",
              "name": "credentialSubject",
              "type": "tuple"
            },
            {
              "components": [
                {
                  "internalType": "string",
                  "name": "id",
                  "type": "string"
                },
                {
                  "internalType": "string",
                  "name": "_type",
                  "type": "string"
                }
              ],
              "internalType": "struct VCTypesV01.CredentialSchema",
              "name": "credentialSchema",
              "type": "tuple"
            },
            {
              "internalType": "string",
              "name": "issuanceDate",
              "type": "string"
            },
            {
              "internalType": "string",
              "name": "expirationDate",
              "type": "string"
            }
          ],
          "internalType": "struct VCTypesV01.VerifiableCredential",
          "name": "vc",
          "type": "tuple"
        },
        {
          "internalType": "string",
          "name": "reason",
          "type": "string"
        }
      ],
      "name": "deleteVC",
      "outputs": [
        {
          "internalType": "bool",
          "name": "",
          "type": "bool"
        }
      ],
      "stateMutability": "nonpayable",
      "type": "function"
    },
    {
      "inputs": [
        {
          "components": [
            {
              "internalType": "string",
              "name": "_context",
              "type": "string"
            },
            {
              "internalType": "string",
              "name": "_type",
              "type": "string"
            },
            {
              "internalType": "string",
              "name": "id",
              "type": "string"
            },
            {
              "components": [
                {
                  "internalType": "string",
                  "name": "id",
                  "type": "string"
                },
                {
                  "internalType": "address",
                  "name": "ethereumAddress",
                  "type": "address"
                }
              ],
              "internalType": "struct VCTypesV01.Issuer",
              "name": "issuer",
              "type": "tuple"
            },
            {
              "components": [
                {
                  "internalType": "string",
                  "name": "id",
                  "type": "string"
                },
                {
                  "internalType": "address",
                  "name": "ethereumAddress",
                  "type": "address"
                },
                {
                  "internalType": "string",
                  "name": "_type",
                  "type": "string"
                },
                {
                  "internalType": "string",
                  "name": "typeSchema",
                  "type": "string"
                },
                {
                  "internalType": "string",
                  "name": "value",
                  "type": "string"
                },
                {
                  "internalType": "string",
                  "name": "encrypted",
                  "type": "string"
                },
                {
                  "internalType": "uint8",
                  "name": "trust",
                  "type": "uint8"
                },
                {
                  "internalType": "uint256",
                  "name": "stake",
                  "type": "uint256"
                },
                {
                  "internalType": "uint256",
                  "name": "price",
                  "type": "uint256"
                },
                {
                  "internalType": "uint256",
                  "name": "nbf",
                  "type": "uint256"
                },
                {
                  "internalType": "uint256",
                  "name": "exp",
                  "type": "uint256"
                }
              ],
              "internalType": "struct VCTypesV01.CredentialSubject",
              "name": "credentialSubject",
              "type": "tuple"
            },
            {
              "components": [
                {
                  "internalType": "string",
                  "name": "id",
                  "type": "string"
                },
                {
                  "internalType": "string",
                  "name": "_type",
                  "type": "string"
                }
              ],
              "internalType": "struct VCTypesV01.CredentialSchema",
              "name": "credentialSchema",
              "type": "tuple"
            },
            {
              "internalType": "string",
              "name": "issuanceDate",
              "type": "string"
            },
            {
              "internalType": "string",
              "name": "expirationDate",
              "type": "string"
            }
          ],
          "internalType": "struct VCTypesV01.VerifiableCredential",
          "name": "vc",
          "type": "tuple"
        },
        {
          "components": [
            {
              "internalType": "string",
              "name": "_context",
              "type": "string"
            },
            {
              "internalType": "string",
              "name": "_type",
              "type": "string"
            },
            {
              "internalType": "string",
              "name": "id",
              "type": "string"
            },
            {
              "components": [
                {
                  "internalType": "string",
                  "name": "id",
                  "type": "string"
                },
                {
                  "internalType": "address",
                  "name": "ethereumAddress",
                  "type": "address"
                }
              ],
              "internalType": "struct VCTypesV01.Issuer",
              "name": "issuer",
              "type": "tuple"
            },
            {
              "components": [
                {
                  "internalType": "string",
                  "name": "id",
                  "type": "string"
                },
                {
                  "internalType": "address",
                  "name": "ethereumAddress",
                  "type": "address"
                },
                {
                  "internalType": "string",
                  "name": "_type",
                  "type": "string"
                },
                {
                  "internalType": "string",
                  "name": "typeSchema",
                  "type": "string"
                },
                {
                  "internalType": "string",
                  "name": "value",
                  "type": "string"
                },
                {
                  "internalType": "string",
                  "name": "encrypted",
                  "type": "string"
                },
                {
                  "internalType": "uint8",
                  "name": "trust",
                  "type": "uint8"
                },
                {
                  "internalType": "uint256",
                  "name": "stake",
                  "type": "uint256"
                },
                {
                  "internalType": "uint256",
                  "name": "price",
                  "type": "uint256"
                },
                {
                  "internalType": "uint256",
                  "name": "nbf",
                  "type": "uint256"
                },
                {
                  "internalType": "uint256",
                  "name": "exp",
                  "type": "uint256"
                }
              ],
              "internalType": "struct VCTypesV01.CredentialSubject",
              "name": "credentialSubject",
              "type": "tuple"
            },
            {
              "components": [
                {
                  "internalType": "string",
                  "name": "id",
                  "type": "string"
                },
                {
                  "internalType": "string",
                  "name": "_type",
                  "type": "string"
                }
              ],
              "internalType": "struct VCTypesV01.CredentialSchema",
              "name": "credentialSchema",
              "type": "tuple"
            },
            {
              "internalType": "string",
              "name": "issuanceDate",
              "type": "string"
            },
            {
              "internalType": "string",
              "name": "expirationDate",
              "type": "string"
            }
          ],
          "internalType": "struct VCTypesV01.VerifiableCredential",
          "name": "disputeVC",
          "type": "tuple"
        }
      ],
      "name": "disputeVCByGovern",
      "outputs": [
        {
          "internalType": "bool",
          "name": "",
          "type": "bool"
        }
      ],
      "stateMutability": "nonpayable",
      "type": "function"
    },
    {
      "inputs": [
        {
          "components": [
            {
              "internalType": "string",
              "name": "_context",
              "type": "string"
            },
            {
              "internalType": "string",
              "name": "_type",
              "type": "string"
            },
            {
              "internalType": "string",
              "name": "id",
              "type": "string"
            },
            {
              "components": [
                {
                  "internalType": "string",
                  "name": "id",
                  "type": "string"
                },
                {
                  "internalType": "address",
                  "name": "ethereumAddress",
                  "type": "address"
                }
              ],
              "internalType": "struct VCTypesV01.Issuer",
              "name": "issuer",
              "type": "tuple"
            },
            {
              "components": [
                {
                  "internalType": "string",
                  "name": "id",
                  "type": "string"
                },
                {
                  "internalType": "address",
                  "name": "ethereumAddress",
                  "type": "address"
                },
                {
                  "internalType": "string",
                  "name": "_type",
                  "type": "string"
                },
                {
                  "internalType": "string",
                  "name": "typeSchema",
                  "type": "string"
                },
                {
                  "internalType": "string",
                  "name": "value",
                  "type": "string"
                },
                {
                  "internalType": "string",
                  "name": "encrypted",
                  "type": "string"
                },
                {
                  "internalType": "uint8",
                  "name": "trust",
                  "type": "uint8"
                },
                {
                  "internalType": "uint256",
                  "name": "stake",
                  "type": "uint256"
                },
                {
                  "internalType": "uint256",
                  "name": "price",
                  "type": "uint256"
                },
                {
                  "internalType": "uint256",
                  "name": "nbf",
                  "type": "uint256"
                },
                {
                  "internalType": "uint256",
                  "name": "exp",
                  "type": "uint256"
                }
              ],
              "internalType": "struct VCTypesV01.CredentialSubject",
              "name": "credentialSubject",
              "type": "tuple"
            },
            {
              "components": [
                {
                  "internalType": "string",
                  "name": "id",
                  "type": "string"
                },
                {
                  "internalType": "string",
                  "name": "_type",
                  "type": "string"
                }
              ],
              "internalType": "struct VCTypesV01.CredentialSchema",
              "name": "credentialSchema",
              "type": "tuple"
            },
            {
              "internalType": "string",
              "name": "issuanceDate",
              "type": "string"
            },
            {
              "internalType": "string",
              "name": "expirationDate",
              "type": "string"
            }
          ],
          "internalType": "struct VCTypesV01.VerifiableCredential",
          "name": "vc",
          "type": "tuple"
        }
      ],
      "name": "expiredVC",
      "outputs": [
        {
          "internalType": "bool",
          "name": "",
          "type": "bool"
        }
      ],
      "stateMutability": "nonpayable",
      "type": "function"
    },
    {
      "inputs": [],
      "name": "feePercentage",
      "outputs": [
        {
          "internalType": "uint256",
          "name": "",
          "type": "uint256"
        }
      ],
      "stateMutability": "view",
      "type": "function"
    },
    {
      "inputs": [],
      "name": "feesAvailableForWithdraw",
      "outputs": [
        {
          "internalType": "uint256",
          "name": "",
          "type": "uint256"
        }
      ],
      "stateMutability": "view",
      "type": "function"
    },
    {
      "inputs": [
        {
          "internalType": "bytes32",
          "name": "role",
          "type": "bytes32"
        }
      ],
      "name": "getRoleAdmin",
      "outputs": [
        {
          "internalType": "bytes32",
          "name": "",
          "type": "bytes32"
        }
      ],
      "stateMutability": "view",
      "type": "function"
    },
    {
      "inputs": [
        {
          "internalType": "bytes32",
          "name": "role",
          "type": "bytes32"
        },
        {
          "internalType": "uint256",
          "name": "index",
          "type": "uint256"
        }
      ],
      "name": "getRoleMember",
      "outputs": [
        {
          "internalType": "address",
          "name": "",
          "type": "address"
        }
      ],
      "stateMutability": "view",
      "type": "function"
    },
    {
      "inputs": [
        {
          "internalType": "bytes32",
          "name": "role",
          "type": "bytes32"
        }
      ],
      "name": "getRoleMemberCount",
      "outputs": [
        {
          "internalType": "uint256",
          "name": "",
          "type": "uint256"
        }
      ],
      "stateMutability": "view",
      "type": "function"
    },
    {
      "inputs": [
        {
          "components": [
            {
              "internalType": "string",
              "name": "_context",
              "type": "string"
            },
            {
              "internalType": "string",
              "name": "_type",
              "type": "string"
            },
            {
              "internalType": "string",
              "name": "id",
              "type": "string"
            },
            {
              "components": [
                {
                  "internalType": "string",
                  "name": "id",
                  "type": "string"
                },
                {
                  "internalType": "address",
                  "name": "ethereumAddress",
                  "type": "address"
                }
              ],
              "internalType": "struct VCTypesV01.Issuer",
              "name": "issuer",
              "type": "tuple"
            },
            {
              "components": [
                {
                  "internalType": "string",
                  "name": "id",
                  "type": "string"
                },
                {
                  "internalType": "address",
                  "name": "ethereumAddress",
                  "type": "address"
                },
                {
                  "internalType": "string",
                  "name": "_type",
                  "type": "string"
                },
                {
                  "internalType": "string",
                  "name": "typeSchema",
                  "type": "string"
                },
                {
                  "internalType": "string",
                  "name": "value",
                  "type": "string"
                },
                {
                  "internalType": "string",
                  "name": "encrypted",
                  "type": "string"
                },
                {
                  "internalType": "uint8",
                  "name": "trust",
                  "type": "uint8"
                },
                {
                  "internalType": "uint256",
                  "name": "stake",
                  "type": "uint256"
                },
                {
                  "internalType": "uint256",
                  "name": "price",
                  "type": "uint256"
                },
                {
                  "internalType": "uint256",
                  "name": "nbf",
                  "type": "uint256"
                },
                {
                  "internalType": "uint256",
                  "name": "exp",
                  "type": "uint256"
                }
              ],
              "internalType": "struct VCTypesV01.CredentialSubject",
              "name": "credentialSubject",
              "type": "tuple"
            },
            {
              "components": [
                {
                  "internalType": "string",
                  "name": "id",
                  "type": "string"
                },
                {
                  "internalType": "string",
                  "name": "_type",
                  "type": "string"
                }
              ],
              "internalType": "struct VCTypesV01.CredentialSchema",
              "name": "credentialSchema",
              "type": "tuple"
            },
            {
              "internalType": "string",
              "name": "issuanceDate",
              "type": "string"
            },
            {
              "internalType": "string",
              "name": "expirationDate",
              "type": "string"
            }
          ],
          "internalType": "struct VCTypesV01.VerifiableCredential",
          "name": "vc",
          "type": "tuple"
        }
      ],
      "name": "getUuid",
      "outputs": [
        {
          "internalType": "bytes32",
          "name": "",
          "type": "bytes32"
        }
      ],
      "stateMutability": "pure",
      "type": "function"
    },
    {
      "inputs": [
        {
          "components": [
            {
              "internalType": "string",
              "name": "_context",
              "type": "string"
            },
            {
              "internalType": "string",
              "name": "_type",
              "type": "string"
            },
            {
              "internalType": "string",
              "name": "id",
              "type": "string"
            },
            {
              "components": [
                {
                  "internalType": "string",
                  "name": "id",
                  "type": "string"
                },
                {
                  "internalType": "address",
                  "name": "ethereumAddress",
                  "type": "address"
                }
              ],
              "internalType": "struct VCTypesV01.Issuer",
              "name": "issuer",
              "type": "tuple"
            },
            {
              "components": [
                {
                  "internalType": "string",
                  "name": "id",
                  "type": "string"
                },
                {
                  "internalType": "address",
                  "name": "ethereumAddress",
                  "type": "address"
                },
                {
                  "internalType": "string",
                  "name": "_type",
                  "type": "string"
                },
                {
                  "internalType": "string",
                  "name": "typeSchema",
                  "type": "string"
                },
                {
                  "internalType": "string",
                  "name": "value",
                  "type": "string"
                },
                {
                  "internalType": "string",
                  "name": "encrypted",
                  "type": "string"
                },
                {
                  "internalType": "uint8",
                  "name": "trust",
                  "type": "uint8"
                },
                {
                  "internalType": "uint256",
                  "name": "stake",
                  "type": "uint256"
                },
                {
                  "internalType": "uint256",
                  "name": "price",
                  "type": "uint256"
                },
                {
                  "internalType": "uint256",
                  "name": "nbf",
                  "type": "uint256"
                },
                {
                  "internalType": "uint256",
                  "name": "exp",
                  "type": "uint256"
                }
              ],
              "internalType": "struct VCTypesV01.CredentialSubject",
              "name": "credentialSubject",
              "type": "tuple"
            },
            {
              "components": [
                {
                  "internalType": "string",
                  "name": "id",
                  "type": "string"
                },
                {
                  "internalType": "string",
                  "name": "_type",
                  "type": "string"
                }
              ],
              "internalType": "struct VCTypesV01.CredentialSchema",
              "name": "credentialSchema",
              "type": "tuple"
            },
            {
              "internalType": "string",
              "name": "issuanceDate",
              "type": "string"
            },
            {
              "internalType": "string",
              "name": "expirationDate",
              "type": "string"
            }
          ],
          "internalType": "struct VCTypesV01.VerifiableCredential",
          "name": "vc",
          "type": "tuple"
        }
      ],
      "name": "getVCStatus",
      "outputs": [
        {
          "internalType": "string",
          "name": "",
          "type": "string"
        }
      ],
      "stateMutability": "view",
      "type": "function"
    },
    {
      "inputs": [
        {
          "internalType": "bytes32",
          "name": "role",
          "type": "bytes32"
        },
        {
          "internalType": "address",
          "name": "account",
          "type": "address"
        }
      ],
      "name": "grantRole",
      "outputs": [],
      "stateMutability": "nonpayable",
      "type": "function"
    },
    {
      "inputs": [
        {
          "internalType": "bytes32",
          "name": "role",
          "type": "bytes32"
        },
        {
          "internalType": "address",
          "name": "account",
          "type": "address"
        }
      ],
      "name": "hasRole",
      "outputs": [
        {
          "internalType": "bool",
          "name": "",
          "type": "bool"
        }
      ],
      "stateMutability": "view",
      "type": "function"
    },
    {
      "inputs": [
        {
          "internalType": "address",
          "name": "spender",
          "type": "address"
        },
        {
          "internalType": "uint256",
          "name": "addedValue",
          "type": "uint256"
        }
      ],
      "name": "increaseAllowance",
      "outputs": [
        {
          "internalType": "bool",
          "name": "",
          "type": "bool"
        }
      ],
      "stateMutability": "nonpayable",
      "type": "function"
    },
    {
      "inputs": [],
      "name": "initialize",
      "outputs": [],
      "stateMutability": "nonpayable",
      "type": "function"
    },
    {
      "inputs": [],
      "name": "maxStakeToIssue",
      "outputs": [
        {
          "internalType": "uint256",
          "name": "",
          "type": "uint256"
        }
      ],
      "stateMutability": "view",
      "type": "function"
    },
    {
      "inputs": [],
      "name": "minBalanceToIssue",
      "outputs": [
        {
          "internalType": "uint256",
          "name": "",
          "type": "uint256"
        }
      ],
      "stateMutability": "view",
      "type": "function"
    },
    {
      "inputs": [],
      "name": "minBalanceToReceive",
      "outputs": [
        {
          "internalType": "uint256",
          "name": "",
          "type": "uint256"
        }
      ],
      "stateMutability": "view",
      "type": "function"
    },
    {
      "inputs": [],
      "name": "minBalanceToTransfer",
      "outputs": [
        {
          "internalType": "uint256",
          "name": "",
          "type": "uint256"
        }
      ],
      "stateMutability": "view",
      "type": "function"
    },
    {
      "inputs": [],
      "name": "minPriceToIssue",
      "outputs": [
        {
          "internalType": "uint256",
          "name": "",
          "type": "uint256"
        }
      ],
      "stateMutability": "view",
      "type": "function"
    },
    {
      "inputs": [],
      "name": "minStakeToIssue",
      "outputs": [
        {
          "internalType": "uint256",
          "name": "",
          "type": "uint256"
        }
      ],
      "stateMutability": "view",
      "type": "function"
    },
    {
      "inputs": [
        {
          "internalType": "address",
          "name": "to",
          "type": "address"
        },
        {
          "internalType": "uint256",
          "name": "amount",
          "type": "uint256"
        }
      ],
      "name": "mint",
      "outputs": [],
      "stateMutability": "nonpayable",
      "type": "function"
    },
    {
      "inputs": [],
      "name": "name",
      "outputs": [
        {
          "internalType": "string",
          "name": "",
          "type": "string"
        }
      ],
      "stateMutability": "view",
      "type": "function"
    },
    {
      "inputs": [],
      "name": "pause",
      "outputs": [],
      "stateMutability": "nonpayable",
      "type": "function"
    },
    {
      "inputs": [],
      "name": "paused",
      "outputs": [
        {
          "internalType": "bool",
          "name": "",
          "type": "bool"
        }
      ],
      "stateMutability": "view",
      "type": "function"
    },
    {
      "inputs": [
        {
          "internalType": "address",
          "name": "dest",
          "type": "address"
        }
      ],
      "name": "payments",
      "outputs": [
        {
          "internalType": "uint256",
          "name": "",
          "type": "uint256"
        }
      ],
      "stateMutability": "view",
      "type": "function"
    },
    {
      "inputs": [
        {
          "components": [
            {
              "internalType": "string",
              "name": "_context",
              "type": "string"
            },
            {
              "internalType": "string",
              "name": "_type",
              "type": "string"
            },
            {
              "internalType": "string",
              "name": "id",
              "type": "string"
            },
            {
              "components": [
                {
                  "internalType": "string",
                  "name": "id",
                  "type": "string"
                },
                {
                  "internalType": "address",
                  "name": "ethereumAddress",
                  "type": "address"
                }
              ],
              "internalType": "struct VCTypesV01.Issuer",
              "name": "issuer",
              "type": "tuple"
            },
            {
              "components": [
                {
                  "internalType": "string",
                  "name": "id",
                  "type": "string"
                },
                {
                  "internalType": "address",
                  "name": "ethereumAddress",
                  "type": "address"
                },
                {
                  "internalType": "string",
                  "name": "_type",
                  "type": "string"
                },
                {
                  "internalType": "string",
                  "name": "typeSchema",
                  "type": "string"
                },
                {
                  "internalType": "string",
                  "name": "value",
                  "type": "string"
                },
                {
                  "internalType": "string",
                  "name": "encrypted",
                  "type": "string"
                },
                {
                  "internalType": "uint8",
                  "name": "trust",
                  "type": "uint8"
                },
                {
                  "internalType": "uint256",
                  "name": "stake",
                  "type": "uint256"
                },
                {
                  "internalType": "uint256",
                  "name": "price",
                  "type": "uint256"
                },
                {
                  "internalType": "uint256",
                  "name": "nbf",
                  "type": "uint256"
                },
                {
                  "internalType": "uint256",
                  "name": "exp",
                  "type": "uint256"
                }
              ],
              "internalType": "struct VCTypesV01.CredentialSubject",
              "name": "credentialSubject",
              "type": "tuple"
            },
            {
              "components": [
                {
                  "internalType": "string",
                  "name": "id",
                  "type": "string"
                },
                {
                  "internalType": "string",
                  "name": "_type",
                  "type": "string"
                }
              ],
              "internalType": "struct VCTypesV01.CredentialSchema",
              "name": "credentialSchema",
              "type": "tuple"
            },
            {
              "internalType": "string",
              "name": "issuanceDate",
              "type": "string"
            },
            {
              "internalType": "string",
              "name": "expirationDate",
              "type": "string"
            }
          ],
          "internalType": "struct VCTypesV01.VerifiableCredential",
          "name": "vc",
          "type": "tuple"
        },
        {
          "internalType": "bytes",
          "name": "proofValue",
          "type": "bytes"
        }
      ],
      "name": "registerVC",
      "outputs": [
        {
          "internalType": "bool",
          "name": "",
          "type": "bool"
        }
      ],
      "stateMutability": "payable",
      "type": "function"
    },
    {
      "inputs": [
        {
          "internalType": "bytes32",
          "name": "",
          "type": "bytes32"
        }
      ],
      "name": "registry",
      "outputs": [
        {
          "internalType": "enum KRBTokenV01.Status",
          "name": "credentialStatus",
          "type": "uint8"
        },
        {
          "internalType": "bytes32",
          "name": "disputedBy",
          "type": "bytes32"
        }
      ],
      "stateMutability": "view",
      "type": "function"
    },
    {
      "inputs": [
        {
          "internalType": "bytes32",
          "name": "role",
          "type": "bytes32"
        },
        {
          "internalType": "address",
          "name": "account",
          "type": "address"
        }
      ],
      "name": "renounceRole",
      "outputs": [],
      "stateMutability": "nonpayable",
      "type": "function"
    },
    {
      "inputs": [
        {
          "internalType": "bytes32",
          "name": "role",
          "type": "bytes32"
        },
        {
          "internalType": "address",
          "name": "account",
          "type": "address"
        }
      ],
      "name": "revokeRole",
      "outputs": [],
      "stateMutability": "nonpayable",
      "type": "function"
    },
    {
      "inputs": [
        {
          "components": [
            {
              "internalType": "string",
              "name": "_context",
              "type": "string"
            },
            {
              "internalType": "string",
              "name": "_type",
              "type": "string"
            },
            {
              "internalType": "string",
              "name": "id",
              "type": "string"
            },
            {
              "components": [
                {
                  "internalType": "string",
                  "name": "id",
                  "type": "string"
                },
                {
                  "internalType": "address",
                  "name": "ethereumAddress",
                  "type": "address"
                }
              ],
              "internalType": "struct VCTypesV01.Issuer",
              "name": "issuer",
              "type": "tuple"
            },
            {
              "components": [
                {
                  "internalType": "string",
                  "name": "id",
                  "type": "string"
                },
                {
                  "internalType": "address",
                  "name": "ethereumAddress",
                  "type": "address"
                },
                {
                  "internalType": "string",
                  "name": "_type",
                  "type": "string"
                },
                {
                  "internalType": "string",
                  "name": "typeSchema",
                  "type": "string"
                },
                {
                  "internalType": "string",
                  "name": "value",
                  "type": "string"
                },
                {
                  "internalType": "string",
                  "name": "encrypted",
                  "type": "string"
                },
                {
                  "internalType": "uint8",
                  "name": "trust",
                  "type": "uint8"
                },
                {
                  "internalType": "uint256",
                  "name": "stake",
                  "type": "uint256"
                },
                {
                  "internalType": "uint256",
                  "name": "price",
                  "type": "uint256"
                },
                {
                  "internalType": "uint256",
                  "name": "nbf",
                  "type": "uint256"
                },
                {
                  "internalType": "uint256",
                  "name": "exp",
                  "type": "uint256"
                }
              ],
              "internalType": "struct VCTypesV01.CredentialSubject",
              "name": "credentialSubject",
              "type": "tuple"
            },
            {
              "components": [
                {
                  "internalType": "string",
                  "name": "id",
                  "type": "string"
                },
                {
                  "internalType": "string",
                  "name": "_type",
                  "type": "string"
                }
              ],
              "internalType": "struct VCTypesV01.CredentialSchema",
              "name": "credentialSchema",
              "type": "tuple"
            },
            {
              "internalType": "string",
              "name": "issuanceDate",
              "type": "string"
            },
            {
              "internalType": "string",
              "name": "expirationDate",
              "type": "string"
            }
          ],
          "internalType": "struct VCTypesV01.VerifiableCredential",
          "name": "vc",
          "type": "tuple"
        },
        {
          "internalType": "string",
          "name": "reason",
          "type": "string"
        }
      ],
      "name": "revokeVC",
      "outputs": [
        {
          "internalType": "bool",
          "name": "",
          "type": "bool"
        }
      ],
      "stateMutability": "nonpayable",
      "type": "function"
    },
    {
      "inputs": [
        {
          "internalType": "address",
          "name": "issuer",
          "type": "address"
        }
      ],
      "name": "stakeOf",
      "outputs": [
        {
          "internalType": "uint256",
          "name": "",
          "type": "uint256"
        }
      ],
      "stateMutability": "view",
      "type": "function"
    },
    {
      "inputs": [
        {
          "internalType": "bytes4",
          "name": "interfaceId",
          "type": "bytes4"
        }
      ],
      "name": "supportsInterface",
      "outputs": [
        {
          "internalType": "bool",
          "name": "",
          "type": "bool"
        }
      ],
      "stateMutability": "view",
      "type": "function"
    },
    {
      "inputs": [
        {
          "components": [
            {
              "internalType": "string",
              "name": "_context",
              "type": "string"
            },
            {
              "internalType": "string",
              "name": "_type",
              "type": "string"
            },
            {
              "internalType": "string",
              "name": "id",
              "type": "string"
            },
            {
              "components": [
                {
                  "internalType": "string",
                  "name": "id",
                  "type": "string"
                },
                {
                  "internalType": "address",
                  "name": "ethereumAddress",
                  "type": "address"
                }
              ],
              "internalType": "struct VCTypesV01.Issuer",
              "name": "issuer",
              "type": "tuple"
            },
            {
              "components": [
                {
                  "internalType": "string",
                  "name": "id",
                  "type": "string"
                },
                {
                  "internalType": "address",
                  "name": "ethereumAddress",
                  "type": "address"
                },
                {
                  "internalType": "string",
                  "name": "_type",
                  "type": "string"
                },
                {
                  "internalType": "string",
                  "name": "typeSchema",
                  "type": "string"
                },
                {
                  "internalType": "string",
                  "name": "value",
                  "type": "string"
                },
                {
                  "internalType": "string",
                  "name": "encrypted",
                  "type": "string"
                },
                {
                  "internalType": "uint8",
                  "name": "trust",
                  "type": "uint8"
                },
                {
                  "internalType": "uint256",
                  "name": "stake",
                  "type": "uint256"
                },
                {
                  "internalType": "uint256",
                  "name": "price",
                  "type": "uint256"
                },
                {
                  "internalType": "uint256",
                  "name": "nbf",
                  "type": "uint256"
                },
                {
                  "internalType": "uint256",
                  "name": "exp",
                  "type": "uint256"
                }
              ],
              "internalType": "struct VCTypesV01.CredentialSubject",
              "name": "credentialSubject",
              "type": "tuple"
            },
            {
              "components": [
                {
                  "internalType": "string",
                  "name": "id",
                  "type": "string"
                },
                {
                  "internalType": "string",
                  "name": "_type",
                  "type": "string"
                }
              ],
              "internalType": "struct VCTypesV01.CredentialSchema",
              "name": "credentialSchema",
              "type": "tuple"
            },
            {
              "internalType": "string",
              "name": "issuanceDate",
              "type": "string"
            },
            {
              "internalType": "string",
              "name": "expirationDate",
              "type": "string"
            }
          ],
          "internalType": "struct VCTypesV01.VerifiableCredential",
          "name": "vc",
          "type": "tuple"
        },
        {
          "internalType": "string",
          "name": "reason",
          "type": "string"
        }
      ],
      "name": "suspendVC",
      "outputs": [
        {
          "internalType": "bool",
          "name": "",
          "type": "bool"
        }
      ],
      "stateMutability": "nonpayable",
      "type": "function"
    },
    {
      "inputs": [],
      "name": "symbol",
      "outputs": [
        {
          "internalType": "string",
          "name": "",
          "type": "string"
        }
      ],
      "stateMutability": "view",
      "type": "function"
    },
    {
      "inputs": [],
      "name": "totalSupply",
      "outputs": [
        {
          "internalType": "uint256",
          "name": "",
          "type": "uint256"
        }
      ],
      "stateMutability": "view",
      "type": "function"
    },
    {
      "inputs": [
        {
          "internalType": "address",
          "name": "recipient",
          "type": "address"
        },
        {
          "internalType": "uint256",
          "name": "amount",
          "type": "uint256"
        }
      ],
      "name": "transfer",
      "outputs": [
        {
          "internalType": "bool",
          "name": "",
          "type": "bool"
        }
      ],
      "stateMutability": "nonpayable",
      "type": "function"
    },
    {
      "inputs": [
        {
          "internalType": "address",
          "name": "sender",
          "type": "address"
        },
        {
          "internalType": "address",
          "name": "recipient",
          "type": "address"
        },
        {
          "internalType": "uint256",
          "name": "amount",
          "type": "uint256"
        }
      ],
      "name": "transferFrom",
      "outputs": [
        {
          "internalType": "bool",
          "name": "",
          "type": "bool"
        }
      ],
      "stateMutability": "nonpayable",
      "type": "function"
    },
    {
      "inputs": [],
      "name": "unpause",
      "outputs": [],
      "stateMutability": "nonpayable",
      "type": "function"
    },
    {
      "inputs": [
        {
          "internalType": "uint256",
          "name": "newMinBalanceToTransfer",
          "type": "uint256"
        },
        {
          "internalType": "uint256",
          "name": "newMinBalanceToReceive",
          "type": "uint256"
        },
        {
          "internalType": "uint256",
          "name": "newMinBalanceToIssue",
          "type": "uint256"
        },
        {
          "internalType": "uint256",
          "name": "newFeePercentage",
          "type": "uint256"
        },
        {
          "internalType": "uint256",
          "name": "newMinPrice",
          "type": "uint256"
        },
        {
          "internalType": "uint256",
          "name": "newMinStake",
          "type": "uint256"
        },
        {
          "internalType": "uint256",
          "name": "newMaxStake",
          "type": "uint256"
        }
      ],
      "name": "updateParameters",
      "outputs": [],
      "stateMutability": "nonpayable",
      "type": "function"
    },
    {
      "inputs": [
        {
          "internalType": "address",
          "name": "newImplementation",
          "type": "address"
        }
      ],
      "name": "upgradeTo",
      "outputs": [],
      "stateMutability": "nonpayable",
      "type": "function"
    },
    {
      "inputs": [
        {
          "internalType": "address",
          "name": "newImplementation",
          "type": "address"
        },
        {
          "internalType": "bytes",
          "name": "data",
          "type": "bytes"
        }
      ],
      "name": "upgradeToAndCall",
      "outputs": [],
      "stateMutability": "payable",
      "type": "function"
    },
    {
      "inputs": [
        {
          "internalType": "address payable",
          "name": "_to",
          "type": "address"
        },
        {
          "internalType": "uint256",
          "name": "_amount",
          "type": "uint256"
        }
      ],
      "name": "withdrawFees",
      "outputs": [],
      "stateMutability": "nonpayable",
      "type": "function"
    },
    {
      "inputs": [
        {
          "internalType": "address payable",
          "name": "payee",
          "type": "address"
        }
      ],
      "name": "withdrawPayments",
      "outputs": [],
      "stateMutability": "nonpayable",
      "type": "function"
    }
  ],
  "bytecode": "0x60a0604052306080523480156200001557600080fd5b50600054610100900460ff16620000335760005460ff16156200003d565b6200003d620000e2565b620000a55760405162461bcd60e51b815260206004820152602e60248201527f496e697469616c697a61626c653a20636f6e747261637420697320616c72656160448201526d191e481a5b9a5d1a585b1a5e995960921b606482015260840160405180910390fd5b600054610100900460ff16158015620000c8576000805461ffff19166101011790555b8015620000db576000805461ff00191690555b5062000106565b6000620000fa306200010060201b620027fe1760201c565b15905090565b3b151590565b608051615fdb620001376000396000818161130c0152818161134c015281816114f601526115360152615fdb6000f3fe6080604052600436106102d55760003560e01c80637ef502981161017b578063af4e720d116100d7578063dd62ed3e11610085578063dd62ed3e146108b7578063de5785d5146108fd578063de9d2b1c14610914578063dec9cafe1461092b578063e2982c211461093e578063e5a2b28e1461095e578063ee2b1b4d1461097557600080fd5b8063af4e720d146107e0578063bcd68993146107f7578063c0d506d614610817578063ca15c87314610837578063ca2a8cfc14610857578063ce556f9d14610877578063d547741f1461089757600080fd5b806395d89b411161013457806395d89b411461071f5780639c70287c14610734578063a001ecdd14610754578063a217fddf1461076b578063a457c2d714610780578063a9059cbb146107a0578063ad3b1b47146107c057600080fd5b80637ef502981461063f5780638129fc1c146106885780638456cb591461069d578063888bb7b5146106b25780639010d07c146106d257806391d14854146106ff57600080fd5b80633644e5151161023557806342623360116101e3578063426233601461055c57806342966c68146105935780634f1ef286146105b35780635c975abb146105c657806370a08231146105df578063716f4d90146105ff57806379cc67901461061f57600080fd5b80633644e5151461049057806336568abe146104a55780633659cfe6146104c557806338b7f446146104e557806339509351146105075780633f4ba83a1461052757806340c10f191461053c57600080fd5b806318160ddd1161029257806318160ddd146103af57806323b872dd146103c4578063248a9ca3146103e45780632a401e81146104145780632f2ff15d14610434578063313ce5671461045457806331b3eb941461047057600080fd5b806301ffc9a7146102da57806306fdde031461030f57806307a0d7981461033157806307a7729214610356578063095ea7b31461036d5780630e8bc0741461038d575b600080fd5b3480156102e657600080fd5b506102fa6102f53660046148b5565b61098c565b60405190151581526020015b60405180910390f35b34801561031b57600080fd5b506103246109b7565b6040516103069190614937565b34801561033d57600080fd5b506103486102935481565b604051908152602001610306565b34801561036257600080fd5b5061034861028f5481565b34801561037957600080fd5b506102fa61038836600461496f565b610a49565b34801561039957600080fd5b506103ad6103a836600461499b565b610a5f565b005b3480156103bb57600080fd5b5060cb54610348565b3480156103d057600080fd5b506102fa6103df3660046149e7565b610ba4565b3480156103f057600080fd5b506103486103ff366004614a28565b60009081526065602052604090206001015490565b34801561042057600080fd5b506102fa61042f366004614ea5565b610c50565b34801561044057600080fd5b506103ad61044f366004614f08565b6111e3565b34801561046057600080fd5b5060405160128152602001610306565b34801561047c57600080fd5b506103ad61048b366004614f38565b61120e565b34801561049c57600080fd5b50610348611274565b3480156104b157600080fd5b506103ad6104c0366004614f08565b611283565b3480156104d157600080fd5b506103ad6104e0366004614f38565b611301565b3480156104f157600080fd5b50610348600080516020615eff83398151915281565b34801561051357600080fd5b506102fa61052236600461496f565b6113ca565b34801561053357600080fd5b506103ad611406565b34801561054857600080fd5b506103ad61055736600461496f565b611475565b34801561056857600080fd5b50610348610577366004614f38565b6001600160a01b03166000908152610297602052604090205490565b34801561059f57600080fd5b506103ad6105ae366004614a28565b6114e1565b6103ad6105c1366004614f55565b6114eb565b3480156105d257600080fd5b5061012d5460ff166102fa565b3480156105eb57600080fd5b506103486105fa366004614f38565b6115a1565b34801561060b57600080fd5b506102fa61061a366004614f9a565b6115bc565b34801561062b57600080fd5b506103ad61063a36600461496f565b6117c2565b34801561064b57600080fd5b5061067a61065a366004614a28565b610296602052600090815260409020805460019091015460ff9091169082565b604051610306929190615009565b34801561069457600080fd5b506103ad611843565b3480156106a957600080fd5b506103ad61195a565b3480156106be57600080fd5b506102fa6106cd366004615035565b6119c5565b3480156106de57600080fd5b506106f26106ed366004615071565b611b2d565b6040516103069190615093565b34801561070b57600080fd5b506102fa61071a366004614f08565b611b45565b34801561072b57600080fd5b50610324611b70565b34801561074057600080fd5b506103ad61074f36600461496f565b611b7f565b34801561076057600080fd5b506103486102945481565b34801561077757600080fd5b50610348600081565b34801561078c57600080fd5b506102fa61079b36600461496f565b611cd7565b3480156107ac57600080fd5b506102fa6107bb36600461496f565b611d70565b3480156107cc57600080fd5b506103ad6107db36600461496f565b611d7d565b3480156107ec57600080fd5b506103486102905481565b34801561080357600080fd5b50610348610812366004615035565b611e73565b34801561082357600080fd5b50610324610832366004615035565b611e7e565b34801561084357600080fd5b50610348610852366004614a28565b612045565b34801561086357600080fd5b506102fa610872366004614f9a565b61205c565b34801561088357600080fd5b506102fa610892366004614f9a565b61212b565b3480156108a357600080fd5b506103ad6108b2366004614f08565b612316565b3480156108c357600080fd5b506103486108d23660046150a7565b6001600160a01b03918216600090815260ca6020908152604080832093909416825291909152205490565b34801561090957600080fd5b506103486102955481565b34801561092057600080fd5b506103486102925481565b6102fa610939366004614f9a565b61233c565b34801561094a57600080fd5b50610348610959366004614f38565b61278b565b34801561096a57600080fd5b5061034861028e5481565b34801561098157600080fd5b506103486102915481565b60006001600160e01b03198216635a05180f60e01b14806109b157506109b182612804565b92915050565b606060cc80546109c6906150d5565b80601f01602080910402602001604051908101604052809291908181526020018280546109f2906150d5565b8015610a3f5780601f10610a1457610100808354040283529160200191610a3f565b820191906000526020600020905b815481529060010190602001808311610a2257829003601f168201915b5050505050905090565b6000610a56338484612839565b50600192915050565b610a77600080516020615eff83398151915233611b45565b610ad35760405162461bcd60e51b81526020600482015260346024820152600080516020615f86833981519152604482015273746f206368616e676520706172616d657465727360601b60648201526084015b60405180910390fd5b61028e87905561028f869055610290859055610294849055610291839055818111610b665760405162461bcd60e51b815260206004820152603f60248201527f4b5242546f6b656e3a206e65774d61785374616b65206d75737420626520677260448201527f6561746572206f7220657175616c207468616e206e65774d696e5374616b65006064820152608401610aca565b6102928290556102938190556040517ff2e795d4a33ae9a0d3282888375b8ae781ea4de1cbf101ac96150aa95ccff0b490600090a150505050505050565b6000610bb184848461295d565b6001600160a01b038416600090815260ca6020908152604080832033845290915290205482811015610c365760405162461bcd60e51b815260206004820152602860248201527f45524332303a207472616e7366657220616d6f756e74206578636565647320616044820152676c6c6f77616e636560c01b6064820152608401610aca565b610c438533858403612839565b60019150505b9392505050565b6000610c6a600080516020615eff83398151915233611b45565b610cbf5760405162461bcd60e51b81526020600482015260326024820152600080516020615f86833981519152604482015271746f207265736f6c7665206469737075746560701b6064820152608401610aca565b604051602001610d07907f5b2256657269666961626c6543726564656e7469616c222c224469737075746581526b43726564656e7469616c225d60a01b6020820152602c0190565b604051602081830303815290604052805190602001208260200151604051602001610d329190615110565b6040516020818303038152906040528051906020012014610db45760405162461bcd60e51b815260206004820152603660248201527f4b5242546f6b656e3a206469737075746520636c61696d2074797065206d75736044820152751d08189948111a5cdc1d5d1950dc9959195b9d1a585b60521b6064820152608401610aca565b6060820151602001516001600160a01b03163314610e285760405162461bcd60e51b815260206004820152602b60248201527f4b5242546f6b656e3a20697373756572206d7573742062652074686520476f7660448201526a65726e206164647265737360a81b6064820152608401610aca565b8260400151604051602001610e3d9190615110565b60408051601f198184030181529082905280516020918201206080850151519092610e689201615110565b6040516020818303038152906040528051906020012014610ef15760405162461bcd60e51b815260206004820152603c60248201527f4b5242546f6b656e3a206469737075746556432063726564656e7469616c537560448201527f626a6563742069642064696666657265732066726f6d205643206964000000006064820152608401610aca565b610efa82612b26565b6000610f0584611e73565b9050600080828152610296602052604090205460ff166005811115610f2c57610f2c614ff3565b14158015610f5e575060026000828152610296602052604090205460ff166005811115610f5b57610f5b614ff3565b14155b610fb65760405162461bcd60e51b815260206004820152602360248201527f4b5242546f6b656e3a20564320737461746520616c72656164792064697370756044820152621d195960ea1b6064820152608401610aca565b6000610fc184611e73565b60008381526102966020908152604091829020805460ff1916600217815560010183905581518581529081018390529192507f8e39eab2c454d024fb5c89b50dabc51f5068c7a283891d06aa91f5ba96acded1910160405180910390a16000818152610296602052604090819020805460ff19166001179055517f632a70c3617009ee20500487ed52cd53ce50635cd84cf177b09577715eae51db9061106a9083908790615270565b60405180910390a160006110806012600a615467565b866080015160e001516110939190615476565b90508061029760008860600151602001516001600160a01b03166001600160a01b0316815260200190815260200160002054106111495760608601516020908101516001600160a01b0316600090815261029790915260409020546110f89082612e8a565b6060870180516020908101516001600160a01b039081166000908152610297835260408082209590955592518201519351858152931692600080516020615f46833981519152910160405180910390a35b600061116082886080015160c0015160ff16612e96565b905061117487608001516020015182612ea5565b61118687606001516020015182612ea5565b60006111946012600a615467565b876080015160e001516111a79190615476565b905060006111c082896080015160c0015160ff16612e96565b90506111d488608001516020015182612fed565b50600198975050505050505050565b6000828152606560205260409020600101546111ff81336130c6565b611209838361312a565b505050565b610229546040516351cff8d960e01b81526001600160a01b03909116906351cff8d99061123f908490600401615093565b600060405180830381600087803b15801561125957600080fd5b505af115801561126d573d6000803e3d6000fd5b5050505050565b600061127e61314c565b905090565b6001600160a01b03811633146112f35760405162461bcd60e51b815260206004820152602f60248201527f416363657373436f6e74726f6c3a2063616e206f6e6c792072656e6f756e636560448201526e103937b632b9903337b91039b2b63360891b6064820152608401610aca565b6112fd82826131c9565b5050565b306001600160a01b037f000000000000000000000000000000000000000000000000000000000000000016141561134a5760405162461bcd60e51b8152600401610aca90615495565b7f00000000000000000000000000000000000000000000000000000000000000006001600160a01b031661137c6131eb565b6001600160a01b0316146113a25760405162461bcd60e51b8152600401610aca906154e1565b6113ab81613219565b604080516000808252602082019092526113c79183919061327e565b50565b33600081815260ca602090815260408083206001600160a01b03871684529091528120549091610a5691859061140190869061552d565b612839565b61141e600080516020615eff83398151915233611b45565b61146b5760405162461bcd60e51b815260206004820152602a6024820152600080516020615f86833981519152604482015269746f20756e706175736560b01b6064820152608401610aca565b6114736133be565b565b61148d600080516020615eff83398151915233611b45565b6114d75760405162461bcd60e51b81526020600482015260276024820152600080516020615f868339815191526044820152661d1bc81b5a5b9d60ca1b6064820152608401610aca565b6112fd8282612fed565b6113c73382612ea5565b306001600160a01b037f00000000000000000000000000000000000000000000000000000000000000001614156115345760405162461bcd60e51b8152600401610aca90615495565b7f00000000000000000000000000000000000000000000000000000000000000006001600160a01b03166115666131eb565b6001600160a01b03161461158c5760405162461bcd60e51b8152600401610aca906154e1565b61159582613219565b6112fd8282600161327e565b6001600160a01b0316600090815260c9602052604090205490565b6080820151602001516000906001600160a01b031633146115ef5760405162461bcd60e51b8152600401610aca90615545565b60006115fa84611e73565b905060016000828152610296602052604090205460ff16600581111561162257611622614ff3565b1461163f5760405162461bcd60e51b8152600401610aca9061559b565b6000818152610296602052604090819020805460ff19169055517f761f6dc13136b4cb3a156f0ed2a2b0865663e8bae80e43eb200aaff89b223b8a9061168890839086906155d2565b60405180910390a1600061169e6012600a615467565b856080015160e001516116b19190615476565b905060006116ca82876080015160c0015160ff16612e96565b90508161029760008860600151602001516001600160a01b03166001600160a01b0316815260200190815260200160002054106117805760608601516020908101516001600160a01b03166000908152610297909152604090205461172f9083612e8a565b6060870180516020908101516001600160a01b039081166000908152610297835260408082209590955592518201519351868152931692600080516020615f46833981519152910160405180910390a35b61179286606001516020015183612fed565b6117a486608001516020015182612ea5565b6117b686606001516020015182612ea5565b50600195945050505050565b60006117ce83336108d2565b90508181101561182c5760405162461bcd60e51b8152602060048201526024808201527f45524332303a206275726e20616d6f756e74206578636565647320616c6c6f77604482015263616e636560e01b6064820152608401610aca565b6118398333848403612839565b6112098383612ea5565b600054610100900460ff1661185e5760005460ff1615611862565b303b155b6118c55760405162461bcd60e51b815260206004820152602e60248201527f496e697469616c697a61626c653a20636f6e747261637420697320616c72656160448201526d191e481a5b9a5d1a585b1a5e995960921b6064820152608401610aca565b600054610100900460ff161580156118e7576000805461ffff19166101011790555b6119466040518060400160405280600681526020016512dc99589a5d60d21b8152506040518060400160405280600381526020016225a92160e91b81525060405180604001604052806003815260200162302e3160e81b81525061344d565b80156113c7576000805461ff001916905550565b611972600080516020615eff83398151915233611b45565b6119bd5760405162461bcd60e51b81526020600482015260286024820152600080516020615f86833981519152604482015267746f20706175736560c01b6064820152608401610aca565b6114736134db565b6000806119d183611e73565b905082608001516101400151421115611b1d5760006119f26012600a615467565b846080015160e00151611a059190615476565b90508061029760008660600151602001516001600160a01b03166001600160a01b031681526020019081526020016000205410611abb5760608401516020908101516001600160a01b031660009081526102979091526040902054611a6a9082612e8a565b6060850180516020908101516001600160a01b039081166000908152610297835260408082209590955592518201519351858152931692600080516020615f46833981519152910160405180910390a35b611acd84606001516020015182612fed565b60008281526102966020908152604091829020805460ff1916600517905590518381527f3077f64f92ad91c6479071531304fa3c1e0bb9b63e130c746f3a564292f0ddc6910160405180910390a1505b5050608001516101400151421190565b6000828152609760205260408120610c499083613558565b60009182526065602090815260408084206001600160a01b0393909316845291905290205460ff1690565b606060cd80546109c6906150d5565b611b97600080516020615eff83398151915233611b45565b611be15760405162461bcd60e51b81526020600482015260276024820152600080516020615f868339815191526044820152663a3790313ab93760c91b6064820152608401610aca565b6001600160a01b038216611c4a5760405162461bcd60e51b815260206004820152602a60248201527f4b5242546f6b656e3a206275726e207374616b652066726f6d20746865207a65604482015269726f206164647265737360b01b6064820152608401610aca565b6001600160a01b0382166000908152610297602052604090205481116112fd576001600160a01b03821660009081526102976020526040902054611c8e9082612e8a565b6001600160a01b03831660008181526102976020526040808220939093559151600080516020615f4683398151915290611ccb9085815260200190565b60405180910390a35050565b33600090815260ca602090815260408083206001600160a01b038616845290915281205482811015611d595760405162461bcd60e51b815260206004820152602560248201527f45524332303a2064656372656173656420616c6c6f77616e63652062656c6f77604482015264207a65726f60d81b6064820152608401610aca565b611d663385858403612839565b5060019392505050565b6000610a5633848461295d565b600261025c541415611dd15760405162461bcd60e51b815260206004820152601f60248201527f5265656e7472616e637947756172643a207265656e7472616e742063616c6c006044820152606401610aca565b600261025c55611def600080516020615eff83398151915233611b45565b611e3d5760405162461bcd60e51b815260206004820152602b6024820152600080516020615f8683398151915260448201526a746f20776974686472617760a81b6064820152608401610aca565b61029554811115611e4d57600080fd5b61029554611e5b9082612e8a565b61029555611e698282613564565b5050600161025c55565b60006109b1826135cd565b60606000611e8b83611e73565b6000818152610296602052604081205491925060ff90911690816005811115611eb657611eb6614ff3565b1415611edf5750506040805180820190915260048152634e6f6e6560e01b602082015292915050565b6001816005811115611ef357611ef3614ff3565b1415611f1e575050604080518082019091526006815265125cdcdd595960d21b602082015292915050565b6002816005811115611f3257611f32614ff3565b1415611f5f575050604080518082019091526008815267111a5cdc1d5d195960c21b602082015292915050565b6003816005811115611f7357611f73614ff3565b1415611f9f57505060408051808201909152600781526614995d9bdad95960ca1b602082015292915050565b6004816005811115611fb357611fb3614ff3565b1415611fe157505060408051808201909152600981526814dd5cdc195b99195960ba1b602082015292915050565b6005816005811115611ff557611ff5614ff3565b1415612021575050604080518082019091526007815266115e1c1a5c995960ca1b602082015292915050565b505060408051808201909152600581526422b93937b960d91b602082015292915050565b60008181526097602052604081206109b1906136c1565b6060820151602001516000906001600160a01b0316331461208f5760405162461bcd60e51b8152600401610aca906155eb565b600061209a84611e73565b905060016000828152610296602052604090205460ff1660058111156120c2576120c2614ff3565b146120df5760405162461bcd60e51b8152600401610aca9061559b565b6000818152610296602052604090819020805460ff19166003179055517fc8d626f397822cbf88d2668dbdd8bac1a4a172c0d81425fde1526ef2b8195ca39061168890839086906155d2565b6060820151602001516000906001600160a01b0316331461215e5760405162461bcd60e51b8152600401610aca906155eb565b600061216984611e73565b905060016000828152610296602052604090205460ff16600581111561219157612191614ff3565b146121ae5760405162461bcd60e51b8152600401610aca9061559b565b6000818152610296602052604090819020805460ff19166004179055517f9f3ea3215e3320f6d705861aefc7d473557aff8cae1ac438222996d547233d35906121fa90839086906155d2565b60405180910390a160006122106012600a615467565b856080015160e001516122239190615476565b9050600061223c82876080015160c0015160ff16612e96565b90508161029760008860600151602001516001600160a01b03166001600160a01b0316815260200190815260200160002054106122f25760608601516020908101516001600160a01b0316600090815261029790915260409020546122a19083612e8a565b6060870180516020908101516001600160a01b039081166000908152610297835260408082209590955592518201519351868152931692600080516020615f46833981519152910160405180910390a35b61230486606001516020015183612fed565b6117b686608001516020015182612ea5565b60008281526065602052604090206001015461233281336130c6565b61120983836131c9565b6080820151602001516000906001600160a01b0316331461236f5760405162461bcd60e51b8152600401610aca90615545565b610291543410156123e35760405162461bcd60e51b815260206004820152603860248201527f4b5242546f6b656e3a206d73672e76616c7565206d7573742062652067726561604482015277746572207468616e206d696e5072696365546f497373756560401b6064820152608401610aca565b60006123ee84611e73565b905061240384606001516020015182856136cb565b61240c84612b26565b6000818152610296602052604081205460ff16600581111561243057612430614ff3565b1461249e5760405162461bcd60e51b815260206004820152603860248201527f4b5242546f6b656e3a2056657269666961626c652043726564656e7469616c206044820152771a185cda08185b1c9958591e481899595b881a5cdcdd595960421b6064820152608401610aca565b610290546124b38560600151602001516115a1565b10156125175760405162461bcd60e51b815260206004820152602d60248201527f4b5242546f6b656e3a2069737375657220646f6573206e6f742068617665206560448201526c6e6f7567682062616c616e636560981b6064820152608401610aca565b60006125256012600a615467565b856080015160e001516125389190615476565b90506102925481101580156125505750610293548111155b6125ce5760405162461bcd60e51b815260206004820152604360248201527f4b5242546f6b656e3a207374616b65206d757374206265206265747765656e2060448201527f6d696e5374616b65546f497373756520616e64206d61785374616b65546f497360648201526273756560e81b608482015260a401610aca565b6125e085606001516020015182612ea5565b60608501516020908101516001600160a01b03166000908152610297909152604090205461260e90826137cd565b6060860180516020908101516001600160a01b03908116600090815261029783526040808220959095559251820151935185815292931691600080516020615f46833981519152910160405180910390a3604080518082019091528060018152600060209182018190528481526102969091526040902081518154829060ff191660018360058111156126a3576126a3614ff3565b0217905550602082015181600101559050507f632a70c3617009ee20500487ed52cd53ce50635cd84cf177b09577715eae51db82866040516126e6929190615270565b60405180910390a1600061270582876080015160c0015160ff16612e96565b905061271986608001516020015182612fed565b61272b86606001516020015182612fed565b600061274d61274688608001516101000151610294546137d9565b60646137e5565b60608801516020015190915061276c906127673484612e8a565b613564565b6102955461277a90826137cd565b610295555060019695505050505050565b610229546040516371d4ed8d60e11b81526000916001600160a01b03169063e3a9db1a906127bd908590600401615093565b602060405180830381865afa1580156127da573d6000803e3d6000fd5b505050506040513d601f19601f820116820180604052508101906109b19190615636565b3b151590565b60006001600160e01b03198216637965db0b60e01b14806109b157506301ffc9a760e01b6001600160e01b03198316146109b1565b6001600160a01b03831661289b5760405162461bcd60e51b8152602060048201526024808201527f45524332303a20617070726f76652066726f6d20746865207a65726f206164646044820152637265737360e01b6064820152608401610aca565b6001600160a01b0382166128fc5760405162461bcd60e51b815260206004820152602260248201527f45524332303a20617070726f766520746f20746865207a65726f206164647265604482015261737360f01b6064820152608401610aca565b6001600160a01b03838116600081815260ca602090815260408083209487168084529482529182902085905590518481527f8c5be1e5ebec7d5bd14f71427d1e84f3dd0314c0f7b2291e5b200ac8c7c3b925910160405180910390a3505050565b6001600160a01b0383166129c15760405162461bcd60e51b815260206004820152602560248201527f45524332303a207472616e736665722066726f6d20746865207a65726f206164604482015264647265737360d81b6064820152608401610aca565b6001600160a01b038216612a235760405162461bcd60e51b815260206004820152602360248201527f45524332303a207472616e7366657220746f20746865207a65726f206164647260448201526265737360e81b6064820152608401610aca565b612a2e8383836137f1565b6001600160a01b038316600090815260c9602052604090205481811015612aa65760405162461bcd60e51b815260206004820152602660248201527f45524332303a207472616e7366657220616d6f756e7420657863656564732062604482015265616c616e636560d01b6064820152608401610aca565b6001600160a01b03808516600090815260c96020526040808220858503905591851681529081208054849290612add90849061552d565b92505081905550826001600160a01b0316846001600160a01b0316600080516020615f6683398151915284604051612b1791815260200190565b60405180910390a35b50505050565b6060810151602001516001600160a01b0316612b845760405162461bcd60e51b815260206004820152601c60248201527f4b5242546f6b656e3a20626164206973737565722061646472657373000000006044820152606401610aca565b6080810151602001516001600160a01b0316612bf25760405162461bcd60e51b815260206004820152602760248201527f4b5242546f6b656e3a206261642063726564656e7469616c5375626a656374206044820152666164647265737360c81b6064820152608401610aca565b608081015151604051612c089190602001615110565b60408051601f198184030181529082905280516020918201206060840151519092612c339201615110565b604051602081830303815290604052805190602001201415612cb55760405162461bcd60e51b815260206004820152603560248201527f4b5242546f6b656e3a2069737375657220444944206973207468652073616d6560448201527408185cc818dc9959195b9d1a585b14dd589a9958dd605a1b6064820152608401610aca565b348160800151610100015114612d335760405162461bcd60e51b815260206004820152603a60248201527f4b5242546f6b656e3a206d73672e76616c756520646f6573206e6f74206d617460448201527f63682063726564656e7469616c5375626a6563742e70726963650000000000006064820152608401610aca565b8060800151602001516001600160a01b03168160600151602001516001600160a01b03161415612dc75760405162461bcd60e51b815260206004820152603960248201527f4b5242546f6b656e3a20697373756572206164647265737320697320746865206044820152781cd85b5948185cc818dc9959195b9d1a585b14dd589a9958dd603a1b6064820152608401610aca565b806080015161012001514211612e325760405162461bcd60e51b815260206004820152602a60248201527f4b5242546f6b656e3a2056432069737375616e63654461746520697320696e206044820152697468652066757475726560b01b6064820152608401610aca565b8060800151610140015142106113c75760405162461bcd60e51b815260206004820181905260248201527f4b5242546f6b656e3a2056432068617320616c726561647920657870697265646044820152606401610aca565b6000610c49828461564f565b6000610c4961274684846137d9565b6001600160a01b038216612f055760405162461bcd60e51b815260206004820152602160248201527f45524332303a206275726e2066726f6d20746865207a65726f206164647265736044820152607360f81b6064820152608401610aca565b612f11826000836137f1565b6001600160a01b038216600090815260c9602052604090205481811015612f855760405162461bcd60e51b815260206004820152602260248201527f45524332303a206275726e20616d6f756e7420657863656564732062616c616e604482015261636560f01b6064820152608401610aca565b6001600160a01b038316600090815260c960205260408120838303905560cb8054849290612fb490849061564f565b90915550506040518281526000906001600160a01b03851690600080516020615f668339815191529060200160405180910390a3505050565b6001600160a01b0382166130435760405162461bcd60e51b815260206004820152601f60248201527f45524332303a206d696e7420746f20746865207a65726f2061646472657373006044820152606401610aca565b61304f600083836137f1565b8060cb6000828254613061919061552d565b90915550506001600160a01b038216600090815260c960205260408120805483929061308e90849061552d565b90915550506040518181526001600160a01b03831690600090600080516020615f668339815191529060200160405180910390a35050565b6130d08282611b45565b6112fd576130e8816001600160a01b03166014613967565b6130f3836020613967565b604051602001613104929190615666565b60408051601f198184030181529082905262461bcd60e51b8252610aca91600401614937565b6131348282613b02565b60008281526097602052604090206112099082613b88565b600061127e7f8b73c3c69bb8fe3d512ecc4cf759cc79239f7b179b0ffacaa9a75d522b39400f61317c6101915490565b610192546040805160208101859052908101839052606081018290524660808201523060a082015260009060c0016040516020818303038152906040528051906020012090509392505050565b6131d38282613b9d565b60008281526097602052604090206112099082613c04565b7f360894a13ba1a3210667c828492db98dca3e2076cc3735a920a3ca505d382bbc546001600160a01b031690565b613231600080516020615eff83398151915233611b45565b6113c75760405162461bcd60e51b815260206004820152602a6024820152600080516020615f86833981519152604482015269746f207570677261646560b01b6064820152608401610aca565b60006132886131eb565b905061329384613c19565b6000835111806132a05750815b156132b1576132af8484613cbe565b505b7f4910fdfa16fed3260ed0e7147f7cc6da11a60208b5b9406d12a635614ffd9143805460ff1661126d57805460ff1916600117815560405161332c9086906132fd908590602401615093565b60408051601f198184030181529190526020810180516001600160e01b0316631b2ce7f360e11b179052613cbe565b50805460ff1916815561333d6131eb565b6001600160a01b0316826001600160a01b0316146133b55760405162461bcd60e51b815260206004820152602f60248201527f45524331393637557067726164653a207570677261646520627265616b73206660448201526e75727468657220757067726164657360881b6064820152608401610aca565b61126d85613da9565b61012d5460ff166134085760405162461bcd60e51b815260206004820152601460248201527314185d5cd8589b194e881b9bdd081c185d5cd95960621b6044820152606401610aca565b61012d805460ff191690557f5db9ee0a495bf2e6ff9c91a7834c1ba4fdd244a5e8aa4e537bd38aeae4b073aa335b6040516134439190615093565b60405180910390a1565b600054610100900460ff166134745760405162461bcd60e51b8152600401610aca906156d5565b61347c613de9565b613484613de9565b61348c613de9565b613494613de9565b61349e8383613e10565b6134a6613de9565b6134ae613e5e565b6134b6613de9565b6134c08382613e92565b6134c8613ed5565b6134d0613f90565b611209838383613fbf565b61012d5460ff16156135225760405162461bcd60e51b815260206004820152601060248201526f14185d5cd8589b194e881c185d5cd95960821b6044820152606401610aca565b61012d805460ff191660011790557f62e78cea01bee320cd4e420270b5ea74000d11b0c9f74754ebdbfc544b05a2586134363390565b6000610c4983836140a7565b6102295460405163f340fa0160e01b81526001600160a01b039091169063f340fa01908390613597908690600401615093565b6000604051808303818588803b1580156135b057600080fd5b505af11580156135c4573d6000803e3d6000fd5b50505050505050565b60007f63c4847aa3662952b34b8f76f3abc371c24535ee34fce5b3df34d029db924d4e60001b82600001518051906020012083602001518051906020012084604001518051906020012061362486606001516140d1565b613631876080015161412a565b61363e8860a00151614223565b60c0890151805160209182012060e08b01518051908301206040516136a49a9998979695949301988952602089019790975260408801959095526060870193909352608086019190915260a085015260c084015260e08301526101008201526101200190565b604051602081830303815290604052805190602001209050919050565b60006109b1825490565b60006136d683614279565b905060006136e482846142c7565b90506001600160a01b03811661374b5760405162461bcd60e51b815260206004820152602660248201527f4b5242546f6b656e3a20696e76616c6964207369676e6174757265206164647260448201526565737328302960d01b6064820152608401610aca565b846001600160a01b0316816001600160a01b03161461126d5760405162461bcd60e51b815260206004820152603860248201527f4b5242546f6b656e3a207265636f76657265642061646472657373206469666660448201527732b93990333937b69032bc3832b1ba32b21039b4b3b732b960411b6064820152608401610aca565b6000610c49828461552d565b6000610c498284615476565b6000610c498284615720565b6137fc8383836142eb565b613814600080516020615eff83398151915233611b45565b8061382657506001600160a01b038316155b8061383857506001600160a01b038216155b8061384e575061028e5461384b846115a1565b10155b6138b05760405162461bcd60e51b815260206004820152602d60248201527f4b5242546f6b656e3a2073656e64657220646f6573206e6f742068617665206560448201526c6e6f7567682062616c616e636560981b6064820152608401610aca565b6138c8600080516020615eff83398151915233611b45565b806138da57506001600160a01b038316155b806138ec57506001600160a01b038216155b80613902575061028f546138ff836115a1565b10155b6112095760405162461bcd60e51b815260206004820152603060248201527f4b5242546f6b656e3a20726563697069656e7420646f6573206e6f742068617660448201526f6520656e6f7567682062616c616e636560801b6064820152608401610aca565b60606000613976836002615476565b61398190600261552d565b6001600160401b0381111561399857613998614a41565b6040519080825280601f01601f1916602001820160405280156139c2576020820181803683370190505b509050600360fc1b816000815181106139dd576139dd615742565b60200101906001600160f81b031916908160001a905350600f60fb1b81600181518110613a0c57613a0c615742565b60200101906001600160f81b031916908160001a9053506000613a30846002615476565b613a3b90600161552d565b90505b6001811115613ab3576f181899199a1a9b1b9c1cb0b131b232b360811b85600f1660108110613a6f57613a6f615742565b1a60f81b828281518110613a8557613a85615742565b60200101906001600160f81b031916908160001a90535060049490941c93613aac81615758565b9050613a3e565b508315610c495760405162461bcd60e51b815260206004820181905260248201527f537472696e67733a20686578206c656e67746820696e73756666696369656e746044820152606401610aca565b613b0c8282611b45565b6112fd5760008281526065602090815260408083206001600160a01b03851684529091529020805460ff19166001179055613b443390565b6001600160a01b0316816001600160a01b0316837f2f8788117e7eff1d82e926ec794901d17c78024a50270940304540a733656f0d60405160405180910390a45050565b6000610c49836001600160a01b038416614352565b613ba78282611b45565b156112fd5760008281526065602090815260408083206001600160a01b0385168085529252808320805460ff1916905551339285917ff6391f5c32d9c69d2a47ea670b442974b53935d1edc7fd64eb21e047a839171b9190a45050565b6000610c49836001600160a01b0384166143a1565b803b613c7d5760405162461bcd60e51b815260206004820152602d60248201527f455243313936373a206e657720696d706c656d656e746174696f6e206973206e60448201526c1bdd08184818dbdb9d1c9858dd609a1b6064820152608401610aca565b7f360894a13ba1a3210667c828492db98dca3e2076cc3735a920a3ca505d382bbc80546001600160a01b0319166001600160a01b0392909216919091179055565b6060823b613d1d5760405162461bcd60e51b815260206004820152602660248201527f416464726573733a2064656c65676174652063616c6c20746f206e6f6e2d636f6044820152651b9d1c9858dd60d21b6064820152608401610aca565b600080846001600160a01b031684604051613d389190615110565b600060405180830381855af49150503d8060008114613d73576040519150601f19603f3d011682016040523d82523d6000602084013e613d78565b606091505b5091509150613da08282604051806060016040528060278152602001615f1f60279139614494565b95945050505050565b613db281613c19565b6040516001600160a01b038216907fbc7cd75a20ee27fd9adebab32041f755214dbc6bffa90cc0225b39da2e5c2d3b90600090a250565b600054610100900460ff166114735760405162461bcd60e51b8152600401610aca906156d5565b600054610100900460ff16613e375760405162461bcd60e51b8152600401610aca906156d5565b8151613e4a9060cc90602085019061480f565b5080516112099060cd90602084019061480f565b600054610100900460ff16613e855760405162461bcd60e51b8152600401610aca906156d5565b61012d805460ff19169055565b600054610100900460ff16613eb95760405162461bcd60e51b8152600401610aca906156d5565b8151602092830120815191909201206101919190915561019255565b600054610100900460ff16613efc5760405162461bcd60e51b8152600401610aca906156d5565b604051613f0890614893565b604051809103906000f080158015613f24573d6000803e3d6000fd5b5061022980546001600160a01b0319166001600160a01b039290921691821790556040805163204a7f0760e21b81529051638129fc1c9160048082019260009290919082900301818387803b158015613f7c57600080fd5b505af1158015612b20573d6000803e3d6000fd5b600054610100900460ff16613fb75760405162461bcd60e51b8152600401610aca906156d5565b600161025c55565b600054610100900460ff16613fe65760405162461bcd60e51b8152600401610aca906156d5565b613ff16000336144cd565b614009600080516020615eff833981519152336144cd565b6140156012600a615467565b614020906064615476565b61028e556140306012600a615467565b61403b906064615476565b61028f55600a61029455601261405290600a615467565b61405d906064615476565b61029055655af3107a4000610291556140786012600a615467565b614083906001615476565b610292556140936012600a615467565b61409e90600a615476565b61029355505050565b60008260000182815481106140be576140be615742565b9060005260206000200154905092915050565b8051805160209182012081830151604080517fabb691e6e52ceb1ff8b3df91dc14323057e88efa3252486ed994fd62706cdfaa948101949094528301919091526001600160a01b031660608201526000906080016136a4565b60007f4b87db6c5998f503ac6519b5a7d74efcf2a230368deeaf54dd8bf078da459ff760001b82600001518051906020012083602001518460400151805190602001208560600151805190602001208660800151805190602001208760a00151805190602001208860c001518960e001518a61010001518b61012001518c61014001516040516020016136a49c9b9a999897969594939291909b8c5260208c019a909a526001600160a01b039890981660408b015260608a0196909652608089019490945260a088019290925260c087015260ff1660e08601526101008501526101208401526101408301526101608201526101800190565b8051805160209182012081830151805190830120604080517f1a58b7c56676b62343f37f4f3603a07ae6dd78bea300689bcefef0f9498c6cc99481019490945283019190915260608201526000906080016136a4565b60006109b161428661314c565b8360405161190160f01b6020820152602281018390526042810182905260009060620160405160208183030381529060405280519060200120905092915050565b60008060006142d685856144d7565b915091506142e381614547565b509392505050565b61012d5460ff16156112095760405162461bcd60e51b815260206004820152602a60248201527f45524332305061757361626c653a20746f6b656e207472616e736665722077686044820152691a5b19481c185d5cd95960b21b6064820152608401610aca565b6000818152600183016020526040812054614399575081546001818101845560008481526020808220909301849055845484825282860190935260409020919091556109b1565b5060006109b1565b6000818152600183016020526040812054801561448a5760006143c560018361564f565b85549091506000906143d99060019061564f565b905081811461443e5760008660000182815481106143f9576143f9615742565b906000526020600020015490508087600001848154811061441c5761441c615742565b6000918252602080832090910192909255918252600188019052604090208390555b855486908061444f5761444f61576f565b6001900381819060005260206000200160009055905585600101600086815260200190815260200160002060009055600193505050506109b1565b60009150506109b1565b606083156144a3575081610c49565b8251156144b35782518084602001fd5b8160405162461bcd60e51b8152600401610aca9190614937565b6112fd828261312a565b60008082516041141561450e5760208301516040840151606085015160001a614502878285856146fd565b94509450505050614540565b825160401415614538576020830151604084015161452d8683836147e0565b935093505050614540565b506000905060025b9250929050565b600081600481111561455b5761455b614ff3565b14156145645750565b600181600481111561457857614578614ff3565b14156145c15760405162461bcd60e51b815260206004820152601860248201527745434453413a20696e76616c6964207369676e617475726560401b6044820152606401610aca565b60028160048111156145d5576145d5614ff3565b14156146235760405162461bcd60e51b815260206004820152601f60248201527f45434453413a20696e76616c6964207369676e6174757265206c656e677468006044820152606401610aca565b600381600481111561463757614637614ff3565b14156146905760405162461bcd60e51b815260206004820152602260248201527f45434453413a20696e76616c6964207369676e6174757265202773272076616c604482015261756560f01b6064820152608401610aca565b60048160048111156146a4576146a4614ff3565b14156113c75760405162461bcd60e51b815260206004820152602260248201527f45434453413a20696e76616c6964207369676e6174757265202776272076616c604482015261756560f01b6064820152608401610aca565b6000806fa2a8918ca85bafe22016d0b997e4df60600160ff1b0383111561472a57506000905060036147d7565b8460ff16601b1415801561474257508460ff16601c14155b1561475357506000905060046147d7565b6040805160008082526020820180845289905260ff881692820192909252606081018690526080810185905260019060a0016020604051602081039080840390855afa1580156147a7573d6000803e3d6000fd5b5050604051601f1901519150506001600160a01b0381166147d0576000600192509250506147d7565b9150600090505b94509492505050565b6000806001600160ff1b03831660ff84901c601b01614801878288856146fd565b935093505050935093915050565b82805461481b906150d5565b90600052602060002090601f01602090048101928261483d5760008555614883565b82601f1061485657805160ff1916838001178555614883565b82800160010185558215614883579182015b82811115614883578251825591602001919060010190614868565b5061488f9291506148a0565b5090565b6107798061578683390190565b5b8082111561488f57600081556001016148a1565b6000602082840312156148c757600080fd5b81356001600160e01b031981168114610c4957600080fd5b60005b838110156148fa5781810151838201526020016148e2565b83811115612b205750506000910152565b600081518084526149238160208601602086016148df565b601f01601f19169290920160200192915050565b602081526000610c49602083018461490b565b6001600160a01b03811681146113c757600080fd5b803561496a8161494a565b919050565b6000806040838503121561498257600080fd5b823561498d8161494a565b946020939093013593505050565b600080600080600080600060e0888a0312156149b657600080fd5b505085359760208701359750604087013596606081013596506080810135955060a0810135945060c0013592509050565b6000806000606084860312156149fc57600080fd5b8335614a078161494a565b92506020840135614a178161494a565b929592945050506040919091013590565b600060208284031215614a3a57600080fd5b5035919050565b634e487b7160e01b600052604160045260246000fd5b604080519081016001600160401b0381118282101715614a7957614a79614a41565b60405290565b60405161016081016001600160401b0381118282101715614a7957614a79614a41565b60405161010081016001600160401b0381118282101715614a7957614a79614a41565b600082601f830112614ad657600080fd5b81356001600160401b0380821115614af057614af0614a41565b604051601f8301601f19908116603f01168101908282118183101715614b1857614b18614a41565b81604052838152866020858801011115614b3157600080fd5b836020870160208301376000602085830101528094505050505092915050565b600060408284031215614b6357600080fd5b614b6b614a57565b905081356001600160401b03811115614b8357600080fd5b614b8f84828501614ac5565b8252506020820135614ba08161494a565b602082015292915050565b803560ff8116811461496a57600080fd5b60006101608284031215614bcf57600080fd5b614bd7614a7f565b905081356001600160401b0380821115614bf057600080fd5b614bfc85838601614ac5565b8352614c0a6020850161495f565b60208401526040840135915080821115614c2357600080fd5b614c2f85838601614ac5565b60408401526060840135915080821115614c4857600080fd5b614c5485838601614ac5565b60608401526080840135915080821115614c6d57600080fd5b614c7985838601614ac5565b608084015260a0840135915080821115614c9257600080fd5b50614c9f84828501614ac5565b60a083015250614cb160c08301614bab565b60c082015260e082013560e082015261010080830135818301525061012080830135818301525061014080830135818301525092915050565b600060408284031215614cfc57600080fd5b614d04614a57565b905081356001600160401b0380821115614d1d57600080fd5b614d2985838601614ac5565b83526020840135915080821115614d3f57600080fd5b50614d4c84828501614ac5565b60208301525092915050565b60006101008284031215614d6b57600080fd5b614d73614aa2565b905081356001600160401b0380821115614d8c57600080fd5b614d9885838601614ac5565b83526020840135915080821115614dae57600080fd5b614dba85838601614ac5565b60208401526040840135915080821115614dd357600080fd5b614ddf85838601614ac5565b60408401526060840135915080821115614df857600080fd5b614e0485838601614b51565b60608401526080840135915080821115614e1d57600080fd5b614e2985838601614bbc565b608084015260a0840135915080821115614e4257600080fd5b614e4e85838601614cea565b60a084015260c0840135915080821115614e6757600080fd5b614e7385838601614ac5565b60c084015260e0840135915080821115614e8c57600080fd5b50614e9984828501614ac5565b60e08301525092915050565b60008060408385031215614eb857600080fd5b82356001600160401b0380821115614ecf57600080fd5b614edb86838701614d58565b93506020850135915080821115614ef157600080fd5b50614efe85828601614d58565b9150509250929050565b60008060408385031215614f1b57600080fd5b823591506020830135614f2d8161494a565b809150509250929050565b600060208284031215614f4a57600080fd5b8135610c498161494a565b60008060408385031215614f6857600080fd5b8235614f738161494a565b915060208301356001600160401b03811115614f8e57600080fd5b614efe85828601614ac5565b60008060408385031215614fad57600080fd5b82356001600160401b0380821115614fc457600080fd5b614fd086838701614d58565b93506020850135915080821115614fe657600080fd5b50614efe85828601614ac5565b634e487b7160e01b600052602160045260246000fd5b604081016006841061502b57634e487b7160e01b600052602160045260246000fd5b9281526020015290565b60006020828403121561504757600080fd5b81356001600160401b0381111561505d57600080fd5b61506984828501614d58565b949350505050565b6000806040838503121561508457600080fd5b50508035926020909101359150565b6001600160a01b0391909116815260200190565b600080604083850312156150ba57600080fd5b82356150c58161494a565b91506020830135614f2d8161494a565b600181811c908216806150e957607f821691505b6020821081141561510a57634e487b7160e01b600052602260045260246000fd5b50919050565b600082516151228184602087016148df565b9190910192915050565b6000815160408452615141604085018261490b565b6020938401516001600160a01b0316949093019390935250919050565b600061016082518185526151748286018261490b565b915050602083015161519160208601826001600160a01b03169052565b50604083015184820360408601526151a9828261490b565b915050606083015184820360608601526151c3828261490b565b915050608083015184820360808601526151dd828261490b565b91505060a083015184820360a08601526151f7828261490b565b91505060c083015161520e60c086018260ff169052565b5060e08381015190850152610100808401519085015261012080840151908501526101409283015192909301919091525090565b6000815160408452615257604085018261490b565b905060208301518482036020860152613da0828261490b565b828152604060208201526000825161010080604085015261529561014085018361490b565b91506020850151603f19808685030160608701526152b3848361490b565b935060408701519150808685030160808701526152d0848361490b565b935060608701519150808685030160a08701526152ed848361512c565b935060808701519150808685030160c087015261530a848361515e565b935060a08701519150808685030160e08701526153278483615242565b935060c08701519150808685030183870152615343848361490b565b935060e0870151925080868503016101208701525050615363828261490b565b9695505050505050565b634e487b7160e01b600052601160045260246000fd5b600181815b808511156153be5781600019048211156153a4576153a461536d565b808516156153b157918102915b93841c9390800290615388565b509250929050565b6000826153d5575060016109b1565b816153e2575060006109b1565b81600181146153f857600281146154025761541e565b60019150506109b1565b60ff8411156154135761541361536d565b50506001821b6109b1565b5060208310610133831016604e8410600b8410161715615441575081810a6109b1565b61544b8383615383565b806000190482111561545f5761545f61536d565b029392505050565b6000610c4960ff8416836153c6565b60008160001904831182151516156154905761549061536d565b500290565b6020808252602c908201527f46756e6374696f6e206d7573742062652063616c6c6564207468726f7567682060408201526b19195b1959d85d1958d85b1b60a21b606082015260800190565b6020808252602c908201527f46756e6374696f6e206d7573742062652063616c6c6564207468726f7567682060408201526b6163746976652070726f787960a01b606082015260800190565b600082198211156155405761554061536d565b500190565b60208082526036908201527f4b5242546f6b656e3a2073656e646572206d757374206265207468652063726560408201527564656e7469616c5375626a656374206164647265737360501b606082015260800190565b6020808252601d908201527f4b5242546f6b656e3a207374617465206973206e6f7420497373756564000000604082015260600190565b828152604060208201526000615069604083018461490b565b6020808252602b908201527f4b5242546f6b656e3a2073656e646572206d757374206265207468652069737360408201526a756572206164647265737360a81b606082015260800190565b60006020828403121561564857600080fd5b5051919050565b6000828210156156615761566161536d565b500390565b76020b1b1b2b9b9a1b7b73a3937b61d1030b1b1b7bab73a1604d1b8152600083516156988160178501602088016148df565b7001034b99036b4b9b9b4b733903937b6329607d1b60179184019182015283516156c98160288401602088016148df565b01602801949350505050565b6020808252602b908201527f496e697469616c697a61626c653a20636f6e7472616374206973206e6f74206960408201526a6e697469616c697a696e6760a81b606082015260800190565b60008261573d57634e487b7160e01b600052601260045260246000fd5b500490565b634e487b7160e01b600052603260045260246000fd5b6000816157675761576761536d565b506000190190565b634e487b7160e01b600052603160045260246000fdfe608060405234801561001057600080fd5b50610759806100206000396000f3fe6080604052600436106100605760003560e01c806351cff8d914610065578063715018a6146100875780638129fc1c1461009c5780638da5cb5b146100b1578063e3a9db1a146100e3578063f2fde38b14610127578063f340fa0114610147575b600080fd5b34801561007157600080fd5b50610085610080366004610659565b61015a565b005b34801561009357600080fd5b50610085610201565b3480156100a857600080fd5b5061008561023c565b3480156100bd57600080fd5b506100c66102fd565b6040516001600160a01b0390911681526020015b60405180910390f35b3480156100ef57600080fd5b506101196100fe366004610659565b6001600160a01b031660009081526065602052604090205490565b6040519081526020016100da565b34801561013357600080fd5b50610085610142366004610659565b61030c565b610085610155366004610659565b6103a9565b336101636102fd565b6001600160a01b0316146101925760405162461bcd60e51b81526004016101899061067d565b60405180910390fd5b6001600160a01b03811660008181526065602052604081208054919055906101ba9082610442565b816001600160a01b03167f7084f5476618d8e60b11ef0d7d3f06914655adb8793e28ff7f018d4c76d505d5826040516101f591815260200190565b60405180910390a25050565b3361020a6102fd565b6001600160a01b0316146102305760405162461bcd60e51b81526004016101899061067d565b61023a6000610560565b565b600054610100900460ff166102575760005460ff161561025b565b303b155b6102be5760405162461bcd60e51b815260206004820152602e60248201527f496e697469616c697a61626c653a20636f6e747261637420697320616c72656160448201526d191e481a5b9a5d1a585b1a5e995960921b6064820152608401610189565b600054610100900460ff161580156102e0576000805461ffff19166101011790555b6102e86105b2565b80156102fa576000805461ff00191690555b50565b6033546001600160a01b031690565b336103156102fd565b6001600160a01b03161461033b5760405162461bcd60e51b81526004016101899061067d565b6001600160a01b0381166103a05760405162461bcd60e51b815260206004820152602660248201527f4f776e61626c653a206e6577206f776e657220697320746865207a65726f206160448201526564647265737360d01b6064820152608401610189565b6102fa81610560565b336103b26102fd565b6001600160a01b0316146103d85760405162461bcd60e51b81526004016101899061067d565b6001600160a01b0381166000908152606560205260408120805434928392916104029084906106b2565b90915550506040518181526001600160a01b038316907f2da466a7b24304f47e87fa2e1e5a81b9831ce54fec19055ce277ca2f39ba42c4906020016101f5565b804710156104925760405162461bcd60e51b815260206004820152601d60248201527f416464726573733a20696e73756666696369656e742062616c616e63650000006044820152606401610189565b6000826001600160a01b03168260405160006040518083038185875af1925050503d80600081146104df576040519150601f19603f3d011682016040523d82523d6000602084013e6104e4565b606091505b505090508061055b5760405162461bcd60e51b815260206004820152603a60248201527f416464726573733a20756e61626c6520746f2073656e642076616c75652c207260448201527f6563697069656e74206d617920686176652072657665727465640000000000006064820152608401610189565b505050565b603380546001600160a01b038381166001600160a01b0319831681179093556040519116919082907f8be0079c531659141344cd1fd0a4f28419497f9722a3daafe3b4186f6b6457e090600090a35050565b600054610100900460ff166105d95760405162461bcd60e51b8152600401610189906106d8565b6105e16105ed565b6105e9610614565b61023a5b600054610100900460ff1661023a5760405162461bcd60e51b8152600401610189906106d8565b600054610100900460ff1661063b5760405162461bcd60e51b8152600401610189906106d8565b61023a33610560565b6001600160a01b03811681146102fa57600080fd5b60006020828403121561066b57600080fd5b813561067681610644565b9392505050565b6020808252818101527f4f776e61626c653a2063616c6c6572206973206e6f7420746865206f776e6572604082015260600190565b600082198211156106d357634e487b7160e01b600052601160045260246000fd5b500190565b6020808252602b908201527f496e697469616c697a61626c653a20636f6e7472616374206973206e6f74206960408201526a6e697469616c697a696e6760a81b60608201526080019056fea26469706673582212200f1ed92011b9191a6ad70f0d9c882e0a795e1008d6417e58bfffc0adf3ea9fda64736f6c634300080c0033899bd46557473cb80307a9dabc297131ced39608330a2d29b2d52b660c03923e416464726573733a206c6f772d6c6576656c2064656c65676174652063616c6c206661696c65645dac0c1b1112564a045ba943c9d50270893e8e826c49be8e7073adc713ab7bd7ddf252ad1be2c89b69c2b068fc378daa952ba7f163c4a11628f55a4df523b3ef4b5242546f6b656e3a206d757374206861766520676f7665726e20726f6c6520a2646970667358221220cd7c609aa41d56f4554b27872a93de829bd3b8ee1e0f46e7e8216418591b2b2864736f6c634300080c0033",
  "linkReferences": {},
  "deployedLinkReferences": {}
}