{
  "_format": "hh-sol-artifact-1",
  "contractName": "KRBTokenV01",
  "sourceName": "contracts/KRBTokenV01.sol",
  "abi": [
    {
      "anonymous": false,
      "inputs": [
        {
          "indexed": false,
          "internalType": "address",
          "name": "previousAdmin",
          "type": "address"
        },
        {
          "indexed": false,
          "internalType": "address",
          "name": "newAdmin",
          "type": "address"
        }
      ],
      "name": "AdminChanged",
      "type": "event"
    },
    {
      "anonymous": false,
      "inputs": [
        {
          "indexed": true,
          "internalType": "address",
          "name": "owner",
          "type": "address"
        },
        {
          "indexed": true,
          "internalType": "address",
          "name": "spender",
          "type": "address"
        },
        {
          "indexed": false,
          "internalType": "uint256",
          "name": "value",
          "type": "uint256"
        }
      ],
      "name": "Approval",
      "type": "event"
    },
    {
      "anonymous": false,
      "inputs": [
        {
          "indexed": true,
          "internalType": "address",
          "name": "beacon",
          "type": "address"
        }
      ],
      "name": "BeaconUpgraded",
      "type": "event"
    },
    {
      "anonymous": false,
      "inputs": [
        {
          "indexed": false,
          "internalType": "uint256",
          "name": "uuid",
          "type": "uint256"
        },
        {
          "indexed": false,
          "internalType": "string",
          "name": "reason",
          "type": "string"
        }
      ],
      "name": "Deleted",
      "type": "event"
    },
    {
      "anonymous": false,
      "inputs": [
        {
          "indexed": false,
          "internalType": "uint256",
          "name": "uuid",
          "type": "uint256"
        },
        {
          "indexed": false,
          "internalType": "uint256",
          "name": "disputedBy",
          "type": "uint256"
        }
      ],
      "name": "Disputed",
      "type": "event"
    },
    {
      "anonymous": false,
      "inputs": [
        {
          "indexed": false,
          "internalType": "uint256",
          "name": "uuid",
          "type": "uint256"
        }
      ],
      "name": "Expired",
      "type": "event"
    },
    {
      "anonymous": false,
      "inputs": [
        {
          "indexed": false,
          "internalType": "uint8",
          "name": "version",
          "type": "uint8"
        }
      ],
      "name": "Initialized",
      "type": "event"
    },
    {
      "anonymous": false,
      "inputs": [
        {
          "indexed": false,
          "internalType": "uint256",
          "name": "uuid",
          "type": "uint256"
        },
        {
          "components": [
            {
              "internalType": "string",
              "name": "_context",
              "type": "string"
            },
            {
              "internalType": "string",
              "name": "_type",
              "type": "string"
            },
            {
              "internalType": "string",
              "name": "id",
              "type": "string"
            },
            {
              "components": [
                {
                  "internalType": "string",
                  "name": "id",
                  "type": "string"
                },
                {
                  "internalType": "address",
                  "name": "ethereumAddress",
                  "type": "address"
                }
              ],
              "internalType": "struct VCTypesV01.Issuer",
              "name": "issuer",
              "type": "tuple"
            },
            {
              "components": [
                {
                  "internalType": "string",
                  "name": "id",
                  "type": "string"
                },
                {
                  "internalType": "address",
                  "name": "ethereumAddress",
                  "type": "address"
                },
                {
                  "internalType": "string",
                  "name": "_type",
                  "type": "string"
                },
                {
                  "internalType": "string",
                  "name": "typeSchema",
                  "type": "string"
                },
                {
                  "internalType": "string",
                  "name": "value",
                  "type": "string"
                },
                {
                  "internalType": "string",
                  "name": "encrypted",
                  "type": "string"
                },
                {
                  "internalType": "uint8",
                  "name": "trust",
                  "type": "uint8"
                },
                {
                  "internalType": "uint256",
                  "name": "stake",
                  "type": "uint256"
                },
                {
                  "internalType": "uint256",
                  "name": "price",
                  "type": "uint256"
                },
                {
                  "internalType": "uint256",
                  "name": "nbf",
                  "type": "uint256"
                },
                {
                  "internalType": "uint256",
                  "name": "exp",
                  "type": "uint256"
                }
              ],
              "internalType": "struct VCTypesV01.CredentialSubject",
              "name": "credentialSubject",
              "type": "tuple"
            },
            {
              "components": [
                {
                  "internalType": "string",
                  "name": "id",
                  "type": "string"
                },
                {
                  "internalType": "string",
                  "name": "_type",
                  "type": "string"
                }
              ],
              "internalType": "struct VCTypesV01.CredentialSchema",
              "name": "credentialSchema",
              "type": "tuple"
            },
            {
              "internalType": "string",
              "name": "issuanceDate",
              "type": "string"
            },
            {
              "internalType": "string",
              "name": "expirationDate",
              "type": "string"
            }
          ],
          "indexed": false,
          "internalType": "struct VCTypesV01.VerifiableCredential",
          "name": "vc",
          "type": "tuple"
        }
      ],
      "name": "Issued",
      "type": "event"
    },
    {
      "anonymous": false,
      "inputs": [
        {
          "indexed": false,
          "internalType": "address",
          "name": "account",
          "type": "address"
        }
      ],
      "name": "Paused",
      "type": "event"
    },
    {
      "anonymous": false,
      "inputs": [
        {
          "indexed": false,
          "internalType": "uint256",
          "name": "uuid",
          "type": "uint256"
        },
        {
          "indexed": false,
          "internalType": "string",
          "name": "reason",
          "type": "string"
        }
      ],
      "name": "Revoked",
      "type": "event"
    },
    {
      "anonymous": false,
      "inputs": [
        {
          "indexed": true,
          "internalType": "bytes32",
          "name": "role",
          "type": "bytes32"
        },
        {
          "indexed": true,
          "internalType": "bytes32",
          "name": "previousAdminRole",
          "type": "bytes32"
        },
        {
          "indexed": true,
          "internalType": "bytes32",
          "name": "newAdminRole",
          "type": "bytes32"
        }
      ],
      "name": "RoleAdminChanged",
      "type": "event"
    },
    {
      "anonymous": false,
      "inputs": [
        {
          "indexed": true,
          "internalType": "bytes32",
          "name": "role",
          "type": "bytes32"
        },
        {
          "indexed": true,
          "internalType": "address",
          "name": "account",
          "type": "address"
        },
        {
          "indexed": true,
          "internalType": "address",
          "name": "sender",
          "type": "address"
        }
      ],
      "name": "RoleGranted",
      "type": "event"
    },
    {
      "anonymous": false,
      "inputs": [
        {
          "indexed": true,
          "internalType": "bytes32",
          "name": "role",
          "type": "bytes32"
        },
        {
          "indexed": true,
          "internalType": "address",
          "name": "account",
          "type": "address"
        },
        {
          "indexed": true,
          "internalType": "address",
          "name": "sender",
          "type": "address"
        }
      ],
      "name": "RoleRevoked",
      "type": "event"
    },
    {
      "anonymous": false,
      "inputs": [
        {
          "indexed": true,
          "internalType": "address",
          "name": "from",
          "type": "address"
        },
        {
          "indexed": true,
          "internalType": "address",
          "name": "to",
          "type": "address"
        },
        {
          "indexed": false,
          "internalType": "uint256",
          "name": "value",
          "type": "uint256"
        }
      ],
      "name": "Staked",
      "type": "event"
    },
    {
      "anonymous": false,
      "inputs": [
        {
          "indexed": false,
          "internalType": "uint256",
          "name": "uuid",
          "type": "uint256"
        },
        {
          "indexed": false,
          "internalType": "string",
          "name": "reason",
          "type": "string"
        }
      ],
      "name": "Suspended",
      "type": "event"
    },
    {
      "anonymous": false,
      "inputs": [
        {
          "indexed": true,
          "internalType": "address",
          "name": "from",
          "type": "address"
        },
        {
          "indexed": true,
          "internalType": "address",
          "name": "to",
          "type": "address"
        },
        {
          "indexed": false,
          "internalType": "uint256",
          "name": "value",
          "type": "uint256"
        }
      ],
      "name": "Transfer",
      "type": "event"
    },
    {
      "anonymous": false,
      "inputs": [
        {
          "indexed": false,
          "internalType": "address",
          "name": "account",
          "type": "address"
        }
      ],
      "name": "Unpaused",
      "type": "event"
    },
    {
      "anonymous": false,
      "inputs": [],
      "name": "Updated",
      "type": "event"
    },
    {
      "anonymous": false,
      "inputs": [
        {
          "indexed": true,
          "internalType": "address",
          "name": "implementation",
          "type": "address"
        }
      ],
      "name": "Upgraded",
      "type": "event"
    },
    {
      "inputs": [],
      "name": "DEFAULT_ADMIN_ROLE",
      "outputs": [
        {
          "internalType": "bytes32",
          "name": "",
          "type": "bytes32"
        }
      ],
      "stateMutability": "view",
      "type": "function"
    },
    {
      "inputs": [],
      "name": "DOMAIN_SEPARATOR",
      "outputs": [
        {
          "internalType": "bytes32",
          "name": "",
          "type": "bytes32"
        }
      ],
      "stateMutability": "view",
      "type": "function"
    },
    {
      "inputs": [],
      "name": "GOVERN_ROLE",
      "outputs": [
        {
          "internalType": "bytes32",
          "name": "",
          "type": "bytes32"
        }
      ],
      "stateMutability": "view",
      "type": "function"
    },
    {
      "inputs": [
        {
          "internalType": "address",
          "name": "owner",
          "type": "address"
        },
        {
          "internalType": "address",
          "name": "spender",
          "type": "address"
        }
      ],
      "name": "allowance",
      "outputs": [
        {
          "internalType": "uint256",
          "name": "",
          "type": "uint256"
        }
      ],
      "stateMutability": "view",
      "type": "function"
    },
    {
      "inputs": [
        {
          "internalType": "address",
          "name": "spender",
          "type": "address"
        },
        {
          "internalType": "uint256",
          "name": "amount",
          "type": "uint256"
        }
      ],
      "name": "approve",
      "outputs": [
        {
          "internalType": "bool",
          "name": "",
          "type": "bool"
        }
      ],
      "stateMutability": "nonpayable",
      "type": "function"
    },
    {
      "inputs": [
        {
          "internalType": "address",
          "name": "account",
          "type": "address"
        }
      ],
      "name": "balanceOf",
      "outputs": [
        {
          "internalType": "uint256",
          "name": "",
          "type": "uint256"
        }
      ],
      "stateMutability": "view",
      "type": "function"
    },
    {
      "inputs": [
        {
          "internalType": "uint256",
          "name": "amount",
          "type": "uint256"
        }
      ],
      "name": "burn",
      "outputs": [],
      "stateMutability": "nonpayable",
      "type": "function"
    },
    {
      "inputs": [
        {
          "internalType": "address",
          "name": "account",
          "type": "address"
        },
        {
          "internalType": "uint256",
          "name": "amount",
          "type": "uint256"
        }
      ],
      "name": "burnFrom",
      "outputs": [],
      "stateMutability": "nonpayable",
      "type": "function"
    },
    {
      "inputs": [
        {
          "internalType": "address",
          "name": "issuer",
          "type": "address"
        },
        {
          "internalType": "uint256",
          "name": "stake",
          "type": "uint256"
        }
      ],
      "name": "burnStake",
      "outputs": [],
      "stateMutability": "nonpayable",
      "type": "function"
    },
    {
      "inputs": [],
      "name": "decimals",
      "outputs": [
        {
          "internalType": "uint8",
          "name": "",
          "type": "uint8"
        }
      ],
      "stateMutability": "view",
      "type": "function"
    },
    {
      "inputs": [
        {
          "internalType": "address",
          "name": "spender",
          "type": "address"
        },
        {
          "internalType": "uint256",
          "name": "subtractedValue",
          "type": "uint256"
        }
      ],
      "name": "decreaseAllowance",
      "outputs": [
        {
          "internalType": "bool",
          "name": "",
          "type": "bool"
        }
      ],
      "stateMutability": "nonpayable",
      "type": "function"
    },
    {
      "inputs": [
        {
          "components": [
            {
              "internalType": "string",
              "name": "_context",
              "type": "string"
            },
            {
              "internalType": "string",
              "name": "_type",
              "type": "string"
            },
            {
              "internalType": "string",
              "name": "id",
              "type": "string"
            },
            {
              "components": [
                {
                  "internalType": "string",
                  "name": "id",
                  "type": "string"
                },
                {
                  "internalType": "address",
                  "name": "ethereumAddress",
                  "type": "address"
                }
              ],
              "internalType": "struct VCTypesV01.Issuer",
              "name": "issuer",
              "type": "tuple"
            },
            {
              "components": [
                {
                  "internalType": "string",
                  "name": "id",
                  "type": "string"
                },
                {
                  "internalType": "address",
                  "name": "ethereumAddress",
                  "type": "address"
                },
                {
                  "internalType": "string",
                  "name": "_type",
                  "type": "string"
                },
                {
                  "internalType": "string",
                  "name": "typeSchema",
                  "type": "string"
                },
                {
                  "internalType": "string",
                  "name": "value",
                  "type": "string"
                },
                {
                  "internalType": "string",
                  "name": "encrypted",
                  "type": "string"
                },
                {
                  "internalType": "uint8",
                  "name": "trust",
                  "type": "uint8"
                },
                {
                  "internalType": "uint256",
                  "name": "stake",
                  "type": "uint256"
                },
                {
                  "internalType": "uint256",
                  "name": "price",
                  "type": "uint256"
                },
                {
                  "internalType": "uint256",
                  "name": "nbf",
                  "type": "uint256"
                },
                {
                  "internalType": "uint256",
                  "name": "exp",
                  "type": "uint256"
                }
              ],
              "internalType": "struct VCTypesV01.CredentialSubject",
              "name": "credentialSubject",
              "type": "tuple"
            },
            {
              "components": [
                {
                  "internalType": "string",
                  "name": "id",
                  "type": "string"
                },
                {
                  "internalType": "string",
                  "name": "_type",
                  "type": "string"
                }
              ],
              "internalType": "struct VCTypesV01.CredentialSchema",
              "name": "credentialSchema",
              "type": "tuple"
            },
            {
              "internalType": "string",
              "name": "issuanceDate",
              "type": "string"
            },
            {
              "internalType": "string",
              "name": "expirationDate",
              "type": "string"
            }
          ],
          "internalType": "struct VCTypesV01.VerifiableCredential",
          "name": "vc",
          "type": "tuple"
        },
        {
          "internalType": "string",
          "name": "reason",
          "type": "string"
        }
      ],
      "name": "deleteVC",
      "outputs": [
        {
          "internalType": "bool",
          "name": "",
          "type": "bool"
        }
      ],
      "stateMutability": "nonpayable",
      "type": "function"
    },
    {
      "inputs": [
        {
          "components": [
            {
              "internalType": "string",
              "name": "_context",
              "type": "string"
            },
            {
              "internalType": "string",
              "name": "_type",
              "type": "string"
            },
            {
              "internalType": "string",
              "name": "id",
              "type": "string"
            },
            {
              "components": [
                {
                  "internalType": "string",
                  "name": "id",
                  "type": "string"
                },
                {
                  "internalType": "address",
                  "name": "ethereumAddress",
                  "type": "address"
                }
              ],
              "internalType": "struct VCTypesV01.Issuer",
              "name": "issuer",
              "type": "tuple"
            },
            {
              "components": [
                {
                  "internalType": "string",
                  "name": "id",
                  "type": "string"
                },
                {
                  "internalType": "address",
                  "name": "ethereumAddress",
                  "type": "address"
                },
                {
                  "internalType": "string",
                  "name": "_type",
                  "type": "string"
                },
                {
                  "internalType": "string",
                  "name": "typeSchema",
                  "type": "string"
                },
                {
                  "internalType": "string",
                  "name": "value",
                  "type": "string"
                },
                {
                  "internalType": "string",
                  "name": "encrypted",
                  "type": "string"
                },
                {
                  "internalType": "uint8",
                  "name": "trust",
                  "type": "uint8"
                },
                {
                  "internalType": "uint256",
                  "name": "stake",
                  "type": "uint256"
                },
                {
                  "internalType": "uint256",
                  "name": "price",
                  "type": "uint256"
                },
                {
                  "internalType": "uint256",
                  "name": "nbf",
                  "type": "uint256"
                },
                {
                  "internalType": "uint256",
                  "name": "exp",
                  "type": "uint256"
                }
              ],
              "internalType": "struct VCTypesV01.CredentialSubject",
              "name": "credentialSubject",
              "type": "tuple"
            },
            {
              "components": [
                {
                  "internalType": "string",
                  "name": "id",
                  "type": "string"
                },
                {
                  "internalType": "string",
                  "name": "_type",
                  "type": "string"
                }
              ],
              "internalType": "struct VCTypesV01.CredentialSchema",
              "name": "credentialSchema",
              "type": "tuple"
            },
            {
              "internalType": "string",
              "name": "issuanceDate",
              "type": "string"
            },
            {
              "internalType": "string",
              "name": "expirationDate",
              "type": "string"
            }
          ],
          "internalType": "struct VCTypesV01.VerifiableCredential",
          "name": "vc",
          "type": "tuple"
        },
        {
          "components": [
            {
              "internalType": "string",
              "name": "_context",
              "type": "string"
            },
            {
              "internalType": "string",
              "name": "_type",
              "type": "string"
            },
            {
              "internalType": "string",
              "name": "id",
              "type": "string"
            },
            {
              "components": [
                {
                  "internalType": "string",
                  "name": "id",
                  "type": "string"
                },
                {
                  "internalType": "address",
                  "name": "ethereumAddress",
                  "type": "address"
                }
              ],
              "internalType": "struct VCTypesV01.Issuer",
              "name": "issuer",
              "type": "tuple"
            },
            {
              "components": [
                {
                  "internalType": "string",
                  "name": "id",
                  "type": "string"
                },
                {
                  "internalType": "address",
                  "name": "ethereumAddress",
                  "type": "address"
                },
                {
                  "internalType": "string",
                  "name": "_type",
                  "type": "string"
                },
                {
                  "internalType": "string",
                  "name": "typeSchema",
                  "type": "string"
                },
                {
                  "internalType": "string",
                  "name": "value",
                  "type": "string"
                },
                {
                  "internalType": "string",
                  "name": "encrypted",
                  "type": "string"
                },
                {
                  "internalType": "uint8",
                  "name": "trust",
                  "type": "uint8"
                },
                {
                  "internalType": "uint256",
                  "name": "stake",
                  "type": "uint256"
                },
                {
                  "internalType": "uint256",
                  "name": "price",
                  "type": "uint256"
                },
                {
                  "internalType": "uint256",
                  "name": "nbf",
                  "type": "uint256"
                },
                {
                  "internalType": "uint256",
                  "name": "exp",
                  "type": "uint256"
                }
              ],
              "internalType": "struct VCTypesV01.CredentialSubject",
              "name": "credentialSubject",
              "type": "tuple"
            },
            {
              "components": [
                {
                  "internalType": "string",
                  "name": "id",
                  "type": "string"
                },
                {
                  "internalType": "string",
                  "name": "_type",
                  "type": "string"
                }
              ],
              "internalType": "struct VCTypesV01.CredentialSchema",
              "name": "credentialSchema",
              "type": "tuple"
            },
            {
              "internalType": "string",
              "name": "issuanceDate",
              "type": "string"
            },
            {
              "internalType": "string",
              "name": "expirationDate",
              "type": "string"
            }
          ],
          "internalType": "struct VCTypesV01.VerifiableCredential",
          "name": "disputeVC",
          "type": "tuple"
        }
      ],
      "name": "disputeVCByGovern",
      "outputs": [
        {
          "internalType": "bool",
          "name": "",
          "type": "bool"
        }
      ],
      "stateMutability": "nonpayable",
      "type": "function"
    },
    {
      "inputs": [
        {
          "components": [
            {
              "internalType": "string",
              "name": "_context",
              "type": "string"
            },
            {
              "internalType": "string",
              "name": "_type",
              "type": "string"
            },
            {
              "internalType": "string",
              "name": "id",
              "type": "string"
            },
            {
              "components": [
                {
                  "internalType": "string",
                  "name": "id",
                  "type": "string"
                },
                {
                  "internalType": "address",
                  "name": "ethereumAddress",
                  "type": "address"
                }
              ],
              "internalType": "struct VCTypesV01.Issuer",
              "name": "issuer",
              "type": "tuple"
            },
            {
              "components": [
                {
                  "internalType": "string",
                  "name": "id",
                  "type": "string"
                },
                {
                  "internalType": "address",
                  "name": "ethereumAddress",
                  "type": "address"
                },
                {
                  "internalType": "string",
                  "name": "_type",
                  "type": "string"
                },
                {
                  "internalType": "string",
                  "name": "typeSchema",
                  "type": "string"
                },
                {
                  "internalType": "string",
                  "name": "value",
                  "type": "string"
                },
                {
                  "internalType": "string",
                  "name": "encrypted",
                  "type": "string"
                },
                {
                  "internalType": "uint8",
                  "name": "trust",
                  "type": "uint8"
                },
                {
                  "internalType": "uint256",
                  "name": "stake",
                  "type": "uint256"
                },
                {
                  "internalType": "uint256",
                  "name": "price",
                  "type": "uint256"
                },
                {
                  "internalType": "uint256",
                  "name": "nbf",
                  "type": "uint256"
                },
                {
                  "internalType": "uint256",
                  "name": "exp",
                  "type": "uint256"
                }
              ],
              "internalType": "struct VCTypesV01.CredentialSubject",
              "name": "credentialSubject",
              "type": "tuple"
            },
            {
              "components": [
                {
                  "internalType": "string",
                  "name": "id",
                  "type": "string"
                },
                {
                  "internalType": "string",
                  "name": "_type",
                  "type": "string"
                }
              ],
              "internalType": "struct VCTypesV01.CredentialSchema",
              "name": "credentialSchema",
              "type": "tuple"
            },
            {
              "internalType": "string",
              "name": "issuanceDate",
              "type": "string"
            },
            {
              "internalType": "string",
              "name": "expirationDate",
              "type": "string"
            }
          ],
          "internalType": "struct VCTypesV01.VerifiableCredential",
          "name": "vc",
          "type": "tuple"
        }
      ],
      "name": "expiredVC",
      "outputs": [
        {
          "internalType": "bool",
          "name": "",
          "type": "bool"
        }
      ],
      "stateMutability": "nonpayable",
      "type": "function"
    },
    {
      "inputs": [],
      "name": "feePercentage",
      "outputs": [
        {
          "internalType": "uint256",
          "name": "",
          "type": "uint256"
        }
      ],
      "stateMutability": "view",
      "type": "function"
    },
    {
      "inputs": [],
      "name": "feesAvailableForWithdraw",
      "outputs": [
        {
          "internalType": "uint256",
          "name": "",
          "type": "uint256"
        }
      ],
      "stateMutability": "view",
      "type": "function"
    },
    {
      "inputs": [
        {
          "internalType": "bytes32",
          "name": "role",
          "type": "bytes32"
        }
      ],
      "name": "getRoleAdmin",
      "outputs": [
        {
          "internalType": "bytes32",
          "name": "",
          "type": "bytes32"
        }
      ],
      "stateMutability": "view",
      "type": "function"
    },
    {
      "inputs": [
        {
          "internalType": "bytes32",
          "name": "role",
          "type": "bytes32"
        },
        {
          "internalType": "uint256",
          "name": "index",
          "type": "uint256"
        }
      ],
      "name": "getRoleMember",
      "outputs": [
        {
          "internalType": "address",
          "name": "",
          "type": "address"
        }
      ],
      "stateMutability": "view",
      "type": "function"
    },
    {
      "inputs": [
        {
          "internalType": "bytes32",
          "name": "role",
          "type": "bytes32"
        }
      ],
      "name": "getRoleMemberCount",
      "outputs": [
        {
          "internalType": "uint256",
          "name": "",
          "type": "uint256"
        }
      ],
      "stateMutability": "view",
      "type": "function"
    },
    {
      "inputs": [
        {
          "components": [
            {
              "internalType": "string",
              "name": "_context",
              "type": "string"
            },
            {
              "internalType": "string",
              "name": "_type",
              "type": "string"
            },
            {
              "internalType": "string",
              "name": "id",
              "type": "string"
            },
            {
              "components": [
                {
                  "internalType": "string",
                  "name": "id",
                  "type": "string"
                },
                {
                  "internalType": "address",
                  "name": "ethereumAddress",
                  "type": "address"
                }
              ],
              "internalType": "struct VCTypesV01.Issuer",
              "name": "issuer",
              "type": "tuple"
            },
            {
              "components": [
                {
                  "internalType": "string",
                  "name": "id",
                  "type": "string"
                },
                {
                  "internalType": "address",
                  "name": "ethereumAddress",
                  "type": "address"
                },
                {
                  "internalType": "string",
                  "name": "_type",
                  "type": "string"
                },
                {
                  "internalType": "string",
                  "name": "typeSchema",
                  "type": "string"
                },
                {
                  "internalType": "string",
                  "name": "value",
                  "type": "string"
                },
                {
                  "internalType": "string",
                  "name": "encrypted",
                  "type": "string"
                },
                {
                  "internalType": "uint8",
                  "name": "trust",
                  "type": "uint8"
                },
                {
                  "internalType": "uint256",
                  "name": "stake",
                  "type": "uint256"
                },
                {
                  "internalType": "uint256",
                  "name": "price",
                  "type": "uint256"
                },
                {
                  "internalType": "uint256",
                  "name": "nbf",
                  "type": "uint256"
                },
                {
                  "internalType": "uint256",
                  "name": "exp",
                  "type": "uint256"
                }
              ],
              "internalType": "struct VCTypesV01.CredentialSubject",
              "name": "credentialSubject",
              "type": "tuple"
            },
            {
              "components": [
                {
                  "internalType": "string",
                  "name": "id",
                  "type": "string"
                },
                {
                  "internalType": "string",
                  "name": "_type",
                  "type": "string"
                }
              ],
              "internalType": "struct VCTypesV01.CredentialSchema",
              "name": "credentialSchema",
              "type": "tuple"
            },
            {
              "internalType": "string",
              "name": "issuanceDate",
              "type": "string"
            },
            {
              "internalType": "string",
              "name": "expirationDate",
              "type": "string"
            }
          ],
          "internalType": "struct VCTypesV01.VerifiableCredential",
          "name": "vc",
          "type": "tuple"
        }
      ],
      "name": "getUuid",
      "outputs": [
        {
          "internalType": "uint256",
          "name": "",
          "type": "uint256"
        }
      ],
      "stateMutability": "pure",
      "type": "function"
    },
    {
      "inputs": [
        {
          "components": [
            {
              "internalType": "string",
              "name": "_context",
              "type": "string"
            },
            {
              "internalType": "string",
              "name": "_type",
              "type": "string"
            },
            {
              "internalType": "string",
              "name": "id",
              "type": "string"
            },
            {
              "components": [
                {
                  "internalType": "string",
                  "name": "id",
                  "type": "string"
                },
                {
                  "internalType": "address",
                  "name": "ethereumAddress",
                  "type": "address"
                }
              ],
              "internalType": "struct VCTypesV01.Issuer",
              "name": "issuer",
              "type": "tuple"
            },
            {
              "components": [
                {
                  "internalType": "string",
                  "name": "id",
                  "type": "string"
                },
                {
                  "internalType": "address",
                  "name": "ethereumAddress",
                  "type": "address"
                },
                {
                  "internalType": "string",
                  "name": "_type",
                  "type": "string"
                },
                {
                  "internalType": "string",
                  "name": "typeSchema",
                  "type": "string"
                },
                {
                  "internalType": "string",
                  "name": "value",
                  "type": "string"
                },
                {
                  "internalType": "string",
                  "name": "encrypted",
                  "type": "string"
                },
                {
                  "internalType": "uint8",
                  "name": "trust",
                  "type": "uint8"
                },
                {
                  "internalType": "uint256",
                  "name": "stake",
                  "type": "uint256"
                },
                {
                  "internalType": "uint256",
                  "name": "price",
                  "type": "uint256"
                },
                {
                  "internalType": "uint256",
                  "name": "nbf",
                  "type": "uint256"
                },
                {
                  "internalType": "uint256",
                  "name": "exp",
                  "type": "uint256"
                }
              ],
              "internalType": "struct VCTypesV01.CredentialSubject",
              "name": "credentialSubject",
              "type": "tuple"
            },
            {
              "components": [
                {
                  "internalType": "string",
                  "name": "id",
                  "type": "string"
                },
                {
                  "internalType": "string",
                  "name": "_type",
                  "type": "string"
                }
              ],
              "internalType": "struct VCTypesV01.CredentialSchema",
              "name": "credentialSchema",
              "type": "tuple"
            },
            {
              "internalType": "string",
              "name": "issuanceDate",
              "type": "string"
            },
            {
              "internalType": "string",
              "name": "expirationDate",
              "type": "string"
            }
          ],
          "internalType": "struct VCTypesV01.VerifiableCredential",
          "name": "vc",
          "type": "tuple"
        }
      ],
      "name": "getVCStatus",
      "outputs": [
        {
          "internalType": "string",
          "name": "",
          "type": "string"
        }
      ],
      "stateMutability": "view",
      "type": "function"
    },
    {
      "inputs": [
        {
          "internalType": "bytes32",
          "name": "role",
          "type": "bytes32"
        },
        {
          "internalType": "address",
          "name": "account",
          "type": "address"
        }
      ],
      "name": "grantRole",
      "outputs": [],
      "stateMutability": "nonpayable",
      "type": "function"
    },
    {
      "inputs": [
        {
          "internalType": "bytes32",
          "name": "role",
          "type": "bytes32"
        },
        {
          "internalType": "address",
          "name": "account",
          "type": "address"
        }
      ],
      "name": "hasRole",
      "outputs": [
        {
          "internalType": "bool",
          "name": "",
          "type": "bool"
        }
      ],
      "stateMutability": "view",
      "type": "function"
    },
    {
      "inputs": [
        {
          "internalType": "address",
          "name": "spender",
          "type": "address"
        },
        {
          "internalType": "uint256",
          "name": "addedValue",
          "type": "uint256"
        }
      ],
      "name": "increaseAllowance",
      "outputs": [
        {
          "internalType": "bool",
          "name": "",
          "type": "bool"
        }
      ],
      "stateMutability": "nonpayable",
      "type": "function"
    },
    {
      "inputs": [
        {
          "internalType": "string",
          "name": "name",
          "type": "string"
        },
        {
          "internalType": "string",
          "name": "symbol",
          "type": "string"
        },
        {
          "internalType": "string",
          "name": "version",
          "type": "string"
        }
      ],
      "name": "initialize",
      "outputs": [],
      "stateMutability": "nonpayable",
      "type": "function"
    },
    {
      "inputs": [
        {
          "internalType": "address",
          "name": "forwarder",
          "type": "address"
        }
      ],
      "name": "isTrustedForwarder",
      "outputs": [
        {
          "internalType": "bool",
          "name": "",
          "type": "bool"
        }
      ],
      "stateMutability": "view",
      "type": "function"
    },
    {
      "inputs": [],
      "name": "maxPriceToIssue",
      "outputs": [
        {
          "internalType": "uint256",
          "name": "",
          "type": "uint256"
        }
      ],
      "stateMutability": "view",
      "type": "function"
    },
    {
      "inputs": [],
      "name": "maxStakeToIssue",
      "outputs": [
        {
          "internalType": "uint256",
          "name": "",
          "type": "uint256"
        }
      ],
      "stateMutability": "view",
      "type": "function"
    },
    {
      "inputs": [],
      "name": "minBalanceToIssue",
      "outputs": [
        {
          "internalType": "uint256",
          "name": "",
          "type": "uint256"
        }
      ],
      "stateMutability": "view",
      "type": "function"
    },
    {
      "inputs": [],
      "name": "minBalanceToReceive",
      "outputs": [
        {
          "internalType": "uint256",
          "name": "",
          "type": "uint256"
        }
      ],
      "stateMutability": "view",
      "type": "function"
    },
    {
      "inputs": [],
      "name": "minBalanceToTransfer",
      "outputs": [
        {
          "internalType": "uint256",
          "name": "",
          "type": "uint256"
        }
      ],
      "stateMutability": "view",
      "type": "function"
    },
    {
      "inputs": [],
      "name": "minPriceToIssue",
      "outputs": [
        {
          "internalType": "uint256",
          "name": "",
          "type": "uint256"
        }
      ],
      "stateMutability": "view",
      "type": "function"
    },
    {
      "inputs": [],
      "name": "minStakeToIssue",
      "outputs": [
        {
          "internalType": "uint256",
          "name": "",
          "type": "uint256"
        }
      ],
      "stateMutability": "view",
      "type": "function"
    },
    {
      "inputs": [
        {
          "internalType": "address",
          "name": "to",
          "type": "address"
        },
        {
          "internalType": "uint256",
          "name": "amount",
          "type": "uint256"
        }
      ],
      "name": "mint",
      "outputs": [],
      "stateMutability": "nonpayable",
      "type": "function"
    },
    {
      "inputs": [],
      "name": "name",
      "outputs": [
        {
          "internalType": "string",
          "name": "",
          "type": "string"
        }
      ],
      "stateMutability": "view",
      "type": "function"
    },
    {
      "inputs": [],
      "name": "pause",
      "outputs": [],
      "stateMutability": "nonpayable",
      "type": "function"
    },
    {
      "inputs": [],
      "name": "paused",
      "outputs": [
        {
          "internalType": "bool",
          "name": "",
          "type": "bool"
        }
      ],
      "stateMutability": "view",
      "type": "function"
    },
    {
      "inputs": [
        {
          "internalType": "address",
          "name": "dest",
          "type": "address"
        }
      ],
      "name": "payments",
      "outputs": [
        {
          "internalType": "uint256",
          "name": "",
          "type": "uint256"
        }
      ],
      "stateMutability": "view",
      "type": "function"
    },
    {
      "inputs": [],
      "name": "proxiableUUID",
      "outputs": [
        {
          "internalType": "bytes32",
          "name": "",
          "type": "bytes32"
        }
      ],
      "stateMutability": "view",
      "type": "function"
    },
    {
      "inputs": [
        {
          "components": [
            {
              "internalType": "string",
              "name": "_context",
              "type": "string"
            },
            {
              "internalType": "string",
              "name": "_type",
              "type": "string"
            },
            {
              "internalType": "string",
              "name": "id",
              "type": "string"
            },
            {
              "components": [
                {
                  "internalType": "string",
                  "name": "id",
                  "type": "string"
                },
                {
                  "internalType": "address",
                  "name": "ethereumAddress",
                  "type": "address"
                }
              ],
              "internalType": "struct VCTypesV01.Issuer",
              "name": "issuer",
              "type": "tuple"
            },
            {
              "components": [
                {
                  "internalType": "string",
                  "name": "id",
                  "type": "string"
                },
                {
                  "internalType": "address",
                  "name": "ethereumAddress",
                  "type": "address"
                },
                {
                  "internalType": "string",
                  "name": "_type",
                  "type": "string"
                },
                {
                  "internalType": "string",
                  "name": "typeSchema",
                  "type": "string"
                },
                {
                  "internalType": "string",
                  "name": "value",
                  "type": "string"
                },
                {
                  "internalType": "string",
                  "name": "encrypted",
                  "type": "string"
                },
                {
                  "internalType": "uint8",
                  "name": "trust",
                  "type": "uint8"
                },
                {
                  "internalType": "uint256",
                  "name": "stake",
                  "type": "uint256"
                },
                {
                  "internalType": "uint256",
                  "name": "price",
                  "type": "uint256"
                },
                {
                  "internalType": "uint256",
                  "name": "nbf",
                  "type": "uint256"
                },
                {
                  "internalType": "uint256",
                  "name": "exp",
                  "type": "uint256"
                }
              ],
              "internalType": "struct VCTypesV01.CredentialSubject",
              "name": "credentialSubject",
              "type": "tuple"
            },
            {
              "components": [
                {
                  "internalType": "string",
                  "name": "id",
                  "type": "string"
                },
                {
                  "internalType": "string",
                  "name": "_type",
                  "type": "string"
                }
              ],
              "internalType": "struct VCTypesV01.CredentialSchema",
              "name": "credentialSchema",
              "type": "tuple"
            },
            {
              "internalType": "string",
              "name": "issuanceDate",
              "type": "string"
            },
            {
              "internalType": "string",
              "name": "expirationDate",
              "type": "string"
            }
          ],
          "internalType": "struct VCTypesV01.VerifiableCredential",
          "name": "vc",
          "type": "tuple"
        },
        {
          "internalType": "bytes",
          "name": "proofValue",
          "type": "bytes"
        }
      ],
      "name": "registerVC",
      "outputs": [
        {
          "internalType": "bool",
          "name": "",
          "type": "bool"
        }
      ],
      "stateMutability": "payable",
      "type": "function"
    },
    {
      "inputs": [
        {
          "internalType": "uint256",
          "name": "",
          "type": "uint256"
        }
      ],
      "name": "registry",
      "outputs": [
        {
          "internalType": "enum KRBTokenV01.Status",
          "name": "credentialStatus",
          "type": "uint8"
        },
        {
          "internalType": "uint256",
          "name": "disputedBy",
          "type": "uint256"
        }
      ],
      "stateMutability": "view",
      "type": "function"
    },
    {
      "inputs": [
        {
          "internalType": "bytes32",
          "name": "role",
          "type": "bytes32"
        },
        {
          "internalType": "address",
          "name": "account",
          "type": "address"
        }
      ],
      "name": "renounceRole",
      "outputs": [],
      "stateMutability": "nonpayable",
      "type": "function"
    },
    {
      "inputs": [
        {
          "internalType": "bytes32",
          "name": "role",
          "type": "bytes32"
        },
        {
          "internalType": "address",
          "name": "account",
          "type": "address"
        }
      ],
      "name": "revokeRole",
      "outputs": [],
      "stateMutability": "nonpayable",
      "type": "function"
    },
    {
      "inputs": [
        {
          "components": [
            {
              "internalType": "string",
              "name": "_context",
              "type": "string"
            },
            {
              "internalType": "string",
              "name": "_type",
              "type": "string"
            },
            {
              "internalType": "string",
              "name": "id",
              "type": "string"
            },
            {
              "components": [
                {
                  "internalType": "string",
                  "name": "id",
                  "type": "string"
                },
                {
                  "internalType": "address",
                  "name": "ethereumAddress",
                  "type": "address"
                }
              ],
              "internalType": "struct VCTypesV01.Issuer",
              "name": "issuer",
              "type": "tuple"
            },
            {
              "components": [
                {
                  "internalType": "string",
                  "name": "id",
                  "type": "string"
                },
                {
                  "internalType": "address",
                  "name": "ethereumAddress",
                  "type": "address"
                },
                {
                  "internalType": "string",
                  "name": "_type",
                  "type": "string"
                },
                {
                  "internalType": "string",
                  "name": "typeSchema",
                  "type": "string"
                },
                {
                  "internalType": "string",
                  "name": "value",
                  "type": "string"
                },
                {
                  "internalType": "string",
                  "name": "encrypted",
                  "type": "string"
                },
                {
                  "internalType": "uint8",
                  "name": "trust",
                  "type": "uint8"
                },
                {
                  "internalType": "uint256",
                  "name": "stake",
                  "type": "uint256"
                },
                {
                  "internalType": "uint256",
                  "name": "price",
                  "type": "uint256"
                },
                {
                  "internalType": "uint256",
                  "name": "nbf",
                  "type": "uint256"
                },
                {
                  "internalType": "uint256",
                  "name": "exp",
                  "type": "uint256"
                }
              ],
              "internalType": "struct VCTypesV01.CredentialSubject",
              "name": "credentialSubject",
              "type": "tuple"
            },
            {
              "components": [
                {
                  "internalType": "string",
                  "name": "id",
                  "type": "string"
                },
                {
                  "internalType": "string",
                  "name": "_type",
                  "type": "string"
                }
              ],
              "internalType": "struct VCTypesV01.CredentialSchema",
              "name": "credentialSchema",
              "type": "tuple"
            },
            {
              "internalType": "string",
              "name": "issuanceDate",
              "type": "string"
            },
            {
              "internalType": "string",
              "name": "expirationDate",
              "type": "string"
            }
          ],
          "internalType": "struct VCTypesV01.VerifiableCredential",
          "name": "vc",
          "type": "tuple"
        },
        {
          "internalType": "string",
          "name": "reason",
          "type": "string"
        }
      ],
      "name": "revokeVC",
      "outputs": [
        {
          "internalType": "bool",
          "name": "",
          "type": "bool"
        }
      ],
      "stateMutability": "nonpayable",
      "type": "function"
    },
    {
      "inputs": [
        {
          "internalType": "address",
          "name": "issuer",
          "type": "address"
        }
      ],
      "name": "stakeOf",
      "outputs": [
        {
          "internalType": "uint256",
          "name": "",
          "type": "uint256"
        }
      ],
      "stateMutability": "view",
      "type": "function"
    },
    {
      "inputs": [
        {
          "internalType": "bytes4",
          "name": "interfaceId",
          "type": "bytes4"
        }
      ],
      "name": "supportsInterface",
      "outputs": [
        {
          "internalType": "bool",
          "name": "",
          "type": "bool"
        }
      ],
      "stateMutability": "view",
      "type": "function"
    },
    {
      "inputs": [
        {
          "components": [
            {
              "internalType": "string",
              "name": "_context",
              "type": "string"
            },
            {
              "internalType": "string",
              "name": "_type",
              "type": "string"
            },
            {
              "internalType": "string",
              "name": "id",
              "type": "string"
            },
            {
              "components": [
                {
                  "internalType": "string",
                  "name": "id",
                  "type": "string"
                },
                {
                  "internalType": "address",
                  "name": "ethereumAddress",
                  "type": "address"
                }
              ],
              "internalType": "struct VCTypesV01.Issuer",
              "name": "issuer",
              "type": "tuple"
            },
            {
              "components": [
                {
                  "internalType": "string",
                  "name": "id",
                  "type": "string"
                },
                {
                  "internalType": "address",
                  "name": "ethereumAddress",
                  "type": "address"
                },
                {
                  "internalType": "string",
                  "name": "_type",
                  "type": "string"
                },
                {
                  "internalType": "string",
                  "name": "typeSchema",
                  "type": "string"
                },
                {
                  "internalType": "string",
                  "name": "value",
                  "type": "string"
                },
                {
                  "internalType": "string",
                  "name": "encrypted",
                  "type": "string"
                },
                {
                  "internalType": "uint8",
                  "name": "trust",
                  "type": "uint8"
                },
                {
                  "internalType": "uint256",
                  "name": "stake",
                  "type": "uint256"
                },
                {
                  "internalType": "uint256",
                  "name": "price",
                  "type": "uint256"
                },
                {
                  "internalType": "uint256",
                  "name": "nbf",
                  "type": "uint256"
                },
                {
                  "internalType": "uint256",
                  "name": "exp",
                  "type": "uint256"
                }
              ],
              "internalType": "struct VCTypesV01.CredentialSubject",
              "name": "credentialSubject",
              "type": "tuple"
            },
            {
              "components": [
                {
                  "internalType": "string",
                  "name": "id",
                  "type": "string"
                },
                {
                  "internalType": "string",
                  "name": "_type",
                  "type": "string"
                }
              ],
              "internalType": "struct VCTypesV01.CredentialSchema",
              "name": "credentialSchema",
              "type": "tuple"
            },
            {
              "internalType": "string",
              "name": "issuanceDate",
              "type": "string"
            },
            {
              "internalType": "string",
              "name": "expirationDate",
              "type": "string"
            }
          ],
          "internalType": "struct VCTypesV01.VerifiableCredential",
          "name": "vc",
          "type": "tuple"
        },
        {
          "internalType": "string",
          "name": "reason",
          "type": "string"
        }
      ],
      "name": "suspendVC",
      "outputs": [
        {
          "internalType": "bool",
          "name": "",
          "type": "bool"
        }
      ],
      "stateMutability": "nonpayable",
      "type": "function"
    },
    {
      "inputs": [],
      "name": "symbol",
      "outputs": [
        {
          "internalType": "string",
          "name": "",
          "type": "string"
        }
      ],
      "stateMutability": "view",
      "type": "function"
    },
    {
      "inputs": [],
      "name": "totalSupply",
      "outputs": [
        {
          "internalType": "uint256",
          "name": "",
          "type": "uint256"
        }
      ],
      "stateMutability": "view",
      "type": "function"
    },
    {
      "inputs": [
        {
          "internalType": "address",
          "name": "to",
          "type": "address"
        },
        {
          "internalType": "uint256",
          "name": "amount",
          "type": "uint256"
        }
      ],
      "name": "transfer",
      "outputs": [
        {
          "internalType": "bool",
          "name": "",
          "type": "bool"
        }
      ],
      "stateMutability": "nonpayable",
      "type": "function"
    },
    {
      "inputs": [
        {
          "internalType": "address",
          "name": "from",
          "type": "address"
        },
        {
          "internalType": "address",
          "name": "to",
          "type": "address"
        },
        {
          "internalType": "uint256",
          "name": "amount",
          "type": "uint256"
        }
      ],
      "name": "transferFrom",
      "outputs": [
        {
          "internalType": "bool",
          "name": "",
          "type": "bool"
        }
      ],
      "stateMutability": "nonpayable",
      "type": "function"
    },
    {
      "inputs": [],
      "name": "trustedForwarder",
      "outputs": [
        {
          "internalType": "address",
          "name": "",
          "type": "address"
        }
      ],
      "stateMutability": "view",
      "type": "function"
    },
    {
      "inputs": [],
      "name": "unpause",
      "outputs": [],
      "stateMutability": "nonpayable",
      "type": "function"
    },
    {
      "inputs": [
        {
          "internalType": "uint256",
          "name": "newMinBalanceToTransfer",
          "type": "uint256"
        },
        {
          "internalType": "uint256",
          "name": "newMinBalanceToReceive",
          "type": "uint256"
        },
        {
          "internalType": "uint256",
          "name": "newMinBalanceToIssue",
          "type": "uint256"
        },
        {
          "internalType": "uint256",
          "name": "newFeePercentage",
          "type": "uint256"
        },
        {
          "internalType": "uint256",
          "name": "newMinPrice",
          "type": "uint256"
        },
        {
          "internalType": "uint256",
          "name": "newMaxPrice",
          "type": "uint256"
        },
        {
          "internalType": "uint256",
          "name": "newMinStake",
          "type": "uint256"
        },
        {
          "internalType": "uint256",
          "name": "newMaxStake",
          "type": "uint256"
        },
        {
          "internalType": "address",
          "name": "newTrustedForwarder",
          "type": "address"
        }
      ],
      "name": "updateParameters",
      "outputs": [],
      "stateMutability": "nonpayable",
      "type": "function"
    },
    {
      "inputs": [
        {
          "internalType": "address",
          "name": "newImplementation",
          "type": "address"
        }
      ],
      "name": "upgradeTo",
      "outputs": [],
      "stateMutability": "nonpayable",
      "type": "function"
    },
    {
      "inputs": [
        {
          "internalType": "address",
          "name": "newImplementation",
          "type": "address"
        },
        {
          "internalType": "bytes",
          "name": "data",
          "type": "bytes"
        }
      ],
      "name": "upgradeToAndCall",
      "outputs": [],
      "stateMutability": "payable",
      "type": "function"
    },
    {
      "inputs": [
        {
          "internalType": "address",
          "name": "signer",
          "type": "address"
        },
        {
          "internalType": "bytes32",
          "name": "structHash",
          "type": "bytes32"
        },
        {
          "internalType": "bytes",
          "name": "signature",
          "type": "bytes"
        }
      ],
      "name": "validateSignedData",
      "outputs": [],
      "stateMutability": "view",
      "type": "function"
    },
    {
      "inputs": [
        {
          "internalType": "address payable",
          "name": "_to",
          "type": "address"
        },
        {
          "internalType": "uint256",
          "name": "_amount",
          "type": "uint256"
        }
      ],
      "name": "withdrawFees",
      "outputs": [],
      "stateMutability": "nonpayable",
      "type": "function"
    },
    {
      "inputs": [
        {
          "internalType": "address payable",
          "name": "payee",
          "type": "address"
        }
      ],
      "name": "withdrawPayments",
      "outputs": [],
      "stateMutability": "nonpayable",
      "type": "function"
    }
  ],
  "bytecode": "0x60a06040523060805234801561001457600080fd5b50608051615d956200004d600039600081816110eb0152818161112b015281816112150152818161125501526112cd0152615d956000f3fe6080604052600436106102cc5760003560e01c80637da0a8771161017c578063af4e720d116100d2578063af4e720d1461084f578063b25dd4fc14610866578063bcd6899314610886578063c0d506d6146108a6578063ca15c873146108c6578063ca2a8cfc146108e6578063ce556f9d14610906578063d547741f14610926578063dd62ed3e14610946578063de5785d514610966578063de9d2b1c1461097d578063dec9cafe14610994578063e2982c21146109a7578063e5a2b28e146109c7578063ee2b1b4d146109de57600080fd5b80637da0a877146106945780638456cb59146106c2578063888bb7b5146106d75780638993a3e5146106f75780639010d07c1461071757806391d148541461073757806395d89b41146107575780639c70287c1461076c578063a001ecdd1461078c578063a217fddf146107a3578063a457c2d7146107b8578063a6487c53146107d8578063a775aabd146107f8578063a9059cbb1461080f578063ad3b1b471461082f57600080fd5b80633659cfe6116102315780633659cfe61461049c57806338b7f446146104bc57806339509351146104de5780633f4ba83a146104fe57806340c10f1914610513578063426233601461053357806342966c681461056a5780634f1ef2861461058a57806352d1902d1461059d578063572b6c05146105b25780635893253c146105d25780635c975abb1461061b57806370a0823114610634578063716f4d901461065457806379cc67901461067457600080fd5b806301ffc9a7146102d157806306fdde031461030657806307a0d7981461032857806307a772921461034d578063095ea7b31461036457806318160ddd1461038457806323b872dd14610399578063248a9ca3146103b95780632a401e81146103e95780632f2ff15d14610409578063313ce5671461042b57806331b3eb94146104475780633644e5151461046757806336568abe1461047c575b600080fd5b3480156102dd57600080fd5b506102f16102ec36600461460c565b6109f5565b60405190151581526020015b60405180910390f35b34801561031257600080fd5b5061031b610a20565b6040516102fd919061468e565b34801561033457600080fd5b5061033f6102955481565b6040519081526020016102fd565b34801561035957600080fd5b5061033f6102905481565b34801561037057600080fd5b506102f161037f3660046146c6565b610ab2565b34801561039057600080fd5b5060cb5461033f565b3480156103a557600080fd5b506102f16103b43660046146f2565b610ad4565b3480156103c557600080fd5b5061033f6103d4366004614733565b60009081526065602052604090206001015490565b3480156103f557600080fd5b506102f1610404366004614bb0565b610b04565b34801561041557600080fd5b50610429610424366004614c13565b610fb3565b005b34801561043757600080fd5b50604051601281526020016102fd565b34801561045357600080fd5b50610429610462366004614c43565b610fdd565b34801561047357600080fd5b5061033f611043565b34801561048857600080fd5b50610429610497366004614c13565b611052565b3480156104a857600080fd5b506104296104b7366004614c43565b6110e0565b3480156104c857600080fd5b5061033f600080516020615cd983398151915281565b3480156104ea57600080fd5b506102f16104f93660046146c6565b6111a9565b34801561050a57600080fd5b506104296111d5565b34801561051f57600080fd5b5061042961052e3660046146c6565b6111e7565b34801561053f57600080fd5b5061033f61054e366004614c43565b6001600160a01b03166000908152610299602052604090205490565b34801561057657600080fd5b50610429610585366004614733565b6111f9565b610429610598366004614c60565b61120a565b3480156105a957600080fd5b5061033f6112c0565b3480156105be57600080fd5b506102f16105cd366004614c43565b61136e565b3480156105de57600080fd5b5061060d6105ed366004614733565b610298602052600090815260409020805460019091015460ff9091169082565b6040516102fd929190614cbb565b34801561062757600080fd5b5061012d5460ff166102f1565b34801561064057600080fd5b5061033f61064f366004614c43565b611383565b34801561066057600080fd5b506102f161066f366004614ce7565b61139e565b34801561068057600080fd5b5061042961068f3660046146c6565b611532565b3480156106a057600080fd5b5061028e546106b5906001600160a01b031681565b6040516102fd9190614d40565b3480156106ce57600080fd5b5061042961154e565b3480156106e357600080fd5b506102f16106f2366004614d54565b61155e565b34801561070357600080fd5b50610429610712366004614d90565b611624565b34801561072357600080fd5b506106b5610732366004614e04565b611798565b34801561074357600080fd5b506102f1610752366004614c13565b6117b0565b34801561076357600080fd5b5061031b6117db565b34801561077857600080fd5b506104296107873660046146c6565b6117ea565b34801561079857600080fd5b5061033f6102965481565b3480156107af57600080fd5b5061033f600081565b3480156107c457600080fd5b506102f16107d33660046146c6565b6117fc565b3480156107e457600080fd5b506104296107f3366004614e26565b61188d565b34801561080457600080fd5b5061033f6102935481565b34801561081b57600080fd5b506102f161082a3660046146c6565b6119ab565b34801561083b57600080fd5b5061042961084a3660046146c6565b6119c3565b34801561085b57600080fd5b5061033f6102915481565b34801561087257600080fd5b50610429610881366004614ead565b611a0a565b34801561089257600080fd5b5061033f6108a1366004614d54565b611b0c565b3480156108b257600080fd5b5061031b6108c1366004614d54565b611b17565b3480156108d257600080fd5b5061033f6108e1366004614733565b611cde565b3480156108f257600080fd5b506102f1610901366004614ce7565b611cf5565b34801561091257600080fd5b506102f1610921366004614ce7565b611dd3565b34801561093257600080fd5b50610429610941366004614c13565b611f2b565b34801561095257600080fd5b5061033f610961366004614efb565b611f50565b34801561097257600080fd5b5061033f6102975481565b34801561098957600080fd5b5061033f6102945481565b6102f16109a2366004614ce7565b611f7b565b3480156109b357600080fd5b5061033f6109c2366004614c43565b6124ff565b3480156109d357600080fd5b5061033f61028f5481565b3480156109ea57600080fd5b5061033f6102925481565b60006001600160e01b03198216635a05180f60e01b1480610a1a5750610a1a82612572565b92915050565b606060cc8054610a2f90614f29565b80601f0160208091040260200160405190810160405280929190818152602001828054610a5b90614f29565b8015610aa85780601f10610a7d57610100808354040283529160200191610aa8565b820191906000526020600020905b815481529060010190602001808311610a8b57829003601f168201915b5050505050905090565b600080610abd6125a7565b9050610aca8185856125c9565b5060019392505050565b600080610adf6125a7565b9050610aec8582856126ed565b610af7858585612761565b60019150505b9392505050565b6000610b0e612905565b604051602001610b64906020808252602c908201527f5b2256657269666961626c6543726564656e7469616c222c224469737075746560408201526b43726564656e7469616c225d60a01b606082015260800190565b604051602081830303815290604052805190602001208260200151604051602001610b8f919061468e565b6040516020818303038152906040528051906020012014610c165760405162461bcd60e51b815260206004820152603660248201527f4b5242546f6b656e3a206469737075746520636c61696d2074797065206d75736044820152751d08189948111a5cdc1d5d1950dc9959195b9d1a585b60521b60648201526084015b60405180910390fd5b610c1e6125a7565b6001600160a01b03168260600151602001516001600160a01b031614610c9a5760405162461bcd60e51b815260206004820152602b60248201527f4b5242546f6b656e3a20697373756572206d7573742062652074686520476f7660448201526a65726e206164647265737360a81b6064820152608401610c0d565b8260400151604051602001610caf919061468e565b60408051601f198184030181529082905280516020918201206080850151519092610cda920161468e565b6040516020818303038152906040528051906020012014610d635760405162461bcd60e51b815260206004820152603c60248201527f4b5242546f6b656e3a206469737075746556432063726564656e7469616c537560448201527f626a6563742069642064696666657265732066726f6d205643206964000000006064820152608401610c0d565b610d6c8261296b565b6000610d7784611b0c565b9050600080828152610298602052604090205460ff166005811115610d9e57610d9e614ca5565b14158015610dd0575060026000828152610298602052604090205460ff166005811115610dcd57610dcd614ca5565b14155b610e285760405162461bcd60e51b815260206004820152602360248201527f4b5242546f6b656e3a20564320737461746520616c72656164792064697370756044820152621d195960ea1b6064820152608401610c0d565b6000610e3384611b0c565b60008381526102986020908152604091829020805460ff1916600217815560010183905581518581529081018390529192507f7a5b7de3bc82f24e3a2ec84fdd3d22a2611adff3df42e2917470dc204f0eb0a4910160405180910390a16000818152610298602052604090819020805460ff19166001179055517fb4323e298f3a82d5cf939b5e4ed408526ed5f8ebe42169c54ec2b667a85e1bc990610edc90839087906150a8565b60405180910390a16000610ef26012600a61529f565b866080015160e00151610f0591906152ae565b9050610f1986606001516020015182612c51565b6000610f3082886080015160c0015160ff16612d59565b9050610f4487608001516020015182612d68565b610f5687606001516020015182612d68565b6000610f646012600a61529f565b876080015160e00151610f7791906152ae565b90506000610f9082896080015160c0015160ff16612d59565b9050610fa488608001516020015182612e96565b50600198975050505050505050565b600082815260656020526040902060010154610fce81612f51565b610fd88383612f62565b505050565b610229546040516351cff8d960e01b81526001600160a01b03909116906351cff8d99061100e908490600401614d40565b600060405180830381600087803b15801561102857600080fd5b505af115801561103c573d6000803e3d6000fd5b5050505050565b600061104d612f84565b905090565b61105a6125a7565b6001600160a01b0316816001600160a01b0316146110d25760405162461bcd60e51b815260206004820152602f60248201527f416363657373436f6e74726f6c3a2063616e206f6e6c792072656e6f756e636560448201526e103937b632b9903337b91039b2b63360891b6064820152608401610c0d565b6110dc8282613001565b5050565b306001600160a01b037f00000000000000000000000000000000000000000000000000000000000000001614156111295760405162461bcd60e51b8152600401610c0d906152cd565b7f00000000000000000000000000000000000000000000000000000000000000006001600160a01b031661115b613023565b6001600160a01b0316146111815760405162461bcd60e51b8152600401610c0d90615319565b61118a8161303f565b604080516000808252602082019092526111a691839190613047565b50565b6000806111b46125a7565b9050610aca8185856111c68589611f50565b6111d09190615365565b6125c9565b6111dd612905565b6111e56131b2565b565b6111ef612905565b6110dc8282612e96565b6111a66112046125a7565b82612d68565b306001600160a01b037f00000000000000000000000000000000000000000000000000000000000000001614156112535760405162461bcd60e51b8152600401610c0d906152cd565b7f00000000000000000000000000000000000000000000000000000000000000006001600160a01b0316611285613023565b6001600160a01b0316146112ab5760405162461bcd60e51b8152600401610c0d90615319565b6112b48261303f565b6110dc82826001613047565b6000306001600160a01b037f0000000000000000000000000000000000000000000000000000000000000000161461135b5760405162461bcd60e51b815260206004820152603860248201527f555550535570677261646561626c653a206d757374206e6f742062652063616c6044820152771b1959081d1a1c9bdd59da0819195b1959d85d1958d85b1b60421b6064820152608401610c0d565b50600080516020615cf983398151915290565b61028e546001600160a01b0391821691161490565b6001600160a01b0316600090815260c9602052604090205490565b60006113ba600080516020615cd98339815191526107526125a7565b806113e557506113c86125a7565b6001600160a01b03168360800151602001516001600160a01b0316145b6114015760405162461bcd60e51b8152600401610c0d9061537d565b600061140c84611b0c565b905060016000828152610298602052604090205460ff16600581111561143457611434614ca5565b146114515760405162461bcd60e51b8152600401610c0d906153d3565b6000818152610298602052604090819020805460ff19169055517f9033e030b285e24d878a56c0809910a4fbc2c14bc876c3060bfdefc4f21ea68c9061149a908390869061540a565b60405180910390a160006114b06012600a61529f565b856080015160e001516114c391906152ae565b905060006114dc82876080015160c0015160ff16612d59565b90506114f086606001516020015183612c51565b61150286606001516020015183612e96565b61151486608001516020015182612d68565b61152686606001516020015182612d68565b50600195945050505050565b6115448261153e6125a7565b836126ed565b6110dc8282612d68565b611556612905565b6111e5613205565b60008061156a83611b0c565b90508260800151610140015142111561161457600061158b6012600a61529f565b846080015160e0015161159e91906152ae565b90506115b284606001516020015182612c51565b6115c484606001516020015182612e96565b60008281526102986020908152604091829020805460ff1916600517905590518381527ff80dbaea4785589e52984ca36a31de106adc77759539a5c7d92883bf49692fe9910160405180910390a1505b5050608001516101400151421190565b61162c612905565b61028f899055610290889055610291879055610296869055848410156116ba5760405162461bcd60e51b815260206004820152603f60248201527f4b5242546f6b656e3a206e65774d61785072696365206d75737420626520677260448201527f6561746572206f7220657175616c207468616e206e65774d696e5072696365006064820152608401610c0d565b6102928590556102938490558282101561173c5760405162461bcd60e51b815260206004820152603f60248201527f4b5242546f6b656e3a206e65774d61785374616b65206d75737420626520677260448201527f6561746572206f7220657175616c207468616e206e65774d696e5374616b65006064820152608401610c0d565b61029483905561029582905561028e80546001600160a01b0319166001600160a01b0383161790556040517ff2e795d4a33ae9a0d3282888375b8ae781ea4de1cbf101ac96150aa95ccff0b490600090a1505050505050505050565b6000828152609760205260408120610afd9083613244565b60009182526065602090815260408084206001600160a01b0393909316845291905290205460ff1690565b606060cd8054610a2f90614f29565b6117f2612905565b6110dc8282612c51565b6000806118076125a7565b905060006118158286611f50565b9050838110156118755760405162461bcd60e51b815260206004820152602560248201527f45524332303a2064656372656173656420616c6c6f77616e63652062656c6f77604482015264207a65726f60d81b6064820152608401610c0d565b61188282868684036125c9565b506001949350505050565b600054610100900460ff16158080156118ad5750600054600160ff909116105b806118ce57506118bc30613250565b1580156118ce575060005460ff166001145b6119315760405162461bcd60e51b815260206004820152602e60248201527f496e697469616c697a61626c653a20636f6e747261637420697320616c72656160448201526d191e481a5b9a5d1a585b1a5e995960921b6064820152608401610c0d565b6000805460ff191660011790558015611954576000805461ff0019166101001790555b61195f84848461325f565b80156119a5576000805461ff0019169055604051600181527f7f26b83ff96e1f2b6a682f133852f6798a09c465da95921460cefb38474024989060200160405180910390a15b50505050565b6000806119b66125a7565b9050610aca818585612761565b6119cb6132ed565b6119d3612905565b610297548111156119e357600080fd5b610297546119f19082613349565b610297556119ff8282613355565b6110dc600161025c55565b6000611a15836133c6565b90506000611a238284613414565b90506001600160a01b038116611a8a5760405162461bcd60e51b815260206004820152602660248201527f4b5242546f6b656e3a20696e76616c6964207369676e6174757265206164647260448201526565737328302960d01b6064820152608401610c0d565b846001600160a01b0316816001600160a01b03161461103c5760405162461bcd60e51b815260206004820152603860248201527f4b5242546f6b656e3a207265636f76657265642061646472657373206469666660448201527732b93990333937b69032bc3832b1ba32b21039b4b3b732b960411b6064820152608401610c0d565b6000610a1a82613438565b60606000611b2483611b0c565b6000818152610298602052604081205491925060ff90911690816005811115611b4f57611b4f614ca5565b1415611b785750506040805180820190915260048152634e6f6e6560e01b602082015292915050565b6001816005811115611b8c57611b8c614ca5565b1415611bb7575050604080518082019091526006815265125cdcdd595960d21b602082015292915050565b6002816005811115611bcb57611bcb614ca5565b1415611bf8575050604080518082019091526008815267111a5cdc1d5d195960c21b602082015292915050565b6003816005811115611c0c57611c0c614ca5565b1415611c3857505060408051808201909152600781526614995d9bdad95960ca1b602082015292915050565b6004816005811115611c4c57611c4c614ca5565b1415611c7a57505060408051808201909152600981526814dd5cdc195b99195960ba1b602082015292915050565b6005816005811115611c8e57611c8e614ca5565b1415611cba575050604080518082019091526007815266115e1c1a5c995960ca1b602082015292915050565b505060408051808201909152600581526422b93937b960d91b602082015292915050565b6000818152609760205260408120610a1a9061352c565b6000611cff6125a7565b6001600160a01b03168360600151602001516001600160a01b031614611d375760405162461bcd60e51b8152600401610c0d90615423565b6000611d4284611b0c565b905060016000828152610298602052604090205460ff166005811115611d6a57611d6a614ca5565b14611d875760405162461bcd60e51b8152600401610c0d906153d3565b6000818152610298602052604090819020805460ff19166003179055517f09e41d39f5fbe80f71bc2f0a44e937a0ee3dff62dd07f191a8a461a339891a039061149a908390869061540a565b6000611ddd6125a7565b6001600160a01b03168360600151602001516001600160a01b031614611e155760405162461bcd60e51b8152600401610c0d90615423565b6000611e2084611b0c565b905060016000828152610298602052604090205460ff166005811115611e4857611e48614ca5565b14611e655760405162461bcd60e51b8152600401610c0d906153d3565b6000818152610298602052604090819020805460ff19166004179055517f78a24d70a605e5984bdf7233d4f5e3f53c63bda44f9caa9803b2ccabae03364390611eb1908390869061540a565b60405180910390a16000611ec76012600a61529f565b856080015160e00151611eda91906152ae565b90506000611ef382876080015160c0015160ff16612d59565b9050611f0786606001516020015183612c51565b611f1986606001516020015183612e96565b61152686608001516020015182612d68565b600082815260656020526040902060010154611f4681612f51565b610fd88383613001565b6001600160a01b03918216600090815260ca6020908152604080832093909416825291909152205490565b6000611f97600080516020615cd98339815191526107526125a7565b80611fc25750611fa56125a7565b6001600160a01b03168360800151602001516001600160a01b0316145b611fde5760405162461bcd60e51b8152600401610c0d9061537d565b610292543410156120525760405162461bcd60e51b815260206004820152603860248201527f4b5242546f6b656e3a206d73672e76616c7565206d7573742062652067726561604482015277746572207468616e206d696e5072696365546f497373756560401b6064820152608401610c0d565b610293543411156120c35760405162461bcd60e51b815260206004820152603560248201527f4b5242546f6b656e3a206d73672e76616c7565206d757374206265206c657373604482015274207468616e206d61785072696365546f497373756560581b6064820152608401610c0d565b34836080015161010001511461213e5760405162461bcd60e51b815260206004820152603a60248201527f4b5242546f6b656e3a206d73672e76616c756520646f6573206e6f74206d617460448201527963682063726564656e7469616c5375626a6563742e707269636560301b6064820152608401610c0d565b600061214984611b0c565b905061216684606001516020015161216086613438565b85611a0a565b61216f8461296b565b6000818152610298602052604081205460ff16600581111561219357612193614ca5565b146122015760405162461bcd60e51b815260206004820152603860248201527f4b5242546f6b656e3a2056657269666961626c652043726564656e7469616c206044820152771a185cda08185b1c9958591e481899595b881a5cdcdd595960421b6064820152608401610c0d565b61029154612216856060015160200151611383565b101561227a5760405162461bcd60e51b815260206004820152602d60248201527f4b5242546f6b656e3a2069737375657220646f6573206e6f742068617665206560448201526c6e6f7567682062616c616e636560981b6064820152608401610c0d565b60006122886012600a61529f565b856080015160e0015161229b91906152ae565b90506102945481101580156122b35750610295548111155b6123315760405162461bcd60e51b815260206004820152604360248201527f4b5242546f6b656e3a207374616b65206d757374206265206265747765656e2060448201527f6d696e5374616b65546f497373756520616e64206d61785374616b65546f497360648201526273756560e81b608482015260a401610c0d565b61234385606001516020015182612d68565b60608501516020908101516001600160a01b0316600090815261029990915260409020546123719082613536565b6060860180516020908101516001600160a01b0390811660009081526102998352604080822095909555925182015193518581529316927f5dac0c1b1112564a045ba943c9d50270893e8e826c49be8e7073adc713ab7bd7910160405180910390a3604080518082019091528060018152600060209182018190528481526102989091526040902081518154829060ff1916600183600581111561241757612417614ca5565b0217905550602082015181600101559050507fb4323e298f3a82d5cf939b5e4ed408526ed5f8ebe42169c54ec2b667a85e1bc9828660405161245a9291906150a8565b60405180910390a1600061247982876080015160c0015160ff16612d59565b905061248d86608001516020015182612e96565b61249f86606001516020015182612e96565b60006124c16124ba8860800151610100015161029654613542565b606461354e565b6060880151602001519091506124e0906124db3484613349565b613355565b610297546124ee9082613536565b610297555060019695505050505050565b610229546040516371d4ed8d60e11b81526000916001600160a01b03169063e3a9db1a90612531908590600401614d40565b602060405180830381865afa15801561254e573d6000803e3d6000fd5b505050506040513d601f19601f82011682018060405250810190610a1a919061546e565b60006001600160e01b03198216637965db0b60e01b1480610a1a57506301ffc9a760e01b6001600160e01b0319831614610a1a565b60006125b23361136e565b156125c4575060131936013560601c90565b503390565b6001600160a01b03831661262b5760405162461bcd60e51b8152602060048201526024808201527f45524332303a20617070726f76652066726f6d20746865207a65726f206164646044820152637265737360e01b6064820152608401610c0d565b6001600160a01b03821661268c5760405162461bcd60e51b815260206004820152602260248201527f45524332303a20617070726f766520746f20746865207a65726f206164647265604482015261737360f01b6064820152608401610c0d565b6001600160a01b03838116600081815260ca602090815260408083209487168084529482529182902085905590518481527f8c5be1e5ebec7d5bd14f71427d1e84f3dd0314c0f7b2291e5b200ac8c7c3b925910160405180910390a3505050565b60006126f98484611f50565b905060001981146119a557818110156127545760405162461bcd60e51b815260206004820152601d60248201527f45524332303a20696e73756666696369656e7420616c6c6f77616e63650000006044820152606401610c0d565b6119a584848484036125c9565b6001600160a01b0383166127c55760405162461bcd60e51b815260206004820152602560248201527f45524332303a207472616e736665722066726f6d20746865207a65726f206164604482015264647265737360d81b6064820152608401610c0d565b6001600160a01b0382166128275760405162461bcd60e51b815260206004820152602360248201527f45524332303a207472616e7366657220746f20746865207a65726f206164647260448201526265737360e81b6064820152608401610c0d565b61283283838361355a565b6001600160a01b038316600090815260c96020526040902054818110156128aa5760405162461bcd60e51b815260206004820152602660248201527f45524332303a207472616e7366657220616d6f756e7420657863656564732062604482015265616c616e636560d01b6064820152608401610c0d565b6001600160a01b03808516600081815260c960205260408082208686039055928616808252908390208054860190559151600080516020615d40833981519152906128f89086815260200190565b60405180910390a36119a5565b61291f600080516020615cd98339815191526107526125a7565b6111e55760405162461bcd60e51b815260206004820152601f60248201527f4b5242546f6b656e3a206d757374206861766520676f7665726e20726f6c65006044820152606401610c0d565b6060810151602001516001600160a01b03166129c95760405162461bcd60e51b815260206004820152601c60248201527f4b5242546f6b656e3a20626164206973737565722061646472657373000000006044820152606401610c0d565b6080810151602001516001600160a01b0316612a375760405162461bcd60e51b815260206004820152602760248201527f4b5242546f6b656e3a206261642063726564656e7469616c5375626a656374206044820152666164647265737360c81b6064820152608401610c0d565b608081015151604051612a4d919060200161468e565b60408051601f198184030181529082905280516020918201206060840151519092612a78920161468e565b604051602081830303815290604052805190602001201415612afa5760405162461bcd60e51b815260206004820152603560248201527f4b5242546f6b656e3a2069737375657220444944206973207468652073616d6560448201527408185cc818dc9959195b9d1a585b14dd589a9958dd605a1b6064820152608401610c0d565b8060800151602001516001600160a01b03168160600151602001516001600160a01b03161415612b8e5760405162461bcd60e51b815260206004820152603960248201527f4b5242546f6b656e3a20697373756572206164647265737320697320746865206044820152781cd85b5948185cc818dc9959195b9d1a585b14dd589a9958dd603a1b6064820152608401610c0d565b806080015161012001514211612bf95760405162461bcd60e51b815260206004820152602a60248201527f4b5242546f6b656e3a2056432069737375616e63654461746520697320696e206044820152697468652066757475726560b01b6064820152608401610c0d565b8060800151610140015142106111a65760405162461bcd60e51b815260206004820181905260248201527f4b5242546f6b656e3a2056432068617320616c726561647920657870697265646044820152606401610c0d565b6001600160a01b038216612cba5760405162461bcd60e51b815260206004820152602a60248201527f4b5242546f6b656e3a206275726e207374616b652066726f6d20746865207a65604482015269726f206164647265737360b01b6064820152608401610c0d565b6001600160a01b0382166000908152610299602052604090205481116110dc576001600160a01b03821660009081526102996020526040902054612cfe9082613349565b6001600160a01b038316600081815261029960205260408082209390935591517f5dac0c1b1112564a045ba943c9d50270893e8e826c49be8e7073adc713ab7bd790612d4d9085815260200190565b60405180910390a35050565b6000610afd6124ba8484613542565b6001600160a01b038216612dc85760405162461bcd60e51b815260206004820152602160248201527f45524332303a206275726e2066726f6d20746865207a65726f206164647265736044820152607360f81b6064820152608401610c0d565b612dd48260008361355a565b6001600160a01b038216600090815260c9602052604090205481811015612e485760405162461bcd60e51b815260206004820152602260248201527f45524332303a206275726e20616d6f756e7420657863656564732062616c616e604482015261636560f01b6064820152608401610c0d565b6001600160a01b038316600081815260c960209081526040808320868603905560cb8054879003905551858152919291600080516020615d40833981519152910160405180910390a3505050565b6001600160a01b038216612eec5760405162461bcd60e51b815260206004820152601f60248201527f45524332303a206d696e7420746f20746865207a65726f2061646472657373006044820152606401610c0d565b612ef86000838361355a565b8060cb6000828254612f0a9190615365565b90915550506001600160a01b038216600081815260c96020908152604080832080548601905551848152600080516020615d40833981519152910160405180910390a35050565b6111a681612f5d6125a7565b6136d4565b612f6c828261372d565b6000828152609760205260409020610fd890826137b4565b600061104d7f8b73c3c69bb8fe3d512ecc4cf759cc79239f7b179b0ffacaa9a75d522b39400f612fb46101915490565b610192546040805160208101859052908101839052606081018290524660808201523060a082015260009060c0016040516020818303038152906040528051906020012090509392505050565b61300b82826137c9565b6000828152609760205260409020610fd8908261384e565b600080516020615cf9833981519152546001600160a01b031690565b6111a6612905565b7f4910fdfa16fed3260ed0e7147f7cc6da11a60208b5b9406d12a635614ffd91435460ff161561307a57610fd883613863565b826001600160a01b03166352d1902d6040518163ffffffff1660e01b8152600401602060405180830381865afa9250505080156130d4575060408051601f3d908101601f191682019092526130d19181019061546e565b60015b6131375760405162461bcd60e51b815260206004820152602e60248201527f45524331393637557067726164653a206e657720696d706c656d656e7461746960448201526d6f6e206973206e6f74205555505360901b6064820152608401610c0d565b600080516020615cf983398151915281146131a65760405162461bcd60e51b815260206004820152602960248201527f45524331393637557067726164653a20756e737570706f727465642070726f786044820152681a58589b195555525160ba1b6064820152608401610c0d565b50610fd88383836138fd565b6131ba613922565b61012d805460ff191690557f5db9ee0a495bf2e6ff9c91a7834c1ba4fdd244a5e8aa4e537bd38aeae4b073aa6131ee6125a7565b6040516131fb9190614d40565b60405180910390a1565b61320d61396c565b61012d805460ff191660011790557f62e78cea01bee320cd4e420270b5ea74000d11b0c9f74754ebdbfc544b05a2586131ee6125a7565b6000610afd83836139b3565b6001600160a01b03163b151590565b600054610100900460ff166132865760405162461bcd60e51b8152600401610c0d90615487565b61328e6139dd565b6132966139dd565b61329e6139dd565b6132a66139dd565b6132b08383613a04565b6132b86139dd565b6132c0613a52565b6132c86139dd565b6132d28382613a86565b6132da613ac9565b6132e2613b84565b610fd8838383613bab565b600261025c5414156133415760405162461bcd60e51b815260206004820152601f60248201527f5265656e7472616e637947756172643a207265656e7472616e742063616c6c006044820152606401610c0d565b600261025c55565b6000610afd82846154d2565b6102295460405163f340fa0160e01b81526001600160a01b039091169063f340fa01908390613388908690600401614d40565b6000604051808303818588803b1580156133a157600080fd5b505af11580156133b5573d6000803e3d6000fd5b50505050505050565b600161025c55565b6000610a1a6133d3612f84565b8360405161190160f01b6020820152602281018390526042810182905260009060620160405160208183030381529060405280519060200120905092915050565b60008060006134238585613ca5565b9150915061343081613ceb565b509392505050565b60007f63c4847aa3662952b34b8f76f3abc371c24535ee34fce5b3df34d029db924d4e60001b82600001518051906020012083602001518051906020012084604001518051906020012061348f8660600151613e34565b61349c8760800151613e8d565b6134a98860a00151613f86565b60c0890151805160209182012060e08b015180519083012060405161350f9a9998979695949301988952602089019790975260408801959095526060870193909352608086019190915260a085015260c084015260e08301526101008201526101200190565b604051602081830303815290604052805190602001209050919050565b6000610a1a825490565b6000610afd8284615365565b6000610afd82846152ae565b6000610afd82846154e9565b613565838383613fdc565b61357f600080516020615cd98339815191526107526125a7565b8061359157506001600160a01b038316155b806135a357506001600160a01b038216155b806135b9575061028f546135b684611383565b10155b61361b5760405162461bcd60e51b815260206004820152602d60248201527f4b5242546f6b656e3a2073656e64657220646f6573206e6f742068617665206560448201526c6e6f7567682062616c616e636560981b6064820152608401610c0d565b613635600080516020615cd98339815191526107526125a7565b8061364757506001600160a01b038316155b8061365957506001600160a01b038216155b8061366f57506102905461366c83611383565b10155b610fd85760405162461bcd60e51b815260206004820152603060248201527f4b5242546f6b656e3a20726563697069656e7420646f6573206e6f742068617660448201526f6520656e6f7567682062616c616e636560801b6064820152608401610c0d565b6136de82826117b0565b6110dc576136eb81614043565b6136f6836020614055565b60405160200161370792919061550b565b60408051601f198184030181529082905262461bcd60e51b8252610c0d9160040161468e565b61373782826117b0565b6110dc5760008281526065602090815260408083206001600160a01b03851684529091529020805460ff191660011790556137706125a7565b6001600160a01b0316816001600160a01b0316837f2f8788117e7eff1d82e926ec794901d17c78024a50270940304540a733656f0d60405160405180910390a45050565b6000610afd836001600160a01b0384166141f0565b6137d382826117b0565b156110dc5760008281526065602090815260408083206001600160a01b03851684529091529020805460ff1916905561380a6125a7565b6001600160a01b0316816001600160a01b0316837ff6391f5c32d9c69d2a47ea670b442974b53935d1edc7fd64eb21e047a839171b60405160405180910390a45050565b6000610afd836001600160a01b03841661423f565b61386c81613250565b6138ce5760405162461bcd60e51b815260206004820152602d60248201527f455243313936373a206e657720696d706c656d656e746174696f6e206973206e60448201526c1bdd08184818dbdb9d1c9858dd609a1b6064820152608401610c0d565b600080516020615cf983398151915280546001600160a01b0319166001600160a01b0392909216919091179055565b61390683614332565b6000825111806139135750805b15610fd8576119a58383614372565b61012d5460ff166111e55760405162461bcd60e51b815260206004820152601460248201527314185d5cd8589b194e881b9bdd081c185d5cd95960621b6044820152606401610c0d565b61012d5460ff16156111e55760405162461bcd60e51b815260206004820152601060248201526f14185d5cd8589b194e881c185d5cd95960821b6044820152606401610c0d565b60008260000182815481106139ca576139ca61557a565b9060005260206000200154905092915050565b600054610100900460ff166111e55760405162461bcd60e51b8152600401610c0d90615487565b600054610100900460ff16613a2b5760405162461bcd60e51b8152600401610c0d90615487565b8151613a3e9060cc906020850190614566565b508051610fd89060cd906020840190614566565b600054610100900460ff16613a795760405162461bcd60e51b8152600401610c0d90615487565b61012d805460ff19169055565b600054610100900460ff16613aad5760405162461bcd60e51b8152600401610c0d90615487565b8151602092830120815191909201206101919190915561019255565b600054610100900460ff16613af05760405162461bcd60e51b8152600401610c0d90615487565b604051613afc906145ea565b604051809103906000f080158015613b18573d6000803e3d6000fd5b5061022980546001600160a01b0319166001600160a01b039290921691821790556040805163204a7f0760e21b81529051638129fc1c9160048082019260009290919082900301818387803b158015613b7057600080fd5b505af11580156119a5573d6000803e3d6000fd5b600054610100900460ff166133be5760405162461bcd60e51b8152600401610c0d90615487565b600054610100900460ff16613bd25760405162461bcd60e51b8152600401610c0d90615487565b613be46000613bdf6125a7565b614464565b613bfe600080516020615cd9833981519152613bdf6125a7565b613c0a6012600a61529f565b613c159060646152ae565b61028f55613c256012600a61529f565b613c309060646152ae565b61029055600a610296556012613c4790600a61529f565b613c529060646152ae565b61029155600061029255683635c9adc5dea0000061029355613c766012600a61529f565b613c819060016152ae565b61029455613c916012600a61529f565b613c9c90600a6152ae565b61029555505050565b600080825160411415613cdc5760208301516040840151606085015160001a613cd08782858561446e565b94509450505050613ce4565b506000905060025b9250929050565b6000816004811115613cff57613cff614ca5565b1415613d085750565b6001816004811115613d1c57613d1c614ca5565b1415613d655760405162461bcd60e51b815260206004820152601860248201527745434453413a20696e76616c6964207369676e617475726560401b6044820152606401610c0d565b6002816004811115613d7957613d79614ca5565b1415613dc75760405162461bcd60e51b815260206004820152601f60248201527f45434453413a20696e76616c6964207369676e6174757265206c656e677468006044820152606401610c0d565b6003816004811115613ddb57613ddb614ca5565b14156111a65760405162461bcd60e51b815260206004820152602260248201527f45434453413a20696e76616c6964207369676e6174757265202773272076616c604482015261756560f01b6064820152608401610c0d565b8051805160209182012081830151604080517fabb691e6e52ceb1ff8b3df91dc14323057e88efa3252486ed994fd62706cdfaa948101949094528301919091526001600160a01b0316606082015260009060800161350f565b60007f4b87db6c5998f503ac6519b5a7d74efcf2a230368deeaf54dd8bf078da459ff760001b82600001518051906020012083602001518460400151805190602001208560600151805190602001208660800151805190602001208760a00151805190602001208860c001518960e001518a61010001518b61012001518c610140015160405160200161350f9c9b9a999897969594939291909b8c5260208c019a909a526001600160a01b039890981660408b015260608a0196909652608089019490945260a088019290925260c087015260ff1660e08601526101008501526101208401526101408301526101608201526101800190565b8051805160209182012081830151805190830120604080517f1a58b7c56676b62343f37f4f3603a07ae6dd78bea300689bcefef0f9498c6cc994810194909452830191909152606082015260009060800161350f565b61012d5460ff1615610fd85760405162461bcd60e51b815260206004820152602a60248201527f45524332305061757361626c653a20746f6b656e207472616e736665722077686044820152691a5b19481c185d5cd95960b21b6064820152608401610c0d565b6060610a1a6001600160a01b03831660145b606060006140648360026152ae565b61406f906002615365565b6001600160401b038111156140865761408661474c565b6040519080825280601f01601f1916602001820160405280156140b0576020820181803683370190505b509050600360fc1b816000815181106140cb576140cb61557a565b60200101906001600160f81b031916908160001a905350600f60fb1b816001815181106140fa576140fa61557a565b60200101906001600160f81b031916908160001a905350600061411e8460026152ae565b614129906001615365565b90505b60018111156141a1576f181899199a1a9b1b9c1cb0b131b232b360811b85600f166010811061415d5761415d61557a565b1a60f81b8282815181106141735761417361557a565b60200101906001600160f81b031916908160001a90535060049490941c9361419a81615590565b905061412c565b508315610afd5760405162461bcd60e51b815260206004820181905260248201527f537472696e67733a20686578206c656e67746820696e73756666696369656e746044820152606401610c0d565b600081815260018301602052604081205461423757508154600181810184556000848152602080822090930184905584548482528286019093526040902091909155610a1a565b506000610a1a565b600081815260018301602052604081205480156143285760006142636001836154d2565b8554909150600090614277906001906154d2565b90508181146142dc5760008660000182815481106142975761429761557a565b90600052602060002001549050808760000184815481106142ba576142ba61557a565b6000918252602080832090910192909255918252600188019052604090208390555b85548690806142ed576142ed6155a7565b600190038181906000526020600020016000905590558560010160008681526020019081526020016000206000905560019350505050610a1a565b6000915050610a1a565b61433b81613863565b6040516001600160a01b038216907fbc7cd75a20ee27fd9adebab32041f755214dbc6bffa90cc0225b39da2e5c2d3b90600090a250565b606061437d83613250565b6143d85760405162461bcd60e51b815260206004820152602660248201527f416464726573733a2064656c65676174652063616c6c20746f206e6f6e2d636f6044820152651b9d1c9858dd60d21b6064820152608401610c0d565b600080846001600160a01b0316846040516143f391906155bd565b600060405180830381855af49150503d806000811461442e576040519150601f19603f3d011682016040523d82523d6000602084013e614433565b606091505b509150915061445b8282604051806060016040528060278152602001615d1960279139614528565b95945050505050565b6110dc8282612f62565b6000806fa2a8918ca85bafe22016d0b997e4df60600160ff1b0383111561449b575060009050600361451f565b6040805160008082526020820180845289905260ff881692820192909252606081018690526080810185905260019060a0016020604051602081039080840390855afa1580156144ef573d6000803e3d6000fd5b5050604051601f1901519150506001600160a01b0381166145185760006001925092505061451f565b9150600090505b94509492505050565b60608315614537575081610afd565b610afd838381511561454c5781518083602001fd5b8060405162461bcd60e51b8152600401610c0d919061468e565b82805461457290614f29565b90600052602060002090601f01602090048101928261459457600085556145da565b82601f106145ad57805160ff19168380011785556145da565b828001600101855582156145da579182015b828111156145da5782518255916020019190600101906145bf565b506145e69291506145f7565b5090565b6106ff806155da83390190565b5b808211156145e657600081556001016145f8565b60006020828403121561461e57600080fd5b81356001600160e01b031981168114610afd57600080fd5b60005b83811015614651578181015183820152602001614639565b838111156119a55750506000910152565b6000815180845261467a816020860160208601614636565b601f01601f19169290920160200192915050565b602081526000610afd6020830184614662565b6001600160a01b03811681146111a657600080fd5b80356146c1816146a1565b919050565b600080604083850312156146d957600080fd5b82356146e4816146a1565b946020939093013593505050565b60008060006060848603121561470757600080fd5b8335614712816146a1565b92506020840135614722816146a1565b929592945050506040919091013590565b60006020828403121561474557600080fd5b5035919050565b634e487b7160e01b600052604160045260246000fd5b604080519081016001600160401b03811182821017156147845761478461474c565b60405290565b60405161016081016001600160401b03811182821017156147845761478461474c565b60405161010081016001600160401b03811182821017156147845761478461474c565b600082601f8301126147e157600080fd5b81356001600160401b03808211156147fb576147fb61474c565b604051601f8301601f19908116603f011681019082821181831017156148235761482361474c565b8160405283815286602085880101111561483c57600080fd5b836020870160208301376000602085830101528094505050505092915050565b60006040828403121561486e57600080fd5b614876614762565b905081356001600160401b0381111561488e57600080fd5b61489a848285016147d0565b82525060208201356148ab816146a1565b602082015292915050565b803560ff811681146146c157600080fd5b600061016082840312156148da57600080fd5b6148e261478a565b905081356001600160401b03808211156148fb57600080fd5b614907858386016147d0565b8352614915602085016146b6565b6020840152604084013591508082111561492e57600080fd5b61493a858386016147d0565b6040840152606084013591508082111561495357600080fd5b61495f858386016147d0565b6060840152608084013591508082111561497857600080fd5b614984858386016147d0565b608084015260a084013591508082111561499d57600080fd5b506149aa848285016147d0565b60a0830152506149bc60c083016148b6565b60c082015260e082013560e082015261010080830135818301525061012080830135818301525061014080830135818301525092915050565b600060408284031215614a0757600080fd5b614a0f614762565b905081356001600160401b0380821115614a2857600080fd5b614a34858386016147d0565b83526020840135915080821115614a4a57600080fd5b50614a57848285016147d0565b60208301525092915050565b60006101008284031215614a7657600080fd5b614a7e6147ad565b905081356001600160401b0380821115614a9757600080fd5b614aa3858386016147d0565b83526020840135915080821115614ab957600080fd5b614ac5858386016147d0565b60208401526040840135915080821115614ade57600080fd5b614aea858386016147d0565b60408401526060840135915080821115614b0357600080fd5b614b0f8583860161485c565b60608401526080840135915080821115614b2857600080fd5b614b34858386016148c7565b608084015260a0840135915080821115614b4d57600080fd5b614b59858386016149f5565b60a084015260c0840135915080821115614b7257600080fd5b614b7e858386016147d0565b60c084015260e0840135915080821115614b9757600080fd5b50614ba4848285016147d0565b60e08301525092915050565b60008060408385031215614bc357600080fd5b82356001600160401b0380821115614bda57600080fd5b614be686838701614a63565b93506020850135915080821115614bfc57600080fd5b50614c0985828601614a63565b9150509250929050565b60008060408385031215614c2657600080fd5b823591506020830135614c38816146a1565b809150509250929050565b600060208284031215614c5557600080fd5b8135610afd816146a1565b60008060408385031215614c7357600080fd5b8235614c7e816146a1565b915060208301356001600160401b03811115614c9957600080fd5b614c09858286016147d0565b634e487b7160e01b600052602160045260246000fd5b6040810160068410614cdd57634e487b7160e01b600052602160045260246000fd5b9281526020015290565b60008060408385031215614cfa57600080fd5b82356001600160401b0380821115614d1157600080fd5b614d1d86838701614a63565b93506020850135915080821115614d3357600080fd5b50614c09858286016147d0565b6001600160a01b0391909116815260200190565b600060208284031215614d6657600080fd5b81356001600160401b03811115614d7c57600080fd5b614d8884828501614a63565b949350505050565b60008060008060008060008060006101208a8c031215614daf57600080fd5b8935985060208a0135975060408a0135965060608a0135955060808a0135945060a08a0135935060c08a0135925060e08a013591506101008a0135614df3816146a1565b809150509295985092959850929598565b60008060408385031215614e1757600080fd5b50508035926020909101359150565b600080600060608486031215614e3b57600080fd5b83356001600160401b0380821115614e5257600080fd5b614e5e878388016147d0565b94506020860135915080821115614e7457600080fd5b614e80878388016147d0565b93506040860135915080821115614e9657600080fd5b50614ea3868287016147d0565b9150509250925092565b600080600060608486031215614ec257600080fd5b8335614ecd816146a1565b92506020840135915060408401356001600160401b03811115614eef57600080fd5b614ea3868287016147d0565b60008060408385031215614f0e57600080fd5b8235614f19816146a1565b91506020830135614c38816146a1565b600181811c90821680614f3d57607f821691505b60208210811415614f5e57634e487b7160e01b600052602260045260246000fd5b50919050565b6000815160408452614f796040850182614662565b6020938401516001600160a01b0316949093019390935250919050565b60006101608251818552614fac82860182614662565b9150506020830151614fc960208601826001600160a01b03169052565b5060408301518482036040860152614fe18282614662565b91505060608301518482036060860152614ffb8282614662565b915050608083015184820360808601526150158282614662565b91505060a083015184820360a086015261502f8282614662565b91505060c083015161504660c086018260ff169052565b5060e08381015190850152610100808401519085015261012080840151908501526101409283015192909301919091525090565b600081516040845261508f6040850182614662565b90506020830151848203602086015261445b8282614662565b82815260406020820152600082516101008060408501526150cd610140850183614662565b91506020850151603f19808685030160608701526150eb8483614662565b935060408701519150808685030160808701526151088483614662565b935060608701519150808685030160a08701526151258483614f64565b935060808701519150808685030160c08701526151428483614f96565b935060a08701519150808685030160e087015261515f848361507a565b935060c0870151915080868503018387015261517b8483614662565b935060e087015192508086850301610120870152505061519b8282614662565b9695505050505050565b634e487b7160e01b600052601160045260246000fd5b600181815b808511156151f65781600019048211156151dc576151dc6151a5565b808516156151e957918102915b93841c93908002906151c0565b509250929050565b60008261520d57506001610a1a565b8161521a57506000610a1a565b8160018114615230576002811461523a57615256565b6001915050610a1a565b60ff84111561524b5761524b6151a5565b50506001821b610a1a565b5060208310610133831016604e8410600b8410161715615279575081810a610a1a565b61528383836151bb565b8060001904821115615297576152976151a5565b029392505050565b6000610afd60ff8416836151fe565b60008160001904831182151516156152c8576152c86151a5565b500290565b6020808252602c908201527f46756e6374696f6e206d7573742062652063616c6c6564207468726f7567682060408201526b19195b1959d85d1958d85b1b60a21b606082015260800190565b6020808252602c908201527f46756e6374696f6e206d7573742062652063616c6c6564207468726f7567682060408201526b6163746976652070726f787960a01b606082015260800190565b60008219821115615378576153786151a5565b500190565b60208082526036908201527f4b5242546f6b656e3a2073656e646572206d757374206265207468652063726560408201527564656e7469616c5375626a656374206164647265737360501b606082015260800190565b6020808252601d908201527f4b5242546f6b656e3a207374617465206973206e6f7420497373756564000000604082015260600190565b828152604060208201526000614d886040830184614662565b6020808252602b908201527f4b5242546f6b656e3a2073656e646572206d757374206265207468652069737360408201526a756572206164647265737360a81b606082015260800190565b60006020828403121561548057600080fd5b5051919050565b6020808252602b908201527f496e697469616c697a61626c653a20636f6e7472616374206973206e6f74206960408201526a6e697469616c697a696e6760a81b606082015260800190565b6000828210156154e4576154e46151a5565b500390565b60008261550657634e487b7160e01b600052601260045260246000fd5b500490565b76020b1b1b2b9b9a1b7b73a3937b61d1030b1b1b7bab73a1604d1b81526000835161553d816017850160208801614636565b7001034b99036b4b9b9b4b733903937b6329607d1b601791840191820152835161556e816028840160208801614636565b01602801949350505050565b634e487b7160e01b600052603260045260246000fd5b60008161559f5761559f6151a5565b506000190190565b634e487b7160e01b600052603160045260246000fd5b600082516155cf818460208701614636565b919091019291505056fe608060405234801561001057600080fd5b506106df806100206000396000f3fe6080604052600436106100605760003560e01c806351cff8d914610065578063715018a6146100875780638129fc1c1461009c5780638da5cb5b146100b1578063e3a9db1a146100de578063f2fde38b14610122578063f340fa0114610142575b600080fd5b34801561007157600080fd5b50610085610080366004610614565b610155565b005b34801561009357600080fd5b506100856101cc565b3480156100a857600080fd5b506100856101e0565b3480156100bd57600080fd5b506033546040516001600160a01b0390911681526020015b60405180910390f35b3480156100ea57600080fd5b506101146100f9366004610614565b6001600160a01b031660009081526065602052604090205490565b6040519081526020016100d5565b34801561012e57600080fd5b5061008561013d366004610614565b6102f6565b610085610150366004610614565b61036c565b61015d6103de565b6001600160a01b03811660008181526065602052604081208054919055906101859082610438565b816001600160a01b03167f7084f5476618d8e60b11ef0d7d3f06914655adb8793e28ff7f018d4c76d505d5826040516101c091815260200190565b60405180910390a25050565b6101d46103de565b6101de6000610553565b565b600054610100900460ff16158080156102005750600054600160ff909116105b8061021a5750303b15801561021a575060005460ff166001145b6102825760405162461bcd60e51b815260206004820152602e60248201527f496e697469616c697a61626c653a20636f6e747261637420697320616c72656160448201526d191e481a5b9a5d1a585b1a5e995960921b60648201526084015b60405180910390fd5b6000805460ff1916600117905580156102a5576000805461ff0019166101001790555b6102ad6105a5565b80156102f3576000805461ff0019169055604051600181527f7f26b83ff96e1f2b6a682f133852f6798a09c465da95921460cefb38474024989060200160405180910390a15b50565b6102fe6103de565b6001600160a01b0381166103635760405162461bcd60e51b815260206004820152602660248201527f4f776e61626c653a206e6577206f776e657220697320746865207a65726f206160448201526564647265737360d01b6064820152608401610279565b6102f381610553565b6103746103de565b6001600160a01b03811660009081526065602052604081208054349283929161039e908490610638565b90915550506040518181526001600160a01b038316907f2da466a7b24304f47e87fa2e1e5a81b9831ce54fec19055ce277ca2f39ba42c4906020016101c0565b6033546001600160a01b031633146101de5760405162461bcd60e51b815260206004820181905260248201527f4f776e61626c653a2063616c6c6572206973206e6f7420746865206f776e65726044820152606401610279565b804710156104885760405162461bcd60e51b815260206004820152601d60248201527f416464726573733a20696e73756666696369656e742062616c616e63650000006044820152606401610279565b6000826001600160a01b03168260405160006040518083038185875af1925050503d80600081146104d5576040519150601f19603f3d011682016040523d82523d6000602084013e6104da565b606091505b505090508061054e5760405162461bcd60e51b815260206004820152603a60248201527f416464726573733a20756e61626c6520746f2073656e642076616c75652c20726044820152791958da5c1a595b9d081b585e481a185d99481c995d995c9d195960321b6064820152608401610279565b505050565b603380546001600160a01b038381166001600160a01b0319831681179093556040519116919082907f8be0079c531659141344cd1fd0a4f28419497f9722a3daafe3b4186f6b6457e090600090a35050565b600054610100900460ff166105cc5760405162461bcd60e51b81526004016102799061065e565b6101de600054610100900460ff166105f65760405162461bcd60e51b81526004016102799061065e565b6101de33610553565b6001600160a01b03811681146102f357600080fd5b60006020828403121561062657600080fd5b8135610631816105ff565b9392505050565b6000821982111561065957634e487b7160e01b600052601160045260246000fd5b500190565b6020808252602b908201527f496e697469616c697a61626c653a20636f6e7472616374206973206e6f74206960408201526a6e697469616c697a696e6760a81b60608201526080019056fea26469706673582212202c8271a2cea9abdeb9f1af907d388d181a93436d618e97c9dd7d87f028602e6b64736f6c634300080c0033899bd46557473cb80307a9dabc297131ced39608330a2d29b2d52b660c03923e360894a13ba1a3210667c828492db98dca3e2076cc3735a920a3ca505d382bbc416464726573733a206c6f772d6c6576656c2064656c65676174652063616c6c206661696c6564ddf252ad1be2c89b69c2b068fc378daa952ba7f163c4a11628f55a4df523b3efa2646970667358221220728dba34486ffd1532954841c9ce808718f1ba8c86a5ad07c8234d95c2b4b74364736f6c634300080c0033",
  "linkReferences": {},
  "deployedLinkReferences": {}
}