{
  "_format": "hh-sol-artifact-1",
  "contractName": "KRBTokenV01",
  "sourceName": "contracts/KRBTokenV01.sol",
  "abi": [
    {
      "inputs": [],
      "stateMutability": "nonpayable",
      "type": "constructor"
    },
    {
      "anonymous": false,
      "inputs": [
        {
          "indexed": false,
          "internalType": "address",
          "name": "previousAdmin",
          "type": "address"
        },
        {
          "indexed": false,
          "internalType": "address",
          "name": "newAdmin",
          "type": "address"
        }
      ],
      "name": "AdminChanged",
      "type": "event"
    },
    {
      "anonymous": false,
      "inputs": [
        {
          "indexed": true,
          "internalType": "address",
          "name": "owner",
          "type": "address"
        },
        {
          "indexed": true,
          "internalType": "address",
          "name": "spender",
          "type": "address"
        },
        {
          "indexed": false,
          "internalType": "uint256",
          "name": "value",
          "type": "uint256"
        }
      ],
      "name": "Approval",
      "type": "event"
    },
    {
      "anonymous": false,
      "inputs": [
        {
          "indexed": true,
          "internalType": "address",
          "name": "beacon",
          "type": "address"
        }
      ],
      "name": "BeaconUpgraded",
      "type": "event"
    },
    {
      "anonymous": false,
      "inputs": [
        {
          "indexed": false,
          "internalType": "bytes32",
          "name": "uuid",
          "type": "bytes32"
        },
        {
          "indexed": false,
          "internalType": "string",
          "name": "reason",
          "type": "string"
        }
      ],
      "name": "Deleted",
      "type": "event"
    },
    {
      "anonymous": false,
      "inputs": [
        {
          "indexed": false,
          "internalType": "bytes32",
          "name": "uuid",
          "type": "bytes32"
        },
        {
          "indexed": false,
          "internalType": "bytes32",
          "name": "disputedBy",
          "type": "bytes32"
        }
      ],
      "name": "Disputed",
      "type": "event"
    },
    {
      "anonymous": false,
      "inputs": [
        {
          "indexed": false,
          "internalType": "bytes32",
          "name": "uuid",
          "type": "bytes32"
        }
      ],
      "name": "Expired",
      "type": "event"
    },
    {
      "anonymous": false,
      "inputs": [
        {
          "indexed": false,
          "internalType": "bytes32",
          "name": "uuid",
          "type": "bytes32"
        },
        {
          "components": [
            {
              "internalType": "string",
              "name": "_context",
              "type": "string"
            },
            {
              "internalType": "string",
              "name": "_type",
              "type": "string"
            },
            {
              "internalType": "string",
              "name": "id",
              "type": "string"
            },
            {
              "components": [
                {
                  "internalType": "string",
                  "name": "id",
                  "type": "string"
                },
                {
                  "internalType": "address",
                  "name": "ethereumAddress",
                  "type": "address"
                }
              ],
              "internalType": "struct VCTypesV01.Issuer",
              "name": "issuer",
              "type": "tuple"
            },
            {
              "components": [
                {
                  "internalType": "string",
                  "name": "id",
                  "type": "string"
                },
                {
                  "internalType": "address",
                  "name": "ethereumAddress",
                  "type": "address"
                },
                {
                  "internalType": "string",
                  "name": "_type",
                  "type": "string"
                },
                {
                  "internalType": "string",
                  "name": "typeSchema",
                  "type": "string"
                },
                {
                  "internalType": "string",
                  "name": "value",
                  "type": "string"
                },
                {
                  "internalType": "string",
                  "name": "encrypted",
                  "type": "string"
                },
                {
                  "internalType": "uint8",
                  "name": "trust",
                  "type": "uint8"
                },
                {
                  "internalType": "uint256",
                  "name": "stake",
                  "type": "uint256"
                },
                {
                  "internalType": "uint256",
                  "name": "nbf",
                  "type": "uint256"
                },
                {
                  "internalType": "uint256",
                  "name": "exp",
                  "type": "uint256"
                }
              ],
              "internalType": "struct VCTypesV01.CredentialSubject",
              "name": "credentialSubject",
              "type": "tuple"
            },
            {
              "components": [
                {
                  "internalType": "string",
                  "name": "id",
                  "type": "string"
                },
                {
                  "internalType": "string",
                  "name": "_type",
                  "type": "string"
                }
              ],
              "internalType": "struct VCTypesV01.CredentialSchema",
              "name": "credentialSchema",
              "type": "tuple"
            },
            {
              "internalType": "string",
              "name": "issuanceDate",
              "type": "string"
            },
            {
              "internalType": "string",
              "name": "expirationDate",
              "type": "string"
            }
          ],
          "indexed": false,
          "internalType": "struct VCTypesV01.VerifiableCredential",
          "name": "vc",
          "type": "tuple"
        }
      ],
      "name": "Issued",
      "type": "event"
    },
    {
      "anonymous": false,
      "inputs": [
        {
          "indexed": false,
          "internalType": "address",
          "name": "account",
          "type": "address"
        }
      ],
      "name": "Paused",
      "type": "event"
    },
    {
      "anonymous": false,
      "inputs": [
        {
          "indexed": false,
          "internalType": "bytes32",
          "name": "uuid",
          "type": "bytes32"
        },
        {
          "indexed": false,
          "internalType": "string",
          "name": "reason",
          "type": "string"
        }
      ],
      "name": "Revoked",
      "type": "event"
    },
    {
      "anonymous": false,
      "inputs": [
        {
          "indexed": true,
          "internalType": "bytes32",
          "name": "role",
          "type": "bytes32"
        },
        {
          "indexed": true,
          "internalType": "bytes32",
          "name": "previousAdminRole",
          "type": "bytes32"
        },
        {
          "indexed": true,
          "internalType": "bytes32",
          "name": "newAdminRole",
          "type": "bytes32"
        }
      ],
      "name": "RoleAdminChanged",
      "type": "event"
    },
    {
      "anonymous": false,
      "inputs": [
        {
          "indexed": true,
          "internalType": "bytes32",
          "name": "role",
          "type": "bytes32"
        },
        {
          "indexed": true,
          "internalType": "address",
          "name": "account",
          "type": "address"
        },
        {
          "indexed": true,
          "internalType": "address",
          "name": "sender",
          "type": "address"
        }
      ],
      "name": "RoleGranted",
      "type": "event"
    },
    {
      "anonymous": false,
      "inputs": [
        {
          "indexed": true,
          "internalType": "bytes32",
          "name": "role",
          "type": "bytes32"
        },
        {
          "indexed": true,
          "internalType": "address",
          "name": "account",
          "type": "address"
        },
        {
          "indexed": true,
          "internalType": "address",
          "name": "sender",
          "type": "address"
        }
      ],
      "name": "RoleRevoked",
      "type": "event"
    },
    {
      "anonymous": false,
      "inputs": [
        {
          "indexed": false,
          "internalType": "bytes32",
          "name": "uuid",
          "type": "bytes32"
        },
        {
          "indexed": false,
          "internalType": "string",
          "name": "reason",
          "type": "string"
        }
      ],
      "name": "Suspended",
      "type": "event"
    },
    {
      "anonymous": false,
      "inputs": [
        {
          "indexed": true,
          "internalType": "address",
          "name": "from",
          "type": "address"
        },
        {
          "indexed": true,
          "internalType": "address",
          "name": "to",
          "type": "address"
        },
        {
          "indexed": false,
          "internalType": "uint256",
          "name": "value",
          "type": "uint256"
        }
      ],
      "name": "Transfer",
      "type": "event"
    },
    {
      "anonymous": false,
      "inputs": [
        {
          "indexed": false,
          "internalType": "address",
          "name": "account",
          "type": "address"
        }
      ],
      "name": "Unpaused",
      "type": "event"
    },
    {
      "anonymous": false,
      "inputs": [
        {
          "indexed": false,
          "internalType": "string",
          "name": "change",
          "type": "string"
        }
      ],
      "name": "Updated",
      "type": "event"
    },
    {
      "anonymous": false,
      "inputs": [
        {
          "indexed": true,
          "internalType": "address",
          "name": "implementation",
          "type": "address"
        }
      ],
      "name": "Upgraded",
      "type": "event"
    },
    {
      "inputs": [],
      "name": "DEFAULT_ADMIN_ROLE",
      "outputs": [
        {
          "internalType": "bytes32",
          "name": "",
          "type": "bytes32"
        }
      ],
      "stateMutability": "view",
      "type": "function"
    },
    {
      "inputs": [],
      "name": "DOMAIN_SEPARATOR",
      "outputs": [
        {
          "internalType": "bytes32",
          "name": "",
          "type": "bytes32"
        }
      ],
      "stateMutability": "view",
      "type": "function"
    },
    {
      "inputs": [],
      "name": "GOVERN_ROLE",
      "outputs": [
        {
          "internalType": "bytes32",
          "name": "",
          "type": "bytes32"
        }
      ],
      "stateMutability": "view",
      "type": "function"
    },
    {
      "inputs": [
        {
          "internalType": "address",
          "name": "owner",
          "type": "address"
        },
        {
          "internalType": "address",
          "name": "spender",
          "type": "address"
        }
      ],
      "name": "allowance",
      "outputs": [
        {
          "internalType": "uint256",
          "name": "",
          "type": "uint256"
        }
      ],
      "stateMutability": "view",
      "type": "function"
    },
    {
      "inputs": [
        {
          "internalType": "address",
          "name": "spender",
          "type": "address"
        },
        {
          "internalType": "uint256",
          "name": "amount",
          "type": "uint256"
        }
      ],
      "name": "approve",
      "outputs": [
        {
          "internalType": "bool",
          "name": "",
          "type": "bool"
        }
      ],
      "stateMutability": "nonpayable",
      "type": "function"
    },
    {
      "inputs": [
        {
          "internalType": "address",
          "name": "account",
          "type": "address"
        }
      ],
      "name": "balanceOf",
      "outputs": [
        {
          "internalType": "uint256",
          "name": "",
          "type": "uint256"
        }
      ],
      "stateMutability": "view",
      "type": "function"
    },
    {
      "inputs": [
        {
          "internalType": "uint256",
          "name": "amount",
          "type": "uint256"
        }
      ],
      "name": "burn",
      "outputs": [],
      "stateMutability": "nonpayable",
      "type": "function"
    },
    {
      "inputs": [
        {
          "internalType": "address",
          "name": "account",
          "type": "address"
        },
        {
          "internalType": "uint256",
          "name": "amount",
          "type": "uint256"
        }
      ],
      "name": "burnFrom",
      "outputs": [],
      "stateMutability": "nonpayable",
      "type": "function"
    },
    {
      "inputs": [],
      "name": "decimals",
      "outputs": [
        {
          "internalType": "uint8",
          "name": "",
          "type": "uint8"
        }
      ],
      "stateMutability": "view",
      "type": "function"
    },
    {
      "inputs": [
        {
          "internalType": "address",
          "name": "spender",
          "type": "address"
        },
        {
          "internalType": "uint256",
          "name": "subtractedValue",
          "type": "uint256"
        }
      ],
      "name": "decreaseAllowance",
      "outputs": [
        {
          "internalType": "bool",
          "name": "",
          "type": "bool"
        }
      ],
      "stateMutability": "nonpayable",
      "type": "function"
    },
    {
      "inputs": [
        {
          "components": [
            {
              "internalType": "string",
              "name": "_context",
              "type": "string"
            },
            {
              "internalType": "string",
              "name": "_type",
              "type": "string"
            },
            {
              "internalType": "string",
              "name": "id",
              "type": "string"
            },
            {
              "components": [
                {
                  "internalType": "string",
                  "name": "id",
                  "type": "string"
                },
                {
                  "internalType": "address",
                  "name": "ethereumAddress",
                  "type": "address"
                }
              ],
              "internalType": "struct VCTypesV01.Issuer",
              "name": "issuer",
              "type": "tuple"
            },
            {
              "components": [
                {
                  "internalType": "string",
                  "name": "id",
                  "type": "string"
                },
                {
                  "internalType": "address",
                  "name": "ethereumAddress",
                  "type": "address"
                },
                {
                  "internalType": "string",
                  "name": "_type",
                  "type": "string"
                },
                {
                  "internalType": "string",
                  "name": "typeSchema",
                  "type": "string"
                },
                {
                  "internalType": "string",
                  "name": "value",
                  "type": "string"
                },
                {
                  "internalType": "string",
                  "name": "encrypted",
                  "type": "string"
                },
                {
                  "internalType": "uint8",
                  "name": "trust",
                  "type": "uint8"
                },
                {
                  "internalType": "uint256",
                  "name": "stake",
                  "type": "uint256"
                },
                {
                  "internalType": "uint256",
                  "name": "nbf",
                  "type": "uint256"
                },
                {
                  "internalType": "uint256",
                  "name": "exp",
                  "type": "uint256"
                }
              ],
              "internalType": "struct VCTypesV01.CredentialSubject",
              "name": "credentialSubject",
              "type": "tuple"
            },
            {
              "components": [
                {
                  "internalType": "string",
                  "name": "id",
                  "type": "string"
                },
                {
                  "internalType": "string",
                  "name": "_type",
                  "type": "string"
                }
              ],
              "internalType": "struct VCTypesV01.CredentialSchema",
              "name": "credentialSchema",
              "type": "tuple"
            },
            {
              "internalType": "string",
              "name": "issuanceDate",
              "type": "string"
            },
            {
              "internalType": "string",
              "name": "expirationDate",
              "type": "string"
            }
          ],
          "internalType": "struct VCTypesV01.VerifiableCredential",
          "name": "vc",
          "type": "tuple"
        },
        {
          "internalType": "string",
          "name": "reason",
          "type": "string"
        }
      ],
      "name": "deleteVC",
      "outputs": [
        {
          "internalType": "bool",
          "name": "",
          "type": "bool"
        }
      ],
      "stateMutability": "nonpayable",
      "type": "function"
    },
    {
      "inputs": [
        {
          "components": [
            {
              "internalType": "string",
              "name": "_context",
              "type": "string"
            },
            {
              "internalType": "string",
              "name": "_type",
              "type": "string"
            },
            {
              "internalType": "string",
              "name": "id",
              "type": "string"
            },
            {
              "components": [
                {
                  "internalType": "string",
                  "name": "id",
                  "type": "string"
                },
                {
                  "internalType": "address",
                  "name": "ethereumAddress",
                  "type": "address"
                }
              ],
              "internalType": "struct VCTypesV01.Issuer",
              "name": "issuer",
              "type": "tuple"
            },
            {
              "components": [
                {
                  "internalType": "string",
                  "name": "id",
                  "type": "string"
                },
                {
                  "internalType": "address",
                  "name": "ethereumAddress",
                  "type": "address"
                },
                {
                  "internalType": "string",
                  "name": "_type",
                  "type": "string"
                },
                {
                  "internalType": "string",
                  "name": "typeSchema",
                  "type": "string"
                },
                {
                  "internalType": "string",
                  "name": "value",
                  "type": "string"
                },
                {
                  "internalType": "string",
                  "name": "encrypted",
                  "type": "string"
                },
                {
                  "internalType": "uint8",
                  "name": "trust",
                  "type": "uint8"
                },
                {
                  "internalType": "uint256",
                  "name": "stake",
                  "type": "uint256"
                },
                {
                  "internalType": "uint256",
                  "name": "nbf",
                  "type": "uint256"
                },
                {
                  "internalType": "uint256",
                  "name": "exp",
                  "type": "uint256"
                }
              ],
              "internalType": "struct VCTypesV01.CredentialSubject",
              "name": "credentialSubject",
              "type": "tuple"
            },
            {
              "components": [
                {
                  "internalType": "string",
                  "name": "id",
                  "type": "string"
                },
                {
                  "internalType": "string",
                  "name": "_type",
                  "type": "string"
                }
              ],
              "internalType": "struct VCTypesV01.CredentialSchema",
              "name": "credentialSchema",
              "type": "tuple"
            },
            {
              "internalType": "string",
              "name": "issuanceDate",
              "type": "string"
            },
            {
              "internalType": "string",
              "name": "expirationDate",
              "type": "string"
            }
          ],
          "internalType": "struct VCTypesV01.VerifiableCredential",
          "name": "vc",
          "type": "tuple"
        },
        {
          "components": [
            {
              "internalType": "string",
              "name": "_context",
              "type": "string"
            },
            {
              "internalType": "string",
              "name": "_type",
              "type": "string"
            },
            {
              "internalType": "string",
              "name": "id",
              "type": "string"
            },
            {
              "components": [
                {
                  "internalType": "string",
                  "name": "id",
                  "type": "string"
                },
                {
                  "internalType": "address",
                  "name": "ethereumAddress",
                  "type": "address"
                }
              ],
              "internalType": "struct VCTypesV01.Issuer",
              "name": "issuer",
              "type": "tuple"
            },
            {
              "components": [
                {
                  "internalType": "string",
                  "name": "id",
                  "type": "string"
                },
                {
                  "internalType": "address",
                  "name": "ethereumAddress",
                  "type": "address"
                },
                {
                  "internalType": "string",
                  "name": "_type",
                  "type": "string"
                },
                {
                  "internalType": "string",
                  "name": "typeSchema",
                  "type": "string"
                },
                {
                  "internalType": "string",
                  "name": "value",
                  "type": "string"
                },
                {
                  "internalType": "string",
                  "name": "encrypted",
                  "type": "string"
                },
                {
                  "internalType": "uint8",
                  "name": "trust",
                  "type": "uint8"
                },
                {
                  "internalType": "uint256",
                  "name": "stake",
                  "type": "uint256"
                },
                {
                  "internalType": "uint256",
                  "name": "nbf",
                  "type": "uint256"
                },
                {
                  "internalType": "uint256",
                  "name": "exp",
                  "type": "uint256"
                }
              ],
              "internalType": "struct VCTypesV01.CredentialSubject",
              "name": "credentialSubject",
              "type": "tuple"
            },
            {
              "components": [
                {
                  "internalType": "string",
                  "name": "id",
                  "type": "string"
                },
                {
                  "internalType": "string",
                  "name": "_type",
                  "type": "string"
                }
              ],
              "internalType": "struct VCTypesV01.CredentialSchema",
              "name": "credentialSchema",
              "type": "tuple"
            },
            {
              "internalType": "string",
              "name": "issuanceDate",
              "type": "string"
            },
            {
              "internalType": "string",
              "name": "expirationDate",
              "type": "string"
            }
          ],
          "internalType": "struct VCTypesV01.VerifiableCredential",
          "name": "disputeVC",
          "type": "tuple"
        }
      ],
      "name": "disputeVCByGovern",
      "outputs": [
        {
          "internalType": "bool",
          "name": "",
          "type": "bool"
        }
      ],
      "stateMutability": "nonpayable",
      "type": "function"
    },
    {
      "inputs": [
        {
          "components": [
            {
              "internalType": "string",
              "name": "_context",
              "type": "string"
            },
            {
              "internalType": "string",
              "name": "_type",
              "type": "string"
            },
            {
              "internalType": "string",
              "name": "id",
              "type": "string"
            },
            {
              "components": [
                {
                  "internalType": "string",
                  "name": "id",
                  "type": "string"
                },
                {
                  "internalType": "address",
                  "name": "ethereumAddress",
                  "type": "address"
                }
              ],
              "internalType": "struct VCTypesV01.Issuer",
              "name": "issuer",
              "type": "tuple"
            },
            {
              "components": [
                {
                  "internalType": "string",
                  "name": "id",
                  "type": "string"
                },
                {
                  "internalType": "address",
                  "name": "ethereumAddress",
                  "type": "address"
                },
                {
                  "internalType": "string",
                  "name": "_type",
                  "type": "string"
                },
                {
                  "internalType": "string",
                  "name": "typeSchema",
                  "type": "string"
                },
                {
                  "internalType": "string",
                  "name": "value",
                  "type": "string"
                },
                {
                  "internalType": "string",
                  "name": "encrypted",
                  "type": "string"
                },
                {
                  "internalType": "uint8",
                  "name": "trust",
                  "type": "uint8"
                },
                {
                  "internalType": "uint256",
                  "name": "stake",
                  "type": "uint256"
                },
                {
                  "internalType": "uint256",
                  "name": "nbf",
                  "type": "uint256"
                },
                {
                  "internalType": "uint256",
                  "name": "exp",
                  "type": "uint256"
                }
              ],
              "internalType": "struct VCTypesV01.CredentialSubject",
              "name": "credentialSubject",
              "type": "tuple"
            },
            {
              "components": [
                {
                  "internalType": "string",
                  "name": "id",
                  "type": "string"
                },
                {
                  "internalType": "string",
                  "name": "_type",
                  "type": "string"
                }
              ],
              "internalType": "struct VCTypesV01.CredentialSchema",
              "name": "credentialSchema",
              "type": "tuple"
            },
            {
              "internalType": "string",
              "name": "issuanceDate",
              "type": "string"
            },
            {
              "internalType": "string",
              "name": "expirationDate",
              "type": "string"
            }
          ],
          "internalType": "struct VCTypesV01.VerifiableCredential",
          "name": "vc",
          "type": "tuple"
        }
      ],
      "name": "expiredVC",
      "outputs": [
        {
          "internalType": "bool",
          "name": "",
          "type": "bool"
        }
      ],
      "stateMutability": "nonpayable",
      "type": "function"
    },
    {
      "inputs": [
        {
          "internalType": "bytes32",
          "name": "role",
          "type": "bytes32"
        }
      ],
      "name": "getRoleAdmin",
      "outputs": [
        {
          "internalType": "bytes32",
          "name": "",
          "type": "bytes32"
        }
      ],
      "stateMutability": "view",
      "type": "function"
    },
    {
      "inputs": [
        {
          "internalType": "bytes32",
          "name": "role",
          "type": "bytes32"
        },
        {
          "internalType": "uint256",
          "name": "index",
          "type": "uint256"
        }
      ],
      "name": "getRoleMember",
      "outputs": [
        {
          "internalType": "address",
          "name": "",
          "type": "address"
        }
      ],
      "stateMutability": "view",
      "type": "function"
    },
    {
      "inputs": [
        {
          "internalType": "bytes32",
          "name": "role",
          "type": "bytes32"
        }
      ],
      "name": "getRoleMemberCount",
      "outputs": [
        {
          "internalType": "uint256",
          "name": "",
          "type": "uint256"
        }
      ],
      "stateMutability": "view",
      "type": "function"
    },
    {
      "inputs": [
        {
          "components": [
            {
              "internalType": "string",
              "name": "_context",
              "type": "string"
            },
            {
              "internalType": "string",
              "name": "_type",
              "type": "string"
            },
            {
              "internalType": "string",
              "name": "id",
              "type": "string"
            },
            {
              "components": [
                {
                  "internalType": "string",
                  "name": "id",
                  "type": "string"
                },
                {
                  "internalType": "address",
                  "name": "ethereumAddress",
                  "type": "address"
                }
              ],
              "internalType": "struct VCTypesV01.Issuer",
              "name": "issuer",
              "type": "tuple"
            },
            {
              "components": [
                {
                  "internalType": "string",
                  "name": "id",
                  "type": "string"
                },
                {
                  "internalType": "address",
                  "name": "ethereumAddress",
                  "type": "address"
                },
                {
                  "internalType": "string",
                  "name": "_type",
                  "type": "string"
                },
                {
                  "internalType": "string",
                  "name": "typeSchema",
                  "type": "string"
                },
                {
                  "internalType": "string",
                  "name": "value",
                  "type": "string"
                },
                {
                  "internalType": "string",
                  "name": "encrypted",
                  "type": "string"
                },
                {
                  "internalType": "uint8",
                  "name": "trust",
                  "type": "uint8"
                },
                {
                  "internalType": "uint256",
                  "name": "stake",
                  "type": "uint256"
                },
                {
                  "internalType": "uint256",
                  "name": "nbf",
                  "type": "uint256"
                },
                {
                  "internalType": "uint256",
                  "name": "exp",
                  "type": "uint256"
                }
              ],
              "internalType": "struct VCTypesV01.CredentialSubject",
              "name": "credentialSubject",
              "type": "tuple"
            },
            {
              "components": [
                {
                  "internalType": "string",
                  "name": "id",
                  "type": "string"
                },
                {
                  "internalType": "string",
                  "name": "_type",
                  "type": "string"
                }
              ],
              "internalType": "struct VCTypesV01.CredentialSchema",
              "name": "credentialSchema",
              "type": "tuple"
            },
            {
              "internalType": "string",
              "name": "issuanceDate",
              "type": "string"
            },
            {
              "internalType": "string",
              "name": "expirationDate",
              "type": "string"
            }
          ],
          "internalType": "struct VCTypesV01.VerifiableCredential",
          "name": "vc",
          "type": "tuple"
        }
      ],
      "name": "getUuid",
      "outputs": [
        {
          "internalType": "bytes32",
          "name": "",
          "type": "bytes32"
        }
      ],
      "stateMutability": "pure",
      "type": "function"
    },
    {
      "inputs": [
        {
          "components": [
            {
              "internalType": "string",
              "name": "_context",
              "type": "string"
            },
            {
              "internalType": "string",
              "name": "_type",
              "type": "string"
            },
            {
              "internalType": "string",
              "name": "id",
              "type": "string"
            },
            {
              "components": [
                {
                  "internalType": "string",
                  "name": "id",
                  "type": "string"
                },
                {
                  "internalType": "address",
                  "name": "ethereumAddress",
                  "type": "address"
                }
              ],
              "internalType": "struct VCTypesV01.Issuer",
              "name": "issuer",
              "type": "tuple"
            },
            {
              "components": [
                {
                  "internalType": "string",
                  "name": "id",
                  "type": "string"
                },
                {
                  "internalType": "address",
                  "name": "ethereumAddress",
                  "type": "address"
                },
                {
                  "internalType": "string",
                  "name": "_type",
                  "type": "string"
                },
                {
                  "internalType": "string",
                  "name": "typeSchema",
                  "type": "string"
                },
                {
                  "internalType": "string",
                  "name": "value",
                  "type": "string"
                },
                {
                  "internalType": "string",
                  "name": "encrypted",
                  "type": "string"
                },
                {
                  "internalType": "uint8",
                  "name": "trust",
                  "type": "uint8"
                },
                {
                  "internalType": "uint256",
                  "name": "stake",
                  "type": "uint256"
                },
                {
                  "internalType": "uint256",
                  "name": "nbf",
                  "type": "uint256"
                },
                {
                  "internalType": "uint256",
                  "name": "exp",
                  "type": "uint256"
                }
              ],
              "internalType": "struct VCTypesV01.CredentialSubject",
              "name": "credentialSubject",
              "type": "tuple"
            },
            {
              "components": [
                {
                  "internalType": "string",
                  "name": "id",
                  "type": "string"
                },
                {
                  "internalType": "string",
                  "name": "_type",
                  "type": "string"
                }
              ],
              "internalType": "struct VCTypesV01.CredentialSchema",
              "name": "credentialSchema",
              "type": "tuple"
            },
            {
              "internalType": "string",
              "name": "issuanceDate",
              "type": "string"
            },
            {
              "internalType": "string",
              "name": "expirationDate",
              "type": "string"
            }
          ],
          "internalType": "struct VCTypesV01.VerifiableCredential",
          "name": "vc",
          "type": "tuple"
        }
      ],
      "name": "getVCStatus",
      "outputs": [
        {
          "internalType": "string",
          "name": "",
          "type": "string"
        }
      ],
      "stateMutability": "view",
      "type": "function"
    },
    {
      "inputs": [
        {
          "internalType": "bytes32",
          "name": "uuid",
          "type": "bytes32"
        }
      ],
      "name": "getVCStatusByUUid",
      "outputs": [
        {
          "internalType": "string",
          "name": "",
          "type": "string"
        }
      ],
      "stateMutability": "view",
      "type": "function"
    },
    {
      "inputs": [
        {
          "internalType": "bytes32",
          "name": "role",
          "type": "bytes32"
        },
        {
          "internalType": "address",
          "name": "account",
          "type": "address"
        }
      ],
      "name": "grantRole",
      "outputs": [],
      "stateMutability": "nonpayable",
      "type": "function"
    },
    {
      "inputs": [
        {
          "internalType": "bytes32",
          "name": "role",
          "type": "bytes32"
        },
        {
          "internalType": "address",
          "name": "account",
          "type": "address"
        }
      ],
      "name": "hasRole",
      "outputs": [
        {
          "internalType": "bool",
          "name": "",
          "type": "bool"
        }
      ],
      "stateMutability": "view",
      "type": "function"
    },
    {
      "inputs": [
        {
          "internalType": "address",
          "name": "spender",
          "type": "address"
        },
        {
          "internalType": "uint256",
          "name": "addedValue",
          "type": "uint256"
        }
      ],
      "name": "increaseAllowance",
      "outputs": [
        {
          "internalType": "bool",
          "name": "",
          "type": "bool"
        }
      ],
      "stateMutability": "nonpayable",
      "type": "function"
    },
    {
      "inputs": [],
      "name": "initialize",
      "outputs": [],
      "stateMutability": "nonpayable",
      "type": "function"
    },
    {
      "inputs": [],
      "name": "maxStakeToIssue",
      "outputs": [
        {
          "internalType": "uint256",
          "name": "",
          "type": "uint256"
        }
      ],
      "stateMutability": "view",
      "type": "function"
    },
    {
      "inputs": [],
      "name": "minBalanceToIssue",
      "outputs": [
        {
          "internalType": "uint256",
          "name": "",
          "type": "uint256"
        }
      ],
      "stateMutability": "view",
      "type": "function"
    },
    {
      "inputs": [],
      "name": "minBalanceToReceive",
      "outputs": [
        {
          "internalType": "uint256",
          "name": "",
          "type": "uint256"
        }
      ],
      "stateMutability": "view",
      "type": "function"
    },
    {
      "inputs": [],
      "name": "minBalanceToTransfer",
      "outputs": [
        {
          "internalType": "uint256",
          "name": "",
          "type": "uint256"
        }
      ],
      "stateMutability": "view",
      "type": "function"
    },
    {
      "inputs": [],
      "name": "minStakeToIssue",
      "outputs": [
        {
          "internalType": "uint256",
          "name": "",
          "type": "uint256"
        }
      ],
      "stateMutability": "view",
      "type": "function"
    },
    {
      "inputs": [
        {
          "internalType": "address",
          "name": "to",
          "type": "address"
        },
        {
          "internalType": "uint256",
          "name": "amount",
          "type": "uint256"
        }
      ],
      "name": "mint",
      "outputs": [],
      "stateMutability": "nonpayable",
      "type": "function"
    },
    {
      "inputs": [],
      "name": "name",
      "outputs": [
        {
          "internalType": "string",
          "name": "",
          "type": "string"
        }
      ],
      "stateMutability": "view",
      "type": "function"
    },
    {
      "inputs": [],
      "name": "pause",
      "outputs": [],
      "stateMutability": "nonpayable",
      "type": "function"
    },
    {
      "inputs": [],
      "name": "paused",
      "outputs": [
        {
          "internalType": "bool",
          "name": "",
          "type": "bool"
        }
      ],
      "stateMutability": "view",
      "type": "function"
    },
    {
      "inputs": [
        {
          "components": [
            {
              "internalType": "string",
              "name": "_context",
              "type": "string"
            },
            {
              "internalType": "string",
              "name": "_type",
              "type": "string"
            },
            {
              "internalType": "string",
              "name": "id",
              "type": "string"
            },
            {
              "components": [
                {
                  "internalType": "string",
                  "name": "id",
                  "type": "string"
                },
                {
                  "internalType": "address",
                  "name": "ethereumAddress",
                  "type": "address"
                }
              ],
              "internalType": "struct VCTypesV01.Issuer",
              "name": "issuer",
              "type": "tuple"
            },
            {
              "components": [
                {
                  "internalType": "string",
                  "name": "id",
                  "type": "string"
                },
                {
                  "internalType": "address",
                  "name": "ethereumAddress",
                  "type": "address"
                },
                {
                  "internalType": "string",
                  "name": "_type",
                  "type": "string"
                },
                {
                  "internalType": "string",
                  "name": "typeSchema",
                  "type": "string"
                },
                {
                  "internalType": "string",
                  "name": "value",
                  "type": "string"
                },
                {
                  "internalType": "string",
                  "name": "encrypted",
                  "type": "string"
                },
                {
                  "internalType": "uint8",
                  "name": "trust",
                  "type": "uint8"
                },
                {
                  "internalType": "uint256",
                  "name": "stake",
                  "type": "uint256"
                },
                {
                  "internalType": "uint256",
                  "name": "nbf",
                  "type": "uint256"
                },
                {
                  "internalType": "uint256",
                  "name": "exp",
                  "type": "uint256"
                }
              ],
              "internalType": "struct VCTypesV01.CredentialSubject",
              "name": "credentialSubject",
              "type": "tuple"
            },
            {
              "components": [
                {
                  "internalType": "string",
                  "name": "id",
                  "type": "string"
                },
                {
                  "internalType": "string",
                  "name": "_type",
                  "type": "string"
                }
              ],
              "internalType": "struct VCTypesV01.CredentialSchema",
              "name": "credentialSchema",
              "type": "tuple"
            },
            {
              "internalType": "string",
              "name": "issuanceDate",
              "type": "string"
            },
            {
              "internalType": "string",
              "name": "expirationDate",
              "type": "string"
            }
          ],
          "internalType": "struct VCTypesV01.VerifiableCredential",
          "name": "vc",
          "type": "tuple"
        },
        {
          "internalType": "bytes",
          "name": "proofValue",
          "type": "bytes"
        }
      ],
      "name": "registerVC",
      "outputs": [
        {
          "internalType": "bool",
          "name": "",
          "type": "bool"
        }
      ],
      "stateMutability": "nonpayable",
      "type": "function"
    },
    {
      "inputs": [
        {
          "internalType": "bytes32",
          "name": "",
          "type": "bytes32"
        }
      ],
      "name": "registry",
      "outputs": [
        {
          "internalType": "enum KRBTokenV01.Status",
          "name": "credentialStatus",
          "type": "uint8"
        },
        {
          "internalType": "bytes32",
          "name": "disputedBy",
          "type": "bytes32"
        }
      ],
      "stateMutability": "view",
      "type": "function"
    },
    {
      "inputs": [
        {
          "internalType": "bytes32",
          "name": "role",
          "type": "bytes32"
        },
        {
          "internalType": "address",
          "name": "account",
          "type": "address"
        }
      ],
      "name": "renounceRole",
      "outputs": [],
      "stateMutability": "nonpayable",
      "type": "function"
    },
    {
      "inputs": [
        {
          "internalType": "bytes32",
          "name": "role",
          "type": "bytes32"
        },
        {
          "internalType": "address",
          "name": "account",
          "type": "address"
        }
      ],
      "name": "revokeRole",
      "outputs": [],
      "stateMutability": "nonpayable",
      "type": "function"
    },
    {
      "inputs": [
        {
          "components": [
            {
              "internalType": "string",
              "name": "_context",
              "type": "string"
            },
            {
              "internalType": "string",
              "name": "_type",
              "type": "string"
            },
            {
              "internalType": "string",
              "name": "id",
              "type": "string"
            },
            {
              "components": [
                {
                  "internalType": "string",
                  "name": "id",
                  "type": "string"
                },
                {
                  "internalType": "address",
                  "name": "ethereumAddress",
                  "type": "address"
                }
              ],
              "internalType": "struct VCTypesV01.Issuer",
              "name": "issuer",
              "type": "tuple"
            },
            {
              "components": [
                {
                  "internalType": "string",
                  "name": "id",
                  "type": "string"
                },
                {
                  "internalType": "address",
                  "name": "ethereumAddress",
                  "type": "address"
                },
                {
                  "internalType": "string",
                  "name": "_type",
                  "type": "string"
                },
                {
                  "internalType": "string",
                  "name": "typeSchema",
                  "type": "string"
                },
                {
                  "internalType": "string",
                  "name": "value",
                  "type": "string"
                },
                {
                  "internalType": "string",
                  "name": "encrypted",
                  "type": "string"
                },
                {
                  "internalType": "uint8",
                  "name": "trust",
                  "type": "uint8"
                },
                {
                  "internalType": "uint256",
                  "name": "stake",
                  "type": "uint256"
                },
                {
                  "internalType": "uint256",
                  "name": "nbf",
                  "type": "uint256"
                },
                {
                  "internalType": "uint256",
                  "name": "exp",
                  "type": "uint256"
                }
              ],
              "internalType": "struct VCTypesV01.CredentialSubject",
              "name": "credentialSubject",
              "type": "tuple"
            },
            {
              "components": [
                {
                  "internalType": "string",
                  "name": "id",
                  "type": "string"
                },
                {
                  "internalType": "string",
                  "name": "_type",
                  "type": "string"
                }
              ],
              "internalType": "struct VCTypesV01.CredentialSchema",
              "name": "credentialSchema",
              "type": "tuple"
            },
            {
              "internalType": "string",
              "name": "issuanceDate",
              "type": "string"
            },
            {
              "internalType": "string",
              "name": "expirationDate",
              "type": "string"
            }
          ],
          "internalType": "struct VCTypesV01.VerifiableCredential",
          "name": "vc",
          "type": "tuple"
        },
        {
          "internalType": "string",
          "name": "reason",
          "type": "string"
        }
      ],
      "name": "revokeVC",
      "outputs": [
        {
          "internalType": "bool",
          "name": "",
          "type": "bool"
        }
      ],
      "stateMutability": "nonpayable",
      "type": "function"
    },
    {
      "inputs": [
        {
          "internalType": "bytes4",
          "name": "interfaceId",
          "type": "bytes4"
        }
      ],
      "name": "supportsInterface",
      "outputs": [
        {
          "internalType": "bool",
          "name": "",
          "type": "bool"
        }
      ],
      "stateMutability": "view",
      "type": "function"
    },
    {
      "inputs": [
        {
          "components": [
            {
              "internalType": "string",
              "name": "_context",
              "type": "string"
            },
            {
              "internalType": "string",
              "name": "_type",
              "type": "string"
            },
            {
              "internalType": "string",
              "name": "id",
              "type": "string"
            },
            {
              "components": [
                {
                  "internalType": "string",
                  "name": "id",
                  "type": "string"
                },
                {
                  "internalType": "address",
                  "name": "ethereumAddress",
                  "type": "address"
                }
              ],
              "internalType": "struct VCTypesV01.Issuer",
              "name": "issuer",
              "type": "tuple"
            },
            {
              "components": [
                {
                  "internalType": "string",
                  "name": "id",
                  "type": "string"
                },
                {
                  "internalType": "address",
                  "name": "ethereumAddress",
                  "type": "address"
                },
                {
                  "internalType": "string",
                  "name": "_type",
                  "type": "string"
                },
                {
                  "internalType": "string",
                  "name": "typeSchema",
                  "type": "string"
                },
                {
                  "internalType": "string",
                  "name": "value",
                  "type": "string"
                },
                {
                  "internalType": "string",
                  "name": "encrypted",
                  "type": "string"
                },
                {
                  "internalType": "uint8",
                  "name": "trust",
                  "type": "uint8"
                },
                {
                  "internalType": "uint256",
                  "name": "stake",
                  "type": "uint256"
                },
                {
                  "internalType": "uint256",
                  "name": "nbf",
                  "type": "uint256"
                },
                {
                  "internalType": "uint256",
                  "name": "exp",
                  "type": "uint256"
                }
              ],
              "internalType": "struct VCTypesV01.CredentialSubject",
              "name": "credentialSubject",
              "type": "tuple"
            },
            {
              "components": [
                {
                  "internalType": "string",
                  "name": "id",
                  "type": "string"
                },
                {
                  "internalType": "string",
                  "name": "_type",
                  "type": "string"
                }
              ],
              "internalType": "struct VCTypesV01.CredentialSchema",
              "name": "credentialSchema",
              "type": "tuple"
            },
            {
              "internalType": "string",
              "name": "issuanceDate",
              "type": "string"
            },
            {
              "internalType": "string",
              "name": "expirationDate",
              "type": "string"
            }
          ],
          "internalType": "struct VCTypesV01.VerifiableCredential",
          "name": "vc",
          "type": "tuple"
        },
        {
          "internalType": "string",
          "name": "reason",
          "type": "string"
        }
      ],
      "name": "suspendVC",
      "outputs": [
        {
          "internalType": "bool",
          "name": "",
          "type": "bool"
        }
      ],
      "stateMutability": "nonpayable",
      "type": "function"
    },
    {
      "inputs": [],
      "name": "symbol",
      "outputs": [
        {
          "internalType": "string",
          "name": "",
          "type": "string"
        }
      ],
      "stateMutability": "view",
      "type": "function"
    },
    {
      "inputs": [],
      "name": "totalSupply",
      "outputs": [
        {
          "internalType": "uint256",
          "name": "",
          "type": "uint256"
        }
      ],
      "stateMutability": "view",
      "type": "function"
    },
    {
      "inputs": [
        {
          "internalType": "address",
          "name": "recipient",
          "type": "address"
        },
        {
          "internalType": "uint256",
          "name": "amount",
          "type": "uint256"
        }
      ],
      "name": "transfer",
      "outputs": [
        {
          "internalType": "bool",
          "name": "",
          "type": "bool"
        }
      ],
      "stateMutability": "nonpayable",
      "type": "function"
    },
    {
      "inputs": [
        {
          "internalType": "address",
          "name": "sender",
          "type": "address"
        },
        {
          "internalType": "address",
          "name": "recipient",
          "type": "address"
        },
        {
          "internalType": "uint256",
          "name": "amount",
          "type": "uint256"
        }
      ],
      "name": "transferFrom",
      "outputs": [
        {
          "internalType": "bool",
          "name": "",
          "type": "bool"
        }
      ],
      "stateMutability": "nonpayable",
      "type": "function"
    },
    {
      "inputs": [],
      "name": "unpause",
      "outputs": [],
      "stateMutability": "nonpayable",
      "type": "function"
    },
    {
      "inputs": [
        {
          "internalType": "uint256",
          "name": "newMinBalance",
          "type": "uint256"
        }
      ],
      "name": "updateMinBalanceToIssue",
      "outputs": [],
      "stateMutability": "nonpayable",
      "type": "function"
    },
    {
      "inputs": [
        {
          "internalType": "uint256",
          "name": "newMinBalance",
          "type": "uint256"
        }
      ],
      "name": "updateMinBalanceToReceive",
      "outputs": [],
      "stateMutability": "nonpayable",
      "type": "function"
    },
    {
      "inputs": [
        {
          "internalType": "uint256",
          "name": "newMinBalance",
          "type": "uint256"
        }
      ],
      "name": "updateMinBalanceToTransfer",
      "outputs": [],
      "stateMutability": "nonpayable",
      "type": "function"
    },
    {
      "inputs": [
        {
          "internalType": "uint256",
          "name": "newMinStake",
          "type": "uint256"
        },
        {
          "internalType": "uint256",
          "name": "newMaxStake",
          "type": "uint256"
        }
      ],
      "name": "updateStakeToIssue",
      "outputs": [],
      "stateMutability": "nonpayable",
      "type": "function"
    },
    {
      "inputs": [
        {
          "internalType": "address",
          "name": "newImplementation",
          "type": "address"
        }
      ],
      "name": "upgradeTo",
      "outputs": [],
      "stateMutability": "nonpayable",
      "type": "function"
    },
    {
      "inputs": [
        {
          "internalType": "address",
          "name": "newImplementation",
          "type": "address"
        },
        {
          "internalType": "bytes",
          "name": "data",
          "type": "bytes"
        }
      ],
      "name": "upgradeToAndCall",
      "outputs": [],
      "stateMutability": "payable",
      "type": "function"
    }
  ],
  "bytecode": "0x60a06040523060601b6080523480156200001857600080fd5b50600054610100900460ff16620000365760005460ff161562000040565b62000040620000e5565b620000a85760405162461bcd60e51b815260206004820152602e60248201527f496e697469616c697a61626c653a20636f6e747261637420697320616c72656160448201526d191e481a5b9a5d1a585b1a5e995960921b606482015260840160405180910390fd5b600054610100900460ff16158015620000cb576000805461ffff19166101011790555b8015620000de576000805461ff00191690555b5062000109565b6000620000fd306200010360201b62001b3e1760201c565b15905090565b3b151590565b60805160601c614ef66200013d60003960008181610c8401528181610cc401528181610eb50152610ef50152614ef66000f3fe6080604052600436106102c95760003560e01c806379cc679011610175578063b8a4f5bc116100dc578063e29578a611610095578063e861f9b21161006f578063e861f9b2146108b2578063ec183542146108d2578063f09a4d56146108f2578063f8a06fff1461091257600080fd5b8063e29578a61461085b578063e5a2b28e1461087b578063e6aff7be1461089257600080fd5b8063b8a4f5bc1461077e578063c47e76b71461079e578063ca15c873146107be578063d547741f146107de578063dd62ed3e146107fe578063de9d2b1c1461084457600080fd5b806395d89b411161012e57806395d89b41146106dd57806396a45bc5146106f2578063a217fddf14610712578063a457c2d714610727578063a9059cbb14610747578063af4e720d1461076757600080fd5b806379cc6790146105f25780637ef50298146106125780638129fc1c1461065b5780638456cb59146106705780639010d07c1461068557806391d14854146106bd57600080fd5b80633644e5151161023457806340c10f19116101ed5780634f1ef286116101c75780634f1ef286146105705780635c975abb146105835780635fd764d21461059c57806370a08231146105bc57600080fd5b806340c10f191461051057806342966c68146105305780634484f2401461055057600080fd5b80633644e5151461046457806336568abe146104795780633659cfe61461049957806338b7f446146104b957806339509351146104db5780633f4ba83a146104fb57600080fd5b806318160ddd1161028657806318160ddd146103a357806323b872dd146103b8578063248a9ca3146103d857806329a3eaf8146104085780632f2ff15d14610428578063313ce5671461044857600080fd5b806301ffc9a7146102ce57806306fdde031461030357806307a0d7981461032557806307a772921461034a578063095ea7b31461036157806309b1146b14610381575b600080fd5b3480156102da57600080fd5b506102ee6102e9366004614521565b610932565b60405190151581526020015b60405180910390f35b34801561030f57600080fd5b5061031861095d565b6040516102fa9190614971565b34801561033157600080fd5b5061033c61022d5481565b6040519081526020016102fa565b34801561035657600080fd5b5061033c61022a5481565b34801561036d57600080fd5b506102ee61037c366004614499565b6109ef565b34801561038d57600080fd5b506103a161039c3660046144c3565b610a05565b005b3480156103af57600080fd5b5060cb5461033c565b3480156103c457600080fd5b506102ee6103d3366004614410565b610a97565b3480156103e457600080fd5b5061033c6103f33660046144c3565b60009081526065602052604090206001015490565b34801561041457600080fd5b506102ee61042336600461454b565b610b43565b34801561043457600080fd5b506103a16104433660046144dc565b610bc1565b34801561045457600080fd5b50604051601281526020016102fa565b34801561047057600080fd5b5061033c610bec565b34801561048557600080fd5b506103a16104943660046144dc565b610bfb565b3480156104a557600080fd5b506103a16104b43660046143c2565b610c79565b3480156104c557600080fd5b5061033c600080516020614e5a83398151915281565b3480156104e757600080fd5b506102ee6104f6366004614499565b610d42565b34801561050757600080fd5b506103a1610d7e565b34801561051c57600080fd5b506103a161052b366004614499565b610ded565b34801561053c57600080fd5b506103a161054b3660046144c3565b610e59565b34801561055c57600080fd5b506102ee61056b366004614587565b610e63565b6103a161057e36600461444c565b610eaa565b34801561058f57600080fd5b5061012d5460ff166102ee565b3480156105a857600080fd5b506103186105b736600461454b565b610f60565b3480156105c857600080fd5b5061033c6105d73660046143c2565b6001600160a01b0316600090815260c9602052604090205490565b3480156105fe57600080fd5b506103a161060d366004614499565b610f78565b34801561061e57600080fd5b5061064d61062d3660046144c3565b61022e602052600090815260409020805460019091015460ff9091169082565b6040516102fa929190614945565b34801561066757600080fd5b506103a1610ff9565b34801561067c57600080fd5b506103a16110f4565b34801561069157600080fd5b506106a56106a03660046144ff565b61115f565b6040516001600160a01b0390911681526020016102fa565b3480156106c957600080fd5b506102ee6106d83660046144dc565b611177565b3480156106e957600080fd5b506103186111a2565b3480156106fe57600080fd5b506103a161070d3660046144c3565b6111b1565b34801561071e57600080fd5b5061033c600081565b34801561073357600080fd5b506102ee610742366004614499565b611230565b34801561075357600080fd5b506102ee610762366004614499565b6112bf565b34801561077357600080fd5b5061033c61022b5481565b34801561078a57600080fd5b506102ee610799366004614587565b6112cc565b3480156107aa57600080fd5b506102ee6107b9366004614587565b611312565b3480156107ca57600080fd5b5061033c6107d93660046144c3565b611358565b3480156107ea57600080fd5b506103a16107f93660046144dc565b61136f565b34801561080a57600080fd5b5061033c6108193660046143dd565b6001600160a01b03918216600090815260ca6020908152604080832093909416825291909152205490565b34801561085057600080fd5b5061033c61022c5481565b34801561086757600080fd5b506103186108763660046144c3565b611395565b34801561088757600080fd5b5061033c6102295481565b34801561089e57600080fd5b506103a16108ad3660046144c3565b611548565b3480156108be57600080fd5b506102ee6108cd366004614587565b6115c4565b3480156108de57600080fd5b5061033c6108ed36600461454b565b61160a565b3480156108fe57600080fd5b506103a161090d3660046144ff565b611615565b34801561091e57600080fd5b506102ee61092d3660046145e0565b611797565b60006001600160e01b03198216635a05180f60e01b1480610957575061095782611b44565b92915050565b606060cc805461096c90614d90565b80601f016020809104026020016040519081016040528092919081815260200182805461099890614d90565b80156109e55780601f106109ba576101008083540402835291602001916109e5565b820191906000526020600020905b8154815290600101906020018083116109c857829003601f168201915b5050505050905090565b60006109fc338484611b79565b50600192915050565b610a1d600080516020614e5a83398151915233611177565b610a425760405162461bcd60e51b8152600401610a3990614984565b60405180910390fd5b61022a819055604051600080516020614e3a83398151915290610a8c906020808252601390820152726d696e42616c616e6365546f5265636569766560681b604082015260600190565b60405180910390a150565b6000610aa4848484611c9d565b6001600160a01b038416600090815260ca6020908152604080832033845290915290205482811015610b295760405162461bcd60e51b815260206004820152602860248201527f45524332303a207472616e7366657220616d6f756e74206578636565647320616044820152676c6c6f77616e636560c01b6064820152608401610a39565b610b368533858403611b79565b60019150505b9392505050565b600080610b4f8361160a565b905082608001516101200151421115610bb157600081815261022e6020908152604091829020805460ff1916600517905590518281527f3077f64f92ad91c6479071531304fa3c1e0bb9b63e130c746f3a564292f0ddc6910160405180910390a15b5050608001516101200151421190565b600082815260656020526040902060010154610bdd8133611e78565b610be78383611edc565b505050565b6000610bf6611efe565b905090565b6001600160a01b0381163314610c6b5760405162461bcd60e51b815260206004820152602f60248201527f416363657373436f6e74726f6c3a2063616e206f6e6c792072656e6f756e636560448201526e103937b632b9903337b91039b2b63360891b6064820152608401610a39565b610c758282611f7b565b5050565b306001600160a01b037f0000000000000000000000000000000000000000000000000000000000000000161415610cc25760405162461bcd60e51b8152600401610a3990614a11565b7f00000000000000000000000000000000000000000000000000000000000000006001600160a01b0316610cf4611f9d565b6001600160a01b031614610d1a5760405162461bcd60e51b8152600401610a3990614a5d565b610d2381611fcb565b60408051600080825260208201909252610d3f91839190612030565b50565b33600081815260ca602090815260408083206001600160a01b038716845290915281205490916109fc918590610d79908690614bef565b611b79565b610d96600080516020614e5a83398151915233611177565b610de35760405162461bcd60e51b815260206004820152602a6024820152600080516020614ea1833981519152604482015269746f20756e706175736560b01b6064820152608401610a39565b610deb61217b565b565b610e05600080516020614e5a83398151915233611177565b610e4f5760405162461bcd60e51b81526020600482015260276024820152600080516020614ea18339815191526044820152661d1bc81b5a5b9d60ca1b6064820152608401610a39565b610c758282612210565b610d3f33826122fb565b6080820151602001516000906001600160a01b03163314610e965760405162461bcd60e51b8152600401610a3990614ae0565b610ea08383612455565b5060019392505050565b306001600160a01b037f0000000000000000000000000000000000000000000000000000000000000000161415610ef35760405162461bcd60e51b8152600401610a3990614a11565b7f00000000000000000000000000000000000000000000000000000000000000006001600160a01b0316610f25611f9d565b6001600160a01b031614610f4b5760405162461bcd60e51b8152600401610a3990614a5d565b610f5482611fcb565b610c7582826001612030565b60606000610f6d8361160a565b9050610b3c81611395565b6000610f848333610819565b905081811015610fe25760405162461bcd60e51b8152602060048201526024808201527f45524332303a206275726e20616d6f756e74206578636565647320616c6c6f77604482015263616e636560e01b6064820152608401610a39565b610fef8333848403611b79565b610be783836122fb565b600054610100900460ff166110145760005460ff1615611018565b303b155b61107b5760405162461bcd60e51b815260206004820152602e60248201527f496e697469616c697a61626c653a20636f6e747261637420697320616c72656160448201526d191e481a5b9a5d1a585b1a5e995960921b6064820152608401610a39565b600054610100900460ff1615801561109d576000805461ffff19166101011790555b6110e06040518060400160405280600681526020016512dc99589a5d60d21b8152506040518060400160405280600381526020016225a92160e91b81525061248b565b8015610d3f576000805461ff001916905550565b61110c600080516020614e5a83398151915233611177565b6111575760405162461bcd60e51b81526020600482015260286024820152600080516020614ea1833981519152604482015267746f20706175736560c01b6064820152608401610a39565b610deb612523565b6000828152609760205260408120610b3c90836125a0565b60009182526065602090815260408084206001600160a01b0393909316845291905290205460ff1690565b606060cd805461096c90614d90565b6111c9600080516020614e5a83398151915233611177565b6111e55760405162461bcd60e51b8152600401610a3990614984565b610229819055604051600080516020614e3a83398151915290610a8c9060208082526014908201527336b4b72130b630b731b2aa37aa3930b739b332b960611b604082015260600190565b33600090815260ca602090815260408083206001600160a01b0386168452909152812054828110156112b25760405162461bcd60e51b815260206004820152602560248201527f45524332303a2064656372656173656420616c6c6f77616e63652062656c6f77604482015264207a65726f60d81b6064820152608401610a39565b610ea03385858403611b79565b60006109fc338484611c9d565b6060820151602001516000906001600160a01b031633146112ff5760405162461bcd60e51b8152600401610a39906149c6565b610ea061130b8461160a565b84846125ac565b6060820151602001516000906001600160a01b031633146113455760405162461bcd60e51b8152600401610a39906149c6565b610ea06113518461160a565b848461269f565b600081815260976020526040812061095790612798565b60008281526065602052604090206001015461138b8133611e78565b610be78383611f7b565b600081815261022e602052604081205460609160ff909116908160058111156113c0576113c0614de1565b14156113e85750506040805180820190915260048152634e6f6e6560e01b6020820152919050565b60018160058111156113fc576113fc614de1565b1415611426575050604080518082019091526006815265125cdcdd595960d21b6020820152919050565b600281600581111561143a5761143a614de1565b1415611466575050604080518082019091526008815267111a5cdc1d5d195960c21b6020820152919050565b600381600581111561147a5761147a614de1565b14156114a557505060408051808201909152600781526614995d9bdad95960ca1b6020820152919050565b60048160058111156114b9576114b9614de1565b14156114e657505060408051808201909152600981526814dd5cdc195b99195960ba1b6020820152919050565b60058160058111156114fa576114fa614de1565b1415611525575050604080518082019091526007815266115e1c1a5c995960ca1b6020820152919050565b505060408051808201909152600581526422b93937b960d91b6020820152919050565b611560600080516020614e5a83398151915233611177565b61157c5760405162461bcd60e51b8152600401610a3990614984565b61022b819055604051600080516020614e3a83398151915290610a8c906020808252601190820152706d696e42616c616e6365546f497373756560781b604082015260600190565b6080820151602001516000906001600160a01b031633146115f75760405162461bcd60e51b8152600401610a3990614ae0565b610ea06116038461160a565b84846127a2565b600061095782612830565b61162d600080516020614e5a83398151915233611177565b6116825760405162461bcd60e51b81526020600482015260326024820152600080516020614ea1833981519152604482015271746f206368616e6765206d696e5374616b6560701b6064820152608401610a39565b8181116116f75760405162461bcd60e51b815260206004820152603f60248201527f4b5242546f6b656e3a206e65774d61785374616b65206d75737420626520677260448201527f6561746572206f7220657175616c207468616e206e65774d696e5374616b65006064820152608401610a39565b61022c829055604051600080516020614e3a8339815191529061173d906020808252600f908201526e6d696e5374616b65546f497373756560881b604082015260600190565b60405180910390a161022d819055604051600080516020614e3a8339815191529061178b906020808252600f908201526e6d61785374616b65546f497373756560881b604082015260600190565b60405180910390a15050565b60006117b1600080516020614e5a83398151915233611177565b6118065760405162461bcd60e51b81526020600482015260326024820152600080516020614ea1833981519152604482015271746f207265736f6c7665206469737075746560701b6064820152608401610a39565b60405170111a5cdc1d5d1950dc9959195b9d1a585b607a1b6020820152603101604051602081830303815290604052805190602001208260200151604051602001611851919061479e565b60405160208183030381529060405280519060200120146118d35760405162461bcd60e51b815260206004820152603660248201527f4b5242546f6b656e3a206469737075746520636c61696d2074797065206d75736044820152751d08189948111a5cdc1d5d1950dc9959195b9d1a585b60521b6064820152608401610a39565b6060820151602001516001600160a01b031633146119475760405162461bcd60e51b815260206004820152602b60248201527f4b5242546f6b656e3a20697373756572206d7573742062652074686520476f7660448201526a65726e206164647265737360a81b6064820152608401610a39565b60006119528461160a565b905060008082815261022e602052604090205460ff16600581111561197957611979614de1565b141580156119ab57506002600082815261022e602052604090205460ff1660058111156119a8576119a8614de1565b14155b611a035760405162461bcd60e51b815260206004820152602360248201527f4b5242546f6b656e3a20564320737461746520616c72656164792064697370756044820152621d195960ea1b6064820152608401610a39565b6000611a0e8461160a565b600083815261022e6020908152604091829020805460ff1916600217815560010183905581518581529081018390529192507f8e39eab2c454d024fb5c89b50dabc51f5068c7a283891d06aa91f5ba96acded1910160405180910390a1600081815261022e602052604090819020805460ff19166001179055517f52d58467c45ad97ae2d79b04439543e7ff3285cb7422bbb63b7bee73e85f28c090611ab79083908790614848565b60405180910390a16000611acd6012600a614c6c565b866080015160e00151611ae09190614d17565b9050611af4866060015160200151826122fb565b6000611b0b82886080015160c0015160ff16612924565b9050611b1f876080015160200151826122fb565b611b31876060015160200151826122fb565b5060019695505050505050565b3b151590565b60006001600160e01b03198216637965db0b60e01b148061095757506301ffc9a760e01b6001600160e01b0319831614610957565b6001600160a01b038316611bdb5760405162461bcd60e51b8152602060048201526024808201527f45524332303a20617070726f76652066726f6d20746865207a65726f206164646044820152637265737360e01b6064820152608401610a39565b6001600160a01b038216611c3c5760405162461bcd60e51b815260206004820152602260248201527f45524332303a20617070726f766520746f20746865207a65726f206164647265604482015261737360f01b6064820152608401610a39565b6001600160a01b03838116600081815260ca602090815260408083209487168084529482529182902085905590518481527f8c5be1e5ebec7d5bd14f71427d1e84f3dd0314c0f7b2291e5b200ac8c7c3b925910160405180910390a3505050565b6001600160a01b038316611d015760405162461bcd60e51b815260206004820152602560248201527f45524332303a207472616e736665722066726f6d20746865207a65726f206164604482015264647265737360d81b6064820152608401610a39565b6001600160a01b038216611d635760405162461bcd60e51b815260206004820152602360248201527f45524332303a207472616e7366657220746f20746865207a65726f206164647260448201526265737360e81b6064820152608401610a39565b611d6e83838361293a565b6001600160a01b038316600090815260c9602052604090205481811015611de65760405162461bcd60e51b815260206004820152602660248201527f45524332303a207472616e7366657220616d6f756e7420657863656564732062604482015265616c616e636560d01b6064820152608401610a39565b6001600160a01b03808516600090815260c96020526040808220858503905591851681529081208054849290611e1d908490614bef565b92505081905550826001600160a01b0316846001600160a01b03167fddf252ad1be2c89b69c2b068fc378daa952ba7f163c4a11628f55a4df523b3ef84604051611e6991815260200190565b60405180910390a35b50505050565b611e828282611177565b610c7557611e9a816001600160a01b03166014612ad0565b611ea5836020612ad0565b604051602001611eb69291906147ba565b60408051601f198184030181529082905262461bcd60e51b8252610a3991600401614971565b611ee68282612c6b565b6000828152609760205260409020610be79082612cf1565b6000610bf67f8b73c3c69bb8fe3d512ecc4cf759cc79239f7b179b0ffacaa9a75d522b39400f611f2e6101915490565b610192546040805160208101859052908101839052606081018290524660808201523060a082015260009060c0016040516020818303038152906040528051906020012090509392505050565b611f858282612d06565b6000828152609760205260409020610be79082612d6d565b7f360894a13ba1a3210667c828492db98dca3e2076cc3735a920a3ca505d382bbc546001600160a01b031690565b611fe3600080516020614e5a83398151915233611177565b610d3f5760405162461bcd60e51b815260206004820152602a6024820152600080516020614ea1833981519152604482015269746f207570677261646560b01b6064820152608401610a39565b600061203a611f9d565b905061204584612d82565b6000835111806120525750815b15612063576120618484612e27565b505b7f4910fdfa16fed3260ed0e7147f7cc6da11a60208b5b9406d12a635614ffd9143805460ff1661217457805460ff191660011781556040516001600160a01b03831660248201526120e290869060440160408051601f198184030181529190526020810180516001600160e01b0316631b2ce7f360e11b179052612e27565b50805460ff191681556120f3611f9d565b6001600160a01b0316826001600160a01b03161461216b5760405162461bcd60e51b815260206004820152602f60248201527f45524331393637557067726164653a207570677261646520627265616b73206660448201526e75727468657220757067726164657360881b6064820152608401610a39565b61217485612f12565b5050505050565b61012d5460ff166121c55760405162461bcd60e51b815260206004820152601460248201527314185d5cd8589b194e881b9bdd081c185d5cd95960621b6044820152606401610a39565b61012d805460ff191690557f5db9ee0a495bf2e6ff9c91a7834c1ba4fdd244a5e8aa4e537bd38aeae4b073aa335b6040516001600160a01b03909116815260200160405180910390a1565b6001600160a01b0382166122665760405162461bcd60e51b815260206004820152601f60248201527f45524332303a206d696e7420746f20746865207a65726f2061646472657373006044820152606401610a39565b6122726000838361293a565b8060cb60008282546122849190614bef565b90915550506001600160a01b038216600090815260c96020526040812080548392906122b1908490614bef565b90915550506040518181526001600160a01b038316906000907fddf252ad1be2c89b69c2b068fc378daa952ba7f163c4a11628f55a4df523b3ef9060200160405180910390a35050565b6001600160a01b03821661235b5760405162461bcd60e51b815260206004820152602160248201527f45524332303a206275726e2066726f6d20746865207a65726f206164647265736044820152607360f81b6064820152608401610a39565b6123678260008361293a565b6001600160a01b038216600090815260c96020526040902054818110156123db5760405162461bcd60e51b815260206004820152602260248201527f45524332303a206275726e20616d6f756e7420657863656564732062616c616e604482015261636560f01b6064820152608401610a39565b6001600160a01b038316600090815260c960205260408120838303905560cb805484929061240a908490614d36565b90915550506040518281526000906001600160a01b038516907fddf252ad1be2c89b69c2b068fc378daa952ba7f163c4a11628f55a4df523b3ef9060200160405180910390a3505050565b6000806124618461160a565b90506124768460600151602001518285612f52565b6124808185613059565b506001949350505050565b600054610100900460ff166124b25760405162461bcd60e51b8152600401610a3990614b36565b6124ba61327f565b6124c261327f565b6124ca61327f565b6124d261327f565b6124dc82826132a6565b6124e461327f565b6124ec6132f4565b6124f461327f565b6125198260405180604001604052806003815260200162302e3160e81b815250613328565b610c75828261336b565b61012d5460ff161561256a5760405162461bcd60e51b815260206004820152601060248201526f14185d5cd8589b194e881c185d5cd95960821b6044820152606401610a39565b61012d805460ff191660011790557f62e78cea01bee320cd4e420270b5ea74000d11b0c9f74754ebdbfc544b05a2586121f33390565b6000610b3c8383613440565b60006001600085815261022e602052604090205460ff1660058111156125d4576125d4614de1565b146125f15760405162461bcd60e51b8152600401610a3990614aa9565b600084815261022e602052604090819020805460ff19166004179055517f9f3ea3215e3320f6d705861aefc7d473557aff8cae1ac438222996d547233d359061263d908690859061482f565b60405180910390a160006126536012600a614c6c565b846080015160e001516126669190614d17565b9050600061267f82866080015160c0015160ff16612924565b9050612693856080015160200151826122fb565b50600195945050505050565b60006001600085815261022e602052604090205460ff1660058111156126c7576126c7614de1565b146126e45760405162461bcd60e51b8152600401610a3990614aa9565b600084815261022e602052604090819020805460ff19166003179055517fc8d626f397822cbf88d2668dbdd8bac1a4a172c0d81425fde1526ef2b8195ca390612730908690859061482f565b60405180910390a160006127466012600a614c6c565b846080015160e001516127599190614d17565b9050600061277282866080015160c0015160ff16612924565b9050612786856080015160200151826122fb565b612693856060015160200151826122fb565b6000610957825490565b60006001600085815261022e602052604090205460ff1660058111156127ca576127ca614de1565b146127e75760405162461bcd60e51b8152600401610a3990614aa9565b600084815261022e602052604090819020805460ff19169055517f761f6dc13136b4cb3a156f0ed2a2b0865663e8bae80e43eb200aaff89b223b8a90612730908690859061482f565b60007fd08f99e0a0c765460ed3d84d7cd81ee779cd36fe4482875edbf0cf1b7bbe764360001b826000015180519060200120836020015180519060200120846040015180519060200120612887866060015161346a565b61289487608001516134c3565b6128a18860a001516135af565b60c0890151805160209182012060e08b01518051908301206040516129079a9998979695949301988952602089019790975260408801959095526060870193909352608086019190915260a085015260c084015260e08301526101008201526101200190565b604051602081830303815290604052805190602001209050919050565b6000610b3c6129338484613605565b6064613611565b61294583838361361d565b61295d600080516020614e5a83398151915233611177565b8061296f57506001600160a01b038316155b8061298157506001600160a01b038216155b806129a75750610229546001600160a01b038416600090815260c9602052604090205410155b612a095760405162461bcd60e51b815260206004820152602d60248201527f4b5242546f6b656e3a2073656e64657220646f6573206e6f742068617665206560448201526c6e6f7567682062616c616e636560981b6064820152608401610a39565b612a21600080516020614e5a83398151915233611177565b80612a3357506001600160a01b038316155b80612a4557506001600160a01b038216155b80612a6b575061022a546001600160a01b038316600090815260c9602052604090205410155b610be75760405162461bcd60e51b815260206004820152603060248201527f4b5242546f6b656e3a20726563697069656e7420646f6573206e6f742068617660448201526f6520656e6f7567682062616c616e636560801b6064820152608401610a39565b60606000612adf836002614d17565b612aea906002614bef565b6001600160401b03811115612b0157612b01614e23565b6040519080825280601f01601f191660200182016040528015612b2b576020820181803683370190505b509050600360fc1b81600081518110612b4657612b46614e0d565b60200101906001600160f81b031916908160001a905350600f60fb1b81600181518110612b7557612b75614e0d565b60200101906001600160f81b031916908160001a9053506000612b99846002614d17565b612ba4906001614bef565b90505b6001811115612c1c576f181899199a1a9b1b9c1cb0b131b232b360811b85600f1660108110612bd857612bd8614e0d565b1a60f81b828281518110612bee57612bee614e0d565b60200101906001600160f81b031916908160001a90535060049490941c93612c1581614d79565b9050612ba7565b508315610b3c5760405162461bcd60e51b815260206004820181905260248201527f537472696e67733a20686578206c656e67746820696e73756666696369656e746044820152606401610a39565b612c758282611177565b610c755760008281526065602090815260408083206001600160a01b03851684529091529020805460ff19166001179055612cad3390565b6001600160a01b0316816001600160a01b0316837f2f8788117e7eff1d82e926ec794901d17c78024a50270940304540a733656f0d60405160405180910390a45050565b6000610b3c836001600160a01b038416613684565b612d108282611177565b15610c755760008281526065602090815260408083206001600160a01b0385168085529252808320805460ff1916905551339285917ff6391f5c32d9c69d2a47ea670b442974b53935d1edc7fd64eb21e047a839171b9190a45050565b6000610b3c836001600160a01b0384166136d3565b803b612de65760405162461bcd60e51b815260206004820152602d60248201527f455243313936373a206e657720696d706c656d656e746174696f6e206973206e60448201526c1bdd08184818dbdb9d1c9858dd609a1b6064820152608401610a39565b7f360894a13ba1a3210667c828492db98dca3e2076cc3735a920a3ca505d382bbc80546001600160a01b0319166001600160a01b0392909216919091179055565b6060823b612e865760405162461bcd60e51b815260206004820152602660248201527f416464726573733a2064656c65676174652063616c6c20746f206e6f6e2d636f6044820152651b9d1c9858dd60d21b6064820152608401610a39565b600080846001600160a01b031684604051612ea1919061479e565b600060405180830381855af49150503d8060008114612edc576040519150601f19603f3d011682016040523d82523d6000602084013e612ee1565b606091505b5091509150612f098282604051806060016040528060278152602001614e7a602791396137c6565b95945050505050565b612f1b81612d82565b6040516001600160a01b038216907fbc7cd75a20ee27fd9adebab32041f755214dbc6bffa90cc0225b39da2e5c2d3b90600090a250565b6000612f5d836137ff565b90506000612f6b828461384d565b90506001600160a01b038116612fd25760405162461bcd60e51b815260206004820152602660248201527f4b5242546f6b656e3a20696e76616c6964207369676e6174757265206164647260448201526565737328302960d01b6064820152608401610a39565b846001600160a01b0316816001600160a01b0316146121745760405162461bcd60e51b815260206004820152603860248201527f4b5242546f6b656e3a207265636f76657265642061646472657373206469666660448201527f6572732066726f6d206578706563746564207369676e657200000000000000006064820152608401610a39565b600080600084815261022e602052604090205460ff16600581111561308057613080614de1565b146130f35760405162461bcd60e51b815260206004820152603860248201527f4b5242546f6b656e3a2056657269666961626c652043726564656e7469616c2060448201527f6861736820616c7265616479206265656e2069737375656400000000000000006064820152608401610a39565b6130fc82613871565b600061310a6012600a614c6c565b836080015160e0015161311d9190614d17565b905061022c548110158015613135575061022d548111155b6131b35760405162461bcd60e51b815260206004820152604360248201527f4b5242546f6b656e3a207374616b65206d757374206265206265747765656e2060448201527f6d696e5374616b65546f497373756520616e64206d61785374616b65546f497360648201526273756560e81b608482015260a401610a39565b6040805180820190915280600181526000602091820181905286815261022e9091526040902081518154829060ff191660018360058111156131f7576131f7614de1565b0217905550602082015181600101559050507f52d58467c45ad97ae2d79b04439543e7ff3285cb7422bbb63b7bee73e85f28c0848460405161323a929190614848565b60405180910390a1600061325982856080015160c0015160ff16612924565b905061326d84608001516020015182612210565b61248084606001516020015182612210565b600054610100900460ff16610deb5760405162461bcd60e51b8152600401610a3990614b36565b600054610100900460ff166132cd5760405162461bcd60e51b8152600401610a3990614b36565b81516132e09060cc906020850190613f3b565b508051610be79060cd906020840190613f3b565b600054610100900460ff1661331b5760405162461bcd60e51b8152600401610a3990614b36565b61012d805460ff19169055565b600054610100900460ff1661334f5760405162461bcd60e51b8152600401610a3990614b36565b8151602092830120815191909201206101919190915561019255565b600054610100900460ff166133925760405162461bcd60e51b8152600401610a3990614b36565b61339d600033613bea565b6133b5600080516020614e5a83398151915233613bea565b6133c16012600a614c6c565b6133cc906064614d17565b610229556133dc6012600a614c6c565b6133e7906064614d17565b61022a556133f76012600a614c6c565b613402906064614d17565b61022b556134126012600a614c6c565b61341d906001614d17565b61022c5561342d6012600a614c6c565b61343890600a614d17565b61022d555050565b600082600001828154811061345757613457614e0d565b9060005260206000200154905092915050565b8051805160209182012081830151604080517fabb691e6e52ceb1ff8b3df91dc14323057e88efa3252486ed994fd62706cdfaa948101949094528301919091526001600160a01b03166060820152600090608001612907565b60007faf8ffd45fe225114f6754d57001b86eb6836e12ec2d55df7d38142957d912d8560001b82600001518051906020012083602001518460400151805190602001208560600151805190602001208660800151805190602001208760a00151805190602001208860c001518960e001518a61010001518b61012001516040516020016129079b9a999897969594939291909a8b5260208b01999099526001600160a01b039790971660408a01526060890195909552608088019390935260a087019190915260c086015260ff1660e08501526101008401526101208301526101408201526101600190565b8051805160209182012081830151805190830120604080517f1a58b7c56676b62343f37f4f3603a07ae6dd78bea300689bcefef0f9498c6cc9948101949094528301919091526060820152600090608001612907565b6000610b3c8284614d17565b6000610b3c8284614c07565b61012d5460ff1615610be75760405162461bcd60e51b815260206004820152602a60248201527f45524332305061757361626c653a20746f6b656e207472616e736665722077686044820152691a5b19481c185d5cd95960b21b6064820152608401610a39565b60008181526001830160205260408120546136cb57508154600181810184556000848152602080822090930184905584548482528286019093526040902091909155610957565b506000610957565b600081815260018301602052604081205480156137bc5760006136f7600183614d36565b855490915060009061370b90600190614d36565b905081811461377057600086600001828154811061372b5761372b614e0d565b906000526020600020015490508087600001848154811061374e5761374e614e0d565b6000918252602080832090910192909255918252600188019052604090208390555b855486908061378157613781614df7565b600190038181906000526020600020016000905590558560010160008681526020019081526020016000206000905560019350505050610957565b6000915050610957565b606083156137d5575081610b3c565b8251156137e55782518084602001fd5b8160405162461bcd60e51b8152600401610a399190614971565b600061095761380c611efe565b8360405161190160f01b6020820152602281018390526042810182905260009060620160405160208183030381529060405280519060200120905092915050565b600080600061385c8585613bf4565b9150915061386981613c64565b509392505050565b6060810151602001516001600160a01b03166138cf5760405162461bcd60e51b815260206004820152601c60248201527f4b5242546f6b656e3a20626164206973737565722061646472657373000000006044820152606401610a39565b6080810151602001516001600160a01b031661393d5760405162461bcd60e51b815260206004820152602760248201527f4b5242546f6b656e3a206261642063726564656e7469616c5375626a656374206044820152666164647265737360c81b6064820152608401610a39565b608081015151604051613953919060200161479e565b60408051601f19818403018152908290528051602091820120606084015151909261397e920161479e565b604051602081830303815290604052805190602001201415613a005760405162461bcd60e51b815260206004820152603560248201527f4b5242546f6b656e3a2069737375657220444944206973207468652073616d6560448201527408185cc818dc9959195b9d1a585b14dd589a9958dd605a1b6064820152608401610a39565b8060800151602001516001600160a01b03168160600151602001516001600160a01b03161415613a985760405162461bcd60e51b815260206004820152603960248201527f4b5242546f6b656e3a206973737565722061646472657373206973207468652060448201527f73616d652061732063726564656e7469616c5375626a656374000000000000006064820152608401610a39565b61022b54613ac38260600151602001516001600160a01b0316600090815260c9602052604090205490565b1015613b275760405162461bcd60e51b815260206004820152602d60248201527f4b5242546f6b656e3a2069737375657220646f6573206e6f742068617665206560448201526c6e6f7567682062616c616e636560981b6064820152608401610a39565b806080015161010001514211613b925760405162461bcd60e51b815260206004820152602a60248201527f4b5242546f6b656e3a2056432069737375616e63654461746520697320696e206044820152697468652066757475726560b01b6064820152608401610a39565b806080015161012001514210610d3f5760405162461bcd60e51b815260206004820181905260248201527f4b5242546f6b656e3a2056432068617320616c726561647920657870697265646044820152606401610a39565b610c758282611edc565b600080825160411415613c2b5760208301516040840151606085015160001a613c1f87828585613e1f565b94509450505050613c5d565b825160401415613c555760208301516040840151613c4a868383613f0c565b935093505050613c5d565b506000905060025b9250929050565b6000816004811115613c7857613c78614de1565b1415613c815750565b6001816004811115613c9557613c95614de1565b1415613ce35760405162461bcd60e51b815260206004820152601860248201527f45434453413a20696e76616c6964207369676e617475726500000000000000006044820152606401610a39565b6002816004811115613cf757613cf7614de1565b1415613d455760405162461bcd60e51b815260206004820152601f60248201527f45434453413a20696e76616c6964207369676e6174757265206c656e677468006044820152606401610a39565b6003816004811115613d5957613d59614de1565b1415613db25760405162461bcd60e51b815260206004820152602260248201527f45434453413a20696e76616c6964207369676e6174757265202773272076616c604482015261756560f01b6064820152608401610a39565b6004816004811115613dc657613dc6614de1565b1415610d3f5760405162461bcd60e51b815260206004820152602260248201527f45434453413a20696e76616c6964207369676e6174757265202776272076616c604482015261756560f01b6064820152608401610a39565b6000807f7fffffffffffffffffffffffffffffff5d576e7357a4501ddfe92f46681b20a0831115613e565750600090506003613f03565b8460ff16601b14158015613e6e57508460ff16601c14155b15613e7f5750600090506004613f03565b6040805160008082526020820180845289905260ff881692820192909252606081018690526080810185905260019060a0016020604051602081039080840390855afa158015613ed3573d6000803e3d6000fd5b5050604051601f1901519150506001600160a01b038116613efc57600060019250925050613f03565b9150600090505b94509492505050565b6000806001600160ff1b03831660ff84901c601b01613f2d87828885613e1f565b935093505050935093915050565b828054613f4790614d90565b90600052602060002090601f016020900481019282613f695760008555613faf565b82601f10613f8257805160ff1916838001178555613faf565b82800160010185558215613faf579182015b82811115613faf578251825591602001919060010190613f94565b50613fbb929150613fbf565b5090565b5b80821115613fbb5760008155600101613fc0565b80356001600160a01b0381168114613feb57600080fd5b919050565b600082601f83011261400157600080fd5b81356001600160401b038082111561401b5761401b614e23565b604051601f8301601f19908116603f0116810190828211818310171561404357614043614e23565b8160405283815286602085880101111561405c57600080fd5b836020870160208301376000602085830101528094505050505092915050565b60006040828403121561408e57600080fd5b614096614b81565b905081356001600160401b03808211156140af57600080fd5b6140bb85838601613ff0565b835260208401359150808211156140d157600080fd5b506140de84828501613ff0565b60208301525092915050565b600061014082840312156140fd57600080fd5b614105614ba9565b905081356001600160401b038082111561411e57600080fd5b61412a85838601613ff0565b835261413860208501613fd4565b6020840152604084013591508082111561415157600080fd5b61415d85838601613ff0565b6040840152606084013591508082111561417657600080fd5b61418285838601613ff0565b6060840152608084013591508082111561419b57600080fd5b6141a785838601613ff0565b608084015260a08401359150808211156141c057600080fd5b506141cd84828501613ff0565b60a0830152506141df60c083016143b1565b60c082015260e082013560e082015261010080830135818301525061012080830135818301525092915050565b60006040828403121561421e57600080fd5b614226614b81565b905081356001600160401b0381111561423e57600080fd5b61424a84828501613ff0565b82525061425960208301613fd4565b602082015292915050565b6000610100828403121561427757600080fd5b61427f614bcc565b905081356001600160401b038082111561429857600080fd5b6142a485838601613ff0565b835260208401359150808211156142ba57600080fd5b6142c685838601613ff0565b602084015260408401359150808211156142df57600080fd5b6142eb85838601613ff0565b6040840152606084013591508082111561430457600080fd5b6143108583860161420c565b6060840152608084013591508082111561432957600080fd5b614335858386016140ea565b608084015260a084013591508082111561434e57600080fd5b61435a8583860161407c565b60a084015260c084013591508082111561437357600080fd5b61437f85838601613ff0565b60c084015260e084013591508082111561439857600080fd5b506143a584828501613ff0565b60e08301525092915050565b803560ff81168114613feb57600080fd5b6000602082840312156143d457600080fd5b610b3c82613fd4565b600080604083850312156143f057600080fd5b6143f983613fd4565b915061440760208401613fd4565b90509250929050565b60008060006060848603121561442557600080fd5b61442e84613fd4565b925061443c60208501613fd4565b9150604084013590509250925092565b6000806040838503121561445f57600080fd5b61446883613fd4565b915060208301356001600160401b0381111561448357600080fd5b61448f85828601613ff0565b9150509250929050565b600080604083850312156144ac57600080fd5b6144b583613fd4565b946020939093013593505050565b6000602082840312156144d557600080fd5b5035919050565b600080604083850312156144ef57600080fd5b8235915061440760208401613fd4565b6000806040838503121561451257600080fd5b50508035926020909101359150565b60006020828403121561453357600080fd5b81356001600160e01b031981168114610b3c57600080fd5b60006020828403121561455d57600080fd5b81356001600160401b0381111561457357600080fd5b61457f84828501614264565b949350505050565b6000806040838503121561459a57600080fd5b82356001600160401b03808211156145b157600080fd5b6145bd86838701614264565b935060208501359150808211156145d357600080fd5b5061448f85828601613ff0565b600080604083850312156145f357600080fd5b82356001600160401b038082111561460a57600080fd5b61461686838701614264565b9350602085013591508082111561462c57600080fd5b5061448f85828601614264565b60008151808452614651816020860160208601614d4d565b601f01601f19169290920160200192915050565b600081516040845261467a6040850182614639565b905060208301518482036020860152612f098282614639565b600061014082518185526146a982860182614639565b91505060208301516146c660208601826001600160a01b03169052565b50604083015184820360408601526146de8282614639565b915050606083015184820360608601526146f88282614639565b915050608083015184820360808601526147128282614639565b91505060a083015184820360a086015261472c8282614639565b91505060c083015161474360c086018260ff169052565b5060e0838101519085015261010080840151908501526101209283015192909301919091525090565b60008151604084526147816040850182614639565b6020938401516001600160a01b0316949093019390935250919050565b600082516147b0818460208701614d4d565b9190910192915050565b7f416363657373436f6e74726f6c3a206163636f756e74200000000000000000008152600083516147f2816017850160208801614d4d565b7001034b99036b4b9b9b4b733903937b6329607d1b6017918401918201528351614823816028840160208801614d4d565b01602801949350505050565b82815260406020820152600061457f6040830184614639565b828152604060208201526000825161010080604085015261486d610140850183614639565b91506020850151603f198086850301606087015261488b8483614639565b935060408701519150808685030160808701526148a88483614639565b935060608701519150808685030160a08701526148c5848361476c565b935060808701519150808685030160c08701526148e28483614693565b935060a08701519150808685030160e08701526148ff8483614665565b935060c0870151915080868503018387015261491b8483614639565b935060e087015192508086850301610120870152505061493b8282614639565b9695505050505050565b604081016006841061496757634e487b7160e01b600052602160045260246000fd5b9281526020015290565b602081526000610b3c6020830184614639565b6020808252603490820152600080516020614ea1833981519152604082015273746f206368616e6765206d696e42616c616e636560601b606082015260800190565b6020808252602b908201527f4b5242546f6b656e3a2073656e646572206d757374206265207468652069737360408201526a756572206164647265737360a81b606082015260800190565b6020808252602c908201527f46756e6374696f6e206d7573742062652063616c6c6564207468726f7567682060408201526b19195b1959d85d1958d85b1b60a21b606082015260800190565b6020808252602c908201527f46756e6374696f6e206d7573742062652063616c6c6564207468726f7567682060408201526b6163746976652070726f787960a01b606082015260800190565b6020808252601d908201527f4b5242546f6b656e3a207374617465206973206e6f7420497373756564000000604082015260600190565b60208082526036908201527f4b5242546f6b656e3a2073656e646572206d757374206265207468652063726560408201527564656e7469616c5375626a656374206164647265737360501b606082015260800190565b6020808252602b908201527f496e697469616c697a61626c653a20636f6e7472616374206973206e6f74206960408201526a6e697469616c697a696e6760a81b606082015260800190565b604080519081016001600160401b0381118282101715614ba357614ba3614e23565b60405290565b60405161014081016001600160401b0381118282101715614ba357614ba3614e23565b60405161010081016001600160401b0381118282101715614ba357614ba3614e23565b60008219821115614c0257614c02614dcb565b500190565b600082614c2457634e487b7160e01b600052601260045260246000fd5b500490565b600181815b80851115614c64578160001904821115614c4a57614c4a614dcb565b80851615614c5757918102915b93841c9390800290614c2e565b509250929050565b6000610b3c60ff841683600082614c8557506001610957565b81614c9257506000610957565b8160018114614ca85760028114614cb257614cce565b6001915050610957565b60ff841115614cc357614cc3614dcb565b50506001821b610957565b5060208310610133831016604e8410600b8410161715614cf1575081810a610957565b614cfb8383614c29565b8060001904821115614d0f57614d0f614dcb565b029392505050565b6000816000190483118215151615614d3157614d31614dcb565b500290565b600082821015614d4857614d48614dcb565b500390565b60005b83811015614d68578181015183820152602001614d50565b83811115611e725750506000910152565b600081614d8857614d88614dcb565b506000190190565b600181811c90821680614da457607f821691505b60208210811415614dc557634e487b7160e01b600052602260045260246000fd5b50919050565b634e487b7160e01b600052601160045260246000fd5b634e487b7160e01b600052602160045260246000fd5b634e487b7160e01b600052603160045260246000fd5b634e487b7160e01b600052603260045260246000fd5b634e487b7160e01b600052604160045260246000fdfe221d3d4161ff7c815e25a84cf3c2ec04f54111bee80f0b06d345c834581c9da3899bd46557473cb80307a9dabc297131ced39608330a2d29b2d52b660c03923e416464726573733a206c6f772d6c6576656c2064656c65676174652063616c6c206661696c65644b5242546f6b656e3a206d757374206861766520676f7665726e20726f6c6520a2646970667358221220f465a3494428abfd97b3fbfc13fd333f76ff23c8676e5c2c0ecd8ca971825ced64736f6c63430008070033",
  "linkReferences": {},
  "deployedLinkReferences": {}
}