{
  "_format": "hh-sol-artifact-1",
  "contractName": "KRBTokenV01",
  "sourceName": "contracts/KRBTokenV01.sol",
  "abi": [
    {
      "anonymous": false,
      "inputs": [
        {
          "indexed": false,
          "internalType": "address",
          "name": "previousAdmin",
          "type": "address"
        },
        {
          "indexed": false,
          "internalType": "address",
          "name": "newAdmin",
          "type": "address"
        }
      ],
      "name": "AdminChanged",
      "type": "event"
    },
    {
      "anonymous": false,
      "inputs": [
        {
          "indexed": true,
          "internalType": "address",
          "name": "owner",
          "type": "address"
        },
        {
          "indexed": true,
          "internalType": "address",
          "name": "spender",
          "type": "address"
        },
        {
          "indexed": false,
          "internalType": "uint256",
          "name": "value",
          "type": "uint256"
        }
      ],
      "name": "Approval",
      "type": "event"
    },
    {
      "anonymous": false,
      "inputs": [
        {
          "indexed": true,
          "internalType": "address",
          "name": "beacon",
          "type": "address"
        }
      ],
      "name": "BeaconUpgraded",
      "type": "event"
    },
    {
      "anonymous": false,
      "inputs": [
        {
          "indexed": false,
          "internalType": "bytes32",
          "name": "uuid",
          "type": "bytes32"
        },
        {
          "indexed": false,
          "internalType": "string",
          "name": "reason",
          "type": "string"
        }
      ],
      "name": "Deleted",
      "type": "event"
    },
    {
      "anonymous": false,
      "inputs": [
        {
          "indexed": false,
          "internalType": "bytes32",
          "name": "uuid",
          "type": "bytes32"
        },
        {
          "indexed": false,
          "internalType": "bytes32",
          "name": "disputedBy",
          "type": "bytes32"
        }
      ],
      "name": "Disputed",
      "type": "event"
    },
    {
      "anonymous": false,
      "inputs": [
        {
          "indexed": false,
          "internalType": "bytes32",
          "name": "uuid",
          "type": "bytes32"
        }
      ],
      "name": "Expired",
      "type": "event"
    },
    {
      "anonymous": false,
      "inputs": [
        {
          "indexed": false,
          "internalType": "bytes32",
          "name": "uuid",
          "type": "bytes32"
        },
        {
          "components": [
            {
              "internalType": "string",
              "name": "_context",
              "type": "string"
            },
            {
              "internalType": "string",
              "name": "_type",
              "type": "string"
            },
            {
              "internalType": "string",
              "name": "id",
              "type": "string"
            },
            {
              "components": [
                {
                  "internalType": "string",
                  "name": "id",
                  "type": "string"
                },
                {
                  "internalType": "address",
                  "name": "ethereumAddress",
                  "type": "address"
                }
              ],
              "internalType": "struct VCTypesV01.Issuer",
              "name": "issuer",
              "type": "tuple"
            },
            {
              "components": [
                {
                  "internalType": "string",
                  "name": "id",
                  "type": "string"
                },
                {
                  "internalType": "address",
                  "name": "ethereumAddress",
                  "type": "address"
                },
                {
                  "internalType": "string",
                  "name": "_type",
                  "type": "string"
                },
                {
                  "internalType": "string",
                  "name": "typeSchema",
                  "type": "string"
                },
                {
                  "internalType": "string",
                  "name": "value",
                  "type": "string"
                },
                {
                  "internalType": "string",
                  "name": "encrypted",
                  "type": "string"
                },
                {
                  "internalType": "uint8",
                  "name": "trust",
                  "type": "uint8"
                },
                {
                  "internalType": "uint256",
                  "name": "stake",
                  "type": "uint256"
                },
                {
                  "internalType": "uint256",
                  "name": "price",
                  "type": "uint256"
                },
                {
                  "internalType": "uint256",
                  "name": "nbf",
                  "type": "uint256"
                },
                {
                  "internalType": "uint256",
                  "name": "exp",
                  "type": "uint256"
                }
              ],
              "internalType": "struct VCTypesV01.CredentialSubject",
              "name": "credentialSubject",
              "type": "tuple"
            },
            {
              "components": [
                {
                  "internalType": "string",
                  "name": "id",
                  "type": "string"
                },
                {
                  "internalType": "string",
                  "name": "_type",
                  "type": "string"
                }
              ],
              "internalType": "struct VCTypesV01.CredentialSchema",
              "name": "credentialSchema",
              "type": "tuple"
            },
            {
              "internalType": "string",
              "name": "issuanceDate",
              "type": "string"
            },
            {
              "internalType": "string",
              "name": "expirationDate",
              "type": "string"
            }
          ],
          "indexed": false,
          "internalType": "struct VCTypesV01.VerifiableCredential",
          "name": "vc",
          "type": "tuple"
        }
      ],
      "name": "Issued",
      "type": "event"
    },
    {
      "anonymous": false,
      "inputs": [
        {
          "indexed": false,
          "internalType": "address",
          "name": "account",
          "type": "address"
        }
      ],
      "name": "Paused",
      "type": "event"
    },
    {
      "anonymous": false,
      "inputs": [
        {
          "indexed": false,
          "internalType": "bytes32",
          "name": "uuid",
          "type": "bytes32"
        },
        {
          "indexed": false,
          "internalType": "string",
          "name": "reason",
          "type": "string"
        }
      ],
      "name": "Revoked",
      "type": "event"
    },
    {
      "anonymous": false,
      "inputs": [
        {
          "indexed": true,
          "internalType": "bytes32",
          "name": "role",
          "type": "bytes32"
        },
        {
          "indexed": true,
          "internalType": "bytes32",
          "name": "previousAdminRole",
          "type": "bytes32"
        },
        {
          "indexed": true,
          "internalType": "bytes32",
          "name": "newAdminRole",
          "type": "bytes32"
        }
      ],
      "name": "RoleAdminChanged",
      "type": "event"
    },
    {
      "anonymous": false,
      "inputs": [
        {
          "indexed": true,
          "internalType": "bytes32",
          "name": "role",
          "type": "bytes32"
        },
        {
          "indexed": true,
          "internalType": "address",
          "name": "account",
          "type": "address"
        },
        {
          "indexed": true,
          "internalType": "address",
          "name": "sender",
          "type": "address"
        }
      ],
      "name": "RoleGranted",
      "type": "event"
    },
    {
      "anonymous": false,
      "inputs": [
        {
          "indexed": true,
          "internalType": "bytes32",
          "name": "role",
          "type": "bytes32"
        },
        {
          "indexed": true,
          "internalType": "address",
          "name": "account",
          "type": "address"
        },
        {
          "indexed": true,
          "internalType": "address",
          "name": "sender",
          "type": "address"
        }
      ],
      "name": "RoleRevoked",
      "type": "event"
    },
    {
      "anonymous": false,
      "inputs": [
        {
          "indexed": true,
          "internalType": "address",
          "name": "from",
          "type": "address"
        },
        {
          "indexed": true,
          "internalType": "address",
          "name": "to",
          "type": "address"
        },
        {
          "indexed": false,
          "internalType": "uint256",
          "name": "value",
          "type": "uint256"
        }
      ],
      "name": "Staked",
      "type": "event"
    },
    {
      "anonymous": false,
      "inputs": [
        {
          "indexed": false,
          "internalType": "bytes32",
          "name": "uuid",
          "type": "bytes32"
        },
        {
          "indexed": false,
          "internalType": "string",
          "name": "reason",
          "type": "string"
        }
      ],
      "name": "Suspended",
      "type": "event"
    },
    {
      "anonymous": false,
      "inputs": [
        {
          "indexed": true,
          "internalType": "address",
          "name": "from",
          "type": "address"
        },
        {
          "indexed": true,
          "internalType": "address",
          "name": "to",
          "type": "address"
        },
        {
          "indexed": false,
          "internalType": "uint256",
          "name": "value",
          "type": "uint256"
        }
      ],
      "name": "Transfer",
      "type": "event"
    },
    {
      "anonymous": false,
      "inputs": [
        {
          "indexed": false,
          "internalType": "address",
          "name": "account",
          "type": "address"
        }
      ],
      "name": "Unpaused",
      "type": "event"
    },
    {
      "anonymous": false,
      "inputs": [],
      "name": "Updated",
      "type": "event"
    },
    {
      "anonymous": false,
      "inputs": [
        {
          "indexed": true,
          "internalType": "address",
          "name": "implementation",
          "type": "address"
        }
      ],
      "name": "Upgraded",
      "type": "event"
    },
    {
      "inputs": [],
      "name": "DEFAULT_ADMIN_ROLE",
      "outputs": [
        {
          "internalType": "bytes32",
          "name": "",
          "type": "bytes32"
        }
      ],
      "stateMutability": "view",
      "type": "function"
    },
    {
      "inputs": [],
      "name": "DOMAIN_SEPARATOR",
      "outputs": [
        {
          "internalType": "bytes32",
          "name": "",
          "type": "bytes32"
        }
      ],
      "stateMutability": "view",
      "type": "function"
    },
    {
      "inputs": [],
      "name": "GOVERN_ROLE",
      "outputs": [
        {
          "internalType": "bytes32",
          "name": "",
          "type": "bytes32"
        }
      ],
      "stateMutability": "view",
      "type": "function"
    },
    {
      "inputs": [
        {
          "internalType": "address",
          "name": "owner",
          "type": "address"
        },
        {
          "internalType": "address",
          "name": "spender",
          "type": "address"
        }
      ],
      "name": "allowance",
      "outputs": [
        {
          "internalType": "uint256",
          "name": "",
          "type": "uint256"
        }
      ],
      "stateMutability": "view",
      "type": "function"
    },
    {
      "inputs": [
        {
          "internalType": "address",
          "name": "spender",
          "type": "address"
        },
        {
          "internalType": "uint256",
          "name": "amount",
          "type": "uint256"
        }
      ],
      "name": "approve",
      "outputs": [
        {
          "internalType": "bool",
          "name": "",
          "type": "bool"
        }
      ],
      "stateMutability": "nonpayable",
      "type": "function"
    },
    {
      "inputs": [
        {
          "internalType": "address",
          "name": "account",
          "type": "address"
        }
      ],
      "name": "balanceOf",
      "outputs": [
        {
          "internalType": "uint256",
          "name": "",
          "type": "uint256"
        }
      ],
      "stateMutability": "view",
      "type": "function"
    },
    {
      "inputs": [
        {
          "internalType": "uint256",
          "name": "amount",
          "type": "uint256"
        }
      ],
      "name": "burn",
      "outputs": [],
      "stateMutability": "nonpayable",
      "type": "function"
    },
    {
      "inputs": [
        {
          "internalType": "address",
          "name": "account",
          "type": "address"
        },
        {
          "internalType": "uint256",
          "name": "amount",
          "type": "uint256"
        }
      ],
      "name": "burnFrom",
      "outputs": [],
      "stateMutability": "nonpayable",
      "type": "function"
    },
    {
      "inputs": [
        {
          "internalType": "address",
          "name": "issuer",
          "type": "address"
        },
        {
          "internalType": "uint256",
          "name": "stake",
          "type": "uint256"
        }
      ],
      "name": "burnStake",
      "outputs": [],
      "stateMutability": "nonpayable",
      "type": "function"
    },
    {
      "inputs": [],
      "name": "decimals",
      "outputs": [
        {
          "internalType": "uint8",
          "name": "",
          "type": "uint8"
        }
      ],
      "stateMutability": "view",
      "type": "function"
    },
    {
      "inputs": [
        {
          "internalType": "address",
          "name": "spender",
          "type": "address"
        },
        {
          "internalType": "uint256",
          "name": "subtractedValue",
          "type": "uint256"
        }
      ],
      "name": "decreaseAllowance",
      "outputs": [
        {
          "internalType": "bool",
          "name": "",
          "type": "bool"
        }
      ],
      "stateMutability": "nonpayable",
      "type": "function"
    },
    {
      "inputs": [
        {
          "components": [
            {
              "internalType": "string",
              "name": "_context",
              "type": "string"
            },
            {
              "internalType": "string",
              "name": "_type",
              "type": "string"
            },
            {
              "internalType": "string",
              "name": "id",
              "type": "string"
            },
            {
              "components": [
                {
                  "internalType": "string",
                  "name": "id",
                  "type": "string"
                },
                {
                  "internalType": "address",
                  "name": "ethereumAddress",
                  "type": "address"
                }
              ],
              "internalType": "struct VCTypesV01.Issuer",
              "name": "issuer",
              "type": "tuple"
            },
            {
              "components": [
                {
                  "internalType": "string",
                  "name": "id",
                  "type": "string"
                },
                {
                  "internalType": "address",
                  "name": "ethereumAddress",
                  "type": "address"
                },
                {
                  "internalType": "string",
                  "name": "_type",
                  "type": "string"
                },
                {
                  "internalType": "string",
                  "name": "typeSchema",
                  "type": "string"
                },
                {
                  "internalType": "string",
                  "name": "value",
                  "type": "string"
                },
                {
                  "internalType": "string",
                  "name": "encrypted",
                  "type": "string"
                },
                {
                  "internalType": "uint8",
                  "name": "trust",
                  "type": "uint8"
                },
                {
                  "internalType": "uint256",
                  "name": "stake",
                  "type": "uint256"
                },
                {
                  "internalType": "uint256",
                  "name": "price",
                  "type": "uint256"
                },
                {
                  "internalType": "uint256",
                  "name": "nbf",
                  "type": "uint256"
                },
                {
                  "internalType": "uint256",
                  "name": "exp",
                  "type": "uint256"
                }
              ],
              "internalType": "struct VCTypesV01.CredentialSubject",
              "name": "credentialSubject",
              "type": "tuple"
            },
            {
              "components": [
                {
                  "internalType": "string",
                  "name": "id",
                  "type": "string"
                },
                {
                  "internalType": "string",
                  "name": "_type",
                  "type": "string"
                }
              ],
              "internalType": "struct VCTypesV01.CredentialSchema",
              "name": "credentialSchema",
              "type": "tuple"
            },
            {
              "internalType": "string",
              "name": "issuanceDate",
              "type": "string"
            },
            {
              "internalType": "string",
              "name": "expirationDate",
              "type": "string"
            }
          ],
          "internalType": "struct VCTypesV01.VerifiableCredential",
          "name": "vc",
          "type": "tuple"
        },
        {
          "internalType": "string",
          "name": "reason",
          "type": "string"
        }
      ],
      "name": "deleteVC",
      "outputs": [
        {
          "internalType": "bool",
          "name": "",
          "type": "bool"
        }
      ],
      "stateMutability": "nonpayable",
      "type": "function"
    },
    {
      "inputs": [
        {
          "components": [
            {
              "internalType": "string",
              "name": "_context",
              "type": "string"
            },
            {
              "internalType": "string",
              "name": "_type",
              "type": "string"
            },
            {
              "internalType": "string",
              "name": "id",
              "type": "string"
            },
            {
              "components": [
                {
                  "internalType": "string",
                  "name": "id",
                  "type": "string"
                },
                {
                  "internalType": "address",
                  "name": "ethereumAddress",
                  "type": "address"
                }
              ],
              "internalType": "struct VCTypesV01.Issuer",
              "name": "issuer",
              "type": "tuple"
            },
            {
              "components": [
                {
                  "internalType": "string",
                  "name": "id",
                  "type": "string"
                },
                {
                  "internalType": "address",
                  "name": "ethereumAddress",
                  "type": "address"
                },
                {
                  "internalType": "string",
                  "name": "_type",
                  "type": "string"
                },
                {
                  "internalType": "string",
                  "name": "typeSchema",
                  "type": "string"
                },
                {
                  "internalType": "string",
                  "name": "value",
                  "type": "string"
                },
                {
                  "internalType": "string",
                  "name": "encrypted",
                  "type": "string"
                },
                {
                  "internalType": "uint8",
                  "name": "trust",
                  "type": "uint8"
                },
                {
                  "internalType": "uint256",
                  "name": "stake",
                  "type": "uint256"
                },
                {
                  "internalType": "uint256",
                  "name": "price",
                  "type": "uint256"
                },
                {
                  "internalType": "uint256",
                  "name": "nbf",
                  "type": "uint256"
                },
                {
                  "internalType": "uint256",
                  "name": "exp",
                  "type": "uint256"
                }
              ],
              "internalType": "struct VCTypesV01.CredentialSubject",
              "name": "credentialSubject",
              "type": "tuple"
            },
            {
              "components": [
                {
                  "internalType": "string",
                  "name": "id",
                  "type": "string"
                },
                {
                  "internalType": "string",
                  "name": "_type",
                  "type": "string"
                }
              ],
              "internalType": "struct VCTypesV01.CredentialSchema",
              "name": "credentialSchema",
              "type": "tuple"
            },
            {
              "internalType": "string",
              "name": "issuanceDate",
              "type": "string"
            },
            {
              "internalType": "string",
              "name": "expirationDate",
              "type": "string"
            }
          ],
          "internalType": "struct VCTypesV01.VerifiableCredential",
          "name": "vc",
          "type": "tuple"
        },
        {
          "components": [
            {
              "internalType": "string",
              "name": "_context",
              "type": "string"
            },
            {
              "internalType": "string",
              "name": "_type",
              "type": "string"
            },
            {
              "internalType": "string",
              "name": "id",
              "type": "string"
            },
            {
              "components": [
                {
                  "internalType": "string",
                  "name": "id",
                  "type": "string"
                },
                {
                  "internalType": "address",
                  "name": "ethereumAddress",
                  "type": "address"
                }
              ],
              "internalType": "struct VCTypesV01.Issuer",
              "name": "issuer",
              "type": "tuple"
            },
            {
              "components": [
                {
                  "internalType": "string",
                  "name": "id",
                  "type": "string"
                },
                {
                  "internalType": "address",
                  "name": "ethereumAddress",
                  "type": "address"
                },
                {
                  "internalType": "string",
                  "name": "_type",
                  "type": "string"
                },
                {
                  "internalType": "string",
                  "name": "typeSchema",
                  "type": "string"
                },
                {
                  "internalType": "string",
                  "name": "value",
                  "type": "string"
                },
                {
                  "internalType": "string",
                  "name": "encrypted",
                  "type": "string"
                },
                {
                  "internalType": "uint8",
                  "name": "trust",
                  "type": "uint8"
                },
                {
                  "internalType": "uint256",
                  "name": "stake",
                  "type": "uint256"
                },
                {
                  "internalType": "uint256",
                  "name": "price",
                  "type": "uint256"
                },
                {
                  "internalType": "uint256",
                  "name": "nbf",
                  "type": "uint256"
                },
                {
                  "internalType": "uint256",
                  "name": "exp",
                  "type": "uint256"
                }
              ],
              "internalType": "struct VCTypesV01.CredentialSubject",
              "name": "credentialSubject",
              "type": "tuple"
            },
            {
              "components": [
                {
                  "internalType": "string",
                  "name": "id",
                  "type": "string"
                },
                {
                  "internalType": "string",
                  "name": "_type",
                  "type": "string"
                }
              ],
              "internalType": "struct VCTypesV01.CredentialSchema",
              "name": "credentialSchema",
              "type": "tuple"
            },
            {
              "internalType": "string",
              "name": "issuanceDate",
              "type": "string"
            },
            {
              "internalType": "string",
              "name": "expirationDate",
              "type": "string"
            }
          ],
          "internalType": "struct VCTypesV01.VerifiableCredential",
          "name": "disputeVC",
          "type": "tuple"
        }
      ],
      "name": "disputeVCByGovern",
      "outputs": [
        {
          "internalType": "bool",
          "name": "",
          "type": "bool"
        }
      ],
      "stateMutability": "nonpayable",
      "type": "function"
    },
    {
      "inputs": [
        {
          "components": [
            {
              "internalType": "string",
              "name": "_context",
              "type": "string"
            },
            {
              "internalType": "string",
              "name": "_type",
              "type": "string"
            },
            {
              "internalType": "string",
              "name": "id",
              "type": "string"
            },
            {
              "components": [
                {
                  "internalType": "string",
                  "name": "id",
                  "type": "string"
                },
                {
                  "internalType": "address",
                  "name": "ethereumAddress",
                  "type": "address"
                }
              ],
              "internalType": "struct VCTypesV01.Issuer",
              "name": "issuer",
              "type": "tuple"
            },
            {
              "components": [
                {
                  "internalType": "string",
                  "name": "id",
                  "type": "string"
                },
                {
                  "internalType": "address",
                  "name": "ethereumAddress",
                  "type": "address"
                },
                {
                  "internalType": "string",
                  "name": "_type",
                  "type": "string"
                },
                {
                  "internalType": "string",
                  "name": "typeSchema",
                  "type": "string"
                },
                {
                  "internalType": "string",
                  "name": "value",
                  "type": "string"
                },
                {
                  "internalType": "string",
                  "name": "encrypted",
                  "type": "string"
                },
                {
                  "internalType": "uint8",
                  "name": "trust",
                  "type": "uint8"
                },
                {
                  "internalType": "uint256",
                  "name": "stake",
                  "type": "uint256"
                },
                {
                  "internalType": "uint256",
                  "name": "price",
                  "type": "uint256"
                },
                {
                  "internalType": "uint256",
                  "name": "nbf",
                  "type": "uint256"
                },
                {
                  "internalType": "uint256",
                  "name": "exp",
                  "type": "uint256"
                }
              ],
              "internalType": "struct VCTypesV01.CredentialSubject",
              "name": "credentialSubject",
              "type": "tuple"
            },
            {
              "components": [
                {
                  "internalType": "string",
                  "name": "id",
                  "type": "string"
                },
                {
                  "internalType": "string",
                  "name": "_type",
                  "type": "string"
                }
              ],
              "internalType": "struct VCTypesV01.CredentialSchema",
              "name": "credentialSchema",
              "type": "tuple"
            },
            {
              "internalType": "string",
              "name": "issuanceDate",
              "type": "string"
            },
            {
              "internalType": "string",
              "name": "expirationDate",
              "type": "string"
            }
          ],
          "internalType": "struct VCTypesV01.VerifiableCredential",
          "name": "vc",
          "type": "tuple"
        }
      ],
      "name": "expiredVC",
      "outputs": [
        {
          "internalType": "bool",
          "name": "",
          "type": "bool"
        }
      ],
      "stateMutability": "nonpayable",
      "type": "function"
    },
    {
      "inputs": [],
      "name": "feePercentage",
      "outputs": [
        {
          "internalType": "uint256",
          "name": "",
          "type": "uint256"
        }
      ],
      "stateMutability": "view",
      "type": "function"
    },
    {
      "inputs": [],
      "name": "feesAvailableForWithdraw",
      "outputs": [
        {
          "internalType": "uint256",
          "name": "",
          "type": "uint256"
        }
      ],
      "stateMutability": "view",
      "type": "function"
    },
    {
      "inputs": [
        {
          "internalType": "bytes32",
          "name": "role",
          "type": "bytes32"
        }
      ],
      "name": "getRoleAdmin",
      "outputs": [
        {
          "internalType": "bytes32",
          "name": "",
          "type": "bytes32"
        }
      ],
      "stateMutability": "view",
      "type": "function"
    },
    {
      "inputs": [
        {
          "internalType": "bytes32",
          "name": "role",
          "type": "bytes32"
        },
        {
          "internalType": "uint256",
          "name": "index",
          "type": "uint256"
        }
      ],
      "name": "getRoleMember",
      "outputs": [
        {
          "internalType": "address",
          "name": "",
          "type": "address"
        }
      ],
      "stateMutability": "view",
      "type": "function"
    },
    {
      "inputs": [
        {
          "internalType": "bytes32",
          "name": "role",
          "type": "bytes32"
        }
      ],
      "name": "getRoleMemberCount",
      "outputs": [
        {
          "internalType": "uint256",
          "name": "",
          "type": "uint256"
        }
      ],
      "stateMutability": "view",
      "type": "function"
    },
    {
      "inputs": [
        {
          "components": [
            {
              "internalType": "string",
              "name": "_context",
              "type": "string"
            },
            {
              "internalType": "string",
              "name": "_type",
              "type": "string"
            },
            {
              "internalType": "string",
              "name": "id",
              "type": "string"
            },
            {
              "components": [
                {
                  "internalType": "string",
                  "name": "id",
                  "type": "string"
                },
                {
                  "internalType": "address",
                  "name": "ethereumAddress",
                  "type": "address"
                }
              ],
              "internalType": "struct VCTypesV01.Issuer",
              "name": "issuer",
              "type": "tuple"
            },
            {
              "components": [
                {
                  "internalType": "string",
                  "name": "id",
                  "type": "string"
                },
                {
                  "internalType": "address",
                  "name": "ethereumAddress",
                  "type": "address"
                },
                {
                  "internalType": "string",
                  "name": "_type",
                  "type": "string"
                },
                {
                  "internalType": "string",
                  "name": "typeSchema",
                  "type": "string"
                },
                {
                  "internalType": "string",
                  "name": "value",
                  "type": "string"
                },
                {
                  "internalType": "string",
                  "name": "encrypted",
                  "type": "string"
                },
                {
                  "internalType": "uint8",
                  "name": "trust",
                  "type": "uint8"
                },
                {
                  "internalType": "uint256",
                  "name": "stake",
                  "type": "uint256"
                },
                {
                  "internalType": "uint256",
                  "name": "price",
                  "type": "uint256"
                },
                {
                  "internalType": "uint256",
                  "name": "nbf",
                  "type": "uint256"
                },
                {
                  "internalType": "uint256",
                  "name": "exp",
                  "type": "uint256"
                }
              ],
              "internalType": "struct VCTypesV01.CredentialSubject",
              "name": "credentialSubject",
              "type": "tuple"
            },
            {
              "components": [
                {
                  "internalType": "string",
                  "name": "id",
                  "type": "string"
                },
                {
                  "internalType": "string",
                  "name": "_type",
                  "type": "string"
                }
              ],
              "internalType": "struct VCTypesV01.CredentialSchema",
              "name": "credentialSchema",
              "type": "tuple"
            },
            {
              "internalType": "string",
              "name": "issuanceDate",
              "type": "string"
            },
            {
              "internalType": "string",
              "name": "expirationDate",
              "type": "string"
            }
          ],
          "internalType": "struct VCTypesV01.VerifiableCredential",
          "name": "vc",
          "type": "tuple"
        }
      ],
      "name": "getUuid",
      "outputs": [
        {
          "internalType": "bytes32",
          "name": "",
          "type": "bytes32"
        }
      ],
      "stateMutability": "pure",
      "type": "function"
    },
    {
      "inputs": [
        {
          "components": [
            {
              "internalType": "string",
              "name": "_context",
              "type": "string"
            },
            {
              "internalType": "string",
              "name": "_type",
              "type": "string"
            },
            {
              "internalType": "string",
              "name": "id",
              "type": "string"
            },
            {
              "components": [
                {
                  "internalType": "string",
                  "name": "id",
                  "type": "string"
                },
                {
                  "internalType": "address",
                  "name": "ethereumAddress",
                  "type": "address"
                }
              ],
              "internalType": "struct VCTypesV01.Issuer",
              "name": "issuer",
              "type": "tuple"
            },
            {
              "components": [
                {
                  "internalType": "string",
                  "name": "id",
                  "type": "string"
                },
                {
                  "internalType": "address",
                  "name": "ethereumAddress",
                  "type": "address"
                },
                {
                  "internalType": "string",
                  "name": "_type",
                  "type": "string"
                },
                {
                  "internalType": "string",
                  "name": "typeSchema",
                  "type": "string"
                },
                {
                  "internalType": "string",
                  "name": "value",
                  "type": "string"
                },
                {
                  "internalType": "string",
                  "name": "encrypted",
                  "type": "string"
                },
                {
                  "internalType": "uint8",
                  "name": "trust",
                  "type": "uint8"
                },
                {
                  "internalType": "uint256",
                  "name": "stake",
                  "type": "uint256"
                },
                {
                  "internalType": "uint256",
                  "name": "price",
                  "type": "uint256"
                },
                {
                  "internalType": "uint256",
                  "name": "nbf",
                  "type": "uint256"
                },
                {
                  "internalType": "uint256",
                  "name": "exp",
                  "type": "uint256"
                }
              ],
              "internalType": "struct VCTypesV01.CredentialSubject",
              "name": "credentialSubject",
              "type": "tuple"
            },
            {
              "components": [
                {
                  "internalType": "string",
                  "name": "id",
                  "type": "string"
                },
                {
                  "internalType": "string",
                  "name": "_type",
                  "type": "string"
                }
              ],
              "internalType": "struct VCTypesV01.CredentialSchema",
              "name": "credentialSchema",
              "type": "tuple"
            },
            {
              "internalType": "string",
              "name": "issuanceDate",
              "type": "string"
            },
            {
              "internalType": "string",
              "name": "expirationDate",
              "type": "string"
            }
          ],
          "internalType": "struct VCTypesV01.VerifiableCredential",
          "name": "vc",
          "type": "tuple"
        }
      ],
      "name": "getVCStatus",
      "outputs": [
        {
          "internalType": "string",
          "name": "",
          "type": "string"
        }
      ],
      "stateMutability": "view",
      "type": "function"
    },
    {
      "inputs": [
        {
          "internalType": "bytes32",
          "name": "role",
          "type": "bytes32"
        },
        {
          "internalType": "address",
          "name": "account",
          "type": "address"
        }
      ],
      "name": "grantRole",
      "outputs": [],
      "stateMutability": "nonpayable",
      "type": "function"
    },
    {
      "inputs": [
        {
          "internalType": "bytes32",
          "name": "role",
          "type": "bytes32"
        },
        {
          "internalType": "address",
          "name": "account",
          "type": "address"
        }
      ],
      "name": "hasRole",
      "outputs": [
        {
          "internalType": "bool",
          "name": "",
          "type": "bool"
        }
      ],
      "stateMutability": "view",
      "type": "function"
    },
    {
      "inputs": [
        {
          "internalType": "address",
          "name": "spender",
          "type": "address"
        },
        {
          "internalType": "uint256",
          "name": "addedValue",
          "type": "uint256"
        }
      ],
      "name": "increaseAllowance",
      "outputs": [
        {
          "internalType": "bool",
          "name": "",
          "type": "bool"
        }
      ],
      "stateMutability": "nonpayable",
      "type": "function"
    },
    {
      "inputs": [
        {
          "internalType": "string",
          "name": "name",
          "type": "string"
        },
        {
          "internalType": "string",
          "name": "symbol",
          "type": "string"
        },
        {
          "internalType": "string",
          "name": "version",
          "type": "string"
        }
      ],
      "name": "initialize",
      "outputs": [],
      "stateMutability": "nonpayable",
      "type": "function"
    },
    {
      "inputs": [],
      "name": "maxStakeToIssue",
      "outputs": [
        {
          "internalType": "uint256",
          "name": "",
          "type": "uint256"
        }
      ],
      "stateMutability": "view",
      "type": "function"
    },
    {
      "inputs": [],
      "name": "minBalanceToIssue",
      "outputs": [
        {
          "internalType": "uint256",
          "name": "",
          "type": "uint256"
        }
      ],
      "stateMutability": "view",
      "type": "function"
    },
    {
      "inputs": [],
      "name": "minBalanceToReceive",
      "outputs": [
        {
          "internalType": "uint256",
          "name": "",
          "type": "uint256"
        }
      ],
      "stateMutability": "view",
      "type": "function"
    },
    {
      "inputs": [],
      "name": "minBalanceToTransfer",
      "outputs": [
        {
          "internalType": "uint256",
          "name": "",
          "type": "uint256"
        }
      ],
      "stateMutability": "view",
      "type": "function"
    },
    {
      "inputs": [],
      "name": "minPriceToIssue",
      "outputs": [
        {
          "internalType": "uint256",
          "name": "",
          "type": "uint256"
        }
      ],
      "stateMutability": "view",
      "type": "function"
    },
    {
      "inputs": [],
      "name": "minStakeToIssue",
      "outputs": [
        {
          "internalType": "uint256",
          "name": "",
          "type": "uint256"
        }
      ],
      "stateMutability": "view",
      "type": "function"
    },
    {
      "inputs": [
        {
          "internalType": "address",
          "name": "to",
          "type": "address"
        },
        {
          "internalType": "uint256",
          "name": "amount",
          "type": "uint256"
        }
      ],
      "name": "mint",
      "outputs": [],
      "stateMutability": "nonpayable",
      "type": "function"
    },
    {
      "inputs": [],
      "name": "name",
      "outputs": [
        {
          "internalType": "string",
          "name": "",
          "type": "string"
        }
      ],
      "stateMutability": "view",
      "type": "function"
    },
    {
      "inputs": [],
      "name": "pause",
      "outputs": [],
      "stateMutability": "nonpayable",
      "type": "function"
    },
    {
      "inputs": [],
      "name": "paused",
      "outputs": [
        {
          "internalType": "bool",
          "name": "",
          "type": "bool"
        }
      ],
      "stateMutability": "view",
      "type": "function"
    },
    {
      "inputs": [
        {
          "internalType": "address",
          "name": "dest",
          "type": "address"
        }
      ],
      "name": "payments",
      "outputs": [
        {
          "internalType": "uint256",
          "name": "",
          "type": "uint256"
        }
      ],
      "stateMutability": "view",
      "type": "function"
    },
    {
      "inputs": [
        {
          "components": [
            {
              "internalType": "string",
              "name": "_context",
              "type": "string"
            },
            {
              "internalType": "string",
              "name": "_type",
              "type": "string"
            },
            {
              "internalType": "string",
              "name": "id",
              "type": "string"
            },
            {
              "components": [
                {
                  "internalType": "string",
                  "name": "id",
                  "type": "string"
                },
                {
                  "internalType": "address",
                  "name": "ethereumAddress",
                  "type": "address"
                }
              ],
              "internalType": "struct VCTypesV01.Issuer",
              "name": "issuer",
              "type": "tuple"
            },
            {
              "components": [
                {
                  "internalType": "string",
                  "name": "id",
                  "type": "string"
                },
                {
                  "internalType": "address",
                  "name": "ethereumAddress",
                  "type": "address"
                },
                {
                  "internalType": "string",
                  "name": "_type",
                  "type": "string"
                },
                {
                  "internalType": "string",
                  "name": "typeSchema",
                  "type": "string"
                },
                {
                  "internalType": "string",
                  "name": "value",
                  "type": "string"
                },
                {
                  "internalType": "string",
                  "name": "encrypted",
                  "type": "string"
                },
                {
                  "internalType": "uint8",
                  "name": "trust",
                  "type": "uint8"
                },
                {
                  "internalType": "uint256",
                  "name": "stake",
                  "type": "uint256"
                },
                {
                  "internalType": "uint256",
                  "name": "price",
                  "type": "uint256"
                },
                {
                  "internalType": "uint256",
                  "name": "nbf",
                  "type": "uint256"
                },
                {
                  "internalType": "uint256",
                  "name": "exp",
                  "type": "uint256"
                }
              ],
              "internalType": "struct VCTypesV01.CredentialSubject",
              "name": "credentialSubject",
              "type": "tuple"
            },
            {
              "components": [
                {
                  "internalType": "string",
                  "name": "id",
                  "type": "string"
                },
                {
                  "internalType": "string",
                  "name": "_type",
                  "type": "string"
                }
              ],
              "internalType": "struct VCTypesV01.CredentialSchema",
              "name": "credentialSchema",
              "type": "tuple"
            },
            {
              "internalType": "string",
              "name": "issuanceDate",
              "type": "string"
            },
            {
              "internalType": "string",
              "name": "expirationDate",
              "type": "string"
            }
          ],
          "internalType": "struct VCTypesV01.VerifiableCredential",
          "name": "vc",
          "type": "tuple"
        },
        {
          "internalType": "bytes",
          "name": "proofValue",
          "type": "bytes"
        }
      ],
      "name": "registerVC",
      "outputs": [
        {
          "internalType": "bool",
          "name": "",
          "type": "bool"
        }
      ],
      "stateMutability": "payable",
      "type": "function"
    },
    {
      "inputs": [
        {
          "internalType": "bytes32",
          "name": "",
          "type": "bytes32"
        }
      ],
      "name": "registry",
      "outputs": [
        {
          "internalType": "enum KRBTokenV01.Status",
          "name": "credentialStatus",
          "type": "uint8"
        },
        {
          "internalType": "bytes32",
          "name": "disputedBy",
          "type": "bytes32"
        }
      ],
      "stateMutability": "view",
      "type": "function"
    },
    {
      "inputs": [
        {
          "internalType": "bytes32",
          "name": "role",
          "type": "bytes32"
        },
        {
          "internalType": "address",
          "name": "account",
          "type": "address"
        }
      ],
      "name": "renounceRole",
      "outputs": [],
      "stateMutability": "nonpayable",
      "type": "function"
    },
    {
      "inputs": [
        {
          "internalType": "bytes32",
          "name": "role",
          "type": "bytes32"
        },
        {
          "internalType": "address",
          "name": "account",
          "type": "address"
        }
      ],
      "name": "revokeRole",
      "outputs": [],
      "stateMutability": "nonpayable",
      "type": "function"
    },
    {
      "inputs": [
        {
          "components": [
            {
              "internalType": "string",
              "name": "_context",
              "type": "string"
            },
            {
              "internalType": "string",
              "name": "_type",
              "type": "string"
            },
            {
              "internalType": "string",
              "name": "id",
              "type": "string"
            },
            {
              "components": [
                {
                  "internalType": "string",
                  "name": "id",
                  "type": "string"
                },
                {
                  "internalType": "address",
                  "name": "ethereumAddress",
                  "type": "address"
                }
              ],
              "internalType": "struct VCTypesV01.Issuer",
              "name": "issuer",
              "type": "tuple"
            },
            {
              "components": [
                {
                  "internalType": "string",
                  "name": "id",
                  "type": "string"
                },
                {
                  "internalType": "address",
                  "name": "ethereumAddress",
                  "type": "address"
                },
                {
                  "internalType": "string",
                  "name": "_type",
                  "type": "string"
                },
                {
                  "internalType": "string",
                  "name": "typeSchema",
                  "type": "string"
                },
                {
                  "internalType": "string",
                  "name": "value",
                  "type": "string"
                },
                {
                  "internalType": "string",
                  "name": "encrypted",
                  "type": "string"
                },
                {
                  "internalType": "uint8",
                  "name": "trust",
                  "type": "uint8"
                },
                {
                  "internalType": "uint256",
                  "name": "stake",
                  "type": "uint256"
                },
                {
                  "internalType": "uint256",
                  "name": "price",
                  "type": "uint256"
                },
                {
                  "internalType": "uint256",
                  "name": "nbf",
                  "type": "uint256"
                },
                {
                  "internalType": "uint256",
                  "name": "exp",
                  "type": "uint256"
                }
              ],
              "internalType": "struct VCTypesV01.CredentialSubject",
              "name": "credentialSubject",
              "type": "tuple"
            },
            {
              "components": [
                {
                  "internalType": "string",
                  "name": "id",
                  "type": "string"
                },
                {
                  "internalType": "string",
                  "name": "_type",
                  "type": "string"
                }
              ],
              "internalType": "struct VCTypesV01.CredentialSchema",
              "name": "credentialSchema",
              "type": "tuple"
            },
            {
              "internalType": "string",
              "name": "issuanceDate",
              "type": "string"
            },
            {
              "internalType": "string",
              "name": "expirationDate",
              "type": "string"
            }
          ],
          "internalType": "struct VCTypesV01.VerifiableCredential",
          "name": "vc",
          "type": "tuple"
        },
        {
          "internalType": "string",
          "name": "reason",
          "type": "string"
        }
      ],
      "name": "revokeVC",
      "outputs": [
        {
          "internalType": "bool",
          "name": "",
          "type": "bool"
        }
      ],
      "stateMutability": "nonpayable",
      "type": "function"
    },
    {
      "inputs": [
        {
          "internalType": "address",
          "name": "issuer",
          "type": "address"
        }
      ],
      "name": "stakeOf",
      "outputs": [
        {
          "internalType": "uint256",
          "name": "",
          "type": "uint256"
        }
      ],
      "stateMutability": "view",
      "type": "function"
    },
    {
      "inputs": [
        {
          "internalType": "bytes4",
          "name": "interfaceId",
          "type": "bytes4"
        }
      ],
      "name": "supportsInterface",
      "outputs": [
        {
          "internalType": "bool",
          "name": "",
          "type": "bool"
        }
      ],
      "stateMutability": "view",
      "type": "function"
    },
    {
      "inputs": [
        {
          "components": [
            {
              "internalType": "string",
              "name": "_context",
              "type": "string"
            },
            {
              "internalType": "string",
              "name": "_type",
              "type": "string"
            },
            {
              "internalType": "string",
              "name": "id",
              "type": "string"
            },
            {
              "components": [
                {
                  "internalType": "string",
                  "name": "id",
                  "type": "string"
                },
                {
                  "internalType": "address",
                  "name": "ethereumAddress",
                  "type": "address"
                }
              ],
              "internalType": "struct VCTypesV01.Issuer",
              "name": "issuer",
              "type": "tuple"
            },
            {
              "components": [
                {
                  "internalType": "string",
                  "name": "id",
                  "type": "string"
                },
                {
                  "internalType": "address",
                  "name": "ethereumAddress",
                  "type": "address"
                },
                {
                  "internalType": "string",
                  "name": "_type",
                  "type": "string"
                },
                {
                  "internalType": "string",
                  "name": "typeSchema",
                  "type": "string"
                },
                {
                  "internalType": "string",
                  "name": "value",
                  "type": "string"
                },
                {
                  "internalType": "string",
                  "name": "encrypted",
                  "type": "string"
                },
                {
                  "internalType": "uint8",
                  "name": "trust",
                  "type": "uint8"
                },
                {
                  "internalType": "uint256",
                  "name": "stake",
                  "type": "uint256"
                },
                {
                  "internalType": "uint256",
                  "name": "price",
                  "type": "uint256"
                },
                {
                  "internalType": "uint256",
                  "name": "nbf",
                  "type": "uint256"
                },
                {
                  "internalType": "uint256",
                  "name": "exp",
                  "type": "uint256"
                }
              ],
              "internalType": "struct VCTypesV01.CredentialSubject",
              "name": "credentialSubject",
              "type": "tuple"
            },
            {
              "components": [
                {
                  "internalType": "string",
                  "name": "id",
                  "type": "string"
                },
                {
                  "internalType": "string",
                  "name": "_type",
                  "type": "string"
                }
              ],
              "internalType": "struct VCTypesV01.CredentialSchema",
              "name": "credentialSchema",
              "type": "tuple"
            },
            {
              "internalType": "string",
              "name": "issuanceDate",
              "type": "string"
            },
            {
              "internalType": "string",
              "name": "expirationDate",
              "type": "string"
            }
          ],
          "internalType": "struct VCTypesV01.VerifiableCredential",
          "name": "vc",
          "type": "tuple"
        },
        {
          "internalType": "string",
          "name": "reason",
          "type": "string"
        }
      ],
      "name": "suspendVC",
      "outputs": [
        {
          "internalType": "bool",
          "name": "",
          "type": "bool"
        }
      ],
      "stateMutability": "nonpayable",
      "type": "function"
    },
    {
      "inputs": [],
      "name": "symbol",
      "outputs": [
        {
          "internalType": "string",
          "name": "",
          "type": "string"
        }
      ],
      "stateMutability": "view",
      "type": "function"
    },
    {
      "inputs": [],
      "name": "totalSupply",
      "outputs": [
        {
          "internalType": "uint256",
          "name": "",
          "type": "uint256"
        }
      ],
      "stateMutability": "view",
      "type": "function"
    },
    {
      "inputs": [
        {
          "internalType": "address",
          "name": "recipient",
          "type": "address"
        },
        {
          "internalType": "uint256",
          "name": "amount",
          "type": "uint256"
        }
      ],
      "name": "transfer",
      "outputs": [
        {
          "internalType": "bool",
          "name": "",
          "type": "bool"
        }
      ],
      "stateMutability": "nonpayable",
      "type": "function"
    },
    {
      "inputs": [
        {
          "internalType": "address",
          "name": "sender",
          "type": "address"
        },
        {
          "internalType": "address",
          "name": "recipient",
          "type": "address"
        },
        {
          "internalType": "uint256",
          "name": "amount",
          "type": "uint256"
        }
      ],
      "name": "transferFrom",
      "outputs": [
        {
          "internalType": "bool",
          "name": "",
          "type": "bool"
        }
      ],
      "stateMutability": "nonpayable",
      "type": "function"
    },
    {
      "inputs": [],
      "name": "unpause",
      "outputs": [],
      "stateMutability": "nonpayable",
      "type": "function"
    },
    {
      "inputs": [
        {
          "internalType": "uint256",
          "name": "newMinBalanceToTransfer",
          "type": "uint256"
        },
        {
          "internalType": "uint256",
          "name": "newMinBalanceToReceive",
          "type": "uint256"
        },
        {
          "internalType": "uint256",
          "name": "newMinBalanceToIssue",
          "type": "uint256"
        },
        {
          "internalType": "uint256",
          "name": "newFeePercentage",
          "type": "uint256"
        },
        {
          "internalType": "uint256",
          "name": "newMinPrice",
          "type": "uint256"
        },
        {
          "internalType": "uint256",
          "name": "newMinStake",
          "type": "uint256"
        },
        {
          "internalType": "uint256",
          "name": "newMaxStake",
          "type": "uint256"
        }
      ],
      "name": "updateParameters",
      "outputs": [],
      "stateMutability": "nonpayable",
      "type": "function"
    },
    {
      "inputs": [
        {
          "internalType": "address",
          "name": "newImplementation",
          "type": "address"
        }
      ],
      "name": "upgradeTo",
      "outputs": [],
      "stateMutability": "nonpayable",
      "type": "function"
    },
    {
      "inputs": [
        {
          "internalType": "address",
          "name": "newImplementation",
          "type": "address"
        },
        {
          "internalType": "bytes",
          "name": "data",
          "type": "bytes"
        }
      ],
      "name": "upgradeToAndCall",
      "outputs": [],
      "stateMutability": "payable",
      "type": "function"
    },
    {
      "inputs": [
        {
          "internalType": "address payable",
          "name": "_to",
          "type": "address"
        },
        {
          "internalType": "uint256",
          "name": "_amount",
          "type": "uint256"
        }
      ],
      "name": "withdrawFees",
      "outputs": [],
      "stateMutability": "nonpayable",
      "type": "function"
    },
    {
      "inputs": [
        {
          "internalType": "address payable",
          "name": "payee",
          "type": "address"
        }
      ],
      "name": "withdrawPayments",
      "outputs": [],
      "stateMutability": "nonpayable",
      "type": "function"
    }
  ],
  "bytecode": "0x60a06040523060805234801561001457600080fd5b50608051615fcf62000046600039600081816112d701528181611317015281816114c101526115010152615fcf6000f3fe6080604052600436106102955760003560e01c80637ef502981161015b578063af4e720d116100c7578063af4e720d146107ab578063bcd68993146107c2578063c0d506d6146107e2578063ca15c87314610802578063ca2a8cfc14610822578063ce556f9d14610842578063d547741f14610862578063dd62ed3e14610882578063de5785d5146108c8578063de9d2b1c146108df578063dec9cafe146108f6578063e2982c2114610909578063e5a2b28e14610929578063ee2b1b4d1461094057600080fd5b80637ef50298146105ff5780638456cb5914610648578063888bb7b51461065d5780639010d07c1461067d57806391d14854146106aa57806395d89b41146106ca5780639c70287c146106df578063a001ecdd146106ff578063a217fddf14610716578063a457c2d71461072b578063a6487c531461074b578063a9059cbb1461076b578063ad3b1b471461078b57600080fd5b80633644e515116102055780633644e5151461045057806336568abe146104655780633659cfe61461048557806338b7f446146104a557806339509351146104c75780633f4ba83a146104e757806340c10f19146104fc578063426233601461051c57806342966c68146105535780634f1ef286146105735780635c975abb1461058657806370a082311461059f578063716f4d90146105bf57806379cc6790146105df57600080fd5b806301ffc9a71461029a57806306fdde03146102cf57806307a0d798146102f157806307a7729214610316578063095ea7b31461032d5780630e8bc0741461034d57806318160ddd1461036f57806323b872dd14610384578063248a9ca3146103a45780632a401e81146103d45780632f2ff15d146103f4578063313ce5671461041457806331b3eb9414610430575b600080fd5b3480156102a657600080fd5b506102ba6102b5366004614825565b610957565b60405190151581526020015b60405180910390f35b3480156102db57600080fd5b506102e4610982565b6040516102c691906148a7565b3480156102fd57600080fd5b506103086102935481565b6040519081526020016102c6565b34801561032257600080fd5b5061030861028f5481565b34801561033957600080fd5b506102ba6103483660046148df565b610a14565b34801561035957600080fd5b5061036d61036836600461490b565b610a2a565b005b34801561037b57600080fd5b5060cb54610308565b34801561039057600080fd5b506102ba61039f366004614957565b610b6f565b3480156103b057600080fd5b506103086103bf366004614998565b60009081526065602052604090206001015490565b3480156103e057600080fd5b506102ba6103ef366004614e15565b610c1b565b34801561040057600080fd5b5061036d61040f366004614e78565b6111ae565b34801561042057600080fd5b50604051601281526020016102c6565b34801561043c57600080fd5b5061036d61044b366004614ea8565b6111d9565b34801561045c57600080fd5b5061030861123f565b34801561047157600080fd5b5061036d610480366004614e78565b61124e565b34801561049157600080fd5b5061036d6104a0366004614ea8565b6112cc565b3480156104b157600080fd5b50610308600080516020615ef383398151915281565b3480156104d357600080fd5b506102ba6104e23660046148df565b611395565b3480156104f357600080fd5b5061036d6113d1565b34801561050857600080fd5b5061036d6105173660046148df565b611440565b34801561052857600080fd5b50610308610537366004614ea8565b6001600160a01b03166000908152610297602052604090205490565b34801561055f57600080fd5b5061036d61056e366004614998565b6114ac565b61036d610581366004614ec5565b6114b6565b34801561059257600080fd5b5061012d5460ff166102ba565b3480156105ab57600080fd5b506103086105ba366004614ea8565b61156c565b3480156105cb57600080fd5b506102ba6105da366004614f0a565b611587565b3480156105eb57600080fd5b5061036d6105fa3660046148df565b61178d565b34801561060b57600080fd5b5061063a61061a366004614998565b610296602052600090815260409020805460019091015460ff9091169082565b6040516102c6929190614f79565b34801561065457600080fd5b5061036d61180e565b34801561066957600080fd5b506102ba610678366004614fa5565b611879565b34801561068957600080fd5b5061069d610698366004614fe1565b6119e1565b6040516102c69190615003565b3480156106b657600080fd5b506102ba6106c5366004614e78565b6119f9565b3480156106d657600080fd5b506102e4611a24565b3480156106eb57600080fd5b5061036d6106fa3660046148df565b611a33565b34801561070b57600080fd5b506103086102945481565b34801561072257600080fd5b50610308600081565b34801561073757600080fd5b506102ba6107463660046148df565b611b8b565b34801561075757600080fd5b5061036d610766366004615017565b611c24565b34801561077757600080fd5b506102ba6107863660046148df565b611ceb565b34801561079757600080fd5b5061036d6107a63660046148df565b611cf8565b3480156107b757600080fd5b506103086102905481565b3480156107ce57600080fd5b506103086107dd366004614fa5565b611dee565b3480156107ee57600080fd5b506102e46107fd366004614fa5565b611df9565b34801561080e57600080fd5b5061030861081d366004614998565b611fc0565b34801561082e57600080fd5b506102ba61083d366004614f0a565b611fd7565b34801561084e57600080fd5b506102ba61085d366004614f0a565b6120a6565b34801561086e57600080fd5b5061036d61087d366004614e78565b612291565b34801561088e57600080fd5b5061030861089d36600461509e565b6001600160a01b03918216600090815260ca6020908152604080832093909416825291909152205490565b3480156108d457600080fd5b506103086102955481565b3480156108eb57600080fd5b506103086102925481565b6102ba610904366004614f0a565b6122b7565b34801561091557600080fd5b50610308610924366004614ea8565b612706565b34801561093557600080fd5b5061030861028e5481565b34801561094c57600080fd5b506103086102915481565b60006001600160e01b03198216635a05180f60e01b148061097c575061097c82612779565b92915050565b606060cc8054610991906150cc565b80601f01602080910402602001604051908101604052809291908181526020018280546109bd906150cc565b8015610a0a5780601f106109df57610100808354040283529160200191610a0a565b820191906000526020600020905b8154815290600101906020018083116109ed57829003601f168201915b5050505050905090565b6000610a213384846127ae565b50600192915050565b610a42600080516020615ef3833981519152336119f9565b610a9e5760405162461bcd60e51b81526020600482015260346024820152600080516020615f7a833981519152604482015273746f206368616e676520706172616d657465727360601b60648201526084015b60405180910390fd5b61028e87905561028f869055610290859055610294849055610291839055818111610b315760405162461bcd60e51b815260206004820152603f60248201527f4b5242546f6b656e3a206e65774d61785374616b65206d75737420626520677260448201527f6561746572206f7220657175616c207468616e206e65774d696e5374616b65006064820152608401610a95565b6102928290556102938190556040517ff2e795d4a33ae9a0d3282888375b8ae781ea4de1cbf101ac96150aa95ccff0b490600090a150505050505050565b6000610b7c8484846128d2565b6001600160a01b038416600090815260ca6020908152604080832033845290915290205482811015610c015760405162461bcd60e51b815260206004820152602860248201527f45524332303a207472616e7366657220616d6f756e74206578636565647320616044820152676c6c6f77616e636560c01b6064820152608401610a95565b610c0e85338584036127ae565b60019150505b9392505050565b6000610c35600080516020615ef3833981519152336119f9565b610c8a5760405162461bcd60e51b81526020600482015260326024820152600080516020615f7a833981519152604482015271746f207265736f6c7665206469737075746560701b6064820152608401610a95565b604051602001610cd2907f5b2256657269666961626c6543726564656e7469616c222c224469737075746581526b43726564656e7469616c225d60a01b6020820152602c0190565b604051602081830303815290604052805190602001208260200151604051602001610cfd9190615107565b6040516020818303038152906040528051906020012014610d7f5760405162461bcd60e51b815260206004820152603660248201527f4b5242546f6b656e3a206469737075746520636c61696d2074797065206d75736044820152751d08189948111a5cdc1d5d1950dc9959195b9d1a585b60521b6064820152608401610a95565b6060820151602001516001600160a01b03163314610df35760405162461bcd60e51b815260206004820152602b60248201527f4b5242546f6b656e3a20697373756572206d7573742062652074686520476f7660448201526a65726e206164647265737360a81b6064820152608401610a95565b8260400151604051602001610e089190615107565b60408051601f198184030181529082905280516020918201206080850151519092610e339201615107565b6040516020818303038152906040528051906020012014610ebc5760405162461bcd60e51b815260206004820152603c60248201527f4b5242546f6b656e3a206469737075746556432063726564656e7469616c537560448201527f626a6563742069642064696666657265732066726f6d205643206964000000006064820152608401610a95565b610ec582612a99565b6000610ed084611dee565b9050600080828152610296602052604090205460ff166005811115610ef757610ef7614f63565b14158015610f29575060026000828152610296602052604090205460ff166005811115610f2657610f26614f63565b14155b610f815760405162461bcd60e51b815260206004820152602360248201527f4b5242546f6b656e3a20564320737461746520616c72656164792064697370756044820152621d195960ea1b6064820152608401610a95565b6000610f8c84611dee565b60008381526102966020908152604091829020805460ff1916600217815560010183905581518581529081018390529192507f8e39eab2c454d024fb5c89b50dabc51f5068c7a283891d06aa91f5ba96acded1910160405180910390a16000818152610296602052604090819020805460ff19166001179055517f632a70c3617009ee20500487ed52cd53ce50635cd84cf177b09577715eae51db906110359083908790615267565b60405180910390a1600061104b6012600a61545e565b866080015160e0015161105e919061546d565b90508061029760008860600151602001516001600160a01b03166001600160a01b0316815260200190815260200160002054106111145760608601516020908101516001600160a01b0316600090815261029790915260409020546110c39082612dfa565b6060870180516020908101516001600160a01b039081166000908152610297835260408082209590955592518201519351858152931692600080516020615f3a833981519152910160405180910390a35b600061112b82886080015160c0015160ff16612e06565b905061113f87608001516020015182612e15565b61115187606001516020015182612e15565b600061115f6012600a61545e565b876080015160e00151611172919061546d565b9050600061118b82896080015160c0015160ff16612e06565b905061119f88608001516020015182612f5d565b50600198975050505050505050565b6000828152606560205260409020600101546111ca8133613036565b6111d4838361309a565b505050565b610229546040516351cff8d960e01b81526001600160a01b03909116906351cff8d99061120a908490600401615003565b600060405180830381600087803b15801561122457600080fd5b505af1158015611238573d6000803e3d6000fd5b5050505050565b60006112496130bc565b905090565b6001600160a01b03811633146112be5760405162461bcd60e51b815260206004820152602f60248201527f416363657373436f6e74726f6c3a2063616e206f6e6c792072656e6f756e636560448201526e103937b632b9903337b91039b2b63360891b6064820152608401610a95565b6112c88282613139565b5050565b306001600160a01b037f00000000000000000000000000000000000000000000000000000000000000001614156113155760405162461bcd60e51b8152600401610a959061548c565b7f00000000000000000000000000000000000000000000000000000000000000006001600160a01b031661134761315b565b6001600160a01b03161461136d5760405162461bcd60e51b8152600401610a95906154d8565b61137681613189565b60408051600080825260208201909252611392918391906131ee565b50565b33600081815260ca602090815260408083206001600160a01b03871684529091528120549091610a219185906113cc908690615524565b6127ae565b6113e9600080516020615ef3833981519152336119f9565b6114365760405162461bcd60e51b815260206004820152602a6024820152600080516020615f7a833981519152604482015269746f20756e706175736560b01b6064820152608401610a95565b61143e61332e565b565b611458600080516020615ef3833981519152336119f9565b6114a25760405162461bcd60e51b81526020600482015260276024820152600080516020615f7a8339815191526044820152661d1bc81b5a5b9d60ca1b6064820152608401610a95565b6112c88282612f5d565b6113923382612e15565b306001600160a01b037f00000000000000000000000000000000000000000000000000000000000000001614156114ff5760405162461bcd60e51b8152600401610a959061548c565b7f00000000000000000000000000000000000000000000000000000000000000006001600160a01b031661153161315b565b6001600160a01b0316146115575760405162461bcd60e51b8152600401610a95906154d8565b61156082613189565b6112c8828260016131ee565b6001600160a01b0316600090815260c9602052604090205490565b6080820151602001516000906001600160a01b031633146115ba5760405162461bcd60e51b8152600401610a959061553c565b60006115c584611dee565b905060016000828152610296602052604090205460ff1660058111156115ed576115ed614f63565b1461160a5760405162461bcd60e51b8152600401610a9590615592565b6000818152610296602052604090819020805460ff19169055517f761f6dc13136b4cb3a156f0ed2a2b0865663e8bae80e43eb200aaff89b223b8a9061165390839086906155c9565b60405180910390a160006116696012600a61545e565b856080015160e0015161167c919061546d565b9050600061169582876080015160c0015160ff16612e06565b90508161029760008860600151602001516001600160a01b03166001600160a01b03168152602001908152602001600020541061174b5760608601516020908101516001600160a01b0316600090815261029790915260409020546116fa9083612dfa565b6060870180516020908101516001600160a01b039081166000908152610297835260408082209590955592518201519351868152931692600080516020615f3a833981519152910160405180910390a35b61175d86606001516020015183612f5d565b61176f86608001516020015182612e15565b61178186606001516020015182612e15565b50600195945050505050565b6000611799833361089d565b9050818110156117f75760405162461bcd60e51b8152602060048201526024808201527f45524332303a206275726e20616d6f756e74206578636565647320616c6c6f77604482015263616e636560e01b6064820152608401610a95565b61180483338484036127ae565b6111d48383612e15565b611826600080516020615ef3833981519152336119f9565b6118715760405162461bcd60e51b81526020600482015260286024820152600080516020615f7a833981519152604482015267746f20706175736560c01b6064820152608401610a95565b61143e6133bd565b60008061188583611dee565b9050826080015161014001514211156119d15760006118a66012600a61545e565b846080015160e001516118b9919061546d565b90508061029760008660600151602001516001600160a01b03166001600160a01b03168152602001908152602001600020541061196f5760608401516020908101516001600160a01b03166000908152610297909152604090205461191e9082612dfa565b6060850180516020908101516001600160a01b039081166000908152610297835260408082209590955592518201519351858152931692600080516020615f3a833981519152910160405180910390a35b61198184606001516020015182612f5d565b60008281526102966020908152604091829020805460ff1916600517905590518381527f3077f64f92ad91c6479071531304fa3c1e0bb9b63e130c746f3a564292f0ddc6910160405180910390a1505b5050608001516101400151421190565b6000828152609760205260408120610c14908361343a565b60009182526065602090815260408084206001600160a01b0393909316845291905290205460ff1690565b606060cd8054610991906150cc565b611a4b600080516020615ef3833981519152336119f9565b611a955760405162461bcd60e51b81526020600482015260276024820152600080516020615f7a8339815191526044820152663a3790313ab93760c91b6064820152608401610a95565b6001600160a01b038216611afe5760405162461bcd60e51b815260206004820152602a60248201527f4b5242546f6b656e3a206275726e207374616b652066726f6d20746865207a65604482015269726f206164647265737360b01b6064820152608401610a95565b6001600160a01b0382166000908152610297602052604090205481116112c8576001600160a01b03821660009081526102976020526040902054611b429082612dfa565b6001600160a01b03831660008181526102976020526040808220939093559151600080516020615f3a83398151915290611b7f9085815260200190565b60405180910390a35050565b33600090815260ca602090815260408083206001600160a01b038616845290915281205482811015611c0d5760405162461bcd60e51b815260206004820152602560248201527f45524332303a2064656372656173656420616c6c6f77616e63652062656c6f77604482015264207a65726f60d81b6064820152608401610a95565b611c1a33858584036127ae565b5060019392505050565b600054610100900460ff16611c3f5760005460ff1615611c43565b303b155b611ca65760405162461bcd60e51b815260206004820152602e60248201527f496e697469616c697a61626c653a20636f6e747261637420697320616c72656160448201526d191e481a5b9a5d1a585b1a5e995960921b6064820152608401610a95565b600054610100900460ff16158015611cc8576000805461ffff19166101011790555b611cd3848484613446565b8015611ce5576000805461ff00191690555b50505050565b6000610a213384846128d2565b600261025c541415611d4c5760405162461bcd60e51b815260206004820152601f60248201527f5265656e7472616e637947756172643a207265656e7472616e742063616c6c006044820152606401610a95565b600261025c55611d6a600080516020615ef3833981519152336119f9565b611db85760405162461bcd60e51b815260206004820152602b6024820152600080516020615f7a83398151915260448201526a746f20776974686472617760a81b6064820152608401610a95565b61029554811115611dc857600080fd5b61029554611dd69082612dfa565b61029555611de482826134d4565b5050600161025c55565b600061097c8261353d565b60606000611e0683611dee565b6000818152610296602052604081205491925060ff90911690816005811115611e3157611e31614f63565b1415611e5a5750506040805180820190915260048152634e6f6e6560e01b602082015292915050565b6001816005811115611e6e57611e6e614f63565b1415611e99575050604080518082019091526006815265125cdcdd595960d21b602082015292915050565b6002816005811115611ead57611ead614f63565b1415611eda575050604080518082019091526008815267111a5cdc1d5d195960c21b602082015292915050565b6003816005811115611eee57611eee614f63565b1415611f1a57505060408051808201909152600781526614995d9bdad95960ca1b602082015292915050565b6004816005811115611f2e57611f2e614f63565b1415611f5c57505060408051808201909152600981526814dd5cdc195b99195960ba1b602082015292915050565b6005816005811115611f7057611f70614f63565b1415611f9c575050604080518082019091526007815266115e1c1a5c995960ca1b602082015292915050565b505060408051808201909152600581526422b93937b960d91b602082015292915050565b600081815260976020526040812061097c90613631565b6060820151602001516000906001600160a01b0316331461200a5760405162461bcd60e51b8152600401610a95906155e2565b600061201584611dee565b905060016000828152610296602052604090205460ff16600581111561203d5761203d614f63565b1461205a5760405162461bcd60e51b8152600401610a9590615592565b6000818152610296602052604090819020805460ff19166003179055517fc8d626f397822cbf88d2668dbdd8bac1a4a172c0d81425fde1526ef2b8195ca39061165390839086906155c9565b6060820151602001516000906001600160a01b031633146120d95760405162461bcd60e51b8152600401610a95906155e2565b60006120e484611dee565b905060016000828152610296602052604090205460ff16600581111561210c5761210c614f63565b146121295760405162461bcd60e51b8152600401610a9590615592565b6000818152610296602052604090819020805460ff19166004179055517f9f3ea3215e3320f6d705861aefc7d473557aff8cae1ac438222996d547233d359061217590839086906155c9565b60405180910390a1600061218b6012600a61545e565b856080015160e0015161219e919061546d565b905060006121b782876080015160c0015160ff16612e06565b90508161029760008860600151602001516001600160a01b03166001600160a01b03168152602001908152602001600020541061226d5760608601516020908101516001600160a01b03166000908152610297909152604090205461221c9083612dfa565b6060870180516020908101516001600160a01b039081166000908152610297835260408082209590955592518201519351868152931692600080516020615f3a833981519152910160405180910390a35b61227f86606001516020015183612f5d565b61178186608001516020015182612e15565b6000828152606560205260409020600101546122ad8133613036565b6111d48383613139565b6080820151602001516000906001600160a01b031633146122ea5760405162461bcd60e51b8152600401610a959061553c565b6102915434101561235e5760405162461bcd60e51b815260206004820152603860248201527f4b5242546f6b656e3a206d73672e76616c7565206d7573742062652067726561604482015277746572207468616e206d696e5072696365546f497373756560401b6064820152608401610a95565b600061236984611dee565b905061237e846060015160200151828561363b565b61238784612a99565b6000818152610296602052604081205460ff1660058111156123ab576123ab614f63565b146124195760405162461bcd60e51b815260206004820152603860248201527f4b5242546f6b656e3a2056657269666961626c652043726564656e7469616c206044820152771a185cda08185b1c9958591e481899595b881a5cdcdd595960421b6064820152608401610a95565b6102905461242e85606001516020015161156c565b10156124925760405162461bcd60e51b815260206004820152602d60248201527f4b5242546f6b656e3a2069737375657220646f6573206e6f742068617665206560448201526c6e6f7567682062616c616e636560981b6064820152608401610a95565b60006124a06012600a61545e565b856080015160e001516124b3919061546d565b90506102925481101580156124cb5750610293548111155b6125495760405162461bcd60e51b815260206004820152604360248201527f4b5242546f6b656e3a207374616b65206d757374206265206265747765656e2060448201527f6d696e5374616b65546f497373756520616e64206d61785374616b65546f497360648201526273756560e81b608482015260a401610a95565b61255b85606001516020015182612e15565b60608501516020908101516001600160a01b031660009081526102979091526040902054612589908261373d565b6060860180516020908101516001600160a01b03908116600090815261029783526040808220959095559251820151935185815292931691600080516020615f3a833981519152910160405180910390a3604080518082019091528060018152600060209182018190528481526102969091526040902081518154829060ff1916600183600581111561261e5761261e614f63565b0217905550602082015181600101559050507f632a70c3617009ee20500487ed52cd53ce50635cd84cf177b09577715eae51db8286604051612661929190615267565b60405180910390a1600061268082876080015160c0015160ff16612e06565b905061269486608001516020015182612f5d565b6126a686606001516020015182612f5d565b60006126c86126c18860800151610100015161029454613749565b6064613755565b6060880151602001519091506126e7906126e23484612dfa565b6134d4565b610295546126f5908261373d565b610295555060019695505050505050565b610229546040516371d4ed8d60e11b81526000916001600160a01b03169063e3a9db1a90612738908590600401615003565b602060405180830381865afa158015612755573d6000803e3d6000fd5b505050506040513d601f19601f8201168201806040525081019061097c919061562d565b60006001600160e01b03198216637965db0b60e01b148061097c57506301ffc9a760e01b6001600160e01b031983161461097c565b6001600160a01b0383166128105760405162461bcd60e51b8152602060048201526024808201527f45524332303a20617070726f76652066726f6d20746865207a65726f206164646044820152637265737360e01b6064820152608401610a95565b6001600160a01b0382166128715760405162461bcd60e51b815260206004820152602260248201527f45524332303a20617070726f766520746f20746865207a65726f206164647265604482015261737360f01b6064820152608401610a95565b6001600160a01b03838116600081815260ca602090815260408083209487168084529482529182902085905590518481527f8c5be1e5ebec7d5bd14f71427d1e84f3dd0314c0f7b2291e5b200ac8c7c3b925910160405180910390a3505050565b6001600160a01b0383166129365760405162461bcd60e51b815260206004820152602560248201527f45524332303a207472616e736665722066726f6d20746865207a65726f206164604482015264647265737360d81b6064820152608401610a95565b6001600160a01b0382166129985760405162461bcd60e51b815260206004820152602360248201527f45524332303a207472616e7366657220746f20746865207a65726f206164647260448201526265737360e81b6064820152608401610a95565b6129a3838383613761565b6001600160a01b038316600090815260c9602052604090205481811015612a1b5760405162461bcd60e51b815260206004820152602660248201527f45524332303a207472616e7366657220616d6f756e7420657863656564732062604482015265616c616e636560d01b6064820152608401610a95565b6001600160a01b03808516600090815260c96020526040808220858503905591851681529081208054849290612a52908490615524565b92505081905550826001600160a01b0316846001600160a01b0316600080516020615f5a83398151915284604051612a8c91815260200190565b60405180910390a3611ce5565b6060810151602001516001600160a01b0316612af75760405162461bcd60e51b815260206004820152601c60248201527f4b5242546f6b656e3a20626164206973737565722061646472657373000000006044820152606401610a95565b6080810151602001516001600160a01b0316612b655760405162461bcd60e51b815260206004820152602760248201527f4b5242546f6b656e3a206261642063726564656e7469616c5375626a656374206044820152666164647265737360c81b6064820152608401610a95565b608081015151604051612b7b9190602001615107565b60408051601f198184030181529082905280516020918201206060840151519092612ba69201615107565b604051602081830303815290604052805190602001201415612c285760405162461bcd60e51b815260206004820152603560248201527f4b5242546f6b656e3a2069737375657220444944206973207468652073616d6560448201527408185cc818dc9959195b9d1a585b14dd589a9958dd605a1b6064820152608401610a95565b348160800151610100015114612ca35760405162461bcd60e51b815260206004820152603a60248201527f4b5242546f6b656e3a206d73672e76616c756520646f6573206e6f74206d617460448201527963682063726564656e7469616c5375626a6563742e707269636560301b6064820152608401610a95565b8060800151602001516001600160a01b03168160600151602001516001600160a01b03161415612d375760405162461bcd60e51b815260206004820152603960248201527f4b5242546f6b656e3a20697373756572206164647265737320697320746865206044820152781cd85b5948185cc818dc9959195b9d1a585b14dd589a9958dd603a1b6064820152608401610a95565b806080015161012001514211612da25760405162461bcd60e51b815260206004820152602a60248201527f4b5242546f6b656e3a2056432069737375616e63654461746520697320696e206044820152697468652066757475726560b01b6064820152608401610a95565b8060800151610140015142106113925760405162461bcd60e51b815260206004820181905260248201527f4b5242546f6b656e3a2056432068617320616c726561647920657870697265646044820152606401610a95565b6000610c148284615646565b6000610c146126c18484613749565b6001600160a01b038216612e755760405162461bcd60e51b815260206004820152602160248201527f45524332303a206275726e2066726f6d20746865207a65726f206164647265736044820152607360f81b6064820152608401610a95565b612e8182600083613761565b6001600160a01b038216600090815260c9602052604090205481811015612ef55760405162461bcd60e51b815260206004820152602260248201527f45524332303a206275726e20616d6f756e7420657863656564732062616c616e604482015261636560f01b6064820152608401610a95565b6001600160a01b038316600090815260c960205260408120838303905560cb8054849290612f24908490615646565b90915550506040518281526000906001600160a01b03851690600080516020615f5a8339815191529060200160405180910390a3505050565b6001600160a01b038216612fb35760405162461bcd60e51b815260206004820152601f60248201527f45524332303a206d696e7420746f20746865207a65726f2061646472657373006044820152606401610a95565b612fbf60008383613761565b8060cb6000828254612fd19190615524565b90915550506001600160a01b038216600090815260c9602052604081208054839290612ffe908490615524565b90915550506040518181526001600160a01b03831690600090600080516020615f5a8339815191529060200160405180910390a35050565b61304082826119f9565b6112c857613058816001600160a01b031660146138d7565b6130638360206138d7565b60405160200161307492919061565d565b60408051601f198184030181529082905262461bcd60e51b8252610a95916004016148a7565b6130a48282613a72565b60008281526097602052604090206111d49082613af8565b60006112497f8b73c3c69bb8fe3d512ecc4cf759cc79239f7b179b0ffacaa9a75d522b39400f6130ec6101915490565b610192546040805160208101859052908101839052606081018290524660808201523060a082015260009060c0016040516020818303038152906040528051906020012090509392505050565b6131438282613b0d565b60008281526097602052604090206111d49082613b74565b7f360894a13ba1a3210667c828492db98dca3e2076cc3735a920a3ca505d382bbc546001600160a01b031690565b6131a1600080516020615ef3833981519152336119f9565b6113925760405162461bcd60e51b815260206004820152602a6024820152600080516020615f7a833981519152604482015269746f207570677261646560b01b6064820152608401610a95565b60006131f861315b565b905061320384613b89565b6000835111806132105750815b156132215761321f8484613c2e565b505b7f4910fdfa16fed3260ed0e7147f7cc6da11a60208b5b9406d12a635614ffd9143805460ff1661123857805460ff1916600117815560405161329c90869061326d908590602401615003565b60408051601f198184030181529190526020810180516001600160e01b0316631b2ce7f360e11b179052613c2e565b50805460ff191681556132ad61315b565b6001600160a01b0316826001600160a01b0316146133255760405162461bcd60e51b815260206004820152602f60248201527f45524331393637557067726164653a207570677261646520627265616b73206660448201526e75727468657220757067726164657360881b6064820152608401610a95565b61123885613d19565b61012d5460ff166133785760405162461bcd60e51b815260206004820152601460248201527314185d5cd8589b194e881b9bdd081c185d5cd95960621b6044820152606401610a95565b61012d805460ff191690557f5db9ee0a495bf2e6ff9c91a7834c1ba4fdd244a5e8aa4e537bd38aeae4b073aa335b6040516133b39190615003565b60405180910390a1565b61012d5460ff16156134045760405162461bcd60e51b815260206004820152601060248201526f14185d5cd8589b194e881c185d5cd95960821b6044820152606401610a95565b61012d805460ff191660011790557f62e78cea01bee320cd4e420270b5ea74000d11b0c9f74754ebdbfc544b05a2586133a63390565b6000610c148383613d59565b600054610100900460ff1661346d5760405162461bcd60e51b8152600401610a95906156cc565b613475613d83565b61347d613d83565b613485613d83565b61348d613d83565b6134978383613daa565b61349f613d83565b6134a7613df8565b6134af613d83565b6134b98382613e2c565b6134c1613e6f565b6134c9613f2a565b6111d4838383613f59565b6102295460405163f340fa0160e01b81526001600160a01b039091169063f340fa01908390613507908690600401615003565b6000604051808303818588803b15801561352057600080fd5b505af1158015613534573d6000803e3d6000fd5b50505050505050565b60007f63c4847aa3662952b34b8f76f3abc371c24535ee34fce5b3df34d029db924d4e60001b8260000151805190602001208360200151805190602001208460400151805190602001206135948660600151614041565b6135a1876080015161409a565b6135ae8860a00151614193565b60c0890151805160209182012060e08b01518051908301206040516136149a9998979695949301988952602089019790975260408801959095526060870193909352608086019190915260a085015260c084015260e08301526101008201526101200190565b604051602081830303815290604052805190602001209050919050565b600061097c825490565b6000613646836141e9565b905060006136548284614237565b90506001600160a01b0381166136bb5760405162461bcd60e51b815260206004820152602660248201527f4b5242546f6b656e3a20696e76616c6964207369676e6174757265206164647260448201526565737328302960d01b6064820152608401610a95565b846001600160a01b0316816001600160a01b0316146112385760405162461bcd60e51b815260206004820152603860248201527f4b5242546f6b656e3a207265636f76657265642061646472657373206469666660448201527732b93990333937b69032bc3832b1ba32b21039b4b3b732b960411b6064820152608401610a95565b6000610c148284615524565b6000610c14828461546d565b6000610c148284615717565b61376c83838361425b565b613784600080516020615ef3833981519152336119f9565b8061379657506001600160a01b038316155b806137a857506001600160a01b038216155b806137be575061028e546137bb8461156c565b10155b6138205760405162461bcd60e51b815260206004820152602d60248201527f4b5242546f6b656e3a2073656e64657220646f6573206e6f742068617665206560448201526c6e6f7567682062616c616e636560981b6064820152608401610a95565b613838600080516020615ef3833981519152336119f9565b8061384a57506001600160a01b038316155b8061385c57506001600160a01b038216155b80613872575061028f5461386f8361156c565b10155b6111d45760405162461bcd60e51b815260206004820152603060248201527f4b5242546f6b656e3a20726563697069656e7420646f6573206e6f742068617660448201526f6520656e6f7567682062616c616e636560801b6064820152608401610a95565b606060006138e683600261546d565b6138f1906002615524565b6001600160401b03811115613908576139086149b1565b6040519080825280601f01601f191660200182016040528015613932576020820181803683370190505b509050600360fc1b8160008151811061394d5761394d615739565b60200101906001600160f81b031916908160001a905350600f60fb1b8160018151811061397c5761397c615739565b60200101906001600160f81b031916908160001a90535060006139a084600261546d565b6139ab906001615524565b90505b6001811115613a23576f181899199a1a9b1b9c1cb0b131b232b360811b85600f16601081106139df576139df615739565b1a60f81b8282815181106139f5576139f5615739565b60200101906001600160f81b031916908160001a90535060049490941c93613a1c8161574f565b90506139ae565b508315610c145760405162461bcd60e51b815260206004820181905260248201527f537472696e67733a20686578206c656e67746820696e73756666696369656e746044820152606401610a95565b613a7c82826119f9565b6112c85760008281526065602090815260408083206001600160a01b03851684529091529020805460ff19166001179055613ab43390565b6001600160a01b0316816001600160a01b0316837f2f8788117e7eff1d82e926ec794901d17c78024a50270940304540a733656f0d60405160405180910390a45050565b6000610c14836001600160a01b0384166142c2565b613b1782826119f9565b156112c85760008281526065602090815260408083206001600160a01b0385168085529252808320805460ff1916905551339285917ff6391f5c32d9c69d2a47ea670b442974b53935d1edc7fd64eb21e047a839171b9190a45050565b6000610c14836001600160a01b038416614311565b803b613bed5760405162461bcd60e51b815260206004820152602d60248201527f455243313936373a206e657720696d706c656d656e746174696f6e206973206e60448201526c1bdd08184818dbdb9d1c9858dd609a1b6064820152608401610a95565b7f360894a13ba1a3210667c828492db98dca3e2076cc3735a920a3ca505d382bbc80546001600160a01b0319166001600160a01b0392909216919091179055565b6060823b613c8d5760405162461bcd60e51b815260206004820152602660248201527f416464726573733a2064656c65676174652063616c6c20746f206e6f6e2d636f6044820152651b9d1c9858dd60d21b6064820152608401610a95565b600080846001600160a01b031684604051613ca89190615107565b600060405180830381855af49150503d8060008114613ce3576040519150601f19603f3d011682016040523d82523d6000602084013e613ce8565b606091505b5091509150613d108282604051806060016040528060278152602001615f1360279139614404565b95945050505050565b613d2281613b89565b6040516001600160a01b038216907fbc7cd75a20ee27fd9adebab32041f755214dbc6bffa90cc0225b39da2e5c2d3b90600090a250565b6000826000018281548110613d7057613d70615739565b9060005260206000200154905092915050565b600054610100900460ff1661143e5760405162461bcd60e51b8152600401610a95906156cc565b600054610100900460ff16613dd15760405162461bcd60e51b8152600401610a95906156cc565b8151613de49060cc90602085019061477f565b5080516111d49060cd90602084019061477f565b600054610100900460ff16613e1f5760405162461bcd60e51b8152600401610a95906156cc565b61012d805460ff19169055565b600054610100900460ff16613e535760405162461bcd60e51b8152600401610a95906156cc565b8151602092830120815191909201206101919190915561019255565b600054610100900460ff16613e965760405162461bcd60e51b8152600401610a95906156cc565b604051613ea290614803565b604051809103906000f080158015613ebe573d6000803e3d6000fd5b5061022980546001600160a01b0319166001600160a01b039290921691821790556040805163204a7f0760e21b81529051638129fc1c9160048082019260009290919082900301818387803b158015613f1657600080fd5b505af1158015611ce5573d6000803e3d6000fd5b600054610100900460ff16613f515760405162461bcd60e51b8152600401610a95906156cc565b600161025c55565b600054610100900460ff16613f805760405162461bcd60e51b8152600401610a95906156cc565b613f8b60003361443d565b613fa3600080516020615ef38339815191523361443d565b613faf6012600a61545e565b613fba90606461546d565b61028e55613fca6012600a61545e565b613fd590606461546d565b61028f55600a610294556012613fec90600a61545e565b613ff790606461546d565b61029055655af3107a4000610291556140126012600a61545e565b61401d90600161546d565b6102925561402d6012600a61545e565b61403890600a61546d565b61029355505050565b8051805160209182012081830151604080517fabb691e6e52ceb1ff8b3df91dc14323057e88efa3252486ed994fd62706cdfaa948101949094528301919091526001600160a01b03166060820152600090608001613614565b60007f4b87db6c5998f503ac6519b5a7d74efcf2a230368deeaf54dd8bf078da459ff760001b82600001518051906020012083602001518460400151805190602001208560600151805190602001208660800151805190602001208760a00151805190602001208860c001518960e001518a61010001518b61012001518c61014001516040516020016136149c9b9a999897969594939291909b8c5260208c019a909a526001600160a01b039890981660408b015260608a0196909652608089019490945260a088019290925260c087015260ff1660e08601526101008501526101208401526101408301526101608201526101800190565b8051805160209182012081830151805190830120604080517f1a58b7c56676b62343f37f4f3603a07ae6dd78bea300689bcefef0f9498c6cc9948101949094528301919091526060820152600090608001613614565b600061097c6141f66130bc565b8360405161190160f01b6020820152602281018390526042810182905260009060620160405160208183030381529060405280519060200120905092915050565b60008060006142468585614447565b91509150614253816144b7565b509392505050565b61012d5460ff16156111d45760405162461bcd60e51b815260206004820152602a60248201527f45524332305061757361626c653a20746f6b656e207472616e736665722077686044820152691a5b19481c185d5cd95960b21b6064820152608401610a95565b60008181526001830160205260408120546143095750815460018181018455600084815260208082209093018490558454848252828601909352604090209190915561097c565b50600061097c565b600081815260018301602052604081205480156143fa576000614335600183615646565b855490915060009061434990600190615646565b90508181146143ae57600086600001828154811061436957614369615739565b906000526020600020015490508087600001848154811061438c5761438c615739565b6000918252602080832090910192909255918252600188019052604090208390555b85548690806143bf576143bf615766565b60019003818190600052602060002001600090559055856001016000868152602001908152602001600020600090556001935050505061097c565b600091505061097c565b60608315614413575081610c14565b8251156144235782518084602001fd5b8160405162461bcd60e51b8152600401610a9591906148a7565b6112c8828261309a565b60008082516041141561447e5760208301516040840151606085015160001a6144728782858561466d565b945094505050506144b0565b8251604014156144a8576020830151604084015161449d868383614750565b9350935050506144b0565b506000905060025b9250929050565b60008160048111156144cb576144cb614f63565b14156144d45750565b60018160048111156144e8576144e8614f63565b14156145315760405162461bcd60e51b815260206004820152601860248201527745434453413a20696e76616c6964207369676e617475726560401b6044820152606401610a95565b600281600481111561454557614545614f63565b14156145935760405162461bcd60e51b815260206004820152601f60248201527f45434453413a20696e76616c6964207369676e6174757265206c656e677468006044820152606401610a95565b60038160048111156145a7576145a7614f63565b14156146005760405162461bcd60e51b815260206004820152602260248201527f45434453413a20696e76616c6964207369676e6174757265202773272076616c604482015261756560f01b6064820152608401610a95565b600481600481111561461457614614614f63565b14156113925760405162461bcd60e51b815260206004820152602260248201527f45434453413a20696e76616c6964207369676e6174757265202776272076616c604482015261756560f01b6064820152608401610a95565b6000806fa2a8918ca85bafe22016d0b997e4df60600160ff1b0383111561469a5750600090506003614747565b8460ff16601b141580156146b257508460ff16601c14155b156146c35750600090506004614747565b6040805160008082526020820180845289905260ff881692820192909252606081018690526080810185905260019060a0016020604051602081039080840390855afa158015614717573d6000803e3d6000fd5b5050604051601f1901519150506001600160a01b03811661474057600060019250925050614747565b9150600090505b94509492505050565b6000806001600160ff1b03831660ff84901c601b016147718782888561466d565b935093505050935093915050565b82805461478b906150cc565b90600052602060002090601f0160209004810192826147ad57600085556147f3565b82601f106147c657805160ff19168380011785556147f3565b828001600101855582156147f3579182015b828111156147f35782518255916020019190600101906147d8565b506147ff929150614810565b5090565b6107768061577d83390190565b5b808211156147ff5760008155600101614811565b60006020828403121561483757600080fd5b81356001600160e01b031981168114610c1457600080fd5b60005b8381101561486a578181015183820152602001614852565b83811115611ce55750506000910152565b6000815180845261489381602086016020860161484f565b601f01601f19169290920160200192915050565b602081526000610c14602083018461487b565b6001600160a01b038116811461139257600080fd5b80356148da816148ba565b919050565b600080604083850312156148f257600080fd5b82356148fd816148ba565b946020939093013593505050565b600080600080600080600060e0888a03121561492657600080fd5b505085359760208701359750604087013596606081013596506080810135955060a0810135945060c0013592509050565b60008060006060848603121561496c57600080fd5b8335614977816148ba565b92506020840135614987816148ba565b929592945050506040919091013590565b6000602082840312156149aa57600080fd5b5035919050565b634e487b7160e01b600052604160045260246000fd5b604080519081016001600160401b03811182821017156149e9576149e96149b1565b60405290565b60405161016081016001600160401b03811182821017156149e9576149e96149b1565b60405161010081016001600160401b03811182821017156149e9576149e96149b1565b600082601f830112614a4657600080fd5b81356001600160401b0380821115614a6057614a606149b1565b604051601f8301601f19908116603f01168101908282118183101715614a8857614a886149b1565b81604052838152866020858801011115614aa157600080fd5b836020870160208301376000602085830101528094505050505092915050565b600060408284031215614ad357600080fd5b614adb6149c7565b905081356001600160401b03811115614af357600080fd5b614aff84828501614a35565b8252506020820135614b10816148ba565b602082015292915050565b803560ff811681146148da57600080fd5b60006101608284031215614b3f57600080fd5b614b476149ef565b905081356001600160401b0380821115614b6057600080fd5b614b6c85838601614a35565b8352614b7a602085016148cf565b60208401526040840135915080821115614b9357600080fd5b614b9f85838601614a35565b60408401526060840135915080821115614bb857600080fd5b614bc485838601614a35565b60608401526080840135915080821115614bdd57600080fd5b614be985838601614a35565b608084015260a0840135915080821115614c0257600080fd5b50614c0f84828501614a35565b60a083015250614c2160c08301614b1b565b60c082015260e082013560e082015261010080830135818301525061012080830135818301525061014080830135818301525092915050565b600060408284031215614c6c57600080fd5b614c746149c7565b905081356001600160401b0380821115614c8d57600080fd5b614c9985838601614a35565b83526020840135915080821115614caf57600080fd5b50614cbc84828501614a35565b60208301525092915050565b60006101008284031215614cdb57600080fd5b614ce3614a12565b905081356001600160401b0380821115614cfc57600080fd5b614d0885838601614a35565b83526020840135915080821115614d1e57600080fd5b614d2a85838601614a35565b60208401526040840135915080821115614d4357600080fd5b614d4f85838601614a35565b60408401526060840135915080821115614d6857600080fd5b614d7485838601614ac1565b60608401526080840135915080821115614d8d57600080fd5b614d9985838601614b2c565b608084015260a0840135915080821115614db257600080fd5b614dbe85838601614c5a565b60a084015260c0840135915080821115614dd757600080fd5b614de385838601614a35565b60c084015260e0840135915080821115614dfc57600080fd5b50614e0984828501614a35565b60e08301525092915050565b60008060408385031215614e2857600080fd5b82356001600160401b0380821115614e3f57600080fd5b614e4b86838701614cc8565b93506020850135915080821115614e6157600080fd5b50614e6e85828601614cc8565b9150509250929050565b60008060408385031215614e8b57600080fd5b823591506020830135614e9d816148ba565b809150509250929050565b600060208284031215614eba57600080fd5b8135610c14816148ba565b60008060408385031215614ed857600080fd5b8235614ee3816148ba565b915060208301356001600160401b03811115614efe57600080fd5b614e6e85828601614a35565b60008060408385031215614f1d57600080fd5b82356001600160401b0380821115614f3457600080fd5b614f4086838701614cc8565b93506020850135915080821115614f5657600080fd5b50614e6e85828601614a35565b634e487b7160e01b600052602160045260246000fd5b6040810160068410614f9b57634e487b7160e01b600052602160045260246000fd5b9281526020015290565b600060208284031215614fb757600080fd5b81356001600160401b03811115614fcd57600080fd5b614fd984828501614cc8565b949350505050565b60008060408385031215614ff457600080fd5b50508035926020909101359150565b6001600160a01b0391909116815260200190565b60008060006060848603121561502c57600080fd5b83356001600160401b038082111561504357600080fd5b61504f87838801614a35565b9450602086013591508082111561506557600080fd5b61507187838801614a35565b9350604086013591508082111561508757600080fd5b5061509486828701614a35565b9150509250925092565b600080604083850312156150b157600080fd5b82356150bc816148ba565b91506020830135614e9d816148ba565b600181811c908216806150e057607f821691505b6020821081141561510157634e487b7160e01b600052602260045260246000fd5b50919050565b6000825161511981846020870161484f565b9190910192915050565b6000815160408452615138604085018261487b565b6020938401516001600160a01b0316949093019390935250919050565b6000610160825181855261516b8286018261487b565b915050602083015161518860208601826001600160a01b03169052565b50604083015184820360408601526151a0828261487b565b915050606083015184820360608601526151ba828261487b565b915050608083015184820360808601526151d4828261487b565b91505060a083015184820360a08601526151ee828261487b565b91505060c083015161520560c086018260ff169052565b5060e08381015190850152610100808401519085015261012080840151908501526101409283015192909301919091525090565b600081516040845261524e604085018261487b565b905060208301518482036020860152613d10828261487b565b828152604060208201526000825161010080604085015261528c61014085018361487b565b91506020850151603f19808685030160608701526152aa848361487b565b935060408701519150808685030160808701526152c7848361487b565b935060608701519150808685030160a08701526152e48483615123565b935060808701519150808685030160c08701526153018483615155565b935060a08701519150808685030160e087015261531e8483615239565b935060c0870151915080868503018387015261533a848361487b565b935060e087015192508086850301610120870152505061535a828261487b565b9695505050505050565b634e487b7160e01b600052601160045260246000fd5b600181815b808511156153b557816000190482111561539b5761539b615364565b808516156153a857918102915b93841c939080029061537f565b509250929050565b6000826153cc5750600161097c565b816153d95750600061097c565b81600181146153ef57600281146153f957615415565b600191505061097c565b60ff84111561540a5761540a615364565b50506001821b61097c565b5060208310610133831016604e8410600b8410161715615438575081810a61097c565b615442838361537a565b806000190482111561545657615456615364565b029392505050565b6000610c1460ff8416836153bd565b600081600019048311821515161561548757615487615364565b500290565b6020808252602c908201527f46756e6374696f6e206d7573742062652063616c6c6564207468726f7567682060408201526b19195b1959d85d1958d85b1b60a21b606082015260800190565b6020808252602c908201527f46756e6374696f6e206d7573742062652063616c6c6564207468726f7567682060408201526b6163746976652070726f787960a01b606082015260800190565b6000821982111561553757615537615364565b500190565b60208082526036908201527f4b5242546f6b656e3a2073656e646572206d757374206265207468652063726560408201527564656e7469616c5375626a656374206164647265737360501b606082015260800190565b6020808252601d908201527f4b5242546f6b656e3a207374617465206973206e6f7420497373756564000000604082015260600190565b828152604060208201526000614fd9604083018461487b565b6020808252602b908201527f4b5242546f6b656e3a2073656e646572206d757374206265207468652069737360408201526a756572206164647265737360a81b606082015260800190565b60006020828403121561563f57600080fd5b5051919050565b60008282101561565857615658615364565b500390565b76020b1b1b2b9b9a1b7b73a3937b61d1030b1b1b7bab73a1604d1b81526000835161568f81601785016020880161484f565b7001034b99036b4b9b9b4b733903937b6329607d1b60179184019182015283516156c081602884016020880161484f565b01602801949350505050565b6020808252602b908201527f496e697469616c697a61626c653a20636f6e7472616374206973206e6f74206960408201526a6e697469616c697a696e6760a81b606082015260800190565b60008261573457634e487b7160e01b600052601260045260246000fd5b500490565b634e487b7160e01b600052603260045260246000fd5b60008161575e5761575e615364565b506000190190565b634e487b7160e01b600052603160045260246000fdfe608060405234801561001057600080fd5b50610756806100206000396000f3fe6080604052600436106100605760003560e01c806351cff8d914610065578063715018a6146100875780638129fc1c1461009c5780638da5cb5b146100b1578063e3a9db1a146100e3578063f2fde38b14610127578063f340fa0114610147575b600080fd5b34801561007157600080fd5b50610085610080366004610656565b61015a565b005b34801561009357600080fd5b50610085610201565b3480156100a857600080fd5b5061008561023c565b3480156100bd57600080fd5b506100c66102fd565b6040516001600160a01b0390911681526020015b60405180910390f35b3480156100ef57600080fd5b506101196100fe366004610656565b6001600160a01b031660009081526065602052604090205490565b6040519081526020016100da565b34801561013357600080fd5b50610085610142366004610656565b61030c565b610085610155366004610656565b6103a9565b336101636102fd565b6001600160a01b0316146101925760405162461bcd60e51b81526004016101899061067a565b60405180910390fd5b6001600160a01b03811660008181526065602052604081208054919055906101ba9082610442565b816001600160a01b03167f7084f5476618d8e60b11ef0d7d3f06914655adb8793e28ff7f018d4c76d505d5826040516101f591815260200190565b60405180910390a25050565b3361020a6102fd565b6001600160a01b0316146102305760405162461bcd60e51b81526004016101899061067a565b61023a600061055d565b565b600054610100900460ff166102575760005460ff161561025b565b303b155b6102be5760405162461bcd60e51b815260206004820152602e60248201527f496e697469616c697a61626c653a20636f6e747261637420697320616c72656160448201526d191e481a5b9a5d1a585b1a5e995960921b6064820152608401610189565b600054610100900460ff161580156102e0576000805461ffff19166101011790555b6102e86105af565b80156102fa576000805461ff00191690555b50565b6033546001600160a01b031690565b336103156102fd565b6001600160a01b03161461033b5760405162461bcd60e51b81526004016101899061067a565b6001600160a01b0381166103a05760405162461bcd60e51b815260206004820152602660248201527f4f776e61626c653a206e6577206f776e657220697320746865207a65726f206160448201526564647265737360d01b6064820152608401610189565b6102fa8161055d565b336103b26102fd565b6001600160a01b0316146103d85760405162461bcd60e51b81526004016101899061067a565b6001600160a01b0381166000908152606560205260408120805434928392916104029084906106af565b90915550506040518181526001600160a01b038316907f2da466a7b24304f47e87fa2e1e5a81b9831ce54fec19055ce277ca2f39ba42c4906020016101f5565b804710156104925760405162461bcd60e51b815260206004820152601d60248201527f416464726573733a20696e73756666696369656e742062616c616e63650000006044820152606401610189565b6000826001600160a01b03168260405160006040518083038185875af1925050503d80600081146104df576040519150601f19603f3d011682016040523d82523d6000602084013e6104e4565b606091505b50509050806105585760405162461bcd60e51b815260206004820152603a60248201527f416464726573733a20756e61626c6520746f2073656e642076616c75652c20726044820152791958da5c1a595b9d081b585e481a185d99481c995d995c9d195960321b6064820152608401610189565b505050565b603380546001600160a01b038381166001600160a01b0319831681179093556040519116919082907f8be0079c531659141344cd1fd0a4f28419497f9722a3daafe3b4186f6b6457e090600090a35050565b600054610100900460ff166105d65760405162461bcd60e51b8152600401610189906106d5565b6105de6105ea565b6105e6610611565b61023a5b600054610100900460ff1661023a5760405162461bcd60e51b8152600401610189906106d5565b600054610100900460ff166106385760405162461bcd60e51b8152600401610189906106d5565b61023a3361055d565b6001600160a01b03811681146102fa57600080fd5b60006020828403121561066857600080fd5b813561067381610641565b9392505050565b6020808252818101527f4f776e61626c653a2063616c6c6572206973206e6f7420746865206f776e6572604082015260600190565b600082198211156106d057634e487b7160e01b600052601160045260246000fd5b500190565b6020808252602b908201527f496e697469616c697a61626c653a20636f6e7472616374206973206e6f74206960408201526a6e697469616c697a696e6760a81b60608201526080019056fea2646970667358221220483b02579c958947e30a2623d3e5cd1eb715378a2610106ec69d599a6715d8a864736f6c634300080c0033899bd46557473cb80307a9dabc297131ced39608330a2d29b2d52b660c03923e416464726573733a206c6f772d6c6576656c2064656c65676174652063616c6c206661696c65645dac0c1b1112564a045ba943c9d50270893e8e826c49be8e7073adc713ab7bd7ddf252ad1be2c89b69c2b068fc378daa952ba7f163c4a11628f55a4df523b3ef4b5242546f6b656e3a206d757374206861766520676f7665726e20726f6c6520a2646970667358221220434f1c74f40afc5121788742524c12fedf0e42433403025b1c5fa128e80b306764736f6c634300080c0033",
  "linkReferences": {},
  "deployedLinkReferences": {}
}