{
  "_format": "hh-sol-artifact-1",
  "contractName": "KRBTokenV01",
  "sourceName": "contracts/KRBTokenV01.sol",
  "abi": [
    {
      "inputs": [],
      "stateMutability": "nonpayable",
      "type": "constructor"
    },
    {
      "anonymous": false,
      "inputs": [
        {
          "indexed": false,
          "internalType": "address",
          "name": "previousAdmin",
          "type": "address"
        },
        {
          "indexed": false,
          "internalType": "address",
          "name": "newAdmin",
          "type": "address"
        }
      ],
      "name": "AdminChanged",
      "type": "event"
    },
    {
      "anonymous": false,
      "inputs": [
        {
          "indexed": true,
          "internalType": "address",
          "name": "owner",
          "type": "address"
        },
        {
          "indexed": true,
          "internalType": "address",
          "name": "spender",
          "type": "address"
        },
        {
          "indexed": false,
          "internalType": "uint256",
          "name": "value",
          "type": "uint256"
        }
      ],
      "name": "Approval",
      "type": "event"
    },
    {
      "anonymous": false,
      "inputs": [
        {
          "indexed": true,
          "internalType": "address",
          "name": "beacon",
          "type": "address"
        }
      ],
      "name": "BeaconUpgraded",
      "type": "event"
    },
    {
      "anonymous": false,
      "inputs": [
        {
          "indexed": false,
          "internalType": "bytes32",
          "name": "uuid",
          "type": "bytes32"
        },
        {
          "indexed": false,
          "internalType": "string",
          "name": "reason",
          "type": "string"
        }
      ],
      "name": "Deleted",
      "type": "event"
    },
    {
      "anonymous": false,
      "inputs": [
        {
          "indexed": false,
          "internalType": "bytes32",
          "name": "uuid",
          "type": "bytes32"
        },
        {
          "indexed": false,
          "internalType": "bytes32",
          "name": "disputedBy",
          "type": "bytes32"
        }
      ],
      "name": "Disputed",
      "type": "event"
    },
    {
      "anonymous": false,
      "inputs": [
        {
          "indexed": false,
          "internalType": "bytes32",
          "name": "uuid",
          "type": "bytes32"
        }
      ],
      "name": "Expired",
      "type": "event"
    },
    {
      "anonymous": false,
      "inputs": [
        {
          "indexed": false,
          "internalType": "bytes32",
          "name": "uuid",
          "type": "bytes32"
        },
        {
          "components": [
            {
              "internalType": "string",
              "name": "_context",
              "type": "string"
            },
            {
              "internalType": "string",
              "name": "_type",
              "type": "string"
            },
            {
              "internalType": "string",
              "name": "id",
              "type": "string"
            },
            {
              "components": [
                {
                  "internalType": "string",
                  "name": "id",
                  "type": "string"
                },
                {
                  "internalType": "address",
                  "name": "ethereumAddress",
                  "type": "address"
                }
              ],
              "internalType": "struct VCTypesV01.Issuer",
              "name": "issuer",
              "type": "tuple"
            },
            {
              "components": [
                {
                  "internalType": "string",
                  "name": "id",
                  "type": "string"
                },
                {
                  "internalType": "address",
                  "name": "ethereumAddress",
                  "type": "address"
                },
                {
                  "internalType": "string",
                  "name": "_type",
                  "type": "string"
                },
                {
                  "internalType": "string",
                  "name": "typeSchema",
                  "type": "string"
                },
                {
                  "internalType": "string",
                  "name": "value",
                  "type": "string"
                },
                {
                  "internalType": "string",
                  "name": "encrypted",
                  "type": "string"
                },
                {
                  "internalType": "uint8",
                  "name": "trust",
                  "type": "uint8"
                },
                {
                  "internalType": "uint256",
                  "name": "stake",
                  "type": "uint256"
                },
                {
                  "internalType": "uint256",
                  "name": "price",
                  "type": "uint256"
                },
                {
                  "internalType": "uint256",
                  "name": "nbf",
                  "type": "uint256"
                },
                {
                  "internalType": "uint256",
                  "name": "exp",
                  "type": "uint256"
                }
              ],
              "internalType": "struct VCTypesV01.CredentialSubject",
              "name": "credentialSubject",
              "type": "tuple"
            },
            {
              "components": [
                {
                  "internalType": "string",
                  "name": "id",
                  "type": "string"
                },
                {
                  "internalType": "string",
                  "name": "_type",
                  "type": "string"
                }
              ],
              "internalType": "struct VCTypesV01.CredentialSchema",
              "name": "credentialSchema",
              "type": "tuple"
            },
            {
              "internalType": "string",
              "name": "issuanceDate",
              "type": "string"
            },
            {
              "internalType": "string",
              "name": "expirationDate",
              "type": "string"
            }
          ],
          "indexed": false,
          "internalType": "struct VCTypesV01.VerifiableCredential",
          "name": "vc",
          "type": "tuple"
        }
      ],
      "name": "Issued",
      "type": "event"
    },
    {
      "anonymous": false,
      "inputs": [
        {
          "indexed": false,
          "internalType": "address",
          "name": "account",
          "type": "address"
        }
      ],
      "name": "Paused",
      "type": "event"
    },
    {
      "anonymous": false,
      "inputs": [
        {
          "indexed": false,
          "internalType": "bytes32",
          "name": "uuid",
          "type": "bytes32"
        },
        {
          "indexed": false,
          "internalType": "string",
          "name": "reason",
          "type": "string"
        }
      ],
      "name": "Revoked",
      "type": "event"
    },
    {
      "anonymous": false,
      "inputs": [
        {
          "indexed": true,
          "internalType": "bytes32",
          "name": "role",
          "type": "bytes32"
        },
        {
          "indexed": true,
          "internalType": "bytes32",
          "name": "previousAdminRole",
          "type": "bytes32"
        },
        {
          "indexed": true,
          "internalType": "bytes32",
          "name": "newAdminRole",
          "type": "bytes32"
        }
      ],
      "name": "RoleAdminChanged",
      "type": "event"
    },
    {
      "anonymous": false,
      "inputs": [
        {
          "indexed": true,
          "internalType": "bytes32",
          "name": "role",
          "type": "bytes32"
        },
        {
          "indexed": true,
          "internalType": "address",
          "name": "account",
          "type": "address"
        },
        {
          "indexed": true,
          "internalType": "address",
          "name": "sender",
          "type": "address"
        }
      ],
      "name": "RoleGranted",
      "type": "event"
    },
    {
      "anonymous": false,
      "inputs": [
        {
          "indexed": true,
          "internalType": "bytes32",
          "name": "role",
          "type": "bytes32"
        },
        {
          "indexed": true,
          "internalType": "address",
          "name": "account",
          "type": "address"
        },
        {
          "indexed": true,
          "internalType": "address",
          "name": "sender",
          "type": "address"
        }
      ],
      "name": "RoleRevoked",
      "type": "event"
    },
    {
      "anonymous": false,
      "inputs": [
        {
          "indexed": false,
          "internalType": "bytes32",
          "name": "uuid",
          "type": "bytes32"
        },
        {
          "indexed": false,
          "internalType": "string",
          "name": "reason",
          "type": "string"
        }
      ],
      "name": "Suspended",
      "type": "event"
    },
    {
      "anonymous": false,
      "inputs": [
        {
          "indexed": true,
          "internalType": "address",
          "name": "from",
          "type": "address"
        },
        {
          "indexed": true,
          "internalType": "address",
          "name": "to",
          "type": "address"
        },
        {
          "indexed": false,
          "internalType": "uint256",
          "name": "value",
          "type": "uint256"
        }
      ],
      "name": "Transfer",
      "type": "event"
    },
    {
      "anonymous": false,
      "inputs": [
        {
          "indexed": false,
          "internalType": "address",
          "name": "account",
          "type": "address"
        }
      ],
      "name": "Unpaused",
      "type": "event"
    },
    {
      "anonymous": false,
      "inputs": [
        {
          "indexed": false,
          "internalType": "string",
          "name": "change",
          "type": "string"
        }
      ],
      "name": "Updated",
      "type": "event"
    },
    {
      "anonymous": false,
      "inputs": [
        {
          "indexed": true,
          "internalType": "address",
          "name": "implementation",
          "type": "address"
        }
      ],
      "name": "Upgraded",
      "type": "event"
    },
    {
      "inputs": [],
      "name": "DEFAULT_ADMIN_ROLE",
      "outputs": [
        {
          "internalType": "bytes32",
          "name": "",
          "type": "bytes32"
        }
      ],
      "stateMutability": "view",
      "type": "function"
    },
    {
      "inputs": [],
      "name": "DOMAIN_SEPARATOR",
      "outputs": [
        {
          "internalType": "bytes32",
          "name": "",
          "type": "bytes32"
        }
      ],
      "stateMutability": "view",
      "type": "function"
    },
    {
      "inputs": [],
      "name": "GOVERN_ROLE",
      "outputs": [
        {
          "internalType": "bytes32",
          "name": "",
          "type": "bytes32"
        }
      ],
      "stateMutability": "view",
      "type": "function"
    },
    {
      "inputs": [
        {
          "internalType": "address",
          "name": "owner",
          "type": "address"
        },
        {
          "internalType": "address",
          "name": "spender",
          "type": "address"
        }
      ],
      "name": "allowance",
      "outputs": [
        {
          "internalType": "uint256",
          "name": "",
          "type": "uint256"
        }
      ],
      "stateMutability": "view",
      "type": "function"
    },
    {
      "inputs": [
        {
          "internalType": "address",
          "name": "spender",
          "type": "address"
        },
        {
          "internalType": "uint256",
          "name": "amount",
          "type": "uint256"
        }
      ],
      "name": "approve",
      "outputs": [
        {
          "internalType": "bool",
          "name": "",
          "type": "bool"
        }
      ],
      "stateMutability": "nonpayable",
      "type": "function"
    },
    {
      "inputs": [
        {
          "internalType": "address",
          "name": "account",
          "type": "address"
        }
      ],
      "name": "balanceOf",
      "outputs": [
        {
          "internalType": "uint256",
          "name": "",
          "type": "uint256"
        }
      ],
      "stateMutability": "view",
      "type": "function"
    },
    {
      "inputs": [
        {
          "internalType": "uint256",
          "name": "amount",
          "type": "uint256"
        }
      ],
      "name": "burn",
      "outputs": [],
      "stateMutability": "nonpayable",
      "type": "function"
    },
    {
      "inputs": [
        {
          "internalType": "address",
          "name": "account",
          "type": "address"
        },
        {
          "internalType": "uint256",
          "name": "amount",
          "type": "uint256"
        }
      ],
      "name": "burnFrom",
      "outputs": [],
      "stateMutability": "nonpayable",
      "type": "function"
    },
    {
      "inputs": [],
      "name": "decimals",
      "outputs": [
        {
          "internalType": "uint8",
          "name": "",
          "type": "uint8"
        }
      ],
      "stateMutability": "view",
      "type": "function"
    },
    {
      "inputs": [
        {
          "internalType": "address",
          "name": "spender",
          "type": "address"
        },
        {
          "internalType": "uint256",
          "name": "subtractedValue",
          "type": "uint256"
        }
      ],
      "name": "decreaseAllowance",
      "outputs": [
        {
          "internalType": "bool",
          "name": "",
          "type": "bool"
        }
      ],
      "stateMutability": "nonpayable",
      "type": "function"
    },
    {
      "inputs": [
        {
          "components": [
            {
              "internalType": "string",
              "name": "_context",
              "type": "string"
            },
            {
              "internalType": "string",
              "name": "_type",
              "type": "string"
            },
            {
              "internalType": "string",
              "name": "id",
              "type": "string"
            },
            {
              "components": [
                {
                  "internalType": "string",
                  "name": "id",
                  "type": "string"
                },
                {
                  "internalType": "address",
                  "name": "ethereumAddress",
                  "type": "address"
                }
              ],
              "internalType": "struct VCTypesV01.Issuer",
              "name": "issuer",
              "type": "tuple"
            },
            {
              "components": [
                {
                  "internalType": "string",
                  "name": "id",
                  "type": "string"
                },
                {
                  "internalType": "address",
                  "name": "ethereumAddress",
                  "type": "address"
                },
                {
                  "internalType": "string",
                  "name": "_type",
                  "type": "string"
                },
                {
                  "internalType": "string",
                  "name": "typeSchema",
                  "type": "string"
                },
                {
                  "internalType": "string",
                  "name": "value",
                  "type": "string"
                },
                {
                  "internalType": "string",
                  "name": "encrypted",
                  "type": "string"
                },
                {
                  "internalType": "uint8",
                  "name": "trust",
                  "type": "uint8"
                },
                {
                  "internalType": "uint256",
                  "name": "stake",
                  "type": "uint256"
                },
                {
                  "internalType": "uint256",
                  "name": "price",
                  "type": "uint256"
                },
                {
                  "internalType": "uint256",
                  "name": "nbf",
                  "type": "uint256"
                },
                {
                  "internalType": "uint256",
                  "name": "exp",
                  "type": "uint256"
                }
              ],
              "internalType": "struct VCTypesV01.CredentialSubject",
              "name": "credentialSubject",
              "type": "tuple"
            },
            {
              "components": [
                {
                  "internalType": "string",
                  "name": "id",
                  "type": "string"
                },
                {
                  "internalType": "string",
                  "name": "_type",
                  "type": "string"
                }
              ],
              "internalType": "struct VCTypesV01.CredentialSchema",
              "name": "credentialSchema",
              "type": "tuple"
            },
            {
              "internalType": "string",
              "name": "issuanceDate",
              "type": "string"
            },
            {
              "internalType": "string",
              "name": "expirationDate",
              "type": "string"
            }
          ],
          "internalType": "struct VCTypesV01.VerifiableCredential",
          "name": "vc",
          "type": "tuple"
        },
        {
          "internalType": "string",
          "name": "reason",
          "type": "string"
        }
      ],
      "name": "deleteVC",
      "outputs": [
        {
          "internalType": "bool",
          "name": "",
          "type": "bool"
        }
      ],
      "stateMutability": "nonpayable",
      "type": "function"
    },
    {
      "inputs": [
        {
          "components": [
            {
              "internalType": "string",
              "name": "_context",
              "type": "string"
            },
            {
              "internalType": "string",
              "name": "_type",
              "type": "string"
            },
            {
              "internalType": "string",
              "name": "id",
              "type": "string"
            },
            {
              "components": [
                {
                  "internalType": "string",
                  "name": "id",
                  "type": "string"
                },
                {
                  "internalType": "address",
                  "name": "ethereumAddress",
                  "type": "address"
                }
              ],
              "internalType": "struct VCTypesV01.Issuer",
              "name": "issuer",
              "type": "tuple"
            },
            {
              "components": [
                {
                  "internalType": "string",
                  "name": "id",
                  "type": "string"
                },
                {
                  "internalType": "address",
                  "name": "ethereumAddress",
                  "type": "address"
                },
                {
                  "internalType": "string",
                  "name": "_type",
                  "type": "string"
                },
                {
                  "internalType": "string",
                  "name": "typeSchema",
                  "type": "string"
                },
                {
                  "internalType": "string",
                  "name": "value",
                  "type": "string"
                },
                {
                  "internalType": "string",
                  "name": "encrypted",
                  "type": "string"
                },
                {
                  "internalType": "uint8",
                  "name": "trust",
                  "type": "uint8"
                },
                {
                  "internalType": "uint256",
                  "name": "stake",
                  "type": "uint256"
                },
                {
                  "internalType": "uint256",
                  "name": "price",
                  "type": "uint256"
                },
                {
                  "internalType": "uint256",
                  "name": "nbf",
                  "type": "uint256"
                },
                {
                  "internalType": "uint256",
                  "name": "exp",
                  "type": "uint256"
                }
              ],
              "internalType": "struct VCTypesV01.CredentialSubject",
              "name": "credentialSubject",
              "type": "tuple"
            },
            {
              "components": [
                {
                  "internalType": "string",
                  "name": "id",
                  "type": "string"
                },
                {
                  "internalType": "string",
                  "name": "_type",
                  "type": "string"
                }
              ],
              "internalType": "struct VCTypesV01.CredentialSchema",
              "name": "credentialSchema",
              "type": "tuple"
            },
            {
              "internalType": "string",
              "name": "issuanceDate",
              "type": "string"
            },
            {
              "internalType": "string",
              "name": "expirationDate",
              "type": "string"
            }
          ],
          "internalType": "struct VCTypesV01.VerifiableCredential",
          "name": "vc",
          "type": "tuple"
        },
        {
          "components": [
            {
              "internalType": "string",
              "name": "_context",
              "type": "string"
            },
            {
              "internalType": "string",
              "name": "_type",
              "type": "string"
            },
            {
              "internalType": "string",
              "name": "id",
              "type": "string"
            },
            {
              "components": [
                {
                  "internalType": "string",
                  "name": "id",
                  "type": "string"
                },
                {
                  "internalType": "address",
                  "name": "ethereumAddress",
                  "type": "address"
                }
              ],
              "internalType": "struct VCTypesV01.Issuer",
              "name": "issuer",
              "type": "tuple"
            },
            {
              "components": [
                {
                  "internalType": "string",
                  "name": "id",
                  "type": "string"
                },
                {
                  "internalType": "address",
                  "name": "ethereumAddress",
                  "type": "address"
                },
                {
                  "internalType": "string",
                  "name": "_type",
                  "type": "string"
                },
                {
                  "internalType": "string",
                  "name": "typeSchema",
                  "type": "string"
                },
                {
                  "internalType": "string",
                  "name": "value",
                  "type": "string"
                },
                {
                  "internalType": "string",
                  "name": "encrypted",
                  "type": "string"
                },
                {
                  "internalType": "uint8",
                  "name": "trust",
                  "type": "uint8"
                },
                {
                  "internalType": "uint256",
                  "name": "stake",
                  "type": "uint256"
                },
                {
                  "internalType": "uint256",
                  "name": "price",
                  "type": "uint256"
                },
                {
                  "internalType": "uint256",
                  "name": "nbf",
                  "type": "uint256"
                },
                {
                  "internalType": "uint256",
                  "name": "exp",
                  "type": "uint256"
                }
              ],
              "internalType": "struct VCTypesV01.CredentialSubject",
              "name": "credentialSubject",
              "type": "tuple"
            },
            {
              "components": [
                {
                  "internalType": "string",
                  "name": "id",
                  "type": "string"
                },
                {
                  "internalType": "string",
                  "name": "_type",
                  "type": "string"
                }
              ],
              "internalType": "struct VCTypesV01.CredentialSchema",
              "name": "credentialSchema",
              "type": "tuple"
            },
            {
              "internalType": "string",
              "name": "issuanceDate",
              "type": "string"
            },
            {
              "internalType": "string",
              "name": "expirationDate",
              "type": "string"
            }
          ],
          "internalType": "struct VCTypesV01.VerifiableCredential",
          "name": "disputeVC",
          "type": "tuple"
        }
      ],
      "name": "disputeVCByGovern",
      "outputs": [
        {
          "internalType": "bool",
          "name": "",
          "type": "bool"
        }
      ],
      "stateMutability": "nonpayable",
      "type": "function"
    },
    {
      "inputs": [
        {
          "components": [
            {
              "internalType": "string",
              "name": "_context",
              "type": "string"
            },
            {
              "internalType": "string",
              "name": "_type",
              "type": "string"
            },
            {
              "internalType": "string",
              "name": "id",
              "type": "string"
            },
            {
              "components": [
                {
                  "internalType": "string",
                  "name": "id",
                  "type": "string"
                },
                {
                  "internalType": "address",
                  "name": "ethereumAddress",
                  "type": "address"
                }
              ],
              "internalType": "struct VCTypesV01.Issuer",
              "name": "issuer",
              "type": "tuple"
            },
            {
              "components": [
                {
                  "internalType": "string",
                  "name": "id",
                  "type": "string"
                },
                {
                  "internalType": "address",
                  "name": "ethereumAddress",
                  "type": "address"
                },
                {
                  "internalType": "string",
                  "name": "_type",
                  "type": "string"
                },
                {
                  "internalType": "string",
                  "name": "typeSchema",
                  "type": "string"
                },
                {
                  "internalType": "string",
                  "name": "value",
                  "type": "string"
                },
                {
                  "internalType": "string",
                  "name": "encrypted",
                  "type": "string"
                },
                {
                  "internalType": "uint8",
                  "name": "trust",
                  "type": "uint8"
                },
                {
                  "internalType": "uint256",
                  "name": "stake",
                  "type": "uint256"
                },
                {
                  "internalType": "uint256",
                  "name": "price",
                  "type": "uint256"
                },
                {
                  "internalType": "uint256",
                  "name": "nbf",
                  "type": "uint256"
                },
                {
                  "internalType": "uint256",
                  "name": "exp",
                  "type": "uint256"
                }
              ],
              "internalType": "struct VCTypesV01.CredentialSubject",
              "name": "credentialSubject",
              "type": "tuple"
            },
            {
              "components": [
                {
                  "internalType": "string",
                  "name": "id",
                  "type": "string"
                },
                {
                  "internalType": "string",
                  "name": "_type",
                  "type": "string"
                }
              ],
              "internalType": "struct VCTypesV01.CredentialSchema",
              "name": "credentialSchema",
              "type": "tuple"
            },
            {
              "internalType": "string",
              "name": "issuanceDate",
              "type": "string"
            },
            {
              "internalType": "string",
              "name": "expirationDate",
              "type": "string"
            }
          ],
          "internalType": "struct VCTypesV01.VerifiableCredential",
          "name": "vc",
          "type": "tuple"
        }
      ],
      "name": "expiredVC",
      "outputs": [
        {
          "internalType": "bool",
          "name": "",
          "type": "bool"
        }
      ],
      "stateMutability": "nonpayable",
      "type": "function"
    },
    {
      "inputs": [],
      "name": "feePercentage",
      "outputs": [
        {
          "internalType": "uint256",
          "name": "",
          "type": "uint256"
        }
      ],
      "stateMutability": "view",
      "type": "function"
    },
    {
      "inputs": [],
      "name": "feesAvailableForWithdraw",
      "outputs": [
        {
          "internalType": "uint256",
          "name": "",
          "type": "uint256"
        }
      ],
      "stateMutability": "view",
      "type": "function"
    },
    {
      "inputs": [
        {
          "internalType": "bytes32",
          "name": "role",
          "type": "bytes32"
        }
      ],
      "name": "getRoleAdmin",
      "outputs": [
        {
          "internalType": "bytes32",
          "name": "",
          "type": "bytes32"
        }
      ],
      "stateMutability": "view",
      "type": "function"
    },
    {
      "inputs": [
        {
          "internalType": "bytes32",
          "name": "role",
          "type": "bytes32"
        },
        {
          "internalType": "uint256",
          "name": "index",
          "type": "uint256"
        }
      ],
      "name": "getRoleMember",
      "outputs": [
        {
          "internalType": "address",
          "name": "",
          "type": "address"
        }
      ],
      "stateMutability": "view",
      "type": "function"
    },
    {
      "inputs": [
        {
          "internalType": "bytes32",
          "name": "role",
          "type": "bytes32"
        }
      ],
      "name": "getRoleMemberCount",
      "outputs": [
        {
          "internalType": "uint256",
          "name": "",
          "type": "uint256"
        }
      ],
      "stateMutability": "view",
      "type": "function"
    },
    {
      "inputs": [
        {
          "components": [
            {
              "internalType": "string",
              "name": "_context",
              "type": "string"
            },
            {
              "internalType": "string",
              "name": "_type",
              "type": "string"
            },
            {
              "internalType": "string",
              "name": "id",
              "type": "string"
            },
            {
              "components": [
                {
                  "internalType": "string",
                  "name": "id",
                  "type": "string"
                },
                {
                  "internalType": "address",
                  "name": "ethereumAddress",
                  "type": "address"
                }
              ],
              "internalType": "struct VCTypesV01.Issuer",
              "name": "issuer",
              "type": "tuple"
            },
            {
              "components": [
                {
                  "internalType": "string",
                  "name": "id",
                  "type": "string"
                },
                {
                  "internalType": "address",
                  "name": "ethereumAddress",
                  "type": "address"
                },
                {
                  "internalType": "string",
                  "name": "_type",
                  "type": "string"
                },
                {
                  "internalType": "string",
                  "name": "typeSchema",
                  "type": "string"
                },
                {
                  "internalType": "string",
                  "name": "value",
                  "type": "string"
                },
                {
                  "internalType": "string",
                  "name": "encrypted",
                  "type": "string"
                },
                {
                  "internalType": "uint8",
                  "name": "trust",
                  "type": "uint8"
                },
                {
                  "internalType": "uint256",
                  "name": "stake",
                  "type": "uint256"
                },
                {
                  "internalType": "uint256",
                  "name": "price",
                  "type": "uint256"
                },
                {
                  "internalType": "uint256",
                  "name": "nbf",
                  "type": "uint256"
                },
                {
                  "internalType": "uint256",
                  "name": "exp",
                  "type": "uint256"
                }
              ],
              "internalType": "struct VCTypesV01.CredentialSubject",
              "name": "credentialSubject",
              "type": "tuple"
            },
            {
              "components": [
                {
                  "internalType": "string",
                  "name": "id",
                  "type": "string"
                },
                {
                  "internalType": "string",
                  "name": "_type",
                  "type": "string"
                }
              ],
              "internalType": "struct VCTypesV01.CredentialSchema",
              "name": "credentialSchema",
              "type": "tuple"
            },
            {
              "internalType": "string",
              "name": "issuanceDate",
              "type": "string"
            },
            {
              "internalType": "string",
              "name": "expirationDate",
              "type": "string"
            }
          ],
          "internalType": "struct VCTypesV01.VerifiableCredential",
          "name": "vc",
          "type": "tuple"
        }
      ],
      "name": "getUuid",
      "outputs": [
        {
          "internalType": "bytes32",
          "name": "",
          "type": "bytes32"
        }
      ],
      "stateMutability": "pure",
      "type": "function"
    },
    {
      "inputs": [
        {
          "components": [
            {
              "internalType": "string",
              "name": "_context",
              "type": "string"
            },
            {
              "internalType": "string",
              "name": "_type",
              "type": "string"
            },
            {
              "internalType": "string",
              "name": "id",
              "type": "string"
            },
            {
              "components": [
                {
                  "internalType": "string",
                  "name": "id",
                  "type": "string"
                },
                {
                  "internalType": "address",
                  "name": "ethereumAddress",
                  "type": "address"
                }
              ],
              "internalType": "struct VCTypesV01.Issuer",
              "name": "issuer",
              "type": "tuple"
            },
            {
              "components": [
                {
                  "internalType": "string",
                  "name": "id",
                  "type": "string"
                },
                {
                  "internalType": "address",
                  "name": "ethereumAddress",
                  "type": "address"
                },
                {
                  "internalType": "string",
                  "name": "_type",
                  "type": "string"
                },
                {
                  "internalType": "string",
                  "name": "typeSchema",
                  "type": "string"
                },
                {
                  "internalType": "string",
                  "name": "value",
                  "type": "string"
                },
                {
                  "internalType": "string",
                  "name": "encrypted",
                  "type": "string"
                },
                {
                  "internalType": "uint8",
                  "name": "trust",
                  "type": "uint8"
                },
                {
                  "internalType": "uint256",
                  "name": "stake",
                  "type": "uint256"
                },
                {
                  "internalType": "uint256",
                  "name": "price",
                  "type": "uint256"
                },
                {
                  "internalType": "uint256",
                  "name": "nbf",
                  "type": "uint256"
                },
                {
                  "internalType": "uint256",
                  "name": "exp",
                  "type": "uint256"
                }
              ],
              "internalType": "struct VCTypesV01.CredentialSubject",
              "name": "credentialSubject",
              "type": "tuple"
            },
            {
              "components": [
                {
                  "internalType": "string",
                  "name": "id",
                  "type": "string"
                },
                {
                  "internalType": "string",
                  "name": "_type",
                  "type": "string"
                }
              ],
              "internalType": "struct VCTypesV01.CredentialSchema",
              "name": "credentialSchema",
              "type": "tuple"
            },
            {
              "internalType": "string",
              "name": "issuanceDate",
              "type": "string"
            },
            {
              "internalType": "string",
              "name": "expirationDate",
              "type": "string"
            }
          ],
          "internalType": "struct VCTypesV01.VerifiableCredential",
          "name": "vc",
          "type": "tuple"
        }
      ],
      "name": "getVCStatus",
      "outputs": [
        {
          "internalType": "string",
          "name": "",
          "type": "string"
        }
      ],
      "stateMutability": "view",
      "type": "function"
    },
    {
      "inputs": [
        {
          "internalType": "bytes32",
          "name": "uuid",
          "type": "bytes32"
        }
      ],
      "name": "getVCStatusByUUid",
      "outputs": [
        {
          "internalType": "string",
          "name": "",
          "type": "string"
        }
      ],
      "stateMutability": "view",
      "type": "function"
    },
    {
      "inputs": [
        {
          "internalType": "bytes32",
          "name": "role",
          "type": "bytes32"
        },
        {
          "internalType": "address",
          "name": "account",
          "type": "address"
        }
      ],
      "name": "grantRole",
      "outputs": [],
      "stateMutability": "nonpayable",
      "type": "function"
    },
    {
      "inputs": [
        {
          "internalType": "bytes32",
          "name": "role",
          "type": "bytes32"
        },
        {
          "internalType": "address",
          "name": "account",
          "type": "address"
        }
      ],
      "name": "hasRole",
      "outputs": [
        {
          "internalType": "bool",
          "name": "",
          "type": "bool"
        }
      ],
      "stateMutability": "view",
      "type": "function"
    },
    {
      "inputs": [
        {
          "internalType": "address",
          "name": "spender",
          "type": "address"
        },
        {
          "internalType": "uint256",
          "name": "addedValue",
          "type": "uint256"
        }
      ],
      "name": "increaseAllowance",
      "outputs": [
        {
          "internalType": "bool",
          "name": "",
          "type": "bool"
        }
      ],
      "stateMutability": "nonpayable",
      "type": "function"
    },
    {
      "inputs": [],
      "name": "initialize",
      "outputs": [],
      "stateMutability": "nonpayable",
      "type": "function"
    },
    {
      "inputs": [],
      "name": "maxStakeToIssue",
      "outputs": [
        {
          "internalType": "uint256",
          "name": "",
          "type": "uint256"
        }
      ],
      "stateMutability": "view",
      "type": "function"
    },
    {
      "inputs": [],
      "name": "minBalanceToIssue",
      "outputs": [
        {
          "internalType": "uint256",
          "name": "",
          "type": "uint256"
        }
      ],
      "stateMutability": "view",
      "type": "function"
    },
    {
      "inputs": [],
      "name": "minBalanceToReceive",
      "outputs": [
        {
          "internalType": "uint256",
          "name": "",
          "type": "uint256"
        }
      ],
      "stateMutability": "view",
      "type": "function"
    },
    {
      "inputs": [],
      "name": "minBalanceToTransfer",
      "outputs": [
        {
          "internalType": "uint256",
          "name": "",
          "type": "uint256"
        }
      ],
      "stateMutability": "view",
      "type": "function"
    },
    {
      "inputs": [],
      "name": "minStakeToIssue",
      "outputs": [
        {
          "internalType": "uint256",
          "name": "",
          "type": "uint256"
        }
      ],
      "stateMutability": "view",
      "type": "function"
    },
    {
      "inputs": [
        {
          "internalType": "address",
          "name": "to",
          "type": "address"
        },
        {
          "internalType": "uint256",
          "name": "amount",
          "type": "uint256"
        }
      ],
      "name": "mint",
      "outputs": [],
      "stateMutability": "nonpayable",
      "type": "function"
    },
    {
      "inputs": [],
      "name": "name",
      "outputs": [
        {
          "internalType": "string",
          "name": "",
          "type": "string"
        }
      ],
      "stateMutability": "view",
      "type": "function"
    },
    {
      "inputs": [],
      "name": "pause",
      "outputs": [],
      "stateMutability": "nonpayable",
      "type": "function"
    },
    {
      "inputs": [],
      "name": "paused",
      "outputs": [
        {
          "internalType": "bool",
          "name": "",
          "type": "bool"
        }
      ],
      "stateMutability": "view",
      "type": "function"
    },
    {
      "inputs": [
        {
          "components": [
            {
              "internalType": "string",
              "name": "_context",
              "type": "string"
            },
            {
              "internalType": "string",
              "name": "_type",
              "type": "string"
            },
            {
              "internalType": "string",
              "name": "id",
              "type": "string"
            },
            {
              "components": [
                {
                  "internalType": "string",
                  "name": "id",
                  "type": "string"
                },
                {
                  "internalType": "address",
                  "name": "ethereumAddress",
                  "type": "address"
                }
              ],
              "internalType": "struct VCTypesV01.Issuer",
              "name": "issuer",
              "type": "tuple"
            },
            {
              "components": [
                {
                  "internalType": "string",
                  "name": "id",
                  "type": "string"
                },
                {
                  "internalType": "address",
                  "name": "ethereumAddress",
                  "type": "address"
                },
                {
                  "internalType": "string",
                  "name": "_type",
                  "type": "string"
                },
                {
                  "internalType": "string",
                  "name": "typeSchema",
                  "type": "string"
                },
                {
                  "internalType": "string",
                  "name": "value",
                  "type": "string"
                },
                {
                  "internalType": "string",
                  "name": "encrypted",
                  "type": "string"
                },
                {
                  "internalType": "uint8",
                  "name": "trust",
                  "type": "uint8"
                },
                {
                  "internalType": "uint256",
                  "name": "stake",
                  "type": "uint256"
                },
                {
                  "internalType": "uint256",
                  "name": "price",
                  "type": "uint256"
                },
                {
                  "internalType": "uint256",
                  "name": "nbf",
                  "type": "uint256"
                },
                {
                  "internalType": "uint256",
                  "name": "exp",
                  "type": "uint256"
                }
              ],
              "internalType": "struct VCTypesV01.CredentialSubject",
              "name": "credentialSubject",
              "type": "tuple"
            },
            {
              "components": [
                {
                  "internalType": "string",
                  "name": "id",
                  "type": "string"
                },
                {
                  "internalType": "string",
                  "name": "_type",
                  "type": "string"
                }
              ],
              "internalType": "struct VCTypesV01.CredentialSchema",
              "name": "credentialSchema",
              "type": "tuple"
            },
            {
              "internalType": "string",
              "name": "issuanceDate",
              "type": "string"
            },
            {
              "internalType": "string",
              "name": "expirationDate",
              "type": "string"
            }
          ],
          "internalType": "struct VCTypesV01.VerifiableCredential",
          "name": "vc",
          "type": "tuple"
        },
        {
          "internalType": "bytes",
          "name": "proofValue",
          "type": "bytes"
        }
      ],
      "name": "registerVC",
      "outputs": [
        {
          "internalType": "bool",
          "name": "",
          "type": "bool"
        }
      ],
      "stateMutability": "payable",
      "type": "function"
    },
    {
      "inputs": [
        {
          "internalType": "bytes32",
          "name": "",
          "type": "bytes32"
        }
      ],
      "name": "registry",
      "outputs": [
        {
          "internalType": "enum KRBTokenV01.Status",
          "name": "credentialStatus",
          "type": "uint8"
        },
        {
          "internalType": "bytes32",
          "name": "disputedBy",
          "type": "bytes32"
        }
      ],
      "stateMutability": "view",
      "type": "function"
    },
    {
      "inputs": [
        {
          "internalType": "bytes32",
          "name": "role",
          "type": "bytes32"
        },
        {
          "internalType": "address",
          "name": "account",
          "type": "address"
        }
      ],
      "name": "renounceRole",
      "outputs": [],
      "stateMutability": "nonpayable",
      "type": "function"
    },
    {
      "inputs": [
        {
          "internalType": "bytes32",
          "name": "role",
          "type": "bytes32"
        },
        {
          "internalType": "address",
          "name": "account",
          "type": "address"
        }
      ],
      "name": "revokeRole",
      "outputs": [],
      "stateMutability": "nonpayable",
      "type": "function"
    },
    {
      "inputs": [
        {
          "components": [
            {
              "internalType": "string",
              "name": "_context",
              "type": "string"
            },
            {
              "internalType": "string",
              "name": "_type",
              "type": "string"
            },
            {
              "internalType": "string",
              "name": "id",
              "type": "string"
            },
            {
              "components": [
                {
                  "internalType": "string",
                  "name": "id",
                  "type": "string"
                },
                {
                  "internalType": "address",
                  "name": "ethereumAddress",
                  "type": "address"
                }
              ],
              "internalType": "struct VCTypesV01.Issuer",
              "name": "issuer",
              "type": "tuple"
            },
            {
              "components": [
                {
                  "internalType": "string",
                  "name": "id",
                  "type": "string"
                },
                {
                  "internalType": "address",
                  "name": "ethereumAddress",
                  "type": "address"
                },
                {
                  "internalType": "string",
                  "name": "_type",
                  "type": "string"
                },
                {
                  "internalType": "string",
                  "name": "typeSchema",
                  "type": "string"
                },
                {
                  "internalType": "string",
                  "name": "value",
                  "type": "string"
                },
                {
                  "internalType": "string",
                  "name": "encrypted",
                  "type": "string"
                },
                {
                  "internalType": "uint8",
                  "name": "trust",
                  "type": "uint8"
                },
                {
                  "internalType": "uint256",
                  "name": "stake",
                  "type": "uint256"
                },
                {
                  "internalType": "uint256",
                  "name": "price",
                  "type": "uint256"
                },
                {
                  "internalType": "uint256",
                  "name": "nbf",
                  "type": "uint256"
                },
                {
                  "internalType": "uint256",
                  "name": "exp",
                  "type": "uint256"
                }
              ],
              "internalType": "struct VCTypesV01.CredentialSubject",
              "name": "credentialSubject",
              "type": "tuple"
            },
            {
              "components": [
                {
                  "internalType": "string",
                  "name": "id",
                  "type": "string"
                },
                {
                  "internalType": "string",
                  "name": "_type",
                  "type": "string"
                }
              ],
              "internalType": "struct VCTypesV01.CredentialSchema",
              "name": "credentialSchema",
              "type": "tuple"
            },
            {
              "internalType": "string",
              "name": "issuanceDate",
              "type": "string"
            },
            {
              "internalType": "string",
              "name": "expirationDate",
              "type": "string"
            }
          ],
          "internalType": "struct VCTypesV01.VerifiableCredential",
          "name": "vc",
          "type": "tuple"
        },
        {
          "internalType": "string",
          "name": "reason",
          "type": "string"
        }
      ],
      "name": "revokeVC",
      "outputs": [
        {
          "internalType": "bool",
          "name": "",
          "type": "bool"
        }
      ],
      "stateMutability": "nonpayable",
      "type": "function"
    },
    {
      "inputs": [
        {
          "internalType": "bytes4",
          "name": "interfaceId",
          "type": "bytes4"
        }
      ],
      "name": "supportsInterface",
      "outputs": [
        {
          "internalType": "bool",
          "name": "",
          "type": "bool"
        }
      ],
      "stateMutability": "view",
      "type": "function"
    },
    {
      "inputs": [
        {
          "components": [
            {
              "internalType": "string",
              "name": "_context",
              "type": "string"
            },
            {
              "internalType": "string",
              "name": "_type",
              "type": "string"
            },
            {
              "internalType": "string",
              "name": "id",
              "type": "string"
            },
            {
              "components": [
                {
                  "internalType": "string",
                  "name": "id",
                  "type": "string"
                },
                {
                  "internalType": "address",
                  "name": "ethereumAddress",
                  "type": "address"
                }
              ],
              "internalType": "struct VCTypesV01.Issuer",
              "name": "issuer",
              "type": "tuple"
            },
            {
              "components": [
                {
                  "internalType": "string",
                  "name": "id",
                  "type": "string"
                },
                {
                  "internalType": "address",
                  "name": "ethereumAddress",
                  "type": "address"
                },
                {
                  "internalType": "string",
                  "name": "_type",
                  "type": "string"
                },
                {
                  "internalType": "string",
                  "name": "typeSchema",
                  "type": "string"
                },
                {
                  "internalType": "string",
                  "name": "value",
                  "type": "string"
                },
                {
                  "internalType": "string",
                  "name": "encrypted",
                  "type": "string"
                },
                {
                  "internalType": "uint8",
                  "name": "trust",
                  "type": "uint8"
                },
                {
                  "internalType": "uint256",
                  "name": "stake",
                  "type": "uint256"
                },
                {
                  "internalType": "uint256",
                  "name": "price",
                  "type": "uint256"
                },
                {
                  "internalType": "uint256",
                  "name": "nbf",
                  "type": "uint256"
                },
                {
                  "internalType": "uint256",
                  "name": "exp",
                  "type": "uint256"
                }
              ],
              "internalType": "struct VCTypesV01.CredentialSubject",
              "name": "credentialSubject",
              "type": "tuple"
            },
            {
              "components": [
                {
                  "internalType": "string",
                  "name": "id",
                  "type": "string"
                },
                {
                  "internalType": "string",
                  "name": "_type",
                  "type": "string"
                }
              ],
              "internalType": "struct VCTypesV01.CredentialSchema",
              "name": "credentialSchema",
              "type": "tuple"
            },
            {
              "internalType": "string",
              "name": "issuanceDate",
              "type": "string"
            },
            {
              "internalType": "string",
              "name": "expirationDate",
              "type": "string"
            }
          ],
          "internalType": "struct VCTypesV01.VerifiableCredential",
          "name": "vc",
          "type": "tuple"
        },
        {
          "internalType": "string",
          "name": "reason",
          "type": "string"
        }
      ],
      "name": "suspendVC",
      "outputs": [
        {
          "internalType": "bool",
          "name": "",
          "type": "bool"
        }
      ],
      "stateMutability": "nonpayable",
      "type": "function"
    },
    {
      "inputs": [],
      "name": "symbol",
      "outputs": [
        {
          "internalType": "string",
          "name": "",
          "type": "string"
        }
      ],
      "stateMutability": "view",
      "type": "function"
    },
    {
      "inputs": [],
      "name": "totalSupply",
      "outputs": [
        {
          "internalType": "uint256",
          "name": "",
          "type": "uint256"
        }
      ],
      "stateMutability": "view",
      "type": "function"
    },
    {
      "inputs": [
        {
          "internalType": "address",
          "name": "recipient",
          "type": "address"
        },
        {
          "internalType": "uint256",
          "name": "amount",
          "type": "uint256"
        }
      ],
      "name": "transfer",
      "outputs": [
        {
          "internalType": "bool",
          "name": "",
          "type": "bool"
        }
      ],
      "stateMutability": "nonpayable",
      "type": "function"
    },
    {
      "inputs": [
        {
          "internalType": "address",
          "name": "sender",
          "type": "address"
        },
        {
          "internalType": "address",
          "name": "recipient",
          "type": "address"
        },
        {
          "internalType": "uint256",
          "name": "amount",
          "type": "uint256"
        }
      ],
      "name": "transferFrom",
      "outputs": [
        {
          "internalType": "bool",
          "name": "",
          "type": "bool"
        }
      ],
      "stateMutability": "nonpayable",
      "type": "function"
    },
    {
      "inputs": [],
      "name": "unpause",
      "outputs": [],
      "stateMutability": "nonpayable",
      "type": "function"
    },
    {
      "inputs": [
        {
          "internalType": "uint256",
          "name": "newFeePercentage",
          "type": "uint256"
        }
      ],
      "name": "updateFeePercentage",
      "outputs": [],
      "stateMutability": "nonpayable",
      "type": "function"
    },
    {
      "inputs": [
        {
          "internalType": "uint256",
          "name": "newMinBalance",
          "type": "uint256"
        }
      ],
      "name": "updateMinBalanceToIssue",
      "outputs": [],
      "stateMutability": "nonpayable",
      "type": "function"
    },
    {
      "inputs": [
        {
          "internalType": "uint256",
          "name": "newMinBalance",
          "type": "uint256"
        }
      ],
      "name": "updateMinBalanceToReceive",
      "outputs": [],
      "stateMutability": "nonpayable",
      "type": "function"
    },
    {
      "inputs": [
        {
          "internalType": "uint256",
          "name": "newMinBalance",
          "type": "uint256"
        }
      ],
      "name": "updateMinBalanceToTransfer",
      "outputs": [],
      "stateMutability": "nonpayable",
      "type": "function"
    },
    {
      "inputs": [
        {
          "internalType": "uint256",
          "name": "newMinStake",
          "type": "uint256"
        },
        {
          "internalType": "uint256",
          "name": "newMaxStake",
          "type": "uint256"
        }
      ],
      "name": "updateStakeToIssue",
      "outputs": [],
      "stateMutability": "nonpayable",
      "type": "function"
    },
    {
      "inputs": [
        {
          "internalType": "address",
          "name": "newImplementation",
          "type": "address"
        }
      ],
      "name": "upgradeTo",
      "outputs": [],
      "stateMutability": "nonpayable",
      "type": "function"
    },
    {
      "inputs": [
        {
          "internalType": "address",
          "name": "newImplementation",
          "type": "address"
        },
        {
          "internalType": "bytes",
          "name": "data",
          "type": "bytes"
        }
      ],
      "name": "upgradeToAndCall",
      "outputs": [],
      "stateMutability": "payable",
      "type": "function"
    },
    {
      "inputs": [
        {
          "internalType": "address payable",
          "name": "_to",
          "type": "address"
        },
        {
          "internalType": "uint256",
          "name": "_amount",
          "type": "uint256"
        }
      ],
      "name": "withdrawFees",
      "outputs": [],
      "stateMutability": "nonpayable",
      "type": "function"
    }
  ],
  "bytecode": "0x60a06040523060601b6080523480156200001857600080fd5b50600054610100900460ff16620000365760005460ff161562000040565b62000040620000e5565b620000a85760405162461bcd60e51b815260206004820152602e60248201527f496e697469616c697a61626c653a20636f6e747261637420697320616c72656160448201526d191e481a5b9a5d1a585b1a5e995960921b606482015260840160405180910390fd5b600054610100900460ff16158015620000cb576000805461ffff19166101011790555b8015620000de576000805461ff00191690555b5062000109565b6000620000fd306200010360201b62001e091760201c565b15905090565b3b151590565b60805160601c6152a16200013d6000396000818161107a015281816110ba0152818161126401526112a401526152a16000f3fe6080604052600436106103355760003560e01c80638129fc1c116101ab578063bcd68993116100f7578063de5785d511610095578063e29578a61161006f578063e29578a614610988578063e5a2b28e146109a8578063e6aff7be146109bf578063f09a4d56146109df57600080fd5b8063de5785d514610947578063de9d2b1c1461095e578063dec9cafe1461097557600080fd5b8063ca2a8cfc116100d1578063ca2a8cfc146108a1578063ce556f9d146108c1578063d547741f146108e1578063dd62ed3e1461090157600080fd5b8063bcd6899314610841578063c0d506d614610861578063ca15c8731461088157600080fd5b806396a45bc511610164578063a457c2d71161013e578063a457c2d7146107ca578063a9059cbb146107ea578063ad3b1b471461080a578063af4e720d1461082a57600080fd5b806396a45bc51461077e578063a001ecdd1461079e578063a217fddf146107b557600080fd5b80638129fc1c146106c75780638456cb59146106dc578063888bb7b5146106f15780639010d07c1461071157806391d148541461074957806395d89b411461076957600080fd5b806336568abe116102855780634f1ef2861161022357806370a08231116101fd57806370a0823114610608578063716f4d901461063e57806379cc67901461065e5780637ef502981461067e57600080fd5b80634f1ef286146105bc5780635c975abb146105cf5780636cad3fb0146105e857600080fd5b8063395093511161025f57806339509351146105475780633f4ba83a1461056757806340c10f191461057c57806342966c681461059c57600080fd5b806336568abe146104e55780633659cfe61461050557806338b7f4461461052557600080fd5b806318160ddd116102f25780632a401e81116102cc5780632a401e81146104745780632f2ff15d14610494578063313ce567146104b45780633644e515146104d057600080fd5b806318160ddd1461040f57806323b872dd14610424578063248a9ca31461044457600080fd5b806301ffc9a71461033a57806306fdde031461036f57806307a0d7981461039157806307a77292146103b6578063095ea7b3146103cd57806309b1146b146103ed575b600080fd5b34801561034657600080fd5b5061035a6103553660046148ac565b6109ff565b60405190151581526020015b60405180910390f35b34801561037b57600080fd5b50610384610a2a565b6040516103669190614d07565b34801561039d57600080fd5b506103a861022d5481565b604051908152602001610366565b3480156103c257600080fd5b506103a861022a5481565b3480156103d957600080fd5b5061035a6103e8366004614757565b610abc565b3480156103f957600080fd5b5061040d61040836600461484c565b610ad2565b005b34801561041b57600080fd5b5060cb546103a8565b34801561043057600080fd5b5061035a61043f3660046147bc565b610b64565b34801561045057600080fd5b506103a861045f36600461484c565b60009081526065602052604090206001015490565b34801561048057600080fd5b5061035a61048f36600461496b565b610c10565b3480156104a057600080fd5b5061040d6104af366004614865565b610fb7565b3480156104c057600080fd5b5060405160128152602001610366565b3480156104dc57600080fd5b506103a8610fe2565b3480156104f157600080fd5b5061040d610500366004614865565b610ff1565b34801561051157600080fd5b5061040d61052036600461473a565b61106f565b34801561053157600080fd5b506103a860008051602061520583398151915281565b34801561055357600080fd5b5061035a610562366004614757565b611138565b34801561057357600080fd5b5061040d611174565b34801561058857600080fd5b5061040d610597366004614757565b6111e3565b3480156105a857600080fd5b5061040d6105b736600461484c565b61124f565b61040d6105ca3660046147fd565b611259565b3480156105db57600080fd5b5061012d5460ff1661035a565b3480156105f457600080fd5b5061040d61060336600461484c565b61130f565b34801561061457600080fd5b506103a861062336600461473a565b6001600160a01b0316600090815260c9602052604090205490565b34801561064a57600080fd5b5061035a610659366004614912565b6113cb565b34801561066a57600080fd5b5061040d610679366004614757565b61141b565b34801561068a57600080fd5b506106b961069936600461484c565b610230602052600090815260409020805460019091015460ff9091169082565b604051610366929190614cdb565b3480156106d357600080fd5b5061040d61149c565b3480156106e857600080fd5b5061040d611597565b3480156106fd57600080fd5b5061035a61070c3660046148d6565b611602565b34801561071d57600080fd5b5061073161072c36600461488a565b611680565b6040516001600160a01b039091168152602001610366565b34801561075557600080fd5b5061035a610764366004614865565b611698565b34801561077557600080fd5b506103846116c3565b34801561078a57600080fd5b5061040d61079936600461484c565b6116d2565b3480156107aa57600080fd5b506103a861022e5481565b3480156107c157600080fd5b506103a8600081565b3480156107d657600080fd5b5061035a6107e5366004614757565b611751565b3480156107f657600080fd5b5061035a610805366004614757565b6117e0565b34801561081657600080fd5b5061040d610825366004614757565b6117ed565b34801561083657600080fd5b506103a861022b5481565b34801561084d57600080fd5b506103a861085c3660046148d6565b6118b1565b34801561086d57600080fd5b5061038461087c3660046148d6565b6118bc565b34801561088d57600080fd5b506103a861089c36600461484c565b6118d4565b3480156108ad57600080fd5b5061035a6108bc366004614912565b6118eb565b3480156108cd57600080fd5b5061035a6108dc366004614912565b611931565b3480156108ed57600080fd5b5061040d6108fc366004614865565b611977565b34801561090d57600080fd5b506103a861091c366004614783565b6001600160a01b03918216600090815260ca6020908152604080832093909416825291909152205490565b34801561095357600080fd5b506103a861022f5481565b34801561096a57600080fd5b506103a861022c5481565b61035a610983366004614912565b61199d565b34801561099457600080fd5b506103846109a336600461484c565b611a58565b3480156109b457600080fd5b506103a86102295481565b3480156109cb57600080fd5b5061040d6109da36600461484c565b611c0b565b3480156109eb57600080fd5b5061040d6109fa36600461488a565b611c87565b60006001600160e01b03198216635a05180f60e01b1480610a245750610a2482611e0f565b92915050565b606060cc8054610a3990615126565b80601f0160208091040260200160405190810160405280929190818152602001828054610a6590615126565b8015610ab25780601f10610a8757610100808354040283529160200191610ab2565b820191906000526020600020905b815481529060010190602001808311610a9557829003601f168201915b5050505050905090565b6000610ac9338484611e44565b50600192915050565b610aea60008051602061520583398151915233611698565b610b0f5760405162461bcd60e51b8152600401610b0690614d1a565b60405180910390fd5b61022a8190556040516000805160206151e583398151915290610b59906020808252601390820152726d696e42616c616e6365546f5265636569766560681b604082015260600190565b60405180910390a150565b6000610b71848484611f68565b6001600160a01b038416600090815260ca6020908152604080832033845290915290205482811015610bf65760405162461bcd60e51b815260206004820152602860248201527f45524332303a207472616e7366657220616d6f756e74206578636565647320616044820152676c6c6f77616e636560c01b6064820152608401610b06565b610c038533858403611e44565b60019150505b9392505050565b6000610c2a60008051602061520583398151915233611698565b610c7f5760405162461bcd60e51b8152602060048201526032602482015260008051602061524c833981519152604482015271746f207265736f6c7665206469737075746560701b6064820152608401610b06565b60405170111a5cdc1d5d1950dc9959195b9d1a585b607a1b6020820152603101604051602081830303815290604052805190602001208260200151604051602001610cca9190614b34565b6040516020818303038152906040528051906020012014610d4c5760405162461bcd60e51b815260206004820152603660248201527f4b5242546f6b656e3a206469737075746520636c61696d2074797065206d75736044820152751d08189948111a5cdc1d5d1950dc9959195b9d1a585b60521b6064820152608401610b06565b6060820151602001516001600160a01b03163314610dc05760405162461bcd60e51b815260206004820152602b60248201527f4b5242546f6b656e3a20697373756572206d7573742062652074686520476f7660448201526a65726e206164647265737360a81b6064820152608401610b06565b6000610dcb846118b1565b9050600080828152610230602052604090205460ff166005811115610df257610df2615177565b14158015610e24575060026000828152610230602052604090205460ff166005811115610e2157610e21615177565b14155b610e7c5760405162461bcd60e51b815260206004820152602360248201527f4b5242546f6b656e3a20564320737461746520616c72656164792064697370756044820152621d195960ea1b6064820152608401610b06565b6000610e87846118b1565b60008381526102306020908152604091829020805460ff1916600217815560010183905581518581529081018390529192507f8e39eab2c454d024fb5c89b50dabc51f5068c7a283891d06aa91f5ba96acded1910160405180910390a16000818152610230602052604090819020805460ff19166001179055517f632a70c3617009ee20500487ed52cd53ce50635cd84cf177b09577715eae51db90610f309083908790614bde565b60405180910390a16000610f466012600a615002565b866080015160e00151610f5991906150ad565b9050610f6d86606001516020015182612143565b6000610f8482886080015160c0015160ff1661229d565b9050610f9887608001516020015182612143565b610faa87606001516020015182612143565b5060019695505050505050565b600082815260656020526040902060010154610fd381336122b3565b610fdd8383612317565b505050565b6000610fec612339565b905090565b6001600160a01b03811633146110615760405162461bcd60e51b815260206004820152602f60248201527f416363657373436f6e74726f6c3a2063616e206f6e6c792072656e6f756e636560448201526e103937b632b9903337b91039b2b63360891b6064820152608401610b06565b61106b82826123b6565b5050565b306001600160a01b037f00000000000000000000000000000000000000000000000000000000000000001614156110b85760405162461bcd60e51b8152600401610b0690614da7565b7f00000000000000000000000000000000000000000000000000000000000000006001600160a01b03166110ea6123d8565b6001600160a01b0316146111105760405162461bcd60e51b8152600401610b0690614df3565b61111981612406565b604080516000808252602082019092526111359183919061246b565b50565b33600081815260ca602090815260408083206001600160a01b03871684529091528120549091610ac991859061116f908690614f85565b611e44565b61118c60008051602061520583398151915233611698565b6111d95760405162461bcd60e51b815260206004820152602a602482015260008051602061524c833981519152604482015269746f20756e706175736560b01b6064820152608401610b06565b6111e16125b6565b565b6111fb60008051602061520583398151915233611698565b6112455760405162461bcd60e51b8152602060048201526027602482015260008051602061524c8339815191526044820152661d1bc81b5a5b9d60ca1b6064820152608401610b06565b61106b828261264b565b6111353382612143565b306001600160a01b037f00000000000000000000000000000000000000000000000000000000000000001614156112a25760405162461bcd60e51b8152600401610b0690614da7565b7f00000000000000000000000000000000000000000000000000000000000000006001600160a01b03166112d46123d8565b6001600160a01b0316146112fa5760405162461bcd60e51b8152600401610b0690614df3565b61130382612406565b61106b8282600161246b565b61132760008051602061520583398151915233611698565b6113875760405162461bcd60e51b8152602060048201526037602482015260008051602061524c83398151915260448201527f746f206368616e67652066656550657263656e746167650000000000000000006064820152608401610b06565b61022e8190556040516000805160206151e583398151915290610b59906020808252600d908201526c66656550657263656e7461676560981b604082015260600190565b6080820151602001516000906001600160a01b031633146113fe5760405162461bcd60e51b8152600401610b0690614e76565b61141161140a846118b1565b8484612736565b5060019392505050565b6000611427833361091c565b9050818110156114855760405162461bcd60e51b8152602060048201526024808201527f45524332303a206275726e20616d6f756e74206578636565647320616c6c6f77604482015263616e636560e01b6064820152608401610b06565b6114928333848403611e44565b610fdd8383612143565b600054610100900460ff166114b75760005460ff16156114bb565b303b155b61151e5760405162461bcd60e51b815260206004820152602e60248201527f496e697469616c697a61626c653a20636f6e747261637420697320616c72656160448201526d191e481a5b9a5d1a585b1a5e995960921b6064820152608401610b06565b600054610100900460ff16158015611540576000805461ffff19166101011790555b6115836040518060400160405280600681526020016512dc99589a5d60d21b8152506040518060400160405280600381526020016225a92160e91b815250612838565b8015611135576000805461ff001916905550565b6115af60008051602061520583398151915233611698565b6115fa5760405162461bcd60e51b8152602060048201526028602482015260008051602061524c833981519152604482015267746f20706175736560c01b6064820152608401610b06565b6111e16128d0565b60008061160e836118b1565b9050826080015161014001514211156116705760008181526102306020908152604091829020805460ff1916600517905590518281527f3077f64f92ad91c6479071531304fa3c1e0bb9b63e130c746f3a564292f0ddc6910160405180910390a15b5050608001516101400151421190565b6000828152609760205260408120610c09908361294d565b60009182526065602090815260408084206001600160a01b0393909316845291905290205460ff1690565b606060cd8054610a3990615126565b6116ea60008051602061520583398151915233611698565b6117065760405162461bcd60e51b8152600401610b0690614d1a565b6102298190556040516000805160206151e583398151915290610b599060208082526014908201527336b4b72130b630b731b2aa37aa3930b739b332b960611b604082015260600190565b33600090815260ca602090815260408083206001600160a01b0386168452909152812054828110156117d35760405162461bcd60e51b815260206004820152602560248201527f45524332303a2064656372656173656420616c6c6f77616e63652062656c6f77604482015264207a65726f60d81b6064820152608401610b06565b6114113385858403611e44565b6000610ac9338484611f68565b61180560008051602061520583398151915233611698565b6118535760405162461bcd60e51b815260206004820152602b602482015260008051602061524c83398151915260448201526a746f20776974686472617760a81b6064820152608401610b06565b61022f5481111561186357600080fd5b8061022f600082825461187691906150cc565b90915550506040516001600160a01b0383169082156108fc029083906000818181858888f19350505050158015610fdd573d6000803e3d6000fd5b6000610a2482612959565b606060006118c9836118b1565b9050610c0981611a58565b6000818152609760205260408120610a2490612a4d565b6060820151602001516000906001600160a01b0316331461191e5760405162461bcd60e51b8152600401610b0690614d5c565b61141161192a846118b1565b8484612a57565b6060820151602001516000906001600160a01b031633146119645760405162461bcd60e51b8152600401610b0690614d5c565b611411611970846118b1565b8484612ae8565b60008281526065602052604090206001015461199381336122b3565b610fdd83836123b6565b6080820151602001516000906001600160a01b031633146119d05760405162461bcd60e51b8152600401610b0690614e76565b348360800151610100015114611a4e5760405162461bcd60e51b815260206004820152603a60248201527f4b5242546f6b656e3a206d73672e76616c756520646f6573206e6f74206d617460448201527f63682063726564656e7469616c5375626a6563742e70726963650000000000006064820152608401610b06565b6114118383612bcf565b6000818152610230602052604081205460609160ff90911690816005811115611a8357611a83615177565b1415611aab5750506040805180820190915260048152634e6f6e6560e01b6020820152919050565b6001816005811115611abf57611abf615177565b1415611ae9575050604080518082019091526006815265125cdcdd595960d21b6020820152919050565b6002816005811115611afd57611afd615177565b1415611b29575050604080518082019091526008815267111a5cdc1d5d195960c21b6020820152919050565b6003816005811115611b3d57611b3d615177565b1415611b6857505060408051808201909152600781526614995d9bdad95960ca1b6020820152919050565b6004816005811115611b7c57611b7c615177565b1415611ba957505060408051808201909152600981526814dd5cdc195b99195960ba1b6020820152919050565b6005816005811115611bbd57611bbd615177565b1415611be8575050604080518082019091526007815266115e1c1a5c995960ca1b6020820152919050565b505060408051808201909152600581526422b93937b960d91b6020820152919050565b611c2360008051602061520583398151915233611698565b611c3f5760405162461bcd60e51b8152600401610b0690614d1a565b61022b8190556040516000805160206151e583398151915290610b59906020808252601190820152706d696e42616c616e6365546f497373756560781b604082015260600190565b611c9f60008051602061520583398151915233611698565b611cf45760405162461bcd60e51b8152602060048201526032602482015260008051602061524c833981519152604482015271746f206368616e6765206d696e5374616b6560701b6064820152608401610b06565b818111611d695760405162461bcd60e51b815260206004820152603f60248201527f4b5242546f6b656e3a206e65774d61785374616b65206d75737420626520677260448201527f6561746572206f7220657175616c207468616e206e65774d696e5374616b65006064820152608401610b06565b61022c8290556040516000805160206151e583398151915290611daf906020808252600f908201526e6d696e5374616b65546f497373756560881b604082015260600190565b60405180910390a161022d8190556040516000805160206151e583398151915290611dfd906020808252600f908201526e6d61785374616b65546f497373756560881b604082015260600190565b60405180910390a15050565b3b151590565b60006001600160e01b03198216637965db0b60e01b1480610a2457506301ffc9a760e01b6001600160e01b0319831614610a24565b6001600160a01b038316611ea65760405162461bcd60e51b8152602060048201526024808201527f45524332303a20617070726f76652066726f6d20746865207a65726f206164646044820152637265737360e01b6064820152608401610b06565b6001600160a01b038216611f075760405162461bcd60e51b815260206004820152602260248201527f45524332303a20617070726f766520746f20746865207a65726f206164647265604482015261737360f01b6064820152608401610b06565b6001600160a01b03838116600081815260ca602090815260408083209487168084529482529182902085905590518481527f8c5be1e5ebec7d5bd14f71427d1e84f3dd0314c0f7b2291e5b200ac8c7c3b925910160405180910390a3505050565b6001600160a01b038316611fcc5760405162461bcd60e51b815260206004820152602560248201527f45524332303a207472616e736665722066726f6d20746865207a65726f206164604482015264647265737360d81b6064820152608401610b06565b6001600160a01b03821661202e5760405162461bcd60e51b815260206004820152602360248201527f45524332303a207472616e7366657220746f20746865207a65726f206164647260448201526265737360e81b6064820152608401610b06565b612039838383612c05565b6001600160a01b038316600090815260c96020526040902054818110156120b15760405162461bcd60e51b815260206004820152602660248201527f45524332303a207472616e7366657220616d6f756e7420657863656564732062604482015265616c616e636560d01b6064820152608401610b06565b6001600160a01b03808516600090815260c960205260408082208585039055918516815290812080548492906120e8908490614f85565b92505081905550826001600160a01b0316846001600160a01b03167fddf252ad1be2c89b69c2b068fc378daa952ba7f163c4a11628f55a4df523b3ef8460405161213491815260200190565b60405180910390a35b50505050565b6001600160a01b0382166121a35760405162461bcd60e51b815260206004820152602160248201527f45524332303a206275726e2066726f6d20746865207a65726f206164647265736044820152607360f81b6064820152608401610b06565b6121af82600083612c05565b6001600160a01b038216600090815260c96020526040902054818110156122235760405162461bcd60e51b815260206004820152602260248201527f45524332303a206275726e20616d6f756e7420657863656564732062616c616e604482015261636560f01b6064820152608401610b06565b6001600160a01b038316600090815260c960205260408120838303905560cb80548492906122529084906150cc565b90915550506040518281526000906001600160a01b038516907fddf252ad1be2c89b69c2b068fc378daa952ba7f163c4a11628f55a4df523b3ef9060200160405180910390a3505050565b6000610c096122ac8484612d9b565b6064612da7565b6122bd8282611698565b61106b576122d5816001600160a01b03166014612db3565b6122e0836020612db3565b6040516020016122f1929190614b50565b60408051601f198184030181529082905262461bcd60e51b8252610b0691600401614d07565b6123218282612f4e565b6000828152609760205260409020610fdd9082612fd4565b6000610fec7f8b73c3c69bb8fe3d512ecc4cf759cc79239f7b179b0ffacaa9a75d522b39400f6123696101915490565b610192546040805160208101859052908101839052606081018290524660808201523060a082015260009060c0016040516020818303038152906040528051906020012090509392505050565b6123c08282612fe9565b6000828152609760205260409020610fdd9082613050565b7f360894a13ba1a3210667c828492db98dca3e2076cc3735a920a3ca505d382bbc546001600160a01b031690565b61241e60008051602061520583398151915233611698565b6111355760405162461bcd60e51b815260206004820152602a602482015260008051602061524c833981519152604482015269746f207570677261646560b01b6064820152608401610b06565b60006124756123d8565b905061248084613065565b60008351118061248d5750815b1561249e5761249c848461310a565b505b7f4910fdfa16fed3260ed0e7147f7cc6da11a60208b5b9406d12a635614ffd9143805460ff166125af57805460ff191660011781556040516001600160a01b038316602482015261251d90869060440160408051601f198184030181529190526020810180516001600160e01b0316631b2ce7f360e11b17905261310a565b50805460ff1916815561252e6123d8565b6001600160a01b0316826001600160a01b0316146125a65760405162461bcd60e51b815260206004820152602f60248201527f45524331393637557067726164653a207570677261646520627265616b73206660448201526e75727468657220757067726164657360881b6064820152608401610b06565b6125af856131f5565b5050505050565b61012d5460ff166126005760405162461bcd60e51b815260206004820152601460248201527314185d5cd8589b194e881b9bdd081c185d5cd95960621b6044820152606401610b06565b61012d805460ff191690557f5db9ee0a495bf2e6ff9c91a7834c1ba4fdd244a5e8aa4e537bd38aeae4b073aa335b6040516001600160a01b03909116815260200160405180910390a1565b6001600160a01b0382166126a15760405162461bcd60e51b815260206004820152601f60248201527f45524332303a206d696e7420746f20746865207a65726f2061646472657373006044820152606401610b06565b6126ad60008383612c05565b8060cb60008282546126bf9190614f85565b90915550506001600160a01b038216600090815260c96020526040812080548392906126ec908490614f85565b90915550506040518181526001600160a01b038316906000907fddf252ad1be2c89b69c2b068fc378daa952ba7f163c4a11628f55a4df523b3ef9060200160405180910390a35050565b600060016000858152610230602052604090205460ff16600581111561275e5761275e615177565b1461277b5760405162461bcd60e51b8152600401610b0690614e3f565b6000848152610230602052604090819020805460ff19169055517f761f6dc13136b4cb3a156f0ed2a2b0865663e8bae80e43eb200aaff89b223b8a906127c49086908590614bc5565b60405180910390a160006127da6012600a615002565b846080015160e001516127ed91906150ad565b9050600061280682866080015160c0015160ff1661229d565b905061281a85608001516020015182612143565b61282c85606001516020015182612143565b50600195945050505050565b600054610100900460ff1661285f5760405162461bcd60e51b8152600401610b0690614ecc565b612867613235565b61286f613235565b612877613235565b61287f613235565b612889828261325c565b612891613235565b6128996132aa565b6128a1613235565b6128c68260405180604001604052806003815260200162302e3160e81b8152506132de565b61106b8282613321565b61012d5460ff16156129175760405162461bcd60e51b815260206004820152601060248201526f14185d5cd8589b194e881c185d5cd95960821b6044820152606401610b06565b61012d805460ff191660011790557f62e78cea01bee320cd4e420270b5ea74000d11b0c9f74754ebdbfc544b05a25861262e3390565b6000610c0983836133fd565b60007f63c4847aa3662952b34b8f76f3abc371c24535ee34fce5b3df34d029db924d4e60001b8260000151805190602001208360200151805190602001208460400151805190602001206129b08660600151613427565b6129bd8760800151613480565b6129ca8860a00151613579565b60c0890151805160209182012060e08b0151805190830120604051612a309a9998979695949301988952602089019790975260408801959095526060870193909352608086019190915260a085015260c084015260e08301526101008201526101200190565b604051602081830303815290604052805190602001209050919050565b6000610a24825490565b600060016000858152610230602052604090205460ff166005811115612a7f57612a7f615177565b14612a9c5760405162461bcd60e51b8152600401610b0690614e3f565b6000848152610230602052604090819020805460ff19166003179055517fc8d626f397822cbf88d2668dbdd8bac1a4a172c0d81425fde1526ef2b8195ca3906127c49086908590614bc5565b600060016000858152610230602052604090205460ff166005811115612b1057612b10615177565b14612b2d5760405162461bcd60e51b8152600401610b0690614e3f565b6000848152610230602052604090819020805460ff19166004179055517f9f3ea3215e3320f6d705861aefc7d473557aff8cae1ac438222996d547233d3590612b799086908590614bc5565b60405180910390a16000612b8f6012600a615002565b846080015160e00151612ba291906150ad565b90506000612bbb82866080015160c0015160ff1661229d565b905061282c85608001516020015182612143565b600080612bdb846118b1565b9050612bf084606001516020015182856135cf565b612bfa81856136d6565b506001949350505050565b612c10838383613981565b612c2860008051602061520583398151915233611698565b80612c3a57506001600160a01b038316155b80612c4c57506001600160a01b038216155b80612c725750610229546001600160a01b038416600090815260c9602052604090205410155b612cd45760405162461bcd60e51b815260206004820152602d60248201527f4b5242546f6b656e3a2073656e64657220646f6573206e6f742068617665206560448201526c6e6f7567682062616c616e636560981b6064820152608401610b06565b612cec60008051602061520583398151915233611698565b80612cfe57506001600160a01b038316155b80612d1057506001600160a01b038216155b80612d36575061022a546001600160a01b038316600090815260c9602052604090205410155b610fdd5760405162461bcd60e51b815260206004820152603060248201527f4b5242546f6b656e3a20726563697069656e7420646f6573206e6f742068617660448201526f6520656e6f7567682062616c616e636560801b6064820152608401610b06565b6000610c0982846150ad565b6000610c098284614f9d565b60606000612dc28360026150ad565b612dcd906002614f85565b6001600160401b03811115612de457612de46151b9565b6040519080825280601f01601f191660200182016040528015612e0e576020820181803683370190505b509050600360fc1b81600081518110612e2957612e296151a3565b60200101906001600160f81b031916908160001a905350600f60fb1b81600181518110612e5857612e586151a3565b60200101906001600160f81b031916908160001a9053506000612e7c8460026150ad565b612e87906001614f85565b90505b6001811115612eff576f181899199a1a9b1b9c1cb0b131b232b360811b85600f1660108110612ebb57612ebb6151a3565b1a60f81b828281518110612ed157612ed16151a3565b60200101906001600160f81b031916908160001a90535060049490941c93612ef88161510f565b9050612e8a565b508315610c095760405162461bcd60e51b815260206004820181905260248201527f537472696e67733a20686578206c656e67746820696e73756666696369656e746044820152606401610b06565b612f588282611698565b61106b5760008281526065602090815260408083206001600160a01b03851684529091529020805460ff19166001179055612f903390565b6001600160a01b0316816001600160a01b0316837f2f8788117e7eff1d82e926ec794901d17c78024a50270940304540a733656f0d60405160405180910390a45050565b6000610c09836001600160a01b0384166139e8565b612ff38282611698565b1561106b5760008281526065602090815260408083206001600160a01b0385168085529252808320805460ff1916905551339285917ff6391f5c32d9c69d2a47ea670b442974b53935d1edc7fd64eb21e047a839171b9190a45050565b6000610c09836001600160a01b038416613a37565b803b6130c95760405162461bcd60e51b815260206004820152602d60248201527f455243313936373a206e657720696d706c656d656e746174696f6e206973206e60448201526c1bdd08184818dbdb9d1c9858dd609a1b6064820152608401610b06565b7f360894a13ba1a3210667c828492db98dca3e2076cc3735a920a3ca505d382bbc80546001600160a01b0319166001600160a01b0392909216919091179055565b6060823b6131695760405162461bcd60e51b815260206004820152602660248201527f416464726573733a2064656c65676174652063616c6c20746f206e6f6e2d636f6044820152651b9d1c9858dd60d21b6064820152608401610b06565b600080846001600160a01b0316846040516131849190614b34565b600060405180830381855af49150503d80600081146131bf576040519150601f19603f3d011682016040523d82523d6000602084013e6131c4565b606091505b50915091506131ec828260405180606001604052806027815260200161522560279139613b2a565b95945050505050565b6131fe81613065565b6040516001600160a01b038216907fbc7cd75a20ee27fd9adebab32041f755214dbc6bffa90cc0225b39da2e5c2d3b90600090a250565b600054610100900460ff166111e15760405162461bcd60e51b8152600401610b0690614ecc565b600054610100900460ff166132835760405162461bcd60e51b8152600401610b0690614ecc565b81516132969060cc9060208501906142b1565b508051610fdd9060cd9060208401906142b1565b600054610100900460ff166132d15760405162461bcd60e51b8152600401610b0690614ecc565b61012d805460ff19169055565b600054610100900460ff166133055760405162461bcd60e51b8152600401610b0690614ecc565b8151602092830120815191909201206101919190915561019255565b600054610100900460ff166133485760405162461bcd60e51b8152600401610b0690614ecc565b613353600033613b63565b61336b60008051602061520583398151915233613b63565b6133776012600a615002565b6133829060646150ad565b610229556133926012600a615002565b61339d9060646150ad565b61022a55600a61022e5560126133b490600a615002565b6133bf9060646150ad565b61022b556133cf6012600a615002565b6133da9060016150ad565b61022c556133ea6012600a615002565b6133f590600a6150ad565b61022d555050565b6000826000018281548110613414576134146151a3565b9060005260206000200154905092915050565b8051805160209182012081830151604080517fabb691e6e52ceb1ff8b3df91dc14323057e88efa3252486ed994fd62706cdfaa948101949094528301919091526001600160a01b03166060820152600090608001612a30565b60007f4b87db6c5998f503ac6519b5a7d74efcf2a230368deeaf54dd8bf078da459ff760001b82600001518051906020012083602001518460400151805190602001208560600151805190602001208660800151805190602001208760a00151805190602001208860c001518960e001518a61010001518b61012001518c6101400151604051602001612a309c9b9a999897969594939291909b8c5260208c019a909a526001600160a01b039890981660408b015260608a0196909652608089019490945260a088019290925260c087015260ff1660e08601526101008501526101208401526101408301526101608201526101800190565b8051805160209182012081830151805190830120604080517f1a58b7c56676b62343f37f4f3603a07ae6dd78bea300689bcefef0f9498c6cc9948101949094528301919091526060820152600090608001612a30565b60006135da83613b6d565b905060006135e88284613bbb565b90506001600160a01b03811661364f5760405162461bcd60e51b815260206004820152602660248201527f4b5242546f6b656e3a20696e76616c6964207369676e6174757265206164647260448201526565737328302960d01b6064820152608401610b06565b846001600160a01b0316816001600160a01b0316146125af5760405162461bcd60e51b815260206004820152603860248201527f4b5242546f6b656e3a207265636f76657265642061646472657373206469666660448201527f6572732066726f6d206578706563746564207369676e657200000000000000006064820152608401610b06565b6000806000848152610230602052604090205460ff1660058111156136fd576136fd615177565b146137705760405162461bcd60e51b815260206004820152603860248201527f4b5242546f6b656e3a2056657269666961626c652043726564656e7469616c2060448201527f6861736820616c7265616479206265656e2069737375656400000000000000006064820152608401610b06565b61377982613bdf565b60006137876012600a615002565b836080015160e0015161379a91906150ad565b905061022c5481101580156137b2575061022d548111155b6138305760405162461bcd60e51b815260206004820152604360248201527f4b5242546f6b656e3a207374616b65206d757374206265206265747765656e2060448201527f6d696e5374616b65546f497373756520616e64206d61785374616b65546f497360648201526273756560e81b608482015260a401610b06565b604080518082019091528060018152600060209182018190528681526102309091526040902081518154829060ff1916600183600581111561387457613874615177565b0217905550602082015181600101559050507f632a70c3617009ee20500487ed52cd53ce50635cd84cf177b09577715eae51db84846040516138b7929190614bde565b60405180910390a160006138d682856080015160c0015160ff1661229d565b90506138ea8460800151602001518261264b565b6138fc8460600151602001518261264b565b600061391085608001516101000151613f58565b6060860151602001519091506001600160a01b0381166108fc61393384346150cc565b6040518115909202916000818181858888f1935050505015801561395b573d6000803e3d6000fd5b508161022f600082825461396f9190614f85565b90915550600198975050505050505050565b61012d5460ff1615610fdd5760405162461bcd60e51b815260206004820152602a60248201527f45524332305061757361626c653a20746f6b656e207472616e736665722077686044820152691a5b19481c185d5cd95960b21b6064820152608401610b06565b6000818152600183016020526040812054613a2f57508154600181810184556000848152602080822090930184905584548482528286019093526040902091909155610a24565b506000610a24565b60008181526001830160205260408120548015613b20576000613a5b6001836150cc565b8554909150600090613a6f906001906150cc565b9050818114613ad4576000866000018281548110613a8f57613a8f6151a3565b9060005260206000200154905080876000018481548110613ab257613ab26151a3565b6000918252602080832090910192909255918252600188019052604090208390555b8554869080613ae557613ae561518d565b600190038181906000526020600020016000905590558560010160008681526020019081526020016000206000905560019350505050610a24565b6000915050610a24565b60608315613b39575081610c09565b825115613b495782518084602001fd5b8160405162461bcd60e51b8152600401610b069190614d07565b61106b8282612317565b6000610a24613b7a612339565b8360405161190160f01b6020820152602281018390526042810182905260009060620160405160208183030381529060405280519060200120905092915050565b6000806000613bca8585613f6a565b91509150613bd781613fda565b509392505050565b6060810151602001516001600160a01b0316613c3d5760405162461bcd60e51b815260206004820152601c60248201527f4b5242546f6b656e3a20626164206973737565722061646472657373000000006044820152606401610b06565b6080810151602001516001600160a01b0316613cab5760405162461bcd60e51b815260206004820152602760248201527f4b5242546f6b656e3a206261642063726564656e7469616c5375626a656374206044820152666164647265737360c81b6064820152608401610b06565b608081015151604051613cc19190602001614b34565b60408051601f198184030181529082905280516020918201206060840151519092613cec9201614b34565b604051602081830303815290604052805190602001201415613d6e5760405162461bcd60e51b815260206004820152603560248201527f4b5242546f6b656e3a2069737375657220444944206973207468652073616d6560448201527408185cc818dc9959195b9d1a585b14dd589a9958dd605a1b6064820152608401610b06565b8060800151602001516001600160a01b03168160600151602001516001600160a01b03161415613e065760405162461bcd60e51b815260206004820152603960248201527f4b5242546f6b656e3a206973737565722061646472657373206973207468652060448201527f73616d652061732063726564656e7469616c5375626a656374000000000000006064820152608401610b06565b61022b54613e318260600151602001516001600160a01b0316600090815260c9602052604090205490565b1015613e955760405162461bcd60e51b815260206004820152602d60248201527f4b5242546f6b656e3a2069737375657220646f6573206e6f742068617665206560448201526c6e6f7567682062616c616e636560981b6064820152608401610b06565b806080015161012001514211613f005760405162461bcd60e51b815260206004820152602a60248201527f4b5242546f6b656e3a2056432069737375616e63654461746520697320696e206044820152697468652066757475726560b01b6064820152608401610b06565b8060800151610140015142106111355760405162461bcd60e51b815260206004820181905260248201527f4b5242546f6b656e3a2056432068617320616c726561647920657870697265646044820152606401610b06565b6000610a246122ac8361022e54612d9b565b600080825160411415613fa15760208301516040840151606085015160001a613f9587828585614195565b94509450505050613fd3565b825160401415613fcb5760208301516040840151613fc0868383614282565b935093505050613fd3565b506000905060025b9250929050565b6000816004811115613fee57613fee615177565b1415613ff75750565b600181600481111561400b5761400b615177565b14156140595760405162461bcd60e51b815260206004820152601860248201527f45434453413a20696e76616c6964207369676e617475726500000000000000006044820152606401610b06565b600281600481111561406d5761406d615177565b14156140bb5760405162461bcd60e51b815260206004820152601f60248201527f45434453413a20696e76616c6964207369676e6174757265206c656e677468006044820152606401610b06565b60038160048111156140cf576140cf615177565b14156141285760405162461bcd60e51b815260206004820152602260248201527f45434453413a20696e76616c6964207369676e6174757265202773272076616c604482015261756560f01b6064820152608401610b06565b600481600481111561413c5761413c615177565b14156111355760405162461bcd60e51b815260206004820152602260248201527f45434453413a20696e76616c6964207369676e6174757265202776272076616c604482015261756560f01b6064820152608401610b06565b6000807f7fffffffffffffffffffffffffffffff5d576e7357a4501ddfe92f46681b20a08311156141cc5750600090506003614279565b8460ff16601b141580156141e457508460ff16601c14155b156141f55750600090506004614279565b6040805160008082526020820180845289905260ff881692820192909252606081018690526080810185905260019060a0016020604051602081039080840390855afa158015614249573d6000803e3d6000fd5b5050604051601f1901519150506001600160a01b03811661427257600060019250925050614279565b9150600090505b94509492505050565b6000806001600160ff1b03831660ff84901c601b016142a387828885614195565b935093505050935093915050565b8280546142bd90615126565b90600052602060002090601f0160209004810192826142df5760008555614325565b82601f106142f857805160ff1916838001178555614325565b82800160010185558215614325579182015b8281111561432557825182559160200191906001019061430a565b50614331929150614335565b5090565b5b808211156143315760008155600101614336565b8035614355816151cf565b919050565b600082601f83011261436b57600080fd5b81356001600160401b0380821115614385576143856151b9565b604051601f8301601f19908116603f011681019082821181831017156143ad576143ad6151b9565b816040528381528660208588010111156143c657600080fd5b836020870160208301376000602085830101528094505050505092915050565b6000604082840312156143f857600080fd5b614400614f17565b905081356001600160401b038082111561441957600080fd5b6144258583860161435a565b8352602084013591508082111561443b57600080fd5b506144488482850161435a565b60208301525092915050565b6000610160828403121561446757600080fd5b61446f614f3f565b905081356001600160401b038082111561448857600080fd5b6144948583860161435a565b83526144a26020850161434a565b602084015260408401359150808211156144bb57600080fd5b6144c78583860161435a565b604084015260608401359150808211156144e057600080fd5b6144ec8583860161435a565b6060840152608084013591508082111561450557600080fd5b6145118583860161435a565b608084015260a084013591508082111561452a57600080fd5b506145378482850161435a565b60a08301525061454960c08301614729565b60c082015260e082013560e082015261010080830135818301525061012080830135818301525061014080830135818301525092915050565b60006040828403121561459457600080fd5b61459c614f17565b905081356001600160401b038111156145b457600080fd5b6145c08482850161435a565b82525060208201356145d1816151cf565b602082015292915050565b600061010082840312156145ef57600080fd5b6145f7614f62565b905081356001600160401b038082111561461057600080fd5b61461c8583860161435a565b8352602084013591508082111561463257600080fd5b61463e8583860161435a565b6020840152604084013591508082111561465757600080fd5b6146638583860161435a565b6040840152606084013591508082111561467c57600080fd5b61468885838601614582565b606084015260808401359150808211156146a157600080fd5b6146ad85838601614454565b608084015260a08401359150808211156146c657600080fd5b6146d2858386016143e6565b60a084015260c08401359150808211156146eb57600080fd5b6146f78583860161435a565b60c084015260e084013591508082111561471057600080fd5b5061471d8482850161435a565b60e08301525092915050565b803560ff8116811461435557600080fd5b60006020828403121561474c57600080fd5b8135610c09816151cf565b6000806040838503121561476a57600080fd5b8235614775816151cf565b946020939093013593505050565b6000806040838503121561479657600080fd5b82356147a1816151cf565b915060208301356147b1816151cf565b809150509250929050565b6000806000606084860312156147d157600080fd5b83356147dc816151cf565b925060208401356147ec816151cf565b929592945050506040919091013590565b6000806040838503121561481057600080fd5b823561481b816151cf565b915060208301356001600160401b0381111561483657600080fd5b6148428582860161435a565b9150509250929050565b60006020828403121561485e57600080fd5b5035919050565b6000806040838503121561487857600080fd5b8235915060208301356147b1816151cf565b6000806040838503121561489d57600080fd5b50508035926020909101359150565b6000602082840312156148be57600080fd5b81356001600160e01b031981168114610c0957600080fd5b6000602082840312156148e857600080fd5b81356001600160401b038111156148fe57600080fd5b61490a848285016145dc565b949350505050565b6000806040838503121561492557600080fd5b82356001600160401b038082111561493c57600080fd5b614948868387016145dc565b9350602085013591508082111561495e57600080fd5b506148428582860161435a565b6000806040838503121561497e57600080fd5b82356001600160401b038082111561499557600080fd5b6149a1868387016145dc565b935060208501359150808211156149b757600080fd5b50614842858286016145dc565b600081518084526149dc8160208601602086016150e3565b601f01601f19169290920160200192915050565b6000815160408452614a0560408501826149c4565b9050602083015184820360208601526131ec82826149c4565b60006101608251818552614a34828601826149c4565b9150506020830151614a5160208601826001600160a01b03169052565b5060408301518482036040860152614a6982826149c4565b91505060608301518482036060860152614a8382826149c4565b91505060808301518482036080860152614a9d82826149c4565b91505060a083015184820360a0860152614ab782826149c4565b91505060c0830151614ace60c086018260ff169052565b5060e08381015190850152610100808401519085015261012080840151908501526101409283015192909301919091525090565b6000815160408452614b1760408501826149c4565b6020938401516001600160a01b0316949093019390935250919050565b60008251614b468184602087016150e3565b9190910192915050565b7f416363657373436f6e74726f6c3a206163636f756e7420000000000000000000815260008351614b888160178501602088016150e3565b7001034b99036b4b9b9b4b733903937b6329607d1b6017918401918201528351614bb98160288401602088016150e3565b01602801949350505050565b82815260406020820152600061490a60408301846149c4565b8281526040602082015260008251610100806040850152614c036101408501836149c4565b91506020850151603f1980868503016060870152614c2184836149c4565b93506040870151915080868503016080870152614c3e84836149c4565b935060608701519150808685030160a0870152614c5b8483614b02565b935060808701519150808685030160c0870152614c788483614a1e565b935060a08701519150808685030160e0870152614c9584836149f0565b935060c08701519150808685030183870152614cb184836149c4565b935060e0870151925080868503016101208701525050614cd182826149c4565b9695505050505050565b6040810160068410614cfd57634e487b7160e01b600052602160045260246000fd5b9281526020015290565b602081526000610c0960208301846149c4565b602080825260349082015260008051602061524c833981519152604082015273746f206368616e6765206d696e42616c616e636560601b606082015260800190565b6020808252602b908201527f4b5242546f6b656e3a2073656e646572206d757374206265207468652069737360408201526a756572206164647265737360a81b606082015260800190565b6020808252602c908201527f46756e6374696f6e206d7573742062652063616c6c6564207468726f7567682060408201526b19195b1959d85d1958d85b1b60a21b606082015260800190565b6020808252602c908201527f46756e6374696f6e206d7573742062652063616c6c6564207468726f7567682060408201526b6163746976652070726f787960a01b606082015260800190565b6020808252601d908201527f4b5242546f6b656e3a207374617465206973206e6f7420497373756564000000604082015260600190565b60208082526036908201527f4b5242546f6b656e3a2073656e646572206d757374206265207468652063726560408201527564656e7469616c5375626a656374206164647265737360501b606082015260800190565b6020808252602b908201527f496e697469616c697a61626c653a20636f6e7472616374206973206e6f74206960408201526a6e697469616c697a696e6760a81b606082015260800190565b604080519081016001600160401b0381118282101715614f3957614f396151b9565b60405290565b60405161016081016001600160401b0381118282101715614f3957614f396151b9565b60405161010081016001600160401b0381118282101715614f3957614f396151b9565b60008219821115614f9857614f98615161565b500190565b600082614fba57634e487b7160e01b600052601260045260246000fd5b500490565b600181815b80851115614ffa578160001904821115614fe057614fe0615161565b80851615614fed57918102915b93841c9390800290614fc4565b509250929050565b6000610c0960ff84168360008261501b57506001610a24565b8161502857506000610a24565b816001811461503e576002811461504857615064565b6001915050610a24565b60ff84111561505957615059615161565b50506001821b610a24565b5060208310610133831016604e8410600b8410161715615087575081810a610a24565b6150918383614fbf565b80600019048211156150a5576150a5615161565b029392505050565b60008160001904831182151516156150c7576150c7615161565b500290565b6000828210156150de576150de615161565b500390565b60005b838110156150fe5781810151838201526020016150e6565b8381111561213d5750506000910152565b60008161511e5761511e615161565b506000190190565b600181811c9082168061513a57607f821691505b6020821081141561515b57634e487b7160e01b600052602260045260246000fd5b50919050565b634e487b7160e01b600052601160045260246000fd5b634e487b7160e01b600052602160045260246000fd5b634e487b7160e01b600052603160045260246000fd5b634e487b7160e01b600052603260045260246000fd5b634e487b7160e01b600052604160045260246000fd5b6001600160a01b038116811461113557600080fdfe221d3d4161ff7c815e25a84cf3c2ec04f54111bee80f0b06d345c834581c9da3899bd46557473cb80307a9dabc297131ced39608330a2d29b2d52b660c03923e416464726573733a206c6f772d6c6576656c2064656c65676174652063616c6c206661696c65644b5242546f6b656e3a206d757374206861766520676f7665726e20726f6c6520a26469706673582212202fdb7843efb657b3cbad2aa99676f933b5b9ef3a9b9169aa8966c918dfac8a9164736f6c63430008070033",
  "linkReferences": {},
  "deployedLinkReferences": {}
}