{
  "_format": "hh-sol-artifact-1",
  "contractName": "KRBTokenV01",
  "sourceName": "contracts/KRBTokenV01.sol",
  "abi": [
    {
      "inputs": [],
      "stateMutability": "nonpayable",
      "type": "constructor"
    },
    {
      "anonymous": false,
      "inputs": [
        {
          "indexed": false,
          "internalType": "address",
          "name": "previousAdmin",
          "type": "address"
        },
        {
          "indexed": false,
          "internalType": "address",
          "name": "newAdmin",
          "type": "address"
        }
      ],
      "name": "AdminChanged",
      "type": "event"
    },
    {
      "anonymous": false,
      "inputs": [
        {
          "indexed": true,
          "internalType": "address",
          "name": "owner",
          "type": "address"
        },
        {
          "indexed": true,
          "internalType": "address",
          "name": "spender",
          "type": "address"
        },
        {
          "indexed": false,
          "internalType": "uint256",
          "name": "value",
          "type": "uint256"
        }
      ],
      "name": "Approval",
      "type": "event"
    },
    {
      "anonymous": false,
      "inputs": [
        {
          "indexed": true,
          "internalType": "address",
          "name": "beacon",
          "type": "address"
        }
      ],
      "name": "BeaconUpgraded",
      "type": "event"
    },
    {
      "anonymous": false,
      "inputs": [
        {
          "indexed": false,
          "internalType": "bytes32",
          "name": "uuid",
          "type": "bytes32"
        },
        {
          "indexed": false,
          "internalType": "string",
          "name": "reason",
          "type": "string"
        }
      ],
      "name": "Deleted",
      "type": "event"
    },
    {
      "anonymous": false,
      "inputs": [
        {
          "indexed": false,
          "internalType": "bytes32",
          "name": "uuid",
          "type": "bytes32"
        },
        {
          "indexed": false,
          "internalType": "bytes32",
          "name": "disputedBy",
          "type": "bytes32"
        }
      ],
      "name": "Disputed",
      "type": "event"
    },
    {
      "anonymous": false,
      "inputs": [
        {
          "indexed": false,
          "internalType": "bytes32",
          "name": "uuid",
          "type": "bytes32"
        }
      ],
      "name": "Expired",
      "type": "event"
    },
    {
      "anonymous": false,
      "inputs": [
        {
          "indexed": false,
          "internalType": "bytes32",
          "name": "uuid",
          "type": "bytes32"
        },
        {
          "components": [
            {
              "internalType": "string",
              "name": "_context",
              "type": "string"
            },
            {
              "internalType": "string",
              "name": "_type",
              "type": "string"
            },
            {
              "internalType": "string",
              "name": "id",
              "type": "string"
            },
            {
              "components": [
                {
                  "internalType": "string",
                  "name": "id",
                  "type": "string"
                },
                {
                  "internalType": "address",
                  "name": "ethereumAddress",
                  "type": "address"
                }
              ],
              "internalType": "struct VCTypesV01.Issuer",
              "name": "issuer",
              "type": "tuple"
            },
            {
              "components": [
                {
                  "internalType": "string",
                  "name": "id",
                  "type": "string"
                },
                {
                  "internalType": "address",
                  "name": "ethereumAddress",
                  "type": "address"
                },
                {
                  "internalType": "string",
                  "name": "_type",
                  "type": "string"
                },
                {
                  "internalType": "string",
                  "name": "value",
                  "type": "string"
                },
                {
                  "internalType": "string",
                  "name": "encrypted",
                  "type": "string"
                },
                {
                  "internalType": "uint8",
                  "name": "trust",
                  "type": "uint8"
                },
                {
                  "internalType": "uint256",
                  "name": "stake",
                  "type": "uint256"
                },
                {
                  "internalType": "uint256",
                  "name": "nbf",
                  "type": "uint256"
                },
                {
                  "internalType": "uint256",
                  "name": "exp",
                  "type": "uint256"
                }
              ],
              "internalType": "struct VCTypesV01.CredentialSubject",
              "name": "credentialSubject",
              "type": "tuple"
            },
            {
              "components": [
                {
                  "internalType": "string",
                  "name": "id",
                  "type": "string"
                },
                {
                  "internalType": "string",
                  "name": "_type",
                  "type": "string"
                }
              ],
              "internalType": "struct VCTypesV01.CredentialSchema",
              "name": "credentialSchema",
              "type": "tuple"
            },
            {
              "internalType": "string",
              "name": "issuanceDate",
              "type": "string"
            },
            {
              "internalType": "string",
              "name": "expirationDate",
              "type": "string"
            }
          ],
          "indexed": false,
          "internalType": "struct VCTypesV01.VerifiableCredential",
          "name": "vc",
          "type": "tuple"
        }
      ],
      "name": "Issued",
      "type": "event"
    },
    {
      "anonymous": false,
      "inputs": [
        {
          "indexed": false,
          "internalType": "address",
          "name": "account",
          "type": "address"
        }
      ],
      "name": "Paused",
      "type": "event"
    },
    {
      "anonymous": false,
      "inputs": [
        {
          "indexed": false,
          "internalType": "bytes32",
          "name": "uuid",
          "type": "bytes32"
        },
        {
          "indexed": false,
          "internalType": "string",
          "name": "reason",
          "type": "string"
        }
      ],
      "name": "Revoked",
      "type": "event"
    },
    {
      "anonymous": false,
      "inputs": [
        {
          "indexed": true,
          "internalType": "bytes32",
          "name": "role",
          "type": "bytes32"
        },
        {
          "indexed": true,
          "internalType": "bytes32",
          "name": "previousAdminRole",
          "type": "bytes32"
        },
        {
          "indexed": true,
          "internalType": "bytes32",
          "name": "newAdminRole",
          "type": "bytes32"
        }
      ],
      "name": "RoleAdminChanged",
      "type": "event"
    },
    {
      "anonymous": false,
      "inputs": [
        {
          "indexed": true,
          "internalType": "bytes32",
          "name": "role",
          "type": "bytes32"
        },
        {
          "indexed": true,
          "internalType": "address",
          "name": "account",
          "type": "address"
        },
        {
          "indexed": true,
          "internalType": "address",
          "name": "sender",
          "type": "address"
        }
      ],
      "name": "RoleGranted",
      "type": "event"
    },
    {
      "anonymous": false,
      "inputs": [
        {
          "indexed": true,
          "internalType": "bytes32",
          "name": "role",
          "type": "bytes32"
        },
        {
          "indexed": true,
          "internalType": "address",
          "name": "account",
          "type": "address"
        },
        {
          "indexed": true,
          "internalType": "address",
          "name": "sender",
          "type": "address"
        }
      ],
      "name": "RoleRevoked",
      "type": "event"
    },
    {
      "anonymous": false,
      "inputs": [
        {
          "indexed": false,
          "internalType": "bytes32",
          "name": "uuid",
          "type": "bytes32"
        },
        {
          "indexed": false,
          "internalType": "string",
          "name": "reason",
          "type": "string"
        }
      ],
      "name": "Suspended",
      "type": "event"
    },
    {
      "anonymous": false,
      "inputs": [
        {
          "indexed": true,
          "internalType": "address",
          "name": "from",
          "type": "address"
        },
        {
          "indexed": true,
          "internalType": "address",
          "name": "to",
          "type": "address"
        },
        {
          "indexed": false,
          "internalType": "uint256",
          "name": "value",
          "type": "uint256"
        }
      ],
      "name": "Transfer",
      "type": "event"
    },
    {
      "anonymous": false,
      "inputs": [
        {
          "indexed": false,
          "internalType": "address",
          "name": "account",
          "type": "address"
        }
      ],
      "name": "Unpaused",
      "type": "event"
    },
    {
      "anonymous": false,
      "inputs": [
        {
          "indexed": false,
          "internalType": "string",
          "name": "change",
          "type": "string"
        }
      ],
      "name": "Updated",
      "type": "event"
    },
    {
      "anonymous": false,
      "inputs": [
        {
          "indexed": true,
          "internalType": "address",
          "name": "implementation",
          "type": "address"
        }
      ],
      "name": "Upgraded",
      "type": "event"
    },
    {
      "inputs": [],
      "name": "DEFAULT_ADMIN_ROLE",
      "outputs": [
        {
          "internalType": "bytes32",
          "name": "",
          "type": "bytes32"
        }
      ],
      "stateMutability": "view",
      "type": "function"
    },
    {
      "inputs": [],
      "name": "DOMAIN_SEPARATOR",
      "outputs": [
        {
          "internalType": "bytes32",
          "name": "",
          "type": "bytes32"
        }
      ],
      "stateMutability": "view",
      "type": "function"
    },
    {
      "inputs": [],
      "name": "GOVERN_ROLE",
      "outputs": [
        {
          "internalType": "bytes32",
          "name": "",
          "type": "bytes32"
        }
      ],
      "stateMutability": "view",
      "type": "function"
    },
    {
      "inputs": [
        {
          "internalType": "address",
          "name": "owner",
          "type": "address"
        },
        {
          "internalType": "address",
          "name": "spender",
          "type": "address"
        }
      ],
      "name": "allowance",
      "outputs": [
        {
          "internalType": "uint256",
          "name": "",
          "type": "uint256"
        }
      ],
      "stateMutability": "view",
      "type": "function"
    },
    {
      "inputs": [
        {
          "internalType": "address",
          "name": "spender",
          "type": "address"
        },
        {
          "internalType": "uint256",
          "name": "amount",
          "type": "uint256"
        }
      ],
      "name": "approve",
      "outputs": [
        {
          "internalType": "bool",
          "name": "",
          "type": "bool"
        }
      ],
      "stateMutability": "nonpayable",
      "type": "function"
    },
    {
      "inputs": [
        {
          "internalType": "address",
          "name": "account",
          "type": "address"
        }
      ],
      "name": "balanceOf",
      "outputs": [
        {
          "internalType": "uint256",
          "name": "",
          "type": "uint256"
        }
      ],
      "stateMutability": "view",
      "type": "function"
    },
    {
      "inputs": [
        {
          "internalType": "uint256",
          "name": "amount",
          "type": "uint256"
        }
      ],
      "name": "burn",
      "outputs": [],
      "stateMutability": "nonpayable",
      "type": "function"
    },
    {
      "inputs": [
        {
          "internalType": "address",
          "name": "account",
          "type": "address"
        },
        {
          "internalType": "uint256",
          "name": "amount",
          "type": "uint256"
        }
      ],
      "name": "burnFrom",
      "outputs": [],
      "stateMutability": "nonpayable",
      "type": "function"
    },
    {
      "inputs": [],
      "name": "decimals",
      "outputs": [
        {
          "internalType": "uint8",
          "name": "",
          "type": "uint8"
        }
      ],
      "stateMutability": "view",
      "type": "function"
    },
    {
      "inputs": [
        {
          "internalType": "address",
          "name": "spender",
          "type": "address"
        },
        {
          "internalType": "uint256",
          "name": "subtractedValue",
          "type": "uint256"
        }
      ],
      "name": "decreaseAllowance",
      "outputs": [
        {
          "internalType": "bool",
          "name": "",
          "type": "bool"
        }
      ],
      "stateMutability": "nonpayable",
      "type": "function"
    },
    {
      "inputs": [
        {
          "components": [
            {
              "internalType": "string",
              "name": "_context",
              "type": "string"
            },
            {
              "internalType": "string",
              "name": "_type",
              "type": "string"
            },
            {
              "internalType": "string",
              "name": "id",
              "type": "string"
            },
            {
              "components": [
                {
                  "internalType": "string",
                  "name": "id",
                  "type": "string"
                },
                {
                  "internalType": "address",
                  "name": "ethereumAddress",
                  "type": "address"
                }
              ],
              "internalType": "struct VCTypesV01.Issuer",
              "name": "issuer",
              "type": "tuple"
            },
            {
              "components": [
                {
                  "internalType": "string",
                  "name": "id",
                  "type": "string"
                },
                {
                  "internalType": "address",
                  "name": "ethereumAddress",
                  "type": "address"
                },
                {
                  "internalType": "string",
                  "name": "_type",
                  "type": "string"
                },
                {
                  "internalType": "string",
                  "name": "value",
                  "type": "string"
                },
                {
                  "internalType": "string",
                  "name": "encrypted",
                  "type": "string"
                },
                {
                  "internalType": "uint8",
                  "name": "trust",
                  "type": "uint8"
                },
                {
                  "internalType": "uint256",
                  "name": "stake",
                  "type": "uint256"
                },
                {
                  "internalType": "uint256",
                  "name": "nbf",
                  "type": "uint256"
                },
                {
                  "internalType": "uint256",
                  "name": "exp",
                  "type": "uint256"
                }
              ],
              "internalType": "struct VCTypesV01.CredentialSubject",
              "name": "credentialSubject",
              "type": "tuple"
            },
            {
              "components": [
                {
                  "internalType": "string",
                  "name": "id",
                  "type": "string"
                },
                {
                  "internalType": "string",
                  "name": "_type",
                  "type": "string"
                }
              ],
              "internalType": "struct VCTypesV01.CredentialSchema",
              "name": "credentialSchema",
              "type": "tuple"
            },
            {
              "internalType": "string",
              "name": "issuanceDate",
              "type": "string"
            },
            {
              "internalType": "string",
              "name": "expirationDate",
              "type": "string"
            }
          ],
          "internalType": "struct VCTypesV01.VerifiableCredential",
          "name": "vc",
          "type": "tuple"
        },
        {
          "internalType": "string",
          "name": "reason",
          "type": "string"
        }
      ],
      "name": "deleteVC",
      "outputs": [
        {
          "internalType": "bool",
          "name": "",
          "type": "bool"
        }
      ],
      "stateMutability": "nonpayable",
      "type": "function"
    },
    {
      "inputs": [
        {
          "components": [
            {
              "internalType": "string",
              "name": "_context",
              "type": "string"
            },
            {
              "internalType": "string",
              "name": "_type",
              "type": "string"
            },
            {
              "internalType": "string",
              "name": "id",
              "type": "string"
            },
            {
              "components": [
                {
                  "internalType": "string",
                  "name": "id",
                  "type": "string"
                },
                {
                  "internalType": "address",
                  "name": "ethereumAddress",
                  "type": "address"
                }
              ],
              "internalType": "struct VCTypesV01.Issuer",
              "name": "issuer",
              "type": "tuple"
            },
            {
              "components": [
                {
                  "internalType": "string",
                  "name": "id",
                  "type": "string"
                },
                {
                  "internalType": "address",
                  "name": "ethereumAddress",
                  "type": "address"
                },
                {
                  "internalType": "string",
                  "name": "_type",
                  "type": "string"
                },
                {
                  "internalType": "string",
                  "name": "value",
                  "type": "string"
                },
                {
                  "internalType": "string",
                  "name": "encrypted",
                  "type": "string"
                },
                {
                  "internalType": "uint8",
                  "name": "trust",
                  "type": "uint8"
                },
                {
                  "internalType": "uint256",
                  "name": "stake",
                  "type": "uint256"
                },
                {
                  "internalType": "uint256",
                  "name": "nbf",
                  "type": "uint256"
                },
                {
                  "internalType": "uint256",
                  "name": "exp",
                  "type": "uint256"
                }
              ],
              "internalType": "struct VCTypesV01.CredentialSubject",
              "name": "credentialSubject",
              "type": "tuple"
            },
            {
              "components": [
                {
                  "internalType": "string",
                  "name": "id",
                  "type": "string"
                },
                {
                  "internalType": "string",
                  "name": "_type",
                  "type": "string"
                }
              ],
              "internalType": "struct VCTypesV01.CredentialSchema",
              "name": "credentialSchema",
              "type": "tuple"
            },
            {
              "internalType": "string",
              "name": "issuanceDate",
              "type": "string"
            },
            {
              "internalType": "string",
              "name": "expirationDate",
              "type": "string"
            }
          ],
          "internalType": "struct VCTypesV01.VerifiableCredential",
          "name": "vc",
          "type": "tuple"
        },
        {
          "components": [
            {
              "internalType": "string",
              "name": "_context",
              "type": "string"
            },
            {
              "internalType": "string",
              "name": "_type",
              "type": "string"
            },
            {
              "internalType": "string",
              "name": "id",
              "type": "string"
            },
            {
              "components": [
                {
                  "internalType": "string",
                  "name": "id",
                  "type": "string"
                },
                {
                  "internalType": "address",
                  "name": "ethereumAddress",
                  "type": "address"
                }
              ],
              "internalType": "struct VCTypesV01.Issuer",
              "name": "issuer",
              "type": "tuple"
            },
            {
              "components": [
                {
                  "internalType": "string",
                  "name": "id",
                  "type": "string"
                },
                {
                  "internalType": "address",
                  "name": "ethereumAddress",
                  "type": "address"
                },
                {
                  "internalType": "string",
                  "name": "_type",
                  "type": "string"
                },
                {
                  "internalType": "string",
                  "name": "value",
                  "type": "string"
                },
                {
                  "internalType": "string",
                  "name": "encrypted",
                  "type": "string"
                },
                {
                  "internalType": "uint8",
                  "name": "trust",
                  "type": "uint8"
                },
                {
                  "internalType": "uint256",
                  "name": "stake",
                  "type": "uint256"
                },
                {
                  "internalType": "uint256",
                  "name": "nbf",
                  "type": "uint256"
                },
                {
                  "internalType": "uint256",
                  "name": "exp",
                  "type": "uint256"
                }
              ],
              "internalType": "struct VCTypesV01.CredentialSubject",
              "name": "credentialSubject",
              "type": "tuple"
            },
            {
              "components": [
                {
                  "internalType": "string",
                  "name": "id",
                  "type": "string"
                },
                {
                  "internalType": "string",
                  "name": "_type",
                  "type": "string"
                }
              ],
              "internalType": "struct VCTypesV01.CredentialSchema",
              "name": "credentialSchema",
              "type": "tuple"
            },
            {
              "internalType": "string",
              "name": "issuanceDate",
              "type": "string"
            },
            {
              "internalType": "string",
              "name": "expirationDate",
              "type": "string"
            }
          ],
          "internalType": "struct VCTypesV01.VerifiableCredential",
          "name": "disputeVC",
          "type": "tuple"
        }
      ],
      "name": "disputeVCByGovern",
      "outputs": [
        {
          "internalType": "bool",
          "name": "",
          "type": "bool"
        }
      ],
      "stateMutability": "nonpayable",
      "type": "function"
    },
    {
      "inputs": [
        {
          "components": [
            {
              "internalType": "string",
              "name": "_context",
              "type": "string"
            },
            {
              "internalType": "string",
              "name": "_type",
              "type": "string"
            },
            {
              "internalType": "string",
              "name": "id",
              "type": "string"
            },
            {
              "components": [
                {
                  "internalType": "string",
                  "name": "id",
                  "type": "string"
                },
                {
                  "internalType": "address",
                  "name": "ethereumAddress",
                  "type": "address"
                }
              ],
              "internalType": "struct VCTypesV01.Issuer",
              "name": "issuer",
              "type": "tuple"
            },
            {
              "components": [
                {
                  "internalType": "string",
                  "name": "id",
                  "type": "string"
                },
                {
                  "internalType": "address",
                  "name": "ethereumAddress",
                  "type": "address"
                },
                {
                  "internalType": "string",
                  "name": "_type",
                  "type": "string"
                },
                {
                  "internalType": "string",
                  "name": "value",
                  "type": "string"
                },
                {
                  "internalType": "string",
                  "name": "encrypted",
                  "type": "string"
                },
                {
                  "internalType": "uint8",
                  "name": "trust",
                  "type": "uint8"
                },
                {
                  "internalType": "uint256",
                  "name": "stake",
                  "type": "uint256"
                },
                {
                  "internalType": "uint256",
                  "name": "nbf",
                  "type": "uint256"
                },
                {
                  "internalType": "uint256",
                  "name": "exp",
                  "type": "uint256"
                }
              ],
              "internalType": "struct VCTypesV01.CredentialSubject",
              "name": "credentialSubject",
              "type": "tuple"
            },
            {
              "components": [
                {
                  "internalType": "string",
                  "name": "id",
                  "type": "string"
                },
                {
                  "internalType": "string",
                  "name": "_type",
                  "type": "string"
                }
              ],
              "internalType": "struct VCTypesV01.CredentialSchema",
              "name": "credentialSchema",
              "type": "tuple"
            },
            {
              "internalType": "string",
              "name": "issuanceDate",
              "type": "string"
            },
            {
              "internalType": "string",
              "name": "expirationDate",
              "type": "string"
            }
          ],
          "internalType": "struct VCTypesV01.VerifiableCredential",
          "name": "vc",
          "type": "tuple"
        }
      ],
      "name": "expiredVC",
      "outputs": [
        {
          "internalType": "bool",
          "name": "",
          "type": "bool"
        }
      ],
      "stateMutability": "nonpayable",
      "type": "function"
    },
    {
      "inputs": [
        {
          "internalType": "bytes32",
          "name": "role",
          "type": "bytes32"
        }
      ],
      "name": "getRoleAdmin",
      "outputs": [
        {
          "internalType": "bytes32",
          "name": "",
          "type": "bytes32"
        }
      ],
      "stateMutability": "view",
      "type": "function"
    },
    {
      "inputs": [
        {
          "internalType": "bytes32",
          "name": "role",
          "type": "bytes32"
        },
        {
          "internalType": "uint256",
          "name": "index",
          "type": "uint256"
        }
      ],
      "name": "getRoleMember",
      "outputs": [
        {
          "internalType": "address",
          "name": "",
          "type": "address"
        }
      ],
      "stateMutability": "view",
      "type": "function"
    },
    {
      "inputs": [
        {
          "internalType": "bytes32",
          "name": "role",
          "type": "bytes32"
        }
      ],
      "name": "getRoleMemberCount",
      "outputs": [
        {
          "internalType": "uint256",
          "name": "",
          "type": "uint256"
        }
      ],
      "stateMutability": "view",
      "type": "function"
    },
    {
      "inputs": [
        {
          "components": [
            {
              "internalType": "string",
              "name": "_context",
              "type": "string"
            },
            {
              "internalType": "string",
              "name": "_type",
              "type": "string"
            },
            {
              "internalType": "string",
              "name": "id",
              "type": "string"
            },
            {
              "components": [
                {
                  "internalType": "string",
                  "name": "id",
                  "type": "string"
                },
                {
                  "internalType": "address",
                  "name": "ethereumAddress",
                  "type": "address"
                }
              ],
              "internalType": "struct VCTypesV01.Issuer",
              "name": "issuer",
              "type": "tuple"
            },
            {
              "components": [
                {
                  "internalType": "string",
                  "name": "id",
                  "type": "string"
                },
                {
                  "internalType": "address",
                  "name": "ethereumAddress",
                  "type": "address"
                },
                {
                  "internalType": "string",
                  "name": "_type",
                  "type": "string"
                },
                {
                  "internalType": "string",
                  "name": "value",
                  "type": "string"
                },
                {
                  "internalType": "string",
                  "name": "encrypted",
                  "type": "string"
                },
                {
                  "internalType": "uint8",
                  "name": "trust",
                  "type": "uint8"
                },
                {
                  "internalType": "uint256",
                  "name": "stake",
                  "type": "uint256"
                },
                {
                  "internalType": "uint256",
                  "name": "nbf",
                  "type": "uint256"
                },
                {
                  "internalType": "uint256",
                  "name": "exp",
                  "type": "uint256"
                }
              ],
              "internalType": "struct VCTypesV01.CredentialSubject",
              "name": "credentialSubject",
              "type": "tuple"
            },
            {
              "components": [
                {
                  "internalType": "string",
                  "name": "id",
                  "type": "string"
                },
                {
                  "internalType": "string",
                  "name": "_type",
                  "type": "string"
                }
              ],
              "internalType": "struct VCTypesV01.CredentialSchema",
              "name": "credentialSchema",
              "type": "tuple"
            },
            {
              "internalType": "string",
              "name": "issuanceDate",
              "type": "string"
            },
            {
              "internalType": "string",
              "name": "expirationDate",
              "type": "string"
            }
          ],
          "internalType": "struct VCTypesV01.VerifiableCredential",
          "name": "vc",
          "type": "tuple"
        }
      ],
      "name": "getUuid",
      "outputs": [
        {
          "internalType": "bytes32",
          "name": "",
          "type": "bytes32"
        }
      ],
      "stateMutability": "pure",
      "type": "function"
    },
    {
      "inputs": [
        {
          "components": [
            {
              "internalType": "string",
              "name": "_context",
              "type": "string"
            },
            {
              "internalType": "string",
              "name": "_type",
              "type": "string"
            },
            {
              "internalType": "string",
              "name": "id",
              "type": "string"
            },
            {
              "components": [
                {
                  "internalType": "string",
                  "name": "id",
                  "type": "string"
                },
                {
                  "internalType": "address",
                  "name": "ethereumAddress",
                  "type": "address"
                }
              ],
              "internalType": "struct VCTypesV01.Issuer",
              "name": "issuer",
              "type": "tuple"
            },
            {
              "components": [
                {
                  "internalType": "string",
                  "name": "id",
                  "type": "string"
                },
                {
                  "internalType": "address",
                  "name": "ethereumAddress",
                  "type": "address"
                },
                {
                  "internalType": "string",
                  "name": "_type",
                  "type": "string"
                },
                {
                  "internalType": "string",
                  "name": "value",
                  "type": "string"
                },
                {
                  "internalType": "string",
                  "name": "encrypted",
                  "type": "string"
                },
                {
                  "internalType": "uint8",
                  "name": "trust",
                  "type": "uint8"
                },
                {
                  "internalType": "uint256",
                  "name": "stake",
                  "type": "uint256"
                },
                {
                  "internalType": "uint256",
                  "name": "nbf",
                  "type": "uint256"
                },
                {
                  "internalType": "uint256",
                  "name": "exp",
                  "type": "uint256"
                }
              ],
              "internalType": "struct VCTypesV01.CredentialSubject",
              "name": "credentialSubject",
              "type": "tuple"
            },
            {
              "components": [
                {
                  "internalType": "string",
                  "name": "id",
                  "type": "string"
                },
                {
                  "internalType": "string",
                  "name": "_type",
                  "type": "string"
                }
              ],
              "internalType": "struct VCTypesV01.CredentialSchema",
              "name": "credentialSchema",
              "type": "tuple"
            },
            {
              "internalType": "string",
              "name": "issuanceDate",
              "type": "string"
            },
            {
              "internalType": "string",
              "name": "expirationDate",
              "type": "string"
            }
          ],
          "internalType": "struct VCTypesV01.VerifiableCredential",
          "name": "vc",
          "type": "tuple"
        }
      ],
      "name": "getVCStatus",
      "outputs": [
        {
          "internalType": "string",
          "name": "",
          "type": "string"
        }
      ],
      "stateMutability": "view",
      "type": "function"
    },
    {
      "inputs": [
        {
          "internalType": "bytes32",
          "name": "uuid",
          "type": "bytes32"
        }
      ],
      "name": "getVCStatusByUUid",
      "outputs": [
        {
          "internalType": "string",
          "name": "",
          "type": "string"
        }
      ],
      "stateMutability": "view",
      "type": "function"
    },
    {
      "inputs": [
        {
          "internalType": "bytes32",
          "name": "role",
          "type": "bytes32"
        },
        {
          "internalType": "address",
          "name": "account",
          "type": "address"
        }
      ],
      "name": "grantRole",
      "outputs": [],
      "stateMutability": "nonpayable",
      "type": "function"
    },
    {
      "inputs": [
        {
          "internalType": "bytes32",
          "name": "role",
          "type": "bytes32"
        },
        {
          "internalType": "address",
          "name": "account",
          "type": "address"
        }
      ],
      "name": "hasRole",
      "outputs": [
        {
          "internalType": "bool",
          "name": "",
          "type": "bool"
        }
      ],
      "stateMutability": "view",
      "type": "function"
    },
    {
      "inputs": [
        {
          "internalType": "address",
          "name": "spender",
          "type": "address"
        },
        {
          "internalType": "uint256",
          "name": "addedValue",
          "type": "uint256"
        }
      ],
      "name": "increaseAllowance",
      "outputs": [
        {
          "internalType": "bool",
          "name": "",
          "type": "bool"
        }
      ],
      "stateMutability": "nonpayable",
      "type": "function"
    },
    {
      "inputs": [],
      "name": "initialize",
      "outputs": [],
      "stateMutability": "nonpayable",
      "type": "function"
    },
    {
      "inputs": [],
      "name": "maxStakeToIssue",
      "outputs": [
        {
          "internalType": "uint256",
          "name": "",
          "type": "uint256"
        }
      ],
      "stateMutability": "view",
      "type": "function"
    },
    {
      "inputs": [],
      "name": "minBalanceToIssue",
      "outputs": [
        {
          "internalType": "uint256",
          "name": "",
          "type": "uint256"
        }
      ],
      "stateMutability": "view",
      "type": "function"
    },
    {
      "inputs": [],
      "name": "minBalanceToReceive",
      "outputs": [
        {
          "internalType": "uint256",
          "name": "",
          "type": "uint256"
        }
      ],
      "stateMutability": "view",
      "type": "function"
    },
    {
      "inputs": [],
      "name": "minBalanceToTransfer",
      "outputs": [
        {
          "internalType": "uint256",
          "name": "",
          "type": "uint256"
        }
      ],
      "stateMutability": "view",
      "type": "function"
    },
    {
      "inputs": [],
      "name": "minStakeToIssue",
      "outputs": [
        {
          "internalType": "uint256",
          "name": "",
          "type": "uint256"
        }
      ],
      "stateMutability": "view",
      "type": "function"
    },
    {
      "inputs": [
        {
          "internalType": "address",
          "name": "to",
          "type": "address"
        },
        {
          "internalType": "uint256",
          "name": "amount",
          "type": "uint256"
        }
      ],
      "name": "mint",
      "outputs": [],
      "stateMutability": "nonpayable",
      "type": "function"
    },
    {
      "inputs": [],
      "name": "name",
      "outputs": [
        {
          "internalType": "string",
          "name": "",
          "type": "string"
        }
      ],
      "stateMutability": "view",
      "type": "function"
    },
    {
      "inputs": [],
      "name": "pause",
      "outputs": [],
      "stateMutability": "nonpayable",
      "type": "function"
    },
    {
      "inputs": [],
      "name": "paused",
      "outputs": [
        {
          "internalType": "bool",
          "name": "",
          "type": "bool"
        }
      ],
      "stateMutability": "view",
      "type": "function"
    },
    {
      "inputs": [
        {
          "components": [
            {
              "internalType": "string",
              "name": "_context",
              "type": "string"
            },
            {
              "internalType": "string",
              "name": "_type",
              "type": "string"
            },
            {
              "internalType": "string",
              "name": "id",
              "type": "string"
            },
            {
              "components": [
                {
                  "internalType": "string",
                  "name": "id",
                  "type": "string"
                },
                {
                  "internalType": "address",
                  "name": "ethereumAddress",
                  "type": "address"
                }
              ],
              "internalType": "struct VCTypesV01.Issuer",
              "name": "issuer",
              "type": "tuple"
            },
            {
              "components": [
                {
                  "internalType": "string",
                  "name": "id",
                  "type": "string"
                },
                {
                  "internalType": "address",
                  "name": "ethereumAddress",
                  "type": "address"
                },
                {
                  "internalType": "string",
                  "name": "_type",
                  "type": "string"
                },
                {
                  "internalType": "string",
                  "name": "value",
                  "type": "string"
                },
                {
                  "internalType": "string",
                  "name": "encrypted",
                  "type": "string"
                },
                {
                  "internalType": "uint8",
                  "name": "trust",
                  "type": "uint8"
                },
                {
                  "internalType": "uint256",
                  "name": "stake",
                  "type": "uint256"
                },
                {
                  "internalType": "uint256",
                  "name": "nbf",
                  "type": "uint256"
                },
                {
                  "internalType": "uint256",
                  "name": "exp",
                  "type": "uint256"
                }
              ],
              "internalType": "struct VCTypesV01.CredentialSubject",
              "name": "credentialSubject",
              "type": "tuple"
            },
            {
              "components": [
                {
                  "internalType": "string",
                  "name": "id",
                  "type": "string"
                },
                {
                  "internalType": "string",
                  "name": "_type",
                  "type": "string"
                }
              ],
              "internalType": "struct VCTypesV01.CredentialSchema",
              "name": "credentialSchema",
              "type": "tuple"
            },
            {
              "internalType": "string",
              "name": "issuanceDate",
              "type": "string"
            },
            {
              "internalType": "string",
              "name": "expirationDate",
              "type": "string"
            }
          ],
          "internalType": "struct VCTypesV01.VerifiableCredential",
          "name": "vc",
          "type": "tuple"
        },
        {
          "internalType": "bytes",
          "name": "proofValue",
          "type": "bytes"
        }
      ],
      "name": "registerVC",
      "outputs": [
        {
          "internalType": "bool",
          "name": "",
          "type": "bool"
        }
      ],
      "stateMutability": "nonpayable",
      "type": "function"
    },
    {
      "inputs": [
        {
          "internalType": "bytes32",
          "name": "",
          "type": "bytes32"
        }
      ],
      "name": "registry",
      "outputs": [
        {
          "internalType": "enum KRBTokenV01.Status",
          "name": "credentialStatus",
          "type": "uint8"
        },
        {
          "internalType": "bytes32",
          "name": "disputedBy",
          "type": "bytes32"
        }
      ],
      "stateMutability": "view",
      "type": "function"
    },
    {
      "inputs": [
        {
          "internalType": "bytes32",
          "name": "role",
          "type": "bytes32"
        },
        {
          "internalType": "address",
          "name": "account",
          "type": "address"
        }
      ],
      "name": "renounceRole",
      "outputs": [],
      "stateMutability": "nonpayable",
      "type": "function"
    },
    {
      "inputs": [
        {
          "internalType": "bytes32",
          "name": "role",
          "type": "bytes32"
        },
        {
          "internalType": "address",
          "name": "account",
          "type": "address"
        }
      ],
      "name": "revokeRole",
      "outputs": [],
      "stateMutability": "nonpayable",
      "type": "function"
    },
    {
      "inputs": [
        {
          "components": [
            {
              "internalType": "string",
              "name": "_context",
              "type": "string"
            },
            {
              "internalType": "string",
              "name": "_type",
              "type": "string"
            },
            {
              "internalType": "string",
              "name": "id",
              "type": "string"
            },
            {
              "components": [
                {
                  "internalType": "string",
                  "name": "id",
                  "type": "string"
                },
                {
                  "internalType": "address",
                  "name": "ethereumAddress",
                  "type": "address"
                }
              ],
              "internalType": "struct VCTypesV01.Issuer",
              "name": "issuer",
              "type": "tuple"
            },
            {
              "components": [
                {
                  "internalType": "string",
                  "name": "id",
                  "type": "string"
                },
                {
                  "internalType": "address",
                  "name": "ethereumAddress",
                  "type": "address"
                },
                {
                  "internalType": "string",
                  "name": "_type",
                  "type": "string"
                },
                {
                  "internalType": "string",
                  "name": "value",
                  "type": "string"
                },
                {
                  "internalType": "string",
                  "name": "encrypted",
                  "type": "string"
                },
                {
                  "internalType": "uint8",
                  "name": "trust",
                  "type": "uint8"
                },
                {
                  "internalType": "uint256",
                  "name": "stake",
                  "type": "uint256"
                },
                {
                  "internalType": "uint256",
                  "name": "nbf",
                  "type": "uint256"
                },
                {
                  "internalType": "uint256",
                  "name": "exp",
                  "type": "uint256"
                }
              ],
              "internalType": "struct VCTypesV01.CredentialSubject",
              "name": "credentialSubject",
              "type": "tuple"
            },
            {
              "components": [
                {
                  "internalType": "string",
                  "name": "id",
                  "type": "string"
                },
                {
                  "internalType": "string",
                  "name": "_type",
                  "type": "string"
                }
              ],
              "internalType": "struct VCTypesV01.CredentialSchema",
              "name": "credentialSchema",
              "type": "tuple"
            },
            {
              "internalType": "string",
              "name": "issuanceDate",
              "type": "string"
            },
            {
              "internalType": "string",
              "name": "expirationDate",
              "type": "string"
            }
          ],
          "internalType": "struct VCTypesV01.VerifiableCredential",
          "name": "vc",
          "type": "tuple"
        },
        {
          "internalType": "string",
          "name": "reason",
          "type": "string"
        }
      ],
      "name": "revokeVC",
      "outputs": [
        {
          "internalType": "bool",
          "name": "",
          "type": "bool"
        }
      ],
      "stateMutability": "nonpayable",
      "type": "function"
    },
    {
      "inputs": [
        {
          "internalType": "bytes4",
          "name": "interfaceId",
          "type": "bytes4"
        }
      ],
      "name": "supportsInterface",
      "outputs": [
        {
          "internalType": "bool",
          "name": "",
          "type": "bool"
        }
      ],
      "stateMutability": "view",
      "type": "function"
    },
    {
      "inputs": [
        {
          "components": [
            {
              "internalType": "string",
              "name": "_context",
              "type": "string"
            },
            {
              "internalType": "string",
              "name": "_type",
              "type": "string"
            },
            {
              "internalType": "string",
              "name": "id",
              "type": "string"
            },
            {
              "components": [
                {
                  "internalType": "string",
                  "name": "id",
                  "type": "string"
                },
                {
                  "internalType": "address",
                  "name": "ethereumAddress",
                  "type": "address"
                }
              ],
              "internalType": "struct VCTypesV01.Issuer",
              "name": "issuer",
              "type": "tuple"
            },
            {
              "components": [
                {
                  "internalType": "string",
                  "name": "id",
                  "type": "string"
                },
                {
                  "internalType": "address",
                  "name": "ethereumAddress",
                  "type": "address"
                },
                {
                  "internalType": "string",
                  "name": "_type",
                  "type": "string"
                },
                {
                  "internalType": "string",
                  "name": "value",
                  "type": "string"
                },
                {
                  "internalType": "string",
                  "name": "encrypted",
                  "type": "string"
                },
                {
                  "internalType": "uint8",
                  "name": "trust",
                  "type": "uint8"
                },
                {
                  "internalType": "uint256",
                  "name": "stake",
                  "type": "uint256"
                },
                {
                  "internalType": "uint256",
                  "name": "nbf",
                  "type": "uint256"
                },
                {
                  "internalType": "uint256",
                  "name": "exp",
                  "type": "uint256"
                }
              ],
              "internalType": "struct VCTypesV01.CredentialSubject",
              "name": "credentialSubject",
              "type": "tuple"
            },
            {
              "components": [
                {
                  "internalType": "string",
                  "name": "id",
                  "type": "string"
                },
                {
                  "internalType": "string",
                  "name": "_type",
                  "type": "string"
                }
              ],
              "internalType": "struct VCTypesV01.CredentialSchema",
              "name": "credentialSchema",
              "type": "tuple"
            },
            {
              "internalType": "string",
              "name": "issuanceDate",
              "type": "string"
            },
            {
              "internalType": "string",
              "name": "expirationDate",
              "type": "string"
            }
          ],
          "internalType": "struct VCTypesV01.VerifiableCredential",
          "name": "vc",
          "type": "tuple"
        },
        {
          "internalType": "string",
          "name": "reason",
          "type": "string"
        }
      ],
      "name": "suspendVC",
      "outputs": [
        {
          "internalType": "bool",
          "name": "",
          "type": "bool"
        }
      ],
      "stateMutability": "nonpayable",
      "type": "function"
    },
    {
      "inputs": [],
      "name": "symbol",
      "outputs": [
        {
          "internalType": "string",
          "name": "",
          "type": "string"
        }
      ],
      "stateMutability": "view",
      "type": "function"
    },
    {
      "inputs": [],
      "name": "totalSupply",
      "outputs": [
        {
          "internalType": "uint256",
          "name": "",
          "type": "uint256"
        }
      ],
      "stateMutability": "view",
      "type": "function"
    },
    {
      "inputs": [
        {
          "internalType": "address",
          "name": "recipient",
          "type": "address"
        },
        {
          "internalType": "uint256",
          "name": "amount",
          "type": "uint256"
        }
      ],
      "name": "transfer",
      "outputs": [
        {
          "internalType": "bool",
          "name": "",
          "type": "bool"
        }
      ],
      "stateMutability": "nonpayable",
      "type": "function"
    },
    {
      "inputs": [
        {
          "internalType": "address",
          "name": "sender",
          "type": "address"
        },
        {
          "internalType": "address",
          "name": "recipient",
          "type": "address"
        },
        {
          "internalType": "uint256",
          "name": "amount",
          "type": "uint256"
        }
      ],
      "name": "transferFrom",
      "outputs": [
        {
          "internalType": "bool",
          "name": "",
          "type": "bool"
        }
      ],
      "stateMutability": "nonpayable",
      "type": "function"
    },
    {
      "inputs": [],
      "name": "unpause",
      "outputs": [],
      "stateMutability": "nonpayable",
      "type": "function"
    },
    {
      "inputs": [
        {
          "internalType": "uint256",
          "name": "newMinBalance",
          "type": "uint256"
        }
      ],
      "name": "updateMinBalanceToIssue",
      "outputs": [],
      "stateMutability": "nonpayable",
      "type": "function"
    },
    {
      "inputs": [
        {
          "internalType": "uint256",
          "name": "newMinBalance",
          "type": "uint256"
        }
      ],
      "name": "updateMinBalanceToReceive",
      "outputs": [],
      "stateMutability": "nonpayable",
      "type": "function"
    },
    {
      "inputs": [
        {
          "internalType": "uint256",
          "name": "newMinBalance",
          "type": "uint256"
        }
      ],
      "name": "updateMinBalanceToTransfer",
      "outputs": [],
      "stateMutability": "nonpayable",
      "type": "function"
    },
    {
      "inputs": [
        {
          "internalType": "uint256",
          "name": "newMinStake",
          "type": "uint256"
        },
        {
          "internalType": "uint256",
          "name": "newMaxStake",
          "type": "uint256"
        }
      ],
      "name": "updateStakeToIssue",
      "outputs": [],
      "stateMutability": "nonpayable",
      "type": "function"
    },
    {
      "inputs": [
        {
          "internalType": "address",
          "name": "newImplementation",
          "type": "address"
        }
      ],
      "name": "upgradeTo",
      "outputs": [],
      "stateMutability": "nonpayable",
      "type": "function"
    },
    {
      "inputs": [
        {
          "internalType": "address",
          "name": "newImplementation",
          "type": "address"
        },
        {
          "internalType": "bytes",
          "name": "data",
          "type": "bytes"
        }
      ],
      "name": "upgradeToAndCall",
      "outputs": [],
      "stateMutability": "payable",
      "type": "function"
    }
  ],
  "bytecode": "0x60a06040523060601b6080523480156200001857600080fd5b50600054610100900460ff16620000365760005460ff161562000040565b62000040620000e5565b620000a85760405162461bcd60e51b815260206004820152602e60248201527f496e697469616c697a61626c653a20636f6e747261637420697320616c72656160448201526d191e481a5b9a5d1a585b1a5e995960921b606482015260840160405180910390fd5b600054610100900460ff16158015620000cb576000805461ffff19166101011790555b8015620000de576000805461ff00191690555b5062000109565b6000620000fd306200010360201b62001b3e1760201c565b15905090565b3b151590565b60805160601c614e9c6200013d6000396000818161103a0152818161107a0152818161122401526112640152614e9c6000f3fe6080604052600436106102c95760003560e01c806370a0823111610175578063a457c2d7116100dc578063de9d2b1c11610095578063e6aff7be1161006f578063e6aff7be146108b2578063e94e5dfc146108d2578063f09a4d56146108f2578063fc349c911461091257600080fd5b8063de9d2b1c14610864578063e29578a61461087b578063e5a2b28e1461089b57600080fd5b8063a457c2d714610787578063a9059cbb146107a7578063af4e720d146107c7578063ca15c873146107de578063d547741f146107fe578063dd62ed3e1461081e57600080fd5b806391d148541161012e57806391d14854146106dd57806392cea574146106fd57806395d89b411461071d57806396a45bc5146107325780639def76ad14610752578063a217fddf1461077257600080fd5b806370a08231146105dc57806379cc6790146106125780637ef50298146106325780638129fc1c1461067b5780638456cb59146106905780639010d07c146106a557600080fd5b80632f2ff15d1161023457806339509351116101ed57806342966c68116101c757806342966c68146105705780634f1ef286146105905780635c975abb146105a35780635d7f0656146105bc57600080fd5b8063395093511461051b5780633f4ba83a1461053b57806340c10f191461055057600080fd5b80632f2ff15d14610468578063313ce567146104885780633644e515146104a457806336568abe146104b95780633659cfe6146104d957806338b7f446146104f957600080fd5b80630f3ed782116102865780630f3ed782146103a357806312b4bb44146103c357806318160ddd146103e357806319659ff3146103f857806323b872dd14610418578063248a9ca31461043857600080fd5b806301ffc9a7146102ce57806306fdde031461030357806307a0d7981461032557806307a772921461034a578063095ea7b31461036157806309b1146b14610381575b600080fd5b3480156102da57600080fd5b506102ee6102e93660046144e2565b610932565b60405190151581526020015b60405180910390f35b34801561030f57600080fd5b5061031861095d565b6040516102fa9190614917565b34801561033157600080fd5b5061033c61022d5481565b6040519081526020016102fa565b34801561035657600080fd5b5061033c61022a5481565b34801561036d57600080fd5b506102ee61037c36600461445a565b6109ef565b34801561038d57600080fd5b506103a161039c366004614484565b610a05565b005b3480156103af57600080fd5b506102ee6103be366004614548565b610a97565b3480156103cf57600080fd5b506102ee6103de3660046145a1565b610ae7565b3480156103ef57600080fd5b5060cb5461033c565b34801561040457600080fd5b506102ee610413366004614548565b610e8e565b34801561042457600080fd5b506102ee6104333660046143d1565b610ecb565b34801561044457600080fd5b5061033c610453366004614484565b60009081526065602052604090206001015490565b34801561047457600080fd5b506103a161048336600461449d565b610f77565b34801561049457600080fd5b50604051601281526020016102fa565b3480156104b057600080fd5b5061033c610fa2565b3480156104c557600080fd5b506103a16104d436600461449d565b610fb1565b3480156104e557600080fd5b506103a16104f4366004614383565b61102f565b34801561050557600080fd5b5061033c600080516020614e0083398151915281565b34801561052757600080fd5b506102ee61053636600461445a565b6110f8565b34801561054757600080fd5b506103a1611134565b34801561055c57600080fd5b506103a161056b36600461445a565b6111a3565b34801561057c57600080fd5b506103a161058b366004614484565b61120f565b6103a161059e36600461440d565b611219565b3480156105af57600080fd5b5061012d5460ff166102ee565b3480156105c857600080fd5b5061033c6105d736600461450c565b6112cf565b3480156105e857600080fd5b5061033c6105f7366004614383565b6001600160a01b0316600090815260c9602052604090205490565b34801561061e57600080fd5b506103a161062d36600461445a565b6112da565b34801561063e57600080fd5b5061066d61064d366004614484565b61022e602052600090815260409020805460019091015460ff9091169082565b6040516102fa9291906148eb565b34801561068757600080fd5b506103a161135b565b34801561069c57600080fd5b506103a1611456565b3480156106b157600080fd5b506106c56106c03660046144c0565b6114c1565b6040516001600160a01b0390911681526020016102fa565b3480156106e957600080fd5b506102ee6106f836600461449d565b6114d9565b34801561070957600080fd5b506102ee610718366004614548565b611504565b34801561072957600080fd5b5061031861154a565b34801561073e57600080fd5b506103a161074d366004614484565b611559565b34801561075e57600080fd5b506102ee61076d36600461450c565b6115d8565b34801561077e57600080fd5b5061033c600081565b34801561079357600080fd5b506102ee6107a236600461445a565b611656565b3480156107b357600080fd5b506102ee6107c236600461445a565b6116e5565b3480156107d357600080fd5b5061033c61022b5481565b3480156107ea57600080fd5b5061033c6107f9366004614484565b6116f2565b34801561080a57600080fd5b506103a161081936600461449d565b611709565b34801561082a57600080fd5b5061033c61083936600461439e565b6001600160a01b03918216600090815260ca6020908152604080832093909416825291909152205490565b34801561087057600080fd5b5061033c61022c5481565b34801561088757600080fd5b50610318610896366004614484565b61172f565b3480156108a757600080fd5b5061033c6102295481565b3480156108be57600080fd5b506103a16108cd366004614484565b6118e2565b3480156108de57600080fd5b506102ee6108ed366004614548565b61195e565b3480156108fe57600080fd5b506103a161090d3660046144c0565b6119a4565b34801561091e57600080fd5b5061031861092d36600461450c565b611b26565b60006001600160e01b03198216635a05180f60e01b1480610957575061095782611b44565b92915050565b606060cc805461096c90614d36565b80601f016020809104026020016040519081016040528092919081815260200182805461099890614d36565b80156109e55780601f106109ba576101008083540402835291602001916109e5565b820191906000526020600020905b8154815290600101906020018083116109c857829003601f168201915b5050505050905090565b60006109fc338484611b79565b50600192915050565b610a1d600080516020614e00833981519152336114d9565b610a425760405162461bcd60e51b8152600401610a399061492a565b60405180910390fd5b61022a819055604051600080516020614de083398151915290610a8c906020808252601390820152726d696e42616c616e6365546f5265636569766560681b604082015260600190565b60405180910390a150565b6060820151602001516000906001600160a01b03163314610aca5760405162461bcd60e51b8152600401610a399061496c565b610add610ad6846112cf565b8484611c9d565b5060019392505050565b6000610b01600080516020614e00833981519152336114d9565b610b565760405162461bcd60e51b81526020600482015260326024820152600080516020614e47833981519152604482015271746f207265736f6c7665206469737075746560701b6064820152608401610a39565b60405170111a5cdc1d5d1950dc9959195b9d1a585b607a1b6020820152603101604051602081830303815290604052805190602001208260200151604051602001610ba19190614744565b6040516020818303038152906040528051906020012014610c235760405162461bcd60e51b815260206004820152603660248201527f4b5242546f6b656e3a206469737075746520636c61696d2074797065206d75736044820152751d08189948111a5cdc1d5d1950dc9959195b9d1a585b60521b6064820152608401610a39565b6060820151602001516001600160a01b03163314610c975760405162461bcd60e51b815260206004820152602b60248201527f4b5242546f6b656e3a20697373756572206d7573742062652074686520476f7660448201526a65726e206164647265737360a81b6064820152608401610a39565b6000610ca2846112cf565b905060008082815261022e602052604090205460ff166005811115610cc957610cc9614d87565b14158015610cfb57506002600082815261022e602052604090205460ff166005811115610cf857610cf8614d87565b14155b610d535760405162461bcd60e51b815260206004820152602360248201527f4b5242546f6b656e3a20564320737461746520616c72656164792064697370756044820152621d195960ea1b6064820152608401610a39565b6000610d5e846112cf565b600083815261022e6020908152604091829020805460ff1916600217815560010183905581518581529081018390529192507f8e39eab2c454d024fb5c89b50dabc51f5068c7a283891d06aa91f5ba96acded1910160405180910390a1600081815261022e602052604090819020805460ff19166001179055517f1711a2cfe58eeec65b08757681db7a8568834aa3474c2f9b9975a6952a0cfc7190610e0790839087906147ee565b60405180910390a16000610e1d6012600a614c12565b866080015160c00151610e309190614cbd565b9050610e4486606001516020015182611d90565b6000610e5b82886080015160a0015160ff16611eea565b9050610e6f87608001516020015182611d90565b610e8187606001516020015182611d90565b5060019695505050505050565b6080820151602001516000906001600160a01b03163314610ec15760405162461bcd60e51b8152600401610a3990614a86565b610add8383611f00565b6000610ed8848484611f36565b6001600160a01b038416600090815260ca6020908152604080832033845290915290205482811015610f5d5760405162461bcd60e51b815260206004820152602860248201527f45524332303a207472616e7366657220616d6f756e74206578636565647320616044820152676c6c6f77616e636560c01b6064820152608401610a39565b610f6a8533858403611b79565b60019150505b9392505050565b600082815260656020526040902060010154610f938133612111565b610f9d8383612175565b505050565b6000610fac612197565b905090565b6001600160a01b03811633146110215760405162461bcd60e51b815260206004820152602f60248201527f416363657373436f6e74726f6c3a2063616e206f6e6c792072656e6f756e636560448201526e103937b632b9903337b91039b2b63360891b6064820152608401610a39565b61102b8282612214565b5050565b306001600160a01b037f00000000000000000000000000000000000000000000000000000000000000001614156110785760405162461bcd60e51b8152600401610a39906149b7565b7f00000000000000000000000000000000000000000000000000000000000000006001600160a01b03166110aa612236565b6001600160a01b0316146110d05760405162461bcd60e51b8152600401610a3990614a03565b6110d981612264565b604080516000808252602082019092526110f5918391906122c9565b50565b33600081815260ca602090815260408083206001600160a01b038716845290915281205490916109fc91859061112f908690614b95565b611b79565b61114c600080516020614e00833981519152336114d9565b6111995760405162461bcd60e51b815260206004820152602a6024820152600080516020614e47833981519152604482015269746f20756e706175736560b01b6064820152608401610a39565b6111a1612414565b565b6111bb600080516020614e00833981519152336114d9565b6112055760405162461bcd60e51b81526020600482015260276024820152600080516020614e478339815191526044820152661d1bc81b5a5b9d60ca1b6064820152608401610a39565b61102b82826124a9565b6110f53382611d90565b306001600160a01b037f00000000000000000000000000000000000000000000000000000000000000001614156112625760405162461bcd60e51b8152600401610a39906149b7565b7f00000000000000000000000000000000000000000000000000000000000000006001600160a01b0316611294612236565b6001600160a01b0316146112ba5760405162461bcd60e51b8152600401610a3990614a03565b6112c382612264565b61102b828260016122c9565b600061095782612594565b60006112e68333610839565b9050818110156113445760405162461bcd60e51b8152602060048201526024808201527f45524332303a206275726e20616d6f756e74206578636565647320616c6c6f77604482015263616e636560e01b6064820152608401610a39565b6113518333848403611b79565b610f9d8383611d90565b600054610100900460ff166113765760005460ff161561137a565b303b155b6113dd5760405162461bcd60e51b815260206004820152602e60248201527f496e697469616c697a61626c653a20636f6e747261637420697320616c72656160448201526d191e481a5b9a5d1a585b1a5e995960921b6064820152608401610a39565b600054610100900460ff161580156113ff576000805461ffff19166101011790555b6114426040518060400160405280600681526020016512dc99589a5d60d21b8152506040518060400160405280600381526020016225a92160e91b815250612688565b80156110f5576000805461ff001916905550565b61146e600080516020614e00833981519152336114d9565b6114b95760405162461bcd60e51b81526020600482015260286024820152600080516020614e47833981519152604482015267746f20706175736560c01b6064820152608401610a39565b6111a1612720565b6000828152609760205260408120610f70908361279d565b60009182526065602090815260408084206001600160a01b0393909316845291905290205460ff1690565b6080820151602001516000906001600160a01b031633146115375760405162461bcd60e51b8152600401610a3990614a86565b610add611543846112cf565b84846127a9565b606060cd805461096c90614d36565b611571600080516020614e00833981519152336114d9565b61158d5760405162461bcd60e51b8152600401610a399061492a565b610229819055604051600080516020614de083398151915290610a8c9060208082526014908201527336b4b72130b630b731b2aa37aa3930b739b332b960611b604082015260600190565b6000806115e4836112cf565b90508260800151610100015142111561164657600081815261022e6020908152604091829020805460ff1916600517905590518281527f3077f64f92ad91c6479071531304fa3c1e0bb9b63e130c746f3a564292f0ddc6910160405180910390a15b5050608001516101000151421190565b33600090815260ca602090815260408083206001600160a01b0386168452909152812054828110156116d85760405162461bcd60e51b815260206004820152602560248201527f45524332303a2064656372656173656420616c6c6f77616e63652062656c6f77604482015264207a65726f60d81b6064820152608401610a39565b610add3385858403611b79565b60006109fc338484611f36565b60008181526097602052604081206109579061289f565b6000828152606560205260409020600101546117258133612111565b610f9d8383612214565b600081815261022e602052604081205460609160ff9091169081600581111561175a5761175a614d87565b14156117825750506040805180820190915260048152634e6f6e6560e01b6020820152919050565b600181600581111561179657611796614d87565b14156117c0575050604080518082019091526006815265125cdcdd595960d21b6020820152919050565b60028160058111156117d4576117d4614d87565b1415611800575050604080518082019091526008815267111a5cdc1d5d195960c21b6020820152919050565b600381600581111561181457611814614d87565b141561183f57505060408051808201909152600781526614995d9bdad95960ca1b6020820152919050565b600481600581111561185357611853614d87565b141561188057505060408051808201909152600981526814dd5cdc195b99195960ba1b6020820152919050565b600581600581111561189457611894614d87565b14156118bf575050604080518082019091526007815266115e1c1a5c995960ca1b6020820152919050565b505060408051808201909152600581526422b93937b960d91b6020820152919050565b6118fa600080516020614e00833981519152336114d9565b6119165760405162461bcd60e51b8152600401610a399061492a565b61022b819055604051600080516020614de083398151915290610a8c906020808252601190820152706d696e42616c616e6365546f497373756560781b604082015260600190565b6060820151602001516000906001600160a01b031633146119915760405162461bcd60e51b8152600401610a399061496c565b610add61199d846112cf565b84846128a9565b6119bc600080516020614e00833981519152336114d9565b611a115760405162461bcd60e51b81526020600482015260326024820152600080516020614e47833981519152604482015271746f206368616e6765206d696e5374616b6560701b6064820152608401610a39565b818111611a865760405162461bcd60e51b815260206004820152603f60248201527f4b5242546f6b656e3a206e65774d61785374616b65206d75737420626520677260448201527f6561746572206f7220657175616c207468616e206e65774d696e5374616b65006064820152608401610a39565b61022c829055604051600080516020614de083398151915290611acc906020808252600f908201526e6d696e5374616b65546f497373756560881b604082015260600190565b60405180910390a161022d819055604051600080516020614de083398151915290611b1a906020808252600f908201526e6d61785374616b65546f497373756560881b604082015260600190565b60405180910390a15050565b60606000611b33836112cf565b9050610f708161172f565b3b151590565b60006001600160e01b03198216637965db0b60e01b148061095757506301ffc9a760e01b6001600160e01b0319831614610957565b6001600160a01b038316611bdb5760405162461bcd60e51b8152602060048201526024808201527f45524332303a20617070726f76652066726f6d20746865207a65726f206164646044820152637265737360e01b6064820152608401610a39565b6001600160a01b038216611c3c5760405162461bcd60e51b815260206004820152602260248201527f45524332303a20617070726f766520746f20746865207a65726f206164647265604482015261737360f01b6064820152608401610a39565b6001600160a01b03838116600081815260ca602090815260408083209487168084529482529182902085905590518481527f8c5be1e5ebec7d5bd14f71427d1e84f3dd0314c0f7b2291e5b200ac8c7c3b925910160405180910390a3505050565b60006001600085815261022e602052604090205460ff166005811115611cc557611cc5614d87565b14611ce25760405162461bcd60e51b8152600401610a3990614a4f565b600084815261022e602052604090819020805460ff19166004179055517f9f3ea3215e3320f6d705861aefc7d473557aff8cae1ac438222996d547233d3590611d2e90869085906147d5565b60405180910390a16000611d446012600a614c12565b846080015160c00151611d579190614cbd565b90506000611d7082866080015160a0015160ff16611eea565b9050611d8485608001516020015182611d90565b50600195945050505050565b6001600160a01b038216611df05760405162461bcd60e51b815260206004820152602160248201527f45524332303a206275726e2066726f6d20746865207a65726f206164647265736044820152607360f81b6064820152608401610a39565b611dfc8260008361293a565b6001600160a01b038216600090815260c9602052604090205481811015611e705760405162461bcd60e51b815260206004820152602260248201527f45524332303a206275726e20616d6f756e7420657863656564732062616c616e604482015261636560f01b6064820152608401610a39565b6001600160a01b038316600090815260c960205260408120838303905560cb8054849290611e9f908490614cdc565b90915550506040518281526000906001600160a01b038516907fddf252ad1be2c89b69c2b068fc378daa952ba7f163c4a11628f55a4df523b3ef9060200160405180910390a3505050565b6000610f70611ef98484612ad0565b6064612adc565b600080611f0c846112cf565b9050611f218460600151602001518285612ae8565b611f2b8185612bef565b506001949350505050565b6001600160a01b038316611f9a5760405162461bcd60e51b815260206004820152602560248201527f45524332303a207472616e736665722066726f6d20746865207a65726f206164604482015264647265737360d81b6064820152608401610a39565b6001600160a01b038216611ffc5760405162461bcd60e51b815260206004820152602360248201527f45524332303a207472616e7366657220746f20746865207a65726f206164647260448201526265737360e81b6064820152608401610a39565b61200783838361293a565b6001600160a01b038316600090815260c960205260409020548181101561207f5760405162461bcd60e51b815260206004820152602660248201527f45524332303a207472616e7366657220616d6f756e7420657863656564732062604482015265616c616e636560d01b6064820152608401610a39565b6001600160a01b03808516600090815260c960205260408082208585039055918516815290812080548492906120b6908490614b95565b92505081905550826001600160a01b0316846001600160a01b03167fddf252ad1be2c89b69c2b068fc378daa952ba7f163c4a11628f55a4df523b3ef8460405161210291815260200190565b60405180910390a35b50505050565b61211b82826114d9565b61102b57612133816001600160a01b03166014612e15565b61213e836020612e15565b60405160200161214f929190614760565b60408051601f198184030181529082905262461bcd60e51b8252610a3991600401614917565b61217f8282612fb0565b6000828152609760205260409020610f9d9082613036565b6000610fac7f8b73c3c69bb8fe3d512ecc4cf759cc79239f7b179b0ffacaa9a75d522b39400f6121c76101915490565b610192546040805160208101859052908101839052606081018290524660808201523060a082015260009060c0016040516020818303038152906040528051906020012090509392505050565b61221e828261304b565b6000828152609760205260409020610f9d90826130b2565b7f360894a13ba1a3210667c828492db98dca3e2076cc3735a920a3ca505d382bbc546001600160a01b031690565b61227c600080516020614e00833981519152336114d9565b6110f55760405162461bcd60e51b815260206004820152602a6024820152600080516020614e47833981519152604482015269746f207570677261646560b01b6064820152608401610a39565b60006122d3612236565b90506122de846130c7565b6000835111806122eb5750815b156122fc576122fa848461316c565b505b7f4910fdfa16fed3260ed0e7147f7cc6da11a60208b5b9406d12a635614ffd9143805460ff1661240d57805460ff191660011781556040516001600160a01b038316602482015261237b90869060440160408051601f198184030181529190526020810180516001600160e01b0316631b2ce7f360e11b17905261316c565b50805460ff1916815561238c612236565b6001600160a01b0316826001600160a01b0316146124045760405162461bcd60e51b815260206004820152602f60248201527f45524331393637557067726164653a207570677261646520627265616b73206660448201526e75727468657220757067726164657360881b6064820152608401610a39565b61240d85613257565b5050505050565b61012d5460ff1661245e5760405162461bcd60e51b815260206004820152601460248201527314185d5cd8589b194e881b9bdd081c185d5cd95960621b6044820152606401610a39565b61012d805460ff191690557f5db9ee0a495bf2e6ff9c91a7834c1ba4fdd244a5e8aa4e537bd38aeae4b073aa335b6040516001600160a01b03909116815260200160405180910390a1565b6001600160a01b0382166124ff5760405162461bcd60e51b815260206004820152601f60248201527f45524332303a206d696e7420746f20746865207a65726f2061646472657373006044820152606401610a39565b61250b6000838361293a565b8060cb600082825461251d9190614b95565b90915550506001600160a01b038216600090815260c960205260408120805483929061254a908490614b95565b90915550506040518181526001600160a01b038316906000907fddf252ad1be2c89b69c2b068fc378daa952ba7f163c4a11628f55a4df523b3ef9060200160405180910390a35050565b60007fbe684d190ad65920edc3ded7384f6a383db54390d51a4039cd9804738787aa7360001b8260000151805190602001208360200151805190602001208460400151805190602001206125eb8660600151613297565b6125f887608001516132f0565b6126058860a001516133c5565b60c0890151805160209182012060e08b015180519083012060405161266b9a9998979695949301988952602089019790975260408801959095526060870193909352608086019190915260a085015260c084015260e08301526101008201526101200190565b604051602081830303815290604052805190602001209050919050565b600054610100900460ff166126af5760405162461bcd60e51b8152600401610a3990614adc565b6126b761341b565b6126bf61341b565b6126c761341b565b6126cf61341b565b6126d98282613442565b6126e161341b565b6126e9613490565b6126f161341b565b6127168260405180604001604052806003815260200162302e3160e81b8152506134c4565b61102b8282613507565b61012d5460ff16156127675760405162461bcd60e51b815260206004820152601060248201526f14185d5cd8589b194e881c185d5cd95960821b6044820152606401610a39565b61012d805460ff191660011790557f62e78cea01bee320cd4e420270b5ea74000d11b0c9f74754ebdbfc544b05a25861248c3390565b6000610f7083836135dc565b60006001600085815261022e602052604090205460ff1660058111156127d1576127d1614d87565b146127ee5760405162461bcd60e51b8152600401610a3990614a4f565b600084815261022e602052604090819020805460ff19169055517f761f6dc13136b4cb3a156f0ed2a2b0865663e8bae80e43eb200aaff89b223b8a9061283790869085906147d5565b60405180910390a1600061284d6012600a614c12565b846080015160c001516128609190614cbd565b9050600061287982866080015160a0015160ff16611eea565b905061288d85608001516020015182611d90565b611d8485606001516020015182611d90565b6000610957825490565b60006001600085815261022e602052604090205460ff1660058111156128d1576128d1614d87565b146128ee5760405162461bcd60e51b8152600401610a3990614a4f565b600084815261022e602052604090819020805460ff19166003179055517fc8d626f397822cbf88d2668dbdd8bac1a4a172c0d81425fde1526ef2b8195ca39061283790869085906147d5565b612945838383613606565b61295d600080516020614e00833981519152336114d9565b8061296f57506001600160a01b038316155b8061298157506001600160a01b038216155b806129a75750610229546001600160a01b038416600090815260c9602052604090205410155b612a095760405162461bcd60e51b815260206004820152602d60248201527f4b5242546f6b656e3a2073656e64657220646f6573206e6f742068617665206560448201526c6e6f7567682062616c616e636560981b6064820152608401610a39565b612a21600080516020614e00833981519152336114d9565b80612a3357506001600160a01b038316155b80612a4557506001600160a01b038216155b80612a6b575061022a546001600160a01b038316600090815260c9602052604090205410155b610f9d5760405162461bcd60e51b815260206004820152603060248201527f4b5242546f6b656e3a20726563697069656e7420646f6573206e6f742068617660448201526f6520656e6f7567682062616c616e636560801b6064820152608401610a39565b6000610f708284614cbd565b6000610f708284614bad565b6000612af38361366d565b90506000612b0182846136bb565b90506001600160a01b038116612b685760405162461bcd60e51b815260206004820152602660248201527f4b5242546f6b656e3a20696e76616c6964207369676e6174757265206164647260448201526565737328302960d01b6064820152608401610a39565b846001600160a01b0316816001600160a01b03161461240d5760405162461bcd60e51b815260206004820152603860248201527f4b5242546f6b656e3a207265636f76657265642061646472657373206469666660448201527f6572732066726f6d206578706563746564207369676e657200000000000000006064820152608401610a39565b600080600084815261022e602052604090205460ff166005811115612c1657612c16614d87565b14612c895760405162461bcd60e51b815260206004820152603860248201527f4b5242546f6b656e3a2056657269666961626c652043726564656e7469616c2060448201527f6861736820616c7265616479206265656e2069737375656400000000000000006064820152608401610a39565b612c92826136df565b6000612ca06012600a614c12565b836080015160c00151612cb39190614cbd565b905061022c548110158015612ccb575061022d548111155b612d495760405162461bcd60e51b815260206004820152604360248201527f4b5242546f6b656e3a207374616b65206d757374206265206265747765656e2060448201527f6d696e5374616b65546f497373756520616e64206d61785374616b65546f497360648201526273756560e81b608482015260a401610a39565b6040805180820190915280600181526000602091820181905286815261022e9091526040902081518154829060ff19166001836005811115612d8d57612d8d614d87565b0217905550602082015181600101559050507f1711a2cfe58eeec65b08757681db7a8568834aa3474c2f9b9975a6952a0cfc718484604051612dd09291906147ee565b60405180910390a16000612def82856080015160a0015160ff16611eea565b9050612e03846080015160200151826124a9565b611f2b846060015160200151826124a9565b60606000612e24836002614cbd565b612e2f906002614b95565b6001600160401b03811115612e4657612e46614dc9565b6040519080825280601f01601f191660200182016040528015612e70576020820181803683370190505b509050600360fc1b81600081518110612e8b57612e8b614db3565b60200101906001600160f81b031916908160001a905350600f60fb1b81600181518110612eba57612eba614db3565b60200101906001600160f81b031916908160001a9053506000612ede846002614cbd565b612ee9906001614b95565b90505b6001811115612f61576f181899199a1a9b1b9c1cb0b131b232b360811b85600f1660108110612f1d57612f1d614db3565b1a60f81b828281518110612f3357612f33614db3565b60200101906001600160f81b031916908160001a90535060049490941c93612f5a81614d1f565b9050612eec565b508315610f705760405162461bcd60e51b815260206004820181905260248201527f537472696e67733a20686578206c656e67746820696e73756666696369656e746044820152606401610a39565b612fba82826114d9565b61102b5760008281526065602090815260408083206001600160a01b03851684529091529020805460ff19166001179055612ff23390565b6001600160a01b0316816001600160a01b0316837f2f8788117e7eff1d82e926ec794901d17c78024a50270940304540a733656f0d60405160405180910390a45050565b6000610f70836001600160a01b038416613a57565b61305582826114d9565b1561102b5760008281526065602090815260408083206001600160a01b0385168085529252808320805460ff1916905551339285917ff6391f5c32d9c69d2a47ea670b442974b53935d1edc7fd64eb21e047a839171b9190a45050565b6000610f70836001600160a01b038416613aa6565b803b61312b5760405162461bcd60e51b815260206004820152602d60248201527f455243313936373a206e657720696d706c656d656e746174696f6e206973206e60448201526c1bdd08184818dbdb9d1c9858dd609a1b6064820152608401610a39565b7f360894a13ba1a3210667c828492db98dca3e2076cc3735a920a3ca505d382bbc80546001600160a01b0319166001600160a01b0392909216919091179055565b6060823b6131cb5760405162461bcd60e51b815260206004820152602660248201527f416464726573733a2064656c65676174652063616c6c20746f206e6f6e2d636f6044820152651b9d1c9858dd60d21b6064820152608401610a39565b600080846001600160a01b0316846040516131e69190614744565b600060405180830381855af49150503d8060008114613221576040519150601f19603f3d011682016040523d82523d6000602084013e613226565b606091505b509150915061324e8282604051806060016040528060278152602001614e2060279139613b99565b95945050505050565b613260816130c7565b6040516001600160a01b038216907fbc7cd75a20ee27fd9adebab32041f755214dbc6bffa90cc0225b39da2e5c2d3b90600090a250565b8051805160209182012081830151604080517fabb691e6e52ceb1ff8b3df91dc14323057e88efa3252486ed994fd62706cdfaa948101949094528301919091526001600160a01b0316606082015260009060800161266b565b60007f21b75bdb9e47bcd33a79c50900ab5c955f98112af76c96fd28afba4ed7457c2860001b82600001518051906020012083602001518460400151805190602001208560600151805190602001208660800151805190602001208760a001518860c001518960e001518a610100015160405160200161266b9a99989796959493929190998a5260208a01989098526001600160a01b039690961660408901526060880194909452608087019290925260a086015260ff1660c085015260e08401526101008301526101208201526101400190565b8051805160209182012081830151805190830120604080517f1a58b7c56676b62343f37f4f3603a07ae6dd78bea300689bcefef0f9498c6cc994810194909452830191909152606082015260009060800161266b565b600054610100900460ff166111a15760405162461bcd60e51b8152600401610a3990614adc565b600054610100900460ff166134695760405162461bcd60e51b8152600401610a3990614adc565b815161347c9060cc906020850190613f23565b508051610f9d9060cd906020840190613f23565b600054610100900460ff166134b75760405162461bcd60e51b8152600401610a3990614adc565b61012d805460ff19169055565b600054610100900460ff166134eb5760405162461bcd60e51b8152600401610a3990614adc565b8151602092830120815191909201206101919190915561019255565b600054610100900460ff1661352e5760405162461bcd60e51b8152600401610a3990614adc565b613539600033613bd2565b613551600080516020614e0083398151915233613bd2565b61355d6012600a614c12565b613568906064614cbd565b610229556135786012600a614c12565b613583906064614cbd565b61022a556135936012600a614c12565b61359e906064614cbd565b61022b556135ae6012600a614c12565b6135b9906001614cbd565b61022c556135c96012600a614c12565b6135d490600a614cbd565b61022d555050565b60008260000182815481106135f3576135f3614db3565b9060005260206000200154905092915050565b61012d5460ff1615610f9d5760405162461bcd60e51b815260206004820152602a60248201527f45524332305061757361626c653a20746f6b656e207472616e736665722077686044820152691a5b19481c185d5cd95960b21b6064820152608401610a39565b600061095761367a612197565b8360405161190160f01b6020820152602281018390526042810182905260009060620160405160208183030381529060405280519060200120905092915050565b60008060006136ca8585613bdc565b915091506136d781613c4c565b509392505050565b6060810151602001516001600160a01b031661373d5760405162461bcd60e51b815260206004820152601c60248201527f4b5242546f6b656e3a20626164206973737565722061646472657373000000006044820152606401610a39565b6080810151602001516001600160a01b03166137ab5760405162461bcd60e51b815260206004820152602760248201527f4b5242546f6b656e3a206261642063726564656e7469616c5375626a656374206044820152666164647265737360c81b6064820152608401610a39565b6080810151516040516137c19190602001614744565b60408051601f1981840301815290829052805160209182012060608401515190926137ec9201614744565b60405160208183030381529060405280519060200120141561386e5760405162461bcd60e51b815260206004820152603560248201527f4b5242546f6b656e3a2069737375657220444944206973207468652073616d6560448201527408185cc818dc9959195b9d1a585b14dd589a9958dd605a1b6064820152608401610a39565b8060800151602001516001600160a01b03168160600151602001516001600160a01b031614156139065760405162461bcd60e51b815260206004820152603960248201527f4b5242546f6b656e3a206973737565722061646472657373206973207468652060448201527f73616d652061732063726564656e7469616c5375626a656374000000000000006064820152608401610a39565b61022b546139318260600151602001516001600160a01b0316600090815260c9602052604090205490565b10156139955760405162461bcd60e51b815260206004820152602d60248201527f4b5242546f6b656e3a2069737375657220646f6573206e6f742068617665206560448201526c6e6f7567682062616c616e636560981b6064820152608401610a39565b806080015160e0015142116139ff5760405162461bcd60e51b815260206004820152602a60248201527f4b5242546f6b656e3a2056432069737375616e63654461746520697320696e206044820152697468652066757475726560b01b6064820152608401610a39565b8060800151610100015142106110f55760405162461bcd60e51b815260206004820181905260248201527f4b5242546f6b656e3a2056432068617320616c726561647920657870697265646044820152606401610a39565b6000818152600183016020526040812054613a9e57508154600181810184556000848152602080822090930184905584548482528286019093526040902091909155610957565b506000610957565b60008181526001830160205260408120548015613b8f576000613aca600183614cdc565b8554909150600090613ade90600190614cdc565b9050818114613b43576000866000018281548110613afe57613afe614db3565b9060005260206000200154905080876000018481548110613b2157613b21614db3565b6000918252602080832090910192909255918252600188019052604090208390555b8554869080613b5457613b54614d9d565b600190038181906000526020600020016000905590558560010160008681526020019081526020016000206000905560019350505050610957565b6000915050610957565b60608315613ba8575081610f70565b825115613bb85782518084602001fd5b8160405162461bcd60e51b8152600401610a399190614917565b61102b8282612175565b600080825160411415613c135760208301516040840151606085015160001a613c0787828585613e07565b94509450505050613c45565b825160401415613c3d5760208301516040840151613c32868383613ef4565b935093505050613c45565b506000905060025b9250929050565b6000816004811115613c6057613c60614d87565b1415613c695750565b6001816004811115613c7d57613c7d614d87565b1415613ccb5760405162461bcd60e51b815260206004820152601860248201527f45434453413a20696e76616c6964207369676e617475726500000000000000006044820152606401610a39565b6002816004811115613cdf57613cdf614d87565b1415613d2d5760405162461bcd60e51b815260206004820152601f60248201527f45434453413a20696e76616c6964207369676e6174757265206c656e677468006044820152606401610a39565b6003816004811115613d4157613d41614d87565b1415613d9a5760405162461bcd60e51b815260206004820152602260248201527f45434453413a20696e76616c6964207369676e6174757265202773272076616c604482015261756560f01b6064820152608401610a39565b6004816004811115613dae57613dae614d87565b14156110f55760405162461bcd60e51b815260206004820152602260248201527f45434453413a20696e76616c6964207369676e6174757265202776272076616c604482015261756560f01b6064820152608401610a39565b6000807f7fffffffffffffffffffffffffffffff5d576e7357a4501ddfe92f46681b20a0831115613e3e5750600090506003613eeb565b8460ff16601b14158015613e5657508460ff16601c14155b15613e675750600090506004613eeb565b6040805160008082526020820180845289905260ff881692820192909252606081018690526080810185905260019060a0016020604051602081039080840390855afa158015613ebb573d6000803e3d6000fd5b5050604051601f1901519150506001600160a01b038116613ee457600060019250925050613eeb565b9150600090505b94509492505050565b6000806001600160ff1b03831660ff84901c601b01613f1587828885613e07565b935093505050935093915050565b828054613f2f90614d36565b90600052602060002090601f016020900481019282613f515760008555613f97565b82601f10613f6a57805160ff1916838001178555613f97565b82800160010185558215613f97579182015b82811115613f97578251825591602001919060010190613f7c565b50613fa3929150613fa7565b5090565b5b80821115613fa35760008155600101613fa8565b80356001600160a01b0381168114613fd357600080fd5b919050565b600082601f830112613fe957600080fd5b81356001600160401b038082111561400357614003614dc9565b604051601f8301601f19908116603f0116810190828211818310171561402b5761402b614dc9565b8160405283815286602085880101111561404457600080fd5b836020870160208301376000602085830101528094505050505092915050565b60006040828403121561407657600080fd5b61407e614b27565b905081356001600160401b038082111561409757600080fd5b6140a385838601613fd8565b835260208401359150808211156140b957600080fd5b506140c684828501613fd8565b60208301525092915050565b600061012082840312156140e557600080fd5b6140ed614b4f565b905081356001600160401b038082111561410657600080fd5b61411285838601613fd8565b835261412060208501613fbc565b6020840152604084013591508082111561413957600080fd5b61414585838601613fd8565b6040840152606084013591508082111561415e57600080fd5b61416a85838601613fd8565b6060840152608084013591508082111561418357600080fd5b5061419084828501613fd8565b6080830152506141a260a08301614372565b60a082015260c082013560c082015260e082013560e082015261010080830135818301525092915050565b6000604082840312156141df57600080fd5b6141e7614b27565b905081356001600160401b038111156141ff57600080fd5b61420b84828501613fd8565b82525061421a60208301613fbc565b602082015292915050565b6000610100828403121561423857600080fd5b614240614b72565b905081356001600160401b038082111561425957600080fd5b61426585838601613fd8565b8352602084013591508082111561427b57600080fd5b61428785838601613fd8565b602084015260408401359150808211156142a057600080fd5b6142ac85838601613fd8565b604084015260608401359150808211156142c557600080fd5b6142d1858386016141cd565b606084015260808401359150808211156142ea57600080fd5b6142f6858386016140d2565b608084015260a084013591508082111561430f57600080fd5b61431b85838601614064565b60a084015260c084013591508082111561433457600080fd5b61434085838601613fd8565b60c084015260e084013591508082111561435957600080fd5b5061436684828501613fd8565b60e08301525092915050565b803560ff81168114613fd357600080fd5b60006020828403121561439557600080fd5b610f7082613fbc565b600080604083850312156143b157600080fd5b6143ba83613fbc565b91506143c860208401613fbc565b90509250929050565b6000806000606084860312156143e657600080fd5b6143ef84613fbc565b92506143fd60208501613fbc565b9150604084013590509250925092565b6000806040838503121561442057600080fd5b61442983613fbc565b915060208301356001600160401b0381111561444457600080fd5b61445085828601613fd8565b9150509250929050565b6000806040838503121561446d57600080fd5b61447683613fbc565b946020939093013593505050565b60006020828403121561449657600080fd5b5035919050565b600080604083850312156144b057600080fd5b823591506143c860208401613fbc565b600080604083850312156144d357600080fd5b50508035926020909101359150565b6000602082840312156144f457600080fd5b81356001600160e01b031981168114610f7057600080fd5b60006020828403121561451e57600080fd5b81356001600160401b0381111561453457600080fd5b61454084828501614225565b949350505050565b6000806040838503121561455b57600080fd5b82356001600160401b038082111561457257600080fd5b61457e86838701614225565b9350602085013591508082111561459457600080fd5b5061445085828601613fd8565b600080604083850312156145b457600080fd5b82356001600160401b03808211156145cb57600080fd5b6145d786838701614225565b935060208501359150808211156145ed57600080fd5b5061445085828601614225565b60008151808452614612816020860160208601614cf3565b601f01601f19169290920160200192915050565b600081516040845261463b60408501826145fa565b90506020830151848203602086015261324e82826145fa565b6000610120825181855261466a828601826145fa565b915050602083015161468760208601826001600160a01b03169052565b506040830151848203604086015261469f82826145fa565b915050606083015184820360608601526146b982826145fa565b915050608083015184820360808601526146d382826145fa565b91505060a08301516146ea60a086018260ff169052565b5060c0838101519085015260e080840151908501526101009283015192909301919091525090565b600081516040845261472760408501826145fa565b6020938401516001600160a01b0316949093019390935250919050565b60008251614756818460208701614cf3565b9190910192915050565b7f416363657373436f6e74726f6c3a206163636f756e7420000000000000000000815260008351614798816017850160208801614cf3565b7001034b99036b4b9b9b4b733903937b6329607d1b60179184019182015283516147c9816028840160208801614cf3565b01602801949350505050565b82815260406020820152600061454060408301846145fa565b82815260406020820152600082516101008060408501526148136101408501836145fa565b91506020850151603f198086850301606087015261483184836145fa565b9350604087015191508086850301608087015261484e84836145fa565b935060608701519150808685030160a087015261486b8483614712565b935060808701519150808685030160c08701526148888483614654565b935060a08701519150808685030160e08701526148a58483614626565b935060c087015191508086850301838701526148c184836145fa565b935060e08701519250808685030161012087015250506148e182826145fa565b9695505050505050565b604081016006841061490d57634e487b7160e01b600052602160045260246000fd5b9281526020015290565b602081526000610f7060208301846145fa565b6020808252603490820152600080516020614e47833981519152604082015273746f206368616e6765206d696e42616c616e636560601b606082015260800190565b6020808252602b908201527f4b5242546f6b656e3a2073656e646572206d757374206265207468652069737360408201526a756572206164647265737360a81b606082015260800190565b6020808252602c908201527f46756e6374696f6e206d7573742062652063616c6c6564207468726f7567682060408201526b19195b1959d85d1958d85b1b60a21b606082015260800190565b6020808252602c908201527f46756e6374696f6e206d7573742062652063616c6c6564207468726f7567682060408201526b6163746976652070726f787960a01b606082015260800190565b6020808252601d908201527f4b5242546f6b656e3a207374617465206973206e6f7420497373756564000000604082015260600190565b60208082526036908201527f4b5242546f6b656e3a2073656e646572206d757374206265207468652063726560408201527564656e7469616c5375626a656374206164647265737360501b606082015260800190565b6020808252602b908201527f496e697469616c697a61626c653a20636f6e7472616374206973206e6f74206960408201526a6e697469616c697a696e6760a81b606082015260800190565b604080519081016001600160401b0381118282101715614b4957614b49614dc9565b60405290565b60405161012081016001600160401b0381118282101715614b4957614b49614dc9565b60405161010081016001600160401b0381118282101715614b4957614b49614dc9565b60008219821115614ba857614ba8614d71565b500190565b600082614bca57634e487b7160e01b600052601260045260246000fd5b500490565b600181815b80851115614c0a578160001904821115614bf057614bf0614d71565b80851615614bfd57918102915b93841c9390800290614bd4565b509250929050565b6000610f7060ff841683600082614c2b57506001610957565b81614c3857506000610957565b8160018114614c4e5760028114614c5857614c74565b6001915050610957565b60ff841115614c6957614c69614d71565b50506001821b610957565b5060208310610133831016604e8410600b8410161715614c97575081810a610957565b614ca18383614bcf565b8060001904821115614cb557614cb5614d71565b029392505050565b6000816000190483118215151615614cd757614cd7614d71565b500290565b600082821015614cee57614cee614d71565b500390565b60005b83811015614d0e578181015183820152602001614cf6565b8381111561210b5750506000910152565b600081614d2e57614d2e614d71565b506000190190565b600181811c90821680614d4a57607f821691505b60208210811415614d6b57634e487b7160e01b600052602260045260246000fd5b50919050565b634e487b7160e01b600052601160045260246000fd5b634e487b7160e01b600052602160045260246000fd5b634e487b7160e01b600052603160045260246000fd5b634e487b7160e01b600052603260045260246000fd5b634e487b7160e01b600052604160045260246000fdfe221d3d4161ff7c815e25a84cf3c2ec04f54111bee80f0b06d345c834581c9da3899bd46557473cb80307a9dabc297131ced39608330a2d29b2d52b660c03923e416464726573733a206c6f772d6c6576656c2064656c65676174652063616c6c206661696c65644b5242546f6b656e3a206d757374206861766520676f7665726e20726f6c6520a26469706673582212208fd8d4d9b1fd35522f8f521f288f91ab669130ba55d4f759690a9e5cf134991f64736f6c63430008070033",
  "linkReferences": {},
  "deployedLinkReferences": {}
}