{
  "_format": "hh-sol-artifact-1",
  "contractName": "KRBTokenV01",
  "sourceName": "contracts/KRBTokenV01.sol",
  "abi": [
    {
      "inputs": [],
      "stateMutability": "nonpayable",
      "type": "constructor"
    },
    {
      "anonymous": false,
      "inputs": [
        {
          "indexed": false,
          "internalType": "address",
          "name": "previousAdmin",
          "type": "address"
        },
        {
          "indexed": false,
          "internalType": "address",
          "name": "newAdmin",
          "type": "address"
        }
      ],
      "name": "AdminChanged",
      "type": "event"
    },
    {
      "anonymous": false,
      "inputs": [
        {
          "indexed": true,
          "internalType": "address",
          "name": "owner",
          "type": "address"
        },
        {
          "indexed": true,
          "internalType": "address",
          "name": "spender",
          "type": "address"
        },
        {
          "indexed": false,
          "internalType": "uint256",
          "name": "value",
          "type": "uint256"
        }
      ],
      "name": "Approval",
      "type": "event"
    },
    {
      "anonymous": false,
      "inputs": [
        {
          "indexed": true,
          "internalType": "address",
          "name": "beacon",
          "type": "address"
        }
      ],
      "name": "BeaconUpgraded",
      "type": "event"
    },
    {
      "anonymous": false,
      "inputs": [
        {
          "indexed": false,
          "internalType": "bytes32",
          "name": "uuid",
          "type": "bytes32"
        },
        {
          "indexed": false,
          "internalType": "string",
          "name": "reason",
          "type": "string"
        }
      ],
      "name": "Deleted",
      "type": "event"
    },
    {
      "anonymous": false,
      "inputs": [
        {
          "indexed": false,
          "internalType": "bytes32",
          "name": "uuid",
          "type": "bytes32"
        },
        {
          "indexed": false,
          "internalType": "bytes32",
          "name": "disputedBy",
          "type": "bytes32"
        }
      ],
      "name": "Disputed",
      "type": "event"
    },
    {
      "anonymous": false,
      "inputs": [
        {
          "indexed": false,
          "internalType": "bytes32",
          "name": "uuid",
          "type": "bytes32"
        }
      ],
      "name": "Expired",
      "type": "event"
    },
    {
      "anonymous": false,
      "inputs": [
        {
          "indexed": false,
          "internalType": "bytes32",
          "name": "uuid",
          "type": "bytes32"
        },
        {
          "components": [
            {
              "internalType": "string",
              "name": "_context",
              "type": "string"
            },
            {
              "internalType": "string",
              "name": "_type",
              "type": "string"
            },
            {
              "internalType": "string",
              "name": "id",
              "type": "string"
            },
            {
              "components": [
                {
                  "internalType": "string",
                  "name": "id",
                  "type": "string"
                },
                {
                  "internalType": "address",
                  "name": "ethereumAddress",
                  "type": "address"
                }
              ],
              "internalType": "struct VCTypesV01.Issuer",
              "name": "issuer",
              "type": "tuple"
            },
            {
              "components": [
                {
                  "internalType": "string",
                  "name": "id",
                  "type": "string"
                },
                {
                  "internalType": "address",
                  "name": "ethereumAddress",
                  "type": "address"
                },
                {
                  "internalType": "string",
                  "name": "_type",
                  "type": "string"
                },
                {
                  "internalType": "string",
                  "name": "typeSchema",
                  "type": "string"
                },
                {
                  "internalType": "string",
                  "name": "value",
                  "type": "string"
                },
                {
                  "internalType": "string",
                  "name": "encrypted",
                  "type": "string"
                },
                {
                  "internalType": "uint8",
                  "name": "trust",
                  "type": "uint8"
                },
                {
                  "internalType": "uint256",
                  "name": "stake",
                  "type": "uint256"
                },
                {
                  "internalType": "uint256",
                  "name": "price",
                  "type": "uint256"
                },
                {
                  "internalType": "uint256",
                  "name": "nbf",
                  "type": "uint256"
                },
                {
                  "internalType": "uint256",
                  "name": "exp",
                  "type": "uint256"
                }
              ],
              "internalType": "struct VCTypesV01.CredentialSubject",
              "name": "credentialSubject",
              "type": "tuple"
            },
            {
              "components": [
                {
                  "internalType": "string",
                  "name": "id",
                  "type": "string"
                },
                {
                  "internalType": "string",
                  "name": "_type",
                  "type": "string"
                }
              ],
              "internalType": "struct VCTypesV01.CredentialSchema",
              "name": "credentialSchema",
              "type": "tuple"
            },
            {
              "internalType": "string",
              "name": "issuanceDate",
              "type": "string"
            },
            {
              "internalType": "string",
              "name": "expirationDate",
              "type": "string"
            }
          ],
          "indexed": false,
          "internalType": "struct VCTypesV01.VerifiableCredential",
          "name": "vc",
          "type": "tuple"
        }
      ],
      "name": "Issued",
      "type": "event"
    },
    {
      "anonymous": false,
      "inputs": [
        {
          "indexed": false,
          "internalType": "address",
          "name": "account",
          "type": "address"
        }
      ],
      "name": "Paused",
      "type": "event"
    },
    {
      "anonymous": false,
      "inputs": [
        {
          "indexed": false,
          "internalType": "bytes32",
          "name": "uuid",
          "type": "bytes32"
        },
        {
          "indexed": false,
          "internalType": "string",
          "name": "reason",
          "type": "string"
        }
      ],
      "name": "Revoked",
      "type": "event"
    },
    {
      "anonymous": false,
      "inputs": [
        {
          "indexed": true,
          "internalType": "bytes32",
          "name": "role",
          "type": "bytes32"
        },
        {
          "indexed": true,
          "internalType": "bytes32",
          "name": "previousAdminRole",
          "type": "bytes32"
        },
        {
          "indexed": true,
          "internalType": "bytes32",
          "name": "newAdminRole",
          "type": "bytes32"
        }
      ],
      "name": "RoleAdminChanged",
      "type": "event"
    },
    {
      "anonymous": false,
      "inputs": [
        {
          "indexed": true,
          "internalType": "bytes32",
          "name": "role",
          "type": "bytes32"
        },
        {
          "indexed": true,
          "internalType": "address",
          "name": "account",
          "type": "address"
        },
        {
          "indexed": true,
          "internalType": "address",
          "name": "sender",
          "type": "address"
        }
      ],
      "name": "RoleGranted",
      "type": "event"
    },
    {
      "anonymous": false,
      "inputs": [
        {
          "indexed": true,
          "internalType": "bytes32",
          "name": "role",
          "type": "bytes32"
        },
        {
          "indexed": true,
          "internalType": "address",
          "name": "account",
          "type": "address"
        },
        {
          "indexed": true,
          "internalType": "address",
          "name": "sender",
          "type": "address"
        }
      ],
      "name": "RoleRevoked",
      "type": "event"
    },
    {
      "anonymous": false,
      "inputs": [
        {
          "indexed": false,
          "internalType": "bytes32",
          "name": "uuid",
          "type": "bytes32"
        },
        {
          "indexed": false,
          "internalType": "string",
          "name": "reason",
          "type": "string"
        }
      ],
      "name": "Suspended",
      "type": "event"
    },
    {
      "anonymous": false,
      "inputs": [
        {
          "indexed": true,
          "internalType": "address",
          "name": "from",
          "type": "address"
        },
        {
          "indexed": true,
          "internalType": "address",
          "name": "to",
          "type": "address"
        },
        {
          "indexed": false,
          "internalType": "uint256",
          "name": "value",
          "type": "uint256"
        }
      ],
      "name": "Transfer",
      "type": "event"
    },
    {
      "anonymous": false,
      "inputs": [
        {
          "indexed": false,
          "internalType": "address",
          "name": "account",
          "type": "address"
        }
      ],
      "name": "Unpaused",
      "type": "event"
    },
    {
      "anonymous": false,
      "inputs": [
        {
          "indexed": false,
          "internalType": "string",
          "name": "change",
          "type": "string"
        }
      ],
      "name": "Updated",
      "type": "event"
    },
    {
      "anonymous": false,
      "inputs": [
        {
          "indexed": true,
          "internalType": "address",
          "name": "implementation",
          "type": "address"
        }
      ],
      "name": "Upgraded",
      "type": "event"
    },
    {
      "inputs": [],
      "name": "DEFAULT_ADMIN_ROLE",
      "outputs": [
        {
          "internalType": "bytes32",
          "name": "",
          "type": "bytes32"
        }
      ],
      "stateMutability": "view",
      "type": "function"
    },
    {
      "inputs": [],
      "name": "DOMAIN_SEPARATOR",
      "outputs": [
        {
          "internalType": "bytes32",
          "name": "",
          "type": "bytes32"
        }
      ],
      "stateMutability": "view",
      "type": "function"
    },
    {
      "inputs": [],
      "name": "GOVERN_ROLE",
      "outputs": [
        {
          "internalType": "bytes32",
          "name": "",
          "type": "bytes32"
        }
      ],
      "stateMutability": "view",
      "type": "function"
    },
    {
      "inputs": [
        {
          "internalType": "address",
          "name": "owner",
          "type": "address"
        },
        {
          "internalType": "address",
          "name": "spender",
          "type": "address"
        }
      ],
      "name": "allowance",
      "outputs": [
        {
          "internalType": "uint256",
          "name": "",
          "type": "uint256"
        }
      ],
      "stateMutability": "view",
      "type": "function"
    },
    {
      "inputs": [
        {
          "internalType": "address",
          "name": "spender",
          "type": "address"
        },
        {
          "internalType": "uint256",
          "name": "amount",
          "type": "uint256"
        }
      ],
      "name": "approve",
      "outputs": [
        {
          "internalType": "bool",
          "name": "",
          "type": "bool"
        }
      ],
      "stateMutability": "nonpayable",
      "type": "function"
    },
    {
      "inputs": [
        {
          "internalType": "address",
          "name": "account",
          "type": "address"
        }
      ],
      "name": "balanceOf",
      "outputs": [
        {
          "internalType": "uint256",
          "name": "",
          "type": "uint256"
        }
      ],
      "stateMutability": "view",
      "type": "function"
    },
    {
      "inputs": [
        {
          "internalType": "uint256",
          "name": "amount",
          "type": "uint256"
        }
      ],
      "name": "burn",
      "outputs": [],
      "stateMutability": "nonpayable",
      "type": "function"
    },
    {
      "inputs": [
        {
          "internalType": "address",
          "name": "account",
          "type": "address"
        },
        {
          "internalType": "uint256",
          "name": "amount",
          "type": "uint256"
        }
      ],
      "name": "burnFrom",
      "outputs": [],
      "stateMutability": "nonpayable",
      "type": "function"
    },
    {
      "inputs": [],
      "name": "decimals",
      "outputs": [
        {
          "internalType": "uint8",
          "name": "",
          "type": "uint8"
        }
      ],
      "stateMutability": "view",
      "type": "function"
    },
    {
      "inputs": [
        {
          "internalType": "address",
          "name": "spender",
          "type": "address"
        },
        {
          "internalType": "uint256",
          "name": "subtractedValue",
          "type": "uint256"
        }
      ],
      "name": "decreaseAllowance",
      "outputs": [
        {
          "internalType": "bool",
          "name": "",
          "type": "bool"
        }
      ],
      "stateMutability": "nonpayable",
      "type": "function"
    },
    {
      "inputs": [
        {
          "components": [
            {
              "internalType": "string",
              "name": "_context",
              "type": "string"
            },
            {
              "internalType": "string",
              "name": "_type",
              "type": "string"
            },
            {
              "internalType": "string",
              "name": "id",
              "type": "string"
            },
            {
              "components": [
                {
                  "internalType": "string",
                  "name": "id",
                  "type": "string"
                },
                {
                  "internalType": "address",
                  "name": "ethereumAddress",
                  "type": "address"
                }
              ],
              "internalType": "struct VCTypesV01.Issuer",
              "name": "issuer",
              "type": "tuple"
            },
            {
              "components": [
                {
                  "internalType": "string",
                  "name": "id",
                  "type": "string"
                },
                {
                  "internalType": "address",
                  "name": "ethereumAddress",
                  "type": "address"
                },
                {
                  "internalType": "string",
                  "name": "_type",
                  "type": "string"
                },
                {
                  "internalType": "string",
                  "name": "typeSchema",
                  "type": "string"
                },
                {
                  "internalType": "string",
                  "name": "value",
                  "type": "string"
                },
                {
                  "internalType": "string",
                  "name": "encrypted",
                  "type": "string"
                },
                {
                  "internalType": "uint8",
                  "name": "trust",
                  "type": "uint8"
                },
                {
                  "internalType": "uint256",
                  "name": "stake",
                  "type": "uint256"
                },
                {
                  "internalType": "uint256",
                  "name": "price",
                  "type": "uint256"
                },
                {
                  "internalType": "uint256",
                  "name": "nbf",
                  "type": "uint256"
                },
                {
                  "internalType": "uint256",
                  "name": "exp",
                  "type": "uint256"
                }
              ],
              "internalType": "struct VCTypesV01.CredentialSubject",
              "name": "credentialSubject",
              "type": "tuple"
            },
            {
              "components": [
                {
                  "internalType": "string",
                  "name": "id",
                  "type": "string"
                },
                {
                  "internalType": "string",
                  "name": "_type",
                  "type": "string"
                }
              ],
              "internalType": "struct VCTypesV01.CredentialSchema",
              "name": "credentialSchema",
              "type": "tuple"
            },
            {
              "internalType": "string",
              "name": "issuanceDate",
              "type": "string"
            },
            {
              "internalType": "string",
              "name": "expirationDate",
              "type": "string"
            }
          ],
          "internalType": "struct VCTypesV01.VerifiableCredential",
          "name": "vc",
          "type": "tuple"
        },
        {
          "internalType": "string",
          "name": "reason",
          "type": "string"
        }
      ],
      "name": "deleteVC",
      "outputs": [
        {
          "internalType": "bool",
          "name": "",
          "type": "bool"
        }
      ],
      "stateMutability": "nonpayable",
      "type": "function"
    },
    {
      "inputs": [
        {
          "components": [
            {
              "internalType": "string",
              "name": "_context",
              "type": "string"
            },
            {
              "internalType": "string",
              "name": "_type",
              "type": "string"
            },
            {
              "internalType": "string",
              "name": "id",
              "type": "string"
            },
            {
              "components": [
                {
                  "internalType": "string",
                  "name": "id",
                  "type": "string"
                },
                {
                  "internalType": "address",
                  "name": "ethereumAddress",
                  "type": "address"
                }
              ],
              "internalType": "struct VCTypesV01.Issuer",
              "name": "issuer",
              "type": "tuple"
            },
            {
              "components": [
                {
                  "internalType": "string",
                  "name": "id",
                  "type": "string"
                },
                {
                  "internalType": "address",
                  "name": "ethereumAddress",
                  "type": "address"
                },
                {
                  "internalType": "string",
                  "name": "_type",
                  "type": "string"
                },
                {
                  "internalType": "string",
                  "name": "typeSchema",
                  "type": "string"
                },
                {
                  "internalType": "string",
                  "name": "value",
                  "type": "string"
                },
                {
                  "internalType": "string",
                  "name": "encrypted",
                  "type": "string"
                },
                {
                  "internalType": "uint8",
                  "name": "trust",
                  "type": "uint8"
                },
                {
                  "internalType": "uint256",
                  "name": "stake",
                  "type": "uint256"
                },
                {
                  "internalType": "uint256",
                  "name": "price",
                  "type": "uint256"
                },
                {
                  "internalType": "uint256",
                  "name": "nbf",
                  "type": "uint256"
                },
                {
                  "internalType": "uint256",
                  "name": "exp",
                  "type": "uint256"
                }
              ],
              "internalType": "struct VCTypesV01.CredentialSubject",
              "name": "credentialSubject",
              "type": "tuple"
            },
            {
              "components": [
                {
                  "internalType": "string",
                  "name": "id",
                  "type": "string"
                },
                {
                  "internalType": "string",
                  "name": "_type",
                  "type": "string"
                }
              ],
              "internalType": "struct VCTypesV01.CredentialSchema",
              "name": "credentialSchema",
              "type": "tuple"
            },
            {
              "internalType": "string",
              "name": "issuanceDate",
              "type": "string"
            },
            {
              "internalType": "string",
              "name": "expirationDate",
              "type": "string"
            }
          ],
          "internalType": "struct VCTypesV01.VerifiableCredential",
          "name": "vc",
          "type": "tuple"
        },
        {
          "components": [
            {
              "internalType": "string",
              "name": "_context",
              "type": "string"
            },
            {
              "internalType": "string",
              "name": "_type",
              "type": "string"
            },
            {
              "internalType": "string",
              "name": "id",
              "type": "string"
            },
            {
              "components": [
                {
                  "internalType": "string",
                  "name": "id",
                  "type": "string"
                },
                {
                  "internalType": "address",
                  "name": "ethereumAddress",
                  "type": "address"
                }
              ],
              "internalType": "struct VCTypesV01.Issuer",
              "name": "issuer",
              "type": "tuple"
            },
            {
              "components": [
                {
                  "internalType": "string",
                  "name": "id",
                  "type": "string"
                },
                {
                  "internalType": "address",
                  "name": "ethereumAddress",
                  "type": "address"
                },
                {
                  "internalType": "string",
                  "name": "_type",
                  "type": "string"
                },
                {
                  "internalType": "string",
                  "name": "typeSchema",
                  "type": "string"
                },
                {
                  "internalType": "string",
                  "name": "value",
                  "type": "string"
                },
                {
                  "internalType": "string",
                  "name": "encrypted",
                  "type": "string"
                },
                {
                  "internalType": "uint8",
                  "name": "trust",
                  "type": "uint8"
                },
                {
                  "internalType": "uint256",
                  "name": "stake",
                  "type": "uint256"
                },
                {
                  "internalType": "uint256",
                  "name": "price",
                  "type": "uint256"
                },
                {
                  "internalType": "uint256",
                  "name": "nbf",
                  "type": "uint256"
                },
                {
                  "internalType": "uint256",
                  "name": "exp",
                  "type": "uint256"
                }
              ],
              "internalType": "struct VCTypesV01.CredentialSubject",
              "name": "credentialSubject",
              "type": "tuple"
            },
            {
              "components": [
                {
                  "internalType": "string",
                  "name": "id",
                  "type": "string"
                },
                {
                  "internalType": "string",
                  "name": "_type",
                  "type": "string"
                }
              ],
              "internalType": "struct VCTypesV01.CredentialSchema",
              "name": "credentialSchema",
              "type": "tuple"
            },
            {
              "internalType": "string",
              "name": "issuanceDate",
              "type": "string"
            },
            {
              "internalType": "string",
              "name": "expirationDate",
              "type": "string"
            }
          ],
          "internalType": "struct VCTypesV01.VerifiableCredential",
          "name": "disputeVC",
          "type": "tuple"
        }
      ],
      "name": "disputeVCByGovern",
      "outputs": [
        {
          "internalType": "bool",
          "name": "",
          "type": "bool"
        }
      ],
      "stateMutability": "nonpayable",
      "type": "function"
    },
    {
      "inputs": [
        {
          "components": [
            {
              "internalType": "string",
              "name": "_context",
              "type": "string"
            },
            {
              "internalType": "string",
              "name": "_type",
              "type": "string"
            },
            {
              "internalType": "string",
              "name": "id",
              "type": "string"
            },
            {
              "components": [
                {
                  "internalType": "string",
                  "name": "id",
                  "type": "string"
                },
                {
                  "internalType": "address",
                  "name": "ethereumAddress",
                  "type": "address"
                }
              ],
              "internalType": "struct VCTypesV01.Issuer",
              "name": "issuer",
              "type": "tuple"
            },
            {
              "components": [
                {
                  "internalType": "string",
                  "name": "id",
                  "type": "string"
                },
                {
                  "internalType": "address",
                  "name": "ethereumAddress",
                  "type": "address"
                },
                {
                  "internalType": "string",
                  "name": "_type",
                  "type": "string"
                },
                {
                  "internalType": "string",
                  "name": "typeSchema",
                  "type": "string"
                },
                {
                  "internalType": "string",
                  "name": "value",
                  "type": "string"
                },
                {
                  "internalType": "string",
                  "name": "encrypted",
                  "type": "string"
                },
                {
                  "internalType": "uint8",
                  "name": "trust",
                  "type": "uint8"
                },
                {
                  "internalType": "uint256",
                  "name": "stake",
                  "type": "uint256"
                },
                {
                  "internalType": "uint256",
                  "name": "price",
                  "type": "uint256"
                },
                {
                  "internalType": "uint256",
                  "name": "nbf",
                  "type": "uint256"
                },
                {
                  "internalType": "uint256",
                  "name": "exp",
                  "type": "uint256"
                }
              ],
              "internalType": "struct VCTypesV01.CredentialSubject",
              "name": "credentialSubject",
              "type": "tuple"
            },
            {
              "components": [
                {
                  "internalType": "string",
                  "name": "id",
                  "type": "string"
                },
                {
                  "internalType": "string",
                  "name": "_type",
                  "type": "string"
                }
              ],
              "internalType": "struct VCTypesV01.CredentialSchema",
              "name": "credentialSchema",
              "type": "tuple"
            },
            {
              "internalType": "string",
              "name": "issuanceDate",
              "type": "string"
            },
            {
              "internalType": "string",
              "name": "expirationDate",
              "type": "string"
            }
          ],
          "internalType": "struct VCTypesV01.VerifiableCredential",
          "name": "vc",
          "type": "tuple"
        }
      ],
      "name": "expiredVC",
      "outputs": [
        {
          "internalType": "bool",
          "name": "",
          "type": "bool"
        }
      ],
      "stateMutability": "nonpayable",
      "type": "function"
    },
    {
      "inputs": [],
      "name": "feePercentage",
      "outputs": [
        {
          "internalType": "uint256",
          "name": "",
          "type": "uint256"
        }
      ],
      "stateMutability": "view",
      "type": "function"
    },
    {
      "inputs": [],
      "name": "feesAvailableForWithdraw",
      "outputs": [
        {
          "internalType": "uint256",
          "name": "",
          "type": "uint256"
        }
      ],
      "stateMutability": "view",
      "type": "function"
    },
    {
      "inputs": [
        {
          "internalType": "bytes32",
          "name": "role",
          "type": "bytes32"
        }
      ],
      "name": "getRoleAdmin",
      "outputs": [
        {
          "internalType": "bytes32",
          "name": "",
          "type": "bytes32"
        }
      ],
      "stateMutability": "view",
      "type": "function"
    },
    {
      "inputs": [
        {
          "internalType": "bytes32",
          "name": "role",
          "type": "bytes32"
        },
        {
          "internalType": "uint256",
          "name": "index",
          "type": "uint256"
        }
      ],
      "name": "getRoleMember",
      "outputs": [
        {
          "internalType": "address",
          "name": "",
          "type": "address"
        }
      ],
      "stateMutability": "view",
      "type": "function"
    },
    {
      "inputs": [
        {
          "internalType": "bytes32",
          "name": "role",
          "type": "bytes32"
        }
      ],
      "name": "getRoleMemberCount",
      "outputs": [
        {
          "internalType": "uint256",
          "name": "",
          "type": "uint256"
        }
      ],
      "stateMutability": "view",
      "type": "function"
    },
    {
      "inputs": [
        {
          "components": [
            {
              "internalType": "string",
              "name": "_context",
              "type": "string"
            },
            {
              "internalType": "string",
              "name": "_type",
              "type": "string"
            },
            {
              "internalType": "string",
              "name": "id",
              "type": "string"
            },
            {
              "components": [
                {
                  "internalType": "string",
                  "name": "id",
                  "type": "string"
                },
                {
                  "internalType": "address",
                  "name": "ethereumAddress",
                  "type": "address"
                }
              ],
              "internalType": "struct VCTypesV01.Issuer",
              "name": "issuer",
              "type": "tuple"
            },
            {
              "components": [
                {
                  "internalType": "string",
                  "name": "id",
                  "type": "string"
                },
                {
                  "internalType": "address",
                  "name": "ethereumAddress",
                  "type": "address"
                },
                {
                  "internalType": "string",
                  "name": "_type",
                  "type": "string"
                },
                {
                  "internalType": "string",
                  "name": "typeSchema",
                  "type": "string"
                },
                {
                  "internalType": "string",
                  "name": "value",
                  "type": "string"
                },
                {
                  "internalType": "string",
                  "name": "encrypted",
                  "type": "string"
                },
                {
                  "internalType": "uint8",
                  "name": "trust",
                  "type": "uint8"
                },
                {
                  "internalType": "uint256",
                  "name": "stake",
                  "type": "uint256"
                },
                {
                  "internalType": "uint256",
                  "name": "price",
                  "type": "uint256"
                },
                {
                  "internalType": "uint256",
                  "name": "nbf",
                  "type": "uint256"
                },
                {
                  "internalType": "uint256",
                  "name": "exp",
                  "type": "uint256"
                }
              ],
              "internalType": "struct VCTypesV01.CredentialSubject",
              "name": "credentialSubject",
              "type": "tuple"
            },
            {
              "components": [
                {
                  "internalType": "string",
                  "name": "id",
                  "type": "string"
                },
                {
                  "internalType": "string",
                  "name": "_type",
                  "type": "string"
                }
              ],
              "internalType": "struct VCTypesV01.CredentialSchema",
              "name": "credentialSchema",
              "type": "tuple"
            },
            {
              "internalType": "string",
              "name": "issuanceDate",
              "type": "string"
            },
            {
              "internalType": "string",
              "name": "expirationDate",
              "type": "string"
            }
          ],
          "internalType": "struct VCTypesV01.VerifiableCredential",
          "name": "vc",
          "type": "tuple"
        }
      ],
      "name": "getUuid",
      "outputs": [
        {
          "internalType": "bytes32",
          "name": "",
          "type": "bytes32"
        }
      ],
      "stateMutability": "pure",
      "type": "function"
    },
    {
      "inputs": [
        {
          "components": [
            {
              "internalType": "string",
              "name": "_context",
              "type": "string"
            },
            {
              "internalType": "string",
              "name": "_type",
              "type": "string"
            },
            {
              "internalType": "string",
              "name": "id",
              "type": "string"
            },
            {
              "components": [
                {
                  "internalType": "string",
                  "name": "id",
                  "type": "string"
                },
                {
                  "internalType": "address",
                  "name": "ethereumAddress",
                  "type": "address"
                }
              ],
              "internalType": "struct VCTypesV01.Issuer",
              "name": "issuer",
              "type": "tuple"
            },
            {
              "components": [
                {
                  "internalType": "string",
                  "name": "id",
                  "type": "string"
                },
                {
                  "internalType": "address",
                  "name": "ethereumAddress",
                  "type": "address"
                },
                {
                  "internalType": "string",
                  "name": "_type",
                  "type": "string"
                },
                {
                  "internalType": "string",
                  "name": "typeSchema",
                  "type": "string"
                },
                {
                  "internalType": "string",
                  "name": "value",
                  "type": "string"
                },
                {
                  "internalType": "string",
                  "name": "encrypted",
                  "type": "string"
                },
                {
                  "internalType": "uint8",
                  "name": "trust",
                  "type": "uint8"
                },
                {
                  "internalType": "uint256",
                  "name": "stake",
                  "type": "uint256"
                },
                {
                  "internalType": "uint256",
                  "name": "price",
                  "type": "uint256"
                },
                {
                  "internalType": "uint256",
                  "name": "nbf",
                  "type": "uint256"
                },
                {
                  "internalType": "uint256",
                  "name": "exp",
                  "type": "uint256"
                }
              ],
              "internalType": "struct VCTypesV01.CredentialSubject",
              "name": "credentialSubject",
              "type": "tuple"
            },
            {
              "components": [
                {
                  "internalType": "string",
                  "name": "id",
                  "type": "string"
                },
                {
                  "internalType": "string",
                  "name": "_type",
                  "type": "string"
                }
              ],
              "internalType": "struct VCTypesV01.CredentialSchema",
              "name": "credentialSchema",
              "type": "tuple"
            },
            {
              "internalType": "string",
              "name": "issuanceDate",
              "type": "string"
            },
            {
              "internalType": "string",
              "name": "expirationDate",
              "type": "string"
            }
          ],
          "internalType": "struct VCTypesV01.VerifiableCredential",
          "name": "vc",
          "type": "tuple"
        }
      ],
      "name": "getVCStatus",
      "outputs": [
        {
          "internalType": "string",
          "name": "",
          "type": "string"
        }
      ],
      "stateMutability": "view",
      "type": "function"
    },
    {
      "inputs": [
        {
          "internalType": "bytes32",
          "name": "uuid",
          "type": "bytes32"
        }
      ],
      "name": "getVCStatusByUUid",
      "outputs": [
        {
          "internalType": "string",
          "name": "",
          "type": "string"
        }
      ],
      "stateMutability": "view",
      "type": "function"
    },
    {
      "inputs": [
        {
          "internalType": "bytes32",
          "name": "role",
          "type": "bytes32"
        },
        {
          "internalType": "address",
          "name": "account",
          "type": "address"
        }
      ],
      "name": "grantRole",
      "outputs": [],
      "stateMutability": "nonpayable",
      "type": "function"
    },
    {
      "inputs": [
        {
          "internalType": "bytes32",
          "name": "role",
          "type": "bytes32"
        },
        {
          "internalType": "address",
          "name": "account",
          "type": "address"
        }
      ],
      "name": "hasRole",
      "outputs": [
        {
          "internalType": "bool",
          "name": "",
          "type": "bool"
        }
      ],
      "stateMutability": "view",
      "type": "function"
    },
    {
      "inputs": [
        {
          "internalType": "address",
          "name": "spender",
          "type": "address"
        },
        {
          "internalType": "uint256",
          "name": "addedValue",
          "type": "uint256"
        }
      ],
      "name": "increaseAllowance",
      "outputs": [
        {
          "internalType": "bool",
          "name": "",
          "type": "bool"
        }
      ],
      "stateMutability": "nonpayable",
      "type": "function"
    },
    {
      "inputs": [],
      "name": "initialize",
      "outputs": [],
      "stateMutability": "nonpayable",
      "type": "function"
    },
    {
      "inputs": [],
      "name": "maxStakeToIssue",
      "outputs": [
        {
          "internalType": "uint256",
          "name": "",
          "type": "uint256"
        }
      ],
      "stateMutability": "view",
      "type": "function"
    },
    {
      "inputs": [],
      "name": "minBalanceToIssue",
      "outputs": [
        {
          "internalType": "uint256",
          "name": "",
          "type": "uint256"
        }
      ],
      "stateMutability": "view",
      "type": "function"
    },
    {
      "inputs": [],
      "name": "minBalanceToReceive",
      "outputs": [
        {
          "internalType": "uint256",
          "name": "",
          "type": "uint256"
        }
      ],
      "stateMutability": "view",
      "type": "function"
    },
    {
      "inputs": [],
      "name": "minBalanceToTransfer",
      "outputs": [
        {
          "internalType": "uint256",
          "name": "",
          "type": "uint256"
        }
      ],
      "stateMutability": "view",
      "type": "function"
    },
    {
      "inputs": [],
      "name": "minStakeToIssue",
      "outputs": [
        {
          "internalType": "uint256",
          "name": "",
          "type": "uint256"
        }
      ],
      "stateMutability": "view",
      "type": "function"
    },
    {
      "inputs": [
        {
          "internalType": "address",
          "name": "to",
          "type": "address"
        },
        {
          "internalType": "uint256",
          "name": "amount",
          "type": "uint256"
        }
      ],
      "name": "mint",
      "outputs": [],
      "stateMutability": "nonpayable",
      "type": "function"
    },
    {
      "inputs": [],
      "name": "name",
      "outputs": [
        {
          "internalType": "string",
          "name": "",
          "type": "string"
        }
      ],
      "stateMutability": "view",
      "type": "function"
    },
    {
      "inputs": [],
      "name": "pause",
      "outputs": [],
      "stateMutability": "nonpayable",
      "type": "function"
    },
    {
      "inputs": [],
      "name": "paused",
      "outputs": [
        {
          "internalType": "bool",
          "name": "",
          "type": "bool"
        }
      ],
      "stateMutability": "view",
      "type": "function"
    },
    {
      "inputs": [
        {
          "components": [
            {
              "internalType": "string",
              "name": "_context",
              "type": "string"
            },
            {
              "internalType": "string",
              "name": "_type",
              "type": "string"
            },
            {
              "internalType": "string",
              "name": "id",
              "type": "string"
            },
            {
              "components": [
                {
                  "internalType": "string",
                  "name": "id",
                  "type": "string"
                },
                {
                  "internalType": "address",
                  "name": "ethereumAddress",
                  "type": "address"
                }
              ],
              "internalType": "struct VCTypesV01.Issuer",
              "name": "issuer",
              "type": "tuple"
            },
            {
              "components": [
                {
                  "internalType": "string",
                  "name": "id",
                  "type": "string"
                },
                {
                  "internalType": "address",
                  "name": "ethereumAddress",
                  "type": "address"
                },
                {
                  "internalType": "string",
                  "name": "_type",
                  "type": "string"
                },
                {
                  "internalType": "string",
                  "name": "typeSchema",
                  "type": "string"
                },
                {
                  "internalType": "string",
                  "name": "value",
                  "type": "string"
                },
                {
                  "internalType": "string",
                  "name": "encrypted",
                  "type": "string"
                },
                {
                  "internalType": "uint8",
                  "name": "trust",
                  "type": "uint8"
                },
                {
                  "internalType": "uint256",
                  "name": "stake",
                  "type": "uint256"
                },
                {
                  "internalType": "uint256",
                  "name": "price",
                  "type": "uint256"
                },
                {
                  "internalType": "uint256",
                  "name": "nbf",
                  "type": "uint256"
                },
                {
                  "internalType": "uint256",
                  "name": "exp",
                  "type": "uint256"
                }
              ],
              "internalType": "struct VCTypesV01.CredentialSubject",
              "name": "credentialSubject",
              "type": "tuple"
            },
            {
              "components": [
                {
                  "internalType": "string",
                  "name": "id",
                  "type": "string"
                },
                {
                  "internalType": "string",
                  "name": "_type",
                  "type": "string"
                }
              ],
              "internalType": "struct VCTypesV01.CredentialSchema",
              "name": "credentialSchema",
              "type": "tuple"
            },
            {
              "internalType": "string",
              "name": "issuanceDate",
              "type": "string"
            },
            {
              "internalType": "string",
              "name": "expirationDate",
              "type": "string"
            }
          ],
          "internalType": "struct VCTypesV01.VerifiableCredential",
          "name": "vc",
          "type": "tuple"
        },
        {
          "internalType": "bytes",
          "name": "proofValue",
          "type": "bytes"
        }
      ],
      "name": "registerVC",
      "outputs": [
        {
          "internalType": "bool",
          "name": "",
          "type": "bool"
        }
      ],
      "stateMutability": "payable",
      "type": "function"
    },
    {
      "inputs": [
        {
          "internalType": "bytes32",
          "name": "",
          "type": "bytes32"
        }
      ],
      "name": "registry",
      "outputs": [
        {
          "internalType": "enum KRBTokenV01.Status",
          "name": "credentialStatus",
          "type": "uint8"
        },
        {
          "internalType": "bytes32",
          "name": "disputedBy",
          "type": "bytes32"
        }
      ],
      "stateMutability": "view",
      "type": "function"
    },
    {
      "inputs": [
        {
          "internalType": "bytes32",
          "name": "role",
          "type": "bytes32"
        },
        {
          "internalType": "address",
          "name": "account",
          "type": "address"
        }
      ],
      "name": "renounceRole",
      "outputs": [],
      "stateMutability": "nonpayable",
      "type": "function"
    },
    {
      "inputs": [
        {
          "internalType": "bytes32",
          "name": "role",
          "type": "bytes32"
        },
        {
          "internalType": "address",
          "name": "account",
          "type": "address"
        }
      ],
      "name": "revokeRole",
      "outputs": [],
      "stateMutability": "nonpayable",
      "type": "function"
    },
    {
      "inputs": [
        {
          "components": [
            {
              "internalType": "string",
              "name": "_context",
              "type": "string"
            },
            {
              "internalType": "string",
              "name": "_type",
              "type": "string"
            },
            {
              "internalType": "string",
              "name": "id",
              "type": "string"
            },
            {
              "components": [
                {
                  "internalType": "string",
                  "name": "id",
                  "type": "string"
                },
                {
                  "internalType": "address",
                  "name": "ethereumAddress",
                  "type": "address"
                }
              ],
              "internalType": "struct VCTypesV01.Issuer",
              "name": "issuer",
              "type": "tuple"
            },
            {
              "components": [
                {
                  "internalType": "string",
                  "name": "id",
                  "type": "string"
                },
                {
                  "internalType": "address",
                  "name": "ethereumAddress",
                  "type": "address"
                },
                {
                  "internalType": "string",
                  "name": "_type",
                  "type": "string"
                },
                {
                  "internalType": "string",
                  "name": "typeSchema",
                  "type": "string"
                },
                {
                  "internalType": "string",
                  "name": "value",
                  "type": "string"
                },
                {
                  "internalType": "string",
                  "name": "encrypted",
                  "type": "string"
                },
                {
                  "internalType": "uint8",
                  "name": "trust",
                  "type": "uint8"
                },
                {
                  "internalType": "uint256",
                  "name": "stake",
                  "type": "uint256"
                },
                {
                  "internalType": "uint256",
                  "name": "price",
                  "type": "uint256"
                },
                {
                  "internalType": "uint256",
                  "name": "nbf",
                  "type": "uint256"
                },
                {
                  "internalType": "uint256",
                  "name": "exp",
                  "type": "uint256"
                }
              ],
              "internalType": "struct VCTypesV01.CredentialSubject",
              "name": "credentialSubject",
              "type": "tuple"
            },
            {
              "components": [
                {
                  "internalType": "string",
                  "name": "id",
                  "type": "string"
                },
                {
                  "internalType": "string",
                  "name": "_type",
                  "type": "string"
                }
              ],
              "internalType": "struct VCTypesV01.CredentialSchema",
              "name": "credentialSchema",
              "type": "tuple"
            },
            {
              "internalType": "string",
              "name": "issuanceDate",
              "type": "string"
            },
            {
              "internalType": "string",
              "name": "expirationDate",
              "type": "string"
            }
          ],
          "internalType": "struct VCTypesV01.VerifiableCredential",
          "name": "vc",
          "type": "tuple"
        },
        {
          "internalType": "string",
          "name": "reason",
          "type": "string"
        }
      ],
      "name": "revokeVC",
      "outputs": [
        {
          "internalType": "bool",
          "name": "",
          "type": "bool"
        }
      ],
      "stateMutability": "nonpayable",
      "type": "function"
    },
    {
      "inputs": [
        {
          "internalType": "bytes4",
          "name": "interfaceId",
          "type": "bytes4"
        }
      ],
      "name": "supportsInterface",
      "outputs": [
        {
          "internalType": "bool",
          "name": "",
          "type": "bool"
        }
      ],
      "stateMutability": "view",
      "type": "function"
    },
    {
      "inputs": [
        {
          "components": [
            {
              "internalType": "string",
              "name": "_context",
              "type": "string"
            },
            {
              "internalType": "string",
              "name": "_type",
              "type": "string"
            },
            {
              "internalType": "string",
              "name": "id",
              "type": "string"
            },
            {
              "components": [
                {
                  "internalType": "string",
                  "name": "id",
                  "type": "string"
                },
                {
                  "internalType": "address",
                  "name": "ethereumAddress",
                  "type": "address"
                }
              ],
              "internalType": "struct VCTypesV01.Issuer",
              "name": "issuer",
              "type": "tuple"
            },
            {
              "components": [
                {
                  "internalType": "string",
                  "name": "id",
                  "type": "string"
                },
                {
                  "internalType": "address",
                  "name": "ethereumAddress",
                  "type": "address"
                },
                {
                  "internalType": "string",
                  "name": "_type",
                  "type": "string"
                },
                {
                  "internalType": "string",
                  "name": "typeSchema",
                  "type": "string"
                },
                {
                  "internalType": "string",
                  "name": "value",
                  "type": "string"
                },
                {
                  "internalType": "string",
                  "name": "encrypted",
                  "type": "string"
                },
                {
                  "internalType": "uint8",
                  "name": "trust",
                  "type": "uint8"
                },
                {
                  "internalType": "uint256",
                  "name": "stake",
                  "type": "uint256"
                },
                {
                  "internalType": "uint256",
                  "name": "price",
                  "type": "uint256"
                },
                {
                  "internalType": "uint256",
                  "name": "nbf",
                  "type": "uint256"
                },
                {
                  "internalType": "uint256",
                  "name": "exp",
                  "type": "uint256"
                }
              ],
              "internalType": "struct VCTypesV01.CredentialSubject",
              "name": "credentialSubject",
              "type": "tuple"
            },
            {
              "components": [
                {
                  "internalType": "string",
                  "name": "id",
                  "type": "string"
                },
                {
                  "internalType": "string",
                  "name": "_type",
                  "type": "string"
                }
              ],
              "internalType": "struct VCTypesV01.CredentialSchema",
              "name": "credentialSchema",
              "type": "tuple"
            },
            {
              "internalType": "string",
              "name": "issuanceDate",
              "type": "string"
            },
            {
              "internalType": "string",
              "name": "expirationDate",
              "type": "string"
            }
          ],
          "internalType": "struct VCTypesV01.VerifiableCredential",
          "name": "vc",
          "type": "tuple"
        },
        {
          "internalType": "string",
          "name": "reason",
          "type": "string"
        }
      ],
      "name": "suspendVC",
      "outputs": [
        {
          "internalType": "bool",
          "name": "",
          "type": "bool"
        }
      ],
      "stateMutability": "nonpayable",
      "type": "function"
    },
    {
      "inputs": [],
      "name": "symbol",
      "outputs": [
        {
          "internalType": "string",
          "name": "",
          "type": "string"
        }
      ],
      "stateMutability": "view",
      "type": "function"
    },
    {
      "inputs": [],
      "name": "totalSupply",
      "outputs": [
        {
          "internalType": "uint256",
          "name": "",
          "type": "uint256"
        }
      ],
      "stateMutability": "view",
      "type": "function"
    },
    {
      "inputs": [
        {
          "internalType": "address",
          "name": "recipient",
          "type": "address"
        },
        {
          "internalType": "uint256",
          "name": "amount",
          "type": "uint256"
        }
      ],
      "name": "transfer",
      "outputs": [
        {
          "internalType": "bool",
          "name": "",
          "type": "bool"
        }
      ],
      "stateMutability": "nonpayable",
      "type": "function"
    },
    {
      "inputs": [
        {
          "internalType": "address",
          "name": "sender",
          "type": "address"
        },
        {
          "internalType": "address",
          "name": "recipient",
          "type": "address"
        },
        {
          "internalType": "uint256",
          "name": "amount",
          "type": "uint256"
        }
      ],
      "name": "transferFrom",
      "outputs": [
        {
          "internalType": "bool",
          "name": "",
          "type": "bool"
        }
      ],
      "stateMutability": "nonpayable",
      "type": "function"
    },
    {
      "inputs": [],
      "name": "unpause",
      "outputs": [],
      "stateMutability": "nonpayable",
      "type": "function"
    },
    {
      "inputs": [
        {
          "internalType": "uint256",
          "name": "newFeePercentage",
          "type": "uint256"
        }
      ],
      "name": "updateFeePercentage",
      "outputs": [],
      "stateMutability": "nonpayable",
      "type": "function"
    },
    {
      "inputs": [
        {
          "internalType": "uint256",
          "name": "newMinBalance",
          "type": "uint256"
        }
      ],
      "name": "updateMinBalanceToIssue",
      "outputs": [],
      "stateMutability": "nonpayable",
      "type": "function"
    },
    {
      "inputs": [
        {
          "internalType": "uint256",
          "name": "newMinBalance",
          "type": "uint256"
        }
      ],
      "name": "updateMinBalanceToReceive",
      "outputs": [],
      "stateMutability": "nonpayable",
      "type": "function"
    },
    {
      "inputs": [
        {
          "internalType": "uint256",
          "name": "newMinBalance",
          "type": "uint256"
        }
      ],
      "name": "updateMinBalanceToTransfer",
      "outputs": [],
      "stateMutability": "nonpayable",
      "type": "function"
    },
    {
      "inputs": [
        {
          "internalType": "uint256",
          "name": "newMinStake",
          "type": "uint256"
        },
        {
          "internalType": "uint256",
          "name": "newMaxStake",
          "type": "uint256"
        }
      ],
      "name": "updateStakeToIssue",
      "outputs": [],
      "stateMutability": "nonpayable",
      "type": "function"
    },
    {
      "inputs": [
        {
          "internalType": "address",
          "name": "newImplementation",
          "type": "address"
        }
      ],
      "name": "upgradeTo",
      "outputs": [],
      "stateMutability": "nonpayable",
      "type": "function"
    },
    {
      "inputs": [
        {
          "internalType": "address",
          "name": "newImplementation",
          "type": "address"
        },
        {
          "internalType": "bytes",
          "name": "data",
          "type": "bytes"
        }
      ],
      "name": "upgradeToAndCall",
      "outputs": [],
      "stateMutability": "payable",
      "type": "function"
    },
    {
      "inputs": [
        {
          "internalType": "address payable",
          "name": "_to",
          "type": "address"
        },
        {
          "internalType": "uint256",
          "name": "_amount",
          "type": "uint256"
        }
      ],
      "name": "withdrawFees",
      "outputs": [],
      "stateMutability": "nonpayable",
      "type": "function"
    }
  ],
  "bytecode": "0x60a06040523060601b6080523480156200001857600080fd5b50600054610100900460ff16620000365760005460ff161562000040565b62000040620000e5565b620000a85760405162461bcd60e51b815260206004820152602e60248201527f496e697469616c697a61626c653a20636f6e747261637420697320616c72656160448201526d191e481a5b9a5d1a585b1a5e995960921b606482015260840160405180910390fd5b600054610100900460ff16158015620000cb576000805461ffff19166101011790555b8015620000de576000805461ff00191690555b5062000109565b6000620000fd306200010360201b62001e311760201c565b15905090565b3b151590565b60805160601c6152c96200013d600039600081816110a2015281816110e20152818161128c01526112cc01526152c96000f3fe6080604052600436106103355760003560e01c80638129fc1c116101ab578063bcd68993116100f7578063de5785d511610095578063e29578a61161006f578063e29578a614610988578063e5a2b28e146109a8578063e6aff7be146109bf578063f09a4d56146109df57600080fd5b8063de5785d514610947578063de9d2b1c1461095e578063dec9cafe1461097557600080fd5b8063ca2a8cfc116100d1578063ca2a8cfc146108a1578063ce556f9d146108c1578063d547741f146108e1578063dd62ed3e1461090157600080fd5b8063bcd6899314610841578063c0d506d614610861578063ca15c8731461088157600080fd5b806396a45bc511610164578063a457c2d71161013e578063a457c2d7146107ca578063a9059cbb146107ea578063ad3b1b471461080a578063af4e720d1461082a57600080fd5b806396a45bc51461077e578063a001ecdd1461079e578063a217fddf146107b557600080fd5b80638129fc1c146106c75780638456cb59146106dc578063888bb7b5146106f15780639010d07c1461071157806391d148541461074957806395d89b411461076957600080fd5b806336568abe116102855780634f1ef2861161022357806370a08231116101fd57806370a0823114610608578063716f4d901461063e57806379cc67901461065e5780637ef502981461067e57600080fd5b80634f1ef286146105bc5780635c975abb146105cf5780636cad3fb0146105e857600080fd5b8063395093511161025f57806339509351146105475780633f4ba83a1461056757806340c10f191461057c57806342966c681461059c57600080fd5b806336568abe146104e55780633659cfe61461050557806338b7f4461461052557600080fd5b806318160ddd116102f25780632a401e81116102cc5780632a401e81146104745780632f2ff15d14610494578063313ce567146104b45780633644e515146104d057600080fd5b806318160ddd1461040f57806323b872dd14610424578063248a9ca31461044457600080fd5b806301ffc9a71461033a57806306fdde031461036f57806307a0d7981461039157806307a77292146103b6578063095ea7b3146103cd57806309b1146b146103ed575b600080fd5b34801561034657600080fd5b5061035a6103553660046148d4565b6109ff565b60405190151581526020015b60405180910390f35b34801561037b57600080fd5b50610384610a2a565b6040516103669190614d2f565b34801561039d57600080fd5b506103a861022d5481565b604051908152602001610366565b3480156103c257600080fd5b506103a861022a5481565b3480156103d957600080fd5b5061035a6103e836600461477f565b610abc565b3480156103f957600080fd5b5061040d610408366004614874565b610ad2565b005b34801561041b57600080fd5b5060cb546103a8565b34801561043057600080fd5b5061035a61043f3660046147e4565b610b64565b34801561045057600080fd5b506103a861045f366004614874565b60009081526065602052604090206001015490565b34801561048057600080fd5b5061035a61048f366004614993565b610c10565b3480156104a057600080fd5b5061040d6104af36600461488d565b610fdf565b3480156104c057600080fd5b5060405160128152602001610366565b3480156104dc57600080fd5b506103a861100a565b3480156104f157600080fd5b5061040d61050036600461488d565b611019565b34801561051157600080fd5b5061040d610520366004614762565b611097565b34801561053157600080fd5b506103a860008051602061522d83398151915281565b34801561055357600080fd5b5061035a61056236600461477f565b611160565b34801561057357600080fd5b5061040d61119c565b34801561058857600080fd5b5061040d61059736600461477f565b61120b565b3480156105a857600080fd5b5061040d6105b7366004614874565b611277565b61040d6105ca366004614825565b611281565b3480156105db57600080fd5b5061012d5460ff1661035a565b3480156105f457600080fd5b5061040d610603366004614874565b611337565b34801561061457600080fd5b506103a8610623366004614762565b6001600160a01b0316600090815260c9602052604090205490565b34801561064a57600080fd5b5061035a61065936600461493a565b6113f3565b34801561066a57600080fd5b5061040d61067936600461477f565b611443565b34801561068a57600080fd5b506106b9610699366004614874565b610230602052600090815260409020805460019091015460ff9091169082565b604051610366929190614d03565b3480156106d357600080fd5b5061040d6114c4565b3480156106e857600080fd5b5061040d6115bf565b3480156106fd57600080fd5b5061035a61070c3660046148fe565b61162a565b34801561071d57600080fd5b5061073161072c3660046148b2565b6116a8565b6040516001600160a01b039091168152602001610366565b34801561075557600080fd5b5061035a61076436600461488d565b6116c0565b34801561077557600080fd5b506103846116eb565b34801561078a57600080fd5b5061040d610799366004614874565b6116fa565b3480156107aa57600080fd5b506103a861022e5481565b3480156107c157600080fd5b506103a8600081565b3480156107d657600080fd5b5061035a6107e536600461477f565b611779565b3480156107f657600080fd5b5061035a61080536600461477f565b611808565b34801561081657600080fd5b5061040d61082536600461477f565b611815565b34801561083657600080fd5b506103a861022b5481565b34801561084d57600080fd5b506103a861085c3660046148fe565b6118d9565b34801561086d57600080fd5b5061038461087c3660046148fe565b6118e4565b34801561088d57600080fd5b506103a861089c366004614874565b6118fc565b3480156108ad57600080fd5b5061035a6108bc36600461493a565b611913565b3480156108cd57600080fd5b5061035a6108dc36600461493a565b611959565b3480156108ed57600080fd5b5061040d6108fc36600461488d565b61199f565b34801561090d57600080fd5b506103a861091c3660046147ab565b6001600160a01b03918216600090815260ca6020908152604080832093909416825291909152205490565b34801561095357600080fd5b506103a861022f5481565b34801561096a57600080fd5b506103a861022c5481565b61035a61098336600461493a565b6119c5565b34801561099457600080fd5b506103846109a3366004614874565b611a80565b3480156109b457600080fd5b506103a86102295481565b3480156109cb57600080fd5b5061040d6109da366004614874565b611c33565b3480156109eb57600080fd5b5061040d6109fa3660046148b2565b611caf565b60006001600160e01b03198216635a05180f60e01b1480610a245750610a2482611e37565b92915050565b606060cc8054610a399061514e565b80601f0160208091040260200160405190810160405280929190818152602001828054610a659061514e565b8015610ab25780601f10610a8757610100808354040283529160200191610ab2565b820191906000526020600020905b815481529060010190602001808311610a9557829003601f168201915b5050505050905090565b6000610ac9338484611e6c565b50600192915050565b610aea60008051602061522d833981519152336116c0565b610b0f5760405162461bcd60e51b8152600401610b0690614d42565b60405180910390fd5b61022a81905560405160008051602061520d83398151915290610b59906020808252601390820152726d696e42616c616e6365546f5265636569766560681b604082015260600190565b60405180910390a150565b6000610b71848484611f90565b6001600160a01b038416600090815260ca6020908152604080832033845290915290205482811015610bf65760405162461bcd60e51b815260206004820152602860248201527f45524332303a207472616e7366657220616d6f756e74206578636565647320616044820152676c6c6f77616e636560c01b6064820152608401610b06565b610c038533858403611e6c565b60019150505b9392505050565b6000610c2a60008051602061522d833981519152336116c0565b610c7f5760405162461bcd60e51b81526020600482015260326024820152600080516020615274833981519152604482015271746f207265736f6c7665206469737075746560701b6064820152608401610b06565b604051602001610cc7907f5b2256657269666961626c6543726564656e7469616c222c224469737075746581526b43726564656e7469616c225d60a01b6020820152602c0190565b604051602081830303815290604052805190602001208260200151604051602001610cf29190614b5c565b6040516020818303038152906040528051906020012014610d745760405162461bcd60e51b815260206004820152603660248201527f4b5242546f6b656e3a206469737075746520636c61696d2074797065206d75736044820152751d08189948111a5cdc1d5d1950dc9959195b9d1a585b60521b6064820152608401610b06565b6060820151602001516001600160a01b03163314610de85760405162461bcd60e51b815260206004820152602b60248201527f4b5242546f6b656e3a20697373756572206d7573742062652074686520476f7660448201526a65726e206164647265737360a81b6064820152608401610b06565b6000610df3846118d9565b9050600080828152610230602052604090205460ff166005811115610e1a57610e1a61519f565b14158015610e4c575060026000828152610230602052604090205460ff166005811115610e4957610e4961519f565b14155b610ea45760405162461bcd60e51b815260206004820152602360248201527f4b5242546f6b656e3a20564320737461746520616c72656164792064697370756044820152621d195960ea1b6064820152608401610b06565b6000610eaf846118d9565b60008381526102306020908152604091829020805460ff1916600217815560010183905581518581529081018390529192507f8e39eab2c454d024fb5c89b50dabc51f5068c7a283891d06aa91f5ba96acded1910160405180910390a16000818152610230602052604090819020805460ff19166001179055517f632a70c3617009ee20500487ed52cd53ce50635cd84cf177b09577715eae51db90610f589083908790614c06565b60405180910390a16000610f6e6012600a61502a565b866080015160e00151610f8191906150d5565b9050610f958660600151602001518261216b565b6000610fac82886080015160c0015160ff166122c5565b9050610fc08760800151602001518261216b565b610fd28760600151602001518261216b565b5060019695505050505050565b600082815260656020526040902060010154610ffb81336122db565b611005838361233f565b505050565b6000611014612361565b905090565b6001600160a01b03811633146110895760405162461bcd60e51b815260206004820152602f60248201527f416363657373436f6e74726f6c3a2063616e206f6e6c792072656e6f756e636560448201526e103937b632b9903337b91039b2b63360891b6064820152608401610b06565b61109382826123de565b5050565b306001600160a01b037f00000000000000000000000000000000000000000000000000000000000000001614156110e05760405162461bcd60e51b8152600401610b0690614dcf565b7f00000000000000000000000000000000000000000000000000000000000000006001600160a01b0316611112612400565b6001600160a01b0316146111385760405162461bcd60e51b8152600401610b0690614e1b565b6111418161242e565b6040805160008082526020820190925261115d91839190612493565b50565b33600081815260ca602090815260408083206001600160a01b03871684529091528120549091610ac9918590611197908690614fad565b611e6c565b6111b460008051602061522d833981519152336116c0565b6112015760405162461bcd60e51b815260206004820152602a6024820152600080516020615274833981519152604482015269746f20756e706175736560b01b6064820152608401610b06565b6112096125de565b565b61122360008051602061522d833981519152336116c0565b61126d5760405162461bcd60e51b815260206004820152602760248201526000805160206152748339815191526044820152661d1bc81b5a5b9d60ca1b6064820152608401610b06565b6110938282612673565b61115d338261216b565b306001600160a01b037f00000000000000000000000000000000000000000000000000000000000000001614156112ca5760405162461bcd60e51b8152600401610b0690614dcf565b7f00000000000000000000000000000000000000000000000000000000000000006001600160a01b03166112fc612400565b6001600160a01b0316146113225760405162461bcd60e51b8152600401610b0690614e1b565b61132b8261242e565b61109382826001612493565b61134f60008051602061522d833981519152336116c0565b6113af5760405162461bcd60e51b8152602060048201526037602482015260008051602061527483398151915260448201527f746f206368616e67652066656550657263656e746167650000000000000000006064820152608401610b06565b61022e81905560405160008051602061520d83398151915290610b59906020808252600d908201526c66656550657263656e7461676560981b604082015260600190565b6080820151602001516000906001600160a01b031633146114265760405162461bcd60e51b8152600401610b0690614e9e565b611439611432846118d9565b848461275e565b5060019392505050565b600061144f833361091c565b9050818110156114ad5760405162461bcd60e51b8152602060048201526024808201527f45524332303a206275726e20616d6f756e74206578636565647320616c6c6f77604482015263616e636560e01b6064820152608401610b06565b6114ba8333848403611e6c565b611005838361216b565b600054610100900460ff166114df5760005460ff16156114e3565b303b155b6115465760405162461bcd60e51b815260206004820152602e60248201527f496e697469616c697a61626c653a20636f6e747261637420697320616c72656160448201526d191e481a5b9a5d1a585b1a5e995960921b6064820152608401610b06565b600054610100900460ff16158015611568576000805461ffff19166101011790555b6115ab6040518060400160405280600681526020016512dc99589a5d60d21b8152506040518060400160405280600381526020016225a92160e91b815250612860565b801561115d576000805461ff001916905550565b6115d760008051602061522d833981519152336116c0565b6116225760405162461bcd60e51b81526020600482015260286024820152600080516020615274833981519152604482015267746f20706175736560c01b6064820152608401610b06565b6112096128f8565b600080611636836118d9565b9050826080015161014001514211156116985760008181526102306020908152604091829020805460ff1916600517905590518281527f3077f64f92ad91c6479071531304fa3c1e0bb9b63e130c746f3a564292f0ddc6910160405180910390a15b5050608001516101400151421190565b6000828152609760205260408120610c099083612975565b60009182526065602090815260408084206001600160a01b0393909316845291905290205460ff1690565b606060cd8054610a399061514e565b61171260008051602061522d833981519152336116c0565b61172e5760405162461bcd60e51b8152600401610b0690614d42565b61022981905560405160008051602061520d83398151915290610b599060208082526014908201527336b4b72130b630b731b2aa37aa3930b739b332b960611b604082015260600190565b33600090815260ca602090815260408083206001600160a01b0386168452909152812054828110156117fb5760405162461bcd60e51b815260206004820152602560248201527f45524332303a2064656372656173656420616c6c6f77616e63652062656c6f77604482015264207a65726f60d81b6064820152608401610b06565b6114393385858403611e6c565b6000610ac9338484611f90565b61182d60008051602061522d833981519152336116c0565b61187b5760405162461bcd60e51b815260206004820152602b602482015260008051602061527483398151915260448201526a746f20776974686472617760a81b6064820152608401610b06565b61022f5481111561188b57600080fd5b8061022f600082825461189e91906150f4565b90915550506040516001600160a01b0383169082156108fc029083906000818181858888f19350505050158015611005573d6000803e3d6000fd5b6000610a2482612981565b606060006118f1836118d9565b9050610c0981611a80565b6000818152609760205260408120610a2490612a75565b6060820151602001516000906001600160a01b031633146119465760405162461bcd60e51b8152600401610b0690614d84565b611439611952846118d9565b8484612a7f565b6060820151602001516000906001600160a01b0316331461198c5760405162461bcd60e51b8152600401610b0690614d84565b611439611998846118d9565b8484612b10565b6000828152606560205260409020600101546119bb81336122db565b61100583836123de565b6080820151602001516000906001600160a01b031633146119f85760405162461bcd60e51b8152600401610b0690614e9e565b348360800151610100015114611a765760405162461bcd60e51b815260206004820152603a60248201527f4b5242546f6b656e3a206d73672e76616c756520646f6573206e6f74206d617460448201527f63682063726564656e7469616c5375626a6563742e70726963650000000000006064820152608401610b06565b6114398383612bf7565b6000818152610230602052604081205460609160ff90911690816005811115611aab57611aab61519f565b1415611ad35750506040805180820190915260048152634e6f6e6560e01b6020820152919050565b6001816005811115611ae757611ae761519f565b1415611b11575050604080518082019091526006815265125cdcdd595960d21b6020820152919050565b6002816005811115611b2557611b2561519f565b1415611b51575050604080518082019091526008815267111a5cdc1d5d195960c21b6020820152919050565b6003816005811115611b6557611b6561519f565b1415611b9057505060408051808201909152600781526614995d9bdad95960ca1b6020820152919050565b6004816005811115611ba457611ba461519f565b1415611bd157505060408051808201909152600981526814dd5cdc195b99195960ba1b6020820152919050565b6005816005811115611be557611be561519f565b1415611c10575050604080518082019091526007815266115e1c1a5c995960ca1b6020820152919050565b505060408051808201909152600581526422b93937b960d91b6020820152919050565b611c4b60008051602061522d833981519152336116c0565b611c675760405162461bcd60e51b8152600401610b0690614d42565b61022b81905560405160008051602061520d83398151915290610b59906020808252601190820152706d696e42616c616e6365546f497373756560781b604082015260600190565b611cc760008051602061522d833981519152336116c0565b611d1c5760405162461bcd60e51b81526020600482015260326024820152600080516020615274833981519152604482015271746f206368616e6765206d696e5374616b6560701b6064820152608401610b06565b818111611d915760405162461bcd60e51b815260206004820152603f60248201527f4b5242546f6b656e3a206e65774d61785374616b65206d75737420626520677260448201527f6561746572206f7220657175616c207468616e206e65774d696e5374616b65006064820152608401610b06565b61022c82905560405160008051602061520d83398151915290611dd7906020808252600f908201526e6d696e5374616b65546f497373756560881b604082015260600190565b60405180910390a161022d81905560405160008051602061520d83398151915290611e25906020808252600f908201526e6d61785374616b65546f497373756560881b604082015260600190565b60405180910390a15050565b3b151590565b60006001600160e01b03198216637965db0b60e01b1480610a2457506301ffc9a760e01b6001600160e01b0319831614610a24565b6001600160a01b038316611ece5760405162461bcd60e51b8152602060048201526024808201527f45524332303a20617070726f76652066726f6d20746865207a65726f206164646044820152637265737360e01b6064820152608401610b06565b6001600160a01b038216611f2f5760405162461bcd60e51b815260206004820152602260248201527f45524332303a20617070726f766520746f20746865207a65726f206164647265604482015261737360f01b6064820152608401610b06565b6001600160a01b03838116600081815260ca602090815260408083209487168084529482529182902085905590518481527f8c5be1e5ebec7d5bd14f71427d1e84f3dd0314c0f7b2291e5b200ac8c7c3b925910160405180910390a3505050565b6001600160a01b038316611ff45760405162461bcd60e51b815260206004820152602560248201527f45524332303a207472616e736665722066726f6d20746865207a65726f206164604482015264647265737360d81b6064820152608401610b06565b6001600160a01b0382166120565760405162461bcd60e51b815260206004820152602360248201527f45524332303a207472616e7366657220746f20746865207a65726f206164647260448201526265737360e81b6064820152608401610b06565b612061838383612c2d565b6001600160a01b038316600090815260c96020526040902054818110156120d95760405162461bcd60e51b815260206004820152602660248201527f45524332303a207472616e7366657220616d6f756e7420657863656564732062604482015265616c616e636560d01b6064820152608401610b06565b6001600160a01b03808516600090815260c96020526040808220858503905591851681529081208054849290612110908490614fad565b92505081905550826001600160a01b0316846001600160a01b03167fddf252ad1be2c89b69c2b068fc378daa952ba7f163c4a11628f55a4df523b3ef8460405161215c91815260200190565b60405180910390a35b50505050565b6001600160a01b0382166121cb5760405162461bcd60e51b815260206004820152602160248201527f45524332303a206275726e2066726f6d20746865207a65726f206164647265736044820152607360f81b6064820152608401610b06565b6121d782600083612c2d565b6001600160a01b038216600090815260c960205260409020548181101561224b5760405162461bcd60e51b815260206004820152602260248201527f45524332303a206275726e20616d6f756e7420657863656564732062616c616e604482015261636560f01b6064820152608401610b06565b6001600160a01b038316600090815260c960205260408120838303905560cb805484929061227a9084906150f4565b90915550506040518281526000906001600160a01b038516907fddf252ad1be2c89b69c2b068fc378daa952ba7f163c4a11628f55a4df523b3ef9060200160405180910390a3505050565b6000610c096122d48484612dc3565b6064612dcf565b6122e582826116c0565b611093576122fd816001600160a01b03166014612ddb565b612308836020612ddb565b604051602001612319929190614b78565b60408051601f198184030181529082905262461bcd60e51b8252610b0691600401614d2f565b6123498282612f76565b60008281526097602052604090206110059082612ffc565b60006110147f8b73c3c69bb8fe3d512ecc4cf759cc79239f7b179b0ffacaa9a75d522b39400f6123916101915490565b610192546040805160208101859052908101839052606081018290524660808201523060a082015260009060c0016040516020818303038152906040528051906020012090509392505050565b6123e88282613011565b60008281526097602052604090206110059082613078565b7f360894a13ba1a3210667c828492db98dca3e2076cc3735a920a3ca505d382bbc546001600160a01b031690565b61244660008051602061522d833981519152336116c0565b61115d5760405162461bcd60e51b815260206004820152602a6024820152600080516020615274833981519152604482015269746f207570677261646560b01b6064820152608401610b06565b600061249d612400565b90506124a88461308d565b6000835111806124b55750815b156124c6576124c48484613132565b505b7f4910fdfa16fed3260ed0e7147f7cc6da11a60208b5b9406d12a635614ffd9143805460ff166125d757805460ff191660011781556040516001600160a01b038316602482015261254590869060440160408051601f198184030181529190526020810180516001600160e01b0316631b2ce7f360e11b179052613132565b50805460ff19168155612556612400565b6001600160a01b0316826001600160a01b0316146125ce5760405162461bcd60e51b815260206004820152602f60248201527f45524331393637557067726164653a207570677261646520627265616b73206660448201526e75727468657220757067726164657360881b6064820152608401610b06565b6125d78561321d565b5050505050565b61012d5460ff166126285760405162461bcd60e51b815260206004820152601460248201527314185d5cd8589b194e881b9bdd081c185d5cd95960621b6044820152606401610b06565b61012d805460ff191690557f5db9ee0a495bf2e6ff9c91a7834c1ba4fdd244a5e8aa4e537bd38aeae4b073aa335b6040516001600160a01b03909116815260200160405180910390a1565b6001600160a01b0382166126c95760405162461bcd60e51b815260206004820152601f60248201527f45524332303a206d696e7420746f20746865207a65726f2061646472657373006044820152606401610b06565b6126d560008383612c2d565b8060cb60008282546126e79190614fad565b90915550506001600160a01b038216600090815260c9602052604081208054839290612714908490614fad565b90915550506040518181526001600160a01b038316906000907fddf252ad1be2c89b69c2b068fc378daa952ba7f163c4a11628f55a4df523b3ef9060200160405180910390a35050565b600060016000858152610230602052604090205460ff1660058111156127865761278661519f565b146127a35760405162461bcd60e51b8152600401610b0690614e67565b6000848152610230602052604090819020805460ff19169055517f761f6dc13136b4cb3a156f0ed2a2b0865663e8bae80e43eb200aaff89b223b8a906127ec9086908590614bed565b60405180910390a160006128026012600a61502a565b846080015160e0015161281591906150d5565b9050600061282e82866080015160c0015160ff166122c5565b90506128428560800151602001518261216b565b6128548560600151602001518261216b565b50600195945050505050565b600054610100900460ff166128875760405162461bcd60e51b8152600401610b0690614ef4565b61288f61325d565b61289761325d565b61289f61325d565b6128a761325d565b6128b18282613284565b6128b961325d565b6128c16132d2565b6128c961325d565b6128ee8260405180604001604052806003815260200162302e3160e81b815250613306565b6110938282613349565b61012d5460ff161561293f5760405162461bcd60e51b815260206004820152601060248201526f14185d5cd8589b194e881c185d5cd95960821b6044820152606401610b06565b61012d805460ff191660011790557f62e78cea01bee320cd4e420270b5ea74000d11b0c9f74754ebdbfc544b05a2586126563390565b6000610c098383613425565b60007f63c4847aa3662952b34b8f76f3abc371c24535ee34fce5b3df34d029db924d4e60001b8260000151805190602001208360200151805190602001208460400151805190602001206129d8866060015161344f565b6129e587608001516134a8565b6129f28860a001516135a1565b60c0890151805160209182012060e08b0151805190830120604051612a589a9998979695949301988952602089019790975260408801959095526060870193909352608086019190915260a085015260c084015260e08301526101008201526101200190565b604051602081830303815290604052805190602001209050919050565b6000610a24825490565b600060016000858152610230602052604090205460ff166005811115612aa757612aa761519f565b14612ac45760405162461bcd60e51b8152600401610b0690614e67565b6000848152610230602052604090819020805460ff19166003179055517fc8d626f397822cbf88d2668dbdd8bac1a4a172c0d81425fde1526ef2b8195ca3906127ec9086908590614bed565b600060016000858152610230602052604090205460ff166005811115612b3857612b3861519f565b14612b555760405162461bcd60e51b8152600401610b0690614e67565b6000848152610230602052604090819020805460ff19166004179055517f9f3ea3215e3320f6d705861aefc7d473557aff8cae1ac438222996d547233d3590612ba19086908590614bed565b60405180910390a16000612bb76012600a61502a565b846080015160e00151612bca91906150d5565b90506000612be382866080015160c0015160ff166122c5565b90506128548560800151602001518261216b565b600080612c03846118d9565b9050612c1884606001516020015182856135f7565b612c2281856136fe565b506001949350505050565b612c388383836139a9565b612c5060008051602061522d833981519152336116c0565b80612c6257506001600160a01b038316155b80612c7457506001600160a01b038216155b80612c9a5750610229546001600160a01b038416600090815260c9602052604090205410155b612cfc5760405162461bcd60e51b815260206004820152602d60248201527f4b5242546f6b656e3a2073656e64657220646f6573206e6f742068617665206560448201526c6e6f7567682062616c616e636560981b6064820152608401610b06565b612d1460008051602061522d833981519152336116c0565b80612d2657506001600160a01b038316155b80612d3857506001600160a01b038216155b80612d5e575061022a546001600160a01b038316600090815260c9602052604090205410155b6110055760405162461bcd60e51b815260206004820152603060248201527f4b5242546f6b656e3a20726563697069656e7420646f6573206e6f742068617660448201526f6520656e6f7567682062616c616e636560801b6064820152608401610b06565b6000610c0982846150d5565b6000610c098284614fc5565b60606000612dea8360026150d5565b612df5906002614fad565b6001600160401b03811115612e0c57612e0c6151e1565b6040519080825280601f01601f191660200182016040528015612e36576020820181803683370190505b509050600360fc1b81600081518110612e5157612e516151cb565b60200101906001600160f81b031916908160001a905350600f60fb1b81600181518110612e8057612e806151cb565b60200101906001600160f81b031916908160001a9053506000612ea48460026150d5565b612eaf906001614fad565b90505b6001811115612f27576f181899199a1a9b1b9c1cb0b131b232b360811b85600f1660108110612ee357612ee36151cb565b1a60f81b828281518110612ef957612ef96151cb565b60200101906001600160f81b031916908160001a90535060049490941c93612f2081615137565b9050612eb2565b508315610c095760405162461bcd60e51b815260206004820181905260248201527f537472696e67733a20686578206c656e67746820696e73756666696369656e746044820152606401610b06565b612f8082826116c0565b6110935760008281526065602090815260408083206001600160a01b03851684529091529020805460ff19166001179055612fb83390565b6001600160a01b0316816001600160a01b0316837f2f8788117e7eff1d82e926ec794901d17c78024a50270940304540a733656f0d60405160405180910390a45050565b6000610c09836001600160a01b038416613a10565b61301b82826116c0565b156110935760008281526065602090815260408083206001600160a01b0385168085529252808320805460ff1916905551339285917ff6391f5c32d9c69d2a47ea670b442974b53935d1edc7fd64eb21e047a839171b9190a45050565b6000610c09836001600160a01b038416613a5f565b803b6130f15760405162461bcd60e51b815260206004820152602d60248201527f455243313936373a206e657720696d706c656d656e746174696f6e206973206e60448201526c1bdd08184818dbdb9d1c9858dd609a1b6064820152608401610b06565b7f360894a13ba1a3210667c828492db98dca3e2076cc3735a920a3ca505d382bbc80546001600160a01b0319166001600160a01b0392909216919091179055565b6060823b6131915760405162461bcd60e51b815260206004820152602660248201527f416464726573733a2064656c65676174652063616c6c20746f206e6f6e2d636f6044820152651b9d1c9858dd60d21b6064820152608401610b06565b600080846001600160a01b0316846040516131ac9190614b5c565b600060405180830381855af49150503d80600081146131e7576040519150601f19603f3d011682016040523d82523d6000602084013e6131ec565b606091505b5091509150613214828260405180606001604052806027815260200161524d60279139613b52565b95945050505050565b6132268161308d565b6040516001600160a01b038216907fbc7cd75a20ee27fd9adebab32041f755214dbc6bffa90cc0225b39da2e5c2d3b90600090a250565b600054610100900460ff166112095760405162461bcd60e51b8152600401610b0690614ef4565b600054610100900460ff166132ab5760405162461bcd60e51b8152600401610b0690614ef4565b81516132be9060cc9060208501906142d9565b5080516110059060cd9060208401906142d9565b600054610100900460ff166132f95760405162461bcd60e51b8152600401610b0690614ef4565b61012d805460ff19169055565b600054610100900460ff1661332d5760405162461bcd60e51b8152600401610b0690614ef4565b8151602092830120815191909201206101919190915561019255565b600054610100900460ff166133705760405162461bcd60e51b8152600401610b0690614ef4565b61337b600033613b8b565b61339360008051602061522d83398151915233613b8b565b61339f6012600a61502a565b6133aa9060646150d5565b610229556133ba6012600a61502a565b6133c59060646150d5565b61022a55600a61022e5560126133dc90600a61502a565b6133e79060646150d5565b61022b556133f76012600a61502a565b6134029060016150d5565b61022c556134126012600a61502a565b61341d90600a6150d5565b61022d555050565b600082600001828154811061343c5761343c6151cb565b9060005260206000200154905092915050565b8051805160209182012081830151604080517fabb691e6e52ceb1ff8b3df91dc14323057e88efa3252486ed994fd62706cdfaa948101949094528301919091526001600160a01b03166060820152600090608001612a58565b60007f4b87db6c5998f503ac6519b5a7d74efcf2a230368deeaf54dd8bf078da459ff760001b82600001518051906020012083602001518460400151805190602001208560600151805190602001208660800151805190602001208760a00151805190602001208860c001518960e001518a61010001518b61012001518c6101400151604051602001612a589c9b9a999897969594939291909b8c5260208c019a909a526001600160a01b039890981660408b015260608a0196909652608089019490945260a088019290925260c087015260ff1660e08601526101008501526101208401526101408301526101608201526101800190565b8051805160209182012081830151805190830120604080517f1a58b7c56676b62343f37f4f3603a07ae6dd78bea300689bcefef0f9498c6cc9948101949094528301919091526060820152600090608001612a58565b600061360283613b95565b905060006136108284613be3565b90506001600160a01b0381166136775760405162461bcd60e51b815260206004820152602660248201527f4b5242546f6b656e3a20696e76616c6964207369676e6174757265206164647260448201526565737328302960d01b6064820152608401610b06565b846001600160a01b0316816001600160a01b0316146125d75760405162461bcd60e51b815260206004820152603860248201527f4b5242546f6b656e3a207265636f76657265642061646472657373206469666660448201527f6572732066726f6d206578706563746564207369676e657200000000000000006064820152608401610b06565b6000806000848152610230602052604090205460ff1660058111156137255761372561519f565b146137985760405162461bcd60e51b815260206004820152603860248201527f4b5242546f6b656e3a2056657269666961626c652043726564656e7469616c2060448201527f6861736820616c7265616479206265656e2069737375656400000000000000006064820152608401610b06565b6137a182613c07565b60006137af6012600a61502a565b836080015160e001516137c291906150d5565b905061022c5481101580156137da575061022d548111155b6138585760405162461bcd60e51b815260206004820152604360248201527f4b5242546f6b656e3a207374616b65206d757374206265206265747765656e2060448201527f6d696e5374616b65546f497373756520616e64206d61785374616b65546f497360648201526273756560e81b608482015260a401610b06565b604080518082019091528060018152600060209182018190528681526102309091526040902081518154829060ff1916600183600581111561389c5761389c61519f565b0217905550602082015181600101559050507f632a70c3617009ee20500487ed52cd53ce50635cd84cf177b09577715eae51db84846040516138df929190614c06565b60405180910390a160006138fe82856080015160c0015160ff166122c5565b905061391284608001516020015182612673565b61392484606001516020015182612673565b600061393885608001516101000151613f80565b6060860151602001519091506001600160a01b0381166108fc61395b84346150f4565b6040518115909202916000818181858888f19350505050158015613983573d6000803e3d6000fd5b508161022f60008282546139979190614fad565b90915550600198975050505050505050565b61012d5460ff16156110055760405162461bcd60e51b815260206004820152602a60248201527f45524332305061757361626c653a20746f6b656e207472616e736665722077686044820152691a5b19481c185d5cd95960b21b6064820152608401610b06565b6000818152600183016020526040812054613a5757508154600181810184556000848152602080822090930184905584548482528286019093526040902091909155610a24565b506000610a24565b60008181526001830160205260408120548015613b48576000613a836001836150f4565b8554909150600090613a97906001906150f4565b9050818114613afc576000866000018281548110613ab757613ab76151cb565b9060005260206000200154905080876000018481548110613ada57613ada6151cb565b6000918252602080832090910192909255918252600188019052604090208390555b8554869080613b0d57613b0d6151b5565b600190038181906000526020600020016000905590558560010160008681526020019081526020016000206000905560019350505050610a24565b6000915050610a24565b60608315613b61575081610c09565b825115613b715782518084602001fd5b8160405162461bcd60e51b8152600401610b069190614d2f565b611093828261233f565b6000610a24613ba2612361565b8360405161190160f01b6020820152602281018390526042810182905260009060620160405160208183030381529060405280519060200120905092915050565b6000806000613bf28585613f92565b91509150613bff81614002565b509392505050565b6060810151602001516001600160a01b0316613c655760405162461bcd60e51b815260206004820152601c60248201527f4b5242546f6b656e3a20626164206973737565722061646472657373000000006044820152606401610b06565b6080810151602001516001600160a01b0316613cd35760405162461bcd60e51b815260206004820152602760248201527f4b5242546f6b656e3a206261642063726564656e7469616c5375626a656374206044820152666164647265737360c81b6064820152608401610b06565b608081015151604051613ce99190602001614b5c565b60408051601f198184030181529082905280516020918201206060840151519092613d149201614b5c565b604051602081830303815290604052805190602001201415613d965760405162461bcd60e51b815260206004820152603560248201527f4b5242546f6b656e3a2069737375657220444944206973207468652073616d6560448201527408185cc818dc9959195b9d1a585b14dd589a9958dd605a1b6064820152608401610b06565b8060800151602001516001600160a01b03168160600151602001516001600160a01b03161415613e2e5760405162461bcd60e51b815260206004820152603960248201527f4b5242546f6b656e3a206973737565722061646472657373206973207468652060448201527f73616d652061732063726564656e7469616c5375626a656374000000000000006064820152608401610b06565b61022b54613e598260600151602001516001600160a01b0316600090815260c9602052604090205490565b1015613ebd5760405162461bcd60e51b815260206004820152602d60248201527f4b5242546f6b656e3a2069737375657220646f6573206e6f742068617665206560448201526c6e6f7567682062616c616e636560981b6064820152608401610b06565b806080015161012001514211613f285760405162461bcd60e51b815260206004820152602a60248201527f4b5242546f6b656e3a2056432069737375616e63654461746520697320696e206044820152697468652066757475726560b01b6064820152608401610b06565b80608001516101400151421061115d5760405162461bcd60e51b815260206004820181905260248201527f4b5242546f6b656e3a2056432068617320616c726561647920657870697265646044820152606401610b06565b6000610a246122d48361022e54612dc3565b600080825160411415613fc95760208301516040840151606085015160001a613fbd878285856141bd565b94509450505050613ffb565b825160401415613ff35760208301516040840151613fe88683836142aa565b935093505050613ffb565b506000905060025b9250929050565b60008160048111156140165761401661519f565b141561401f5750565b60018160048111156140335761403361519f565b14156140815760405162461bcd60e51b815260206004820152601860248201527f45434453413a20696e76616c6964207369676e617475726500000000000000006044820152606401610b06565b60028160048111156140955761409561519f565b14156140e35760405162461bcd60e51b815260206004820152601f60248201527f45434453413a20696e76616c6964207369676e6174757265206c656e677468006044820152606401610b06565b60038160048111156140f7576140f761519f565b14156141505760405162461bcd60e51b815260206004820152602260248201527f45434453413a20696e76616c6964207369676e6174757265202773272076616c604482015261756560f01b6064820152608401610b06565b60048160048111156141645761416461519f565b141561115d5760405162461bcd60e51b815260206004820152602260248201527f45434453413a20696e76616c6964207369676e6174757265202776272076616c604482015261756560f01b6064820152608401610b06565b6000807f7fffffffffffffffffffffffffffffff5d576e7357a4501ddfe92f46681b20a08311156141f457506000905060036142a1565b8460ff16601b1415801561420c57508460ff16601c14155b1561421d57506000905060046142a1565b6040805160008082526020820180845289905260ff881692820192909252606081018690526080810185905260019060a0016020604051602081039080840390855afa158015614271573d6000803e3d6000fd5b5050604051601f1901519150506001600160a01b03811661429a576000600192509250506142a1565b9150600090505b94509492505050565b6000806001600160ff1b03831660ff84901c601b016142cb878288856141bd565b935093505050935093915050565b8280546142e59061514e565b90600052602060002090601f016020900481019282614307576000855561434d565b82601f1061432057805160ff191683800117855561434d565b8280016001018555821561434d579182015b8281111561434d578251825591602001919060010190614332565b5061435992915061435d565b5090565b5b80821115614359576000815560010161435e565b803561437d816151f7565b919050565b600082601f83011261439357600080fd5b81356001600160401b03808211156143ad576143ad6151e1565b604051601f8301601f19908116603f011681019082821181831017156143d5576143d56151e1565b816040528381528660208588010111156143ee57600080fd5b836020870160208301376000602085830101528094505050505092915050565b60006040828403121561442057600080fd5b614428614f3f565b905081356001600160401b038082111561444157600080fd5b61444d85838601614382565b8352602084013591508082111561446357600080fd5b5061447084828501614382565b60208301525092915050565b6000610160828403121561448f57600080fd5b614497614f67565b905081356001600160401b03808211156144b057600080fd5b6144bc85838601614382565b83526144ca60208501614372565b602084015260408401359150808211156144e357600080fd5b6144ef85838601614382565b6040840152606084013591508082111561450857600080fd5b61451485838601614382565b6060840152608084013591508082111561452d57600080fd5b61453985838601614382565b608084015260a084013591508082111561455257600080fd5b5061455f84828501614382565b60a08301525061457160c08301614751565b60c082015260e082013560e082015261010080830135818301525061012080830135818301525061014080830135818301525092915050565b6000604082840312156145bc57600080fd5b6145c4614f3f565b905081356001600160401b038111156145dc57600080fd5b6145e884828501614382565b82525060208201356145f9816151f7565b602082015292915050565b6000610100828403121561461757600080fd5b61461f614f8a565b905081356001600160401b038082111561463857600080fd5b61464485838601614382565b8352602084013591508082111561465a57600080fd5b61466685838601614382565b6020840152604084013591508082111561467f57600080fd5b61468b85838601614382565b604084015260608401359150808211156146a457600080fd5b6146b0858386016145aa565b606084015260808401359150808211156146c957600080fd5b6146d58583860161447c565b608084015260a08401359150808211156146ee57600080fd5b6146fa8583860161440e565b60a084015260c084013591508082111561471357600080fd5b61471f85838601614382565b60c084015260e084013591508082111561473857600080fd5b5061474584828501614382565b60e08301525092915050565b803560ff8116811461437d57600080fd5b60006020828403121561477457600080fd5b8135610c09816151f7565b6000806040838503121561479257600080fd5b823561479d816151f7565b946020939093013593505050565b600080604083850312156147be57600080fd5b82356147c9816151f7565b915060208301356147d9816151f7565b809150509250929050565b6000806000606084860312156147f957600080fd5b8335614804816151f7565b92506020840135614814816151f7565b929592945050506040919091013590565b6000806040838503121561483857600080fd5b8235614843816151f7565b915060208301356001600160401b0381111561485e57600080fd5b61486a85828601614382565b9150509250929050565b60006020828403121561488657600080fd5b5035919050565b600080604083850312156148a057600080fd5b8235915060208301356147d9816151f7565b600080604083850312156148c557600080fd5b50508035926020909101359150565b6000602082840312156148e657600080fd5b81356001600160e01b031981168114610c0957600080fd5b60006020828403121561491057600080fd5b81356001600160401b0381111561492657600080fd5b61493284828501614604565b949350505050565b6000806040838503121561494d57600080fd5b82356001600160401b038082111561496457600080fd5b61497086838701614604565b9350602085013591508082111561498657600080fd5b5061486a85828601614382565b600080604083850312156149a657600080fd5b82356001600160401b03808211156149bd57600080fd5b6149c986838701614604565b935060208501359150808211156149df57600080fd5b5061486a85828601614604565b60008151808452614a0481602086016020860161510b565b601f01601f19169290920160200192915050565b6000815160408452614a2d60408501826149ec565b90506020830151848203602086015261321482826149ec565b60006101608251818552614a5c828601826149ec565b9150506020830151614a7960208601826001600160a01b03169052565b5060408301518482036040860152614a9182826149ec565b91505060608301518482036060860152614aab82826149ec565b91505060808301518482036080860152614ac582826149ec565b91505060a083015184820360a0860152614adf82826149ec565b91505060c0830151614af660c086018260ff169052565b5060e08381015190850152610100808401519085015261012080840151908501526101409283015192909301919091525090565b6000815160408452614b3f60408501826149ec565b6020938401516001600160a01b0316949093019390935250919050565b60008251614b6e81846020870161510b565b9190910192915050565b7f416363657373436f6e74726f6c3a206163636f756e7420000000000000000000815260008351614bb081601785016020880161510b565b7001034b99036b4b9b9b4b733903937b6329607d1b6017918401918201528351614be181602884016020880161510b565b01602801949350505050565b82815260406020820152600061493260408301846149ec565b8281526040602082015260008251610100806040850152614c2b6101408501836149ec565b91506020850151603f1980868503016060870152614c4984836149ec565b93506040870151915080868503016080870152614c6684836149ec565b935060608701519150808685030160a0870152614c838483614b2a565b935060808701519150808685030160c0870152614ca08483614a46565b935060a08701519150808685030160e0870152614cbd8483614a18565b935060c08701519150808685030183870152614cd984836149ec565b935060e0870151925080868503016101208701525050614cf982826149ec565b9695505050505050565b6040810160068410614d2557634e487b7160e01b600052602160045260246000fd5b9281526020015290565b602081526000610c0960208301846149ec565b6020808252603490820152600080516020615274833981519152604082015273746f206368616e6765206d696e42616c616e636560601b606082015260800190565b6020808252602b908201527f4b5242546f6b656e3a2073656e646572206d757374206265207468652069737360408201526a756572206164647265737360a81b606082015260800190565b6020808252602c908201527f46756e6374696f6e206d7573742062652063616c6c6564207468726f7567682060408201526b19195b1959d85d1958d85b1b60a21b606082015260800190565b6020808252602c908201527f46756e6374696f6e206d7573742062652063616c6c6564207468726f7567682060408201526b6163746976652070726f787960a01b606082015260800190565b6020808252601d908201527f4b5242546f6b656e3a207374617465206973206e6f7420497373756564000000604082015260600190565b60208082526036908201527f4b5242546f6b656e3a2073656e646572206d757374206265207468652063726560408201527564656e7469616c5375626a656374206164647265737360501b606082015260800190565b6020808252602b908201527f496e697469616c697a61626c653a20636f6e7472616374206973206e6f74206960408201526a6e697469616c697a696e6760a81b606082015260800190565b604080519081016001600160401b0381118282101715614f6157614f616151e1565b60405290565b60405161016081016001600160401b0381118282101715614f6157614f616151e1565b60405161010081016001600160401b0381118282101715614f6157614f616151e1565b60008219821115614fc057614fc0615189565b500190565b600082614fe257634e487b7160e01b600052601260045260246000fd5b500490565b600181815b8085111561502257816000190482111561500857615008615189565b8085161561501557918102915b93841c9390800290614fec565b509250929050565b6000610c0960ff84168360008261504357506001610a24565b8161505057506000610a24565b816001811461506657600281146150705761508c565b6001915050610a24565b60ff84111561508157615081615189565b50506001821b610a24565b5060208310610133831016604e8410600b84101617156150af575081810a610a24565b6150b98383614fe7565b80600019048211156150cd576150cd615189565b029392505050565b60008160001904831182151516156150ef576150ef615189565b500290565b60008282101561510657615106615189565b500390565b60005b8381101561512657818101518382015260200161510e565b838111156121655750506000910152565b60008161514657615146615189565b506000190190565b600181811c9082168061516257607f821691505b6020821081141561518357634e487b7160e01b600052602260045260246000fd5b50919050565b634e487b7160e01b600052601160045260246000fd5b634e487b7160e01b600052602160045260246000fd5b634e487b7160e01b600052603160045260246000fd5b634e487b7160e01b600052603260045260246000fd5b634e487b7160e01b600052604160045260246000fd5b6001600160a01b038116811461115d57600080fdfe221d3d4161ff7c815e25a84cf3c2ec04f54111bee80f0b06d345c834581c9da3899bd46557473cb80307a9dabc297131ced39608330a2d29b2d52b660c03923e416464726573733a206c6f772d6c6576656c2064656c65676174652063616c6c206661696c65644b5242546f6b656e3a206d757374206861766520676f7665726e20726f6c6520a2646970667358221220222b43cc4b6b0597de25fbafe01b4ba0bbd14e4bb89c030c1ba753b5cd8f374864736f6c63430008070033",
  "linkReferences": {},
  "deployedLinkReferences": {}
}