{
  "_format": "hh-sol-artifact-1",
  "contractName": "KRBTokenV01",
  "sourceName": "contracts/KRBTokenV01.sol",
  "abi": [
    {
      "inputs": [],
      "stateMutability": "nonpayable",
      "type": "constructor"
    },
    {
      "anonymous": false,
      "inputs": [
        {
          "indexed": false,
          "internalType": "address",
          "name": "previousAdmin",
          "type": "address"
        },
        {
          "indexed": false,
          "internalType": "address",
          "name": "newAdmin",
          "type": "address"
        }
      ],
      "name": "AdminChanged",
      "type": "event"
    },
    {
      "anonymous": false,
      "inputs": [
        {
          "indexed": true,
          "internalType": "address",
          "name": "owner",
          "type": "address"
        },
        {
          "indexed": true,
          "internalType": "address",
          "name": "spender",
          "type": "address"
        },
        {
          "indexed": false,
          "internalType": "uint256",
          "name": "value",
          "type": "uint256"
        }
      ],
      "name": "Approval",
      "type": "event"
    },
    {
      "anonymous": false,
      "inputs": [
        {
          "indexed": true,
          "internalType": "address",
          "name": "beacon",
          "type": "address"
        }
      ],
      "name": "BeaconUpgraded",
      "type": "event"
    },
    {
      "anonymous": false,
      "inputs": [
        {
          "indexed": false,
          "internalType": "bytes32",
          "name": "uuid",
          "type": "bytes32"
        },
        {
          "indexed": false,
          "internalType": "string",
          "name": "reason",
          "type": "string"
        }
      ],
      "name": "Deleted",
      "type": "event"
    },
    {
      "anonymous": false,
      "inputs": [
        {
          "indexed": false,
          "internalType": "bytes32",
          "name": "uuid",
          "type": "bytes32"
        },
        {
          "indexed": false,
          "internalType": "bytes32",
          "name": "disputedBy",
          "type": "bytes32"
        }
      ],
      "name": "Disputed",
      "type": "event"
    },
    {
      "anonymous": false,
      "inputs": [
        {
          "indexed": false,
          "internalType": "bytes32",
          "name": "uuid",
          "type": "bytes32"
        }
      ],
      "name": "Expired",
      "type": "event"
    },
    {
      "anonymous": false,
      "inputs": [
        {
          "indexed": false,
          "internalType": "bytes32",
          "name": "uuid",
          "type": "bytes32"
        },
        {
          "components": [
            {
              "internalType": "string",
              "name": "_context",
              "type": "string"
            },
            {
              "internalType": "string",
              "name": "_type",
              "type": "string"
            },
            {
              "internalType": "string",
              "name": "id",
              "type": "string"
            },
            {
              "components": [
                {
                  "internalType": "string",
                  "name": "id",
                  "type": "string"
                },
                {
                  "internalType": "address",
                  "name": "ethereumAddress",
                  "type": "address"
                }
              ],
              "internalType": "struct VCTypesV01.Issuer",
              "name": "issuer",
              "type": "tuple"
            },
            {
              "components": [
                {
                  "internalType": "string",
                  "name": "id",
                  "type": "string"
                },
                {
                  "internalType": "address",
                  "name": "ethereumAddress",
                  "type": "address"
                },
                {
                  "internalType": "string",
                  "name": "_type",
                  "type": "string"
                },
                {
                  "internalType": "string",
                  "name": "typeSchema",
                  "type": "string"
                },
                {
                  "internalType": "string",
                  "name": "value",
                  "type": "string"
                },
                {
                  "internalType": "string",
                  "name": "encrypted",
                  "type": "string"
                },
                {
                  "internalType": "uint8",
                  "name": "trust",
                  "type": "uint8"
                },
                {
                  "internalType": "uint256",
                  "name": "stake",
                  "type": "uint256"
                },
                {
                  "internalType": "uint256",
                  "name": "price",
                  "type": "uint256"
                },
                {
                  "internalType": "uint256",
                  "name": "nbf",
                  "type": "uint256"
                },
                {
                  "internalType": "uint256",
                  "name": "exp",
                  "type": "uint256"
                }
              ],
              "internalType": "struct VCTypesV01.CredentialSubject",
              "name": "credentialSubject",
              "type": "tuple"
            },
            {
              "components": [
                {
                  "internalType": "string",
                  "name": "id",
                  "type": "string"
                },
                {
                  "internalType": "string",
                  "name": "_type",
                  "type": "string"
                }
              ],
              "internalType": "struct VCTypesV01.CredentialSchema",
              "name": "credentialSchema",
              "type": "tuple"
            },
            {
              "internalType": "string",
              "name": "issuanceDate",
              "type": "string"
            },
            {
              "internalType": "string",
              "name": "expirationDate",
              "type": "string"
            }
          ],
          "indexed": false,
          "internalType": "struct VCTypesV01.VerifiableCredential",
          "name": "vc",
          "type": "tuple"
        }
      ],
      "name": "Issued",
      "type": "event"
    },
    {
      "anonymous": false,
      "inputs": [
        {
          "indexed": false,
          "internalType": "address",
          "name": "account",
          "type": "address"
        }
      ],
      "name": "Paused",
      "type": "event"
    },
    {
      "anonymous": false,
      "inputs": [
        {
          "indexed": false,
          "internalType": "bytes32",
          "name": "uuid",
          "type": "bytes32"
        },
        {
          "indexed": false,
          "internalType": "string",
          "name": "reason",
          "type": "string"
        }
      ],
      "name": "Revoked",
      "type": "event"
    },
    {
      "anonymous": false,
      "inputs": [
        {
          "indexed": true,
          "internalType": "bytes32",
          "name": "role",
          "type": "bytes32"
        },
        {
          "indexed": true,
          "internalType": "bytes32",
          "name": "previousAdminRole",
          "type": "bytes32"
        },
        {
          "indexed": true,
          "internalType": "bytes32",
          "name": "newAdminRole",
          "type": "bytes32"
        }
      ],
      "name": "RoleAdminChanged",
      "type": "event"
    },
    {
      "anonymous": false,
      "inputs": [
        {
          "indexed": true,
          "internalType": "bytes32",
          "name": "role",
          "type": "bytes32"
        },
        {
          "indexed": true,
          "internalType": "address",
          "name": "account",
          "type": "address"
        },
        {
          "indexed": true,
          "internalType": "address",
          "name": "sender",
          "type": "address"
        }
      ],
      "name": "RoleGranted",
      "type": "event"
    },
    {
      "anonymous": false,
      "inputs": [
        {
          "indexed": true,
          "internalType": "bytes32",
          "name": "role",
          "type": "bytes32"
        },
        {
          "indexed": true,
          "internalType": "address",
          "name": "account",
          "type": "address"
        },
        {
          "indexed": true,
          "internalType": "address",
          "name": "sender",
          "type": "address"
        }
      ],
      "name": "RoleRevoked",
      "type": "event"
    },
    {
      "anonymous": false,
      "inputs": [
        {
          "indexed": true,
          "internalType": "address",
          "name": "from",
          "type": "address"
        },
        {
          "indexed": true,
          "internalType": "address",
          "name": "to",
          "type": "address"
        },
        {
          "indexed": false,
          "internalType": "uint256",
          "name": "value",
          "type": "uint256"
        }
      ],
      "name": "Staked",
      "type": "event"
    },
    {
      "anonymous": false,
      "inputs": [
        {
          "indexed": false,
          "internalType": "bytes32",
          "name": "uuid",
          "type": "bytes32"
        },
        {
          "indexed": false,
          "internalType": "string",
          "name": "reason",
          "type": "string"
        }
      ],
      "name": "Suspended",
      "type": "event"
    },
    {
      "anonymous": false,
      "inputs": [
        {
          "indexed": true,
          "internalType": "address",
          "name": "from",
          "type": "address"
        },
        {
          "indexed": true,
          "internalType": "address",
          "name": "to",
          "type": "address"
        },
        {
          "indexed": false,
          "internalType": "uint256",
          "name": "value",
          "type": "uint256"
        }
      ],
      "name": "Transfer",
      "type": "event"
    },
    {
      "anonymous": false,
      "inputs": [
        {
          "indexed": false,
          "internalType": "address",
          "name": "account",
          "type": "address"
        }
      ],
      "name": "Unpaused",
      "type": "event"
    },
    {
      "anonymous": false,
      "inputs": [
        {
          "indexed": false,
          "internalType": "string",
          "name": "change",
          "type": "string"
        }
      ],
      "name": "Updated",
      "type": "event"
    },
    {
      "anonymous": false,
      "inputs": [
        {
          "indexed": true,
          "internalType": "address",
          "name": "implementation",
          "type": "address"
        }
      ],
      "name": "Upgraded",
      "type": "event"
    },
    {
      "inputs": [],
      "name": "DEFAULT_ADMIN_ROLE",
      "outputs": [
        {
          "internalType": "bytes32",
          "name": "",
          "type": "bytes32"
        }
      ],
      "stateMutability": "view",
      "type": "function"
    },
    {
      "inputs": [],
      "name": "DOMAIN_SEPARATOR",
      "outputs": [
        {
          "internalType": "bytes32",
          "name": "",
          "type": "bytes32"
        }
      ],
      "stateMutability": "view",
      "type": "function"
    },
    {
      "inputs": [],
      "name": "GOVERN_ROLE",
      "outputs": [
        {
          "internalType": "bytes32",
          "name": "",
          "type": "bytes32"
        }
      ],
      "stateMutability": "view",
      "type": "function"
    },
    {
      "inputs": [
        {
          "internalType": "address",
          "name": "owner",
          "type": "address"
        },
        {
          "internalType": "address",
          "name": "spender",
          "type": "address"
        }
      ],
      "name": "allowance",
      "outputs": [
        {
          "internalType": "uint256",
          "name": "",
          "type": "uint256"
        }
      ],
      "stateMutability": "view",
      "type": "function"
    },
    {
      "inputs": [
        {
          "internalType": "address",
          "name": "spender",
          "type": "address"
        },
        {
          "internalType": "uint256",
          "name": "amount",
          "type": "uint256"
        }
      ],
      "name": "approve",
      "outputs": [
        {
          "internalType": "bool",
          "name": "",
          "type": "bool"
        }
      ],
      "stateMutability": "nonpayable",
      "type": "function"
    },
    {
      "inputs": [
        {
          "internalType": "address",
          "name": "account",
          "type": "address"
        }
      ],
      "name": "balanceOf",
      "outputs": [
        {
          "internalType": "uint256",
          "name": "",
          "type": "uint256"
        }
      ],
      "stateMutability": "view",
      "type": "function"
    },
    {
      "inputs": [
        {
          "internalType": "uint256",
          "name": "amount",
          "type": "uint256"
        }
      ],
      "name": "burn",
      "outputs": [],
      "stateMutability": "nonpayable",
      "type": "function"
    },
    {
      "inputs": [
        {
          "internalType": "address",
          "name": "account",
          "type": "address"
        },
        {
          "internalType": "uint256",
          "name": "amount",
          "type": "uint256"
        }
      ],
      "name": "burnFrom",
      "outputs": [],
      "stateMutability": "nonpayable",
      "type": "function"
    },
    {
      "inputs": [
        {
          "internalType": "address",
          "name": "issuer",
          "type": "address"
        },
        {
          "internalType": "uint256",
          "name": "stake",
          "type": "uint256"
        }
      ],
      "name": "burnStake",
      "outputs": [],
      "stateMutability": "nonpayable",
      "type": "function"
    },
    {
      "inputs": [],
      "name": "decimals",
      "outputs": [
        {
          "internalType": "uint8",
          "name": "",
          "type": "uint8"
        }
      ],
      "stateMutability": "view",
      "type": "function"
    },
    {
      "inputs": [
        {
          "internalType": "address",
          "name": "spender",
          "type": "address"
        },
        {
          "internalType": "uint256",
          "name": "subtractedValue",
          "type": "uint256"
        }
      ],
      "name": "decreaseAllowance",
      "outputs": [
        {
          "internalType": "bool",
          "name": "",
          "type": "bool"
        }
      ],
      "stateMutability": "nonpayable",
      "type": "function"
    },
    {
      "inputs": [
        {
          "components": [
            {
              "internalType": "string",
              "name": "_context",
              "type": "string"
            },
            {
              "internalType": "string",
              "name": "_type",
              "type": "string"
            },
            {
              "internalType": "string",
              "name": "id",
              "type": "string"
            },
            {
              "components": [
                {
                  "internalType": "string",
                  "name": "id",
                  "type": "string"
                },
                {
                  "internalType": "address",
                  "name": "ethereumAddress",
                  "type": "address"
                }
              ],
              "internalType": "struct VCTypesV01.Issuer",
              "name": "issuer",
              "type": "tuple"
            },
            {
              "components": [
                {
                  "internalType": "string",
                  "name": "id",
                  "type": "string"
                },
                {
                  "internalType": "address",
                  "name": "ethereumAddress",
                  "type": "address"
                },
                {
                  "internalType": "string",
                  "name": "_type",
                  "type": "string"
                },
                {
                  "internalType": "string",
                  "name": "typeSchema",
                  "type": "string"
                },
                {
                  "internalType": "string",
                  "name": "value",
                  "type": "string"
                },
                {
                  "internalType": "string",
                  "name": "encrypted",
                  "type": "string"
                },
                {
                  "internalType": "uint8",
                  "name": "trust",
                  "type": "uint8"
                },
                {
                  "internalType": "uint256",
                  "name": "stake",
                  "type": "uint256"
                },
                {
                  "internalType": "uint256",
                  "name": "price",
                  "type": "uint256"
                },
                {
                  "internalType": "uint256",
                  "name": "nbf",
                  "type": "uint256"
                },
                {
                  "internalType": "uint256",
                  "name": "exp",
                  "type": "uint256"
                }
              ],
              "internalType": "struct VCTypesV01.CredentialSubject",
              "name": "credentialSubject",
              "type": "tuple"
            },
            {
              "components": [
                {
                  "internalType": "string",
                  "name": "id",
                  "type": "string"
                },
                {
                  "internalType": "string",
                  "name": "_type",
                  "type": "string"
                }
              ],
              "internalType": "struct VCTypesV01.CredentialSchema",
              "name": "credentialSchema",
              "type": "tuple"
            },
            {
              "internalType": "string",
              "name": "issuanceDate",
              "type": "string"
            },
            {
              "internalType": "string",
              "name": "expirationDate",
              "type": "string"
            }
          ],
          "internalType": "struct VCTypesV01.VerifiableCredential",
          "name": "vc",
          "type": "tuple"
        },
        {
          "internalType": "string",
          "name": "reason",
          "type": "string"
        }
      ],
      "name": "deleteVC",
      "outputs": [
        {
          "internalType": "bool",
          "name": "",
          "type": "bool"
        }
      ],
      "stateMutability": "nonpayable",
      "type": "function"
    },
    {
      "inputs": [
        {
          "components": [
            {
              "internalType": "string",
              "name": "_context",
              "type": "string"
            },
            {
              "internalType": "string",
              "name": "_type",
              "type": "string"
            },
            {
              "internalType": "string",
              "name": "id",
              "type": "string"
            },
            {
              "components": [
                {
                  "internalType": "string",
                  "name": "id",
                  "type": "string"
                },
                {
                  "internalType": "address",
                  "name": "ethereumAddress",
                  "type": "address"
                }
              ],
              "internalType": "struct VCTypesV01.Issuer",
              "name": "issuer",
              "type": "tuple"
            },
            {
              "components": [
                {
                  "internalType": "string",
                  "name": "id",
                  "type": "string"
                },
                {
                  "internalType": "address",
                  "name": "ethereumAddress",
                  "type": "address"
                },
                {
                  "internalType": "string",
                  "name": "_type",
                  "type": "string"
                },
                {
                  "internalType": "string",
                  "name": "typeSchema",
                  "type": "string"
                },
                {
                  "internalType": "string",
                  "name": "value",
                  "type": "string"
                },
                {
                  "internalType": "string",
                  "name": "encrypted",
                  "type": "string"
                },
                {
                  "internalType": "uint8",
                  "name": "trust",
                  "type": "uint8"
                },
                {
                  "internalType": "uint256",
                  "name": "stake",
                  "type": "uint256"
                },
                {
                  "internalType": "uint256",
                  "name": "price",
                  "type": "uint256"
                },
                {
                  "internalType": "uint256",
                  "name": "nbf",
                  "type": "uint256"
                },
                {
                  "internalType": "uint256",
                  "name": "exp",
                  "type": "uint256"
                }
              ],
              "internalType": "struct VCTypesV01.CredentialSubject",
              "name": "credentialSubject",
              "type": "tuple"
            },
            {
              "components": [
                {
                  "internalType": "string",
                  "name": "id",
                  "type": "string"
                },
                {
                  "internalType": "string",
                  "name": "_type",
                  "type": "string"
                }
              ],
              "internalType": "struct VCTypesV01.CredentialSchema",
              "name": "credentialSchema",
              "type": "tuple"
            },
            {
              "internalType": "string",
              "name": "issuanceDate",
              "type": "string"
            },
            {
              "internalType": "string",
              "name": "expirationDate",
              "type": "string"
            }
          ],
          "internalType": "struct VCTypesV01.VerifiableCredential",
          "name": "vc",
          "type": "tuple"
        },
        {
          "components": [
            {
              "internalType": "string",
              "name": "_context",
              "type": "string"
            },
            {
              "internalType": "string",
              "name": "_type",
              "type": "string"
            },
            {
              "internalType": "string",
              "name": "id",
              "type": "string"
            },
            {
              "components": [
                {
                  "internalType": "string",
                  "name": "id",
                  "type": "string"
                },
                {
                  "internalType": "address",
                  "name": "ethereumAddress",
                  "type": "address"
                }
              ],
              "internalType": "struct VCTypesV01.Issuer",
              "name": "issuer",
              "type": "tuple"
            },
            {
              "components": [
                {
                  "internalType": "string",
                  "name": "id",
                  "type": "string"
                },
                {
                  "internalType": "address",
                  "name": "ethereumAddress",
                  "type": "address"
                },
                {
                  "internalType": "string",
                  "name": "_type",
                  "type": "string"
                },
                {
                  "internalType": "string",
                  "name": "typeSchema",
                  "type": "string"
                },
                {
                  "internalType": "string",
                  "name": "value",
                  "type": "string"
                },
                {
                  "internalType": "string",
                  "name": "encrypted",
                  "type": "string"
                },
                {
                  "internalType": "uint8",
                  "name": "trust",
                  "type": "uint8"
                },
                {
                  "internalType": "uint256",
                  "name": "stake",
                  "type": "uint256"
                },
                {
                  "internalType": "uint256",
                  "name": "price",
                  "type": "uint256"
                },
                {
                  "internalType": "uint256",
                  "name": "nbf",
                  "type": "uint256"
                },
                {
                  "internalType": "uint256",
                  "name": "exp",
                  "type": "uint256"
                }
              ],
              "internalType": "struct VCTypesV01.CredentialSubject",
              "name": "credentialSubject",
              "type": "tuple"
            },
            {
              "components": [
                {
                  "internalType": "string",
                  "name": "id",
                  "type": "string"
                },
                {
                  "internalType": "string",
                  "name": "_type",
                  "type": "string"
                }
              ],
              "internalType": "struct VCTypesV01.CredentialSchema",
              "name": "credentialSchema",
              "type": "tuple"
            },
            {
              "internalType": "string",
              "name": "issuanceDate",
              "type": "string"
            },
            {
              "internalType": "string",
              "name": "expirationDate",
              "type": "string"
            }
          ],
          "internalType": "struct VCTypesV01.VerifiableCredential",
          "name": "disputeVC",
          "type": "tuple"
        }
      ],
      "name": "disputeVCByGovern",
      "outputs": [
        {
          "internalType": "bool",
          "name": "",
          "type": "bool"
        }
      ],
      "stateMutability": "nonpayable",
      "type": "function"
    },
    {
      "inputs": [
        {
          "components": [
            {
              "internalType": "string",
              "name": "_context",
              "type": "string"
            },
            {
              "internalType": "string",
              "name": "_type",
              "type": "string"
            },
            {
              "internalType": "string",
              "name": "id",
              "type": "string"
            },
            {
              "components": [
                {
                  "internalType": "string",
                  "name": "id",
                  "type": "string"
                },
                {
                  "internalType": "address",
                  "name": "ethereumAddress",
                  "type": "address"
                }
              ],
              "internalType": "struct VCTypesV01.Issuer",
              "name": "issuer",
              "type": "tuple"
            },
            {
              "components": [
                {
                  "internalType": "string",
                  "name": "id",
                  "type": "string"
                },
                {
                  "internalType": "address",
                  "name": "ethereumAddress",
                  "type": "address"
                },
                {
                  "internalType": "string",
                  "name": "_type",
                  "type": "string"
                },
                {
                  "internalType": "string",
                  "name": "typeSchema",
                  "type": "string"
                },
                {
                  "internalType": "string",
                  "name": "value",
                  "type": "string"
                },
                {
                  "internalType": "string",
                  "name": "encrypted",
                  "type": "string"
                },
                {
                  "internalType": "uint8",
                  "name": "trust",
                  "type": "uint8"
                },
                {
                  "internalType": "uint256",
                  "name": "stake",
                  "type": "uint256"
                },
                {
                  "internalType": "uint256",
                  "name": "price",
                  "type": "uint256"
                },
                {
                  "internalType": "uint256",
                  "name": "nbf",
                  "type": "uint256"
                },
                {
                  "internalType": "uint256",
                  "name": "exp",
                  "type": "uint256"
                }
              ],
              "internalType": "struct VCTypesV01.CredentialSubject",
              "name": "credentialSubject",
              "type": "tuple"
            },
            {
              "components": [
                {
                  "internalType": "string",
                  "name": "id",
                  "type": "string"
                },
                {
                  "internalType": "string",
                  "name": "_type",
                  "type": "string"
                }
              ],
              "internalType": "struct VCTypesV01.CredentialSchema",
              "name": "credentialSchema",
              "type": "tuple"
            },
            {
              "internalType": "string",
              "name": "issuanceDate",
              "type": "string"
            },
            {
              "internalType": "string",
              "name": "expirationDate",
              "type": "string"
            }
          ],
          "internalType": "struct VCTypesV01.VerifiableCredential",
          "name": "vc",
          "type": "tuple"
        }
      ],
      "name": "expiredVC",
      "outputs": [
        {
          "internalType": "bool",
          "name": "",
          "type": "bool"
        }
      ],
      "stateMutability": "nonpayable",
      "type": "function"
    },
    {
      "inputs": [],
      "name": "feePercentage",
      "outputs": [
        {
          "internalType": "uint256",
          "name": "",
          "type": "uint256"
        }
      ],
      "stateMutability": "view",
      "type": "function"
    },
    {
      "inputs": [],
      "name": "feesAvailableForWithdraw",
      "outputs": [
        {
          "internalType": "uint256",
          "name": "",
          "type": "uint256"
        }
      ],
      "stateMutability": "view",
      "type": "function"
    },
    {
      "inputs": [
        {
          "internalType": "bytes32",
          "name": "role",
          "type": "bytes32"
        }
      ],
      "name": "getRoleAdmin",
      "outputs": [
        {
          "internalType": "bytes32",
          "name": "",
          "type": "bytes32"
        }
      ],
      "stateMutability": "view",
      "type": "function"
    },
    {
      "inputs": [
        {
          "internalType": "bytes32",
          "name": "role",
          "type": "bytes32"
        },
        {
          "internalType": "uint256",
          "name": "index",
          "type": "uint256"
        }
      ],
      "name": "getRoleMember",
      "outputs": [
        {
          "internalType": "address",
          "name": "",
          "type": "address"
        }
      ],
      "stateMutability": "view",
      "type": "function"
    },
    {
      "inputs": [
        {
          "internalType": "bytes32",
          "name": "role",
          "type": "bytes32"
        }
      ],
      "name": "getRoleMemberCount",
      "outputs": [
        {
          "internalType": "uint256",
          "name": "",
          "type": "uint256"
        }
      ],
      "stateMutability": "view",
      "type": "function"
    },
    {
      "inputs": [
        {
          "components": [
            {
              "internalType": "string",
              "name": "_context",
              "type": "string"
            },
            {
              "internalType": "string",
              "name": "_type",
              "type": "string"
            },
            {
              "internalType": "string",
              "name": "id",
              "type": "string"
            },
            {
              "components": [
                {
                  "internalType": "string",
                  "name": "id",
                  "type": "string"
                },
                {
                  "internalType": "address",
                  "name": "ethereumAddress",
                  "type": "address"
                }
              ],
              "internalType": "struct VCTypesV01.Issuer",
              "name": "issuer",
              "type": "tuple"
            },
            {
              "components": [
                {
                  "internalType": "string",
                  "name": "id",
                  "type": "string"
                },
                {
                  "internalType": "address",
                  "name": "ethereumAddress",
                  "type": "address"
                },
                {
                  "internalType": "string",
                  "name": "_type",
                  "type": "string"
                },
                {
                  "internalType": "string",
                  "name": "typeSchema",
                  "type": "string"
                },
                {
                  "internalType": "string",
                  "name": "value",
                  "type": "string"
                },
                {
                  "internalType": "string",
                  "name": "encrypted",
                  "type": "string"
                },
                {
                  "internalType": "uint8",
                  "name": "trust",
                  "type": "uint8"
                },
                {
                  "internalType": "uint256",
                  "name": "stake",
                  "type": "uint256"
                },
                {
                  "internalType": "uint256",
                  "name": "price",
                  "type": "uint256"
                },
                {
                  "internalType": "uint256",
                  "name": "nbf",
                  "type": "uint256"
                },
                {
                  "internalType": "uint256",
                  "name": "exp",
                  "type": "uint256"
                }
              ],
              "internalType": "struct VCTypesV01.CredentialSubject",
              "name": "credentialSubject",
              "type": "tuple"
            },
            {
              "components": [
                {
                  "internalType": "string",
                  "name": "id",
                  "type": "string"
                },
                {
                  "internalType": "string",
                  "name": "_type",
                  "type": "string"
                }
              ],
              "internalType": "struct VCTypesV01.CredentialSchema",
              "name": "credentialSchema",
              "type": "tuple"
            },
            {
              "internalType": "string",
              "name": "issuanceDate",
              "type": "string"
            },
            {
              "internalType": "string",
              "name": "expirationDate",
              "type": "string"
            }
          ],
          "internalType": "struct VCTypesV01.VerifiableCredential",
          "name": "vc",
          "type": "tuple"
        }
      ],
      "name": "getUuid",
      "outputs": [
        {
          "internalType": "bytes32",
          "name": "",
          "type": "bytes32"
        }
      ],
      "stateMutability": "pure",
      "type": "function"
    },
    {
      "inputs": [
        {
          "components": [
            {
              "internalType": "string",
              "name": "_context",
              "type": "string"
            },
            {
              "internalType": "string",
              "name": "_type",
              "type": "string"
            },
            {
              "internalType": "string",
              "name": "id",
              "type": "string"
            },
            {
              "components": [
                {
                  "internalType": "string",
                  "name": "id",
                  "type": "string"
                },
                {
                  "internalType": "address",
                  "name": "ethereumAddress",
                  "type": "address"
                }
              ],
              "internalType": "struct VCTypesV01.Issuer",
              "name": "issuer",
              "type": "tuple"
            },
            {
              "components": [
                {
                  "internalType": "string",
                  "name": "id",
                  "type": "string"
                },
                {
                  "internalType": "address",
                  "name": "ethereumAddress",
                  "type": "address"
                },
                {
                  "internalType": "string",
                  "name": "_type",
                  "type": "string"
                },
                {
                  "internalType": "string",
                  "name": "typeSchema",
                  "type": "string"
                },
                {
                  "internalType": "string",
                  "name": "value",
                  "type": "string"
                },
                {
                  "internalType": "string",
                  "name": "encrypted",
                  "type": "string"
                },
                {
                  "internalType": "uint8",
                  "name": "trust",
                  "type": "uint8"
                },
                {
                  "internalType": "uint256",
                  "name": "stake",
                  "type": "uint256"
                },
                {
                  "internalType": "uint256",
                  "name": "price",
                  "type": "uint256"
                },
                {
                  "internalType": "uint256",
                  "name": "nbf",
                  "type": "uint256"
                },
                {
                  "internalType": "uint256",
                  "name": "exp",
                  "type": "uint256"
                }
              ],
              "internalType": "struct VCTypesV01.CredentialSubject",
              "name": "credentialSubject",
              "type": "tuple"
            },
            {
              "components": [
                {
                  "internalType": "string",
                  "name": "id",
                  "type": "string"
                },
                {
                  "internalType": "string",
                  "name": "_type",
                  "type": "string"
                }
              ],
              "internalType": "struct VCTypesV01.CredentialSchema",
              "name": "credentialSchema",
              "type": "tuple"
            },
            {
              "internalType": "string",
              "name": "issuanceDate",
              "type": "string"
            },
            {
              "internalType": "string",
              "name": "expirationDate",
              "type": "string"
            }
          ],
          "internalType": "struct VCTypesV01.VerifiableCredential",
          "name": "vc",
          "type": "tuple"
        }
      ],
      "name": "getVCStatus",
      "outputs": [
        {
          "internalType": "string",
          "name": "",
          "type": "string"
        }
      ],
      "stateMutability": "view",
      "type": "function"
    },
    {
      "inputs": [
        {
          "internalType": "bytes32",
          "name": "uuid",
          "type": "bytes32"
        }
      ],
      "name": "getVCStatusByUUid",
      "outputs": [
        {
          "internalType": "string",
          "name": "",
          "type": "string"
        }
      ],
      "stateMutability": "view",
      "type": "function"
    },
    {
      "inputs": [
        {
          "internalType": "bytes32",
          "name": "role",
          "type": "bytes32"
        },
        {
          "internalType": "address",
          "name": "account",
          "type": "address"
        }
      ],
      "name": "grantRole",
      "outputs": [],
      "stateMutability": "nonpayable",
      "type": "function"
    },
    {
      "inputs": [
        {
          "internalType": "bytes32",
          "name": "role",
          "type": "bytes32"
        },
        {
          "internalType": "address",
          "name": "account",
          "type": "address"
        }
      ],
      "name": "hasRole",
      "outputs": [
        {
          "internalType": "bool",
          "name": "",
          "type": "bool"
        }
      ],
      "stateMutability": "view",
      "type": "function"
    },
    {
      "inputs": [
        {
          "internalType": "address",
          "name": "spender",
          "type": "address"
        },
        {
          "internalType": "uint256",
          "name": "addedValue",
          "type": "uint256"
        }
      ],
      "name": "increaseAllowance",
      "outputs": [
        {
          "internalType": "bool",
          "name": "",
          "type": "bool"
        }
      ],
      "stateMutability": "nonpayable",
      "type": "function"
    },
    {
      "inputs": [],
      "name": "initialize",
      "outputs": [],
      "stateMutability": "nonpayable",
      "type": "function"
    },
    {
      "inputs": [],
      "name": "maxStakeToIssue",
      "outputs": [
        {
          "internalType": "uint256",
          "name": "",
          "type": "uint256"
        }
      ],
      "stateMutability": "view",
      "type": "function"
    },
    {
      "inputs": [],
      "name": "minBalanceToIssue",
      "outputs": [
        {
          "internalType": "uint256",
          "name": "",
          "type": "uint256"
        }
      ],
      "stateMutability": "view",
      "type": "function"
    },
    {
      "inputs": [],
      "name": "minBalanceToReceive",
      "outputs": [
        {
          "internalType": "uint256",
          "name": "",
          "type": "uint256"
        }
      ],
      "stateMutability": "view",
      "type": "function"
    },
    {
      "inputs": [],
      "name": "minBalanceToTransfer",
      "outputs": [
        {
          "internalType": "uint256",
          "name": "",
          "type": "uint256"
        }
      ],
      "stateMutability": "view",
      "type": "function"
    },
    {
      "inputs": [],
      "name": "minPriceToIssue",
      "outputs": [
        {
          "internalType": "uint256",
          "name": "",
          "type": "uint256"
        }
      ],
      "stateMutability": "view",
      "type": "function"
    },
    {
      "inputs": [],
      "name": "minStakeToIssue",
      "outputs": [
        {
          "internalType": "uint256",
          "name": "",
          "type": "uint256"
        }
      ],
      "stateMutability": "view",
      "type": "function"
    },
    {
      "inputs": [
        {
          "internalType": "address",
          "name": "to",
          "type": "address"
        },
        {
          "internalType": "uint256",
          "name": "amount",
          "type": "uint256"
        }
      ],
      "name": "mint",
      "outputs": [],
      "stateMutability": "nonpayable",
      "type": "function"
    },
    {
      "inputs": [],
      "name": "name",
      "outputs": [
        {
          "internalType": "string",
          "name": "",
          "type": "string"
        }
      ],
      "stateMutability": "view",
      "type": "function"
    },
    {
      "inputs": [],
      "name": "pause",
      "outputs": [],
      "stateMutability": "nonpayable",
      "type": "function"
    },
    {
      "inputs": [],
      "name": "paused",
      "outputs": [
        {
          "internalType": "bool",
          "name": "",
          "type": "bool"
        }
      ],
      "stateMutability": "view",
      "type": "function"
    },
    {
      "inputs": [
        {
          "components": [
            {
              "internalType": "string",
              "name": "_context",
              "type": "string"
            },
            {
              "internalType": "string",
              "name": "_type",
              "type": "string"
            },
            {
              "internalType": "string",
              "name": "id",
              "type": "string"
            },
            {
              "components": [
                {
                  "internalType": "string",
                  "name": "id",
                  "type": "string"
                },
                {
                  "internalType": "address",
                  "name": "ethereumAddress",
                  "type": "address"
                }
              ],
              "internalType": "struct VCTypesV01.Issuer",
              "name": "issuer",
              "type": "tuple"
            },
            {
              "components": [
                {
                  "internalType": "string",
                  "name": "id",
                  "type": "string"
                },
                {
                  "internalType": "address",
                  "name": "ethereumAddress",
                  "type": "address"
                },
                {
                  "internalType": "string",
                  "name": "_type",
                  "type": "string"
                },
                {
                  "internalType": "string",
                  "name": "typeSchema",
                  "type": "string"
                },
                {
                  "internalType": "string",
                  "name": "value",
                  "type": "string"
                },
                {
                  "internalType": "string",
                  "name": "encrypted",
                  "type": "string"
                },
                {
                  "internalType": "uint8",
                  "name": "trust",
                  "type": "uint8"
                },
                {
                  "internalType": "uint256",
                  "name": "stake",
                  "type": "uint256"
                },
                {
                  "internalType": "uint256",
                  "name": "price",
                  "type": "uint256"
                },
                {
                  "internalType": "uint256",
                  "name": "nbf",
                  "type": "uint256"
                },
                {
                  "internalType": "uint256",
                  "name": "exp",
                  "type": "uint256"
                }
              ],
              "internalType": "struct VCTypesV01.CredentialSubject",
              "name": "credentialSubject",
              "type": "tuple"
            },
            {
              "components": [
                {
                  "internalType": "string",
                  "name": "id",
                  "type": "string"
                },
                {
                  "internalType": "string",
                  "name": "_type",
                  "type": "string"
                }
              ],
              "internalType": "struct VCTypesV01.CredentialSchema",
              "name": "credentialSchema",
              "type": "tuple"
            },
            {
              "internalType": "string",
              "name": "issuanceDate",
              "type": "string"
            },
            {
              "internalType": "string",
              "name": "expirationDate",
              "type": "string"
            }
          ],
          "internalType": "struct VCTypesV01.VerifiableCredential",
          "name": "vc",
          "type": "tuple"
        },
        {
          "internalType": "bytes",
          "name": "proofValue",
          "type": "bytes"
        }
      ],
      "name": "registerVC",
      "outputs": [
        {
          "internalType": "bool",
          "name": "",
          "type": "bool"
        }
      ],
      "stateMutability": "payable",
      "type": "function"
    },
    {
      "inputs": [
        {
          "internalType": "bytes32",
          "name": "",
          "type": "bytes32"
        }
      ],
      "name": "registry",
      "outputs": [
        {
          "internalType": "enum KRBTokenV01.Status",
          "name": "credentialStatus",
          "type": "uint8"
        },
        {
          "internalType": "bytes32",
          "name": "disputedBy",
          "type": "bytes32"
        }
      ],
      "stateMutability": "view",
      "type": "function"
    },
    {
      "inputs": [
        {
          "internalType": "bytes32",
          "name": "role",
          "type": "bytes32"
        },
        {
          "internalType": "address",
          "name": "account",
          "type": "address"
        }
      ],
      "name": "renounceRole",
      "outputs": [],
      "stateMutability": "nonpayable",
      "type": "function"
    },
    {
      "inputs": [
        {
          "internalType": "bytes32",
          "name": "role",
          "type": "bytes32"
        },
        {
          "internalType": "address",
          "name": "account",
          "type": "address"
        }
      ],
      "name": "revokeRole",
      "outputs": [],
      "stateMutability": "nonpayable",
      "type": "function"
    },
    {
      "inputs": [
        {
          "components": [
            {
              "internalType": "string",
              "name": "_context",
              "type": "string"
            },
            {
              "internalType": "string",
              "name": "_type",
              "type": "string"
            },
            {
              "internalType": "string",
              "name": "id",
              "type": "string"
            },
            {
              "components": [
                {
                  "internalType": "string",
                  "name": "id",
                  "type": "string"
                },
                {
                  "internalType": "address",
                  "name": "ethereumAddress",
                  "type": "address"
                }
              ],
              "internalType": "struct VCTypesV01.Issuer",
              "name": "issuer",
              "type": "tuple"
            },
            {
              "components": [
                {
                  "internalType": "string",
                  "name": "id",
                  "type": "string"
                },
                {
                  "internalType": "address",
                  "name": "ethereumAddress",
                  "type": "address"
                },
                {
                  "internalType": "string",
                  "name": "_type",
                  "type": "string"
                },
                {
                  "internalType": "string",
                  "name": "typeSchema",
                  "type": "string"
                },
                {
                  "internalType": "string",
                  "name": "value",
                  "type": "string"
                },
                {
                  "internalType": "string",
                  "name": "encrypted",
                  "type": "string"
                },
                {
                  "internalType": "uint8",
                  "name": "trust",
                  "type": "uint8"
                },
                {
                  "internalType": "uint256",
                  "name": "stake",
                  "type": "uint256"
                },
                {
                  "internalType": "uint256",
                  "name": "price",
                  "type": "uint256"
                },
                {
                  "internalType": "uint256",
                  "name": "nbf",
                  "type": "uint256"
                },
                {
                  "internalType": "uint256",
                  "name": "exp",
                  "type": "uint256"
                }
              ],
              "internalType": "struct VCTypesV01.CredentialSubject",
              "name": "credentialSubject",
              "type": "tuple"
            },
            {
              "components": [
                {
                  "internalType": "string",
                  "name": "id",
                  "type": "string"
                },
                {
                  "internalType": "string",
                  "name": "_type",
                  "type": "string"
                }
              ],
              "internalType": "struct VCTypesV01.CredentialSchema",
              "name": "credentialSchema",
              "type": "tuple"
            },
            {
              "internalType": "string",
              "name": "issuanceDate",
              "type": "string"
            },
            {
              "internalType": "string",
              "name": "expirationDate",
              "type": "string"
            }
          ],
          "internalType": "struct VCTypesV01.VerifiableCredential",
          "name": "vc",
          "type": "tuple"
        },
        {
          "internalType": "string",
          "name": "reason",
          "type": "string"
        }
      ],
      "name": "revokeVC",
      "outputs": [
        {
          "internalType": "bool",
          "name": "",
          "type": "bool"
        }
      ],
      "stateMutability": "nonpayable",
      "type": "function"
    },
    {
      "inputs": [
        {
          "internalType": "address",
          "name": "issuer",
          "type": "address"
        }
      ],
      "name": "stakeOf",
      "outputs": [
        {
          "internalType": "uint256",
          "name": "",
          "type": "uint256"
        }
      ],
      "stateMutability": "view",
      "type": "function"
    },
    {
      "inputs": [
        {
          "internalType": "bytes4",
          "name": "interfaceId",
          "type": "bytes4"
        }
      ],
      "name": "supportsInterface",
      "outputs": [
        {
          "internalType": "bool",
          "name": "",
          "type": "bool"
        }
      ],
      "stateMutability": "view",
      "type": "function"
    },
    {
      "inputs": [
        {
          "components": [
            {
              "internalType": "string",
              "name": "_context",
              "type": "string"
            },
            {
              "internalType": "string",
              "name": "_type",
              "type": "string"
            },
            {
              "internalType": "string",
              "name": "id",
              "type": "string"
            },
            {
              "components": [
                {
                  "internalType": "string",
                  "name": "id",
                  "type": "string"
                },
                {
                  "internalType": "address",
                  "name": "ethereumAddress",
                  "type": "address"
                }
              ],
              "internalType": "struct VCTypesV01.Issuer",
              "name": "issuer",
              "type": "tuple"
            },
            {
              "components": [
                {
                  "internalType": "string",
                  "name": "id",
                  "type": "string"
                },
                {
                  "internalType": "address",
                  "name": "ethereumAddress",
                  "type": "address"
                },
                {
                  "internalType": "string",
                  "name": "_type",
                  "type": "string"
                },
                {
                  "internalType": "string",
                  "name": "typeSchema",
                  "type": "string"
                },
                {
                  "internalType": "string",
                  "name": "value",
                  "type": "string"
                },
                {
                  "internalType": "string",
                  "name": "encrypted",
                  "type": "string"
                },
                {
                  "internalType": "uint8",
                  "name": "trust",
                  "type": "uint8"
                },
                {
                  "internalType": "uint256",
                  "name": "stake",
                  "type": "uint256"
                },
                {
                  "internalType": "uint256",
                  "name": "price",
                  "type": "uint256"
                },
                {
                  "internalType": "uint256",
                  "name": "nbf",
                  "type": "uint256"
                },
                {
                  "internalType": "uint256",
                  "name": "exp",
                  "type": "uint256"
                }
              ],
              "internalType": "struct VCTypesV01.CredentialSubject",
              "name": "credentialSubject",
              "type": "tuple"
            },
            {
              "components": [
                {
                  "internalType": "string",
                  "name": "id",
                  "type": "string"
                },
                {
                  "internalType": "string",
                  "name": "_type",
                  "type": "string"
                }
              ],
              "internalType": "struct VCTypesV01.CredentialSchema",
              "name": "credentialSchema",
              "type": "tuple"
            },
            {
              "internalType": "string",
              "name": "issuanceDate",
              "type": "string"
            },
            {
              "internalType": "string",
              "name": "expirationDate",
              "type": "string"
            }
          ],
          "internalType": "struct VCTypesV01.VerifiableCredential",
          "name": "vc",
          "type": "tuple"
        },
        {
          "internalType": "string",
          "name": "reason",
          "type": "string"
        }
      ],
      "name": "suspendVC",
      "outputs": [
        {
          "internalType": "bool",
          "name": "",
          "type": "bool"
        }
      ],
      "stateMutability": "nonpayable",
      "type": "function"
    },
    {
      "inputs": [],
      "name": "symbol",
      "outputs": [
        {
          "internalType": "string",
          "name": "",
          "type": "string"
        }
      ],
      "stateMutability": "view",
      "type": "function"
    },
    {
      "inputs": [],
      "name": "totalSupply",
      "outputs": [
        {
          "internalType": "uint256",
          "name": "",
          "type": "uint256"
        }
      ],
      "stateMutability": "view",
      "type": "function"
    },
    {
      "inputs": [
        {
          "internalType": "address",
          "name": "recipient",
          "type": "address"
        },
        {
          "internalType": "uint256",
          "name": "amount",
          "type": "uint256"
        }
      ],
      "name": "transfer",
      "outputs": [
        {
          "internalType": "bool",
          "name": "",
          "type": "bool"
        }
      ],
      "stateMutability": "nonpayable",
      "type": "function"
    },
    {
      "inputs": [
        {
          "internalType": "address",
          "name": "sender",
          "type": "address"
        },
        {
          "internalType": "address",
          "name": "recipient",
          "type": "address"
        },
        {
          "internalType": "uint256",
          "name": "amount",
          "type": "uint256"
        }
      ],
      "name": "transferFrom",
      "outputs": [
        {
          "internalType": "bool",
          "name": "",
          "type": "bool"
        }
      ],
      "stateMutability": "nonpayable",
      "type": "function"
    },
    {
      "inputs": [],
      "name": "unpause",
      "outputs": [],
      "stateMutability": "nonpayable",
      "type": "function"
    },
    {
      "inputs": [
        {
          "internalType": "uint256",
          "name": "newFeePercentage",
          "type": "uint256"
        }
      ],
      "name": "updateFeePercentage",
      "outputs": [],
      "stateMutability": "nonpayable",
      "type": "function"
    },
    {
      "inputs": [
        {
          "internalType": "uint256",
          "name": "newMinBalance",
          "type": "uint256"
        }
      ],
      "name": "updateMinBalanceToIssue",
      "outputs": [],
      "stateMutability": "nonpayable",
      "type": "function"
    },
    {
      "inputs": [
        {
          "internalType": "uint256",
          "name": "newMinBalance",
          "type": "uint256"
        }
      ],
      "name": "updateMinBalanceToReceive",
      "outputs": [],
      "stateMutability": "nonpayable",
      "type": "function"
    },
    {
      "inputs": [
        {
          "internalType": "uint256",
          "name": "newMinBalance",
          "type": "uint256"
        }
      ],
      "name": "updateMinBalanceToTransfer",
      "outputs": [],
      "stateMutability": "nonpayable",
      "type": "function"
    },
    {
      "inputs": [
        {
          "internalType": "uint256",
          "name": "newMinPrice",
          "type": "uint256"
        }
      ],
      "name": "updateMinPriceToIssue",
      "outputs": [],
      "stateMutability": "nonpayable",
      "type": "function"
    },
    {
      "inputs": [
        {
          "internalType": "uint256",
          "name": "newMinStake",
          "type": "uint256"
        },
        {
          "internalType": "uint256",
          "name": "newMaxStake",
          "type": "uint256"
        }
      ],
      "name": "updateStakeToIssue",
      "outputs": [],
      "stateMutability": "nonpayable",
      "type": "function"
    },
    {
      "inputs": [
        {
          "internalType": "address",
          "name": "newImplementation",
          "type": "address"
        }
      ],
      "name": "upgradeTo",
      "outputs": [],
      "stateMutability": "nonpayable",
      "type": "function"
    },
    {
      "inputs": [
        {
          "internalType": "address",
          "name": "newImplementation",
          "type": "address"
        },
        {
          "internalType": "bytes",
          "name": "data",
          "type": "bytes"
        }
      ],
      "name": "upgradeToAndCall",
      "outputs": [],
      "stateMutability": "payable",
      "type": "function"
    },
    {
      "inputs": [
        {
          "internalType": "address payable",
          "name": "_to",
          "type": "address"
        },
        {
          "internalType": "uint256",
          "name": "_amount",
          "type": "uint256"
        }
      ],
      "name": "withdrawFees",
      "outputs": [],
      "stateMutability": "nonpayable",
      "type": "function"
    }
  ],
  "bytecode": "0x60a06040523060601b6080523480156200001857600080fd5b50600054610100900460ff16620000365760005460ff161562000040565b62000040620000e5565b620000a85760405162461bcd60e51b815260206004820152602e60248201527f496e697469616c697a61626c653a20636f6e747261637420697320616c72656160448201526d191e481a5b9a5d1a585b1a5e995960921b606482015260840160405180910390fd5b600054610100900460ff16158015620000cb576000805461ffff19166101011790555b8015620000de576000805461ff00191690555b5062000109565b6000620000fd306200010360201b6200243e1760201c565b15905090565b3b151590565b60805160601c615b366200013d60003960008181611336015281816113760152818161152001526115600152615b366000f3fe6080604052600436106103815760003560e01c80638129fc1c116101d1578063bcd6899311610102578063de5785d5116100a0578063e5a2b28e1161006f578063e5a2b28e14610a6b578063e6aff7be14610a82578063ee2b1b4d14610aa2578063f09a4d5614610ab957600080fd5b8063de5785d514610a0a578063de9d2b1c14610a21578063dec9cafe14610a38578063e29578a614610a4b57600080fd5b8063ca2a8cfc116100dc578063ca2a8cfc14610964578063ce556f9d14610984578063d547741f146109a4578063dd62ed3e146109c457600080fd5b8063bcd6899314610904578063c0d506d614610924578063ca15c8731461094457600080fd5b80639c70287c1161016f578063a457c2d711610149578063a457c2d71461088d578063a9059cbb146108ad578063ad3b1b47146108cd578063af4e720d146108ed57600080fd5b80639c70287c14610841578063a001ecdd14610861578063a217fddf1461087857600080fd5b80639010d07c116101ab5780639010d07c146107b457806391d14854146107ec57806395d89b411461080c57806396a45bc51461082157600080fd5b80638129fc1c1461076a5780638456cb591461077f578063888bb7b51461079457600080fd5b80633659cfe6116102b65780634f1ef28611610254578063716f4d9011610223578063716f4d90146106c157806379cc6790146106e15780637ef5029814610701578063810efa901461074a57600080fd5b80634f1ef2861461063f5780635c975abb146106525780636cad3fb01461066b57806370a082311461068b57600080fd5b80633f4ba83a116102905780633f4ba83a146105b357806340c10f19146105c857806342623360146105e857806342966c681461061f57600080fd5b80633659cfe61461055157806338b7f44614610571578063395093511461059357600080fd5b806323b872dd116103235780632f2ff15d116102fd5780632f2ff15d146104e0578063313ce567146105005780633644e5151461051c57806336568abe1461053157600080fd5b806323b872dd14610470578063248a9ca3146104905780632a401e81146104c057600080fd5b806307a772921161035f57806307a7729214610402578063095ea7b31461041957806309b1146b1461043957806318160ddd1461045b57600080fd5b806301ffc9a71461038657806306fdde03146103bb57806307a0d798146103dd575b600080fd5b34801561039257600080fd5b506103a66103a1366004615121565b610ad9565b60405190151581526020015b60405180910390f35b3480156103c757600080fd5b506103d0610b04565b6040516103b2919061557c565b3480156103e957600080fd5b506103f461022e5481565b6040519081526020016103b2565b34801561040e57600080fd5b506103f461022a5481565b34801561042557600080fd5b506103a6610434366004614fcc565b610b96565b34801561044557600080fd5b506104596104543660046150c1565b610bac565b005b34801561046757600080fd5b5060cb546103f4565b34801561047c57600080fd5b506103a661048b366004615031565b610c3e565b34801561049c57600080fd5b506103f46104ab3660046150c1565b60009081526065602052604090206001015490565b3480156104cc57600080fd5b506103a66104db3660046151e0565b610cea565b3480156104ec57600080fd5b506104596104fb3660046150da565b611273565b34801561050c57600080fd5b50604051601281526020016103b2565b34801561052857600080fd5b506103f461129e565b34801561053d57600080fd5b5061045961054c3660046150da565b6112ad565b34801561055d57600080fd5b5061045961056c366004614faf565b61132b565b34801561057d57600080fd5b506103f4600080516020615a7a83398151915281565b34801561059f57600080fd5b506103a66105ae366004614fcc565b6113f4565b3480156105bf57600080fd5b50610459611430565b3480156105d457600080fd5b506104596105e3366004614fcc565b61149f565b3480156105f457600080fd5b506103f4610603366004614faf565b6001600160a01b03166000908152610232602052604090205490565b34801561062b57600080fd5b5061045961063a3660046150c1565b61150b565b61045961064d366004615072565b611515565b34801561065e57600080fd5b5061012d5460ff166103a6565b34801561067757600080fd5b506104596106863660046150c1565b6115cb565b34801561069757600080fd5b506103f46106a6366004614faf565b6001600160a01b0316600090815260c9602052604090205490565b3480156106cd57600080fd5b506103a66106dc366004615187565b611687565b3480156106ed57600080fd5b506104596106fc366004614fcc565b6116d7565b34801561070d57600080fd5b5061073c61071c3660046150c1565b610231602052600090815260409020805460019091015460ff9091169082565b6040516103b2929190615550565b34801561075657600080fd5b506104596107653660046150c1565b611758565b34801561077657600080fd5b50610459611816565b34801561078b57600080fd5b50610459611911565b3480156107a057600080fd5b506103a66107af36600461514b565b61197c565b3480156107c057600080fd5b506107d46107cf3660046150ff565b611ae4565b6040516001600160a01b0390911681526020016103b2565b3480156107f857600080fd5b506103a66108073660046150da565b611afc565b34801561081857600080fd5b506103d0611b27565b34801561082d57600080fd5b5061045961083c3660046150c1565b611b36565b34801561084d57600080fd5b5061045961085c366004614fcc565b611bb5565b34801561086d57600080fd5b506103f461022f5481565b34801561088457600080fd5b506103f4600081565b34801561089957600080fd5b506103a66108a8366004614fcc565b611d0d565b3480156108b957600080fd5b506103a66108c8366004614fcc565b611d9c565b3480156108d957600080fd5b506104596108e8366004614fcc565b611da9565b3480156108f957600080fd5b506103f461022b5481565b34801561091057600080fd5b506103f461091f36600461514b565b611e6d565b34801561093057600080fd5b506103d061093f36600461514b565b611e78565b34801561095057600080fd5b506103f461095f3660046150c1565b611e90565b34801561097057600080fd5b506103a661097f366004615187565b611ea7565b34801561099057600080fd5b506103a661099f366004615187565b611eed565b3480156109b057600080fd5b506104596109bf3660046150da565b611f33565b3480156109d057600080fd5b506103f46109df366004614ff8565b6001600160a01b03918216600090815260ca6020908152604080832093909416825291909152205490565b348015610a1657600080fd5b506103f46102305481565b348015610a2d57600080fd5b506103f461022d5481565b6103a6610a46366004615187565b611f59565b348015610a5757600080fd5b506103d0610a663660046150c1565b61208d565b348015610a7757600080fd5b506103f46102295481565b348015610a8e57600080fd5b50610459610a9d3660046150c1565b612240565b348015610aae57600080fd5b506103f461022c5481565b348015610ac557600080fd5b50610459610ad43660046150ff565b6122bc565b60006001600160e01b03198216635a05180f60e01b1480610afe5750610afe82612444565b92915050565b606060cc8054610b139061599b565b80601f0160208091040260200160405190810160405280929190818152602001828054610b3f9061599b565b8015610b8c5780601f10610b6157610100808354040283529160200191610b8c565b820191906000526020600020905b815481529060010190602001808311610b6f57829003601f168201915b5050505050905090565b6000610ba3338484612479565b50600192915050565b610bc4600080516020615a7a83398151915233611afc565b610be95760405162461bcd60e51b8152600401610be09061558f565b60405180910390fd5b61022a819055604051600080516020615a5a83398151915290610c33906020808252601390820152726d696e42616c616e6365546f5265636569766560681b604082015260600190565b60405180910390a150565b6000610c4b84848461259d565b6001600160a01b038416600090815260ca6020908152604080832033845290915290205482811015610cd05760405162461bcd60e51b815260206004820152602860248201527f45524332303a207472616e7366657220616d6f756e74206578636565647320616044820152676c6c6f77616e636560c01b6064820152608401610be0565b610cdd8533858403612479565b60019150505b9392505050565b6000610d04600080516020615a7a83398151915233611afc565b610d595760405162461bcd60e51b81526020600482015260326024820152600080516020615ae1833981519152604482015271746f207265736f6c7665206469737075746560701b6064820152608401610be0565b604051602001610da1907f5b2256657269666961626c6543726564656e7469616c222c224469737075746581526b43726564656e7469616c225d60a01b6020820152602c0190565b604051602081830303815290604052805190602001208260200151604051602001610dcc91906153a9565b6040516020818303038152906040528051906020012014610e4e5760405162461bcd60e51b815260206004820152603660248201527f4b5242546f6b656e3a206469737075746520636c61696d2074797065206d75736044820152751d08189948111a5cdc1d5d1950dc9959195b9d1a585b60521b6064820152608401610be0565b6060820151602001516001600160a01b03163314610ec25760405162461bcd60e51b815260206004820152602b60248201527f4b5242546f6b656e3a20697373756572206d7573742062652074686520476f7660448201526a65726e206164647265737360a81b6064820152608401610be0565b6000610ecd84611e6d565b90508360400151604051602001610ee491906153a9565b60408051601f198184030181529082905280516020918201206080860151519092610f0f92016153a9565b6040516020818303038152906040528051906020012014610f985760405162461bcd60e51b815260206004820152603c60248201527f4b5242546f6b656e3a206469737075746556432063726564656e7469616c537560448201527f626a6563742069642064696666657265732066726f6d205643206964000000006064820152608401610be0565b6000818152610231602052604081205460ff166005811115610fbc57610fbc6159ec565b14158015610fee575060026000828152610231602052604090205460ff166005811115610feb57610feb6159ec565b14155b6110465760405162461bcd60e51b815260206004820152602360248201527f4b5242546f6b656e3a20564320737461746520616c72656164792064697370756044820152621d195960ea1b6064820152608401610be0565b600061105184611e6d565b60008381526102316020908152604091829020805460ff1916600217815560010183905581518581529081018390529192507f8e39eab2c454d024fb5c89b50dabc51f5068c7a283891d06aa91f5ba96acded1910160405180910390a16000818152610231602052604090819020805460ff19166001179055517f632a70c3617009ee20500487ed52cd53ce50635cd84cf177b09577715eae51db906110fa9083908790615453565b60405180910390a160006111106012600a615877565b866080015160e001516111239190615922565b90508061023260008860600151602001516001600160a01b03166001600160a01b0316815260200190815260200160002054106111d95760608601516020908101516001600160a01b0316600090815261023290915260409020546111889082612778565b6060870180516020908101516001600160a01b039081166000908152610232835260408082209590955592518201519351858152931692600080516020615ac1833981519152910160405180910390a35b60006111f082886080015160c0015160ff16612784565b90506112048760800151602001518261279a565b6112168760600151602001518261279a565b60006112246012600a615877565b876080015160e001516112379190615922565b9050600061125082896080015160c0015160ff16612784565b9050611264886080015160200151826128f4565b50600198975050505050505050565b60008281526065602052604090206001015461128f81336129df565b6112998383612a43565b505050565b60006112a8612a65565b905090565b6001600160a01b038116331461131d5760405162461bcd60e51b815260206004820152602f60248201527f416363657373436f6e74726f6c3a2063616e206f6e6c792072656e6f756e636560448201526e103937b632b9903337b91039b2b63360891b6064820152608401610be0565b6113278282612ae2565b5050565b306001600160a01b037f00000000000000000000000000000000000000000000000000000000000000001614156113745760405162461bcd60e51b8152600401610be09061561c565b7f00000000000000000000000000000000000000000000000000000000000000006001600160a01b03166113a6612b04565b6001600160a01b0316146113cc5760405162461bcd60e51b8152600401610be090615668565b6113d581612b32565b604080516000808252602082019092526113f191839190612b97565b50565b33600081815260ca602090815260408083206001600160a01b03871684529091528120549091610ba391859061142b9086906157fa565b612479565b611448600080516020615a7a83398151915233611afc565b6114955760405162461bcd60e51b815260206004820152602a6024820152600080516020615ae1833981519152604482015269746f20756e706175736560b01b6064820152608401610be0565b61149d612ce2565b565b6114b7600080516020615a7a83398151915233611afc565b6115015760405162461bcd60e51b81526020600482015260276024820152600080516020615ae18339815191526044820152661d1bc81b5a5b9d60ca1b6064820152608401610be0565b61132782826128f4565b6113f1338261279a565b306001600160a01b037f000000000000000000000000000000000000000000000000000000000000000016141561155e5760405162461bcd60e51b8152600401610be09061561c565b7f00000000000000000000000000000000000000000000000000000000000000006001600160a01b0316611590612b04565b6001600160a01b0316146115b65760405162461bcd60e51b8152600401610be090615668565b6115bf82612b32565b61132782826001612b97565b6115e3600080516020615a7a83398151915233611afc565b6116435760405162461bcd60e51b81526020600482015260376024820152600080516020615ae183398151915260448201527f746f206368616e67652066656550657263656e746167650000000000000000006064820152608401610be0565b61022f819055604051600080516020615a5a83398151915290610c33906020808252600d908201526c66656550657263656e7461676560981b604082015260600190565b6080820151602001516000906001600160a01b031633146116ba5760405162461bcd60e51b8152600401610be0906156eb565b6116cd6116c684611e6d565b8484612d77565b5060019392505050565b60006116e383336109df565b9050818110156117415760405162461bcd60e51b8152602060048201526024808201527f45524332303a206275726e20616d6f756e74206578636565647320616c6c6f77604482015263616e636560e01b6064820152608401610be0565b61174e8333848403612479565b611299838361279a565b611770600080516020615a7a83398151915233611afc565b6117d05760405162461bcd60e51b81526020600482015260396024820152600080516020615ae183398151915260448201527f746f206368616e6765206d696e5072696365546f4973737565000000000000006064820152608401610be0565b61022c819055604051600080516020615a5a83398151915290610c33906020808252600f908201526e6d696e5072696365546f497373756560881b604082015260600190565b600054610100900460ff166118315760005460ff1615611835565b303b155b6118985760405162461bcd60e51b815260206004820152602e60248201527f496e697469616c697a61626c653a20636f6e747261637420697320616c72656160448201526d191e481a5b9a5d1a585b1a5e995960921b6064820152608401610be0565b600054610100900460ff161580156118ba576000805461ffff19166101011790555b6118fd6040518060400160405280600681526020016512dc99589a5d60d21b8152506040518060400160405280600381526020016225a92160e91b815250612f3f565b80156113f1576000805461ff001916905550565b611929600080516020615a7a83398151915233611afc565b6119745760405162461bcd60e51b81526020600482015260286024820152600080516020615ae1833981519152604482015267746f20706175736560c01b6064820152608401610be0565b61149d612fd7565b60008061198883611e6d565b905082608001516101400151421115611ad45760006119a96012600a615877565b846080015160e001516119bc9190615922565b90508061023260008660600151602001516001600160a01b03166001600160a01b031681526020019081526020016000205410611a725760608401516020908101516001600160a01b031660009081526102329091526040902054611a219082612778565b6060850180516020908101516001600160a01b039081166000908152610232835260408082209590955592518201519351858152931692600080516020615ac1833981519152910160405180910390a35b611a84846060015160200151826128f4565b60008281526102316020908152604091829020805460ff1916600517905590518381527f3077f64f92ad91c6479071531304fa3c1e0bb9b63e130c746f3a564292f0ddc6910160405180910390a1505b5050608001516101400151421190565b6000828152609760205260408120610ce39083613054565b60009182526065602090815260408084206001600160a01b0393909316845291905290205460ff1690565b606060cd8054610b139061599b565b611b4e600080516020615a7a83398151915233611afc565b611b6a5760405162461bcd60e51b8152600401610be09061558f565b610229819055604051600080516020615a5a83398151915290610c339060208082526014908201527336b4b72130b630b731b2aa37aa3930b739b332b960611b604082015260600190565b611bcd600080516020615a7a83398151915233611afc565b611c175760405162461bcd60e51b81526020600482015260276024820152600080516020615ae18339815191526044820152663a3790313ab93760c91b6064820152608401610be0565b6001600160a01b038216611c805760405162461bcd60e51b815260206004820152602a60248201527f4b5242546f6b656e3a206275726e207374616b652066726f6d20746865207a65604482015269726f206164647265737360b01b6064820152608401610be0565b6001600160a01b038216600090815261023260205260409020548111611327576001600160a01b03821660009081526102326020526040902054611cc49082612778565b6001600160a01b03831660008181526102326020526040808220939093559151600080516020615ac183398151915290611d019085815260200190565b60405180910390a35050565b33600090815260ca602090815260408083206001600160a01b038616845290915281205482811015611d8f5760405162461bcd60e51b815260206004820152602560248201527f45524332303a2064656372656173656420616c6c6f77616e63652062656c6f77604482015264207a65726f60d81b6064820152608401610be0565b6116cd3385858403612479565b6000610ba333848461259d565b611dc1600080516020615a7a83398151915233611afc565b611e0f5760405162461bcd60e51b815260206004820152602b6024820152600080516020615ae183398151915260448201526a746f20776974686472617760a81b6064820152608401610be0565b61023054811115611e1f57600080fd5b806102306000828254611e329190615941565b90915550506040516001600160a01b0383169082156108fc029083906000818181858888f19350505050158015611299573d6000803e3d6000fd5b6000610afe82613060565b60606000611e8583611e6d565b9050610ce38161208d565b6000818152609760205260408120610afe90613154565b6060820151602001516000906001600160a01b03163314611eda5760405162461bcd60e51b8152600401610be0906155d1565b6116cd611ee684611e6d565b848461315e565b6060820151602001516000906001600160a01b03163314611f205760405162461bcd60e51b8152600401610be0906155d1565b6116cd611f2c84611e6d565b84846131ef565b600082815260656020526040902060010154611f4f81336129df565b6112998383612ae2565b6080820151602001516000906001600160a01b03163314611f8c5760405162461bcd60e51b8152600401610be0906156eb565b34836080015161010001511461200a5760405162461bcd60e51b815260206004820152603a60248201527f4b5242546f6b656e3a206d73672e76616c756520646f6573206e6f74206d617460448201527f63682063726564656e7469616c5375626a6563742e70726963650000000000006064820152608401610be0565b61022c543410156120835760405162461bcd60e51b815260206004820152603860248201527f4b5242546f6b656e3a206d73672e76616c7565206d757374206265206772656160448201527f746572207468616e206d696e5072696365546f497373756500000000000000006064820152608401610be0565b6116cd838361339c565b6000818152610231602052604081205460609160ff909116908160058111156120b8576120b86159ec565b14156120e05750506040805180820190915260048152634e6f6e6560e01b6020820152919050565b60018160058111156120f4576120f46159ec565b141561211e575050604080518082019091526006815265125cdcdd595960d21b6020820152919050565b6002816005811115612132576121326159ec565b141561215e575050604080518082019091526008815267111a5cdc1d5d195960c21b6020820152919050565b6003816005811115612172576121726159ec565b141561219d57505060408051808201909152600781526614995d9bdad95960ca1b6020820152919050565b60048160058111156121b1576121b16159ec565b14156121de57505060408051808201909152600981526814dd5cdc195b99195960ba1b6020820152919050565b60058160058111156121f2576121f26159ec565b141561221d575050604080518082019091526007815266115e1c1a5c995960ca1b6020820152919050565b505060408051808201909152600581526422b93937b960d91b6020820152919050565b612258600080516020615a7a83398151915233611afc565b6122745760405162461bcd60e51b8152600401610be09061558f565b61022b819055604051600080516020615a5a83398151915290610c33906020808252601190820152706d696e42616c616e6365546f497373756560781b604082015260600190565b6122d4600080516020615a7a83398151915233611afc565b6123295760405162461bcd60e51b81526020600482015260326024820152600080516020615ae1833981519152604482015271746f206368616e6765206d696e5374616b6560701b6064820152608401610be0565b81811161239e5760405162461bcd60e51b815260206004820152603f60248201527f4b5242546f6b656e3a206e65774d61785374616b65206d75737420626520677260448201527f6561746572206f7220657175616c207468616e206e65774d696e5374616b65006064820152608401610be0565b61022d829055604051600080516020615a5a833981519152906123e4906020808252600f908201526e6d696e5374616b65546f497373756560881b604082015260600190565b60405180910390a161022e819055604051600080516020615a5a83398151915290612432906020808252600f908201526e6d61785374616b65546f497373756560881b604082015260600190565b60405180910390a15050565b3b151590565b60006001600160e01b03198216637965db0b60e01b1480610afe57506301ffc9a760e01b6001600160e01b0319831614610afe565b6001600160a01b0383166124db5760405162461bcd60e51b8152602060048201526024808201527f45524332303a20617070726f76652066726f6d20746865207a65726f206164646044820152637265737360e01b6064820152608401610be0565b6001600160a01b03821661253c5760405162461bcd60e51b815260206004820152602260248201527f45524332303a20617070726f766520746f20746865207a65726f206164647265604482015261737360f01b6064820152608401610be0565b6001600160a01b03838116600081815260ca602090815260408083209487168084529482529182902085905590518481527f8c5be1e5ebec7d5bd14f71427d1e84f3dd0314c0f7b2291e5b200ac8c7c3b925910160405180910390a3505050565b6001600160a01b0383166126015760405162461bcd60e51b815260206004820152602560248201527f45524332303a207472616e736665722066726f6d20746865207a65726f206164604482015264647265737360d81b6064820152608401610be0565b6001600160a01b0382166126635760405162461bcd60e51b815260206004820152602360248201527f45524332303a207472616e7366657220746f20746865207a65726f206164647260448201526265737360e81b6064820152608401610be0565b61266e8383836133d2565b6001600160a01b038316600090815260c96020526040902054818110156126e65760405162461bcd60e51b815260206004820152602660248201527f45524332303a207472616e7366657220616d6f756e7420657863656564732062604482015265616c616e636560d01b6064820152608401610be0565b6001600160a01b03808516600090815260c9602052604080822085850390559185168152908120805484929061271d9084906157fa565b92505081905550826001600160a01b0316846001600160a01b03167fddf252ad1be2c89b69c2b068fc378daa952ba7f163c4a11628f55a4df523b3ef8460405161276991815260200190565b60405180910390a35b50505050565b6000610ce38284615941565b6000610ce36127938484613568565b6064613574565b6001600160a01b0382166127fa5760405162461bcd60e51b815260206004820152602160248201527f45524332303a206275726e2066726f6d20746865207a65726f206164647265736044820152607360f81b6064820152608401610be0565b612806826000836133d2565b6001600160a01b038216600090815260c960205260409020548181101561287a5760405162461bcd60e51b815260206004820152602260248201527f45524332303a206275726e20616d6f756e7420657863656564732062616c616e604482015261636560f01b6064820152608401610be0565b6001600160a01b038316600090815260c960205260408120838303905560cb80548492906128a9908490615941565b90915550506040518281526000906001600160a01b038516907fddf252ad1be2c89b69c2b068fc378daa952ba7f163c4a11628f55a4df523b3ef9060200160405180910390a3505050565b6001600160a01b03821661294a5760405162461bcd60e51b815260206004820152601f60248201527f45524332303a206d696e7420746f20746865207a65726f2061646472657373006044820152606401610be0565b612956600083836133d2565b8060cb600082825461296891906157fa565b90915550506001600160a01b038216600090815260c96020526040812080548392906129959084906157fa565b90915550506040518181526001600160a01b038316906000907fddf252ad1be2c89b69c2b068fc378daa952ba7f163c4a11628f55a4df523b3ef9060200160405180910390a35050565b6129e98282611afc565b61132757612a01816001600160a01b03166014613580565b612a0c836020613580565b604051602001612a1d9291906153c5565b60408051601f198184030181529082905262461bcd60e51b8252610be09160040161557c565b612a4d828261371b565b600082815260976020526040902061129990826137a1565b60006112a87f8b73c3c69bb8fe3d512ecc4cf759cc79239f7b179b0ffacaa9a75d522b39400f612a956101915490565b610192546040805160208101859052908101839052606081018290524660808201523060a082015260009060c0016040516020818303038152906040528051906020012090509392505050565b612aec82826137b6565b6000828152609760205260409020611299908261381d565b7f360894a13ba1a3210667c828492db98dca3e2076cc3735a920a3ca505d382bbc546001600160a01b031690565b612b4a600080516020615a7a83398151915233611afc565b6113f15760405162461bcd60e51b815260206004820152602a6024820152600080516020615ae1833981519152604482015269746f207570677261646560b01b6064820152608401610be0565b6000612ba1612b04565b9050612bac84613832565b600083511180612bb95750815b15612bca57612bc884846138d7565b505b7f4910fdfa16fed3260ed0e7147f7cc6da11a60208b5b9406d12a635614ffd9143805460ff16612cdb57805460ff191660011781556040516001600160a01b0383166024820152612c4990869060440160408051601f198184030181529190526020810180516001600160e01b0316631b2ce7f360e11b1790526138d7565b50805460ff19168155612c5a612b04565b6001600160a01b0316826001600160a01b031614612cd25760405162461bcd60e51b815260206004820152602f60248201527f45524331393637557067726164653a207570677261646520627265616b73206660448201526e75727468657220757067726164657360881b6064820152608401610be0565b612cdb856139c2565b5050505050565b61012d5460ff16612d2c5760405162461bcd60e51b815260206004820152601460248201527314185d5cd8589b194e881b9bdd081c185d5cd95960621b6044820152606401610be0565b61012d805460ff191690557f5db9ee0a495bf2e6ff9c91a7834c1ba4fdd244a5e8aa4e537bd38aeae4b073aa335b6040516001600160a01b03909116815260200160405180910390a1565b600060016000858152610231602052604090205460ff166005811115612d9f57612d9f6159ec565b14612dbc5760405162461bcd60e51b8152600401610be0906156b4565b6000848152610231602052604090819020805460ff19169055517f761f6dc13136b4cb3a156f0ed2a2b0865663e8bae80e43eb200aaff89b223b8a90612e05908690859061543a565b60405180910390a16000612e1b6012600a615877565b846080015160e00151612e2e9190615922565b90506000612e4782866080015160c0015160ff16612784565b90508161023260008760600151602001516001600160a01b03166001600160a01b031681526020019081526020016000205410612efd5760608501516020908101516001600160a01b031660009081526102329091526040902054612eac9083612778565b6060860180516020908101516001600160a01b039081166000908152610232835260408082209590955592518201519351868152931692600080516020615ac1833981519152910160405180910390a35b612f0f856060015160200151836128f4565b612f218560800151602001518261279a565b612f338560600151602001518261279a565b50600195945050505050565b600054610100900460ff16612f665760405162461bcd60e51b8152600401610be090615741565b612f6e613a02565b612f76613a02565b612f7e613a02565b612f86613a02565b612f908282613a29565b612f98613a02565b612fa0613a77565b612fa8613a02565b612fcd8260405180604001604052806003815260200162302e3160e81b815250613aab565b6113278282613aee565b61012d5460ff161561301e5760405162461bcd60e51b815260206004820152601060248201526f14185d5cd8589b194e881c185d5cd95960821b6044820152606401610be0565b61012d805460ff191660011790557f62e78cea01bee320cd4e420270b5ea74000d11b0c9f74754ebdbfc544b05a258612d5a3390565b6000610ce38383613bd5565b60007f63c4847aa3662952b34b8f76f3abc371c24535ee34fce5b3df34d029db924d4e60001b8260000151805190602001208360200151805190602001208460400151805190602001206130b78660600151613bff565b6130c48760800151613c58565b6130d18860a00151613d51565b60c0890151805160209182012060e08b01518051908301206040516131379a9998979695949301988952602089019790975260408801959095526060870193909352608086019190915260a085015260c084015260e08301526101008201526101200190565b604051602081830303815290604052805190602001209050919050565b6000610afe825490565b600060016000858152610231602052604090205460ff166005811115613186576131866159ec565b146131a35760405162461bcd60e51b8152600401610be0906156b4565b6000848152610231602052604090819020805460ff19166003179055517fc8d626f397822cbf88d2668dbdd8bac1a4a172c0d81425fde1526ef2b8195ca390612e05908690859061543a565b600060016000858152610231602052604090205460ff166005811115613217576132176159ec565b146132345760405162461bcd60e51b8152600401610be0906156b4565b6000848152610231602052604090819020805460ff19166004179055517f9f3ea3215e3320f6d705861aefc7d473557aff8cae1ac438222996d547233d3590613280908690859061543a565b60405180910390a160006132966012600a615877565b846080015160e001516132a99190615922565b905060006132c282866080015160c0015160ff16612784565b90508161023260008760600151602001516001600160a01b03166001600160a01b0316815260200190815260200160002054106133785760608501516020908101516001600160a01b0316600090815261023290915260409020546133279083612778565b6060860180516020908101516001600160a01b039081166000908152610232835260408082209590955592518201519351868152931692600080516020615ac1833981519152910160405180910390a35b61338a856060015160200151836128f4565b612f338560800151602001518261279a565b6000806133a884611e6d565b90506133bd8460600151602001518285613da7565b6133c78185613eae565b506001949350505050565b6133dd8383836141ea565b6133f5600080516020615a7a83398151915233611afc565b8061340757506001600160a01b038316155b8061341957506001600160a01b038216155b8061343f5750610229546001600160a01b038416600090815260c9602052604090205410155b6134a15760405162461bcd60e51b815260206004820152602d60248201527f4b5242546f6b656e3a2073656e64657220646f6573206e6f742068617665206560448201526c6e6f7567682062616c616e636560981b6064820152608401610be0565b6134b9600080516020615a7a83398151915233611afc565b806134cb57506001600160a01b038316155b806134dd57506001600160a01b038216155b80613503575061022a546001600160a01b038316600090815260c9602052604090205410155b6112995760405162461bcd60e51b815260206004820152603060248201527f4b5242546f6b656e3a20726563697069656e7420646f6573206e6f742068617660448201526f6520656e6f7567682062616c616e636560801b6064820152608401610be0565b6000610ce38284615922565b6000610ce38284615812565b6060600061358f836002615922565b61359a9060026157fa565b6001600160401b038111156135b1576135b1615a2e565b6040519080825280601f01601f1916602001820160405280156135db576020820181803683370190505b509050600360fc1b816000815181106135f6576135f6615a18565b60200101906001600160f81b031916908160001a905350600f60fb1b8160018151811061362557613625615a18565b60200101906001600160f81b031916908160001a9053506000613649846002615922565b6136549060016157fa565b90505b60018111156136cc576f181899199a1a9b1b9c1cb0b131b232b360811b85600f166010811061368857613688615a18565b1a60f81b82828151811061369e5761369e615a18565b60200101906001600160f81b031916908160001a90535060049490941c936136c581615984565b9050613657565b508315610ce35760405162461bcd60e51b815260206004820181905260248201527f537472696e67733a20686578206c656e67746820696e73756666696369656e746044820152606401610be0565b6137258282611afc565b6113275760008281526065602090815260408083206001600160a01b03851684529091529020805460ff1916600117905561375d3390565b6001600160a01b0316816001600160a01b0316837f2f8788117e7eff1d82e926ec794901d17c78024a50270940304540a733656f0d60405160405180910390a45050565b6000610ce3836001600160a01b038416614251565b6137c08282611afc565b156113275760008281526065602090815260408083206001600160a01b0385168085529252808320805460ff1916905551339285917ff6391f5c32d9c69d2a47ea670b442974b53935d1edc7fd64eb21e047a839171b9190a45050565b6000610ce3836001600160a01b0384166142a0565b803b6138965760405162461bcd60e51b815260206004820152602d60248201527f455243313936373a206e657720696d706c656d656e746174696f6e206973206e60448201526c1bdd08184818dbdb9d1c9858dd609a1b6064820152608401610be0565b7f360894a13ba1a3210667c828492db98dca3e2076cc3735a920a3ca505d382bbc80546001600160a01b0319166001600160a01b0392909216919091179055565b6060823b6139365760405162461bcd60e51b815260206004820152602660248201527f416464726573733a2064656c65676174652063616c6c20746f206e6f6e2d636f6044820152651b9d1c9858dd60d21b6064820152608401610be0565b600080846001600160a01b03168460405161395191906153a9565b600060405180830381855af49150503d806000811461398c576040519150601f19603f3d011682016040523d82523d6000602084013e613991565b606091505b50915091506139b98282604051806060016040528060278152602001615a9a60279139614393565b95945050505050565b6139cb81613832565b6040516001600160a01b038216907fbc7cd75a20ee27fd9adebab32041f755214dbc6bffa90cc0225b39da2e5c2d3b90600090a250565b600054610100900460ff1661149d5760405162461bcd60e51b8152600401610be090615741565b600054610100900460ff16613a505760405162461bcd60e51b8152600401610be090615741565b8151613a639060cc906020850190614b26565b5080516112999060cd906020840190614b26565b600054610100900460ff16613a9e5760405162461bcd60e51b8152600401610be090615741565b61012d805460ff19169055565b600054610100900460ff16613ad25760405162461bcd60e51b8152600401610be090615741565b8151602092830120815191909201206101919190915561019255565b600054610100900460ff16613b155760405162461bcd60e51b8152600401610be090615741565b613b206000336143cc565b613b38600080516020615a7a833981519152336143cc565b613b446012600a615877565b613b4f906064615922565b61022955613b5f6012600a615877565b613b6a906064615922565b61022a55600a61022f556012613b8190600a615877565b613b8c906064615922565b61022b55655af3107a400061022c55613ba76012600a615877565b613bb2906001615922565b61022d55613bc26012600a615877565b613bcd90600a615922565b61022e555050565b6000826000018281548110613bec57613bec615a18565b9060005260206000200154905092915050565b8051805160209182012081830151604080517fabb691e6e52ceb1ff8b3df91dc14323057e88efa3252486ed994fd62706cdfaa948101949094528301919091526001600160a01b03166060820152600090608001613137565b60007f4b87db6c5998f503ac6519b5a7d74efcf2a230368deeaf54dd8bf078da459ff760001b82600001518051906020012083602001518460400151805190602001208560600151805190602001208660800151805190602001208760a00151805190602001208860c001518960e001518a61010001518b61012001518c61014001516040516020016131379c9b9a999897969594939291909b8c5260208c019a909a526001600160a01b039890981660408b015260608a0196909652608089019490945260a088019290925260c087015260ff1660e08601526101008501526101208401526101408301526101608201526101800190565b8051805160209182012081830151805190830120604080517f1a58b7c56676b62343f37f4f3603a07ae6dd78bea300689bcefef0f9498c6cc9948101949094528301919091526060820152600090608001613137565b6000613db2836143d6565b90506000613dc08284614424565b90506001600160a01b038116613e275760405162461bcd60e51b815260206004820152602660248201527f4b5242546f6b656e3a20696e76616c6964207369676e6174757265206164647260448201526565737328302960d01b6064820152608401610be0565b846001600160a01b0316816001600160a01b031614612cdb5760405162461bcd60e51b815260206004820152603860248201527f4b5242546f6b656e3a207265636f76657265642061646472657373206469666660448201527f6572732066726f6d206578706563746564207369676e657200000000000000006064820152608401610be0565b6000806000848152610231602052604090205460ff166005811115613ed557613ed56159ec565b14613f485760405162461bcd60e51b815260206004820152603860248201527f4b5242546f6b656e3a2056657269666961626c652043726564656e7469616c2060448201527f6861736820616c7265616479206265656e2069737375656400000000000000006064820152608401610be0565b613f5182614448565b6000613f5f6012600a615877565b836080015160e00151613f729190615922565b905061022d548110158015613f8a575061022e548111155b6140085760405162461bcd60e51b815260206004820152604360248201527f4b5242546f6b656e3a207374616b65206d757374206265206265747765656e2060448201527f6d696e5374616b65546f497373756520616e64206d61785374616b65546f497360648201526273756560e81b608482015260a401610be0565b61401a8360600151602001518261279a565b60608301516020908101516001600160a01b03166000908152610232909152604090205461404890826147c1565b6060840180516020908101516001600160a01b03908116600090815261023283526040808220959095559251820151935185815292931691600080516020615ac1833981519152910160405180910390a3604080518082019091528060018152600060209182018190528681526102319091526040902081518154829060ff191660018360058111156140dd576140dd6159ec565b0217905550602082015181600101559050507f632a70c3617009ee20500487ed52cd53ce50635cd84cf177b09577715eae51db8484604051614120929190615453565b60405180910390a1600061413f82856080015160c0015160ff16612784565b9050614153846080015160200151826128f4565b614165846060015160200151826128f4565b6000614179856080015161010001516147cd565b6060860151602001519091506001600160a01b0381166108fc61419c8434615941565b6040518115909202916000818181858888f193505050501580156141c4573d6000803e3d6000fd5b508161023060008282546141d891906157fa565b90915550600198975050505050505050565b61012d5460ff16156112995760405162461bcd60e51b815260206004820152602a60248201527f45524332305061757361626c653a20746f6b656e207472616e736665722077686044820152691a5b19481c185d5cd95960b21b6064820152608401610be0565b600081815260018301602052604081205461429857508154600181810184556000848152602080822090930184905584548482528286019093526040902091909155610afe565b506000610afe565b600081815260018301602052604081205480156143895760006142c4600183615941565b85549091506000906142d890600190615941565b905081811461433d5760008660000182815481106142f8576142f8615a18565b906000526020600020015490508087600001848154811061431b5761431b615a18565b6000918252602080832090910192909255918252600188019052604090208390555b855486908061434e5761434e615a02565b600190038181906000526020600020016000905590558560010160008681526020019081526020016000206000905560019350505050610afe565b6000915050610afe565b606083156143a2575081610ce3565b8251156143b25782518084602001fd5b8160405162461bcd60e51b8152600401610be0919061557c565b6113278282612a43565b6000610afe6143e3612a65565b8360405161190160f01b6020820152602281018390526042810182905260009060620160405160208183030381529060405280519060200120905092915050565b600080600061443385856147df565b915091506144408161484f565b509392505050565b6060810151602001516001600160a01b03166144a65760405162461bcd60e51b815260206004820152601c60248201527f4b5242546f6b656e3a20626164206973737565722061646472657373000000006044820152606401610be0565b6080810151602001516001600160a01b03166145145760405162461bcd60e51b815260206004820152602760248201527f4b5242546f6b656e3a206261642063726564656e7469616c5375626a656374206044820152666164647265737360c81b6064820152608401610be0565b60808101515160405161452a91906020016153a9565b60408051601f19818403018152908290528051602091820120606084015151909261455592016153a9565b6040516020818303038152906040528051906020012014156145d75760405162461bcd60e51b815260206004820152603560248201527f4b5242546f6b656e3a2069737375657220444944206973207468652073616d6560448201527408185cc818dc9959195b9d1a585b14dd589a9958dd605a1b6064820152608401610be0565b8060800151602001516001600160a01b03168160600151602001516001600160a01b0316141561466f5760405162461bcd60e51b815260206004820152603960248201527f4b5242546f6b656e3a206973737565722061646472657373206973207468652060448201527f73616d652061732063726564656e7469616c5375626a656374000000000000006064820152608401610be0565b61022b5461469a8260600151602001516001600160a01b0316600090815260c9602052604090205490565b10156146fe5760405162461bcd60e51b815260206004820152602d60248201527f4b5242546f6b656e3a2069737375657220646f6573206e6f742068617665206560448201526c6e6f7567682062616c616e636560981b6064820152608401610be0565b8060800151610120015142116147695760405162461bcd60e51b815260206004820152602a60248201527f4b5242546f6b656e3a2056432069737375616e63654461746520697320696e206044820152697468652066757475726560b01b6064820152608401610be0565b8060800151610140015142106113f15760405162461bcd60e51b815260206004820181905260248201527f4b5242546f6b656e3a2056432068617320616c726561647920657870697265646044820152606401610be0565b6000610ce382846157fa565b6000610afe6127938361022f54613568565b6000808251604114156148165760208301516040840151606085015160001a61480a87828585614a0a565b94509450505050614848565b8251604014156148405760208301516040840151614835868383614af7565b935093505050614848565b506000905060025b9250929050565b6000816004811115614863576148636159ec565b141561486c5750565b6001816004811115614880576148806159ec565b14156148ce5760405162461bcd60e51b815260206004820152601860248201527f45434453413a20696e76616c6964207369676e617475726500000000000000006044820152606401610be0565b60028160048111156148e2576148e26159ec565b14156149305760405162461bcd60e51b815260206004820152601f60248201527f45434453413a20696e76616c6964207369676e6174757265206c656e677468006044820152606401610be0565b6003816004811115614944576149446159ec565b141561499d5760405162461bcd60e51b815260206004820152602260248201527f45434453413a20696e76616c6964207369676e6174757265202773272076616c604482015261756560f01b6064820152608401610be0565b60048160048111156149b1576149b16159ec565b14156113f15760405162461bcd60e51b815260206004820152602260248201527f45434453413a20696e76616c6964207369676e6174757265202776272076616c604482015261756560f01b6064820152608401610be0565b6000807f7fffffffffffffffffffffffffffffff5d576e7357a4501ddfe92f46681b20a0831115614a415750600090506003614aee565b8460ff16601b14158015614a5957508460ff16601c14155b15614a6a5750600090506004614aee565b6040805160008082526020820180845289905260ff881692820192909252606081018690526080810185905260019060a0016020604051602081039080840390855afa158015614abe573d6000803e3d6000fd5b5050604051601f1901519150506001600160a01b038116614ae757600060019250925050614aee565b9150600090505b94509492505050565b6000806001600160ff1b03831660ff84901c601b01614b1887828885614a0a565b935093505050935093915050565b828054614b329061599b565b90600052602060002090601f016020900481019282614b545760008555614b9a565b82601f10614b6d57805160ff1916838001178555614b9a565b82800160010185558215614b9a579182015b82811115614b9a578251825591602001919060010190614b7f565b50614ba6929150614baa565b5090565b5b80821115614ba65760008155600101614bab565b8035614bca81615a44565b919050565b600082601f830112614be057600080fd5b81356001600160401b0380821115614bfa57614bfa615a2e565b604051601f8301601f19908116603f01168101908282118183101715614c2257614c22615a2e565b81604052838152866020858801011115614c3b57600080fd5b836020870160208301376000602085830101528094505050505092915050565b600060408284031215614c6d57600080fd5b614c7561578c565b905081356001600160401b0380821115614c8e57600080fd5b614c9a85838601614bcf565b83526020840135915080821115614cb057600080fd5b50614cbd84828501614bcf565b60208301525092915050565b60006101608284031215614cdc57600080fd5b614ce46157b4565b905081356001600160401b0380821115614cfd57600080fd5b614d0985838601614bcf565b8352614d1760208501614bbf565b60208401526040840135915080821115614d3057600080fd5b614d3c85838601614bcf565b60408401526060840135915080821115614d5557600080fd5b614d6185838601614bcf565b60608401526080840135915080821115614d7a57600080fd5b614d8685838601614bcf565b608084015260a0840135915080821115614d9f57600080fd5b50614dac84828501614bcf565b60a083015250614dbe60c08301614f9e565b60c082015260e082013560e082015261010080830135818301525061012080830135818301525061014080830135818301525092915050565b600060408284031215614e0957600080fd5b614e1161578c565b905081356001600160401b03811115614e2957600080fd5b614e3584828501614bcf565b8252506020820135614e4681615a44565b602082015292915050565b60006101008284031215614e6457600080fd5b614e6c6157d7565b905081356001600160401b0380821115614e8557600080fd5b614e9185838601614bcf565b83526020840135915080821115614ea757600080fd5b614eb385838601614bcf565b60208401526040840135915080821115614ecc57600080fd5b614ed885838601614bcf565b60408401526060840135915080821115614ef157600080fd5b614efd85838601614df7565b60608401526080840135915080821115614f1657600080fd5b614f2285838601614cc9565b608084015260a0840135915080821115614f3b57600080fd5b614f4785838601614c5b565b60a084015260c0840135915080821115614f6057600080fd5b614f6c85838601614bcf565b60c084015260e0840135915080821115614f8557600080fd5b50614f9284828501614bcf565b60e08301525092915050565b803560ff81168114614bca57600080fd5b600060208284031215614fc157600080fd5b8135610ce381615a44565b60008060408385031215614fdf57600080fd5b8235614fea81615a44565b946020939093013593505050565b6000806040838503121561500b57600080fd5b823561501681615a44565b9150602083013561502681615a44565b809150509250929050565b60008060006060848603121561504657600080fd5b833561505181615a44565b9250602084013561506181615a44565b929592945050506040919091013590565b6000806040838503121561508557600080fd5b823561509081615a44565b915060208301356001600160401b038111156150ab57600080fd5b6150b785828601614bcf565b9150509250929050565b6000602082840312156150d357600080fd5b5035919050565b600080604083850312156150ed57600080fd5b82359150602083013561502681615a44565b6000806040838503121561511257600080fd5b50508035926020909101359150565b60006020828403121561513357600080fd5b81356001600160e01b031981168114610ce357600080fd5b60006020828403121561515d57600080fd5b81356001600160401b0381111561517357600080fd5b61517f84828501614e51565b949350505050565b6000806040838503121561519a57600080fd5b82356001600160401b03808211156151b157600080fd5b6151bd86838701614e51565b935060208501359150808211156151d357600080fd5b506150b785828601614bcf565b600080604083850312156151f357600080fd5b82356001600160401b038082111561520a57600080fd5b61521686838701614e51565b9350602085013591508082111561522c57600080fd5b506150b785828601614e51565b60008151808452615251816020860160208601615958565b601f01601f19169290920160200192915050565b600081516040845261527a6040850182615239565b9050602083015184820360208601526139b98282615239565b600061016082518185526152a982860182615239565b91505060208301516152c660208601826001600160a01b03169052565b50604083015184820360408601526152de8282615239565b915050606083015184820360608601526152f88282615239565b915050608083015184820360808601526153128282615239565b91505060a083015184820360a086015261532c8282615239565b91505060c083015161534360c086018260ff169052565b5060e08381015190850152610100808401519085015261012080840151908501526101409283015192909301919091525090565b600081516040845261538c6040850182615239565b6020938401516001600160a01b0316949093019390935250919050565b600082516153bb818460208701615958565b9190910192915050565b7f416363657373436f6e74726f6c3a206163636f756e74200000000000000000008152600083516153fd816017850160208801615958565b7001034b99036b4b9b9b4b733903937b6329607d1b601791840191820152835161542e816028840160208801615958565b01602801949350505050565b82815260406020820152600061517f6040830184615239565b8281526040602082015260008251610100806040850152615478610140850183615239565b91506020850151603f19808685030160608701526154968483615239565b935060408701519150808685030160808701526154b38483615239565b935060608701519150808685030160a08701526154d08483615377565b935060808701519150808685030160c08701526154ed8483615293565b935060a08701519150808685030160e087015261550a8483615265565b935060c087015191508086850301838701526155268483615239565b935060e08701519250808685030161012087015250506155468282615239565b9695505050505050565b604081016006841061557257634e487b7160e01b600052602160045260246000fd5b9281526020015290565b602081526000610ce36020830184615239565b6020808252603490820152600080516020615ae1833981519152604082015273746f206368616e6765206d696e42616c616e636560601b606082015260800190565b6020808252602b908201527f4b5242546f6b656e3a2073656e646572206d757374206265207468652069737360408201526a756572206164647265737360a81b606082015260800190565b6020808252602c908201527f46756e6374696f6e206d7573742062652063616c6c6564207468726f7567682060408201526b19195b1959d85d1958d85b1b60a21b606082015260800190565b6020808252602c908201527f46756e6374696f6e206d7573742062652063616c6c6564207468726f7567682060408201526b6163746976652070726f787960a01b606082015260800190565b6020808252601d908201527f4b5242546f6b656e3a207374617465206973206e6f7420497373756564000000604082015260600190565b60208082526036908201527f4b5242546f6b656e3a2073656e646572206d757374206265207468652063726560408201527564656e7469616c5375626a656374206164647265737360501b606082015260800190565b6020808252602b908201527f496e697469616c697a61626c653a20636f6e7472616374206973206e6f74206960408201526a6e697469616c697a696e6760a81b606082015260800190565b604080519081016001600160401b03811182821017156157ae576157ae615a2e565b60405290565b60405161016081016001600160401b03811182821017156157ae576157ae615a2e565b60405161010081016001600160401b03811182821017156157ae576157ae615a2e565b6000821982111561580d5761580d6159d6565b500190565b60008261582f57634e487b7160e01b600052601260045260246000fd5b500490565b600181815b8085111561586f578160001904821115615855576158556159d6565b8085161561586257918102915b93841c9390800290615839565b509250929050565b6000610ce360ff84168360008261589057506001610afe565b8161589d57506000610afe565b81600181146158b357600281146158bd576158d9565b6001915050610afe565b60ff8411156158ce576158ce6159d6565b50506001821b610afe565b5060208310610133831016604e8410600b84101617156158fc575081810a610afe565b6159068383615834565b806000190482111561591a5761591a6159d6565b029392505050565b600081600019048311821515161561593c5761593c6159d6565b500290565b600082821015615953576159536159d6565b500390565b60005b8381101561597357818101518382015260200161595b565b838111156127725750506000910152565b600081615993576159936159d6565b506000190190565b600181811c908216806159af57607f821691505b602082108114156159d057634e487b7160e01b600052602260045260246000fd5b50919050565b634e487b7160e01b600052601160045260246000fd5b634e487b7160e01b600052602160045260246000fd5b634e487b7160e01b600052603160045260246000fd5b634e487b7160e01b600052603260045260246000fd5b634e487b7160e01b600052604160045260246000fd5b6001600160a01b03811681146113f157600080fdfe221d3d4161ff7c815e25a84cf3c2ec04f54111bee80f0b06d345c834581c9da3899bd46557473cb80307a9dabc297131ced39608330a2d29b2d52b660c03923e416464726573733a206c6f772d6c6576656c2064656c65676174652063616c6c206661696c65645dac0c1b1112564a045ba943c9d50270893e8e826c49be8e7073adc713ab7bd74b5242546f6b656e3a206d757374206861766520676f7665726e20726f6c6520a2646970667358221220a2fc54a40e014fd769fe8297d5b85973d5e0acd30de7de52bca31d8191bc569364736f6c63430008070033",
  "linkReferences": {},
  "deployedLinkReferences": {}
}