{"contracts/MainnetKrebitNFT.sol":{"MainnetKrebitNFT":{"abi":[{"inputs":[],"stateMutability":"nonpayable","type":"constructor"},{"anonymous":false,"inputs":[{"indexed":false,"internalType":"address","name":"previousAdmin","type":"address"},{"indexed":false,"internalType":"address","name":"newAdmin","type":"address"}],"name":"AdminChanged","type":"event"},{"anonymous":false,"inputs":[{"indexed":true,"internalType":"address","name":"account","type":"address"},{"indexed":true,"internalType":"address","name":"operator","type":"address"},{"indexed":false,"internalType":"bool","name":"approved","type":"bool"}],"name":"ApprovalForAll","type":"event"},{"anonymous":false,"inputs":[{"indexed":true,"internalType":"address","name":"beacon","type":"address"}],"name":"BeaconUpgraded","type":"event"},{"anonymous":false,"inputs":[{"indexed":false,"internalType":"uint8","name":"version","type":"uint8"}],"name":"Initialized","type":"event"},{"anonymous":false,"inputs":[{"indexed":false,"internalType":"address","name":"account","type":"address"}],"name":"Paused","type":"event"},{"anonymous":false,"inputs":[{"indexed":true,"internalType":"bytes32","name":"role","type":"bytes32"},{"indexed":true,"internalType":"bytes32","name":"previousAdminRole","type":"bytes32"},{"indexed":true,"internalType":"bytes32","name":"newAdminRole","type":"bytes32"}],"name":"RoleAdminChanged","type":"event"},{"anonymous":false,"inputs":[{"indexed":true,"internalType":"bytes32","name":"role","type":"bytes32"},{"indexed":true,"internalType":"address","name":"account","type":"address"},{"indexed":true,"internalType":"address","name":"sender","type":"address"}],"name":"RoleGranted","type":"event"},{"anonymous":false,"inputs":[{"indexed":true,"internalType":"bytes32","name":"role","type":"bytes32"},{"indexed":true,"internalType":"address","name":"account","type":"address"},{"indexed":true,"internalType":"address","name":"sender","type":"address"}],"name":"RoleRevoked","type":"event"},{"anonymous":false,"inputs":[{"indexed":true,"internalType":"address","name":"operator","type":"address"},{"indexed":true,"internalType":"address","name":"from","type":"address"},{"indexed":true,"internalType":"address","name":"to","type":"address"},{"indexed":false,"internalType":"uint256[]","name":"ids","type":"uint256[]"},{"indexed":false,"internalType":"uint256[]","name":"values","type":"uint256[]"}],"name":"TransferBatch","type":"event"},{"anonymous":false,"inputs":[{"indexed":true,"internalType":"address","name":"operator","type":"address"},{"indexed":true,"internalType":"address","name":"from","type":"address"},{"indexed":true,"internalType":"address","name":"to","type":"address"},{"indexed":false,"internalType":"uint256","name":"id","type":"uint256"},{"indexed":false,"internalType":"uint256","name":"value","type":"uint256"}],"name":"TransferSingle","type":"event"},{"anonymous":false,"inputs":[{"indexed":false,"internalType":"string","name":"value","type":"string"},{"indexed":true,"internalType":"uint256","name":"id","type":"uint256"}],"name":"URI","type":"event"},{"anonymous":false,"inputs":[{"indexed":false,"internalType":"address","name":"account","type":"address"}],"name":"Unpaused","type":"event"},{"anonymous":false,"inputs":[{"indexed":true,"internalType":"address","name":"implementation","type":"address"}],"name":"Upgraded","type":"event"},{"inputs":[],"name":"DEFAULT_ADMIN_ROLE","outputs":[{"internalType":"bytes32","name":"","type":"bytes32"}],"stateMutability":"view","type":"function"},{"inputs":[],"name":"GOVERN_ROLE","outputs":[{"internalType":"bytes32","name":"","type":"bytes32"}],"stateMutability":"view","type":"function"},{"inputs":[],"name":"PREDICATE_ROLE","outputs":[{"internalType":"bytes32","name":"","type":"bytes32"}],"stateMutability":"view","type":"function"},{"inputs":[{"internalType":"address","name":"account","type":"address"},{"internalType":"uint256","name":"id","type":"uint256"}],"name":"balanceOf","outputs":[{"internalType":"uint256","name":"","type":"uint256"}],"stateMutability":"view","type":"function"},{"inputs":[{"internalType":"address[]","name":"accounts","type":"address[]"},{"internalType":"uint256[]","name":"ids","type":"uint256[]"}],"name":"balanceOfBatch","outputs":[{"internalType":"uint256[]","name":"","type":"uint256[]"}],"stateMutability":"view","type":"function"},{"inputs":[{"internalType":"address","name":"account","type":"address"},{"internalType":"string","name":"credentialSubjectType","type":"string"}],"name":"balanceOfCredential","outputs":[{"internalType":"uint256","name":"","type":"uint256"}],"stateMutability":"view","type":"function"},{"inputs":[{"internalType":"address","name":"account","type":"address"},{"internalType":"uint256","name":"id","type":"uint256"},{"internalType":"uint256","name":"value","type":"uint256"}],"name":"burn","outputs":[],"stateMutability":"nonpayable","type":"function"},{"inputs":[{"internalType":"address","name":"account","type":"address"},{"internalType":"uint256[]","name":"ids","type":"uint256[]"},{"internalType":"uint256[]","name":"values","type":"uint256[]"}],"name":"burnBatch","outputs":[],"stateMutability":"nonpayable","type":"function"},{"inputs":[],"name":"contractURI","outputs":[{"internalType":"string","name":"","type":"string"}],"stateMutability":"view","type":"function"},{"inputs":[{"internalType":"uint256","name":"id","type":"uint256"}],"name":"exists","outputs":[{"internalType":"bool","name":"","type":"bool"}],"stateMutability":"view","type":"function"},{"inputs":[{"internalType":"bytes32","name":"role","type":"bytes32"}],"name":"getRoleAdmin","outputs":[{"internalType":"bytes32","name":"","type":"bytes32"}],"stateMutability":"view","type":"function"},{"inputs":[{"internalType":"bytes32","name":"role","type":"bytes32"},{"internalType":"uint256","name":"index","type":"uint256"}],"name":"getRoleMember","outputs":[{"internalType":"address","name":"","type":"address"}],"stateMutability":"view","type":"function"},{"inputs":[{"internalType":"bytes32","name":"role","type":"bytes32"}],"name":"getRoleMemberCount","outputs":[{"internalType":"uint256","name":"","type":"uint256"}],"stateMutability":"view","type":"function"},{"inputs":[{"internalType":"string","name":"credentialSubjectType","type":"string"}],"name":"getTokenId","outputs":[{"internalType":"uint256","name":"","type":"uint256"}],"stateMutability":"view","type":"function"},{"inputs":[{"internalType":"bytes32","name":"role","type":"bytes32"},{"internalType":"address","name":"account","type":"address"}],"name":"grantRole","outputs":[],"stateMutability":"nonpayable","type":"function"},{"inputs":[{"internalType":"bytes32","name":"role","type":"bytes32"},{"internalType":"address","name":"account","type":"address"}],"name":"hasRole","outputs":[{"internalType":"bool","name":"","type":"bool"}],"stateMutability":"view","type":"function"},{"inputs":[{"internalType":"string","name":"uri","type":"string"},{"internalType":"string","name":"collectionURI","type":"string"}],"name":"initialize","outputs":[],"stateMutability":"nonpayable","type":"function"},{"inputs":[{"internalType":"address","name":"account","type":"address"},{"internalType":"address","name":"operator","type":"address"}],"name":"isApprovedForAll","outputs":[{"internalType":"bool","name":"","type":"bool"}],"stateMutability":"view","type":"function"},{"inputs":[{"internalType":"address","name":"account","type":"address"},{"internalType":"uint256","name":"id","type":"uint256"},{"internalType":"uint256","name":"amount","type":"uint256"},{"internalType":"bytes","name":"data","type":"bytes"}],"name":"mint","outputs":[],"stateMutability":"nonpayable","type":"function"},{"inputs":[{"internalType":"address","name":"to","type":"address"},{"internalType":"uint256[]","name":"ids","type":"uint256[]"},{"internalType":"uint256[]","name":"amounts","type":"uint256[]"},{"internalType":"bytes","name":"data","type":"bytes"}],"name":"mintBatch","outputs":[],"stateMutability":"nonpayable","type":"function"},{"inputs":[],"name":"pause","outputs":[],"stateMutability":"nonpayable","type":"function"},{"inputs":[],"name":"paused","outputs":[{"internalType":"bool","name":"","type":"bool"}],"stateMutability":"view","type":"function"},{"inputs":[],"name":"proxiableUUID","outputs":[{"internalType":"bytes32","name":"","type":"bytes32"}],"stateMutability":"view","type":"function"},{"inputs":[{"internalType":"bytes32","name":"role","type":"bytes32"},{"internalType":"address","name":"account","type":"address"}],"name":"renounceRole","outputs":[],"stateMutability":"nonpayable","type":"function"},{"inputs":[{"internalType":"bytes32","name":"role","type":"bytes32"},{"internalType":"address","name":"account","type":"address"}],"name":"revokeRole","outputs":[],"stateMutability":"nonpayable","type":"function"},{"inputs":[{"internalType":"address","name":"from","type":"address"},{"internalType":"address","name":"to","type":"address"},{"internalType":"uint256[]","name":"ids","type":"uint256[]"},{"internalType":"uint256[]","name":"amounts","type":"uint256[]"},{"internalType":"bytes","name":"data","type":"bytes"}],"name":"safeBatchTransferFrom","outputs":[],"stateMutability":"nonpayable","type":"function"},{"inputs":[{"internalType":"address","name":"from","type":"address"},{"internalType":"address","name":"to","type":"address"},{"internalType":"uint256","name":"id","type":"uint256"},{"internalType":"uint256","name":"amount","type":"uint256"},{"internalType":"bytes","name":"data","type":"bytes"}],"name":"safeTransferFrom","outputs":[],"stateMutability":"nonpayable","type":"function"},{"inputs":[{"internalType":"address","name":"operator","type":"address"},{"internalType":"bool","name":"approved","type":"bool"}],"name":"setApprovalForAll","outputs":[],"stateMutability":"nonpayable","type":"function"},{"inputs":[{"internalType":"string","name":"newuri","type":"string"}],"name":"setContractURI","outputs":[],"stateMutability":"nonpayable","type":"function"},{"inputs":[{"internalType":"string","name":"newuri","type":"string"}],"name":"setURI","outputs":[],"stateMutability":"nonpayable","type":"function"},{"inputs":[{"internalType":"bytes4","name":"interfaceId","type":"bytes4"}],"name":"supportsInterface","outputs":[{"internalType":"bool","name":"","type":"bool"}],"stateMutability":"view","type":"function"},{"inputs":[{"internalType":"uint256","name":"id","type":"uint256"}],"name":"totalSupply","outputs":[{"internalType":"uint256","name":"","type":"uint256"}],"stateMutability":"view","type":"function"},{"inputs":[],"name":"unpause","outputs":[],"stateMutability":"nonpayable","type":"function"},{"inputs":[{"internalType":"address","name":"newImplementation","type":"address"}],"name":"upgradeTo","outputs":[],"stateMutability":"nonpayable","type":"function"},{"inputs":[{"internalType":"address","name":"newImplementation","type":"address"},{"internalType":"bytes","name":"data","type":"bytes"}],"name":"upgradeToAndCall","outputs":[],"stateMutability":"payable","type":"function"},{"inputs":[{"internalType":"uint256","name":"","type":"uint256"}],"name":"uri","outputs":[{"internalType":"string","name":"","type":"string"}],"stateMutability":"view","type":"function"}],"evm":{"bytecode":{"linkReferences":{},"object":"60a0604052306080523480156200001557600080fd5b506200002062000026565b620000e8565b600054610100900460ff1615620000935760405162461bcd60e51b815260206004820152602760248201527f496e697469616c697a61626c653a20636f6e747261637420697320696e697469604482015266616c697a696e6760c81b606482015260840160405180910390fd5b60005460ff9081161015620000e6576000805460ff191660ff9081179091556040519081527f7f26b83ff96e1f2b6a682f133852f6798a09c465da95921460cefb38474024989060200160405180910390a15b565b608051613b4f6200012060003960008181610a0801528181610a4801528181610d2401528181610d640152610ddc0152613b4f6000f3fe6080604052600436106101ce5760003560e01c806352d1902d116100f8578063a22cb46511610090578063a22cb46514610560578063bd85b03914610580578063ca15c873146105ae578063d547741f146105ce578063e72db5fd146105ee578063e8a3d48514610610578063e985e9c514610625578063f242432a1461066e578063f5298aca1461068e57600080fd5b806352d1902d1461045c5780635c975abb146104715780636b20c45414610489578063731133e9146104a95780638456cb59146104c95780639010d07c146104de57806391d148541461050b578063938e3d7b1461052b578063a217fddf1461054b57600080fd5b80632f2ff15d1161016b5780632f2ff15d1461033557806336568abe146103555780633659cfe61461037557806338b7f446146103955780633f4ba83a146103b75780634cd88b76146103cc5780634e1273f4146103ec5780634f1ef286146104195780634f558e791461042c57600080fd5b8062fdd58e146101d357806301ffc9a71461020657806302fe53051461023657806306b6ac69146102585780630e89341c146102785780631e7663bc146102a55780631f7fdffa146102c5578063248a9ca3146102e55780632eb2c2d614610315575b600080fd5b3480156101df57600080fd5b506101f36101ee366004612b2b565b6106ae565b6040519081526020015b60405180910390f35b34801561021257600080fd5b50610226610221366004612b6b565b61070a565b60405190151581526020016101fd565b34801561024257600080fd5b50610256610251366004612c3d565b610715565b005b34801561026457600080fd5b506101f3610273366004612c79565b610729565b34801561028457600080fd5b50610298610293366004612cc6565b610765565b6040516101fd9190612d37565b3480156102b157600080fd5b506101f36102c0366004612c3d565b6107f9565b3480156102d157600080fd5b506102566102e0366004612dd6565b61082a565b3480156102f157600080fd5b506101f3610300366004612cc6565b60009081526065602052604090206001015490565b34801561032157600080fd5b50610256610330366004612f14565b610909565b34801561034157600080fd5b50610256610350366004612fbd565b610955565b34801561036157600080fd5b50610256610370366004612fbd565b61097f565b34801561038157600080fd5b50610256610390366004612fe9565b6109fd565b3480156103a157600080fd5b506101f3600080516020613a9383398151915281565b3480156103c357600080fd5b50610256610ac3565b3480156103d857600080fd5b506102566103e7366004613004565b610ad5565b3480156103f857600080fd5b5061040c61040736600461305d565b610bf0565b6040516101fd9190613158565b610256610427366004612c79565b610d19565b34801561043857600080fd5b50610226610447366004612cc6565b60009081526101916020526040902054151590565b34801561046857600080fd5b506101f3610dcf565b34801561047d57600080fd5b5060fb5460ff16610226565b34801561049557600080fd5b506102566104a436600461316b565b610e7e565b3480156104b557600080fd5b506102566104c43660046131de565b610ec1565b3480156104d557600080fd5b50610256610f37565b3480156104ea57600080fd5b506104fe6104f9366004613245565b610f47565b6040516101fd9190613267565b34801561051757600080fd5b50610226610526366004612fbd565b610f5f565b34801561053757600080fd5b50610256610546366004612c3d565b610f8a565b34801561055757600080fd5b506101f3600081565b34801561056c57600080fd5b5061025661057b36600461327b565b610fa6565b34801561058c57600080fd5b506101f361059b366004612cc6565b6000908152610191602052604090205490565b3480156105ba57600080fd5b506101f36105c9366004612cc6565b610fb1565b3480156105da57600080fd5b506102566105e9366004612fbd565b610fc8565b3480156105fa57600080fd5b506101f3600080516020613afa83398151915281565b34801561061c57600080fd5b50610298610fed565b34801561063157600080fd5b506102266106403660046132b7565b6001600160a01b03918216600090815260ca6020908152604080832093909416825291909152205460ff1690565b34801561067a57600080fd5b506102566106893660046132e1565b611080565b34801561069a57600080fd5b506102566106a9366004613345565b6110c5565b60006001600160a01b0383166106df5760405162461bcd60e51b81526004016106d690613378565b60405180910390fd5b50600081815260c9602090815260408083206001600160a01b03861684529091529020545b92915050565b600061070482611108565b61071d611148565b610726816111ac565b50565b60006001600160a01b0383166107515760405162461bcd60e51b81526004016106d690613378565b61075e836101ee846107f9565b9392505050565b606060cb8054610774906133c2565b80601f01602080910402602001604051908101604052809291908181526020018280546107a0906133c2565b80156107ed5780601f106107c2576101008083540402835291602001916107ed565b820191906000526020600020905b8154815290600101906020018083116107d057829003601f168201915b50505050509050919050565b60008160405160200161080c9190612d37565b60408051601f19818403018152919052805160209091012092915050565b610842600080516020613afa83398151915233610f5f565b61085e5760405162461bcd60e51b81526004016106d6906133fd565b6109008787878080602002602001604051908101604052809392919081815260200183836020028082843760009201919091525050604080516020808b0282810182019093528a82529093508a92508991829185019084908082843760009201919091525050604080516020601f8a0181900481028201810190925288815292508891508790819084018382808284376000920191909152506111bf92505050565b50505050505050565b6001600160a01b03851633148061092557506109258533610640565b6109415760405162461bcd60e51b81526004016106d69061344b565b61094e8585858585611308565b5050505050565b600082815260656020526040902060010154610970816114a3565b61097a83836114ad565b505050565b6001600160a01b03811633146109ef5760405162461bcd60e51b815260206004820152602f60248201527f416363657373436f6e74726f6c3a2063616e206f6e6c792072656e6f756e636560448201526e103937b632b9903337b91039b2b63360891b60648201526084016106d6565b6109f982826114cf565b5050565b306001600160a01b037f0000000000000000000000000000000000000000000000000000000000000000161415610a465760405162461bcd60e51b81526004016106d690613499565b7f00000000000000000000000000000000000000000000000000000000000000006001600160a01b0316610a786114f1565b6001600160a01b031614610a9e5760405162461bcd60e51b81526004016106d6906134e5565b610aa78161150d565b6040805160008082526020820190925261072691839190611515565b610acb611148565b610ad3611680565b565b600054610100900460ff1615808015610af55750600054600160ff909116105b80610b165750610b04306116cc565b158015610b16575060005460ff166001145b610b795760405162461bcd60e51b815260206004820152602e60248201527f496e697469616c697a61626c653a20636f6e747261637420697320616c72656160448201526d191e481a5b9a5d1a585b1a5e995960921b60648201526084016106d6565b6000805460ff191660011790558015610b9c576000805461ff0019166101001790555b610ba683836116db565b801561097a576000805461ff0019169055604051600181527f7f26b83ff96e1f2b6a682f133852f6798a09c465da95921460cefb38474024989060200160405180910390a1505050565b60608151835114610c555760405162461bcd60e51b815260206004820152602960248201527f455243313135353a206163636f756e747320616e6420696473206c656e677468604482015268040dad2e6dac2e8c6d60bb1b60648201526084016106d6565b600083516001600160401b03811115610c7057610c70612b88565b604051908082528060200260200182016040528015610c99578160200160208202803683370190505b50905060005b8451811015610d1157610ce4858281518110610cbd57610cbd613531565b6020026020010151858381518110610cd757610cd7613531565b60200260200101516106ae565b828281518110610cf657610cf6613531565b6020908102919091010152610d0a8161355d565b9050610c9f565b509392505050565b306001600160a01b037f0000000000000000000000000000000000000000000000000000000000000000161415610d625760405162461bcd60e51b81526004016106d690613499565b7f00000000000000000000000000000000000000000000000000000000000000006001600160a01b0316610d946114f1565b6001600160a01b031614610dba5760405162461bcd60e51b81526004016106d6906134e5565b610dc38261150d565b6109f982826001611515565b6000306001600160a01b037f00000000000000000000000000000000000000000000000000000000000000001614610e6a5760405162461bcd60e51b815260206004820152603860248201527f555550535570677261646561626c653a206d757374206e6f742062652063616c6044820152771b1959081d1a1c9bdd59da0819195b1959d85d1958d85b1b60421b60648201526084016106d6565b50600080516020613ab38339815191525b90565b6001600160a01b038316331480610e9a5750610e9a8333610640565b610eb65760405162461bcd60e51b81526004016106d69061344b565b61097a838383611748565b610ed9600080516020613afa83398151915233610f5f565b610ef55760405162461bcd60e51b81526004016106d6906133fd565b61094e85858585858080601f0160208091040260200160405190810160405280939291908181526020018383808284376000920191909152506118d792505050565b610f3f611148565b610ad36119a7565b600082815260976020526040812061075e90836119e4565b60009182526065602090815260408084206001600160a01b0393909316845291905290205460ff1690565b610f92611148565b80516109f990610227906020840190612a76565b6109f93383836119f0565b600081815260976020526040812061070490611ad1565b600082815260656020526040902060010154610fe3816114a3565b61097a83836114cf565b60606102278054610ffd906133c2565b80601f0160208091040260200160405190810160405280929190818152602001828054611029906133c2565b80156110765780601f1061104b57610100808354040283529160200191611076565b820191906000526020600020905b81548152906001019060200180831161105957829003601f168201915b5050505050905090565b6001600160a01b03851633148061109c575061109c8533610640565b6110b85760405162461bcd60e51b81526004016106d69061344b565b61094e8585858585611adb565b6001600160a01b0383163314806110e157506110e18333610640565b6110fd5760405162461bcd60e51b81526004016106d69061344b565b61097a838383611c05565b60006001600160e01b03198216636cdb3d1360e11b148061113957506001600160e01b031982166303a24d0760e21b145b80610704575061070482611d0f565b611160600080516020613a9383398151915233610f5f565b610ad35760405162461bcd60e51b815260206004820181905260248201527f4b72656269744e46543a206d757374206861766520676f7665726e20726f6c6560448201526064016106d6565b80516109f99060cb906020840190612a76565b6001600160a01b0384166111e55760405162461bcd60e51b81526004016106d690613578565b81518351146112065760405162461bcd60e51b81526004016106d6906135b9565b3361121681600087878787611d34565b60005b84518110156112b25783818151811061123457611234613531565b602002602001015160c9600087848151811061125257611252613531565b602002602001015181526020019081526020016000206000886001600160a01b03166001600160a01b03168152602001908152602001600020600082825461129a9190613601565b909155508190506112aa8161355d565b915050611219565b50846001600160a01b031660006001600160a01b0316826001600160a01b0316600080516020613a5383398151915287876040516112f1929190613619565b60405180910390a461094e81600087878787611ddd565b81518351146113295760405162461bcd60e51b81526004016106d6906135b9565b6001600160a01b03841661134f5760405162461bcd60e51b81526004016106d69061363e565b3361135e818787878787611d34565b60005b845181101561144757600085828151811061137e5761137e613531565b60200260200101519050600085838151811061139c5761139c613531565b602090810291909101810151600084815260c9835260408082206001600160a01b038e1683529093529190912054909150818110156113ed5760405162461bcd60e51b81526004016106d690613683565b600083815260c9602090815260408083206001600160a01b038e8116855292528083208585039055908b1682528120805484929061142c908490613601565b92505081905550505050806114409061355d565b9050611361565b50846001600160a01b0316866001600160a01b0316826001600160a01b0316600080516020613a538339815191528787604051611485929190613619565b60405180910390a461149b818787878787611ddd565b505050505050565b6107268133611f40565b6114b78282611f99565b600082815260976020526040902061097a908261201f565b6114d98282612034565b600082815260976020526040902061097a908261209b565b600080516020613ab3833981519152546001600160a01b031690565b610726611148565b7f4910fdfa16fed3260ed0e7147f7cc6da11a60208b5b9406d12a635614ffd91435460ff16156115485761097a836120b0565b826001600160a01b03166352d1902d6040518163ffffffff1660e01b8152600401602060405180830381865afa9250505080156115a2575060408051601f3d908101601f1916820190925261159f918101906136cd565b60015b6116055760405162461bcd60e51b815260206004820152602e60248201527f45524331393637557067726164653a206e657720696d706c656d656e7461746960448201526d6f6e206973206e6f74205555505360901b60648201526084016106d6565b600080516020613ab383398151915281146116745760405162461bcd60e51b815260206004820152602960248201527f45524331393637557067726164653a20756e737570706f727465642070726f786044820152681a58589b195555525160ba1b60648201526084016106d6565b5061097a83838361214a565b61168861216f565b60fb805460ff191690557f5db9ee0a495bf2e6ff9c91a7834c1ba4fdd244a5e8aa4e537bd38aeae4b073aa335b6040516116c29190613267565b60405180910390a1565b6001600160a01b03163b151590565b600054610100900460ff166117025760405162461bcd60e51b81526004016106d6906136e6565b61170b826121b8565b6117136121df565b61171b612206565b6117236121df565b61172b6121df565b805161173f90610227906020840190612a76565b506109f9612239565b6001600160a01b03831661176e5760405162461bcd60e51b81526004016106d690613731565b805182511461178f5760405162461bcd60e51b81526004016106d6906135b9565b60003390506117b281856000868660405180602001604052806000815250611d34565b60005b835181101561187a5760008482815181106117d2576117d2613531565b6020026020010151905060008483815181106117f0576117f0613531565b602090810291909101810151600084815260c9835260408082206001600160a01b038c1683529093529190912054909150818110156118415760405162461bcd60e51b81526004016106d690613774565b600092835260c9602090815260408085206001600160a01b038b16865290915290922091039055806118728161355d565b9150506117b5565b5060006001600160a01b0316846001600160a01b0316826001600160a01b0316600080516020613a5383398151915286866040516118b9929190613619565b60405180910390a46040805160208101909152600090525b50505050565b6001600160a01b0384166118fd5760405162461bcd60e51b81526004016106d690613578565b33600061190985612283565b9050600061191685612283565b905061192783600089858589611d34565b600086815260c9602090815260408083206001600160a01b038b16845290915281208054879290611959908490613601565b909155505060408051878152602081018790526001600160a01b03808a169260009291871691600080516020613a73833981519152910160405180910390a4610900836000898989896122ce565b6119af612390565b60fb805460ff191660011790557f62e78cea01bee320cd4e420270b5ea74000d11b0c9f74754ebdbfc544b05a2586116b53390565b600061075e83836123d6565b816001600160a01b0316836001600160a01b03161415611a645760405162461bcd60e51b815260206004820152602960248201527f455243313135353a2073657474696e6720617070726f76616c20737461747573604482015268103337b91039b2b63360b91b60648201526084016106d6565b6001600160a01b03838116600081815260ca6020908152604080832094871680845294825291829020805460ff191686151590811790915591519182527f17307eab39ab6107e8899845ad3d59bd9653f200f220920489ca2b5937696c31910160405180910390a3505050565b6000610704825490565b6001600160a01b038416611b015760405162461bcd60e51b81526004016106d69061363e565b336000611b0d85612283565b90506000611b1a85612283565b9050611b2a838989858589611d34565b600086815260c9602090815260408083206001600160a01b038c16845290915290205485811015611b6d5760405162461bcd60e51b81526004016106d690613683565b600087815260c9602090815260408083206001600160a01b038d8116855292528083208985039055908a16825281208054889290611bac908490613601565b909155505060408051888152602081018890526001600160a01b03808b16928c82169291881691600080516020613a73833981519152910160405180910390a4611bfa848a8a8a8a8a6122ce565b505050505050505050565b6001600160a01b038316611c2b5760405162461bcd60e51b81526004016106d690613731565b336000611c3784612283565b90506000611c4484612283565b9050611c6483876000858560405180602001604052806000815250611d34565b600085815260c9602090815260408083206001600160a01b038a16845290915290205484811015611ca75760405162461bcd60e51b81526004016106d690613774565b600086815260c9602090815260408083206001600160a01b038b81168086529184528285208a8703905582518b81529384018a9052909290881691600080516020613a73833981519152910160405180910390a4604080516020810190915260009052610900565b60006001600160e01b03198216635a05180f60e01b1480610704575061070482612400565b611d3c612390565b611d4a868686868686612435565b611d62600080516020613a9383398151915233610f5f565b80611d7457506001600160a01b038516155b80611d8657506001600160a01b038416155b61149b5760405162461bcd60e51b815260206004820152602260248201527f4b72656269744e46543a205472616e7366657273206e6f7420737570706f7274604482015261195960f21b60648201526084016106d6565b611def846001600160a01b03166116cc565b1561149b5760405163bc197c8160e01b81526001600160a01b0385169063bc197c8190611e2890899089908890889088906004016137b8565b6020604051808303816000875af1925050508015611e63575060408051601f3d908101601f19168201909252611e6091810190613816565b60015b611f1057611e6f613833565b806308c379a01415611ea95750611e8461384e565b80611e8f5750611eab565b8060405162461bcd60e51b81526004016106d69190612d37565b505b60405162461bcd60e51b815260206004820152603460248201527f455243313135353a207472616e7366657220746f206e6f6e2d455243313135356044820152732932b1b2b4bb32b91034b6b83632b6b2b73a32b960611b60648201526084016106d6565b6001600160e01b0319811663bc197c8160e01b146109005760405162461bcd60e51b81526004016106d6906138d7565b611f4a8282610f5f565b6109f957611f57816125bf565b611f628360206125d1565b604051602001611f7392919061391f565b60408051601f198184030181529082905262461bcd60e51b82526106d691600401612d37565b611fa38282610f5f565b6109f95760008281526065602090815260408083206001600160a01b03851684529091529020805460ff19166001179055611fdb3390565b6001600160a01b0316816001600160a01b0316837f2f8788117e7eff1d82e926ec794901d17c78024a50270940304540a733656f0d60405160405180910390a45050565b600061075e836001600160a01b03841661276c565b61203e8282610f5f565b156109f95760008281526065602090815260408083206001600160a01b0385168085529252808320805460ff1916905551339285917ff6391f5c32d9c69d2a47ea670b442974b53935d1edc7fd64eb21e047a839171b9190a45050565b600061075e836001600160a01b0384166127bb565b6120b9816116cc565b61211b5760405162461bcd60e51b815260206004820152602d60248201527f455243313936373a206e657720696d706c656d656e746174696f6e206973206e60448201526c1bdd08184818dbdb9d1c9858dd609a1b60648201526084016106d6565b600080516020613ab383398151915280546001600160a01b0319166001600160a01b0392909216919091179055565b612153836128ae565b6000825111806121605750805b1561097a576118d183836128ee565b60fb5460ff16610ad35760405162461bcd60e51b815260206004820152601460248201527314185d5cd8589b194e881b9bdd081c185d5cd95960621b60448201526064016106d6565b600054610100900460ff1661071d5760405162461bcd60e51b81526004016106d6906136e6565b600054610100900460ff16610ad35760405162461bcd60e51b81526004016106d6906136e6565b600054610100900460ff1661222d5760405162461bcd60e51b81526004016106d6906136e6565b60fb805460ff19169055565b600054610100900460ff166122605760405162461bcd60e51b81526004016106d6906136e6565b61226b6000336129e0565b610ad3600080516020613a93833981519152336129e0565b604080516001808252818301909252606091600091906020808301908036833701905050905082816000815181106122bd576122bd613531565b602090810291909101015292915050565b6122e0846001600160a01b03166116cc565b1561149b5760405163f23a6e6160e01b81526001600160a01b0385169063f23a6e6190612319908990899088908890889060040161398e565b6020604051808303816000875af1925050508015612354575060408051601f3d908101601f1916820190925261235191810190613816565b60015b61236057611e6f613833565b6001600160e01b0319811663f23a6e6160e01b146109005760405162461bcd60e51b81526004016106d6906138d7565b60fb5460ff1615610ad35760405162461bcd60e51b815260206004820152601060248201526f14185d5cd8589b194e881c185d5cd95960821b60448201526064016106d6565b60008260000182815481106123ed576123ed613531565b9060005260206000200154905092915050565b60006001600160e01b03198216637965db0b60e01b148061070457506301ffc9a760e01b6001600160e01b0319831614610704565b6124438686868686866129ea565b6001600160a01b0385166124cb5760005b83518110156124c95782818151811061246f5761246f613531565b6020026020010151610191600086848151811061248e5761248e613531565b6020026020010151815260200190815260200160002060008282546124b39190613601565b909155506124c290508161355d565b9050612454565b505b6001600160a01b03841661149b5760005b83518110156109005760008482815181106124f9576124f9613531565b60200260200101519050600084838151811061251757612517613531565b60200260200101519050600061019160008481526020019081526020016000205490508181101561259b5760405162461bcd60e51b815260206004820152602860248201527f455243313135353a206275726e20616d6f756e74206578636565647320746f74604482015267616c537570706c7960c01b60648201526084016106d6565b60009283526101916020526040909220910390556125b88161355d565b90506124dc565b60606107046001600160a01b03831660145b606060006125e08360026139d3565b6125eb906002613601565b6001600160401b0381111561260257612602612b88565b6040519080825280601f01601f19166020018201604052801561262c576020820181803683370190505b509050600360fc1b8160008151811061264757612647613531565b60200101906001600160f81b031916908160001a905350600f60fb1b8160018151811061267657612676613531565b60200101906001600160f81b031916908160001a905350600061269a8460026139d3565b6126a5906001613601565b90505b600181111561271d576f181899199a1a9b1b9c1cb0b131b232b360811b85600f16601081106126d9576126d9613531565b1a60f81b8282815181106126ef576126ef613531565b60200101906001600160f81b031916908160001a90535060049490941c93612716816139f2565b90506126a8565b50831561075e5760405162461bcd60e51b815260206004820181905260248201527f537472696e67733a20686578206c656e67746820696e73756666696369656e7460448201526064016106d6565b60008181526001830160205260408120546127b357508154600181810184556000848152602080822090930184905584548482528286019093526040902091909155610704565b506000610704565b600081815260018301602052604081205480156128a45760006127df600183613a09565b85549091506000906127f390600190613a09565b905081811461285857600086600001828154811061281357612813613531565b906000526020600020015490508087600001848154811061283657612836613531565b6000918252602080832090910192909255918252600188019052604090208390555b855486908061286957612869613a20565b600190038181906000526020600020016000905590558560010160008681526020019081526020016000206000905560019350505050610704565b6000915050610704565b6128b7816120b0565b6040516001600160a01b038216907fbc7cd75a20ee27fd9adebab32041f755214dbc6bffa90cc0225b39da2e5c2d3b90600090a250565b60606128f9836116cc565b6129545760405162461bcd60e51b815260206004820152602660248201527f416464726573733a2064656c65676174652063616c6c20746f206e6f6e2d636f6044820152651b9d1c9858dd60d21b60648201526084016106d6565b600080846001600160a01b03168460405161296f9190613a36565b600060405180830381855af49150503d80600081146129aa576040519150601f19603f3d011682016040523d82523d6000602084013e6129af565b606091505b50915091506129d78282604051806060016040528060278152602001613ad360279139612a52565b95945050505050565b6109f982826114ad565b60fb5460ff161561149b5760405162461bcd60e51b815260206004820152602c60248201527f455243313135355061757361626c653a20746f6b656e207472616e736665722060448201526b1dda1a5b19481c185d5cd95960a21b60648201526084016106d6565b60608315612a6157508161075e565b61075e8383815115611e8f5781518083602001fd5b828054612a82906133c2565b90600052602060002090601f016020900481019282612aa45760008555612aea565b82601f10612abd57805160ff1916838001178555612aea565b82800160010185558215612aea579182015b82811115612aea578251825591602001919060010190612acf565b50612af6929150612afa565b5090565b5b80821115612af65760008155600101612afb565b80356001600160a01b0381168114612b2657600080fd5b919050565b60008060408385031215612b3e57600080fd5b612b4783612b0f565b946020939093013593505050565b6001600160e01b03198116811461072657600080fd5b600060208284031215612b7d57600080fd5b813561075e81612b55565b634e487b7160e01b600052604160045260246000fd5b601f8201601f191681016001600160401b0381118282101715612bc357612bc3612b88565b6040525050565b600082601f830112612bdb57600080fd5b81356001600160401b03811115612bf457612bf4612b88565b604051612c0b601f8301601f191660200182612b9e565b818152846020838601011115612c2057600080fd5b816020850160208301376000918101602001919091529392505050565b600060208284031215612c4f57600080fd5b81356001600160401b03811115612c6557600080fd5b612c7184828501612bca565b949350505050565b60008060408385031215612c8c57600080fd5b612c9583612b0f565b915060208301356001600160401b03811115612cb057600080fd5b612cbc85828601612bca565b9150509250929050565b600060208284031215612cd857600080fd5b5035919050565b60005b83811015612cfa578181015183820152602001612ce2565b838111156118d15750506000910152565b60008151808452612d23816020860160208601612cdf565b601f01601f19169290920160200192915050565b60208152600061075e6020830184612d0b565b60008083601f840112612d5c57600080fd5b5081356001600160401b03811115612d7357600080fd5b6020830191508360208260051b8501011115612d8e57600080fd5b9250929050565b60008083601f840112612da757600080fd5b5081356001600160401b03811115612dbe57600080fd5b602083019150836020828501011115612d8e57600080fd5b60008060008060008060006080888a031215612df157600080fd5b612dfa88612b0f565b965060208801356001600160401b0380821115612e1657600080fd5b612e228b838c01612d4a565b909850965060408a0135915080821115612e3b57600080fd5b612e478b838c01612d4a565b909650945060608a0135915080821115612e6057600080fd5b50612e6d8a828b01612d95565b989b979a50959850939692959293505050565b60006001600160401b03821115612e9957612e99612b88565b5060051b60200190565b600082601f830112612eb457600080fd5b81356020612ec182612e80565b604051612ece8282612b9e565b83815260059390931b8501820192828101915086841115612eee57600080fd5b8286015b84811015612f095780358352918301918301612ef2565b509695505050505050565b600080600080600060a08688031215612f2c57600080fd5b612f3586612b0f565b9450612f4360208701612b0f565b935060408601356001600160401b0380821115612f5f57600080fd5b612f6b89838a01612ea3565b94506060880135915080821115612f8157600080fd5b612f8d89838a01612ea3565b93506080880135915080821115612fa357600080fd5b50612fb088828901612bca565b9150509295509295909350565b60008060408385031215612fd057600080fd5b82359150612fe060208401612b0f565b90509250929050565b600060208284031215612ffb57600080fd5b61075e82612b0f565b6000806040838503121561301757600080fd5b82356001600160401b038082111561302e57600080fd5b61303a86838701612bca565b9350602085013591508082111561305057600080fd5b50612cbc85828601612bca565b6000806040838503121561307057600080fd5b82356001600160401b038082111561308757600080fd5b818501915085601f83011261309b57600080fd5b813560206130a882612e80565b6040516130b58282612b9e565b83815260059390931b85018201928281019150898411156130d557600080fd5b948201945b838610156130fa576130eb86612b0f565b825294820194908201906130da565b9650508601359250508082111561311057600080fd5b50612cbc85828601612ea3565b600081518084526020808501945080840160005b8381101561314d57815187529582019590820190600101613131565b509495945050505050565b60208152600061075e602083018461311d565b60008060006060848603121561318057600080fd5b61318984612b0f565b925060208401356001600160401b03808211156131a557600080fd5b6131b187838801612ea3565b935060408601359150808211156131c757600080fd5b506131d486828701612ea3565b9150509250925092565b6000806000806000608086880312156131f657600080fd5b6131ff86612b0f565b9450602086013593506040860135925060608601356001600160401b0381111561322857600080fd5b61323488828901612d95565b969995985093965092949392505050565b6000806040838503121561325857600080fd5b50508035926020909101359150565b6001600160a01b0391909116815260200190565b6000806040838503121561328e57600080fd5b61329783612b0f565b9150602083013580151581146132ac57600080fd5b809150509250929050565b600080604083850312156132ca57600080fd5b6132d383612b0f565b9150612fe060208401612b0f565b600080600080600060a086880312156132f957600080fd5b61330286612b0f565b945061331060208701612b0f565b9350604086013592506060860135915060808601356001600160401b0381111561333957600080fd5b612fb088828901612bca565b60008060006060848603121561335a57600080fd5b61336384612b0f565b95602085013595506040909401359392505050565b6020808252602a908201527f455243313135353a2061646472657373207a65726f206973206e6f742061207660408201526930b634b21037bbb732b960b11b606082015260800190565b600181811c908216806133d657607f821691505b602082108114156133f757634e487b7160e01b600052602260045260246000fd5b50919050565b6020808252602e908201527f44756d6d794d696e7461626c65455243313135353a20494e535546464943494560408201526d4e545f5045524d495353494f4e5360901b606082015260800190565b6020808252602e908201527f455243313135353a2063616c6c6572206973206e6f7420746f6b656e206f776e60408201526d195c881bdc88185c1c1c9bdd995960921b606082015260800190565b6020808252602c908201527f46756e6374696f6e206d7573742062652063616c6c6564207468726f7567682060408201526b19195b1959d85d1958d85b1b60a21b606082015260800190565b6020808252602c908201527f46756e6374696f6e206d7573742062652063616c6c6564207468726f7567682060408201526b6163746976652070726f787960a01b606082015260800190565b634e487b7160e01b600052603260045260246000fd5b634e487b7160e01b600052601160045260246000fd5b600060001982141561357157613571613547565b5060010190565b60208082526021908201527f455243313135353a206d696e7420746f20746865207a65726f206164647265736040820152607360f81b606082015260800190565b60208082526028908201527f455243313135353a2069647320616e6420616d6f756e7473206c656e677468206040820152670dad2e6dac2e8c6d60c31b606082015260800190565b6000821982111561361457613614613547565b500190565b60408152600061362c604083018561311d565b82810360208401526129d7818561311d565b60208082526025908201527f455243313135353a207472616e7366657220746f20746865207a65726f206164604082015264647265737360d81b606082015260800190565b6020808252602a908201527f455243313135353a20696e73756666696369656e742062616c616e636520666f60408201526939103a3930b739b332b960b11b606082015260800190565b6000602082840312156136df57600080fd5b5051919050565b6020808252602b908201527f496e697469616c697a61626c653a20636f6e7472616374206973206e6f74206960408201526a6e697469616c697a696e6760a81b606082015260800190565b60208082526023908201527f455243313135353a206275726e2066726f6d20746865207a65726f206164647260408201526265737360e81b606082015260800190565b60208082526024908201527f455243313135353a206275726e20616d6f756e7420657863656564732062616c604082015263616e636560e01b606082015260800190565b6001600160a01b0386811682528516602082015260a0604082018190526000906137e49083018661311d565b82810360608401526137f6818661311d565b9050828103608084015261380a8185612d0b565b98975050505050505050565b60006020828403121561382857600080fd5b815161075e81612b55565b600060033d1115610e7b5760046000803e5060005160e01c90565b600060443d101561385c5790565b6040516003193d81016004833e81513d6001600160401b03816024840111818411171561388b57505050505090565b82850191508151818111156138a35750505050505090565b843d87010160208285010111156138bd5750505050505090565b6138cc60208286010187612b9e565b509095945050505050565b60208082526028908201527f455243313135353a204552433131353552656365697665722072656a656374656040820152676420746f6b656e7360c01b606082015260800190565b76020b1b1b2b9b9a1b7b73a3937b61d1030b1b1b7bab73a1604d1b815260008351613951816017850160208801612cdf565b7001034b99036b4b9b9b4b733903937b6329607d1b6017918401918201528351613982816028840160208801612cdf565b01602801949350505050565b6001600160a01b03868116825285166020820152604081018490526060810183905260a0608082018190526000906139c890830184612d0b565b979650505050505050565b60008160001904831182151516156139ed576139ed613547565b500290565b600081613a0157613a01613547565b506000190190565b600082821015613a1b57613a1b613547565b500390565b634e487b7160e01b600052603160045260246000fd5b60008251613a48818460208701612cdf565b919091019291505056fe4a39dc06d4c0dbc64b70af90fd698a233a518aa5d07e595d983b8c0526c8f7fbc3d58168c5ae7397731d063d5bbf3d657854427343f4c083240f7aacaa2d0f62899bd46557473cb80307a9dabc297131ced39608330a2d29b2d52b660c03923e360894a13ba1a3210667c828492db98dca3e2076cc3735a920a3ca505d382bbc416464726573733a206c6f772d6c6576656c2064656c65676174652063616c6c206661696c656412ff340d0cd9c652c747ca35727e68c547d0f0bfa7758d2e77f75acef481b4f2a2646970667358221220eb91ae5ee20eb342ab8375a0f7ac9de5a6e59f23a80c5a5ab19bf9597bff375364736f6c634300080c0033","opcodes":"PUSH1 0xA0 PUSH1 0x40 MSTORE ADDRESS PUSH1 0x80 MSTORE CALLVALUE DUP1 ISZERO PUSH3 0x15 JUMPI PUSH1 0x0 DUP1 REVERT JUMPDEST POP PUSH3 0x20 PUSH3 0x26 JUMP JUMPDEST PUSH3 0xE8 JUMP JUMPDEST PUSH1 0x0 SLOAD PUSH2 0x100 SWAP1 DIV PUSH1 0xFF AND ISZERO PUSH3 0x93 JUMPI PUSH1 0x40 MLOAD PUSH3 0x461BCD PUSH1 0xE5 SHL DUP2 MSTORE PUSH1 0x20 PUSH1 0x4 DUP3 ADD MSTORE PUSH1 0x27 PUSH1 0x24 DUP3 ADD MSTORE PUSH32 0x496E697469616C697A61626C653A20636F6E747261637420697320696E697469 PUSH1 0x44 DUP3 ADD MSTORE PUSH7 0x616C697A696E67 PUSH1 0xC8 SHL PUSH1 0x64 DUP3 ADD MSTORE PUSH1 0x84 ADD PUSH1 0x40 MLOAD DUP1 SWAP2 SUB SWAP1 REVERT JUMPDEST PUSH1 0x0 SLOAD PUSH1 0xFF SWAP1 DUP2 AND LT ISZERO PUSH3 0xE6 JUMPI PUSH1 0x0 DUP1 SLOAD PUSH1 0xFF NOT AND PUSH1 0xFF SWAP1 DUP2 OR SWAP1 SWAP2 SSTORE PUSH1 0x40 MLOAD SWAP1 DUP2 MSTORE PUSH32 0x7F26B83FF96E1F2B6A682F133852F6798A09C465DA95921460CEFB3847402498 SWAP1 PUSH1 0x20 ADD PUSH1 0x40 MLOAD DUP1 SWAP2 SUB SWAP1 LOG1 JUMPDEST JUMP JUMPDEST PUSH1 0x80 MLOAD PUSH2 0x3B4F PUSH3 0x120 PUSH1 0x0 CODECOPY PUSH1 0x0 DUP2 DUP2 PUSH2 0xA08 ADD MSTORE DUP2 DUP2 PUSH2 0xA48 ADD MSTORE DUP2 DUP2 PUSH2 0xD24 ADD MSTORE DUP2 DUP2 PUSH2 0xD64 ADD MSTORE PUSH2 0xDDC ADD MSTORE PUSH2 0x3B4F PUSH1 0x0 RETURN INVALID PUSH1 0x80 PUSH1 0x40 MSTORE PUSH1 0x4 CALLDATASIZE LT PUSH2 0x1CE JUMPI PUSH1 0x0 CALLDATALOAD PUSH1 0xE0 SHR DUP1 PUSH4 0x52D1902D GT PUSH2 0xF8 JUMPI DUP1 PUSH4 0xA22CB465 GT PUSH2 0x90 JUMPI DUP1 PUSH4 0xA22CB465 EQ PUSH2 0x560 JUMPI DUP1 PUSH4 0xBD85B039 EQ PUSH2 0x580 JUMPI DUP1 PUSH4 0xCA15C873 EQ PUSH2 0x5AE JUMPI DUP1 PUSH4 0xD547741F EQ PUSH2 0x5CE JUMPI DUP1 PUSH4 0xE72DB5FD EQ PUSH2 0x5EE JUMPI DUP1 PUSH4 0xE8A3D485 EQ PUSH2 0x610 JUMPI DUP1 PUSH4 0xE985E9C5 EQ PUSH2 0x625 JUMPI DUP1 PUSH4 0xF242432A EQ PUSH2 0x66E JUMPI DUP1 PUSH4 0xF5298ACA EQ PUSH2 0x68E JUMPI PUSH1 0x0 DUP1 REVERT JUMPDEST DUP1 PUSH4 0x52D1902D EQ PUSH2 0x45C JUMPI DUP1 PUSH4 0x5C975ABB EQ PUSH2 0x471 JUMPI DUP1 PUSH4 0x6B20C454 EQ PUSH2 0x489 JUMPI DUP1 PUSH4 0x731133E9 EQ PUSH2 0x4A9 JUMPI DUP1 PUSH4 0x8456CB59 EQ PUSH2 0x4C9 JUMPI DUP1 PUSH4 0x9010D07C EQ PUSH2 0x4DE JUMPI DUP1 PUSH4 0x91D14854 EQ PUSH2 0x50B JUMPI DUP1 PUSH4 0x938E3D7B EQ PUSH2 0x52B JUMPI DUP1 PUSH4 0xA217FDDF EQ PUSH2 0x54B JUMPI PUSH1 0x0 DUP1 REVERT JUMPDEST DUP1 PUSH4 0x2F2FF15D GT PUSH2 0x16B JUMPI DUP1 PUSH4 0x2F2FF15D EQ PUSH2 0x335 JUMPI DUP1 PUSH4 0x36568ABE EQ PUSH2 0x355 JUMPI DUP1 PUSH4 0x3659CFE6 EQ PUSH2 0x375 JUMPI DUP1 PUSH4 0x38B7F446 EQ PUSH2 0x395 JUMPI DUP1 PUSH4 0x3F4BA83A EQ PUSH2 0x3B7 JUMPI DUP1 PUSH4 0x4CD88B76 EQ PUSH2 0x3CC JUMPI DUP1 PUSH4 0x4E1273F4 EQ PUSH2 0x3EC JUMPI DUP1 PUSH4 0x4F1EF286 EQ PUSH2 0x419 JUMPI DUP1 PUSH4 0x4F558E79 EQ PUSH2 0x42C JUMPI PUSH1 0x0 DUP1 REVERT JUMPDEST DUP1 PUSH3 0xFDD58E EQ PUSH2 0x1D3 JUMPI DUP1 PUSH4 0x1FFC9A7 EQ PUSH2 0x206 JUMPI DUP1 PUSH4 0x2FE5305 EQ PUSH2 0x236 JUMPI DUP1 PUSH4 0x6B6AC69 EQ PUSH2 0x258 JUMPI DUP1 PUSH4 0xE89341C EQ PUSH2 0x278 JUMPI DUP1 PUSH4 0x1E7663BC EQ PUSH2 0x2A5 JUMPI DUP1 PUSH4 0x1F7FDFFA EQ PUSH2 0x2C5 JUMPI DUP1 PUSH4 0x248A9CA3 EQ PUSH2 0x2E5 JUMPI DUP1 PUSH4 0x2EB2C2D6 EQ PUSH2 0x315 JUMPI JUMPDEST PUSH1 0x0 DUP1 REVERT JUMPDEST CALLVALUE DUP1 ISZERO PUSH2 0x1DF JUMPI PUSH1 0x0 DUP1 REVERT JUMPDEST POP PUSH2 0x1F3 PUSH2 0x1EE CALLDATASIZE PUSH1 0x4 PUSH2 0x2B2B JUMP JUMPDEST PUSH2 0x6AE JUMP JUMPDEST PUSH1 0x40 MLOAD SWAP1 DUP2 MSTORE PUSH1 0x20 ADD JUMPDEST PUSH1 0x40 MLOAD DUP1 SWAP2 SUB SWAP1 RETURN JUMPDEST CALLVALUE DUP1 ISZERO PUSH2 0x212 JUMPI PUSH1 0x0 DUP1 REVERT JUMPDEST POP PUSH2 0x226 PUSH2 0x221 CALLDATASIZE PUSH1 0x4 PUSH2 0x2B6B JUMP JUMPDEST PUSH2 0x70A JUMP JUMPDEST PUSH1 0x40 MLOAD SWAP1 ISZERO ISZERO DUP2 MSTORE PUSH1 0x20 ADD PUSH2 0x1FD JUMP JUMPDEST CALLVALUE DUP1 ISZERO PUSH2 0x242 JUMPI PUSH1 0x0 DUP1 REVERT JUMPDEST POP PUSH2 0x256 PUSH2 0x251 CALLDATASIZE PUSH1 0x4 PUSH2 0x2C3D JUMP JUMPDEST PUSH2 0x715 JUMP JUMPDEST STOP JUMPDEST CALLVALUE DUP1 ISZERO PUSH2 0x264 JUMPI PUSH1 0x0 DUP1 REVERT JUMPDEST POP PUSH2 0x1F3 PUSH2 0x273 CALLDATASIZE PUSH1 0x4 PUSH2 0x2C79 JUMP JUMPDEST PUSH2 0x729 JUMP JUMPDEST CALLVALUE DUP1 ISZERO PUSH2 0x284 JUMPI PUSH1 0x0 DUP1 REVERT JUMPDEST POP PUSH2 0x298 PUSH2 0x293 CALLDATASIZE PUSH1 0x4 PUSH2 0x2CC6 JUMP JUMPDEST PUSH2 0x765 JUMP JUMPDEST PUSH1 0x40 MLOAD PUSH2 0x1FD SWAP2 SWAP1 PUSH2 0x2D37 JUMP JUMPDEST CALLVALUE DUP1 ISZERO PUSH2 0x2B1 JUMPI PUSH1 0x0 DUP1 REVERT JUMPDEST POP PUSH2 0x1F3 PUSH2 0x2C0 CALLDATASIZE PUSH1 0x4 PUSH2 0x2C3D JUMP JUMPDEST PUSH2 0x7F9 JUMP JUMPDEST CALLVALUE DUP1 ISZERO PUSH2 0x2D1 JUMPI PUSH1 0x0 DUP1 REVERT JUMPDEST POP PUSH2 0x256 PUSH2 0x2E0 CALLDATASIZE PUSH1 0x4 PUSH2 0x2DD6 JUMP JUMPDEST PUSH2 0x82A JUMP JUMPDEST CALLVALUE DUP1 ISZERO PUSH2 0x2F1 JUMPI PUSH1 0x0 DUP1 REVERT JUMPDEST POP PUSH2 0x1F3 PUSH2 0x300 CALLDATASIZE PUSH1 0x4 PUSH2 0x2CC6 JUMP JUMPDEST PUSH1 0x0 SWAP1 DUP2 MSTORE PUSH1 0x65 PUSH1 0x20 MSTORE PUSH1 0x40 SWAP1 KECCAK256 PUSH1 0x1 ADD SLOAD SWAP1 JUMP JUMPDEST CALLVALUE DUP1 ISZERO PUSH2 0x321 JUMPI PUSH1 0x0 DUP1 REVERT JUMPDEST POP PUSH2 0x256 PUSH2 0x330 CALLDATASIZE PUSH1 0x4 PUSH2 0x2F14 JUMP JUMPDEST PUSH2 0x909 JUMP JUMPDEST CALLVALUE DUP1 ISZERO PUSH2 0x341 JUMPI PUSH1 0x0 DUP1 REVERT JUMPDEST POP PUSH2 0x256 PUSH2 0x350 CALLDATASIZE PUSH1 0x4 PUSH2 0x2FBD JUMP JUMPDEST PUSH2 0x955 JUMP JUMPDEST CALLVALUE DUP1 ISZERO PUSH2 0x361 JUMPI PUSH1 0x0 DUP1 REVERT JUMPDEST POP PUSH2 0x256 PUSH2 0x370 CALLDATASIZE PUSH1 0x4 PUSH2 0x2FBD JUMP JUMPDEST PUSH2 0x97F JUMP JUMPDEST CALLVALUE DUP1 ISZERO PUSH2 0x381 JUMPI PUSH1 0x0 DUP1 REVERT JUMPDEST POP PUSH2 0x256 PUSH2 0x390 CALLDATASIZE PUSH1 0x4 PUSH2 0x2FE9 JUMP JUMPDEST PUSH2 0x9FD JUMP JUMPDEST CALLVALUE DUP1 ISZERO PUSH2 0x3A1 JUMPI PUSH1 0x0 DUP1 REVERT JUMPDEST POP PUSH2 0x1F3 PUSH1 0x0 DUP1 MLOAD PUSH1 0x20 PUSH2 0x3A93 DUP4 CODECOPY DUP2 MLOAD SWAP2 MSTORE DUP2 JUMP JUMPDEST CALLVALUE DUP1 ISZERO PUSH2 0x3C3 JUMPI PUSH1 0x0 DUP1 REVERT JUMPDEST POP PUSH2 0x256 PUSH2 0xAC3 JUMP JUMPDEST CALLVALUE DUP1 ISZERO PUSH2 0x3D8 JUMPI PUSH1 0x0 DUP1 REVERT JUMPDEST POP PUSH2 0x256 PUSH2 0x3E7 CALLDATASIZE PUSH1 0x4 PUSH2 0x3004 JUMP JUMPDEST PUSH2 0xAD5 JUMP JUMPDEST CALLVALUE DUP1 ISZERO PUSH2 0x3F8 JUMPI PUSH1 0x0 DUP1 REVERT JUMPDEST POP PUSH2 0x40C PUSH2 0x407 CALLDATASIZE PUSH1 0x4 PUSH2 0x305D JUMP JUMPDEST PUSH2 0xBF0 JUMP JUMPDEST PUSH1 0x40 MLOAD PUSH2 0x1FD SWAP2 SWAP1 PUSH2 0x3158 JUMP JUMPDEST PUSH2 0x256 PUSH2 0x427 CALLDATASIZE PUSH1 0x4 PUSH2 0x2C79 JUMP JUMPDEST PUSH2 0xD19 JUMP JUMPDEST CALLVALUE DUP1 ISZERO PUSH2 0x438 JUMPI PUSH1 0x0 DUP1 REVERT JUMPDEST POP PUSH2 0x226 PUSH2 0x447 CALLDATASIZE PUSH1 0x4 PUSH2 0x2CC6 JUMP JUMPDEST PUSH1 0x0 SWAP1 DUP2 MSTORE PUSH2 0x191 PUSH1 0x20 MSTORE PUSH1 0x40 SWAP1 KECCAK256 SLOAD ISZERO ISZERO SWAP1 JUMP JUMPDEST CALLVALUE DUP1 ISZERO PUSH2 0x468 JUMPI PUSH1 0x0 DUP1 REVERT JUMPDEST POP PUSH2 0x1F3 PUSH2 0xDCF JUMP JUMPDEST CALLVALUE DUP1 ISZERO PUSH2 0x47D JUMPI PUSH1 0x0 DUP1 REVERT JUMPDEST POP PUSH1 0xFB SLOAD PUSH1 0xFF AND PUSH2 0x226 JUMP JUMPDEST CALLVALUE DUP1 ISZERO PUSH2 0x495 JUMPI PUSH1 0x0 DUP1 REVERT JUMPDEST POP PUSH2 0x256 PUSH2 0x4A4 CALLDATASIZE PUSH1 0x4 PUSH2 0x316B JUMP JUMPDEST PUSH2 0xE7E JUMP JUMPDEST CALLVALUE DUP1 ISZERO PUSH2 0x4B5 JUMPI PUSH1 0x0 DUP1 REVERT JUMPDEST POP PUSH2 0x256 PUSH2 0x4C4 CALLDATASIZE PUSH1 0x4 PUSH2 0x31DE JUMP JUMPDEST PUSH2 0xEC1 JUMP JUMPDEST CALLVALUE DUP1 ISZERO PUSH2 0x4D5 JUMPI PUSH1 0x0 DUP1 REVERT JUMPDEST POP PUSH2 0x256 PUSH2 0xF37 JUMP JUMPDEST CALLVALUE DUP1 ISZERO PUSH2 0x4EA JUMPI PUSH1 0x0 DUP1 REVERT JUMPDEST POP PUSH2 0x4FE PUSH2 0x4F9 CALLDATASIZE PUSH1 0x4 PUSH2 0x3245 JUMP JUMPDEST PUSH2 0xF47 JUMP JUMPDEST PUSH1 0x40 MLOAD PUSH2 0x1FD SWAP2 SWAP1 PUSH2 0x3267 JUMP JUMPDEST CALLVALUE DUP1 ISZERO PUSH2 0x517 JUMPI PUSH1 0x0 DUP1 REVERT JUMPDEST POP PUSH2 0x226 PUSH2 0x526 CALLDATASIZE PUSH1 0x4 PUSH2 0x2FBD JUMP JUMPDEST PUSH2 0xF5F JUMP JUMPDEST CALLVALUE DUP1 ISZERO PUSH2 0x537 JUMPI PUSH1 0x0 DUP1 REVERT JUMPDEST POP PUSH2 0x256 PUSH2 0x546 CALLDATASIZE PUSH1 0x4 PUSH2 0x2C3D JUMP JUMPDEST PUSH2 0xF8A JUMP JUMPDEST CALLVALUE DUP1 ISZERO PUSH2 0x557 JUMPI PUSH1 0x0 DUP1 REVERT JUMPDEST POP PUSH2 0x1F3 PUSH1 0x0 DUP2 JUMP JUMPDEST CALLVALUE DUP1 ISZERO PUSH2 0x56C JUMPI PUSH1 0x0 DUP1 REVERT JUMPDEST POP PUSH2 0x256 PUSH2 0x57B CALLDATASIZE PUSH1 0x4 PUSH2 0x327B JUMP JUMPDEST PUSH2 0xFA6 JUMP JUMPDEST CALLVALUE DUP1 ISZERO PUSH2 0x58C JUMPI PUSH1 0x0 DUP1 REVERT JUMPDEST POP PUSH2 0x1F3 PUSH2 0x59B CALLDATASIZE PUSH1 0x4 PUSH2 0x2CC6 JUMP JUMPDEST PUSH1 0x0 SWAP1 DUP2 MSTORE PUSH2 0x191 PUSH1 0x20 MSTORE PUSH1 0x40 SWAP1 KECCAK256 SLOAD SWAP1 JUMP JUMPDEST CALLVALUE DUP1 ISZERO PUSH2 0x5BA JUMPI PUSH1 0x0 DUP1 REVERT JUMPDEST POP PUSH2 0x1F3 PUSH2 0x5C9 CALLDATASIZE PUSH1 0x4 PUSH2 0x2CC6 JUMP JUMPDEST PUSH2 0xFB1 JUMP JUMPDEST CALLVALUE DUP1 ISZERO PUSH2 0x5DA JUMPI PUSH1 0x0 DUP1 REVERT JUMPDEST POP PUSH2 0x256 PUSH2 0x5E9 CALLDATASIZE PUSH1 0x4 PUSH2 0x2FBD JUMP JUMPDEST PUSH2 0xFC8 JUMP JUMPDEST CALLVALUE DUP1 ISZERO PUSH2 0x5FA JUMPI PUSH1 0x0 DUP1 REVERT JUMPDEST POP PUSH2 0x1F3 PUSH1 0x0 DUP1 MLOAD PUSH1 0x20 PUSH2 0x3AFA DUP4 CODECOPY DUP2 MLOAD SWAP2 MSTORE DUP2 JUMP JUMPDEST CALLVALUE DUP1 ISZERO PUSH2 0x61C JUMPI PUSH1 0x0 DUP1 REVERT JUMPDEST POP PUSH2 0x298 PUSH2 0xFED JUMP JUMPDEST CALLVALUE DUP1 ISZERO PUSH2 0x631 JUMPI PUSH1 0x0 DUP1 REVERT JUMPDEST POP PUSH2 0x226 PUSH2 0x640 CALLDATASIZE PUSH1 0x4 PUSH2 0x32B7 JUMP JUMPDEST PUSH1 0x1 PUSH1 0x1 PUSH1 0xA0 SHL SUB SWAP2 DUP3 AND PUSH1 0x0 SWAP1 DUP2 MSTORE PUSH1 0xCA PUSH1 0x20 SWAP1 DUP2 MSTORE PUSH1 0x40 DUP1 DUP4 KECCAK256 SWAP4 SWAP1 SWAP5 AND DUP3 MSTORE SWAP2 SWAP1 SWAP2 MSTORE KECCAK256 SLOAD PUSH1 0xFF AND SWAP1 JUMP JUMPDEST CALLVALUE DUP1 ISZERO PUSH2 0x67A JUMPI PUSH1 0x0 DUP1 REVERT JUMPDEST POP PUSH2 0x256 PUSH2 0x689 CALLDATASIZE PUSH1 0x4 PUSH2 0x32E1 JUMP JUMPDEST PUSH2 0x1080 JUMP JUMPDEST CALLVALUE DUP1 ISZERO PUSH2 0x69A JUMPI PUSH1 0x0 DUP1 REVERT JUMPDEST POP PUSH2 0x256 PUSH2 0x6A9 CALLDATASIZE PUSH1 0x4 PUSH2 0x3345 JUMP JUMPDEST PUSH2 0x10C5 JUMP JUMPDEST PUSH1 0x0 PUSH1 0x1 PUSH1 0x1 PUSH1 0xA0 SHL SUB DUP4 AND PUSH2 0x6DF JUMPI PUSH1 0x40 MLOAD PUSH3 0x461BCD PUSH1 0xE5 SHL DUP2 MSTORE PUSH1 0x4 ADD PUSH2 0x6D6 SWAP1 PUSH2 0x3378 JUMP JUMPDEST PUSH1 0x40 MLOAD DUP1 SWAP2 SUB SWAP1 REVERT JUMPDEST POP PUSH1 0x0 DUP2 DUP2 MSTORE PUSH1 0xC9 PUSH1 0x20 SWAP1 DUP2 MSTORE PUSH1 0x40 DUP1 DUP4 KECCAK256 PUSH1 0x1 PUSH1 0x1 PUSH1 0xA0 SHL SUB DUP7 AND DUP5 MSTORE SWAP1 SWAP2 MSTORE SWAP1 KECCAK256 SLOAD JUMPDEST SWAP3 SWAP2 POP POP JUMP JUMPDEST PUSH1 0x0 PUSH2 0x704 DUP3 PUSH2 0x1108 JUMP JUMPDEST PUSH2 0x71D PUSH2 0x1148 JUMP JUMPDEST PUSH2 0x726 DUP2 PUSH2 0x11AC JUMP JUMPDEST POP JUMP JUMPDEST PUSH1 0x0 PUSH1 0x1 PUSH1 0x1 PUSH1 0xA0 SHL SUB DUP4 AND PUSH2 0x751 JUMPI PUSH1 0x40 MLOAD PUSH3 0x461BCD PUSH1 0xE5 SHL DUP2 MSTORE PUSH1 0x4 ADD PUSH2 0x6D6 SWAP1 PUSH2 0x3378 JUMP JUMPDEST PUSH2 0x75E DUP4 PUSH2 0x1EE DUP5 PUSH2 0x7F9 JUMP JUMPDEST SWAP4 SWAP3 POP POP POP JUMP JUMPDEST PUSH1 0x60 PUSH1 0xCB DUP1 SLOAD PUSH2 0x774 SWAP1 PUSH2 0x33C2 JUMP JUMPDEST DUP1 PUSH1 0x1F ADD PUSH1 0x20 DUP1 SWAP2 DIV MUL PUSH1 0x20 ADD PUSH1 0x40 MLOAD SWAP1 DUP2 ADD PUSH1 0x40 MSTORE DUP1 SWAP3 SWAP2 SWAP1 DUP2 DUP2 MSTORE PUSH1 0x20 ADD DUP3 DUP1 SLOAD PUSH2 0x7A0 SWAP1 PUSH2 0x33C2 JUMP JUMPDEST DUP1 ISZERO PUSH2 0x7ED JUMPI DUP1 PUSH1 0x1F LT PUSH2 0x7C2 JUMPI PUSH2 0x100 DUP1 DUP4 SLOAD DIV MUL DUP4 MSTORE SWAP2 PUSH1 0x20 ADD SWAP2 PUSH2 0x7ED JUMP JUMPDEST DUP3 ADD SWAP2 SWAP1 PUSH1 0x0 MSTORE PUSH1 0x20 PUSH1 0x0 KECCAK256 SWAP1 JUMPDEST DUP2 SLOAD DUP2 MSTORE SWAP1 PUSH1 0x1 ADD SWAP1 PUSH1 0x20 ADD DUP1 DUP4 GT PUSH2 0x7D0 JUMPI DUP3 SWAP1 SUB PUSH1 0x1F AND DUP3 ADD SWAP2 JUMPDEST POP POP POP POP POP SWAP1 POP SWAP2 SWAP1 POP JUMP JUMPDEST PUSH1 0x0 DUP2 PUSH1 0x40 MLOAD PUSH1 0x20 ADD PUSH2 0x80C SWAP2 SWAP1 PUSH2 0x2D37 JUMP JUMPDEST PUSH1 0x40 DUP1 MLOAD PUSH1 0x1F NOT DUP2 DUP5 SUB ADD DUP2 MSTORE SWAP2 SWAP1 MSTORE DUP1 MLOAD PUSH1 0x20 SWAP1 SWAP2 ADD KECCAK256 SWAP3 SWAP2 POP POP JUMP JUMPDEST PUSH2 0x842 PUSH1 0x0 DUP1 MLOAD PUSH1 0x20 PUSH2 0x3AFA DUP4 CODECOPY DUP2 MLOAD SWAP2 MSTORE CALLER PUSH2 0xF5F JUMP JUMPDEST PUSH2 0x85E JUMPI PUSH1 0x40 MLOAD PUSH3 0x461BCD PUSH1 0xE5 SHL DUP2 MSTORE PUSH1 0x4 ADD PUSH2 0x6D6 SWAP1 PUSH2 0x33FD JUMP JUMPDEST PUSH2 0x900 DUP8 DUP8 DUP8 DUP1 DUP1 PUSH1 0x20 MUL PUSH1 0x20 ADD PUSH1 0x40 MLOAD SWAP1 DUP2 ADD PUSH1 0x40 MSTORE DUP1 SWAP4 SWAP3 SWAP2 SWAP1 DUP2 DUP2 MSTORE PUSH1 0x20 ADD DUP4 DUP4 PUSH1 0x20 MUL DUP1 DUP3 DUP5 CALLDATACOPY PUSH1 0x0 SWAP3 ADD SWAP2 SWAP1 SWAP2 MSTORE POP POP PUSH1 0x40 DUP1 MLOAD PUSH1 0x20 DUP1 DUP12 MUL DUP3 DUP2 ADD DUP3 ADD SWAP1 SWAP4 MSTORE DUP11 DUP3 MSTORE SWAP1 SWAP4 POP DUP11 SWAP3 POP DUP10 SWAP2 DUP3 SWAP2 DUP6 ADD SWAP1 DUP5 SWAP1 DUP1 DUP3 DUP5 CALLDATACOPY PUSH1 0x0 SWAP3 ADD SWAP2 SWAP1 SWAP2 MSTORE POP POP PUSH1 0x40 DUP1 MLOAD PUSH1 0x20 PUSH1 0x1F DUP11 ADD DUP2 SWAP1 DIV DUP2 MUL DUP3 ADD DUP2 ADD SWAP1 SWAP3 MSTORE DUP9 DUP2 MSTORE SWAP3 POP DUP9 SWAP2 POP DUP8 SWAP1 DUP2 SWAP1 DUP5 ADD DUP4 DUP3 DUP1 DUP3 DUP5 CALLDATACOPY PUSH1 0x0 SWAP3 ADD SWAP2 SWAP1 SWAP2 MSTORE POP PUSH2 0x11BF SWAP3 POP POP POP JUMP JUMPDEST POP POP POP POP POP POP POP JUMP JUMPDEST PUSH1 0x1 PUSH1 0x1 PUSH1 0xA0 SHL SUB DUP6 AND CALLER EQ DUP1 PUSH2 0x925 JUMPI POP PUSH2 0x925 DUP6 CALLER PUSH2 0x640 JUMP JUMPDEST PUSH2 0x941 JUMPI PUSH1 0x40 MLOAD PUSH3 0x461BCD PUSH1 0xE5 SHL DUP2 MSTORE PUSH1 0x4 ADD PUSH2 0x6D6 SWAP1 PUSH2 0x344B JUMP JUMPDEST PUSH2 0x94E DUP6 DUP6 DUP6 DUP6 DUP6 PUSH2 0x1308 JUMP JUMPDEST POP POP POP POP POP JUMP JUMPDEST PUSH1 0x0 DUP3 DUP2 MSTORE PUSH1 0x65 PUSH1 0x20 MSTORE PUSH1 0x40 SWAP1 KECCAK256 PUSH1 0x1 ADD SLOAD PUSH2 0x970 DUP2 PUSH2 0x14A3 JUMP JUMPDEST PUSH2 0x97A DUP4 DUP4 PUSH2 0x14AD JUMP JUMPDEST POP POP POP JUMP JUMPDEST PUSH1 0x1 PUSH1 0x1 PUSH1 0xA0 SHL SUB DUP2 AND CALLER EQ PUSH2 0x9EF JUMPI PUSH1 0x40 MLOAD PUSH3 0x461BCD PUSH1 0xE5 SHL DUP2 MSTORE PUSH1 0x20 PUSH1 0x4 DUP3 ADD MSTORE PUSH1 0x2F PUSH1 0x24 DUP3 ADD MSTORE PUSH32 0x416363657373436F6E74726F6C3A2063616E206F6E6C792072656E6F756E6365 PUSH1 0x44 DUP3 ADD MSTORE PUSH15 0x103937B632B9903337B91039B2B633 PUSH1 0x89 SHL PUSH1 0x64 DUP3 ADD MSTORE PUSH1 0x84 ADD PUSH2 0x6D6 JUMP JUMPDEST PUSH2 0x9F9 DUP3 DUP3 PUSH2 0x14CF JUMP JUMPDEST POP POP JUMP JUMPDEST ADDRESS PUSH1 0x1 PUSH1 0x1 PUSH1 0xA0 SHL SUB PUSH32 0x0 AND EQ ISZERO PUSH2 0xA46 JUMPI PUSH1 0x40 MLOAD PUSH3 0x461BCD PUSH1 0xE5 SHL DUP2 MSTORE PUSH1 0x4 ADD PUSH2 0x6D6 SWAP1 PUSH2 0x3499 JUMP JUMPDEST PUSH32 0x0 PUSH1 0x1 PUSH1 0x1 PUSH1 0xA0 SHL SUB AND PUSH2 0xA78 PUSH2 0x14F1 JUMP JUMPDEST PUSH1 0x1 PUSH1 0x1 PUSH1 0xA0 SHL SUB AND EQ PUSH2 0xA9E JUMPI PUSH1 0x40 MLOAD PUSH3 0x461BCD PUSH1 0xE5 SHL DUP2 MSTORE PUSH1 0x4 ADD PUSH2 0x6D6 SWAP1 PUSH2 0x34E5 JUMP JUMPDEST PUSH2 0xAA7 DUP2 PUSH2 0x150D JUMP JUMPDEST PUSH1 0x40 DUP1 MLOAD PUSH1 0x0 DUP1 DUP3 MSTORE PUSH1 0x20 DUP3 ADD SWAP1 SWAP3 MSTORE PUSH2 0x726 SWAP2 DUP4 SWAP2 SWAP1 PUSH2 0x1515 JUMP JUMPDEST PUSH2 0xACB PUSH2 0x1148 JUMP JUMPDEST PUSH2 0xAD3 PUSH2 0x1680 JUMP JUMPDEST JUMP JUMPDEST PUSH1 0x0 SLOAD PUSH2 0x100 SWAP1 DIV PUSH1 0xFF AND ISZERO DUP1 DUP1 ISZERO PUSH2 0xAF5 JUMPI POP PUSH1 0x0 SLOAD PUSH1 0x1 PUSH1 0xFF SWAP1 SWAP2 AND LT JUMPDEST DUP1 PUSH2 0xB16 JUMPI POP PUSH2 0xB04 ADDRESS PUSH2 0x16CC JUMP JUMPDEST ISZERO DUP1 ISZERO PUSH2 0xB16 JUMPI POP PUSH1 0x0 SLOAD PUSH1 0xFF AND PUSH1 0x1 EQ JUMPDEST PUSH2 0xB79 JUMPI PUSH1 0x40 MLOAD PUSH3 0x461BCD PUSH1 0xE5 SHL DUP2 MSTORE PUSH1 0x20 PUSH1 0x4 DUP3 ADD MSTORE PUSH1 0x2E PUSH1 0x24 DUP3 ADD MSTORE PUSH32 0x496E697469616C697A61626C653A20636F6E747261637420697320616C726561 PUSH1 0x44 DUP3 ADD MSTORE PUSH14 0x191E481A5B9A5D1A585B1A5E9959 PUSH1 0x92 SHL PUSH1 0x64 DUP3 ADD MSTORE PUSH1 0x84 ADD PUSH2 0x6D6 JUMP JUMPDEST PUSH1 0x0 DUP1 SLOAD PUSH1 0xFF NOT AND PUSH1 0x1 OR SWAP1 SSTORE DUP1 ISZERO PUSH2 0xB9C JUMPI PUSH1 0x0 DUP1 SLOAD PUSH2 0xFF00 NOT AND PUSH2 0x100 OR SWAP1 SSTORE JUMPDEST PUSH2 0xBA6 DUP4 DUP4 PUSH2 0x16DB JUMP JUMPDEST DUP1 ISZERO PUSH2 0x97A JUMPI PUSH1 0x0 DUP1 SLOAD PUSH2 0xFF00 NOT AND SWAP1 SSTORE PUSH1 0x40 MLOAD PUSH1 0x1 DUP2 MSTORE PUSH32 0x7F26B83FF96E1F2B6A682F133852F6798A09C465DA95921460CEFB3847402498 SWAP1 PUSH1 0x20 ADD PUSH1 0x40 MLOAD DUP1 SWAP2 SUB SWAP1 LOG1 POP POP POP JUMP JUMPDEST PUSH1 0x60 DUP2 MLOAD DUP4 MLOAD EQ PUSH2 0xC55 JUMPI PUSH1 0x40 MLOAD PUSH3 0x461BCD PUSH1 0xE5 SHL DUP2 MSTORE PUSH1 0x20 PUSH1 0x4 DUP3 ADD MSTORE PUSH1 0x29 PUSH1 0x24 DUP3 ADD MSTORE PUSH32 0x455243313135353A206163636F756E747320616E6420696473206C656E677468 PUSH1 0x44 DUP3 ADD MSTORE PUSH9 0x40DAD2E6DAC2E8C6D PUSH1 0xBB SHL PUSH1 0x64 DUP3 ADD MSTORE PUSH1 0x84 ADD PUSH2 0x6D6 JUMP JUMPDEST PUSH1 0x0 DUP4 MLOAD PUSH1 0x1 PUSH1 0x1 PUSH1 0x40 SHL SUB DUP2 GT ISZERO PUSH2 0xC70 JUMPI PUSH2 0xC70 PUSH2 0x2B88 JUMP JUMPDEST PUSH1 0x40 MLOAD SWAP1 DUP1 DUP3 MSTORE DUP1 PUSH1 0x20 MUL PUSH1 0x20 ADD DUP3 ADD PUSH1 0x40 MSTORE DUP1 ISZERO PUSH2 0xC99 JUMPI DUP2 PUSH1 0x20 ADD PUSH1 0x20 DUP3 MUL DUP1 CALLDATASIZE DUP4 CALLDATACOPY ADD SWAP1 POP JUMPDEST POP SWAP1 POP PUSH1 0x0 JUMPDEST DUP5 MLOAD DUP2 LT ISZERO PUSH2 0xD11 JUMPI PUSH2 0xCE4 DUP6 DUP3 DUP2 MLOAD DUP2 LT PUSH2 0xCBD JUMPI PUSH2 0xCBD PUSH2 0x3531 JUMP JUMPDEST PUSH1 0x20 MUL PUSH1 0x20 ADD ADD MLOAD DUP6 DUP4 DUP2 MLOAD DUP2 LT PUSH2 0xCD7 JUMPI PUSH2 0xCD7 PUSH2 0x3531 JUMP JUMPDEST PUSH1 0x20 MUL PUSH1 0x20 ADD ADD MLOAD PUSH2 0x6AE JUMP JUMPDEST DUP3 DUP3 DUP2 MLOAD DUP2 LT PUSH2 0xCF6 JUMPI PUSH2 0xCF6 PUSH2 0x3531 JUMP JUMPDEST PUSH1 0x20 SWAP1 DUP2 MUL SWAP2 SWAP1 SWAP2 ADD ADD MSTORE PUSH2 0xD0A DUP2 PUSH2 0x355D JUMP JUMPDEST SWAP1 POP PUSH2 0xC9F JUMP JUMPDEST POP SWAP4 SWAP3 POP POP POP JUMP JUMPDEST ADDRESS PUSH1 0x1 PUSH1 0x1 PUSH1 0xA0 SHL SUB PUSH32 0x0 AND EQ ISZERO PUSH2 0xD62 JUMPI PUSH1 0x40 MLOAD PUSH3 0x461BCD PUSH1 0xE5 SHL DUP2 MSTORE PUSH1 0x4 ADD PUSH2 0x6D6 SWAP1 PUSH2 0x3499 JUMP JUMPDEST PUSH32 0x0 PUSH1 0x1 PUSH1 0x1 PUSH1 0xA0 SHL SUB AND PUSH2 0xD94 PUSH2 0x14F1 JUMP JUMPDEST PUSH1 0x1 PUSH1 0x1 PUSH1 0xA0 SHL SUB AND EQ PUSH2 0xDBA JUMPI PUSH1 0x40 MLOAD PUSH3 0x461BCD PUSH1 0xE5 SHL DUP2 MSTORE PUSH1 0x4 ADD PUSH2 0x6D6 SWAP1 PUSH2 0x34E5 JUMP JUMPDEST PUSH2 0xDC3 DUP3 PUSH2 0x150D JUMP JUMPDEST PUSH2 0x9F9 DUP3 DUP3 PUSH1 0x1 PUSH2 0x1515 JUMP JUMPDEST PUSH1 0x0 ADDRESS PUSH1 0x1 PUSH1 0x1 PUSH1 0xA0 SHL SUB PUSH32 0x0 AND EQ PUSH2 0xE6A JUMPI PUSH1 0x40 MLOAD PUSH3 0x461BCD PUSH1 0xE5 SHL DUP2 MSTORE PUSH1 0x20 PUSH1 0x4 DUP3 ADD MSTORE PUSH1 0x38 PUSH1 0x24 DUP3 ADD MSTORE PUSH32 0x555550535570677261646561626C653A206D757374206E6F742062652063616C PUSH1 0x44 DUP3 ADD MSTORE PUSH24 0x1B1959081D1A1C9BDD59DA0819195B1959D85D1958D85B1B PUSH1 0x42 SHL PUSH1 0x64 DUP3 ADD MSTORE PUSH1 0x84 ADD PUSH2 0x6D6 JUMP JUMPDEST POP PUSH1 0x0 DUP1 MLOAD PUSH1 0x20 PUSH2 0x3AB3 DUP4 CODECOPY DUP2 MLOAD SWAP2 MSTORE JUMPDEST SWAP1 JUMP JUMPDEST PUSH1 0x1 PUSH1 0x1 PUSH1 0xA0 SHL SUB DUP4 AND CALLER EQ DUP1 PUSH2 0xE9A JUMPI POP PUSH2 0xE9A DUP4 CALLER PUSH2 0x640 JUMP JUMPDEST PUSH2 0xEB6 JUMPI PUSH1 0x40 MLOAD PUSH3 0x461BCD PUSH1 0xE5 SHL DUP2 MSTORE PUSH1 0x4 ADD PUSH2 0x6D6 SWAP1 PUSH2 0x344B JUMP JUMPDEST PUSH2 0x97A DUP4 DUP4 DUP4 PUSH2 0x1748 JUMP JUMPDEST PUSH2 0xED9 PUSH1 0x0 DUP1 MLOAD PUSH1 0x20 PUSH2 0x3AFA DUP4 CODECOPY DUP2 MLOAD SWAP2 MSTORE CALLER PUSH2 0xF5F JUMP JUMPDEST PUSH2 0xEF5 JUMPI PUSH1 0x40 MLOAD PUSH3 0x461BCD PUSH1 0xE5 SHL DUP2 MSTORE PUSH1 0x4 ADD PUSH2 0x6D6 SWAP1 PUSH2 0x33FD JUMP JUMPDEST PUSH2 0x94E DUP6 DUP6 DUP6 DUP6 DUP6 DUP1 DUP1 PUSH1 0x1F ADD PUSH1 0x20 DUP1 SWAP2 DIV MUL PUSH1 0x20 ADD PUSH1 0x40 MLOAD SWAP1 DUP2 ADD PUSH1 0x40 MSTORE DUP1 SWAP4 SWAP3 SWAP2 SWAP1 DUP2 DUP2 MSTORE PUSH1 0x20 ADD DUP4 DUP4 DUP1 DUP3 DUP5 CALLDATACOPY PUSH1 0x0 SWAP3 ADD SWAP2 SWAP1 SWAP2 MSTORE POP PUSH2 0x18D7 SWAP3 POP POP POP JUMP JUMPDEST PUSH2 0xF3F PUSH2 0x1148 JUMP JUMPDEST PUSH2 0xAD3 PUSH2 0x19A7 JUMP JUMPDEST PUSH1 0x0 DUP3 DUP2 MSTORE PUSH1 0x97 PUSH1 0x20 MSTORE PUSH1 0x40 DUP2 KECCAK256 PUSH2 0x75E SWAP1 DUP4 PUSH2 0x19E4 JUMP JUMPDEST PUSH1 0x0 SWAP2 DUP3 MSTORE PUSH1 0x65 PUSH1 0x20 SWAP1 DUP2 MSTORE PUSH1 0x40 DUP1 DUP5 KECCAK256 PUSH1 0x1 PUSH1 0x1 PUSH1 0xA0 SHL SUB SWAP4 SWAP1 SWAP4 AND DUP5 MSTORE SWAP2 SWAP1 MSTORE SWAP1 KECCAK256 SLOAD PUSH1 0xFF AND SWAP1 JUMP JUMPDEST PUSH2 0xF92 PUSH2 0x1148 JUMP JUMPDEST DUP1 MLOAD PUSH2 0x9F9 SWAP1 PUSH2 0x227 SWAP1 PUSH1 0x20 DUP5 ADD SWAP1 PUSH2 0x2A76 JUMP JUMPDEST PUSH2 0x9F9 CALLER DUP4 DUP4 PUSH2 0x19F0 JUMP JUMPDEST PUSH1 0x0 DUP2 DUP2 MSTORE PUSH1 0x97 PUSH1 0x20 MSTORE PUSH1 0x40 DUP2 KECCAK256 PUSH2 0x704 SWAP1 PUSH2 0x1AD1 JUMP JUMPDEST PUSH1 0x0 DUP3 DUP2 MSTORE PUSH1 0x65 PUSH1 0x20 MSTORE PUSH1 0x40 SWAP1 KECCAK256 PUSH1 0x1 ADD SLOAD PUSH2 0xFE3 DUP2 PUSH2 0x14A3 JUMP JUMPDEST PUSH2 0x97A DUP4 DUP4 PUSH2 0x14CF JUMP JUMPDEST PUSH1 0x60 PUSH2 0x227 DUP1 SLOAD PUSH2 0xFFD SWAP1 PUSH2 0x33C2 JUMP JUMPDEST DUP1 PUSH1 0x1F ADD PUSH1 0x20 DUP1 SWAP2 DIV MUL PUSH1 0x20 ADD PUSH1 0x40 MLOAD SWAP1 DUP2 ADD PUSH1 0x40 MSTORE DUP1 SWAP3 SWAP2 SWAP1 DUP2 DUP2 MSTORE PUSH1 0x20 ADD DUP3 DUP1 SLOAD PUSH2 0x1029 SWAP1 PUSH2 0x33C2 JUMP JUMPDEST DUP1 ISZERO PUSH2 0x1076 JUMPI DUP1 PUSH1 0x1F LT PUSH2 0x104B JUMPI PUSH2 0x100 DUP1 DUP4 SLOAD DIV MUL DUP4 MSTORE SWAP2 PUSH1 0x20 ADD SWAP2 PUSH2 0x1076 JUMP JUMPDEST DUP3 ADD SWAP2 SWAP1 PUSH1 0x0 MSTORE PUSH1 0x20 PUSH1 0x0 KECCAK256 SWAP1 JUMPDEST DUP2 SLOAD DUP2 MSTORE SWAP1 PUSH1 0x1 ADD SWAP1 PUSH1 0x20 ADD DUP1 DUP4 GT PUSH2 0x1059 JUMPI DUP3 SWAP1 SUB PUSH1 0x1F AND DUP3 ADD SWAP2 JUMPDEST POP POP POP POP POP SWAP1 POP SWAP1 JUMP JUMPDEST PUSH1 0x1 PUSH1 0x1 PUSH1 0xA0 SHL SUB DUP6 AND CALLER EQ DUP1 PUSH2 0x109C JUMPI POP PUSH2 0x109C DUP6 CALLER PUSH2 0x640 JUMP JUMPDEST PUSH2 0x10B8 JUMPI PUSH1 0x40 MLOAD PUSH3 0x461BCD PUSH1 0xE5 SHL DUP2 MSTORE PUSH1 0x4 ADD PUSH2 0x6D6 SWAP1 PUSH2 0x344B JUMP JUMPDEST PUSH2 0x94E DUP6 DUP6 DUP6 DUP6 DUP6 PUSH2 0x1ADB JUMP JUMPDEST PUSH1 0x1 PUSH1 0x1 PUSH1 0xA0 SHL SUB DUP4 AND CALLER EQ DUP1 PUSH2 0x10E1 JUMPI POP PUSH2 0x10E1 DUP4 CALLER PUSH2 0x640 JUMP JUMPDEST PUSH2 0x10FD JUMPI PUSH1 0x40 MLOAD PUSH3 0x461BCD PUSH1 0xE5 SHL DUP2 MSTORE PUSH1 0x4 ADD PUSH2 0x6D6 SWAP1 PUSH2 0x344B JUMP JUMPDEST PUSH2 0x97A DUP4 DUP4 DUP4 PUSH2 0x1C05 JUMP JUMPDEST PUSH1 0x0 PUSH1 0x1 PUSH1 0x1 PUSH1 0xE0 SHL SUB NOT DUP3 AND PUSH4 0x6CDB3D13 PUSH1 0xE1 SHL EQ DUP1 PUSH2 0x1139 JUMPI POP PUSH1 0x1 PUSH1 0x1 PUSH1 0xE0 SHL SUB NOT DUP3 AND PUSH4 0x3A24D07 PUSH1 0xE2 SHL EQ JUMPDEST DUP1 PUSH2 0x704 JUMPI POP PUSH2 0x704 DUP3 PUSH2 0x1D0F JUMP JUMPDEST PUSH2 0x1160 PUSH1 0x0 DUP1 MLOAD PUSH1 0x20 PUSH2 0x3A93 DUP4 CODECOPY DUP2 MLOAD SWAP2 MSTORE CALLER PUSH2 0xF5F JUMP JUMPDEST PUSH2 0xAD3 JUMPI PUSH1 0x40 MLOAD PUSH3 0x461BCD PUSH1 0xE5 SHL DUP2 MSTORE PUSH1 0x20 PUSH1 0x4 DUP3 ADD DUP2 SWAP1 MSTORE PUSH1 0x24 DUP3 ADD MSTORE PUSH32 0x4B72656269744E46543A206D757374206861766520676F7665726E20726F6C65 PUSH1 0x44 DUP3 ADD MSTORE PUSH1 0x64 ADD PUSH2 0x6D6 JUMP JUMPDEST DUP1 MLOAD PUSH2 0x9F9 SWAP1 PUSH1 0xCB SWAP1 PUSH1 0x20 DUP5 ADD SWAP1 PUSH2 0x2A76 JUMP JUMPDEST PUSH1 0x1 PUSH1 0x1 PUSH1 0xA0 SHL SUB DUP5 AND PUSH2 0x11E5 JUMPI PUSH1 0x40 MLOAD PUSH3 0x461BCD PUSH1 0xE5 SHL DUP2 MSTORE PUSH1 0x4 ADD PUSH2 0x6D6 SWAP1 PUSH2 0x3578 JUMP JUMPDEST DUP2 MLOAD DUP4 MLOAD EQ PUSH2 0x1206 JUMPI PUSH1 0x40 MLOAD PUSH3 0x461BCD PUSH1 0xE5 SHL DUP2 MSTORE PUSH1 0x4 ADD PUSH2 0x6D6 SWAP1 PUSH2 0x35B9 JUMP JUMPDEST CALLER PUSH2 0x1216 DUP2 PUSH1 0x0 DUP8 DUP8 DUP8 DUP8 PUSH2 0x1D34 JUMP JUMPDEST PUSH1 0x0 JUMPDEST DUP5 MLOAD DUP2 LT ISZERO PUSH2 0x12B2 JUMPI DUP4 DUP2 DUP2 MLOAD DUP2 LT PUSH2 0x1234 JUMPI PUSH2 0x1234 PUSH2 0x3531 JUMP JUMPDEST PUSH1 0x20 MUL PUSH1 0x20 ADD ADD MLOAD PUSH1 0xC9 PUSH1 0x0 DUP8 DUP5 DUP2 MLOAD DUP2 LT PUSH2 0x1252 JUMPI PUSH2 0x1252 PUSH2 0x3531 JUMP JUMPDEST PUSH1 0x20 MUL PUSH1 0x20 ADD ADD MLOAD DUP2 MSTORE PUSH1 0x20 ADD SWAP1 DUP2 MSTORE PUSH1 0x20 ADD PUSH1 0x0 KECCAK256 PUSH1 0x0 DUP9 PUSH1 0x1 PUSH1 0x1 PUSH1 0xA0 SHL SUB AND PUSH1 0x1 PUSH1 0x1 PUSH1 0xA0 SHL SUB AND DUP2 MSTORE PUSH1 0x20 ADD SWAP1 DUP2 MSTORE PUSH1 0x20 ADD PUSH1 0x0 KECCAK256 PUSH1 0x0 DUP3 DUP3 SLOAD PUSH2 0x129A SWAP2 SWAP1 PUSH2 0x3601 JUMP JUMPDEST SWAP1 SWAP2 SSTORE POP DUP2 SWAP1 POP PUSH2 0x12AA DUP2 PUSH2 0x355D JUMP JUMPDEST SWAP2 POP POP PUSH2 0x1219 JUMP JUMPDEST POP DUP5 PUSH1 0x1 PUSH1 0x1 PUSH1 0xA0 SHL SUB AND PUSH1 0x0 PUSH1 0x1 PUSH1 0x1 PUSH1 0xA0 SHL SUB AND DUP3 PUSH1 0x1 PUSH1 0x1 PUSH1 0xA0 SHL SUB AND PUSH1 0x0 DUP1 MLOAD PUSH1 0x20 PUSH2 0x3A53 DUP4 CODECOPY DUP2 MLOAD SWAP2 MSTORE DUP8 DUP8 PUSH1 0x40 MLOAD PUSH2 0x12F1 SWAP3 SWAP2 SWAP1 PUSH2 0x3619 JUMP JUMPDEST PUSH1 0x40 MLOAD DUP1 SWAP2 SUB SWAP1 LOG4 PUSH2 0x94E DUP2 PUSH1 0x0 DUP8 DUP8 DUP8 DUP8 PUSH2 0x1DDD JUMP JUMPDEST DUP2 MLOAD DUP4 MLOAD EQ PUSH2 0x1329 JUMPI PUSH1 0x40 MLOAD PUSH3 0x461BCD PUSH1 0xE5 SHL DUP2 MSTORE PUSH1 0x4 ADD PUSH2 0x6D6 SWAP1 PUSH2 0x35B9 JUMP JUMPDEST PUSH1 0x1 PUSH1 0x1 PUSH1 0xA0 SHL SUB DUP5 AND PUSH2 0x134F JUMPI PUSH1 0x40 MLOAD PUSH3 0x461BCD PUSH1 0xE5 SHL DUP2 MSTORE PUSH1 0x4 ADD PUSH2 0x6D6 SWAP1 PUSH2 0x363E JUMP JUMPDEST CALLER PUSH2 0x135E DUP2 DUP8 DUP8 DUP8 DUP8 DUP8 PUSH2 0x1D34 JUMP JUMPDEST PUSH1 0x0 JUMPDEST DUP5 MLOAD DUP2 LT ISZERO PUSH2 0x1447 JUMPI PUSH1 0x0 DUP6 DUP3 DUP2 MLOAD DUP2 LT PUSH2 0x137E JUMPI PUSH2 0x137E PUSH2 0x3531 JUMP JUMPDEST PUSH1 0x20 MUL PUSH1 0x20 ADD ADD MLOAD SWAP1 POP PUSH1 0x0 DUP6 DUP4 DUP2 MLOAD DUP2 LT PUSH2 0x139C JUMPI PUSH2 0x139C PUSH2 0x3531 JUMP JUMPDEST PUSH1 0x20 SWAP1 DUP2 MUL SWAP2 SWAP1 SWAP2 ADD DUP2 ADD MLOAD PUSH1 0x0 DUP5 DUP2 MSTORE PUSH1 0xC9 DUP4 MSTORE PUSH1 0x40 DUP1 DUP3 KECCAK256 PUSH1 0x1 PUSH1 0x1 PUSH1 0xA0 SHL SUB DUP15 AND DUP4 MSTORE SWAP1 SWAP4 MSTORE SWAP2 SWAP1 SWAP2 KECCAK256 SLOAD SWAP1 SWAP2 POP DUP2 DUP2 LT ISZERO PUSH2 0x13ED JUMPI PUSH1 0x40 MLOAD PUSH3 0x461BCD PUSH1 0xE5 SHL DUP2 MSTORE PUSH1 0x4 ADD PUSH2 0x6D6 SWAP1 PUSH2 0x3683 JUMP JUMPDEST PUSH1 0x0 DUP4 DUP2 MSTORE PUSH1 0xC9 PUSH1 0x20 SWAP1 DUP2 MSTORE PUSH1 0x40 DUP1 DUP4 KECCAK256 PUSH1 0x1 PUSH1 0x1 PUSH1 0xA0 SHL SUB DUP15 DUP2 AND DUP6 MSTORE SWAP3 MSTORE DUP1 DUP4 KECCAK256 DUP6 DUP6 SUB SWAP1 SSTORE SWAP1 DUP12 AND DUP3 MSTORE DUP2 KECCAK256 DUP1 SLOAD DUP5 SWAP3 SWAP1 PUSH2 0x142C SWAP1 DUP5 SWAP1 PUSH2 0x3601 JUMP JUMPDEST SWAP3 POP POP DUP2 SWAP1 SSTORE POP POP POP POP DUP1 PUSH2 0x1440 SWAP1 PUSH2 0x355D JUMP JUMPDEST SWAP1 POP PUSH2 0x1361 JUMP JUMPDEST POP DUP5 PUSH1 0x1 PUSH1 0x1 PUSH1 0xA0 SHL SUB AND DUP7 PUSH1 0x1 PUSH1 0x1 PUSH1 0xA0 SHL SUB AND DUP3 PUSH1 0x1 PUSH1 0x1 PUSH1 0xA0 SHL SUB AND PUSH1 0x0 DUP1 MLOAD PUSH1 0x20 PUSH2 0x3A53 DUP4 CODECOPY DUP2 MLOAD SWAP2 MSTORE DUP8 DUP8 PUSH1 0x40 MLOAD PUSH2 0x1485 SWAP3 SWAP2 SWAP1 PUSH2 0x3619 JUMP JUMPDEST PUSH1 0x40 MLOAD DUP1 SWAP2 SUB SWAP1 LOG4 PUSH2 0x149B DUP2 DUP8 DUP8 DUP8 DUP8 DUP8 PUSH2 0x1DDD JUMP JUMPDEST POP POP POP POP POP POP JUMP JUMPDEST PUSH2 0x726 DUP2 CALLER PUSH2 0x1F40 JUMP JUMPDEST PUSH2 0x14B7 DUP3 DUP3 PUSH2 0x1F99 JUMP JUMPDEST PUSH1 0x0 DUP3 DUP2 MSTORE PUSH1 0x97 PUSH1 0x20 MSTORE PUSH1 0x40 SWAP1 KECCAK256 PUSH2 0x97A SWAP1 DUP3 PUSH2 0x201F JUMP JUMPDEST PUSH2 0x14D9 DUP3 DUP3 PUSH2 0x2034 JUMP JUMPDEST PUSH1 0x0 DUP3 DUP2 MSTORE PUSH1 0x97 PUSH1 0x20 MSTORE PUSH1 0x40 SWAP1 KECCAK256 PUSH2 0x97A SWAP1 DUP3 PUSH2 0x209B JUMP JUMPDEST PUSH1 0x0 DUP1 MLOAD PUSH1 0x20 PUSH2 0x3AB3 DUP4 CODECOPY DUP2 MLOAD SWAP2 MSTORE SLOAD PUSH1 0x1 PUSH1 0x1 PUSH1 0xA0 SHL SUB AND SWAP1 JUMP JUMPDEST PUSH2 0x726 PUSH2 0x1148 JUMP JUMPDEST PUSH32 0x4910FDFA16FED3260ED0E7147F7CC6DA11A60208B5B9406D12A635614FFD9143 SLOAD PUSH1 0xFF AND ISZERO PUSH2 0x1548 JUMPI PUSH2 0x97A DUP4 PUSH2 0x20B0 JUMP JUMPDEST DUP3 PUSH1 0x1 PUSH1 0x1 PUSH1 0xA0 SHL SUB AND PUSH4 0x52D1902D PUSH1 0x40 MLOAD DUP2 PUSH4 0xFFFFFFFF AND PUSH1 0xE0 SHL DUP2 MSTORE PUSH1 0x4 ADD PUSH1 0x20 PUSH1 0x40 MLOAD DUP1 DUP4 SUB DUP2 DUP7 GAS STATICCALL SWAP3 POP POP POP DUP1 ISZERO PUSH2 0x15A2 JUMPI POP PUSH1 0x40 DUP1 MLOAD PUSH1 0x1F RETURNDATASIZE SWAP1 DUP2 ADD PUSH1 0x1F NOT AND DUP3 ADD SWAP1 SWAP3 MSTORE PUSH2 0x159F SWAP2 DUP2 ADD SWAP1 PUSH2 0x36CD JUMP JUMPDEST PUSH1 0x1 JUMPDEST PUSH2 0x1605 JUMPI PUSH1 0x40 MLOAD PUSH3 0x461BCD PUSH1 0xE5 SHL DUP2 MSTORE PUSH1 0x20 PUSH1 0x4 DUP3 ADD MSTORE PUSH1 0x2E PUSH1 0x24 DUP3 ADD MSTORE PUSH32 0x45524331393637557067726164653A206E657720696D706C656D656E74617469 PUSH1 0x44 DUP3 ADD MSTORE PUSH14 0x6F6E206973206E6F742055555053 PUSH1 0x90 SHL PUSH1 0x64 DUP3 ADD MSTORE PUSH1 0x84 ADD PUSH2 0x6D6 JUMP JUMPDEST PUSH1 0x0 DUP1 MLOAD PUSH1 0x20 PUSH2 0x3AB3 DUP4 CODECOPY DUP2 MLOAD SWAP2 MSTORE DUP2 EQ PUSH2 0x1674 JUMPI PUSH1 0x40 MLOAD PUSH3 0x461BCD PUSH1 0xE5 SHL DUP2 MSTORE PUSH1 0x20 PUSH1 0x4 DUP3 ADD MSTORE PUSH1 0x29 PUSH1 0x24 DUP3 ADD MSTORE PUSH32 0x45524331393637557067726164653A20756E737570706F727465642070726F78 PUSH1 0x44 DUP3 ADD MSTORE PUSH9 0x1A58589B1955555251 PUSH1 0xBA SHL PUSH1 0x64 DUP3 ADD MSTORE PUSH1 0x84 ADD PUSH2 0x6D6 JUMP JUMPDEST POP PUSH2 0x97A DUP4 DUP4 DUP4 PUSH2 0x214A JUMP JUMPDEST PUSH2 0x1688 PUSH2 0x216F JUMP JUMPDEST PUSH1 0xFB DUP1 SLOAD PUSH1 0xFF NOT AND SWAP1 SSTORE PUSH32 0x5DB9EE0A495BF2E6FF9C91A7834C1BA4FDD244A5E8AA4E537BD38AEAE4B073AA CALLER JUMPDEST PUSH1 0x40 MLOAD PUSH2 0x16C2 SWAP2 SWAP1 PUSH2 0x3267 JUMP JUMPDEST PUSH1 0x40 MLOAD DUP1 SWAP2 SUB SWAP1 LOG1 JUMP JUMPDEST PUSH1 0x1 PUSH1 0x1 PUSH1 0xA0 SHL SUB AND EXTCODESIZE ISZERO ISZERO SWAP1 JUMP JUMPDEST PUSH1 0x0 SLOAD PUSH2 0x100 SWAP1 DIV PUSH1 0xFF AND PUSH2 0x1702 JUMPI PUSH1 0x40 MLOAD PUSH3 0x461BCD PUSH1 0xE5 SHL DUP2 MSTORE PUSH1 0x4 ADD PUSH2 0x6D6 SWAP1 PUSH2 0x36E6 JUMP JUMPDEST PUSH2 0x170B DUP3 PUSH2 0x21B8 JUMP JUMPDEST PUSH2 0x1713 PUSH2 0x21DF JUMP JUMPDEST PUSH2 0x171B PUSH2 0x2206 JUMP JUMPDEST PUSH2 0x1723 PUSH2 0x21DF JUMP JUMPDEST PUSH2 0x172B PUSH2 0x21DF JUMP JUMPDEST DUP1 MLOAD PUSH2 0x173F SWAP1 PUSH2 0x227 SWAP1 PUSH1 0x20 DUP5 ADD SWAP1 PUSH2 0x2A76 JUMP JUMPDEST POP PUSH2 0x9F9 PUSH2 0x2239 JUMP JUMPDEST PUSH1 0x1 PUSH1 0x1 PUSH1 0xA0 SHL SUB DUP4 AND PUSH2 0x176E JUMPI PUSH1 0x40 MLOAD PUSH3 0x461BCD PUSH1 0xE5 SHL DUP2 MSTORE PUSH1 0x4 ADD PUSH2 0x6D6 SWAP1 PUSH2 0x3731 JUMP JUMPDEST DUP1 MLOAD DUP3 MLOAD EQ PUSH2 0x178F JUMPI PUSH1 0x40 MLOAD PUSH3 0x461BCD PUSH1 0xE5 SHL DUP2 MSTORE PUSH1 0x4 ADD PUSH2 0x6D6 SWAP1 PUSH2 0x35B9 JUMP JUMPDEST PUSH1 0x0 CALLER SWAP1 POP PUSH2 0x17B2 DUP2 DUP6 PUSH1 0x0 DUP7 DUP7 PUSH1 0x40 MLOAD DUP1 PUSH1 0x20 ADD PUSH1 0x40 MSTORE DUP1 PUSH1 0x0 DUP2 MSTORE POP PUSH2 0x1D34 JUMP JUMPDEST PUSH1 0x0 JUMPDEST DUP4 MLOAD DUP2 LT ISZERO PUSH2 0x187A JUMPI PUSH1 0x0 DUP5 DUP3 DUP2 MLOAD DUP2 LT PUSH2 0x17D2 JUMPI PUSH2 0x17D2 PUSH2 0x3531 JUMP JUMPDEST PUSH1 0x20 MUL PUSH1 0x20 ADD ADD MLOAD SWAP1 POP PUSH1 0x0 DUP5 DUP4 DUP2 MLOAD DUP2 LT PUSH2 0x17F0 JUMPI PUSH2 0x17F0 PUSH2 0x3531 JUMP JUMPDEST PUSH1 0x20 SWAP1 DUP2 MUL SWAP2 SWAP1 SWAP2 ADD DUP2 ADD MLOAD PUSH1 0x0 DUP5 DUP2 MSTORE PUSH1 0xC9 DUP4 MSTORE PUSH1 0x40 DUP1 DUP3 KECCAK256 PUSH1 0x1 PUSH1 0x1 PUSH1 0xA0 SHL SUB DUP13 AND DUP4 MSTORE SWAP1 SWAP4 MSTORE SWAP2 SWAP1 SWAP2 KECCAK256 SLOAD SWAP1 SWAP2 POP DUP2 DUP2 LT ISZERO PUSH2 0x1841 JUMPI PUSH1 0x40 MLOAD PUSH3 0x461BCD PUSH1 0xE5 SHL DUP2 MSTORE PUSH1 0x4 ADD PUSH2 0x6D6 SWAP1 PUSH2 0x3774 JUMP JUMPDEST PUSH1 0x0 SWAP3 DUP4 MSTORE PUSH1 0xC9 PUSH1 0x20 SWAP1 DUP2 MSTORE PUSH1 0x40 DUP1 DUP6 KECCAK256 PUSH1 0x1 PUSH1 0x1 PUSH1 0xA0 SHL SUB DUP12 AND DUP7 MSTORE SWAP1 SWAP2 MSTORE SWAP1 SWAP3 KECCAK256 SWAP2 SUB SWAP1 SSTORE DUP1 PUSH2 0x1872 DUP2 PUSH2 0x355D JUMP JUMPDEST SWAP2 POP POP PUSH2 0x17B5 JUMP JUMPDEST POP PUSH1 0x0 PUSH1 0x1 PUSH1 0x1 PUSH1 0xA0 SHL SUB AND DUP5 PUSH1 0x1 PUSH1 0x1 PUSH1 0xA0 SHL SUB AND DUP3 PUSH1 0x1 PUSH1 0x1 PUSH1 0xA0 SHL SUB AND PUSH1 0x0 DUP1 MLOAD PUSH1 0x20 PUSH2 0x3A53 DUP4 CODECOPY DUP2 MLOAD SWAP2 MSTORE DUP7 DUP7 PUSH1 0x40 MLOAD PUSH2 0x18B9 SWAP3 SWAP2 SWAP1 PUSH2 0x3619 JUMP JUMPDEST PUSH1 0x40 MLOAD DUP1 SWAP2 SUB SWAP1 LOG4 PUSH1 0x40 DUP1 MLOAD PUSH1 0x20 DUP2 ADD SWAP1 SWAP2 MSTORE PUSH1 0x0 SWAP1 MSTORE JUMPDEST POP POP POP POP JUMP JUMPDEST PUSH1 0x1 PUSH1 0x1 PUSH1 0xA0 SHL SUB DUP5 AND PUSH2 0x18FD JUMPI PUSH1 0x40 MLOAD PUSH3 0x461BCD PUSH1 0xE5 SHL DUP2 MSTORE PUSH1 0x4 ADD PUSH2 0x6D6 SWAP1 PUSH2 0x3578 JUMP JUMPDEST CALLER PUSH1 0x0 PUSH2 0x1909 DUP6 PUSH2 0x2283 JUMP JUMPDEST SWAP1 POP PUSH1 0x0 PUSH2 0x1916 DUP6 PUSH2 0x2283 JUMP JUMPDEST SWAP1 POP PUSH2 0x1927 DUP4 PUSH1 0x0 DUP10 DUP6 DUP6 DUP10 PUSH2 0x1D34 JUMP JUMPDEST PUSH1 0x0 DUP7 DUP2 MSTORE PUSH1 0xC9 PUSH1 0x20 SWAP1 DUP2 MSTORE PUSH1 0x40 DUP1 DUP4 KECCAK256 PUSH1 0x1 PUSH1 0x1 PUSH1 0xA0 SHL SUB DUP12 AND DUP5 MSTORE SWAP1 SWAP2 MSTORE DUP2 KECCAK256 DUP1 SLOAD DUP8 SWAP3 SWAP1 PUSH2 0x1959 SWAP1 DUP5 SWAP1 PUSH2 0x3601 JUMP JUMPDEST SWAP1 SWAP2 SSTORE POP POP PUSH1 0x40 DUP1 MLOAD DUP8 DUP2 MSTORE PUSH1 0x20 DUP2 ADD DUP8 SWAP1 MSTORE PUSH1 0x1 PUSH1 0x1 PUSH1 0xA0 SHL SUB DUP1 DUP11 AND SWAP3 PUSH1 0x0 SWAP3 SWAP2 DUP8 AND SWAP2 PUSH1 0x0 DUP1 MLOAD PUSH1 0x20 PUSH2 0x3A73 DUP4 CODECOPY DUP2 MLOAD SWAP2 MSTORE SWAP2 ADD PUSH1 0x40 MLOAD DUP1 SWAP2 SUB SWAP1 LOG4 PUSH2 0x900 DUP4 PUSH1 0x0 DUP10 DUP10 DUP10 DUP10 PUSH2 0x22CE JUMP JUMPDEST PUSH2 0x19AF PUSH2 0x2390 JUMP JUMPDEST PUSH1 0xFB DUP1 SLOAD PUSH1 0xFF NOT AND PUSH1 0x1 OR SWAP1 SSTORE PUSH32 0x62E78CEA01BEE320CD4E420270B5EA74000D11B0C9F74754EBDBFC544B05A258 PUSH2 0x16B5 CALLER SWAP1 JUMP JUMPDEST PUSH1 0x0 PUSH2 0x75E DUP4 DUP4 PUSH2 0x23D6 JUMP JUMPDEST DUP2 PUSH1 0x1 PUSH1 0x1 PUSH1 0xA0 SHL SUB AND DUP4 PUSH1 0x1 PUSH1 0x1 PUSH1 0xA0 SHL SUB AND EQ ISZERO PUSH2 0x1A64 JUMPI PUSH1 0x40 MLOAD PUSH3 0x461BCD PUSH1 0xE5 SHL DUP2 MSTORE PUSH1 0x20 PUSH1 0x4 DUP3 ADD MSTORE PUSH1 0x29 PUSH1 0x24 DUP3 ADD MSTORE PUSH32 0x455243313135353A2073657474696E6720617070726F76616C20737461747573 PUSH1 0x44 DUP3 ADD MSTORE PUSH9 0x103337B91039B2B633 PUSH1 0xB9 SHL PUSH1 0x64 DUP3 ADD MSTORE PUSH1 0x84 ADD PUSH2 0x6D6 JUMP JUMPDEST PUSH1 0x1 PUSH1 0x1 PUSH1 0xA0 SHL SUB DUP4 DUP2 AND PUSH1 0x0 DUP2 DUP2 MSTORE PUSH1 0xCA PUSH1 0x20 SWAP1 DUP2 MSTORE PUSH1 0x40 DUP1 DUP4 KECCAK256 SWAP5 DUP8 AND DUP1 DUP5 MSTORE SWAP5 DUP3 MSTORE SWAP2 DUP3 SWAP1 KECCAK256 DUP1 SLOAD PUSH1 0xFF NOT AND DUP7 ISZERO ISZERO SWAP1 DUP2 OR SWAP1 SWAP2 SSTORE SWAP2 MLOAD SWAP2 DUP3 MSTORE PUSH32 0x17307EAB39AB6107E8899845AD3D59BD9653F200F220920489CA2B5937696C31 SWAP2 ADD PUSH1 0x40 MLOAD DUP1 SWAP2 SUB SWAP1 LOG3 POP POP POP JUMP JUMPDEST PUSH1 0x0 PUSH2 0x704 DUP3 SLOAD SWAP1 JUMP JUMPDEST PUSH1 0x1 PUSH1 0x1 PUSH1 0xA0 SHL SUB DUP5 AND PUSH2 0x1B01 JUMPI PUSH1 0x40 MLOAD PUSH3 0x461BCD PUSH1 0xE5 SHL DUP2 MSTORE PUSH1 0x4 ADD PUSH2 0x6D6 SWAP1 PUSH2 0x363E JUMP JUMPDEST CALLER PUSH1 0x0 PUSH2 0x1B0D DUP6 PUSH2 0x2283 JUMP JUMPDEST SWAP1 POP PUSH1 0x0 PUSH2 0x1B1A DUP6 PUSH2 0x2283 JUMP JUMPDEST SWAP1 POP PUSH2 0x1B2A DUP4 DUP10 DUP10 DUP6 DUP6 DUP10 PUSH2 0x1D34 JUMP JUMPDEST PUSH1 0x0 DUP7 DUP2 MSTORE PUSH1 0xC9 PUSH1 0x20 SWAP1 DUP2 MSTORE PUSH1 0x40 DUP1 DUP4 KECCAK256 PUSH1 0x1 PUSH1 0x1 PUSH1 0xA0 SHL SUB DUP13 AND DUP5 MSTORE SWAP1 SWAP2 MSTORE SWAP1 KECCAK256 SLOAD DUP6 DUP2 LT ISZERO PUSH2 0x1B6D JUMPI PUSH1 0x40 MLOAD PUSH3 0x461BCD PUSH1 0xE5 SHL DUP2 MSTORE PUSH1 0x4 ADD PUSH2 0x6D6 SWAP1 PUSH2 0x3683 JUMP JUMPDEST PUSH1 0x0 DUP8 DUP2 MSTORE PUSH1 0xC9 PUSH1 0x20 SWAP1 DUP2 MSTORE PUSH1 0x40 DUP1 DUP4 KECCAK256 PUSH1 0x1 PUSH1 0x1 PUSH1 0xA0 SHL SUB DUP14 DUP2 AND DUP6 MSTORE SWAP3 MSTORE DUP1 DUP4 KECCAK256 DUP10 DUP6 SUB SWAP1 SSTORE SWAP1 DUP11 AND DUP3 MSTORE DUP2 KECCAK256 DUP1 SLOAD DUP9 SWAP3 SWAP1 PUSH2 0x1BAC SWAP1 DUP5 SWAP1 PUSH2 0x3601 JUMP JUMPDEST SWAP1 SWAP2 SSTORE POP POP PUSH1 0x40 DUP1 MLOAD DUP9 DUP2 MSTORE PUSH1 0x20 DUP2 ADD DUP9 SWAP1 MSTORE PUSH1 0x1 PUSH1 0x1 PUSH1 0xA0 SHL SUB DUP1 DUP12 AND SWAP3 DUP13 DUP3 AND SWAP3 SWAP2 DUP9 AND SWAP2 PUSH1 0x0 DUP1 MLOAD PUSH1 0x20 PUSH2 0x3A73 DUP4 CODECOPY DUP2 MLOAD SWAP2 MSTORE SWAP2 ADD PUSH1 0x40 MLOAD DUP1 SWAP2 SUB SWAP1 LOG4 PUSH2 0x1BFA DUP5 DUP11 DUP11 DUP11 DUP11 DUP11 PUSH2 0x22CE JUMP JUMPDEST POP POP POP POP POP POP POP POP POP JUMP JUMPDEST PUSH1 0x1 PUSH1 0x1 PUSH1 0xA0 SHL SUB DUP4 AND PUSH2 0x1C2B JUMPI PUSH1 0x40 MLOAD PUSH3 0x461BCD PUSH1 0xE5 SHL DUP2 MSTORE PUSH1 0x4 ADD PUSH2 0x6D6 SWAP1 PUSH2 0x3731 JUMP JUMPDEST CALLER PUSH1 0x0 PUSH2 0x1C37 DUP5 PUSH2 0x2283 JUMP JUMPDEST SWAP1 POP PUSH1 0x0 PUSH2 0x1C44 DUP5 PUSH2 0x2283 JUMP JUMPDEST SWAP1 POP PUSH2 0x1C64 DUP4 DUP8 PUSH1 0x0 DUP6 DUP6 PUSH1 0x40 MLOAD DUP1 PUSH1 0x20 ADD PUSH1 0x40 MSTORE DUP1 PUSH1 0x0 DUP2 MSTORE POP PUSH2 0x1D34 JUMP JUMPDEST PUSH1 0x0 DUP6 DUP2 MSTORE PUSH1 0xC9 PUSH1 0x20 SWAP1 DUP2 MSTORE PUSH1 0x40 DUP1 DUP4 KECCAK256 PUSH1 0x1 PUSH1 0x1 PUSH1 0xA0 SHL SUB DUP11 AND DUP5 MSTORE SWAP1 SWAP2 MSTORE SWAP1 KECCAK256 SLOAD DUP5 DUP2 LT ISZERO PUSH2 0x1CA7 JUMPI PUSH1 0x40 MLOAD PUSH3 0x461BCD PUSH1 0xE5 SHL DUP2 MSTORE PUSH1 0x4 ADD PUSH2 0x6D6 SWAP1 PUSH2 0x3774 JUMP JUMPDEST PUSH1 0x0 DUP7 DUP2 MSTORE PUSH1 0xC9 PUSH1 0x20 SWAP1 DUP2 MSTORE PUSH1 0x40 DUP1 DUP4 KECCAK256 PUSH1 0x1 PUSH1 0x1 PUSH1 0xA0 SHL SUB DUP12 DUP2 AND DUP1 DUP7 MSTORE SWAP2 DUP5 MSTORE DUP3 DUP6 KECCAK256 DUP11 DUP8 SUB SWAP1 SSTORE DUP3 MLOAD DUP12 DUP2 MSTORE SWAP4 DUP5 ADD DUP11 SWAP1 MSTORE SWAP1 SWAP3 SWAP1 DUP9 AND SWAP2 PUSH1 0x0 DUP1 MLOAD PUSH1 0x20 PUSH2 0x3A73 DUP4 CODECOPY DUP2 MLOAD SWAP2 MSTORE SWAP2 ADD PUSH1 0x40 MLOAD DUP1 SWAP2 SUB SWAP1 LOG4 PUSH1 0x40 DUP1 MLOAD PUSH1 0x20 DUP2 ADD SWAP1 SWAP2 MSTORE PUSH1 0x0 SWAP1 MSTORE PUSH2 0x900 JUMP JUMPDEST PUSH1 0x0 PUSH1 0x1 PUSH1 0x1 PUSH1 0xE0 SHL SUB NOT DUP3 AND PUSH4 0x5A05180F PUSH1 0xE0 SHL EQ DUP1 PUSH2 0x704 JUMPI POP PUSH2 0x704 DUP3 PUSH2 0x2400 JUMP JUMPDEST PUSH2 0x1D3C PUSH2 0x2390 JUMP JUMPDEST PUSH2 0x1D4A DUP7 DUP7 DUP7 DUP7 DUP7 DUP7 PUSH2 0x2435 JUMP JUMPDEST PUSH2 0x1D62 PUSH1 0x0 DUP1 MLOAD PUSH1 0x20 PUSH2 0x3A93 DUP4 CODECOPY DUP2 MLOAD SWAP2 MSTORE CALLER PUSH2 0xF5F JUMP JUMPDEST DUP1 PUSH2 0x1D74 JUMPI POP PUSH1 0x1 PUSH1 0x1 PUSH1 0xA0 SHL SUB DUP6 AND ISZERO JUMPDEST DUP1 PUSH2 0x1D86 JUMPI POP PUSH1 0x1 PUSH1 0x1 PUSH1 0xA0 SHL SUB DUP5 AND ISZERO JUMPDEST PUSH2 0x149B JUMPI PUSH1 0x40 MLOAD PUSH3 0x461BCD PUSH1 0xE5 SHL DUP2 MSTORE PUSH1 0x20 PUSH1 0x4 DUP3 ADD MSTORE PUSH1 0x22 PUSH1 0x24 DUP3 ADD MSTORE PUSH32 0x4B72656269744E46543A205472616E7366657273206E6F7420737570706F7274 PUSH1 0x44 DUP3 ADD MSTORE PUSH2 0x1959 PUSH1 0xF2 SHL PUSH1 0x64 DUP3 ADD MSTORE PUSH1 0x84 ADD PUSH2 0x6D6 JUMP JUMPDEST PUSH2 0x1DEF DUP5 PUSH1 0x1 PUSH1 0x1 PUSH1 0xA0 SHL SUB AND PUSH2 0x16CC JUMP JUMPDEST ISZERO PUSH2 0x149B JUMPI PUSH1 0x40 MLOAD PUSH4 0xBC197C81 PUSH1 0xE0 SHL DUP2 MSTORE PUSH1 0x1 PUSH1 0x1 PUSH1 0xA0 SHL SUB DUP6 AND SWAP1 PUSH4 0xBC197C81 SWAP1 PUSH2 0x1E28 SWAP1 DUP10 SWAP1 DUP10 SWAP1 DUP9 SWAP1 DUP9 SWAP1 DUP9 SWAP1 PUSH1 0x4 ADD PUSH2 0x37B8 JUMP JUMPDEST PUSH1 0x20 PUSH1 0x40 MLOAD DUP1 DUP4 SUB DUP2 PUSH1 0x0 DUP8 GAS CALL SWAP3 POP POP POP DUP1 ISZERO PUSH2 0x1E63 JUMPI POP PUSH1 0x40 DUP1 MLOAD PUSH1 0x1F RETURNDATASIZE SWAP1 DUP2 ADD PUSH1 0x1F NOT AND DUP3 ADD SWAP1 SWAP3 MSTORE PUSH2 0x1E60 SWAP2 DUP2 ADD SWAP1 PUSH2 0x3816 JUMP JUMPDEST PUSH1 0x1 JUMPDEST PUSH2 0x1F10 JUMPI PUSH2 0x1E6F PUSH2 0x3833 JUMP JUMPDEST DUP1 PUSH4 0x8C379A0 EQ ISZERO PUSH2 0x1EA9 JUMPI POP PUSH2 0x1E84 PUSH2 0x384E JUMP JUMPDEST DUP1 PUSH2 0x1E8F JUMPI POP PUSH2 0x1EAB JUMP JUMPDEST DUP1 PUSH1 0x40 MLOAD PUSH3 0x461BCD PUSH1 0xE5 SHL DUP2 MSTORE PUSH1 0x4 ADD PUSH2 0x6D6 SWAP2 SWAP1 PUSH2 0x2D37 JUMP JUMPDEST POP JUMPDEST PUSH1 0x40 MLOAD PUSH3 0x461BCD PUSH1 0xE5 SHL DUP2 MSTORE PUSH1 0x20 PUSH1 0x4 DUP3 ADD MSTORE PUSH1 0x34 PUSH1 0x24 DUP3 ADD MSTORE PUSH32 0x455243313135353A207472616E7366657220746F206E6F6E2D45524331313535 PUSH1 0x44 DUP3 ADD MSTORE PUSH20 0x2932B1B2B4BB32B91034B6B83632B6B2B73A32B9 PUSH1 0x61 SHL PUSH1 0x64 DUP3 ADD MSTORE PUSH1 0x84 ADD PUSH2 0x6D6 JUMP JUMPDEST PUSH1 0x1 PUSH1 0x1 PUSH1 0xE0 SHL SUB NOT DUP2 AND PUSH4 0xBC197C81 PUSH1 0xE0 SHL EQ PUSH2 0x900 JUMPI PUSH1 0x40 MLOAD PUSH3 0x461BCD PUSH1 0xE5 SHL DUP2 MSTORE PUSH1 0x4 ADD PUSH2 0x6D6 SWAP1 PUSH2 0x38D7 JUMP JUMPDEST PUSH2 0x1F4A DUP3 DUP3 PUSH2 0xF5F JUMP JUMPDEST PUSH2 0x9F9 JUMPI PUSH2 0x1F57 DUP2 PUSH2 0x25BF JUMP JUMPDEST PUSH2 0x1F62 DUP4 PUSH1 0x20 PUSH2 0x25D1 JUMP JUMPDEST PUSH1 0x40 MLOAD PUSH1 0x20 ADD PUSH2 0x1F73 SWAP3 SWAP2 SWAP1 PUSH2 0x391F JUMP JUMPDEST PUSH1 0x40 DUP1 MLOAD PUSH1 0x1F NOT DUP2 DUP5 SUB ADD DUP2 MSTORE SWAP1 DUP3 SWAP1 MSTORE PUSH3 0x461BCD PUSH1 0xE5 SHL DUP3 MSTORE PUSH2 0x6D6 SWAP2 PUSH1 0x4 ADD PUSH2 0x2D37 JUMP JUMPDEST PUSH2 0x1FA3 DUP3 DUP3 PUSH2 0xF5F JUMP JUMPDEST PUSH2 0x9F9 JUMPI PUSH1 0x0 DUP3 DUP2 MSTORE PUSH1 0x65 PUSH1 0x20 SWAP1 DUP2 MSTORE PUSH1 0x40 DUP1 DUP4 KECCAK256 PUSH1 0x1 PUSH1 0x1 PUSH1 0xA0 SHL SUB DUP6 AND DUP5 MSTORE SWAP1 SWAP2 MSTORE SWAP1 KECCAK256 DUP1 SLOAD PUSH1 0xFF NOT AND PUSH1 0x1 OR SWAP1 SSTORE PUSH2 0x1FDB CALLER SWAP1 JUMP JUMPDEST PUSH1 0x1 PUSH1 0x1 PUSH1 0xA0 SHL SUB AND DUP2 PUSH1 0x1 PUSH1 0x1 PUSH1 0xA0 SHL SUB AND DUP4 PUSH32 0x2F8788117E7EFF1D82E926EC794901D17C78024A50270940304540A733656F0D PUSH1 0x40 MLOAD PUSH1 0x40 MLOAD DUP1 SWAP2 SUB SWAP1 LOG4 POP POP JUMP JUMPDEST PUSH1 0x0 PUSH2 0x75E DUP4 PUSH1 0x1 PUSH1 0x1 PUSH1 0xA0 SHL SUB DUP5 AND PUSH2 0x276C JUMP JUMPDEST PUSH2 0x203E DUP3 DUP3 PUSH2 0xF5F JUMP JUMPDEST ISZERO PUSH2 0x9F9 JUMPI PUSH1 0x0 DUP3 DUP2 MSTORE PUSH1 0x65 PUSH1 0x20 SWAP1 DUP2 MSTORE PUSH1 0x40 DUP1 DUP4 KECCAK256 PUSH1 0x1 PUSH1 0x1 PUSH1 0xA0 SHL SUB DUP6 AND DUP1 DUP6 MSTORE SWAP3 MSTORE DUP1 DUP4 KECCAK256 DUP1 SLOAD PUSH1 0xFF NOT AND SWAP1 SSTORE MLOAD CALLER SWAP3 DUP6 SWAP2 PUSH32 0xF6391F5C32D9C69D2A47EA670B442974B53935D1EDC7FD64EB21E047A839171B SWAP2 SWAP1 LOG4 POP POP JUMP JUMPDEST PUSH1 0x0 PUSH2 0x75E DUP4 PUSH1 0x1 PUSH1 0x1 PUSH1 0xA0 SHL SUB DUP5 AND PUSH2 0x27BB JUMP JUMPDEST PUSH2 0x20B9 DUP2 PUSH2 0x16CC JUMP JUMPDEST PUSH2 0x211B JUMPI PUSH1 0x40 MLOAD PUSH3 0x461BCD PUSH1 0xE5 SHL DUP2 MSTORE PUSH1 0x20 PUSH1 0x4 DUP3 ADD MSTORE PUSH1 0x2D PUSH1 0x24 DUP3 ADD MSTORE PUSH32 0x455243313936373A206E657720696D706C656D656E746174696F6E206973206E PUSH1 0x44 DUP3 ADD MSTORE PUSH13 0x1BDD08184818DBDB9D1C9858DD PUSH1 0x9A SHL PUSH1 0x64 DUP3 ADD MSTORE PUSH1 0x84 ADD PUSH2 0x6D6 JUMP JUMPDEST PUSH1 0x0 DUP1 MLOAD PUSH1 0x20 PUSH2 0x3AB3 DUP4 CODECOPY DUP2 MLOAD SWAP2 MSTORE DUP1 SLOAD PUSH1 0x1 PUSH1 0x1 PUSH1 0xA0 SHL SUB NOT AND PUSH1 0x1 PUSH1 0x1 PUSH1 0xA0 SHL SUB SWAP3 SWAP1 SWAP3 AND SWAP2 SWAP1 SWAP2 OR SWAP1 SSTORE JUMP JUMPDEST PUSH2 0x2153 DUP4 PUSH2 0x28AE JUMP JUMPDEST PUSH1 0x0 DUP3 MLOAD GT DUP1 PUSH2 0x2160 JUMPI POP DUP1 JUMPDEST ISZERO PUSH2 0x97A JUMPI PUSH2 0x18D1 DUP4 DUP4 PUSH2 0x28EE JUMP JUMPDEST PUSH1 0xFB SLOAD PUSH1 0xFF AND PUSH2 0xAD3 JUMPI PUSH1 0x40 MLOAD PUSH3 0x461BCD PUSH1 0xE5 SHL DUP2 MSTORE PUSH1 0x20 PUSH1 0x4 DUP3 ADD MSTORE PUSH1 0x14 PUSH1 0x24 DUP3 ADD MSTORE PUSH20 0x14185D5CD8589B194E881B9BDD081C185D5CD959 PUSH1 0x62 SHL PUSH1 0x44 DUP3 ADD MSTORE PUSH1 0x64 ADD PUSH2 0x6D6 JUMP JUMPDEST PUSH1 0x0 SLOAD PUSH2 0x100 SWAP1 DIV PUSH1 0xFF AND PUSH2 0x71D JUMPI PUSH1 0x40 MLOAD PUSH3 0x461BCD PUSH1 0xE5 SHL DUP2 MSTORE PUSH1 0x4 ADD PUSH2 0x6D6 SWAP1 PUSH2 0x36E6 JUMP JUMPDEST PUSH1 0x0 SLOAD PUSH2 0x100 SWAP1 DIV PUSH1 0xFF AND PUSH2 0xAD3 JUMPI PUSH1 0x40 MLOAD PUSH3 0x461BCD PUSH1 0xE5 SHL DUP2 MSTORE PUSH1 0x4 ADD PUSH2 0x6D6 SWAP1 PUSH2 0x36E6 JUMP JUMPDEST PUSH1 0x0 SLOAD PUSH2 0x100 SWAP1 DIV PUSH1 0xFF AND PUSH2 0x222D JUMPI PUSH1 0x40 MLOAD PUSH3 0x461BCD PUSH1 0xE5 SHL DUP2 MSTORE PUSH1 0x4 ADD PUSH2 0x6D6 SWAP1 PUSH2 0x36E6 JUMP JUMPDEST PUSH1 0xFB DUP1 SLOAD PUSH1 0xFF NOT AND SWAP1 SSTORE JUMP JUMPDEST PUSH1 0x0 SLOAD PUSH2 0x100 SWAP1 DIV PUSH1 0xFF AND PUSH2 0x2260 JUMPI PUSH1 0x40 MLOAD PUSH3 0x461BCD PUSH1 0xE5 SHL DUP2 MSTORE PUSH1 0x4 ADD PUSH2 0x6D6 SWAP1 PUSH2 0x36E6 JUMP JUMPDEST PUSH2 0x226B PUSH1 0x0 CALLER PUSH2 0x29E0 JUMP JUMPDEST PUSH2 0xAD3 PUSH1 0x0 DUP1 MLOAD PUSH1 0x20 PUSH2 0x3A93 DUP4 CODECOPY DUP2 MLOAD SWAP2 MSTORE CALLER PUSH2 0x29E0 JUMP JUMPDEST PUSH1 0x40 DUP1 MLOAD PUSH1 0x1 DUP1 DUP3 MSTORE DUP2 DUP4 ADD SWAP1 SWAP3 MSTORE PUSH1 0x60 SWAP2 PUSH1 0x0 SWAP2 SWAP1 PUSH1 0x20 DUP1 DUP4 ADD SWAP1 DUP1 CALLDATASIZE DUP4 CALLDATACOPY ADD SWAP1 POP POP SWAP1 POP DUP3 DUP2 PUSH1 0x0 DUP2 MLOAD DUP2 LT PUSH2 0x22BD JUMPI PUSH2 0x22BD PUSH2 0x3531 JUMP JUMPDEST PUSH1 0x20 SWAP1 DUP2 MUL SWAP2 SWAP1 SWAP2 ADD ADD MSTORE SWAP3 SWAP2 POP POP JUMP JUMPDEST PUSH2 0x22E0 DUP5 PUSH1 0x1 PUSH1 0x1 PUSH1 0xA0 SHL SUB AND PUSH2 0x16CC JUMP JUMPDEST ISZERO PUSH2 0x149B JUMPI PUSH1 0x40 MLOAD PUSH4 0xF23A6E61 PUSH1 0xE0 SHL DUP2 MSTORE PUSH1 0x1 PUSH1 0x1 PUSH1 0xA0 SHL SUB DUP6 AND SWAP1 PUSH4 0xF23A6E61 SWAP1 PUSH2 0x2319 SWAP1 DUP10 SWAP1 DUP10 SWAP1 DUP9 SWAP1 DUP9 SWAP1 DUP9 SWAP1 PUSH1 0x4 ADD PUSH2 0x398E JUMP JUMPDEST PUSH1 0x20 PUSH1 0x40 MLOAD DUP1 DUP4 SUB DUP2 PUSH1 0x0 DUP8 GAS CALL SWAP3 POP POP POP DUP1 ISZERO PUSH2 0x2354 JUMPI POP PUSH1 0x40 DUP1 MLOAD PUSH1 0x1F RETURNDATASIZE SWAP1 DUP2 ADD PUSH1 0x1F NOT AND DUP3 ADD SWAP1 SWAP3 MSTORE PUSH2 0x2351 SWAP2 DUP2 ADD SWAP1 PUSH2 0x3816 JUMP JUMPDEST PUSH1 0x1 JUMPDEST PUSH2 0x2360 JUMPI PUSH2 0x1E6F PUSH2 0x3833 JUMP JUMPDEST PUSH1 0x1 PUSH1 0x1 PUSH1 0xE0 SHL SUB NOT DUP2 AND PUSH4 0xF23A6E61 PUSH1 0xE0 SHL EQ PUSH2 0x900 JUMPI PUSH1 0x40 MLOAD PUSH3 0x461BCD PUSH1 0xE5 SHL DUP2 MSTORE PUSH1 0x4 ADD PUSH2 0x6D6 SWAP1 PUSH2 0x38D7 JUMP JUMPDEST PUSH1 0xFB SLOAD PUSH1 0xFF AND ISZERO PUSH2 0xAD3 JUMPI PUSH1 0x40 MLOAD PUSH3 0x461BCD PUSH1 0xE5 SHL DUP2 MSTORE PUSH1 0x20 PUSH1 0x4 DUP3 ADD MSTORE PUSH1 0x10 PUSH1 0x24 DUP3 ADD MSTORE PUSH16 0x14185D5CD8589B194E881C185D5CD959 PUSH1 0x82 SHL PUSH1 0x44 DUP3 ADD MSTORE PUSH1 0x64 ADD PUSH2 0x6D6 JUMP JUMPDEST PUSH1 0x0 DUP3 PUSH1 0x0 ADD DUP3 DUP2 SLOAD DUP2 LT PUSH2 0x23ED JUMPI PUSH2 0x23ED PUSH2 0x3531 JUMP JUMPDEST SWAP1 PUSH1 0x0 MSTORE PUSH1 0x20 PUSH1 0x0 KECCAK256 ADD SLOAD SWAP1 POP SWAP3 SWAP2 POP POP JUMP JUMPDEST PUSH1 0x0 PUSH1 0x1 PUSH1 0x1 PUSH1 0xE0 SHL SUB NOT DUP3 AND PUSH4 0x7965DB0B PUSH1 0xE0 SHL EQ DUP1 PUSH2 0x704 JUMPI POP PUSH4 0x1FFC9A7 PUSH1 0xE0 SHL PUSH1 0x1 PUSH1 0x1 PUSH1 0xE0 SHL SUB NOT DUP4 AND EQ PUSH2 0x704 JUMP JUMPDEST PUSH2 0x2443 DUP7 DUP7 DUP7 DUP7 DUP7 DUP7 PUSH2 0x29EA JUMP JUMPDEST PUSH1 0x1 PUSH1 0x1 PUSH1 0xA0 SHL SUB DUP6 AND PUSH2 0x24CB JUMPI PUSH1 0x0 JUMPDEST DUP4 MLOAD DUP2 LT ISZERO PUSH2 0x24C9 JUMPI DUP3 DUP2 DUP2 MLOAD DUP2 LT PUSH2 0x246F JUMPI PUSH2 0x246F PUSH2 0x3531 JUMP JUMPDEST PUSH1 0x20 MUL PUSH1 0x20 ADD ADD MLOAD PUSH2 0x191 PUSH1 0x0 DUP7 DUP5 DUP2 MLOAD DUP2 LT PUSH2 0x248E JUMPI PUSH2 0x248E PUSH2 0x3531 JUMP JUMPDEST PUSH1 0x20 MUL PUSH1 0x20 ADD ADD MLOAD DUP2 MSTORE PUSH1 0x20 ADD SWAP1 DUP2 MSTORE PUSH1 0x20 ADD PUSH1 0x0 KECCAK256 PUSH1 0x0 DUP3 DUP3 SLOAD PUSH2 0x24B3 SWAP2 SWAP1 PUSH2 0x3601 JUMP JUMPDEST SWAP1 SWAP2 SSTORE POP PUSH2 0x24C2 SWAP1 POP DUP2 PUSH2 0x355D JUMP JUMPDEST SWAP1 POP PUSH2 0x2454 JUMP JUMPDEST POP JUMPDEST PUSH1 0x1 PUSH1 0x1 PUSH1 0xA0 SHL SUB DUP5 AND PUSH2 0x149B JUMPI PUSH1 0x0 JUMPDEST DUP4 MLOAD DUP2 LT ISZERO PUSH2 0x900 JUMPI PUSH1 0x0 DUP5 DUP3 DUP2 MLOAD DUP2 LT PUSH2 0x24F9 JUMPI PUSH2 0x24F9 PUSH2 0x3531 JUMP JUMPDEST PUSH1 0x20 MUL PUSH1 0x20 ADD ADD MLOAD SWAP1 POP PUSH1 0x0 DUP5 DUP4 DUP2 MLOAD DUP2 LT PUSH2 0x2517 JUMPI PUSH2 0x2517 PUSH2 0x3531 JUMP JUMPDEST PUSH1 0x20 MUL PUSH1 0x20 ADD ADD MLOAD SWAP1 POP PUSH1 0x0 PUSH2 0x191 PUSH1 0x0 DUP5 DUP2 MSTORE PUSH1 0x20 ADD SWAP1 DUP2 MSTORE PUSH1 0x20 ADD PUSH1 0x0 KECCAK256 SLOAD SWAP1 POP DUP2 DUP2 LT ISZERO PUSH2 0x259B JUMPI PUSH1 0x40 MLOAD PUSH3 0x461BCD PUSH1 0xE5 SHL DUP2 MSTORE PUSH1 0x20 PUSH1 0x4 DUP3 ADD MSTORE PUSH1 0x28 PUSH1 0x24 DUP3 ADD MSTORE PUSH32 0x455243313135353A206275726E20616D6F756E74206578636565647320746F74 PUSH1 0x44 DUP3 ADD MSTORE PUSH8 0x616C537570706C79 PUSH1 0xC0 SHL PUSH1 0x64 DUP3 ADD MSTORE PUSH1 0x84 ADD PUSH2 0x6D6 JUMP JUMPDEST PUSH1 0x0 SWAP3 DUP4 MSTORE PUSH2 0x191 PUSH1 0x20 MSTORE PUSH1 0x40 SWAP1 SWAP3 KECCAK256 SWAP2 SUB SWAP1 SSTORE PUSH2 0x25B8 DUP2 PUSH2 0x355D JUMP JUMPDEST SWAP1 POP PUSH2 0x24DC JUMP JUMPDEST PUSH1 0x60 PUSH2 0x704 PUSH1 0x1 PUSH1 0x1 PUSH1 0xA0 SHL SUB DUP4 AND PUSH1 0x14 JUMPDEST PUSH1 0x60 PUSH1 0x0 PUSH2 0x25E0 DUP4 PUSH1 0x2 PUSH2 0x39D3 JUMP JUMPDEST PUSH2 0x25EB SWAP1 PUSH1 0x2 PUSH2 0x3601 JUMP JUMPDEST PUSH1 0x1 PUSH1 0x1 PUSH1 0x40 SHL SUB DUP2 GT ISZERO PUSH2 0x2602 JUMPI PUSH2 0x2602 PUSH2 0x2B88 JUMP JUMPDEST PUSH1 0x40 MLOAD SWAP1 DUP1 DUP3 MSTORE DUP1 PUSH1 0x1F ADD PUSH1 0x1F NOT AND PUSH1 0x20 ADD DUP3 ADD PUSH1 0x40 MSTORE DUP1 ISZERO PUSH2 0x262C JUMPI PUSH1 0x20 DUP3 ADD DUP2 DUP1 CALLDATASIZE DUP4 CALLDATACOPY ADD SWAP1 POP JUMPDEST POP SWAP1 POP PUSH1 0x3 PUSH1 0xFC SHL DUP2 PUSH1 0x0 DUP2 MLOAD DUP2 LT PUSH2 0x2647 JUMPI PUSH2 0x2647 PUSH2 0x3531 JUMP JUMPDEST PUSH1 0x20 ADD ADD SWAP1 PUSH1 0x1 PUSH1 0x1 PUSH1 0xF8 SHL SUB NOT AND SWAP1 DUP2 PUSH1 0x0 BYTE SWAP1 MSTORE8 POP PUSH1 0xF PUSH1 0xFB SHL DUP2 PUSH1 0x1 DUP2 MLOAD DUP2 LT PUSH2 0x2676 JUMPI PUSH2 0x2676 PUSH2 0x3531 JUMP JUMPDEST PUSH1 0x20 ADD ADD SWAP1 PUSH1 0x1 PUSH1 0x1 PUSH1 0xF8 SHL SUB NOT AND SWAP1 DUP2 PUSH1 0x0 BYTE SWAP1 MSTORE8 POP PUSH1 0x0 PUSH2 0x269A DUP5 PUSH1 0x2 PUSH2 0x39D3 JUMP JUMPDEST PUSH2 0x26A5 SWAP1 PUSH1 0x1 PUSH2 0x3601 JUMP JUMPDEST SWAP1 POP JUMPDEST PUSH1 0x1 DUP2 GT ISZERO PUSH2 0x271D JUMPI PUSH16 0x181899199A1A9B1B9C1CB0B131B232B3 PUSH1 0x81 SHL DUP6 PUSH1 0xF AND PUSH1 0x10 DUP2 LT PUSH2 0x26D9 JUMPI PUSH2 0x26D9 PUSH2 0x3531 JUMP JUMPDEST BYTE PUSH1 0xF8 SHL DUP3 DUP3 DUP2 MLOAD DUP2 LT PUSH2 0x26EF JUMPI PUSH2 0x26EF PUSH2 0x3531 JUMP JUMPDEST PUSH1 0x20 ADD ADD SWAP1 PUSH1 0x1 PUSH1 0x1 PUSH1 0xF8 SHL SUB NOT AND SWAP1 DUP2 PUSH1 0x0 BYTE SWAP1 MSTORE8 POP PUSH1 0x4 SWAP5 SWAP1 SWAP5 SHR SWAP4 PUSH2 0x2716 DUP2 PUSH2 0x39F2 JUMP JUMPDEST SWAP1 POP PUSH2 0x26A8 JUMP JUMPDEST POP DUP4 ISZERO PUSH2 0x75E JUMPI PUSH1 0x40 MLOAD PUSH3 0x461BCD PUSH1 0xE5 SHL DUP2 MSTORE PUSH1 0x20 PUSH1 0x4 DUP3 ADD DUP2 SWAP1 MSTORE PUSH1 0x24 DUP3 ADD MSTORE PUSH32 0x537472696E67733A20686578206C656E67746820696E73756666696369656E74 PUSH1 0x44 DUP3 ADD MSTORE PUSH1 0x64 ADD PUSH2 0x6D6 JUMP JUMPDEST PUSH1 0x0 DUP2 DUP2 MSTORE PUSH1 0x1 DUP4 ADD PUSH1 0x20 MSTORE PUSH1 0x40 DUP2 KECCAK256 SLOAD PUSH2 0x27B3 JUMPI POP DUP2 SLOAD PUSH1 0x1 DUP2 DUP2 ADD DUP5 SSTORE PUSH1 0x0 DUP5 DUP2 MSTORE PUSH1 0x20 DUP1 DUP3 KECCAK256 SWAP1 SWAP4 ADD DUP5 SWAP1 SSTORE DUP5 SLOAD DUP5 DUP3 MSTORE DUP3 DUP7 ADD SWAP1 SWAP4 MSTORE PUSH1 0x40 SWAP1 KECCAK256 SWAP2 SWAP1 SWAP2 SSTORE PUSH2 0x704 JUMP JUMPDEST POP PUSH1 0x0 PUSH2 0x704 JUMP JUMPDEST PUSH1 0x0 DUP2 DUP2 MSTORE PUSH1 0x1 DUP4 ADD PUSH1 0x20 MSTORE PUSH1 0x40 DUP2 KECCAK256 SLOAD DUP1 ISZERO PUSH2 0x28A4 JUMPI PUSH1 0x0 PUSH2 0x27DF PUSH1 0x1 DUP4 PUSH2 0x3A09 JUMP JUMPDEST DUP6 SLOAD SWAP1 SWAP2 POP PUSH1 0x0 SWAP1 PUSH2 0x27F3 SWAP1 PUSH1 0x1 SWAP1 PUSH2 0x3A09 JUMP JUMPDEST SWAP1 POP DUP2 DUP2 EQ PUSH2 0x2858 JUMPI PUSH1 0x0 DUP7 PUSH1 0x0 ADD DUP3 DUP2 SLOAD DUP2 LT PUSH2 0x2813 JUMPI PUSH2 0x2813 PUSH2 0x3531 JUMP JUMPDEST SWAP1 PUSH1 0x0 MSTORE PUSH1 0x20 PUSH1 0x0 KECCAK256 ADD SLOAD SWAP1 POP DUP1 DUP8 PUSH1 0x0 ADD DUP5 DUP2 SLOAD DUP2 LT PUSH2 0x2836 JUMPI PUSH2 0x2836 PUSH2 0x3531 JUMP JUMPDEST PUSH1 0x0 SWAP2 DUP3 MSTORE PUSH1 0x20 DUP1 DUP4 KECCAK256 SWAP1 SWAP2 ADD SWAP3 SWAP1 SWAP3 SSTORE SWAP2 DUP3 MSTORE PUSH1 0x1 DUP9 ADD SWAP1 MSTORE PUSH1 0x40 SWAP1 KECCAK256 DUP4 SWAP1 SSTORE JUMPDEST DUP6 SLOAD DUP7 SWAP1 DUP1 PUSH2 0x2869 JUMPI PUSH2 0x2869 PUSH2 0x3A20 JUMP JUMPDEST PUSH1 0x1 SWAP1 SUB DUP2 DUP2 SWAP1 PUSH1 0x0 MSTORE PUSH1 0x20 PUSH1 0x0 KECCAK256 ADD PUSH1 0x0 SWAP1 SSTORE SWAP1 SSTORE DUP6 PUSH1 0x1 ADD PUSH1 0x0 DUP7 DUP2 MSTORE PUSH1 0x20 ADD SWAP1 DUP2 MSTORE PUSH1 0x20 ADD PUSH1 0x0 KECCAK256 PUSH1 0x0 SWAP1 SSTORE PUSH1 0x1 SWAP4 POP POP POP POP PUSH2 0x704 JUMP JUMPDEST PUSH1 0x0 SWAP2 POP POP PUSH2 0x704 JUMP JUMPDEST PUSH2 0x28B7 DUP2 PUSH2 0x20B0 JUMP JUMPDEST PUSH1 0x40 MLOAD PUSH1 0x1 PUSH1 0x1 PUSH1 0xA0 SHL SUB DUP3 AND SWAP1 PUSH32 0xBC7CD75A20EE27FD9ADEBAB32041F755214DBC6BFFA90CC0225B39DA2E5C2D3B SWAP1 PUSH1 0x0 SWAP1 LOG2 POP JUMP JUMPDEST PUSH1 0x60 PUSH2 0x28F9 DUP4 PUSH2 0x16CC JUMP JUMPDEST PUSH2 0x2954 JUMPI PUSH1 0x40 MLOAD PUSH3 0x461BCD PUSH1 0xE5 SHL DUP2 MSTORE PUSH1 0x20 PUSH1 0x4 DUP3 ADD MSTORE PUSH1 0x26 PUSH1 0x24 DUP3 ADD MSTORE PUSH32 0x416464726573733A2064656C65676174652063616C6C20746F206E6F6E2D636F PUSH1 0x44 DUP3 ADD MSTORE PUSH6 0x1B9D1C9858DD PUSH1 0xD2 SHL PUSH1 0x64 DUP3 ADD MSTORE PUSH1 0x84 ADD PUSH2 0x6D6 JUMP JUMPDEST PUSH1 0x0 DUP1 DUP5 PUSH1 0x1 PUSH1 0x1 PUSH1 0xA0 SHL SUB AND DUP5 PUSH1 0x40 MLOAD PUSH2 0x296F SWAP2 SWAP1 PUSH2 0x3A36 JUMP JUMPDEST PUSH1 0x0 PUSH1 0x40 MLOAD DUP1 DUP4 SUB DUP2 DUP6 GAS DELEGATECALL SWAP2 POP POP RETURNDATASIZE DUP1 PUSH1 0x0 DUP2 EQ PUSH2 0x29AA JUMPI PUSH1 0x40 MLOAD SWAP2 POP PUSH1 0x1F NOT PUSH1 0x3F RETURNDATASIZE ADD AND DUP3 ADD PUSH1 0x40 MSTORE RETURNDATASIZE DUP3 MSTORE RETURNDATASIZE PUSH1 0x0 PUSH1 0x20 DUP5 ADD RETURNDATACOPY PUSH2 0x29AF JUMP JUMPDEST PUSH1 0x60 SWAP2 POP JUMPDEST POP SWAP2 POP SWAP2 POP PUSH2 0x29D7 DUP3 DUP3 PUSH1 0x40 MLOAD DUP1 PUSH1 0x60 ADD PUSH1 0x40 MSTORE DUP1 PUSH1 0x27 DUP2 MSTORE PUSH1 0x20 ADD PUSH2 0x3AD3 PUSH1 0x27 SWAP2 CODECOPY PUSH2 0x2A52 JUMP JUMPDEST SWAP6 SWAP5 POP POP POP POP POP JUMP JUMPDEST PUSH2 0x9F9 DUP3 DUP3 PUSH2 0x14AD JUMP JUMPDEST PUSH1 0xFB SLOAD PUSH1 0xFF AND ISZERO PUSH2 0x149B JUMPI PUSH1 0x40 MLOAD PUSH3 0x461BCD PUSH1 0xE5 SHL DUP2 MSTORE PUSH1 0x20 PUSH1 0x4 DUP3 ADD MSTORE PUSH1 0x2C PUSH1 0x24 DUP3 ADD MSTORE PUSH32 0x455243313135355061757361626C653A20746F6B656E207472616E7366657220 PUSH1 0x44 DUP3 ADD MSTORE PUSH12 0x1DDA1A5B19481C185D5CD959 PUSH1 0xA2 SHL PUSH1 0x64 DUP3 ADD MSTORE PUSH1 0x84 ADD PUSH2 0x6D6 JUMP JUMPDEST PUSH1 0x60 DUP4 ISZERO PUSH2 0x2A61 JUMPI POP DUP2 PUSH2 0x75E JUMP JUMPDEST PUSH2 0x75E DUP4 DUP4 DUP2 MLOAD ISZERO PUSH2 0x1E8F JUMPI DUP2 MLOAD DUP1 DUP4 PUSH1 0x20 ADD REVERT JUMPDEST DUP3 DUP1 SLOAD PUSH2 0x2A82 SWAP1 PUSH2 0x33C2 JUMP JUMPDEST SWAP1 PUSH1 0x0 MSTORE PUSH1 0x20 PUSH1 0x0 KECCAK256 SWAP1 PUSH1 0x1F ADD PUSH1 0x20 SWAP1 DIV DUP2 ADD SWAP3 DUP3 PUSH2 0x2AA4 JUMPI PUSH1 0x0 DUP6 SSTORE PUSH2 0x2AEA JUMP JUMPDEST DUP3 PUSH1 0x1F LT PUSH2 0x2ABD JUMPI DUP1 MLOAD PUSH1 0xFF NOT AND DUP4 DUP1 ADD OR DUP6 SSTORE PUSH2 0x2AEA JUMP JUMPDEST DUP3 DUP1 ADD PUSH1 0x1 ADD DUP6 SSTORE DUP3 ISZERO PUSH2 0x2AEA JUMPI SWAP2 DUP3 ADD JUMPDEST DUP3 DUP2 GT ISZERO PUSH2 0x2AEA JUMPI DUP3 MLOAD DUP3 SSTORE SWAP2 PUSH1 0x20 ADD SWAP2 SWAP1 PUSH1 0x1 ADD SWAP1 PUSH2 0x2ACF JUMP JUMPDEST POP PUSH2 0x2AF6 SWAP3 SWAP2 POP PUSH2 0x2AFA JUMP JUMPDEST POP SWAP1 JUMP JUMPDEST JUMPDEST DUP1 DUP3 GT ISZERO PUSH2 0x2AF6 JUMPI PUSH1 0x0 DUP2 SSTORE PUSH1 0x1 ADD PUSH2 0x2AFB JUMP JUMPDEST DUP1 CALLDATALOAD PUSH1 0x1 PUSH1 0x1 PUSH1 0xA0 SHL SUB DUP2 AND DUP2 EQ PUSH2 0x2B26 JUMPI PUSH1 0x0 DUP1 REVERT JUMPDEST SWAP2 SWAP1 POP JUMP JUMPDEST PUSH1 0x0 DUP1 PUSH1 0x40 DUP4 DUP6 SUB SLT ISZERO PUSH2 0x2B3E JUMPI PUSH1 0x0 DUP1 REVERT JUMPDEST PUSH2 0x2B47 DUP4 PUSH2 0x2B0F JUMP JUMPDEST SWAP5 PUSH1 0x20 SWAP4 SWAP1 SWAP4 ADD CALLDATALOAD SWAP4 POP POP POP JUMP JUMPDEST PUSH1 0x1 PUSH1 0x1 PUSH1 0xE0 SHL SUB NOT DUP2 AND DUP2 EQ PUSH2 0x726 JUMPI PUSH1 0x0 DUP1 REVERT JUMPDEST PUSH1 0x0 PUSH1 0x20 DUP3 DUP5 SUB SLT ISZERO PUSH2 0x2B7D JUMPI PUSH1 0x0 DUP1 REVERT JUMPDEST DUP2 CALLDATALOAD PUSH2 0x75E DUP2 PUSH2 0x2B55 JUMP JUMPDEST PUSH4 0x4E487B71 PUSH1 0xE0 SHL PUSH1 0x0 MSTORE PUSH1 0x41 PUSH1 0x4 MSTORE PUSH1 0x24 PUSH1 0x0 REVERT JUMPDEST PUSH1 0x1F DUP3 ADD PUSH1 0x1F NOT AND DUP2 ADD PUSH1 0x1 PUSH1 0x1 PUSH1 0x40 SHL SUB DUP2 GT DUP3 DUP3 LT OR ISZERO PUSH2 0x2BC3 JUMPI PUSH2 0x2BC3 PUSH2 0x2B88 JUMP JUMPDEST PUSH1 0x40 MSTORE POP POP JUMP JUMPDEST PUSH1 0x0 DUP3 PUSH1 0x1F DUP4 ADD SLT PUSH2 0x2BDB JUMPI PUSH1 0x0 DUP1 REVERT JUMPDEST DUP2 CALLDATALOAD PUSH1 0x1 PUSH1 0x1 PUSH1 0x40 SHL SUB DUP2 GT ISZERO PUSH2 0x2BF4 JUMPI PUSH2 0x2BF4 PUSH2 0x2B88 JUMP JUMPDEST PUSH1 0x40 MLOAD PUSH2 0x2C0B PUSH1 0x1F DUP4 ADD PUSH1 0x1F NOT AND PUSH1 0x20 ADD DUP3 PUSH2 0x2B9E JUMP JUMPDEST DUP2 DUP2 MSTORE DUP5 PUSH1 0x20 DUP4 DUP7 ADD ADD GT ISZERO PUSH2 0x2C20 JUMPI PUSH1 0x0 DUP1 REVERT JUMPDEST DUP2 PUSH1 0x20 DUP6 ADD PUSH1 0x20 DUP4 ADD CALLDATACOPY PUSH1 0x0 SWAP2 DUP2 ADD PUSH1 0x20 ADD SWAP2 SWAP1 SWAP2 MSTORE SWAP4 SWAP3 POP POP POP JUMP JUMPDEST PUSH1 0x0 PUSH1 0x20 DUP3 DUP5 SUB SLT ISZERO PUSH2 0x2C4F JUMPI PUSH1 0x0 DUP1 REVERT JUMPDEST DUP2 CALLDATALOAD PUSH1 0x1 PUSH1 0x1 PUSH1 0x40 SHL SUB DUP2 GT ISZERO PUSH2 0x2C65 JUMPI PUSH1 0x0 DUP1 REVERT JUMPDEST PUSH2 0x2C71 DUP5 DUP3 DUP6 ADD PUSH2 0x2BCA JUMP JUMPDEST SWAP5 SWAP4 POP POP POP POP JUMP JUMPDEST PUSH1 0x0 DUP1 PUSH1 0x40 DUP4 DUP6 SUB SLT ISZERO PUSH2 0x2C8C JUMPI PUSH1 0x0 DUP1 REVERT JUMPDEST PUSH2 0x2C95 DUP4 PUSH2 0x2B0F JUMP JUMPDEST SWAP2 POP PUSH1 0x20 DUP4 ADD CALLDATALOAD PUSH1 0x1 PUSH1 0x1 PUSH1 0x40 SHL SUB DUP2 GT ISZERO PUSH2 0x2CB0 JUMPI PUSH1 0x0 DUP1 REVERT JUMPDEST PUSH2 0x2CBC DUP6 DUP3 DUP7 ADD PUSH2 0x2BCA JUMP JUMPDEST SWAP2 POP POP SWAP3 POP SWAP3 SWAP1 POP JUMP JUMPDEST PUSH1 0x0 PUSH1 0x20 DUP3 DUP5 SUB SLT ISZERO PUSH2 0x2CD8 JUMPI PUSH1 0x0 DUP1 REVERT JUMPDEST POP CALLDATALOAD SWAP2 SWAP1 POP JUMP JUMPDEST PUSH1 0x0 JUMPDEST DUP4 DUP2 LT ISZERO PUSH2 0x2CFA JUMPI DUP2 DUP2 ADD MLOAD DUP4 DUP3 ADD MSTORE PUSH1 0x20 ADD PUSH2 0x2CE2 JUMP JUMPDEST DUP4 DUP2 GT ISZERO PUSH2 0x18D1 JUMPI POP POP PUSH1 0x0 SWAP2 ADD MSTORE JUMP JUMPDEST PUSH1 0x0 DUP2 MLOAD DUP1 DUP5 MSTORE PUSH2 0x2D23 DUP2 PUSH1 0x20 DUP7 ADD PUSH1 0x20 DUP7 ADD PUSH2 0x2CDF JUMP JUMPDEST PUSH1 0x1F ADD PUSH1 0x1F NOT AND SWAP3 SWAP1 SWAP3 ADD PUSH1 0x20 ADD SWAP3 SWAP2 POP POP JUMP JUMPDEST PUSH1 0x20 DUP2 MSTORE PUSH1 0x0 PUSH2 0x75E PUSH1 0x20 DUP4 ADD DUP5 PUSH2 0x2D0B JUMP JUMPDEST PUSH1 0x0 DUP1 DUP4 PUSH1 0x1F DUP5 ADD SLT PUSH2 0x2D5C JUMPI PUSH1 0x0 DUP1 REVERT JUMPDEST POP DUP2 CALLDATALOAD PUSH1 0x1 PUSH1 0x1 PUSH1 0x40 SHL SUB DUP2 GT ISZERO PUSH2 0x2D73 JUMPI PUSH1 0x0 DUP1 REVERT JUMPDEST PUSH1 0x20 DUP4 ADD SWAP2 POP DUP4 PUSH1 0x20 DUP3 PUSH1 0x5 SHL DUP6 ADD ADD GT ISZERO PUSH2 0x2D8E JUMPI PUSH1 0x0 DUP1 REVERT JUMPDEST SWAP3 POP SWAP3 SWAP1 POP JUMP JUMPDEST PUSH1 0x0 DUP1 DUP4 PUSH1 0x1F DUP5 ADD SLT PUSH2 0x2DA7 JUMPI PUSH1 0x0 DUP1 REVERT JUMPDEST POP DUP2 CALLDATALOAD PUSH1 0x1 PUSH1 0x1 PUSH1 0x40 SHL SUB DUP2 GT ISZERO PUSH2 0x2DBE JUMPI PUSH1 0x0 DUP1 REVERT JUMPDEST PUSH1 0x20 DUP4 ADD SWAP2 POP DUP4 PUSH1 0x20 DUP3 DUP6 ADD ADD GT ISZERO PUSH2 0x2D8E JUMPI PUSH1 0x0 DUP1 REVERT JUMPDEST PUSH1 0x0 DUP1 PUSH1 0x0 DUP1 PUSH1 0x0 DUP1 PUSH1 0x0 PUSH1 0x80 DUP9 DUP11 SUB SLT ISZERO PUSH2 0x2DF1 JUMPI PUSH1 0x0 DUP1 REVERT JUMPDEST PUSH2 0x2DFA DUP9 PUSH2 0x2B0F JUMP JUMPDEST SWAP7 POP PUSH1 0x20 DUP9 ADD CALLDATALOAD PUSH1 0x1 PUSH1 0x1 PUSH1 0x40 SHL SUB DUP1 DUP3 GT ISZERO PUSH2 0x2E16 JUMPI PUSH1 0x0 DUP1 REVERT JUMPDEST PUSH2 0x2E22 DUP12 DUP4 DUP13 ADD PUSH2 0x2D4A JUMP JUMPDEST SWAP1 SWAP9 POP SWAP7 POP PUSH1 0x40 DUP11 ADD CALLDATALOAD SWAP2 POP DUP1 DUP3 GT ISZERO PUSH2 0x2E3B JUMPI PUSH1 0x0 DUP1 REVERT JUMPDEST PUSH2 0x2E47 DUP12 DUP4 DUP13 ADD PUSH2 0x2D4A JUMP JUMPDEST SWAP1 SWAP7 POP SWAP5 POP PUSH1 0x60 DUP11 ADD CALLDATALOAD SWAP2 POP DUP1 DUP3 GT ISZERO PUSH2 0x2E60 JUMPI PUSH1 0x0 DUP1 REVERT JUMPDEST POP PUSH2 0x2E6D DUP11 DUP3 DUP12 ADD PUSH2 0x2D95 JUMP JUMPDEST SWAP9 SWAP12 SWAP8 SWAP11 POP SWAP6 SWAP9 POP SWAP4 SWAP7 SWAP3 SWAP6 SWAP3 SWAP4 POP POP POP JUMP JUMPDEST PUSH1 0x0 PUSH1 0x1 PUSH1 0x1 PUSH1 0x40 SHL SUB DUP3 GT ISZERO PUSH2 0x2E99 JUMPI PUSH2 0x2E99 PUSH2 0x2B88 JUMP JUMPDEST POP PUSH1 0x5 SHL PUSH1 0x20 ADD SWAP1 JUMP JUMPDEST PUSH1 0x0 DUP3 PUSH1 0x1F DUP4 ADD SLT PUSH2 0x2EB4 JUMPI PUSH1 0x0 DUP1 REVERT JUMPDEST DUP2 CALLDATALOAD PUSH1 0x20 PUSH2 0x2EC1 DUP3 PUSH2 0x2E80 JUMP JUMPDEST PUSH1 0x40 MLOAD PUSH2 0x2ECE DUP3 DUP3 PUSH2 0x2B9E JUMP JUMPDEST DUP4 DUP2 MSTORE PUSH1 0x5 SWAP4 SWAP1 SWAP4 SHL DUP6 ADD DUP3 ADD SWAP3 DUP3 DUP2 ADD SWAP2 POP DUP7 DUP5 GT ISZERO PUSH2 0x2EEE JUMPI PUSH1 0x0 DUP1 REVERT JUMPDEST DUP3 DUP7 ADD JUMPDEST DUP5 DUP2 LT ISZERO PUSH2 0x2F09 JUMPI DUP1 CALLDATALOAD DUP4 MSTORE SWAP2 DUP4 ADD SWAP2 DUP4 ADD PUSH2 0x2EF2 JUMP JUMPDEST POP SWAP7 SWAP6 POP POP POP POP POP POP JUMP JUMPDEST PUSH1 0x0 DUP1 PUSH1 0x0 DUP1 PUSH1 0x0 PUSH1 0xA0 DUP7 DUP9 SUB SLT ISZERO PUSH2 0x2F2C JUMPI PUSH1 0x0 DUP1 REVERT JUMPDEST PUSH2 0x2F35 DUP7 PUSH2 0x2B0F JUMP JUMPDEST SWAP5 POP PUSH2 0x2F43 PUSH1 0x20 DUP8 ADD PUSH2 0x2B0F JUMP JUMPDEST SWAP4 POP PUSH1 0x40 DUP7 ADD CALLDATALOAD PUSH1 0x1 PUSH1 0x1 PUSH1 0x40 SHL SUB DUP1 DUP3 GT ISZERO PUSH2 0x2F5F JUMPI PUSH1 0x0 DUP1 REVERT JUMPDEST PUSH2 0x2F6B DUP10 DUP4 DUP11 ADD PUSH2 0x2EA3 JUMP JUMPDEST SWAP5 POP PUSH1 0x60 DUP9 ADD CALLDATALOAD SWAP2 POP DUP1 DUP3 GT ISZERO PUSH2 0x2F81 JUMPI PUSH1 0x0 DUP1 REVERT JUMPDEST PUSH2 0x2F8D DUP10 DUP4 DUP11 ADD PUSH2 0x2EA3 JUMP JUMPDEST SWAP4 POP PUSH1 0x80 DUP9 ADD CALLDATALOAD SWAP2 POP DUP1 DUP3 GT ISZERO PUSH2 0x2FA3 JUMPI PUSH1 0x0 DUP1 REVERT JUMPDEST POP PUSH2 0x2FB0 DUP9 DUP3 DUP10 ADD PUSH2 0x2BCA JUMP JUMPDEST SWAP2 POP POP SWAP3 SWAP6 POP SWAP3 SWAP6 SWAP1 SWAP4 POP JUMP JUMPDEST PUSH1 0x0 DUP1 PUSH1 0x40 DUP4 DUP6 SUB SLT ISZERO PUSH2 0x2FD0 JUMPI PUSH1 0x0 DUP1 REVERT JUMPDEST DUP3 CALLDATALOAD SWAP2 POP PUSH2 0x2FE0 PUSH1 0x20 DUP5 ADD PUSH2 0x2B0F JUMP JUMPDEST SWAP1 POP SWAP3 POP SWAP3 SWAP1 POP JUMP JUMPDEST PUSH1 0x0 PUSH1 0x20 DUP3 DUP5 SUB SLT ISZERO PUSH2 0x2FFB JUMPI PUSH1 0x0 DUP1 REVERT JUMPDEST PUSH2 0x75E DUP3 PUSH2 0x2B0F JUMP JUMPDEST PUSH1 0x0 DUP1 PUSH1 0x40 DUP4 DUP6 SUB SLT ISZERO PUSH2 0x3017 JUMPI PUSH1 0x0 DUP1 REVERT JUMPDEST DUP3 CALLDATALOAD PUSH1 0x1 PUSH1 0x1 PUSH1 0x40 SHL SUB DUP1 DUP3 GT ISZERO PUSH2 0x302E JUMPI PUSH1 0x0 DUP1 REVERT JUMPDEST PUSH2 0x303A DUP7 DUP4 DUP8 ADD PUSH2 0x2BCA JUMP JUMPDEST SWAP4 POP PUSH1 0x20 DUP6 ADD CALLDATALOAD SWAP2 POP DUP1 DUP3 GT ISZERO PUSH2 0x3050 JUMPI PUSH1 0x0 DUP1 REVERT JUMPDEST POP PUSH2 0x2CBC DUP6 DUP3 DUP7 ADD PUSH2 0x2BCA JUMP JUMPDEST PUSH1 0x0 DUP1 PUSH1 0x40 DUP4 DUP6 SUB SLT ISZERO PUSH2 0x3070 JUMPI PUSH1 0x0 DUP1 REVERT JUMPDEST DUP3 CALLDATALOAD PUSH1 0x1 PUSH1 0x1 PUSH1 0x40 SHL SUB DUP1 DUP3 GT ISZERO PUSH2 0x3087 JUMPI PUSH1 0x0 DUP1 REVERT JUMPDEST DUP2 DUP6 ADD SWAP2 POP DUP6 PUSH1 0x1F DUP4 ADD SLT PUSH2 0x309B JUMPI PUSH1 0x0 DUP1 REVERT JUMPDEST DUP2 CALLDATALOAD PUSH1 0x20 PUSH2 0x30A8 DUP3 PUSH2 0x2E80 JUMP JUMPDEST PUSH1 0x40 MLOAD PUSH2 0x30B5 DUP3 DUP3 PUSH2 0x2B9E JUMP JUMPDEST DUP4 DUP2 MSTORE PUSH1 0x5 SWAP4 SWAP1 SWAP4 SHL DUP6 ADD DUP3 ADD SWAP3 DUP3 DUP2 ADD SWAP2 POP DUP10 DUP5 GT ISZERO PUSH2 0x30D5 JUMPI PUSH1 0x0 DUP1 REVERT JUMPDEST SWAP5 DUP3 ADD SWAP5 JUMPDEST DUP4 DUP7 LT ISZERO PUSH2 0x30FA JUMPI PUSH2 0x30EB DUP7 PUSH2 0x2B0F JUMP JUMPDEST DUP3 MSTORE SWAP5 DUP3 ADD SWAP5 SWAP1 DUP3 ADD SWAP1 PUSH2 0x30DA JUMP JUMPDEST SWAP7 POP POP DUP7 ADD CALLDATALOAD SWAP3 POP POP DUP1 DUP3 GT ISZERO PUSH2 0x3110 JUMPI PUSH1 0x0 DUP1 REVERT JUMPDEST POP PUSH2 0x2CBC DUP6 DUP3 DUP7 ADD PUSH2 0x2EA3 JUMP JUMPDEST PUSH1 0x0 DUP2 MLOAD DUP1 DUP5 MSTORE PUSH1 0x20 DUP1 DUP6 ADD SWAP5 POP DUP1 DUP5 ADD PUSH1 0x0 JUMPDEST DUP4 DUP2 LT ISZERO PUSH2 0x314D JUMPI DUP2 MLOAD DUP8 MSTORE SWAP6 DUP3 ADD SWAP6 SWAP1 DUP3 ADD SWAP1 PUSH1 0x1 ADD PUSH2 0x3131 JUMP JUMPDEST POP SWAP5 SWAP6 SWAP5 POP POP POP POP POP JUMP JUMPDEST PUSH1 0x20 DUP2 MSTORE PUSH1 0x0 PUSH2 0x75E PUSH1 0x20 DUP4 ADD DUP5 PUSH2 0x311D JUMP JUMPDEST PUSH1 0x0 DUP1 PUSH1 0x0 PUSH1 0x60 DUP5 DUP7 SUB SLT ISZERO PUSH2 0x3180 JUMPI PUSH1 0x0 DUP1 REVERT JUMPDEST PUSH2 0x3189 DUP5 PUSH2 0x2B0F JUMP JUMPDEST SWAP3 POP PUSH1 0x20 DUP5 ADD CALLDATALOAD PUSH1 0x1 PUSH1 0x1 PUSH1 0x40 SHL SUB DUP1 DUP3 GT ISZERO PUSH2 0x31A5 JUMPI PUSH1 0x0 DUP1 REVERT JUMPDEST PUSH2 0x31B1 DUP8 DUP4 DUP9 ADD PUSH2 0x2EA3 JUMP JUMPDEST SWAP4 POP PUSH1 0x40 DUP7 ADD CALLDATALOAD SWAP2 POP DUP1 DUP3 GT ISZERO PUSH2 0x31C7 JUMPI PUSH1 0x0 DUP1 REVERT JUMPDEST POP PUSH2 0x31D4 DUP7 DUP3 DUP8 ADD PUSH2 0x2EA3 JUMP JUMPDEST SWAP2 POP POP SWAP3 POP SWAP3 POP SWAP3 JUMP JUMPDEST PUSH1 0x0 DUP1 PUSH1 0x0 DUP1 PUSH1 0x0 PUSH1 0x80 DUP7 DUP9 SUB SLT ISZERO PUSH2 0x31F6 JUMPI PUSH1 0x0 DUP1 REVERT JUMPDEST PUSH2 0x31FF DUP7 PUSH2 0x2B0F JUMP JUMPDEST SWAP5 POP PUSH1 0x20 DUP7 ADD CALLDATALOAD SWAP4 POP PUSH1 0x40 DUP7 ADD CALLDATALOAD SWAP3 POP PUSH1 0x60 DUP7 ADD CALLDATALOAD PUSH1 0x1 PUSH1 0x1 PUSH1 0x40 SHL SUB DUP2 GT ISZERO PUSH2 0x3228 JUMPI PUSH1 0x0 DUP1 REVERT JUMPDEST PUSH2 0x3234 DUP9 DUP3 DUP10 ADD PUSH2 0x2D95 JUMP JUMPDEST SWAP7 SWAP10 SWAP6 SWAP9 POP SWAP4 SWAP7 POP SWAP3 SWAP5 SWAP4 SWAP3 POP POP POP JUMP JUMPDEST PUSH1 0x0 DUP1 PUSH1 0x40 DUP4 DUP6 SUB SLT ISZERO PUSH2 0x3258 JUMPI PUSH1 0x0 DUP1 REVERT JUMPDEST POP POP DUP1 CALLDATALOAD SWAP3 PUSH1 0x20 SWAP1 SWAP2 ADD CALLDATALOAD SWAP2 POP JUMP JUMPDEST PUSH1 0x1 PUSH1 0x1 PUSH1 0xA0 SHL SUB SWAP2 SWAP1 SWAP2 AND DUP2 MSTORE PUSH1 0x20 ADD SWAP1 JUMP JUMPDEST PUSH1 0x0 DUP1 PUSH1 0x40 DUP4 DUP6 SUB SLT ISZERO PUSH2 0x328E JUMPI PUSH1 0x0 DUP1 REVERT JUMPDEST PUSH2 0x3297 DUP4 PUSH2 0x2B0F JUMP JUMPDEST SWAP2 POP PUSH1 0x20 DUP4 ADD CALLDATALOAD DUP1 ISZERO ISZERO DUP2 EQ PUSH2 0x32AC JUMPI PUSH1 0x0 DUP1 REVERT JUMPDEST DUP1 SWAP2 POP POP SWAP3 POP SWAP3 SWAP1 POP JUMP JUMPDEST PUSH1 0x0 DUP1 PUSH1 0x40 DUP4 DUP6 SUB SLT ISZERO PUSH2 0x32CA JUMPI PUSH1 0x0 DUP1 REVERT JUMPDEST PUSH2 0x32D3 DUP4 PUSH2 0x2B0F JUMP JUMPDEST SWAP2 POP PUSH2 0x2FE0 PUSH1 0x20 DUP5 ADD PUSH2 0x2B0F JUMP JUMPDEST PUSH1 0x0 DUP1 PUSH1 0x0 DUP1 PUSH1 0x0 PUSH1 0xA0 DUP7 DUP9 SUB SLT ISZERO PUSH2 0x32F9 JUMPI PUSH1 0x0 DUP1 REVERT JUMPDEST PUSH2 0x3302 DUP7 PUSH2 0x2B0F JUMP JUMPDEST SWAP5 POP PUSH2 0x3310 PUSH1 0x20 DUP8 ADD PUSH2 0x2B0F JUMP JUMPDEST SWAP4 POP PUSH1 0x40 DUP7 ADD CALLDATALOAD SWAP3 POP PUSH1 0x60 DUP7 ADD CALLDATALOAD SWAP2 POP PUSH1 0x80 DUP7 ADD CALLDATALOAD PUSH1 0x1 PUSH1 0x1 PUSH1 0x40 SHL SUB DUP2 GT ISZERO PUSH2 0x3339 JUMPI PUSH1 0x0 DUP1 REVERT JUMPDEST PUSH2 0x2FB0 DUP9 DUP3 DUP10 ADD PUSH2 0x2BCA JUMP JUMPDEST PUSH1 0x0 DUP1 PUSH1 0x0 PUSH1 0x60 DUP5 DUP7 SUB SLT ISZERO PUSH2 0x335A JUMPI PUSH1 0x0 DUP1 REVERT JUMPDEST PUSH2 0x3363 DUP5 PUSH2 0x2B0F JUMP JUMPDEST SWAP6 PUSH1 0x20 DUP6 ADD CALLDATALOAD SWAP6 POP PUSH1 0x40 SWAP1 SWAP5 ADD CALLDATALOAD SWAP4 SWAP3 POP POP POP JUMP JUMPDEST PUSH1 0x20 DUP1 DUP3 MSTORE PUSH1 0x2A SWAP1 DUP3 ADD MSTORE PUSH32 0x455243313135353A2061646472657373207A65726F206973206E6F7420612076 PUSH1 0x40 DUP3 ADD MSTORE PUSH10 0x30B634B21037BBB732B9 PUSH1 0xB1 SHL PUSH1 0x60 DUP3 ADD MSTORE PUSH1 0x80 ADD SWAP1 JUMP JUMPDEST PUSH1 0x1 DUP2 DUP2 SHR SWAP1 DUP3 AND DUP1 PUSH2 0x33D6 JUMPI PUSH1 0x7F DUP3 AND SWAP2 POP JUMPDEST PUSH1 0x20 DUP3 LT DUP2 EQ ISZERO PUSH2 0x33F7 JUMPI PUSH4 0x4E487B71 PUSH1 0xE0 SHL PUSH1 0x0 MSTORE PUSH1 0x22 PUSH1 0x4 MSTORE PUSH1 0x24 PUSH1 0x0 REVERT JUMPDEST POP SWAP2 SWAP1 POP JUMP JUMPDEST PUSH1 0x20 DUP1 DUP3 MSTORE PUSH1 0x2E SWAP1 DUP3 ADD MSTORE PUSH32 0x44756D6D794D696E7461626C65455243313135353A20494E5355464649434945 PUSH1 0x40 DUP3 ADD MSTORE PUSH14 0x4E545F5045524D495353494F4E53 PUSH1 0x90 SHL PUSH1 0x60 DUP3 ADD MSTORE PUSH1 0x80 ADD SWAP1 JUMP JUMPDEST PUSH1 0x20 DUP1 DUP3 MSTORE PUSH1 0x2E SWAP1 DUP3 ADD MSTORE PUSH32 0x455243313135353A2063616C6C6572206973206E6F7420746F6B656E206F776E PUSH1 0x40 DUP3 ADD MSTORE PUSH14 0x195C881BDC88185C1C1C9BDD9959 PUSH1 0x92 SHL PUSH1 0x60 DUP3 ADD MSTORE PUSH1 0x80 ADD SWAP1 JUMP JUMPDEST PUSH1 0x20 DUP1 DUP3 MSTORE PUSH1 0x2C SWAP1 DUP3 ADD MSTORE PUSH32 0x46756E6374696F6E206D7573742062652063616C6C6564207468726F75676820 PUSH1 0x40 DUP3 ADD MSTORE PUSH12 0x19195B1959D85D1958D85B1B PUSH1 0xA2 SHL PUSH1 0x60 DUP3 ADD MSTORE PUSH1 0x80 ADD SWAP1 JUMP JUMPDEST PUSH1 0x20 DUP1 DUP3 MSTORE PUSH1 0x2C SWAP1 DUP3 ADD MSTORE PUSH32 0x46756E6374696F6E206D7573742062652063616C6C6564207468726F75676820 PUSH1 0x40 DUP3 ADD MSTORE PUSH12 0x6163746976652070726F7879 PUSH1 0xA0 SHL PUSH1 0x60 DUP3 ADD MSTORE PUSH1 0x80 ADD SWAP1 JUMP JUMPDEST PUSH4 0x4E487B71 PUSH1 0xE0 SHL PUSH1 0x0 MSTORE PUSH1 0x32 PUSH1 0x4 MSTORE PUSH1 0x24 PUSH1 0x0 REVERT JUMPDEST PUSH4 0x4E487B71 PUSH1 0xE0 SHL PUSH1 0x0 MSTORE PUSH1 0x11 PUSH1 0x4 MSTORE PUSH1 0x24 PUSH1 0x0 REVERT JUMPDEST PUSH1 0x0 PUSH1 0x0 NOT DUP3 EQ ISZERO PUSH2 0x3571 JUMPI PUSH2 0x3571 PUSH2 0x3547 JUMP JUMPDEST POP PUSH1 0x1 ADD SWAP1 JUMP JUMPDEST PUSH1 0x20 DUP1 DUP3 MSTORE PUSH1 0x21 SWAP1 DUP3 ADD MSTORE PUSH32 0x455243313135353A206D696E7420746F20746865207A65726F20616464726573 PUSH1 0x40 DUP3 ADD MSTORE PUSH1 0x73 PUSH1 0xF8 SHL PUSH1 0x60 DUP3 ADD MSTORE PUSH1 0x80 ADD SWAP1 JUMP JUMPDEST PUSH1 0x20 DUP1 DUP3 MSTORE PUSH1 0x28 SWAP1 DUP3 ADD MSTORE PUSH32 0x455243313135353A2069647320616E6420616D6F756E7473206C656E67746820 PUSH1 0x40 DUP3 ADD MSTORE PUSH8 0xDAD2E6DAC2E8C6D PUSH1 0xC3 SHL PUSH1 0x60 DUP3 ADD MSTORE PUSH1 0x80 ADD SWAP1 JUMP JUMPDEST PUSH1 0x0 DUP3 NOT DUP3 GT ISZERO PUSH2 0x3614 JUMPI PUSH2 0x3614 PUSH2 0x3547 JUMP JUMPDEST POP ADD SWAP1 JUMP JUMPDEST PUSH1 0x40 DUP2 MSTORE PUSH1 0x0 PUSH2 0x362C PUSH1 0x40 DUP4 ADD DUP6 PUSH2 0x311D JUMP JUMPDEST DUP3 DUP2 SUB PUSH1 0x20 DUP5 ADD MSTORE PUSH2 0x29D7 DUP2 DUP6 PUSH2 0x311D JUMP JUMPDEST PUSH1 0x20 DUP1 DUP3 MSTORE PUSH1 0x25 SWAP1 DUP3 ADD MSTORE PUSH32 0x455243313135353A207472616E7366657220746F20746865207A65726F206164 PUSH1 0x40 DUP3 ADD MSTORE PUSH5 0x6472657373 PUSH1 0xD8 SHL PUSH1 0x60 DUP3 ADD MSTORE PUSH1 0x80 ADD SWAP1 JUMP JUMPDEST PUSH1 0x20 DUP1 DUP3 MSTORE PUSH1 0x2A SWAP1 DUP3 ADD MSTORE PUSH32 0x455243313135353A20696E73756666696369656E742062616C616E636520666F PUSH1 0x40 DUP3 ADD MSTORE PUSH10 0x39103A3930B739B332B9 PUSH1 0xB1 SHL PUSH1 0x60 DUP3 ADD MSTORE PUSH1 0x80 ADD SWAP1 JUMP JUMPDEST PUSH1 0x0 PUSH1 0x20 DUP3 DUP5 SUB SLT ISZERO PUSH2 0x36DF JUMPI PUSH1 0x0 DUP1 REVERT JUMPDEST POP MLOAD SWAP2 SWAP1 POP JUMP JUMPDEST PUSH1 0x20 DUP1 DUP3 MSTORE PUSH1 0x2B SWAP1 DUP3 ADD MSTORE PUSH32 0x496E697469616C697A61626C653A20636F6E7472616374206973206E6F742069 PUSH1 0x40 DUP3 ADD MSTORE PUSH11 0x6E697469616C697A696E67 PUSH1 0xA8 SHL PUSH1 0x60 DUP3 ADD MSTORE PUSH1 0x80 ADD SWAP1 JUMP JUMPDEST PUSH1 0x20 DUP1 DUP3 MSTORE PUSH1 0x23 SWAP1 DUP3 ADD MSTORE PUSH32 0x455243313135353A206275726E2066726F6D20746865207A65726F2061646472 PUSH1 0x40 DUP3 ADD MSTORE PUSH3 0x657373 PUSH1 0xE8 SHL PUSH1 0x60 DUP3 ADD MSTORE PUSH1 0x80 ADD SWAP1 JUMP JUMPDEST PUSH1 0x20 DUP1 DUP3 MSTORE PUSH1 0x24 SWAP1 DUP3 ADD MSTORE PUSH32 0x455243313135353A206275726E20616D6F756E7420657863656564732062616C PUSH1 0x40 DUP3 ADD MSTORE PUSH4 0x616E6365 PUSH1 0xE0 SHL PUSH1 0x60 DUP3 ADD MSTORE PUSH1 0x80 ADD SWAP1 JUMP JUMPDEST PUSH1 0x1 PUSH1 0x1 PUSH1 0xA0 SHL SUB DUP7 DUP2 AND DUP3 MSTORE DUP6 AND PUSH1 0x20 DUP3 ADD MSTORE PUSH1 0xA0 PUSH1 0x40 DUP3 ADD DUP2 SWAP1 MSTORE PUSH1 0x0 SWAP1 PUSH2 0x37E4 SWAP1 DUP4 ADD DUP7 PUSH2 0x311D JUMP JUMPDEST DUP3 DUP2 SUB PUSH1 0x60 DUP5 ADD MSTORE PUSH2 0x37F6 DUP2 DUP7 PUSH2 0x311D JUMP JUMPDEST SWAP1 POP DUP3 DUP2 SUB PUSH1 0x80 DUP5 ADD MSTORE PUSH2 0x380A DUP2 DUP6 PUSH2 0x2D0B JUMP JUMPDEST SWAP9 SWAP8 POP POP POP POP POP POP POP POP JUMP JUMPDEST PUSH1 0x0 PUSH1 0x20 DUP3 DUP5 SUB SLT ISZERO PUSH2 0x3828 JUMPI PUSH1 0x0 DUP1 REVERT JUMPDEST DUP2 MLOAD PUSH2 0x75E DUP2 PUSH2 0x2B55 JUMP JUMPDEST PUSH1 0x0 PUSH1 0x3 RETURNDATASIZE GT ISZERO PUSH2 0xE7B JUMPI PUSH1 0x4 PUSH1 0x0 DUP1 RETURNDATACOPY POP PUSH1 0x0 MLOAD PUSH1 0xE0 SHR SWAP1 JUMP JUMPDEST PUSH1 0x0 PUSH1 0x44 RETURNDATASIZE LT ISZERO PUSH2 0x385C JUMPI SWAP1 JUMP JUMPDEST PUSH1 0x40 MLOAD PUSH1 0x3 NOT RETURNDATASIZE DUP2 ADD PUSH1 0x4 DUP4 RETURNDATACOPY DUP2 MLOAD RETURNDATASIZE PUSH1 0x1 PUSH1 0x1 PUSH1 0x40 SHL SUB DUP2 PUSH1 0x24 DUP5 ADD GT DUP2 DUP5 GT OR ISZERO PUSH2 0x388B JUMPI POP POP POP POP POP SWAP1 JUMP JUMPDEST DUP3 DUP6 ADD SWAP2 POP DUP2 MLOAD DUP2 DUP2 GT ISZERO PUSH2 0x38A3 JUMPI POP POP POP POP POP POP SWAP1 JUMP JUMPDEST DUP5 RETURNDATASIZE DUP8 ADD ADD PUSH1 0x20 DUP3 DUP6 ADD ADD GT ISZERO PUSH2 0x38BD JUMPI POP POP POP POP POP POP SWAP1 JUMP JUMPDEST PUSH2 0x38CC PUSH1 0x20 DUP3 DUP7 ADD ADD DUP8 PUSH2 0x2B9E JUMP JUMPDEST POP SWAP1 SWAP6 SWAP5 POP POP POP POP POP JUMP JUMPDEST PUSH1 0x20 DUP1 DUP3 MSTORE PUSH1 0x28 SWAP1 DUP3 ADD MSTORE PUSH32 0x455243313135353A204552433131353552656365697665722072656A65637465 PUSH1 0x40 DUP3 ADD MSTORE PUSH8 0x6420746F6B656E73 PUSH1 0xC0 SHL PUSH1 0x60 DUP3 ADD MSTORE PUSH1 0x80 ADD SWAP1 JUMP JUMPDEST PUSH23 0x20B1B1B2B9B9A1B7B73A3937B61D1030B1B1B7BAB73A1 PUSH1 0x4D SHL DUP2 MSTORE PUSH1 0x0 DUP4 MLOAD PUSH2 0x3951 DUP2 PUSH1 0x17 DUP6 ADD PUSH1 0x20 DUP9 ADD PUSH2 0x2CDF JUMP JUMPDEST PUSH17 0x1034B99036B4B9B9B4B733903937B6329 PUSH1 0x7D SHL PUSH1 0x17 SWAP2 DUP5 ADD SWAP2 DUP3 ADD MSTORE DUP4 MLOAD PUSH2 0x3982 DUP2 PUSH1 0x28 DUP5 ADD PUSH1 0x20 DUP9 ADD PUSH2 0x2CDF JUMP JUMPDEST ADD PUSH1 0x28 ADD SWAP5 SWAP4 POP POP POP POP JUMP JUMPDEST PUSH1 0x1 PUSH1 0x1 PUSH1 0xA0 SHL SUB DUP7 DUP2 AND DUP3 MSTORE DUP6 AND PUSH1 0x20 DUP3 ADD MSTORE PUSH1 0x40 DUP2 ADD DUP5 SWAP1 MSTORE PUSH1 0x60 DUP2 ADD DUP4 SWAP1 MSTORE PUSH1 0xA0 PUSH1 0x80 DUP3 ADD DUP2 SWAP1 MSTORE PUSH1 0x0 SWAP1 PUSH2 0x39C8 SWAP1 DUP4 ADD DUP5 PUSH2 0x2D0B JUMP JUMPDEST SWAP8 SWAP7 POP POP POP POP POP POP POP JUMP JUMPDEST PUSH1 0x0 DUP2 PUSH1 0x0 NOT DIV DUP4 GT DUP3 ISZERO ISZERO AND ISZERO PUSH2 0x39ED JUMPI PUSH2 0x39ED PUSH2 0x3547 JUMP JUMPDEST POP MUL SWAP1 JUMP JUMPDEST PUSH1 0x0 DUP2 PUSH2 0x3A01 JUMPI PUSH2 0x3A01 PUSH2 0x3547 JUMP JUMPDEST POP PUSH1 0x0 NOT ADD SWAP1 JUMP JUMPDEST PUSH1 0x0 DUP3 DUP3 LT ISZERO PUSH2 0x3A1B JUMPI PUSH2 0x3A1B PUSH2 0x3547 JUMP JUMPDEST POP SUB SWAP1 JUMP JUMPDEST PUSH4 0x4E487B71 PUSH1 0xE0 SHL PUSH1 0x0 MSTORE PUSH1 0x31 PUSH1 0x4 MSTORE PUSH1 0x24 PUSH1 0x0 REVERT JUMPDEST PUSH1 0x0 DUP3 MLOAD PUSH2 0x3A48 DUP2 DUP5 PUSH1 0x20 DUP8 ADD PUSH2 0x2CDF JUMP JUMPDEST SWAP2 SWAP1 SWAP2 ADD SWAP3 SWAP2 POP POP JUMP INVALID 0x4A CODECOPY 0xDC MOD 0xD4 0xC0 0xDB 0xC6 0x4B PUSH17 0xAF90FD698A233A518AA5D07E595D983B8C SDIV 0x26 0xC8 0xF7 0xFB 0xC3 0xD5 DUP2 PUSH9 0xC5AE7397731D063D5B 0xBF RETURNDATASIZE PUSH6 0x7854427343F4 0xC0 DUP4 0x24 0xF PUSH27 0xACAA2D0F62899BD46557473CB80307A9DABC297131CED39608330A 0x2D 0x29 0xB2 0xD5 0x2B PUSH7 0xC03923E360894 LOG1 EXTCODESIZE LOG1 LOG3 0x21 MOD PUSH8 0xC828492DB98DCA3E KECCAK256 PUSH23 0xCC3735A920A3CA505D382BBC416464726573733A206C6F PUSH24 0x2D6C6576656C2064656C65676174652063616C6C20666169 PUSH13 0x656412FF340D0CD9C652C747CA CALLDATALOAD PUSH19 0x7E68C547D0F0BFA7758D2E77F75ACEF481B4F2 LOG2 PUSH5 0x6970667358 0x22 SLT KECCAK256 0xEB SWAP2 0xAE 0x5E 0xE2 0xE 0xB3 TIMESTAMP 0xAB DUP4 PUSH22 0xA0F7AC9DE5A6E59F23A80C5A5AB19BF9597BFF375364 PUSH20 0x6F6C634300080C00330000000000000000000000 "},"methodIdentifiers":{"DEFAULT_ADMIN_ROLE()":"a217fddf","GOVERN_ROLE()":"38b7f446","PREDICATE_ROLE()":"e72db5fd","balanceOf(address,uint256)":"00fdd58e","balanceOfBatch(address[],uint256[])":"4e1273f4","balanceOfCredential(address,string)":"06b6ac69","burn(address,uint256,uint256)":"f5298aca","burnBatch(address,uint256[],uint256[])":"6b20c454","contractURI()":"e8a3d485","exists(uint256)":"4f558e79","getRoleAdmin(bytes32)":"248a9ca3","getRoleMember(bytes32,uint256)":"9010d07c","getRoleMemberCount(bytes32)":"ca15c873","getTokenId(string)":"1e7663bc","grantRole(bytes32,address)":"2f2ff15d","hasRole(bytes32,address)":"91d14854","initialize(string,string)":"4cd88b76","isApprovedForAll(address,address)":"e985e9c5","mint(address,uint256,uint256,bytes)":"731133e9","mintBatch(address,uint256[],uint256[],bytes)":"1f7fdffa","pause()":"8456cb59","paused()":"5c975abb","proxiableUUID()":"52d1902d","renounceRole(bytes32,address)":"36568abe","revokeRole(bytes32,address)":"d547741f","safeBatchTransferFrom(address,address,uint256[],uint256[],bytes)":"2eb2c2d6","safeTransferFrom(address,address,uint256,uint256,bytes)":"f242432a","setApprovalForAll(address,bool)":"a22cb465","setContractURI(string)":"938e3d7b","setURI(string)":"02fe5305","supportsInterface(bytes4)":"01ffc9a7","totalSupply(uint256)":"bd85b039","unpause()":"3f4ba83a","upgradeTo(address)":"3659cfe6","upgradeToAndCall(address,bytes)":"4f1ef286","uri(uint256)":"0e89341c"}},"storageLayout":{"storage":[{"astId":1106,"contract":"contracts/MainnetKrebitNFT.sol:MainnetKrebitNFT","label":"_initialized","offset":0,"slot":"0","type":"t_uint8"},{"astId":1109,"contract":"contracts/MainnetKrebitNFT.sol:MainnetKrebitNFT","label":"_initializing","offset":1,"slot":"0","type":"t_bool"},{"astId":3776,"contract":"contracts/MainnetKrebitNFT.sol:MainnetKrebitNFT","label":"__gap","offset":0,"slot":"1","type":"t_array(t_uint256)50_storage"},{"astId":4183,"contract":"contracts/MainnetKrebitNFT.sol:MainnetKrebitNFT","label":"__gap","offset":0,"slot":"51","type":"t_array(t_uint256)50_storage"},{"astId":184,"contract":"contracts/MainnetKrebitNFT.sol:MainnetKrebitNFT","label":"_roles","offset":0,"slot":"101","type":"t_mapping(t_bytes32,t_struct(RoleData)179_storage)"},{"astId":479,"contract":"contracts/MainnetKrebitNFT.sol:MainnetKrebitNFT","label":"__gap","offset":0,"slot":"102","type":"t_array(t_uint256)49_storage"},{"astId":33,"contract":"contracts/MainnetKrebitNFT.sol:MainnetKrebitNFT","label":"_roleMembers","offset":0,"slot":"151","type":"t_mapping(t_bytes32,t_struct(AddressSet)5699_storage)"},{"astId":143,"contract":"contracts/MainnetKrebitNFT.sol:MainnetKrebitNFT","label":"__gap","offset":0,"slot":"152","type":"t_array(t_uint256)49_storage"},{"astId":1720,"contract":"contracts/MainnetKrebitNFT.sol:MainnetKrebitNFT","label":"_balances","offset":0,"slot":"201","type":"t_mapping(t_uint256,t_mapping(t_address,t_uint256))"},{"astId":1726,"contract":"contracts/MainnetKrebitNFT.sol:MainnetKrebitNFT","label":"_operatorApprovals","offset":0,"slot":"202","type":"t_mapping(t_address,t_mapping(t_address,t_bool))"},{"astId":1728,"contract":"contracts/MainnetKrebitNFT.sol:MainnetKrebitNFT","label":"_uri","offset":0,"slot":"203","type":"t_string_storage"},{"astId":2935,"contract":"contracts/MainnetKrebitNFT.sol:MainnetKrebitNFT","label":"__gap","offset":0,"slot":"204","type":"t_array(t_uint256)47_storage"},{"astId":1425,"contract":"contracts/MainnetKrebitNFT.sol:MainnetKrebitNFT","label":"_paused","offset":0,"slot":"251","type":"t_bool"},{"astId":1530,"contract":"contracts/MainnetKrebitNFT.sol:MainnetKrebitNFT","label":"__gap","offset":0,"slot":"252","type":"t_array(t_uint256)49_storage"},{"astId":3258,"contract":"contracts/MainnetKrebitNFT.sol:MainnetKrebitNFT","label":"__gap","offset":0,"slot":"301","type":"t_array(t_uint256)50_storage"},{"astId":3187,"contract":"contracts/MainnetKrebitNFT.sol:MainnetKrebitNFT","label":"__gap","offset":0,"slot":"351","type":"t_array(t_uint256)50_storage"},{"astId":3284,"contract":"contracts/MainnetKrebitNFT.sol:MainnetKrebitNFT","label":"_totalSupply","offset":0,"slot":"401","type":"t_mapping(t_uint256,t_uint256)"},{"astId":3435,"contract":"contracts/MainnetKrebitNFT.sol:MainnetKrebitNFT","label":"__gap","offset":0,"slot":"402","type":"t_array(t_uint256)49_storage"},{"astId":1088,"contract":"contracts/MainnetKrebitNFT.sol:MainnetKrebitNFT","label":"__gap","offset":0,"slot":"451","type":"t_array(t_uint256)50_storage"},{"astId":1403,"contract":"contracts/MainnetKrebitNFT.sol:MainnetKrebitNFT","label":"__gap","offset":0,"slot":"501","type":"t_array(t_uint256)50_storage"},{"astId":6868,"contract":"contracts/MainnetKrebitNFT.sol:MainnetKrebitNFT","label":"_contractURI","offset":0,"slot":"551","type":"t_string_storage"},{"astId":7207,"contract":"contracts/MainnetKrebitNFT.sol:MainnetKrebitNFT","label":"__gap","offset":0,"slot":"552","type":"t_array(t_uint256)50_storage"}],"types":{"t_address":{"encoding":"inplace","label":"address","numberOfBytes":"20"},"t_array(t_bytes32)dyn_storage":{"base":"t_bytes32","encoding":"dynamic_array","label":"bytes32[]","numberOfBytes":"32"},"t_array(t_uint256)47_storage":{"base":"t_uint256","encoding":"inplace","label":"uint256[47]","numberOfBytes":"1504"},"t_array(t_uint256)49_storage":{"base":"t_uint256","encoding":"inplace","label":"uint256[49]","numberOfBytes":"1568"},"t_array(t_uint256)50_storage":{"base":"t_uint256","encoding":"inplace","label":"uint256[50]","numberOfBytes":"1600"},"t_bool":{"encoding":"inplace","label":"bool","numberOfBytes":"1"},"t_bytes32":{"encoding":"inplace","label":"bytes32","numberOfBytes":"32"},"t_mapping(t_address,t_bool)":{"encoding":"mapping","key":"t_address","label":"mapping(address => bool)","numberOfBytes":"32","value":"t_bool"},"t_mapping(t_address,t_mapping(t_address,t_bool))":{"encoding":"mapping","key":"t_address","label":"mapping(address => mapping(address => bool))","numberOfBytes":"32","value":"t_mapping(t_address,t_bool)"},"t_mapping(t_address,t_uint256)":{"encoding":"mapping","key":"t_address","label":"mapping(address => uint256)","numberOfBytes":"32","value":"t_uint256"},"t_mapping(t_bytes32,t_struct(AddressSet)5699_storage)":{"encoding":"mapping","key":"t_bytes32","label":"mapping(bytes32 => struct EnumerableSetUpgradeable.AddressSet)","numberOfBytes":"32","value":"t_struct(AddressSet)5699_storage"},"t_mapping(t_bytes32,t_struct(RoleData)179_storage)":{"encoding":"mapping","key":"t_bytes32","label":"mapping(bytes32 => struct AccessControlUpgradeable.RoleData)","numberOfBytes":"32","value":"t_struct(RoleData)179_storage"},"t_mapping(t_bytes32,t_uint256)":{"encoding":"mapping","key":"t_bytes32","label":"mapping(bytes32 => uint256)","numberOfBytes":"32","value":"t_uint256"},"t_mapping(t_uint256,t_mapping(t_address,t_uint256))":{"encoding":"mapping","key":"t_uint256","label":"mapping(uint256 => mapping(address => uint256))","numberOfBytes":"32","value":"t_mapping(t_address,t_uint256)"},"t_mapping(t_uint256,t_uint256)":{"encoding":"mapping","key":"t_uint256","label":"mapping(uint256 => uint256)","numberOfBytes":"32","value":"t_uint256"},"t_string_storage":{"encoding":"bytes","label":"string","numberOfBytes":"32"},"t_struct(AddressSet)5699_storage":{"encoding":"inplace","label":"struct EnumerableSetUpgradeable.AddressSet","members":[{"astId":5698,"contract":"contracts/MainnetKrebitNFT.sol:MainnetKrebitNFT","label":"_inner","offset":0,"slot":"0","type":"t_struct(Set)5384_storage"}],"numberOfBytes":"64"},"t_struct(RoleData)179_storage":{"encoding":"inplace","label":"struct AccessControlUpgradeable.RoleData","members":[{"astId":176,"contract":"contracts/MainnetKrebitNFT.sol:MainnetKrebitNFT","label":"members","offset":0,"slot":"0","type":"t_mapping(t_address,t_bool)"},{"astId":178,"contract":"contracts/MainnetKrebitNFT.sol:MainnetKrebitNFT","label":"adminRole","offset":0,"slot":"1","type":"t_bytes32"}],"numberOfBytes":"64"},"t_struct(Set)5384_storage":{"encoding":"inplace","label":"struct EnumerableSetUpgradeable.Set","members":[{"astId":5379,"contract":"contracts/MainnetKrebitNFT.sol:MainnetKrebitNFT","label":"_values","offset":0,"slot":"0","type":"t_array(t_bytes32)dyn_storage"},{"astId":5383,"contract":"contracts/MainnetKrebitNFT.sol:MainnetKrebitNFT","label":"_indexes","offset":0,"slot":"1","type":"t_mapping(t_bytes32,t_uint256)"}],"numberOfBytes":"64"},"t_uint256":{"encoding":"inplace","label":"uint256","numberOfBytes":"32"},"t_uint8":{"encoding":"inplace","label":"uint8","numberOfBytes":"1"}}}}}}