{"contracts/KrebitNFT.sol":{"KrebitNFT":{"abi":[{"inputs":[],"stateMutability":"nonpayable","type":"constructor"},{"anonymous":false,"inputs":[{"indexed":false,"internalType":"address","name":"previousAdmin","type":"address"},{"indexed":false,"internalType":"address","name":"newAdmin","type":"address"}],"name":"AdminChanged","type":"event"},{"anonymous":false,"inputs":[{"indexed":true,"internalType":"address","name":"account","type":"address"},{"indexed":true,"internalType":"address","name":"operator","type":"address"},{"indexed":false,"internalType":"bool","name":"approved","type":"bool"}],"name":"ApprovalForAll","type":"event"},{"anonymous":false,"inputs":[{"indexed":true,"internalType":"address","name":"beacon","type":"address"}],"name":"BeaconUpgraded","type":"event"},{"anonymous":false,"inputs":[{"indexed":false,"internalType":"uint8","name":"version","type":"uint8"}],"name":"Initialized","type":"event"},{"anonymous":false,"inputs":[{"indexed":false,"internalType":"address","name":"account","type":"address"}],"name":"Paused","type":"event"},{"anonymous":false,"inputs":[{"indexed":true,"internalType":"bytes32","name":"role","type":"bytes32"},{"indexed":true,"internalType":"bytes32","name":"previousAdminRole","type":"bytes32"},{"indexed":true,"internalType":"bytes32","name":"newAdminRole","type":"bytes32"}],"name":"RoleAdminChanged","type":"event"},{"anonymous":false,"inputs":[{"indexed":true,"internalType":"bytes32","name":"role","type":"bytes32"},{"indexed":true,"internalType":"address","name":"account","type":"address"},{"indexed":true,"internalType":"address","name":"sender","type":"address"}],"name":"RoleGranted","type":"event"},{"anonymous":false,"inputs":[{"indexed":true,"internalType":"bytes32","name":"role","type":"bytes32"},{"indexed":true,"internalType":"address","name":"account","type":"address"},{"indexed":true,"internalType":"address","name":"sender","type":"address"}],"name":"RoleRevoked","type":"event"},{"anonymous":false,"inputs":[{"indexed":true,"internalType":"address","name":"operator","type":"address"},{"indexed":true,"internalType":"address","name":"from","type":"address"},{"indexed":true,"internalType":"address","name":"to","type":"address"},{"indexed":false,"internalType":"uint256[]","name":"ids","type":"uint256[]"},{"indexed":false,"internalType":"uint256[]","name":"values","type":"uint256[]"}],"name":"TransferBatch","type":"event"},{"anonymous":false,"inputs":[{"indexed":true,"internalType":"address","name":"operator","type":"address"},{"indexed":true,"internalType":"address","name":"from","type":"address"},{"indexed":true,"internalType":"address","name":"to","type":"address"},{"indexed":false,"internalType":"uint256","name":"id","type":"uint256"},{"indexed":false,"internalType":"uint256","name":"value","type":"uint256"}],"name":"TransferSingle","type":"event"},{"anonymous":false,"inputs":[{"indexed":false,"internalType":"string","name":"value","type":"string"},{"indexed":true,"internalType":"uint256","name":"id","type":"uint256"}],"name":"URI","type":"event"},{"anonymous":false,"inputs":[{"indexed":false,"internalType":"address","name":"account","type":"address"}],"name":"Unpaused","type":"event"},{"anonymous":false,"inputs":[],"name":"Updated","type":"event"},{"anonymous":false,"inputs":[{"indexed":true,"internalType":"address","name":"implementation","type":"address"}],"name":"Upgraded","type":"event"},{"inputs":[],"name":"DEFAULT_ADMIN_ROLE","outputs":[{"internalType":"bytes32","name":"","type":"bytes32"}],"stateMutability":"view","type":"function"},{"inputs":[],"name":"DEPOSITOR_ROLE","outputs":[{"internalType":"bytes32","name":"","type":"bytes32"}],"stateMutability":"view","type":"function"},{"inputs":[],"name":"GOVERN_ROLE","outputs":[{"internalType":"bytes32","name":"","type":"bytes32"}],"stateMutability":"view","type":"function"},{"inputs":[{"internalType":"address","name":"account","type":"address"},{"internalType":"uint256","name":"id","type":"uint256"}],"name":"balanceOf","outputs":[{"internalType":"uint256","name":"","type":"uint256"}],"stateMutability":"view","type":"function"},{"inputs":[{"internalType":"address[]","name":"accounts","type":"address[]"},{"internalType":"uint256[]","name":"ids","type":"uint256[]"}],"name":"balanceOfBatch","outputs":[{"internalType":"uint256[]","name":"","type":"uint256[]"}],"stateMutability":"view","type":"function"},{"inputs":[{"internalType":"address","name":"account","type":"address"},{"internalType":"string","name":"credentialSubjectType","type":"string"}],"name":"balanceOfCredential","outputs":[{"internalType":"uint256","name":"","type":"uint256"}],"stateMutability":"view","type":"function"},{"inputs":[{"internalType":"address","name":"account","type":"address"},{"internalType":"uint256","name":"id","type":"uint256"},{"internalType":"uint256","name":"value","type":"uint256"}],"name":"burn","outputs":[],"stateMutability":"nonpayable","type":"function"},{"inputs":[{"internalType":"address","name":"account","type":"address"},{"internalType":"uint256[]","name":"ids","type":"uint256[]"},{"internalType":"uint256[]","name":"values","type":"uint256[]"}],"name":"burnBatch","outputs":[],"stateMutability":"nonpayable","type":"function"},{"inputs":[],"name":"contractURI","outputs":[{"internalType":"string","name":"","type":"string"}],"stateMutability":"view","type":"function"},{"inputs":[{"internalType":"uint256","name":"","type":"uint256"}],"name":"credentialMinted","outputs":[{"internalType":"bool","name":"","type":"bool"}],"stateMutability":"view","type":"function"},{"inputs":[{"internalType":"address","name":"user","type":"address"},{"internalType":"bytes","name":"depositData","type":"bytes"}],"name":"deposit","outputs":[],"stateMutability":"nonpayable","type":"function"},{"inputs":[{"internalType":"uint256","name":"id","type":"uint256"}],"name":"exists","outputs":[{"internalType":"bool","name":"","type":"bool"}],"stateMutability":"view","type":"function"},{"inputs":[],"name":"feesAvailableForWithdraw","outputs":[{"internalType":"uint256","name":"","type":"uint256"}],"stateMutability":"view","type":"function"},{"inputs":[],"name":"forceRegister","outputs":[{"internalType":"bool","name":"","type":"bool"}],"stateMutability":"view","type":"function"},{"inputs":[{"internalType":"bytes32","name":"role","type":"bytes32"}],"name":"getRoleAdmin","outputs":[{"internalType":"bytes32","name":"","type":"bytes32"}],"stateMutability":"view","type":"function"},{"inputs":[{"internalType":"bytes32","name":"role","type":"bytes32"},{"internalType":"uint256","name":"index","type":"uint256"}],"name":"getRoleMember","outputs":[{"internalType":"address","name":"","type":"address"}],"stateMutability":"view","type":"function"},{"inputs":[{"internalType":"bytes32","name":"role","type":"bytes32"}],"name":"getRoleMemberCount","outputs":[{"internalType":"uint256","name":"","type":"uint256"}],"stateMutability":"view","type":"function"},{"inputs":[{"internalType":"string","name":"credentialSubjectType","type":"string"}],"name":"getTokenId","outputs":[{"internalType":"uint256","name":"","type":"uint256"}],"stateMutability":"view","type":"function"},{"inputs":[{"internalType":"bytes32","name":"role","type":"bytes32"},{"internalType":"address","name":"account","type":"address"}],"name":"grantRole","outputs":[],"stateMutability":"nonpayable","type":"function"},{"inputs":[{"internalType":"bytes32","name":"role","type":"bytes32"},{"internalType":"address","name":"account","type":"address"}],"name":"hasRole","outputs":[{"internalType":"bool","name":"","type":"bool"}],"stateMutability":"view","type":"function"},{"inputs":[{"internalType":"string","name":"uri","type":"string"},{"internalType":"string","name":"collectionURI","type":"string"},{"internalType":"uint256","name":"initialPrice","type":"uint256"},{"internalType":"address","name":"krebitAddress","type":"address"}],"name":"initialize","outputs":[],"stateMutability":"nonpayable","type":"function"},{"inputs":[{"internalType":"address","name":"account","type":"address"},{"internalType":"address","name":"operator","type":"address"}],"name":"isApprovedForAll","outputs":[{"internalType":"bool","name":"","type":"bool"}],"stateMutability":"view","type":"function"},{"inputs":[{"internalType":"address","name":"forwarder","type":"address"}],"name":"isTrustedForwarder","outputs":[{"internalType":"bool","name":"","type":"bool"}],"stateMutability":"view","type":"function"},{"inputs":[{"internalType":"address","name":"to","type":"address"},{"internalType":"string","name":"credentialSubjectType","type":"string"},{"components":[{"internalType":"string","name":"_context","type":"string"},{"internalType":"string","name":"_type","type":"string"},{"internalType":"string","name":"id","type":"string"},{"components":[{"internalType":"string","name":"id","type":"string"},{"internalType":"address","name":"ethereumAddress","type":"address"}],"internalType":"struct VCTypes.Issuer","name":"issuer","type":"tuple"},{"components":[{"internalType":"string","name":"id","type":"string"},{"internalType":"address","name":"ethereumAddress","type":"address"},{"internalType":"string","name":"_type","type":"string"},{"internalType":"string","name":"typeSchema","type":"string"},{"internalType":"string","name":"value","type":"string"},{"internalType":"string","name":"encrypted","type":"string"},{"internalType":"uint8","name":"trust","type":"uint8"},{"internalType":"uint256","name":"stake","type":"uint256"},{"internalType":"uint256","name":"price","type":"uint256"},{"internalType":"uint256","name":"nbf","type":"uint256"},{"internalType":"uint256","name":"exp","type":"uint256"}],"internalType":"struct VCTypes.CredentialSubject","name":"credentialSubject","type":"tuple"},{"components":[{"internalType":"string","name":"id","type":"string"},{"internalType":"string","name":"_type","type":"string"}],"internalType":"struct VCTypes.CredentialSchema","name":"credentialSchema","type":"tuple"},{"internalType":"string","name":"issuanceDate","type":"string"},{"internalType":"string","name":"expirationDate","type":"string"}],"internalType":"struct VCTypes.VerifiableCredential","name":"vc","type":"tuple"},{"internalType":"bytes","name":"proofValue","type":"bytes"},{"internalType":"bytes","name":"data","type":"bytes"}],"name":"mintWithCredential","outputs":[],"stateMutability":"payable","type":"function"},{"inputs":[],"name":"pause","outputs":[],"stateMutability":"nonpayable","type":"function"},{"inputs":[],"name":"paused","outputs":[{"internalType":"bool","name":"","type":"bool"}],"stateMutability":"view","type":"function"},{"inputs":[{"internalType":"address","name":"dest","type":"address"}],"name":"payments","outputs":[{"internalType":"uint256","name":"","type":"uint256"}],"stateMutability":"view","type":"function"},{"inputs":[],"name":"price","outputs":[{"internalType":"uint256","name":"","type":"uint256"}],"stateMutability":"view","type":"function"},{"inputs":[],"name":"proxiableUUID","outputs":[{"internalType":"bytes32","name":"","type":"bytes32"}],"stateMutability":"view","type":"function"},{"inputs":[{"internalType":"bytes32","name":"role","type":"bytes32"},{"internalType":"address","name":"account","type":"address"}],"name":"renounceRole","outputs":[],"stateMutability":"nonpayable","type":"function"},{"inputs":[{"internalType":"bytes32","name":"role","type":"bytes32"},{"internalType":"address","name":"account","type":"address"}],"name":"revokeRole","outputs":[],"stateMutability":"nonpayable","type":"function"},{"inputs":[{"internalType":"address","name":"from","type":"address"},{"internalType":"address","name":"to","type":"address"},{"internalType":"uint256[]","name":"ids","type":"uint256[]"},{"internalType":"uint256[]","name":"amounts","type":"uint256[]"},{"internalType":"bytes","name":"data","type":"bytes"}],"name":"safeBatchTransferFrom","outputs":[],"stateMutability":"nonpayable","type":"function"},{"inputs":[{"internalType":"address","name":"from","type":"address"},{"internalType":"address","name":"to","type":"address"},{"internalType":"uint256","name":"id","type":"uint256"},{"internalType":"uint256","name":"amount","type":"uint256"},{"internalType":"bytes","name":"data","type":"bytes"}],"name":"safeTransferFrom","outputs":[],"stateMutability":"nonpayable","type":"function"},{"inputs":[{"internalType":"address","name":"operator","type":"address"},{"internalType":"bool","name":"approved","type":"bool"}],"name":"setApprovalForAll","outputs":[],"stateMutability":"nonpayable","type":"function"},{"inputs":[{"internalType":"string","name":"newuri","type":"string"}],"name":"setContractURI","outputs":[],"stateMutability":"nonpayable","type":"function"},{"inputs":[{"internalType":"uint256","name":"newPrice","type":"uint256"}],"name":"setPrice","outputs":[],"stateMutability":"nonpayable","type":"function"},{"inputs":[{"internalType":"address","name":"newTrustedForwarder","type":"address"}],"name":"setTrustedForwarder","outputs":[],"stateMutability":"nonpayable","type":"function"},{"inputs":[{"internalType":"string","name":"newuri","type":"string"}],"name":"setURI","outputs":[],"stateMutability":"nonpayable","type":"function"},{"inputs":[{"internalType":"bool","name":"force","type":"bool"}],"name":"setforceRegister","outputs":[],"stateMutability":"nonpayable","type":"function"},{"inputs":[{"internalType":"bytes4","name":"interfaceId","type":"bytes4"}],"name":"supportsInterface","outputs":[{"internalType":"bool","name":"","type":"bool"}],"stateMutability":"view","type":"function"},{"inputs":[{"internalType":"uint256","name":"id","type":"uint256"}],"name":"totalSupply","outputs":[{"internalType":"uint256","name":"","type":"uint256"}],"stateMutability":"view","type":"function"},{"inputs":[],"name":"trustedForwarder","outputs":[{"internalType":"address","name":"","type":"address"}],"stateMutability":"view","type":"function"},{"inputs":[],"name":"unpause","outputs":[],"stateMutability":"nonpayable","type":"function"},{"inputs":[{"internalType":"address","name":"newImplementation","type":"address"}],"name":"upgradeTo","outputs":[],"stateMutability":"nonpayable","type":"function"},{"inputs":[{"internalType":"address","name":"newImplementation","type":"address"},{"internalType":"bytes","name":"data","type":"bytes"}],"name":"upgradeToAndCall","outputs":[],"stateMutability":"payable","type":"function"},{"inputs":[{"internalType":"uint256","name":"","type":"uint256"}],"name":"uri","outputs":[{"internalType":"string","name":"","type":"string"}],"stateMutability":"view","type":"function"},{"inputs":[{"internalType":"uint256[]","name":"ids","type":"uint256[]"},{"internalType":"uint256[]","name":"amounts","type":"uint256[]"}],"name":"withdrawBatch","outputs":[],"stateMutability":"nonpayable","type":"function"},{"inputs":[{"internalType":"address payable","name":"_to","type":"address"},{"internalType":"uint256","name":"_amount","type":"uint256"}],"name":"withdrawFees","outputs":[],"stateMutability":"nonpayable","type":"function"},{"inputs":[{"internalType":"address payable","name":"payee","type":"address"}],"name":"withdrawPayments","outputs":[],"stateMutability":"nonpayable","type":"function"},{"inputs":[{"internalType":"uint256","name":"id","type":"uint256"},{"internalType":"uint256","name":"amount","type":"uint256"}],"name":"withdrawSingle","outputs":[],"stateMutability":"nonpayable","type":"function"}],"evm":{"bytecode":{"linkReferences":{},"object":"60a0604052306080523480156200001557600080fd5b506200002062000026565b620000e8565b600054610100900460ff1615620000935760405162461bcd60e51b815260206004820152602760248201527f496e697469616c697a61626c653a20636f6e747261637420697320696e697469604482015266616c697a696e6760c81b606482015260840160405180910390fd5b60005460ff9081161015620000e6576000805460ff191660ff9081179091556040519081527f7f26b83ff96e1f2b6a682f133852f6798a09c465da95921460cefb38474024989060200160405180910390a15b565b6080516154a46200012060003960008181610c1601528181610c5601528181610e3301528181610e730152610eeb01526154a46000f3fe6080604052600436106102685760003560e01c80636b20c45411610145578063bd3a13f6116100bc578063bd3a13f614610752578063bd85b03914610772578063ca15c873146107a0578063ca6b12f1146107c0578063cf2c52cb146107d3578063d547741f146107f3578063da74222814610813578063de5785d514610833578063e2982c211461084a578063e8a3d4851461086a578063e985e9c51461087f578063f242432a146108c8578063f5298aca146108e857600080fd5b80636b20c454146105cf5780637da0a877146105ef5780638456cb591461061d5780639010d07c1461063257806391b7f5ed1461065257806391d1485414610672578063938e3d7b14610692578063a035b1fe146106b2578063a217fddf146106c9578063a22cb465146106de578063a3b0b5a3146106fe578063ad3b1b471461073257600080fd5b806336568abe116101e457806336568abe146104405780633659cfe61461046057806337b0f07d1461048057806338b7f4461461049b5780633f4ba83a146104bd57806343401543146104d25780634e1273f4146104f25780634f1ef2861461051f5780634f558e791461053257806352d1902d14610562578063572b6c05146105775780635c5fb521146105975780635c975abb146105b757600080fd5b8062fdd58e1461026d57806301ffc9a7146102a057806302fe5305146102d057806306b6ac69146102f25780630e89341c146103125780631e7663bc1461033f5780631ecd34801461035f5780632262f53f14610390578063248a9ca3146103b05780632eb2c2d6146103e05780632f2ff15d1461040057806331b3eb9414610420575b600080fd5b34801561027957600080fd5b5061028d610288366004613cd2565b610908565b6040519081526020015b60405180910390f35b3480156102ac57600080fd5b506102c06102bb366004613d14565b610964565b6040519015158152602001610297565b3480156102dc57600080fd5b506102f06102eb366004613e67565b61096f565b005b3480156102fe57600080fd5b5061028d61030d366004613ea3565b610983565b34801561031e57600080fd5b5061033261032d366004613ef2565b6109bf565b6040516102979190613f63565b34801561034b57600080fd5b5061028d61035a366004613e67565b610a53565b34801561036b57600080fd5b506102c061037a366004613ef2565b6102926020526000908152604090205460ff1681565b34801561039c57600080fd5b506102f06103ab366004613f76565b610a84565b3480156103bc57600080fd5b5061028d6103cb366004613ef2565b60009081526065602052604090206001015490565b3480156103ec57600080fd5b506102f06103fb36600461402c565b610a9a565b34801561040c57600080fd5b506102f061041b3660046140d9565b610af8565b34801561042c57600080fd5b506102f061043b366004614109565b610b22565b34801561044c57600080fd5b506102f061045b3660046140d9565b610b81565b34801561046c57600080fd5b506102f061047b366004614109565b610c0b565b34801561048c57600080fd5b50610291546102c09060ff1681565b3480156104a757600080fd5b5061028d60008051602061540883398151915281565b3480156104c957600080fd5b506102f0610cd1565b3480156104de57600080fd5b506102f06104ed366004614134565b610ce3565b3480156104fe57600080fd5b5061051261050d366004614151565b610cff565b604051610297919061424e565b6102f061052d366004613ea3565b610e28565b34801561053e57600080fd5b506102c061054d366004613ef2565b60009081526101916020526040902054151590565b34801561056e57600080fd5b5061028d610ede565b34801561058357600080fd5b506102c0610592366004614109565b610f8d565b3480156105a357600080fd5b506102f06105b23660046142ac565b610fa2565b3480156105c357600080fd5b5060fb5460ff166102c0565b3480156105db57600080fd5b506102f06105ea366004614317565b61101d565b3480156105fb57600080fd5b5061028e54610610906001600160a01b031681565b604051610297919061438c565b34801561062957600080fd5b506102f0611072565b34801561063e57600080fd5b5061061061064d366004613f76565b611082565b34801561065e57600080fd5b506102f061066d366004613ef2565b61109a565b34801561067e57600080fd5b506102c061068d3660046140d9565b6110d4565b34801561069e57600080fd5b506102f06106ad366004613e67565b6110ff565b3480156106be57600080fd5b5061028d61028f5481565b3480156106d557600080fd5b5061028d600081565b3480156106ea57600080fd5b506102f06106f93660046143a0565b61111b565b34801561070a57600080fd5b5061028d7f8f4f2da22e8ac8f11e15f9fc141cddbb5deea8800186560abb6e68c5496619a981565b34801561073e57600080fd5b506102f061074d366004613cd2565b61112d565b34801561075e57600080fd5b506102f061076d3660046143ce565b611174565b34801561077e57600080fd5b5061028d61078d366004613ef2565b6000908152610191602052604090205490565b3480156107ac57600080fd5b5061028d6107bb366004613ef2565b611293565b6102f06107ce366004614661565b6112aa565b3480156107df57600080fd5b506102f06107ee36600461481b565b611841565b3480156107ff57600080fd5b506102f061080e3660046140d9565b611964565b34801561081f57600080fd5b506102f061082e366004614109565b611989565b34801561083f57600080fd5b5061028d6102905481565b34801561085657600080fd5b5061028d610865366004614109565b6119d9565b34801561087657600080fd5b50610332611a4c565b34801561088b57600080fd5b506102c061089a36600461489f565b6001600160a01b03918216600090815260ca6020908152604080832093909416825291909152205460ff1690565b3480156108d457600080fd5b506102f06108e33660046148cd565b611adf565b3480156108f457600080fd5b506102f0610903366004614935565b611b36565b60006001600160a01b0383166109395760405162461bcd60e51b81526004016109309061496a565b60405180910390fd5b50600081815260c9602090815260408083206001600160a01b03861684529091529020545b92915050565b600061095e82611b8b565b610977611bcb565b61098081611c31565b50565b60006001600160a01b0383166109ab5760405162461bcd60e51b81526004016109309061496a565b6109b88361028884610a53565b9392505050565b606060cb80546109ce906149b4565b80601f01602080910402602001604051908101604052809291908181526020018280546109fa906149b4565b8015610a475780601f10610a1c57610100808354040283529160200191610a47565b820191906000526020600020905b815481529060010190602001808311610a2a57829003601f168201915b50505050509050919050565b600081604051602001610a669190613f63565b60408051601f19818403018152919052805160209091012092915050565b610a96610a8f611c44565b8383611c66565b5050565b610aa2611c44565b6001600160a01b0316856001600160a01b03161480610ac85750610ac88561089a611c44565b610ae45760405162461bcd60e51b8152600401610930906149ef565b610af18585858585611d80565b5050505050565b600082815260656020526040902060010154610b1381611f1e565b610b1d8383611f2f565b505050565b610227546040516351cff8d960e01b81526001600160a01b03909116906351cff8d990610b5390849060040161438c565b600060405180830381600087803b158015610b6d57600080fd5b505af1158015610af1573d6000803e3d6000fd5b610b89611c44565b6001600160a01b0316816001600160a01b031614610c015760405162461bcd60e51b815260206004820152602f60248201527f416363657373436f6e74726f6c3a2063616e206f6e6c792072656e6f756e636560448201526e103937b632b9903337b91039b2b63360891b6064820152608401610930565b610a968282611f51565b306001600160a01b037f0000000000000000000000000000000000000000000000000000000000000000161415610c545760405162461bcd60e51b815260040161093090614a3d565b7f00000000000000000000000000000000000000000000000000000000000000006001600160a01b0316610c86611f73565b6001600160a01b031614610cac5760405162461bcd60e51b815260040161093090614a89565b610cb581611f8f565b6040805160008082526020820190925261098091839190611f97565b610cd9611bcb565b610ce1612102565b565b610ceb611bcb565b610291805460ff1916911515919091179055565b60608151835114610d645760405162461bcd60e51b815260206004820152602960248201527f455243313135353a206163636f756e747320616e6420696473206c656e677468604482015268040dad2e6dac2e8c6d60bb1b6064820152608401610930565b600083516001600160401b03811115610d7f57610d7f613d31565b604051908082528060200260200182016040528015610da8578160200160208202803683370190505b50905060005b8451811015610e2057610df3858281518110610dcc57610dcc614ad5565b6020026020010151858381518110610de657610de6614ad5565b6020026020010151610908565b828281518110610e0557610e05614ad5565b6020908102919091010152610e1981614b01565b9050610dae565b509392505050565b306001600160a01b037f0000000000000000000000000000000000000000000000000000000000000000161415610e715760405162461bcd60e51b815260040161093090614a3d565b7f00000000000000000000000000000000000000000000000000000000000000006001600160a01b0316610ea3611f73565b6001600160a01b031614610ec95760405162461bcd60e51b815260040161093090614a89565b610ed282611f8f565b610a9682826001611f97565b6000306001600160a01b037f00000000000000000000000000000000000000000000000000000000000000001614610f795760405162461bcd60e51b815260206004820152603860248201527f555550535570677261646561626c653a206d757374206e6f742062652063616c6044820152771b1959081d1a1c9bdd59da0819195b1959d85d1958d85b1b60421b6064820152608401610930565b506000805160206154288339815191525b90565b61028e546001600160a01b0391821691161490565b611017610fad611c44565b8585808060200260200160405190810160405280939291908181526020018383602002808284376000920191909152505060408051602080890282810182019093528882529093508892508791829185019084908082843760009201919091525061215492505050565b50505050565b611025611c44565b6001600160a01b0316836001600160a01b0316148061104b575061104b8361089a611c44565b6110675760405162461bcd60e51b8152600401610930906149ef565b610b1d838383612154565b61107a611bcb565b610ce16122e8565b60008281526097602052604081206109b89083612326565b6110a2611bcb565b61028f8190556040517ff2e795d4a33ae9a0d3282888375b8ae781ea4de1cbf101ac96150aa95ccff0b490600090a150565b60009182526065602090815260408084206001600160a01b0393909316845291905290205460ff1690565b611107611bcb565b8051610a969061028d906020840190613c14565b610a96611126611c44565b8383612332565b611135612413565b61113d611bcb565b6102905481111561114d57600080fd5b6102905461115b908261246f565b61029055611169828261247b565b610a96600161025a55565b600054610100900460ff16158080156111945750600054600160ff909116105b806111b557506111a3306124db565b1580156111b5575060005460ff166001145b6112185760405162461bcd60e51b815260206004820152602e60248201527f496e697469616c697a61626c653a20636f6e747261637420697320616c72656160448201526d191e481a5b9a5d1a585b1a5e995960921b6064820152608401610930565b6000805460ff19166001179055801561123b576000805461ff0019166101001790555b611247858585856124ea565b8015610af1576000805461ff0019169055604051600181527f7f26b83ff96e1f2b6a682f133852f6798a09c465da95921460cefb38474024989060200160405180910390a15050505050565b600081815260976020526040812061095e90612587565b6112b2612591565b6112cc60008051602061540883398151915261068d611c44565b806112f757506112da611c44565b6001600160a01b03168360800151602001516001600160a01b0316145b6113625760405162461bcd60e51b815260206004820152603660248201527f4b5242546f6b656e3a2073656e646572206d757374206265207468652063726560448201527564656e7469616c5375626a656374206164647265737360501b6064820152608401610930565b846001600160a01b03168360800151602001516001600160a01b0316146113ec5760405162461bcd60e51b815260206004820152603860248201527f4d696e7420746f2061646472657373206d757374206265207468652076632e63604482015277726564656e7469616c5375626a656374206164647265737360401b6064820152608401610930565b6113f5836125d7565b836040516020016114069190613f63565b604051602081830303815290604052805190602001208360800151604001516040516020016114359190613f63565b60405160208183030381529060405280519060200120146114be5760405162461bcd60e51b815260206004820152603e60248201527f76632e63726564656e7469616c5375626a6563742e5f7479706520646f65736e60448201527f2774206d617463682063726564656e7469616c5375626a6563745479706500006064820152608401610930565b60006114c9846128bd565b6000818152610292602052604090205490915060ff16156115285760405162461bcd60e51b815260206004820152601960248201527810dc9959195b9d1a585b08185b1c9958591e481b5a5b9d1959603a1b6044820152606401610930565b6102915460ff168015611614575060405160200161155e906020808252600490820152634e6f6e6560e01b604082015260600190565b60408051601f1981840301815290829052805160209091012061028c5463606a836b60e11b835290916001600160a01b039091169063c0d506d6906115a7908890600401614d2c565b600060405180830381865afa1580156115c4573d6000803e3d6000fd5b505050506040513d6000823e601f3d908101601f191682016040526115ec9190810190614d3f565b6040516020016115fc9190613f63565b60405160208183030381529060405280519060200120145b1561175e5761028c5460808501516101000151604051636f64e57f60e11b81526000926001600160a01b03169163dec9cafe916116579089908990600401614dc0565b60206040518083038185885af1158015611675573d6000803e3d6000fd5b50505050506040513d601f19601f8201168201806040525081019061169a9190614de5565b9050806116f45760405162461bcd60e51b815260206004820152602260248201527f43726564656e7469616c206661696c656420746f206265207265676973746572604482015261195960f21b6064820152608401610930565b61028f546080860151610100015161170d90349061246f565b101561172b5760405162461bcd60e51b815260040161093090614e02565b61175461174a866080015161010001513461246f90919063ffffffff16565b61029054906129b1565b610290555061180b565b61028c546060850151602001516001600160a01b039091169063b25dd4fc90611786876128bd565b866040518463ffffffff1660e01b81526004016117a593929190614e49565b60006040518083038186803b1580156117bd57600080fd5b505afa1580156117d1573d6000803e3d6000fd5b5050505061028f543410156117f85760405162461bcd60e51b815260040161093090614e02565b6102905461180690346129b1565b610290555b6118208661181887610a53565b6001856129bd565b600090815261029260205260409020805460ff191660011790555050505050565b61186d7f8f4f2da22e8ac8f11e15f9fc141cddbb5deea8800186560abb6e68c5496619a961068d611c44565b6118d05760405162461bcd60e51b815260206004820152602e60248201527f4368696c644d696e7461626c65455243313135353a20494e535546464943494560448201526d4e545f5045524d495353494f4e5360901b6064820152608401610930565b600080806118e084860186614e70565b919450925090506001600160a01b0386166119505760405162461bcd60e51b815260206004820152602a60248201527f4368696c644d696e7461626c65455243313135353a20494e56414c49445f44456044820152692827a9a4aa2faaa9a2a960b11b6064820152608401610930565b61195c86848484612a98565b505050505050565b60008281526065602052604090206001015461197f81611f1e565b610b1d8383611f51565b611991611bcb565b61028e80546001600160a01b0319166001600160a01b0383161790556040517ff2e795d4a33ae9a0d3282888375b8ae781ea4de1cbf101ac96150aa95ccff0b490600090a150565b610227546040516371d4ed8d60e11b81526000916001600160a01b03169063e3a9db1a90611a0b90859060040161438c565b602060405180830381865afa158015611a28573d6000803e3d6000fd5b505050506040513d601f19601f8201168201806040525081019061095e9190614eed565b606061028d8054611a5c906149b4565b80601f0160208091040260200160405190810160405280929190818152602001828054611a88906149b4565b8015611ad55780601f10611aaa57610100808354040283529160200191611ad5565b820191906000526020600020905b815481529060010190602001808311611ab857829003601f168201915b5050505050905090565b611ae7611c44565b6001600160a01b0316856001600160a01b03161480611b0d5750611b0d8561089a611c44565b611b295760405162461bcd60e51b8152600401610930906149ef565b610af18585858585612bec565b611b3e611c44565b6001600160a01b0316836001600160a01b03161480611b645750611b648361089a611c44565b611b805760405162461bcd60e51b8152600401610930906149ef565b610b1d838383611c66565b60006001600160e01b03198216636cdb3d1360e11b1480611bbc57506001600160e01b031982166303a24d0760e21b145b8061095e575061095e82612d21565b611be560008051602061540883398151915261068d611c44565b610ce15760405162461bcd60e51b815260206004820181905260248201527f4b72656269744e46543a206d757374206861766520676f7665726e20726f6c656044820152606401610930565b8051610a969060cb906020840190613c14565b6000611c4f33610f8d565b15611c61575060131936013560601c90565b503390565b6001600160a01b038316611c8c5760405162461bcd60e51b815260040161093090614f06565b6000611c96611c44565b90506000611ca384612d46565b90506000611cb084612d46565b9050611cd083876000858560405180602001604052806000815250612d91565b600085815260c9602090815260408083206001600160a01b038a16845290915290205484811015611d135760405162461bcd60e51b815260040161093090614f49565b600086815260c9602090815260408083206001600160a01b038b81168086529184528285208a8703905582518b81529384018a90529092908816916000805160206153e8833981519152910160405180910390a46040805160208101909152600090525b50505050505050565b8151835114611da15760405162461bcd60e51b815260040161093090614f8d565b6001600160a01b038416611dc75760405162461bcd60e51b815260040161093090614fd5565b6000611dd1611c44565b9050611de1818787878787612d91565b60005b8451811015611eca576000858281518110611e0157611e01614ad5565b602002602001015190506000858381518110611e1f57611e1f614ad5565b602090810291909101810151600084815260c9835260408082206001600160a01b038e168352909352919091205490915081811015611e705760405162461bcd60e51b81526004016109309061501a565b600083815260c9602090815260408083206001600160a01b038e8116855292528083208585039055908b16825281208054849290611eaf908490615064565b9250508190555050505080611ec390614b01565b9050611de4565b50846001600160a01b0316866001600160a01b0316826001600160a01b03166000805160206153c88339815191528787604051611f0892919061507c565b60405180910390a461195c818787878787612e3c565b61098081611f2a611c44565b612f9f565b611f398282612ff8565b6000828152609760205260409020610b1d908261307f565b611f5b8282613094565b6000828152609760205260409020610b1d9082613119565b600080516020615428833981519152546001600160a01b031690565b610980611bcb565b7f4910fdfa16fed3260ed0e7147f7cc6da11a60208b5b9406d12a635614ffd91435460ff1615611fca57610b1d8361312e565b826001600160a01b03166352d1902d6040518163ffffffff1660e01b8152600401602060405180830381865afa925050508015612024575060408051601f3d908101601f1916820190925261202191810190614eed565b60015b6120875760405162461bcd60e51b815260206004820152602e60248201527f45524331393637557067726164653a206e657720696d706c656d656e7461746960448201526d6f6e206973206e6f74205555505360901b6064820152608401610930565b60008051602061542883398151915281146120f65760405162461bcd60e51b815260206004820152602960248201527f45524331393637557067726164653a20756e737570706f727465642070726f786044820152681a58589b195555525160ba1b6064820152608401610930565b50610b1d8383836131c8565b61210a6131ed565b60fb805460ff191690557f5db9ee0a495bf2e6ff9c91a7834c1ba4fdd244a5e8aa4e537bd38aeae4b073aa61213d611c44565b60405161214a919061438c565b60405180910390a1565b6001600160a01b03831661217a5760405162461bcd60e51b815260040161093090614f06565b805182511461219b5760405162461bcd60e51b815260040161093090614f8d565b60006121a5611c44565b90506121c581856000868660405180602001604052806000815250612d91565b60005b835181101561228d5760008482815181106121e5576121e5614ad5565b60200260200101519050600084838151811061220357612203614ad5565b602090810291909101810151600084815260c9835260408082206001600160a01b038c1683529093529190912054909150818110156122545760405162461bcd60e51b815260040161093090614f49565b600092835260c9602090815260408085206001600160a01b038b168652909152909220910390558061228581614b01565b9150506121c8565b5060006001600160a01b0316846001600160a01b0316826001600160a01b03166000805160206153c883398151915286866040516122cc92919061507c565b60405180910390a4604080516020810190915260009052611017565b6122f0612591565b60fb805460ff191660011790557f62e78cea01bee320cd4e420270b5ea74000d11b0c9f74754ebdbfc544b05a25861213d611c44565b60006109b88383613236565b816001600160a01b0316836001600160a01b031614156123a65760405162461bcd60e51b815260206004820152602960248201527f455243313135353a2073657474696e6720617070726f76616c20737461747573604482015268103337b91039b2b63360b91b6064820152608401610930565b6001600160a01b03838116600081815260ca6020908152604080832094871680845294825291829020805460ff191686151590811790915591519182527f17307eab39ab6107e8899845ad3d59bd9653f200f220920489ca2b5937696c31910160405180910390a3505050565b600261025a5414156124675760405162461bcd60e51b815260206004820152601f60248201527f5265656e7472616e637947756172643a207265656e7472616e742063616c6c006044820152606401610930565b600261025a55565b60006109b882846150a1565b6102275460405163f340fa0160e01b81526001600160a01b039091169063f340fa019083906124ae90869060040161438c565b6000604051808303818588803b1580156124c757600080fd5b505af1158015611d77573d6000803e3d6000fd5b6001600160a01b03163b151590565b600054610100900460ff166125115760405162461bcd60e51b8152600401610930906150b8565b61251a84613260565b612522613287565b61252a6132ae565b612532613287565b61253a613287565b61028c80546001600160a01b0319166001600160a01b038316179055825161256a9061028d906020860190613c14565b5061028f829055610291805460ff191660011790556110176132e1565b600061095e825490565b60fb5460ff1615610ce15760405162461bcd60e51b815260206004820152601060248201526f14185d5cd8589b194e881c185d5cd95960821b6044820152606401610930565b6060810151602001516001600160a01b03166126355760405162461bcd60e51b815260206004820152601c60248201527f4b5242546f6b656e3a20626164206973737565722061646472657373000000006044820152606401610930565b6080810151602001516001600160a01b03166126a35760405162461bcd60e51b815260206004820152602760248201527f4b5242546f6b656e3a206261642063726564656e7469616c5375626a656374206044820152666164647265737360c81b6064820152608401610930565b6080810151516040516126b99190602001613f63565b60408051601f1981840301815290829052805160209182012060608401515190926126e49201613f63565b6040516020818303038152906040528051906020012014156127665760405162461bcd60e51b815260206004820152603560248201527f4b5242546f6b656e3a2069737375657220444944206973207468652073616d6560448201527408185cc818dc9959195b9d1a585b14dd589a9958dd605a1b6064820152608401610930565b8060800151602001516001600160a01b03168160600151602001516001600160a01b031614156127fa5760405162461bcd60e51b815260206004820152603960248201527f4b5242546f6b656e3a20697373756572206164647265737320697320746865206044820152781cd85b5948185cc818dc9959195b9d1a585b14dd589a9958dd603a1b6064820152608401610930565b8060800151610120015142116128655760405162461bcd60e51b815260206004820152602a60248201527f4b5242546f6b656e3a2056432069737375616e63654461746520697320696e206044820152697468652066757475726560b01b6064820152608401610930565b8060800151610140015142106109805760405162461bcd60e51b815260206004820181905260248201527f4b5242546f6b656e3a2056432068617320616c726561647920657870697265646044820152606401610930565b60007f63c4847aa3662952b34b8f76f3abc371c24535ee34fce5b3df34d029db924d4e60001b8260000151805190602001208360200151805190602001208460400151805190602001206129148660600151613334565b612921876080015161338d565b61292e8860a00151613486565b60c0890151805160209182012060e08b01518051908301206040516129949a9998979695949301988952602089019790975260408801959095526060870193909352608086019190915260a085015260c084015260e08301526101008201526101200190565b604051602081830303815290604052805190602001209050919050565b60006109b88284615064565b6001600160a01b0384166129e35760405162461bcd60e51b815260040161093090615103565b60006129ed611c44565b905060006129fa85612d46565b90506000612a0785612d46565b9050612a1883600089858589612d91565b600086815260c9602090815260408083206001600160a01b038b16845290915281208054879290612a4a908490615064565b909155505060408051878152602081018790526001600160a01b03808a1692600092918716916000805160206153e8833981519152910160405180910390a4611d77836000898989896134dc565b6001600160a01b038416612abe5760405162461bcd60e51b815260040161093090615103565b8151835114612adf5760405162461bcd60e51b815260040161093090614f8d565b6000612ae9611c44565b9050612afa81600087878787612d91565b60005b8451811015612b9657838181518110612b1857612b18614ad5565b602002602001015160c96000878481518110612b3657612b36614ad5565b602002602001015181526020019081526020016000206000886001600160a01b03166001600160a01b031681526020019081526020016000206000828254612b7e9190615064565b90915550819050612b8e81614b01565b915050612afd565b50846001600160a01b031660006001600160a01b0316826001600160a01b03166000805160206153c88339815191528787604051612bd592919061507c565b60405180910390a4610af181600087878787612e3c565b6001600160a01b038416612c125760405162461bcd60e51b815260040161093090614fd5565b6000612c1c611c44565b90506000612c2985612d46565b90506000612c3685612d46565b9050612c46838989858589612d91565b600086815260c9602090815260408083206001600160a01b038c16845290915290205485811015612c895760405162461bcd60e51b81526004016109309061501a565b600087815260c9602090815260408083206001600160a01b038d8116855292528083208985039055908a16825281208054889290612cc8908490615064565b909155505060408051888152602081018890526001600160a01b03808b16928c821692918816916000805160206153e8833981519152910160405180910390a4612d16848a8a8a8a8a6134dc565b505050505050505050565b60006001600160e01b03198216635a05180f60e01b148061095e575061095e8261359e565b60408051600180825281830190925260609160009190602080830190803683370190505090508281600081518110612d8057612d80614ad5565b602090810291909101015292915050565b612d99612591565b612da78686868686866135d3565b612dc160008051602061540883398151915261068d611c44565b80612dd357506001600160a01b038516155b80612de557506001600160a01b038416155b61195c5760405162461bcd60e51b815260206004820152602260248201527f4b72656269744e46543a205472616e7366657273206e6f7420737570706f7274604482015261195960f21b6064820152608401610930565b612e4e846001600160a01b03166124db565b1561195c5760405163bc197c8160e01b81526001600160a01b0385169063bc197c8190612e879089908990889088908890600401615144565b6020604051808303816000875af1925050508015612ec2575060408051601f3d908101601f19168201909252612ebf918101906151a2565b60015b612f6f57612ece6151bf565b806308c379a01415612f085750612ee36151da565b80612eee5750612f0a565b8060405162461bcd60e51b81526004016109309190613f63565b505b60405162461bcd60e51b815260206004820152603460248201527f455243313135353a207472616e7366657220746f206e6f6e2d455243313135356044820152732932b1b2b4bb32b91034b6b83632b6b2b73a32b960611b6064820152608401610930565b6001600160e01b0319811663bc197c8160e01b14611d775760405162461bcd60e51b815260040161093090615263565b612fa982826110d4565b610a9657612fb68161375d565b612fc183602061376f565b604051602001612fd29291906152ab565b60408051601f198184030181529082905262461bcd60e51b825261093091600401613f63565b61300282826110d4565b610a965760008281526065602090815260408083206001600160a01b03851684529091529020805460ff1916600117905561303b611c44565b6001600160a01b0316816001600160a01b0316837f2f8788117e7eff1d82e926ec794901d17c78024a50270940304540a733656f0d60405160405180910390a45050565b60006109b8836001600160a01b03841661390a565b61309e82826110d4565b15610a965760008281526065602090815260408083206001600160a01b03851684529091529020805460ff191690556130d5611c44565b6001600160a01b0316816001600160a01b0316837ff6391f5c32d9c69d2a47ea670b442974b53935d1edc7fd64eb21e047a839171b60405160405180910390a45050565b60006109b8836001600160a01b038416613959565b613137816124db565b6131995760405162461bcd60e51b815260206004820152602d60248201527f455243313936373a206e657720696d706c656d656e746174696f6e206973206e60448201526c1bdd08184818dbdb9d1c9858dd609a1b6064820152608401610930565b60008051602061542883398151915280546001600160a01b0319166001600160a01b0392909216919091179055565b6131d183613a4c565b6000825111806131de5750805b15610b1d576110178383613a8c565b60fb5460ff16610ce15760405162461bcd60e51b815260206004820152601460248201527314185d5cd8589b194e881b9bdd081c185d5cd95960621b6044820152606401610930565b600082600001828154811061324d5761324d614ad5565b9060005260206000200154905092915050565b600054610100900460ff166109775760405162461bcd60e51b8152600401610930906150b8565b600054610100900460ff16610ce15760405162461bcd60e51b8152600401610930906150b8565b600054610100900460ff166132d55760405162461bcd60e51b8152600401610930906150b8565b60fb805460ff19169055565b600054610100900460ff166133085760405162461bcd60e51b8152600401610930906150b8565b61331a6000613315611c44565b613b7e565b610ce1600080516020615408833981519152613315611c44565b8051805160209182012081830151604080517fabb691e6e52ceb1ff8b3df91dc14323057e88efa3252486ed994fd62706cdfaa948101949094528301919091526001600160a01b03166060820152600090608001612994565b60007f4b87db6c5998f503ac6519b5a7d74efcf2a230368deeaf54dd8bf078da459ff760001b82600001518051906020012083602001518460400151805190602001208560600151805190602001208660800151805190602001208760a00151805190602001208860c001518960e001518a61010001518b61012001518c61014001516040516020016129949c9b9a999897969594939291909b8c5260208c019a909a526001600160a01b039890981660408b015260608a0196909652608089019490945260a088019290925260c087015260ff1660e08601526101008501526101208401526101408301526101608201526101800190565b8051805160209182012081830151805190830120604080517f1a58b7c56676b62343f37f4f3603a07ae6dd78bea300689bcefef0f9498c6cc9948101949094528301919091526060820152600090608001612994565b6134ee846001600160a01b03166124db565b1561195c5760405163f23a6e6160e01b81526001600160a01b0385169063f23a6e6190613527908990899088908890889060040161531a565b6020604051808303816000875af1925050508015613562575060408051601f3d908101601f1916820190925261355f918101906151a2565b60015b61356e57612ece6151bf565b6001600160e01b0319811663f23a6e6160e01b14611d775760405162461bcd60e51b815260040161093090615263565b60006001600160e01b03198216637965db0b60e01b148061095e57506301ffc9a760e01b6001600160e01b031983161461095e565b6135e1868686868686613b88565b6001600160a01b0385166136695760005b83518110156136675782818151811061360d5761360d614ad5565b6020026020010151610191600086848151811061362c5761362c614ad5565b6020026020010151815260200190815260200160002060008282546136519190615064565b90915550613660905081614b01565b90506135f2565b505b6001600160a01b03841661195c5760005b8351811015611d7757600084828151811061369757613697614ad5565b6020026020010151905060008483815181106136b5576136b5614ad5565b6020026020010151905060006101916000848152602001908152602001600020549050818110156137395760405162461bcd60e51b815260206004820152602860248201527f455243313135353a206275726e20616d6f756e74206578636565647320746f74604482015267616c537570706c7960c01b6064820152608401610930565b600092835261019160205260409092209103905561375681614b01565b905061367a565b606061095e6001600160a01b03831660145b6060600061377e83600261535f565b613789906002615064565b6001600160401b038111156137a0576137a0613d31565b6040519080825280601f01601f1916602001820160405280156137ca576020820181803683370190505b509050600360fc1b816000815181106137e5576137e5614ad5565b60200101906001600160f81b031916908160001a905350600f60fb1b8160018151811061381457613814614ad5565b60200101906001600160f81b031916908160001a905350600061383884600261535f565b613843906001615064565b90505b60018111156138bb576f181899199a1a9b1b9c1cb0b131b232b360811b85600f166010811061387757613877614ad5565b1a60f81b82828151811061388d5761388d614ad5565b60200101906001600160f81b031916908160001a90535060049490941c936138b48161537e565b9050613846565b5083156109b85760405162461bcd60e51b815260206004820181905260248201527f537472696e67733a20686578206c656e67746820696e73756666696369656e746044820152606401610930565b60008181526001830160205260408120546139515750815460018181018455600084815260208082209093018490558454848252828601909352604090209190915561095e565b50600061095e565b60008181526001830160205260408120548015613a4257600061397d6001836150a1565b8554909150600090613991906001906150a1565b90508181146139f65760008660000182815481106139b1576139b1614ad5565b90600052602060002001549050808760000184815481106139d4576139d4614ad5565b6000918252602080832090910192909255918252600188019052604090208390555b8554869080613a0757613a07615395565b60019003818190600052602060002001600090559055856001016000868152602001908152602001600020600090556001935050505061095e565b600091505061095e565b613a558161312e565b6040516001600160a01b038216907fbc7cd75a20ee27fd9adebab32041f755214dbc6bffa90cc0225b39da2e5c2d3b90600090a250565b6060613a97836124db565b613af25760405162461bcd60e51b815260206004820152602660248201527f416464726573733a2064656c65676174652063616c6c20746f206e6f6e2d636f6044820152651b9d1c9858dd60d21b6064820152608401610930565b600080846001600160a01b031684604051613b0d91906153ab565b600060405180830381855af49150503d8060008114613b48576040519150601f19603f3d011682016040523d82523d6000602084013e613b4d565b606091505b5091509150613b75828260405180606001604052806027815260200161544860279139613bf0565b95945050505050565b610a968282611f2f565b60fb5460ff161561195c5760405162461bcd60e51b815260206004820152602c60248201527f455243313135355061757361626c653a20746f6b656e207472616e736665722060448201526b1dda1a5b19481c185d5cd95960a21b6064820152608401610930565b60608315613bff5750816109b8565b6109b88383815115612eee5781518083602001fd5b828054613c20906149b4565b90600052602060002090601f016020900481019282613c425760008555613c88565b82601f10613c5b57805160ff1916838001178555613c88565b82800160010185558215613c88579182015b82811115613c88578251825591602001919060010190613c6d565b50613c94929150613c98565b5090565b5b80821115613c945760008155600101613c99565b6001600160a01b038116811461098057600080fd5b8035613ccd81613cad565b919050565b60008060408385031215613ce557600080fd5b8235613cf081613cad565b946020939093013593505050565b6001600160e01b03198116811461098057600080fd5b600060208284031215613d2657600080fd5b81356109b881613cfe565b634e487b7160e01b600052604160045260246000fd5b604081018181106001600160401b0382111715613d6657613d66613d31565b60405250565b601f8201601f191681016001600160401b0381118282101715613d9157613d91613d31565b6040525050565b60405161016081016001600160401b0381118282101715613dbb57613dbb613d31565b60405290565b60405161010081016001600160401b0381118282101715613dbb57613dbb613d31565b60006001600160401b03821115613dfd57613dfd613d31565b50601f01601f191660200190565b600082601f830112613e1c57600080fd5b8135613e2781613de4565b604051613e348282613d6c565b828152856020848701011115613e4957600080fd5b82602086016020830137600092810160200192909252509392505050565b600060208284031215613e7957600080fd5b81356001600160401b03811115613e8f57600080fd5b613e9b84828501613e0b565b949350505050565b60008060408385031215613eb657600080fd5b8235613ec181613cad565b915060208301356001600160401b03811115613edc57600080fd5b613ee885828601613e0b565b9150509250929050565b600060208284031215613f0457600080fd5b5035919050565b60005b83811015613f26578181015183820152602001613f0e565b838111156110175750506000910152565b60008151808452613f4f816020860160208601613f0b565b601f01601f19169290920160200192915050565b6020815260006109b86020830184613f37565b60008060408385031215613f8957600080fd5b50508035926020909101359150565b60006001600160401b03821115613fb157613fb1613d31565b5060051b60200190565b600082601f830112613fcc57600080fd5b81356020613fd982613f98565b604051613fe68282613d6c565b83815260059390931b850182019282810191508684111561400657600080fd5b8286015b84811015614021578035835291830191830161400a565b509695505050505050565b600080600080600060a0868803121561404457600080fd5b853561404f81613cad565b9450602086013561405f81613cad565b935060408601356001600160401b038082111561407b57600080fd5b61408789838a01613fbb565b9450606088013591508082111561409d57600080fd5b6140a989838a01613fbb565b935060808801359150808211156140bf57600080fd5b506140cc88828901613e0b565b9150509295509295909350565b600080604083850312156140ec57600080fd5b8235915060208301356140fe81613cad565b809150509250929050565b60006020828403121561411b57600080fd5b81356109b881613cad565b801515811461098057600080fd5b60006020828403121561414657600080fd5b81356109b881614126565b6000806040838503121561416457600080fd5b82356001600160401b038082111561417b57600080fd5b818501915085601f83011261418f57600080fd5b8135602061419c82613f98565b6040516141a98282613d6c565b83815260059390931b85018201928281019150898411156141c957600080fd5b948201945b838610156141f05785356141e181613cad565b825294820194908201906141ce565b9650508601359250508082111561420657600080fd5b50613ee885828601613fbb565b600081518084526020808501945080840160005b8381101561424357815187529582019590820190600101614227565b509495945050505050565b6020815260006109b86020830184614213565b60008083601f84011261427357600080fd5b5081356001600160401b0381111561428a57600080fd5b6020830191508360208260051b85010111156142a557600080fd5b9250929050565b600080600080604085870312156142c257600080fd5b84356001600160401b03808211156142d957600080fd5b6142e588838901614261565b909650945060208701359150808211156142fe57600080fd5b5061430b87828801614261565b95989497509550505050565b60008060006060848603121561432c57600080fd5b833561433781613cad565b925060208401356001600160401b038082111561435357600080fd5b61435f87838801613fbb565b9350604086013591508082111561437557600080fd5b5061438286828701613fbb565b9150509250925092565b6001600160a01b0391909116815260200190565b600080604083850312156143b357600080fd5b82356143be81613cad565b915060208301356140fe81614126565b600080600080608085870312156143e457600080fd5b84356001600160401b03808211156143fb57600080fd5b61440788838901613e0b565b9550602087013591508082111561441d57600080fd5b5061442a87828801613e0b565b93505060408501359150606085013561444281613cad565b939692955090935050565b60006040828403121561445f57600080fd5b60405161446b81613d47565b80915082356001600160401b0381111561448457600080fd5b61449085828601613e0b565b82525060208301356144a181613cad565b6020919091015292915050565b803560ff81168114613ccd57600080fd5b600061016082840312156144d257600080fd5b6144da613d98565b905081356001600160401b03808211156144f357600080fd5b6144ff85838601613e0b565b835261450d60208501613cc2565b6020840152604084013591508082111561452657600080fd5b61453285838601613e0b565b6040840152606084013591508082111561454b57600080fd5b61455785838601613e0b565b6060840152608084013591508082111561457057600080fd5b61457c85838601613e0b565b608084015260a084013591508082111561459557600080fd5b506145a284828501613e0b565b60a0830152506145b460c083016144ae565b60c082015260e082013560e082015261010080830135818301525061012080830135818301525061014080830135818301525092915050565b6000604082840312156145ff57600080fd5b60405161460b81613d47565b80915082356001600160401b038082111561462557600080fd5b61463186838701613e0b565b8352602085013591508082111561464757600080fd5b5061465485828601613e0b565b6020830152505092915050565b600080600080600060a0868803121561467957600080fd5b853561468481613cad565b945060208601356001600160401b03808211156146a057600080fd5b6146ac89838a01613e0b565b955060408801359150808211156146c257600080fd5b90870190610100828a0312156146d757600080fd5b6146df613dc1565b8235828111156146ee57600080fd5b6146fa8b828601613e0b565b82525060208301358281111561470f57600080fd5b61471b8b828601613e0b565b60208301525060408301358281111561473357600080fd5b61473f8b828601613e0b565b60408301525060608301358281111561475757600080fd5b6147638b82860161444d565b60608301525060808301358281111561477b57600080fd5b6147878b8286016144bf565b60808301525060a08301358281111561479f57600080fd5b6147ab8b8286016145ed565b60a08301525060c0830135828111156147c357600080fd5b6147cf8b828601613e0b565b60c08301525060e0830135828111156147e757600080fd5b6147f38b828601613e0b565b60e0830152509450606088013591508082111561480f57600080fd5b6140a989838a01613e0b565b60008060006040848603121561483057600080fd5b833561483b81613cad565b925060208401356001600160401b038082111561485757600080fd5b818601915086601f83011261486b57600080fd5b81358181111561487a57600080fd5b87602082850101111561488c57600080fd5b6020830194508093505050509250925092565b600080604083850312156148b257600080fd5b82356148bd81613cad565b915060208301356140fe81613cad565b600080600080600060a086880312156148e557600080fd5b85356148f081613cad565b9450602086013561490081613cad565b9350604086013592506060860135915060808601356001600160401b0381111561492957600080fd5b6140cc88828901613e0b565b60008060006060848603121561494a57600080fd5b833561495581613cad565b95602085013595506040909401359392505050565b6020808252602a908201527f455243313135353a2061646472657373207a65726f206973206e6f742061207660408201526930b634b21037bbb732b960b11b606082015260800190565b600181811c908216806149c857607f821691505b602082108114156149e957634e487b7160e01b600052602260045260246000fd5b50919050565b6020808252602e908201527f455243313135353a2063616c6c6572206973206e6f7420746f6b656e206f776e60408201526d195c881bdc88185c1c1c9bdd995960921b606082015260800190565b6020808252602c908201527f46756e6374696f6e206d7573742062652063616c6c6564207468726f7567682060408201526b19195b1959d85d1958d85b1b60a21b606082015260800190565b6020808252602c908201527f46756e6374696f6e206d7573742062652063616c6c6564207468726f7567682060408201526b6163746976652070726f787960a01b606082015260800190565b634e487b7160e01b600052603260045260246000fd5b634e487b7160e01b600052601160045260246000fd5b6000600019821415614b1557614b15614aeb565b5060010190565b6000815160408452614b316040850182613f37565b6020938401516001600160a01b0316949093019390935250919050565b60006101608251818552614b6482860182613f37565b9150506020830151614b8160208601826001600160a01b03169052565b5060408301518482036040860152614b998282613f37565b91505060608301518482036060860152614bb38282613f37565b91505060808301518482036080860152614bcd8282613f37565b91505060a083015184820360a0860152614be78282613f37565b91505060c0830151614bfe60c086018260ff169052565b5060e08381015190850152610100808401519085015261012080840151908501526101409283015192909301919091525090565b6000815160408452614c476040850182613f37565b905060208301518482036020860152613b758282613f37565b60006101008251818552614c7682860182613f37565b91505060208301518482036020860152614c908282613f37565b91505060408301518482036040860152614caa8282613f37565b91505060608301518482036060860152614cc48282614b1c565b91505060808301518482036080860152614cde8282614b4e565b91505060a083015184820360a0860152614cf88282614c32565b91505060c083015184820360c0860152614d128282613f37565b91505060e083015184820360e0860152613b758282613f37565b6020815260006109b86020830184614c60565b600060208284031215614d5157600080fd5b81516001600160401b03811115614d6757600080fd5b8201601f81018413614d7857600080fd5b8051614d8381613de4565b604051614d908282613d6c565b828152866020848601011115614da557600080fd5b614db6836020830160208701613f0b565b9695505050505050565b604081526000614dd36040830185614c60565b8281036020840152613b758185613f37565b600060208284031215614df757600080fd5b81516109b881614126565b60208082526027908201527f416d6f756e742073656e74206973206c657373207468616e20746865206d696e6040820152667420707269636560c81b606082015260800190565b60018060a01b0384168152826020820152606060408201526000613b756060830184613f37565b600080600060608486031215614e8557600080fd5b83356001600160401b0380821115614e9c57600080fd5b614ea887838801613fbb565b94506020860135915080821115614ebe57600080fd5b614eca87838801613fbb565b93506040860135915080821115614ee057600080fd5b5061438286828701613e0b565b600060208284031215614eff57600080fd5b5051919050565b60208082526023908201527f455243313135353a206275726e2066726f6d20746865207a65726f206164647260408201526265737360e81b606082015260800190565b60208082526024908201527f455243313135353a206275726e20616d6f756e7420657863656564732062616c604082015263616e636560e01b606082015260800190565b60208082526028908201527f455243313135353a2069647320616e6420616d6f756e7473206c656e677468206040820152670dad2e6dac2e8c6d60c31b606082015260800190565b60208082526025908201527f455243313135353a207472616e7366657220746f20746865207a65726f206164604082015264647265737360d81b606082015260800190565b6020808252602a908201527f455243313135353a20696e73756666696369656e742062616c616e636520666f60408201526939103a3930b739b332b960b11b606082015260800190565b6000821982111561507757615077614aeb565b500190565b60408152600061508f6040830185614213565b8281036020840152613b758185614213565b6000828210156150b3576150b3614aeb565b500390565b6020808252602b908201527f496e697469616c697a61626c653a20636f6e7472616374206973206e6f74206960408201526a6e697469616c697a696e6760a81b606082015260800190565b60208082526021908201527f455243313135353a206d696e7420746f20746865207a65726f206164647265736040820152607360f81b606082015260800190565b6001600160a01b0386811682528516602082015260a06040820181905260009061517090830186614213565b82810360608401526151828186614213565b905082810360808401526151968185613f37565b98975050505050505050565b6000602082840312156151b457600080fd5b81516109b881613cfe565b600060033d1115610f8a5760046000803e5060005160e01c90565b600060443d10156151e85790565b6040516003193d81016004833e81513d6001600160401b03816024840111818411171561521757505050505090565b828501915081518181111561522f5750505050505090565b843d87010160208285010111156152495750505050505090565b61525860208286010187613d6c565b509095945050505050565b60208082526028908201527f455243313135353a204552433131353552656365697665722072656a656374656040820152676420746f6b656e7360c01b606082015260800190565b76020b1b1b2b9b9a1b7b73a3937b61d1030b1b1b7bab73a1604d1b8152600083516152dd816017850160208801613f0b565b7001034b99036b4b9b9b4b733903937b6329607d1b601791840191820152835161530e816028840160208801613f0b565b01602801949350505050565b6001600160a01b03868116825285166020820152604081018490526060810183905260a06080820181905260009061535490830184613f37565b979650505050505050565b600081600019048311821515161561537957615379614aeb565b500290565b60008161538d5761538d614aeb565b506000190190565b634e487b7160e01b600052603160045260246000fd5b600082516153bd818460208701613f0b565b919091019291505056fe4a39dc06d4c0dbc64b70af90fd698a233a518aa5d07e595d983b8c0526c8f7fbc3d58168c5ae7397731d063d5bbf3d657854427343f4c083240f7aacaa2d0f62899bd46557473cb80307a9dabc297131ced39608330a2d29b2d52b660c03923e360894a13ba1a3210667c828492db98dca3e2076cc3735a920a3ca505d382bbc416464726573733a206c6f772d6c6576656c2064656c65676174652063616c6c206661696c6564a26469706673582212202154a02752c6bf5bfcb48f75ec5cf1a2cb0d2efe1f4d60ceeb3865005691719b64736f6c634300080c0033","opcodes":"PUSH1 0xA0 PUSH1 0x40 MSTORE ADDRESS PUSH1 0x80 MSTORE CALLVALUE DUP1 ISZERO PUSH3 0x15 JUMPI PUSH1 0x0 DUP1 REVERT JUMPDEST POP PUSH3 0x20 PUSH3 0x26 JUMP JUMPDEST PUSH3 0xE8 JUMP JUMPDEST PUSH1 0x0 SLOAD PUSH2 0x100 SWAP1 DIV PUSH1 0xFF AND ISZERO PUSH3 0x93 JUMPI PUSH1 0x40 MLOAD PUSH3 0x461BCD PUSH1 0xE5 SHL DUP2 MSTORE PUSH1 0x20 PUSH1 0x4 DUP3 ADD MSTORE PUSH1 0x27 PUSH1 0x24 DUP3 ADD MSTORE PUSH32 0x496E697469616C697A61626C653A20636F6E747261637420697320696E697469 PUSH1 0x44 DUP3 ADD MSTORE PUSH7 0x616C697A696E67 PUSH1 0xC8 SHL PUSH1 0x64 DUP3 ADD MSTORE PUSH1 0x84 ADD PUSH1 0x40 MLOAD DUP1 SWAP2 SUB SWAP1 REVERT JUMPDEST PUSH1 0x0 SLOAD PUSH1 0xFF SWAP1 DUP2 AND LT ISZERO PUSH3 0xE6 JUMPI PUSH1 0x0 DUP1 SLOAD PUSH1 0xFF NOT AND PUSH1 0xFF SWAP1 DUP2 OR SWAP1 SWAP2 SSTORE PUSH1 0x40 MLOAD SWAP1 DUP2 MSTORE PUSH32 0x7F26B83FF96E1F2B6A682F133852F6798A09C465DA95921460CEFB3847402498 SWAP1 PUSH1 0x20 ADD PUSH1 0x40 MLOAD DUP1 SWAP2 SUB SWAP1 LOG1 JUMPDEST JUMP JUMPDEST PUSH1 0x80 MLOAD PUSH2 0x54A4 PUSH3 0x120 PUSH1 0x0 CODECOPY PUSH1 0x0 DUP2 DUP2 PUSH2 0xC16 ADD MSTORE DUP2 DUP2 PUSH2 0xC56 ADD MSTORE DUP2 DUP2 PUSH2 0xE33 ADD MSTORE DUP2 DUP2 PUSH2 0xE73 ADD MSTORE PUSH2 0xEEB ADD MSTORE PUSH2 0x54A4 PUSH1 0x0 RETURN INVALID PUSH1 0x80 PUSH1 0x40 MSTORE PUSH1 0x4 CALLDATASIZE LT PUSH2 0x268 JUMPI PUSH1 0x0 CALLDATALOAD PUSH1 0xE0 SHR DUP1 PUSH4 0x6B20C454 GT PUSH2 0x145 JUMPI DUP1 PUSH4 0xBD3A13F6 GT PUSH2 0xBC JUMPI DUP1 PUSH4 0xBD3A13F6 EQ PUSH2 0x752 JUMPI DUP1 PUSH4 0xBD85B039 EQ PUSH2 0x772 JUMPI DUP1 PUSH4 0xCA15C873 EQ PUSH2 0x7A0 JUMPI DUP1 PUSH4 0xCA6B12F1 EQ PUSH2 0x7C0 JUMPI DUP1 PUSH4 0xCF2C52CB EQ PUSH2 0x7D3 JUMPI DUP1 PUSH4 0xD547741F EQ PUSH2 0x7F3 JUMPI DUP1 PUSH4 0xDA742228 EQ PUSH2 0x813 JUMPI DUP1 PUSH4 0xDE5785D5 EQ PUSH2 0x833 JUMPI DUP1 PUSH4 0xE2982C21 EQ PUSH2 0x84A JUMPI DUP1 PUSH4 0xE8A3D485 EQ PUSH2 0x86A JUMPI DUP1 PUSH4 0xE985E9C5 EQ PUSH2 0x87F JUMPI DUP1 PUSH4 0xF242432A EQ PUSH2 0x8C8 JUMPI DUP1 PUSH4 0xF5298ACA EQ PUSH2 0x8E8 JUMPI PUSH1 0x0 DUP1 REVERT JUMPDEST DUP1 PUSH4 0x6B20C454 EQ PUSH2 0x5CF JUMPI DUP1 PUSH4 0x7DA0A877 EQ PUSH2 0x5EF JUMPI DUP1 PUSH4 0x8456CB59 EQ PUSH2 0x61D JUMPI DUP1 PUSH4 0x9010D07C EQ PUSH2 0x632 JUMPI DUP1 PUSH4 0x91B7F5ED EQ PUSH2 0x652 JUMPI DUP1 PUSH4 0x91D14854 EQ PUSH2 0x672 JUMPI DUP1 PUSH4 0x938E3D7B EQ PUSH2 0x692 JUMPI DUP1 PUSH4 0xA035B1FE EQ PUSH2 0x6B2 JUMPI DUP1 PUSH4 0xA217FDDF EQ PUSH2 0x6C9 JUMPI DUP1 PUSH4 0xA22CB465 EQ PUSH2 0x6DE JUMPI DUP1 PUSH4 0xA3B0B5A3 EQ PUSH2 0x6FE JUMPI DUP1 PUSH4 0xAD3B1B47 EQ PUSH2 0x732 JUMPI PUSH1 0x0 DUP1 REVERT JUMPDEST DUP1 PUSH4 0x36568ABE GT PUSH2 0x1E4 JUMPI DUP1 PUSH4 0x36568ABE EQ PUSH2 0x440 JUMPI DUP1 PUSH4 0x3659CFE6 EQ PUSH2 0x460 JUMPI DUP1 PUSH4 0x37B0F07D EQ PUSH2 0x480 JUMPI DUP1 PUSH4 0x38B7F446 EQ PUSH2 0x49B JUMPI DUP1 PUSH4 0x3F4BA83A EQ PUSH2 0x4BD JUMPI DUP1 PUSH4 0x43401543 EQ PUSH2 0x4D2 JUMPI DUP1 PUSH4 0x4E1273F4 EQ PUSH2 0x4F2 JUMPI DUP1 PUSH4 0x4F1EF286 EQ PUSH2 0x51F JUMPI DUP1 PUSH4 0x4F558E79 EQ PUSH2 0x532 JUMPI DUP1 PUSH4 0x52D1902D EQ PUSH2 0x562 JUMPI DUP1 PUSH4 0x572B6C05 EQ PUSH2 0x577 JUMPI DUP1 PUSH4 0x5C5FB521 EQ PUSH2 0x597 JUMPI DUP1 PUSH4 0x5C975ABB EQ PUSH2 0x5B7 JUMPI PUSH1 0x0 DUP1 REVERT JUMPDEST DUP1 PUSH3 0xFDD58E EQ PUSH2 0x26D JUMPI DUP1 PUSH4 0x1FFC9A7 EQ PUSH2 0x2A0 JUMPI DUP1 PUSH4 0x2FE5305 EQ PUSH2 0x2D0 JUMPI DUP1 PUSH4 0x6B6AC69 EQ PUSH2 0x2F2 JUMPI DUP1 PUSH4 0xE89341C EQ PUSH2 0x312 JUMPI DUP1 PUSH4 0x1E7663BC EQ PUSH2 0x33F JUMPI DUP1 PUSH4 0x1ECD3480 EQ PUSH2 0x35F JUMPI DUP1 PUSH4 0x2262F53F EQ PUSH2 0x390 JUMPI DUP1 PUSH4 0x248A9CA3 EQ PUSH2 0x3B0 JUMPI DUP1 PUSH4 0x2EB2C2D6 EQ PUSH2 0x3E0 JUMPI DUP1 PUSH4 0x2F2FF15D EQ PUSH2 0x400 JUMPI DUP1 PUSH4 0x31B3EB94 EQ PUSH2 0x420 JUMPI JUMPDEST PUSH1 0x0 DUP1 REVERT JUMPDEST CALLVALUE DUP1 ISZERO PUSH2 0x279 JUMPI PUSH1 0x0 DUP1 REVERT JUMPDEST POP PUSH2 0x28D PUSH2 0x288 CALLDATASIZE PUSH1 0x4 PUSH2 0x3CD2 JUMP JUMPDEST PUSH2 0x908 JUMP JUMPDEST PUSH1 0x40 MLOAD SWAP1 DUP2 MSTORE PUSH1 0x20 ADD JUMPDEST PUSH1 0x40 MLOAD DUP1 SWAP2 SUB SWAP1 RETURN JUMPDEST CALLVALUE DUP1 ISZERO PUSH2 0x2AC JUMPI PUSH1 0x0 DUP1 REVERT JUMPDEST POP PUSH2 0x2C0 PUSH2 0x2BB CALLDATASIZE PUSH1 0x4 PUSH2 0x3D14 JUMP JUMPDEST PUSH2 0x964 JUMP JUMPDEST PUSH1 0x40 MLOAD SWAP1 ISZERO ISZERO DUP2 MSTORE PUSH1 0x20 ADD PUSH2 0x297 JUMP JUMPDEST CALLVALUE DUP1 ISZERO PUSH2 0x2DC JUMPI PUSH1 0x0 DUP1 REVERT JUMPDEST POP PUSH2 0x2F0 PUSH2 0x2EB CALLDATASIZE PUSH1 0x4 PUSH2 0x3E67 JUMP JUMPDEST PUSH2 0x96F JUMP JUMPDEST STOP JUMPDEST CALLVALUE DUP1 ISZERO PUSH2 0x2FE JUMPI PUSH1 0x0 DUP1 REVERT JUMPDEST POP PUSH2 0x28D PUSH2 0x30D CALLDATASIZE PUSH1 0x4 PUSH2 0x3EA3 JUMP JUMPDEST PUSH2 0x983 JUMP JUMPDEST CALLVALUE DUP1 ISZERO PUSH2 0x31E JUMPI PUSH1 0x0 DUP1 REVERT JUMPDEST POP PUSH2 0x332 PUSH2 0x32D CALLDATASIZE PUSH1 0x4 PUSH2 0x3EF2 JUMP JUMPDEST PUSH2 0x9BF JUMP JUMPDEST PUSH1 0x40 MLOAD PUSH2 0x297 SWAP2 SWAP1 PUSH2 0x3F63 JUMP JUMPDEST CALLVALUE DUP1 ISZERO PUSH2 0x34B JUMPI PUSH1 0x0 DUP1 REVERT JUMPDEST POP PUSH2 0x28D PUSH2 0x35A CALLDATASIZE PUSH1 0x4 PUSH2 0x3E67 JUMP JUMPDEST PUSH2 0xA53 JUMP JUMPDEST CALLVALUE DUP1 ISZERO PUSH2 0x36B JUMPI PUSH1 0x0 DUP1 REVERT JUMPDEST POP PUSH2 0x2C0 PUSH2 0x37A CALLDATASIZE PUSH1 0x4 PUSH2 0x3EF2 JUMP JUMPDEST PUSH2 0x292 PUSH1 0x20 MSTORE PUSH1 0x0 SWAP1 DUP2 MSTORE PUSH1 0x40 SWAP1 KECCAK256 SLOAD PUSH1 0xFF AND DUP2 JUMP JUMPDEST CALLVALUE DUP1 ISZERO PUSH2 0x39C JUMPI PUSH1 0x0 DUP1 REVERT JUMPDEST POP PUSH2 0x2F0 PUSH2 0x3AB CALLDATASIZE PUSH1 0x4 PUSH2 0x3F76 JUMP JUMPDEST PUSH2 0xA84 JUMP JUMPDEST CALLVALUE DUP1 ISZERO PUSH2 0x3BC JUMPI PUSH1 0x0 DUP1 REVERT JUMPDEST POP PUSH2 0x28D PUSH2 0x3CB CALLDATASIZE PUSH1 0x4 PUSH2 0x3EF2 JUMP JUMPDEST PUSH1 0x0 SWAP1 DUP2 MSTORE PUSH1 0x65 PUSH1 0x20 MSTORE PUSH1 0x40 SWAP1 KECCAK256 PUSH1 0x1 ADD SLOAD SWAP1 JUMP JUMPDEST CALLVALUE DUP1 ISZERO PUSH2 0x3EC JUMPI PUSH1 0x0 DUP1 REVERT JUMPDEST POP PUSH2 0x2F0 PUSH2 0x3FB CALLDATASIZE PUSH1 0x4 PUSH2 0x402C JUMP JUMPDEST PUSH2 0xA9A JUMP JUMPDEST CALLVALUE DUP1 ISZERO PUSH2 0x40C JUMPI PUSH1 0x0 DUP1 REVERT JUMPDEST POP PUSH2 0x2F0 PUSH2 0x41B CALLDATASIZE PUSH1 0x4 PUSH2 0x40D9 JUMP JUMPDEST PUSH2 0xAF8 JUMP JUMPDEST CALLVALUE DUP1 ISZERO PUSH2 0x42C JUMPI PUSH1 0x0 DUP1 REVERT JUMPDEST POP PUSH2 0x2F0 PUSH2 0x43B CALLDATASIZE PUSH1 0x4 PUSH2 0x4109 JUMP JUMPDEST PUSH2 0xB22 JUMP JUMPDEST CALLVALUE DUP1 ISZERO PUSH2 0x44C JUMPI PUSH1 0x0 DUP1 REVERT JUMPDEST POP PUSH2 0x2F0 PUSH2 0x45B CALLDATASIZE PUSH1 0x4 PUSH2 0x40D9 JUMP JUMPDEST PUSH2 0xB81 JUMP JUMPDEST CALLVALUE DUP1 ISZERO PUSH2 0x46C JUMPI PUSH1 0x0 DUP1 REVERT JUMPDEST POP PUSH2 0x2F0 PUSH2 0x47B CALLDATASIZE PUSH1 0x4 PUSH2 0x4109 JUMP JUMPDEST PUSH2 0xC0B JUMP JUMPDEST CALLVALUE DUP1 ISZERO PUSH2 0x48C JUMPI PUSH1 0x0 DUP1 REVERT JUMPDEST POP PUSH2 0x291 SLOAD PUSH2 0x2C0 SWAP1 PUSH1 0xFF AND DUP2 JUMP JUMPDEST CALLVALUE DUP1 ISZERO PUSH2 0x4A7 JUMPI PUSH1 0x0 DUP1 REVERT JUMPDEST POP PUSH2 0x28D PUSH1 0x0 DUP1 MLOAD PUSH1 0x20 PUSH2 0x5408 DUP4 CODECOPY DUP2 MLOAD SWAP2 MSTORE DUP2 JUMP JUMPDEST CALLVALUE DUP1 ISZERO PUSH2 0x4C9 JUMPI PUSH1 0x0 DUP1 REVERT JUMPDEST POP PUSH2 0x2F0 PUSH2 0xCD1 JUMP JUMPDEST CALLVALUE DUP1 ISZERO PUSH2 0x4DE JUMPI PUSH1 0x0 DUP1 REVERT JUMPDEST POP PUSH2 0x2F0 PUSH2 0x4ED CALLDATASIZE PUSH1 0x4 PUSH2 0x4134 JUMP JUMPDEST PUSH2 0xCE3 JUMP JUMPDEST CALLVALUE DUP1 ISZERO PUSH2 0x4FE JUMPI PUSH1 0x0 DUP1 REVERT JUMPDEST POP PUSH2 0x512 PUSH2 0x50D CALLDATASIZE PUSH1 0x4 PUSH2 0x4151 JUMP JUMPDEST PUSH2 0xCFF JUMP JUMPDEST PUSH1 0x40 MLOAD PUSH2 0x297 SWAP2 SWAP1 PUSH2 0x424E JUMP JUMPDEST PUSH2 0x2F0 PUSH2 0x52D CALLDATASIZE PUSH1 0x4 PUSH2 0x3EA3 JUMP JUMPDEST PUSH2 0xE28 JUMP JUMPDEST CALLVALUE DUP1 ISZERO PUSH2 0x53E JUMPI PUSH1 0x0 DUP1 REVERT JUMPDEST POP PUSH2 0x2C0 PUSH2 0x54D CALLDATASIZE PUSH1 0x4 PUSH2 0x3EF2 JUMP JUMPDEST PUSH1 0x0 SWAP1 DUP2 MSTORE PUSH2 0x191 PUSH1 0x20 MSTORE PUSH1 0x40 SWAP1 KECCAK256 SLOAD ISZERO ISZERO SWAP1 JUMP JUMPDEST CALLVALUE DUP1 ISZERO PUSH2 0x56E JUMPI PUSH1 0x0 DUP1 REVERT JUMPDEST POP PUSH2 0x28D PUSH2 0xEDE JUMP JUMPDEST CALLVALUE DUP1 ISZERO PUSH2 0x583 JUMPI PUSH1 0x0 DUP1 REVERT JUMPDEST POP PUSH2 0x2C0 PUSH2 0x592 CALLDATASIZE PUSH1 0x4 PUSH2 0x4109 JUMP JUMPDEST PUSH2 0xF8D JUMP JUMPDEST CALLVALUE DUP1 ISZERO PUSH2 0x5A3 JUMPI PUSH1 0x0 DUP1 REVERT JUMPDEST POP PUSH2 0x2F0 PUSH2 0x5B2 CALLDATASIZE PUSH1 0x4 PUSH2 0x42AC JUMP JUMPDEST PUSH2 0xFA2 JUMP JUMPDEST CALLVALUE DUP1 ISZERO PUSH2 0x5C3 JUMPI PUSH1 0x0 DUP1 REVERT JUMPDEST POP PUSH1 0xFB SLOAD PUSH1 0xFF AND PUSH2 0x2C0 JUMP JUMPDEST CALLVALUE DUP1 ISZERO PUSH2 0x5DB JUMPI PUSH1 0x0 DUP1 REVERT JUMPDEST POP PUSH2 0x2F0 PUSH2 0x5EA CALLDATASIZE PUSH1 0x4 PUSH2 0x4317 JUMP JUMPDEST PUSH2 0x101D JUMP JUMPDEST CALLVALUE DUP1 ISZERO PUSH2 0x5FB JUMPI PUSH1 0x0 DUP1 REVERT JUMPDEST POP PUSH2 0x28E SLOAD PUSH2 0x610 SWAP1 PUSH1 0x1 PUSH1 0x1 PUSH1 0xA0 SHL SUB AND DUP2 JUMP JUMPDEST PUSH1 0x40 MLOAD PUSH2 0x297 SWAP2 SWAP1 PUSH2 0x438C JUMP JUMPDEST CALLVALUE DUP1 ISZERO PUSH2 0x629 JUMPI PUSH1 0x0 DUP1 REVERT JUMPDEST POP PUSH2 0x2F0 PUSH2 0x1072 JUMP JUMPDEST CALLVALUE DUP1 ISZERO PUSH2 0x63E JUMPI PUSH1 0x0 DUP1 REVERT JUMPDEST POP PUSH2 0x610 PUSH2 0x64D CALLDATASIZE PUSH1 0x4 PUSH2 0x3F76 JUMP JUMPDEST PUSH2 0x1082 JUMP JUMPDEST CALLVALUE DUP1 ISZERO PUSH2 0x65E JUMPI PUSH1 0x0 DUP1 REVERT JUMPDEST POP PUSH2 0x2F0 PUSH2 0x66D CALLDATASIZE PUSH1 0x4 PUSH2 0x3EF2 JUMP JUMPDEST PUSH2 0x109A JUMP JUMPDEST CALLVALUE DUP1 ISZERO PUSH2 0x67E JUMPI PUSH1 0x0 DUP1 REVERT JUMPDEST POP PUSH2 0x2C0 PUSH2 0x68D CALLDATASIZE PUSH1 0x4 PUSH2 0x40D9 JUMP JUMPDEST PUSH2 0x10D4 JUMP JUMPDEST CALLVALUE DUP1 ISZERO PUSH2 0x69E JUMPI PUSH1 0x0 DUP1 REVERT JUMPDEST POP PUSH2 0x2F0 PUSH2 0x6AD CALLDATASIZE PUSH1 0x4 PUSH2 0x3E67 JUMP JUMPDEST PUSH2 0x10FF JUMP JUMPDEST CALLVALUE DUP1 ISZERO PUSH2 0x6BE JUMPI PUSH1 0x0 DUP1 REVERT JUMPDEST POP PUSH2 0x28D PUSH2 0x28F SLOAD DUP2 JUMP JUMPDEST CALLVALUE DUP1 ISZERO PUSH2 0x6D5 JUMPI PUSH1 0x0 DUP1 REVERT JUMPDEST POP PUSH2 0x28D PUSH1 0x0 DUP2 JUMP JUMPDEST CALLVALUE DUP1 ISZERO PUSH2 0x6EA JUMPI PUSH1 0x0 DUP1 REVERT JUMPDEST POP PUSH2 0x2F0 PUSH2 0x6F9 CALLDATASIZE PUSH1 0x4 PUSH2 0x43A0 JUMP JUMPDEST PUSH2 0x111B JUMP JUMPDEST CALLVALUE DUP1 ISZERO PUSH2 0x70A JUMPI PUSH1 0x0 DUP1 REVERT JUMPDEST POP PUSH2 0x28D PUSH32 0x8F4F2DA22E8AC8F11E15F9FC141CDDBB5DEEA8800186560ABB6E68C5496619A9 DUP2 JUMP JUMPDEST CALLVALUE DUP1 ISZERO PUSH2 0x73E JUMPI PUSH1 0x0 DUP1 REVERT JUMPDEST POP PUSH2 0x2F0 PUSH2 0x74D CALLDATASIZE PUSH1 0x4 PUSH2 0x3CD2 JUMP JUMPDEST PUSH2 0x112D JUMP JUMPDEST CALLVALUE DUP1 ISZERO PUSH2 0x75E JUMPI PUSH1 0x0 DUP1 REVERT JUMPDEST POP PUSH2 0x2F0 PUSH2 0x76D CALLDATASIZE PUSH1 0x4 PUSH2 0x43CE JUMP JUMPDEST PUSH2 0x1174 JUMP JUMPDEST CALLVALUE DUP1 ISZERO PUSH2 0x77E JUMPI PUSH1 0x0 DUP1 REVERT JUMPDEST POP PUSH2 0x28D PUSH2 0x78D CALLDATASIZE PUSH1 0x4 PUSH2 0x3EF2 JUMP JUMPDEST PUSH1 0x0 SWAP1 DUP2 MSTORE PUSH2 0x191 PUSH1 0x20 MSTORE PUSH1 0x40 SWAP1 KECCAK256 SLOAD SWAP1 JUMP JUMPDEST CALLVALUE DUP1 ISZERO PUSH2 0x7AC JUMPI PUSH1 0x0 DUP1 REVERT JUMPDEST POP PUSH2 0x28D PUSH2 0x7BB CALLDATASIZE PUSH1 0x4 PUSH2 0x3EF2 JUMP JUMPDEST PUSH2 0x1293 JUMP JUMPDEST PUSH2 0x2F0 PUSH2 0x7CE CALLDATASIZE PUSH1 0x4 PUSH2 0x4661 JUMP JUMPDEST PUSH2 0x12AA JUMP JUMPDEST CALLVALUE DUP1 ISZERO PUSH2 0x7DF JUMPI PUSH1 0x0 DUP1 REVERT JUMPDEST POP PUSH2 0x2F0 PUSH2 0x7EE CALLDATASIZE PUSH1 0x4 PUSH2 0x481B JUMP JUMPDEST PUSH2 0x1841 JUMP JUMPDEST CALLVALUE DUP1 ISZERO PUSH2 0x7FF JUMPI PUSH1 0x0 DUP1 REVERT JUMPDEST POP PUSH2 0x2F0 PUSH2 0x80E CALLDATASIZE PUSH1 0x4 PUSH2 0x40D9 JUMP JUMPDEST PUSH2 0x1964 JUMP JUMPDEST CALLVALUE DUP1 ISZERO PUSH2 0x81F JUMPI PUSH1 0x0 DUP1 REVERT JUMPDEST POP PUSH2 0x2F0 PUSH2 0x82E CALLDATASIZE PUSH1 0x4 PUSH2 0x4109 JUMP JUMPDEST PUSH2 0x1989 JUMP JUMPDEST CALLVALUE DUP1 ISZERO PUSH2 0x83F JUMPI PUSH1 0x0 DUP1 REVERT JUMPDEST POP PUSH2 0x28D PUSH2 0x290 SLOAD DUP2 JUMP JUMPDEST CALLVALUE DUP1 ISZERO PUSH2 0x856 JUMPI PUSH1 0x0 DUP1 REVERT JUMPDEST POP PUSH2 0x28D PUSH2 0x865 CALLDATASIZE PUSH1 0x4 PUSH2 0x4109 JUMP JUMPDEST PUSH2 0x19D9 JUMP JUMPDEST CALLVALUE DUP1 ISZERO PUSH2 0x876 JUMPI PUSH1 0x0 DUP1 REVERT JUMPDEST POP PUSH2 0x332 PUSH2 0x1A4C JUMP JUMPDEST CALLVALUE DUP1 ISZERO PUSH2 0x88B JUMPI PUSH1 0x0 DUP1 REVERT JUMPDEST POP PUSH2 0x2C0 PUSH2 0x89A CALLDATASIZE PUSH1 0x4 PUSH2 0x489F JUMP JUMPDEST PUSH1 0x1 PUSH1 0x1 PUSH1 0xA0 SHL SUB SWAP2 DUP3 AND PUSH1 0x0 SWAP1 DUP2 MSTORE PUSH1 0xCA PUSH1 0x20 SWAP1 DUP2 MSTORE PUSH1 0x40 DUP1 DUP4 KECCAK256 SWAP4 SWAP1 SWAP5 AND DUP3 MSTORE SWAP2 SWAP1 SWAP2 MSTORE KECCAK256 SLOAD PUSH1 0xFF AND SWAP1 JUMP JUMPDEST CALLVALUE DUP1 ISZERO PUSH2 0x8D4 JUMPI PUSH1 0x0 DUP1 REVERT JUMPDEST POP PUSH2 0x2F0 PUSH2 0x8E3 CALLDATASIZE PUSH1 0x4 PUSH2 0x48CD JUMP JUMPDEST PUSH2 0x1ADF JUMP JUMPDEST CALLVALUE DUP1 ISZERO PUSH2 0x8F4 JUMPI PUSH1 0x0 DUP1 REVERT JUMPDEST POP PUSH2 0x2F0 PUSH2 0x903 CALLDATASIZE PUSH1 0x4 PUSH2 0x4935 JUMP JUMPDEST PUSH2 0x1B36 JUMP JUMPDEST PUSH1 0x0 PUSH1 0x1 PUSH1 0x1 PUSH1 0xA0 SHL SUB DUP4 AND PUSH2 0x939 JUMPI PUSH1 0x40 MLOAD PUSH3 0x461BCD PUSH1 0xE5 SHL DUP2 MSTORE PUSH1 0x4 ADD PUSH2 0x930 SWAP1 PUSH2 0x496A JUMP JUMPDEST PUSH1 0x40 MLOAD DUP1 SWAP2 SUB SWAP1 REVERT JUMPDEST POP PUSH1 0x0 DUP2 DUP2 MSTORE PUSH1 0xC9 PUSH1 0x20 SWAP1 DUP2 MSTORE PUSH1 0x40 DUP1 DUP4 KECCAK256 PUSH1 0x1 PUSH1 0x1 PUSH1 0xA0 SHL SUB DUP7 AND DUP5 MSTORE SWAP1 SWAP2 MSTORE SWAP1 KECCAK256 SLOAD JUMPDEST SWAP3 SWAP2 POP POP JUMP JUMPDEST PUSH1 0x0 PUSH2 0x95E DUP3 PUSH2 0x1B8B JUMP JUMPDEST PUSH2 0x977 PUSH2 0x1BCB JUMP JUMPDEST PUSH2 0x980 DUP2 PUSH2 0x1C31 JUMP JUMPDEST POP JUMP JUMPDEST PUSH1 0x0 PUSH1 0x1 PUSH1 0x1 PUSH1 0xA0 SHL SUB DUP4 AND PUSH2 0x9AB JUMPI PUSH1 0x40 MLOAD PUSH3 0x461BCD PUSH1 0xE5 SHL DUP2 MSTORE PUSH1 0x4 ADD PUSH2 0x930 SWAP1 PUSH2 0x496A JUMP JUMPDEST PUSH2 0x9B8 DUP4 PUSH2 0x288 DUP5 PUSH2 0xA53 JUMP JUMPDEST SWAP4 SWAP3 POP POP POP JUMP JUMPDEST PUSH1 0x60 PUSH1 0xCB DUP1 SLOAD PUSH2 0x9CE SWAP1 PUSH2 0x49B4 JUMP JUMPDEST DUP1 PUSH1 0x1F ADD PUSH1 0x20 DUP1 SWAP2 DIV MUL PUSH1 0x20 ADD PUSH1 0x40 MLOAD SWAP1 DUP2 ADD PUSH1 0x40 MSTORE DUP1 SWAP3 SWAP2 SWAP1 DUP2 DUP2 MSTORE PUSH1 0x20 ADD DUP3 DUP1 SLOAD PUSH2 0x9FA SWAP1 PUSH2 0x49B4 JUMP JUMPDEST DUP1 ISZERO PUSH2 0xA47 JUMPI DUP1 PUSH1 0x1F LT PUSH2 0xA1C JUMPI PUSH2 0x100 DUP1 DUP4 SLOAD DIV MUL DUP4 MSTORE SWAP2 PUSH1 0x20 ADD SWAP2 PUSH2 0xA47 JUMP JUMPDEST DUP3 ADD SWAP2 SWAP1 PUSH1 0x0 MSTORE PUSH1 0x20 PUSH1 0x0 KECCAK256 SWAP1 JUMPDEST DUP2 SLOAD DUP2 MSTORE SWAP1 PUSH1 0x1 ADD SWAP1 PUSH1 0x20 ADD DUP1 DUP4 GT PUSH2 0xA2A JUMPI DUP3 SWAP1 SUB PUSH1 0x1F AND DUP3 ADD SWAP2 JUMPDEST POP POP POP POP POP SWAP1 POP SWAP2 SWAP1 POP JUMP JUMPDEST PUSH1 0x0 DUP2 PUSH1 0x40 MLOAD PUSH1 0x20 ADD PUSH2 0xA66 SWAP2 SWAP1 PUSH2 0x3F63 JUMP JUMPDEST PUSH1 0x40 DUP1 MLOAD PUSH1 0x1F NOT DUP2 DUP5 SUB ADD DUP2 MSTORE SWAP2 SWAP1 MSTORE DUP1 MLOAD PUSH1 0x20 SWAP1 SWAP2 ADD KECCAK256 SWAP3 SWAP2 POP POP JUMP JUMPDEST PUSH2 0xA96 PUSH2 0xA8F PUSH2 0x1C44 JUMP JUMPDEST DUP4 DUP4 PUSH2 0x1C66 JUMP JUMPDEST POP POP JUMP JUMPDEST PUSH2 0xAA2 PUSH2 0x1C44 JUMP JUMPDEST PUSH1 0x1 PUSH1 0x1 PUSH1 0xA0 SHL SUB AND DUP6 PUSH1 0x1 PUSH1 0x1 PUSH1 0xA0 SHL SUB AND EQ DUP1 PUSH2 0xAC8 JUMPI POP PUSH2 0xAC8 DUP6 PUSH2 0x89A PUSH2 0x1C44 JUMP JUMPDEST PUSH2 0xAE4 JUMPI PUSH1 0x40 MLOAD PUSH3 0x461BCD PUSH1 0xE5 SHL DUP2 MSTORE PUSH1 0x4 ADD PUSH2 0x930 SWAP1 PUSH2 0x49EF JUMP JUMPDEST PUSH2 0xAF1 DUP6 DUP6 DUP6 DUP6 DUP6 PUSH2 0x1D80 JUMP JUMPDEST POP POP POP POP POP JUMP JUMPDEST PUSH1 0x0 DUP3 DUP2 MSTORE PUSH1 0x65 PUSH1 0x20 MSTORE PUSH1 0x40 SWAP1 KECCAK256 PUSH1 0x1 ADD SLOAD PUSH2 0xB13 DUP2 PUSH2 0x1F1E JUMP JUMPDEST PUSH2 0xB1D DUP4 DUP4 PUSH2 0x1F2F JUMP JUMPDEST POP POP POP JUMP JUMPDEST PUSH2 0x227 SLOAD PUSH1 0x40 MLOAD PUSH4 0x51CFF8D9 PUSH1 0xE0 SHL DUP2 MSTORE PUSH1 0x1 PUSH1 0x1 PUSH1 0xA0 SHL SUB SWAP1 SWAP2 AND SWAP1 PUSH4 0x51CFF8D9 SWAP1 PUSH2 0xB53 SWAP1 DUP5 SWAP1 PUSH1 0x4 ADD PUSH2 0x438C JUMP JUMPDEST PUSH1 0x0 PUSH1 0x40 MLOAD DUP1 DUP4 SUB DUP2 PUSH1 0x0 DUP8 DUP1 EXTCODESIZE ISZERO DUP1 ISZERO PUSH2 0xB6D JUMPI PUSH1 0x0 DUP1 REVERT JUMPDEST POP GAS CALL ISZERO DUP1 ISZERO PUSH2 0xAF1 JUMPI RETURNDATASIZE PUSH1 0x0 DUP1 RETURNDATACOPY RETURNDATASIZE PUSH1 0x0 REVERT JUMPDEST PUSH2 0xB89 PUSH2 0x1C44 JUMP JUMPDEST PUSH1 0x1 PUSH1 0x1 PUSH1 0xA0 SHL SUB AND DUP2 PUSH1 0x1 PUSH1 0x1 PUSH1 0xA0 SHL SUB AND EQ PUSH2 0xC01 JUMPI PUSH1 0x40 MLOAD PUSH3 0x461BCD PUSH1 0xE5 SHL DUP2 MSTORE PUSH1 0x20 PUSH1 0x4 DUP3 ADD MSTORE PUSH1 0x2F PUSH1 0x24 DUP3 ADD MSTORE PUSH32 0x416363657373436F6E74726F6C3A2063616E206F6E6C792072656E6F756E6365 PUSH1 0x44 DUP3 ADD MSTORE PUSH15 0x103937B632B9903337B91039B2B633 PUSH1 0x89 SHL PUSH1 0x64 DUP3 ADD MSTORE PUSH1 0x84 ADD PUSH2 0x930 JUMP JUMPDEST PUSH2 0xA96 DUP3 DUP3 PUSH2 0x1F51 JUMP JUMPDEST ADDRESS PUSH1 0x1 PUSH1 0x1 PUSH1 0xA0 SHL SUB PUSH32 0x0 AND EQ ISZERO PUSH2 0xC54 JUMPI PUSH1 0x40 MLOAD PUSH3 0x461BCD PUSH1 0xE5 SHL DUP2 MSTORE PUSH1 0x4 ADD PUSH2 0x930 SWAP1 PUSH2 0x4A3D JUMP JUMPDEST PUSH32 0x0 PUSH1 0x1 PUSH1 0x1 PUSH1 0xA0 SHL SUB AND PUSH2 0xC86 PUSH2 0x1F73 JUMP JUMPDEST PUSH1 0x1 PUSH1 0x1 PUSH1 0xA0 SHL SUB AND EQ PUSH2 0xCAC JUMPI PUSH1 0x40 MLOAD PUSH3 0x461BCD PUSH1 0xE5 SHL DUP2 MSTORE PUSH1 0x4 ADD PUSH2 0x930 SWAP1 PUSH2 0x4A89 JUMP JUMPDEST PUSH2 0xCB5 DUP2 PUSH2 0x1F8F JUMP JUMPDEST PUSH1 0x40 DUP1 MLOAD PUSH1 0x0 DUP1 DUP3 MSTORE PUSH1 0x20 DUP3 ADD SWAP1 SWAP3 MSTORE PUSH2 0x980 SWAP2 DUP4 SWAP2 SWAP1 PUSH2 0x1F97 JUMP JUMPDEST PUSH2 0xCD9 PUSH2 0x1BCB JUMP JUMPDEST PUSH2 0xCE1 PUSH2 0x2102 JUMP JUMPDEST JUMP JUMPDEST PUSH2 0xCEB PUSH2 0x1BCB JUMP JUMPDEST PUSH2 0x291 DUP1 SLOAD PUSH1 0xFF NOT AND SWAP2 ISZERO ISZERO SWAP2 SWAP1 SWAP2 OR SWAP1 SSTORE JUMP JUMPDEST PUSH1 0x60 DUP2 MLOAD DUP4 MLOAD EQ PUSH2 0xD64 JUMPI PUSH1 0x40 MLOAD PUSH3 0x461BCD PUSH1 0xE5 SHL DUP2 MSTORE PUSH1 0x20 PUSH1 0x4 DUP3 ADD MSTORE PUSH1 0x29 PUSH1 0x24 DUP3 ADD MSTORE PUSH32 0x455243313135353A206163636F756E747320616E6420696473206C656E677468 PUSH1 0x44 DUP3 ADD MSTORE PUSH9 0x40DAD2E6DAC2E8C6D PUSH1 0xBB SHL PUSH1 0x64 DUP3 ADD MSTORE PUSH1 0x84 ADD PUSH2 0x930 JUMP JUMPDEST PUSH1 0x0 DUP4 MLOAD PUSH1 0x1 PUSH1 0x1 PUSH1 0x40 SHL SUB DUP2 GT ISZERO PUSH2 0xD7F JUMPI PUSH2 0xD7F PUSH2 0x3D31 JUMP JUMPDEST PUSH1 0x40 MLOAD SWAP1 DUP1 DUP3 MSTORE DUP1 PUSH1 0x20 MUL PUSH1 0x20 ADD DUP3 ADD PUSH1 0x40 MSTORE DUP1 ISZERO PUSH2 0xDA8 JUMPI DUP2 PUSH1 0x20 ADD PUSH1 0x20 DUP3 MUL DUP1 CALLDATASIZE DUP4 CALLDATACOPY ADD SWAP1 POP JUMPDEST POP SWAP1 POP PUSH1 0x0 JUMPDEST DUP5 MLOAD DUP2 LT ISZERO PUSH2 0xE20 JUMPI PUSH2 0xDF3 DUP6 DUP3 DUP2 MLOAD DUP2 LT PUSH2 0xDCC JUMPI PUSH2 0xDCC PUSH2 0x4AD5 JUMP JUMPDEST PUSH1 0x20 MUL PUSH1 0x20 ADD ADD MLOAD DUP6 DUP4 DUP2 MLOAD DUP2 LT PUSH2 0xDE6 JUMPI PUSH2 0xDE6 PUSH2 0x4AD5 JUMP JUMPDEST PUSH1 0x20 MUL PUSH1 0x20 ADD ADD MLOAD PUSH2 0x908 JUMP JUMPDEST DUP3 DUP3 DUP2 MLOAD DUP2 LT PUSH2 0xE05 JUMPI PUSH2 0xE05 PUSH2 0x4AD5 JUMP JUMPDEST PUSH1 0x20 SWAP1 DUP2 MUL SWAP2 SWAP1 SWAP2 ADD ADD MSTORE PUSH2 0xE19 DUP2 PUSH2 0x4B01 JUMP JUMPDEST SWAP1 POP PUSH2 0xDAE JUMP JUMPDEST POP SWAP4 SWAP3 POP POP POP JUMP JUMPDEST ADDRESS PUSH1 0x1 PUSH1 0x1 PUSH1 0xA0 SHL SUB PUSH32 0x0 AND EQ ISZERO PUSH2 0xE71 JUMPI PUSH1 0x40 MLOAD PUSH3 0x461BCD PUSH1 0xE5 SHL DUP2 MSTORE PUSH1 0x4 ADD PUSH2 0x930 SWAP1 PUSH2 0x4A3D JUMP JUMPDEST PUSH32 0x0 PUSH1 0x1 PUSH1 0x1 PUSH1 0xA0 SHL SUB AND PUSH2 0xEA3 PUSH2 0x1F73 JUMP JUMPDEST PUSH1 0x1 PUSH1 0x1 PUSH1 0xA0 SHL SUB AND EQ PUSH2 0xEC9 JUMPI PUSH1 0x40 MLOAD PUSH3 0x461BCD PUSH1 0xE5 SHL DUP2 MSTORE PUSH1 0x4 ADD PUSH2 0x930 SWAP1 PUSH2 0x4A89 JUMP JUMPDEST PUSH2 0xED2 DUP3 PUSH2 0x1F8F JUMP JUMPDEST PUSH2 0xA96 DUP3 DUP3 PUSH1 0x1 PUSH2 0x1F97 JUMP JUMPDEST PUSH1 0x0 ADDRESS PUSH1 0x1 PUSH1 0x1 PUSH1 0xA0 SHL SUB PUSH32 0x0 AND EQ PUSH2 0xF79 JUMPI PUSH1 0x40 MLOAD PUSH3 0x461BCD PUSH1 0xE5 SHL DUP2 MSTORE PUSH1 0x20 PUSH1 0x4 DUP3 ADD MSTORE PUSH1 0x38 PUSH1 0x24 DUP3 ADD MSTORE PUSH32 0x555550535570677261646561626C653A206D757374206E6F742062652063616C PUSH1 0x44 DUP3 ADD MSTORE PUSH24 0x1B1959081D1A1C9BDD59DA0819195B1959D85D1958D85B1B PUSH1 0x42 SHL PUSH1 0x64 DUP3 ADD MSTORE PUSH1 0x84 ADD PUSH2 0x930 JUMP JUMPDEST POP PUSH1 0x0 DUP1 MLOAD PUSH1 0x20 PUSH2 0x5428 DUP4 CODECOPY DUP2 MLOAD SWAP2 MSTORE JUMPDEST SWAP1 JUMP JUMPDEST PUSH2 0x28E SLOAD PUSH1 0x1 PUSH1 0x1 PUSH1 0xA0 SHL SUB SWAP2 DUP3 AND SWAP2 AND EQ SWAP1 JUMP JUMPDEST PUSH2 0x1017 PUSH2 0xFAD PUSH2 0x1C44 JUMP JUMPDEST DUP6 DUP6 DUP1 DUP1 PUSH1 0x20 MUL PUSH1 0x20 ADD PUSH1 0x40 MLOAD SWAP1 DUP2 ADD PUSH1 0x40 MSTORE DUP1 SWAP4 SWAP3 SWAP2 SWAP1 DUP2 DUP2 MSTORE PUSH1 0x20 ADD DUP4 DUP4 PUSH1 0x20 MUL DUP1 DUP3 DUP5 CALLDATACOPY PUSH1 0x0 SWAP3 ADD SWAP2 SWAP1 SWAP2 MSTORE POP POP PUSH1 0x40 DUP1 MLOAD PUSH1 0x20 DUP1 DUP10 MUL DUP3 DUP2 ADD DUP3 ADD SWAP1 SWAP4 MSTORE DUP9 DUP3 MSTORE SWAP1 SWAP4 POP DUP9 SWAP3 POP DUP8 SWAP2 DUP3 SWAP2 DUP6 ADD SWAP1 DUP5 SWAP1 DUP1 DUP3 DUP5 CALLDATACOPY PUSH1 0x0 SWAP3 ADD SWAP2 SWAP1 SWAP2 MSTORE POP PUSH2 0x2154 SWAP3 POP POP POP JUMP JUMPDEST POP POP POP POP JUMP JUMPDEST PUSH2 0x1025 PUSH2 0x1C44 JUMP JUMPDEST PUSH1 0x1 PUSH1 0x1 PUSH1 0xA0 SHL SUB AND DUP4 PUSH1 0x1 PUSH1 0x1 PUSH1 0xA0 SHL SUB AND EQ DUP1 PUSH2 0x104B JUMPI POP PUSH2 0x104B DUP4 PUSH2 0x89A PUSH2 0x1C44 JUMP JUMPDEST PUSH2 0x1067 JUMPI PUSH1 0x40 MLOAD PUSH3 0x461BCD PUSH1 0xE5 SHL DUP2 MSTORE PUSH1 0x4 ADD PUSH2 0x930 SWAP1 PUSH2 0x49EF JUMP JUMPDEST PUSH2 0xB1D DUP4 DUP4 DUP4 PUSH2 0x2154 JUMP JUMPDEST PUSH2 0x107A PUSH2 0x1BCB JUMP JUMPDEST PUSH2 0xCE1 PUSH2 0x22E8 JUMP JUMPDEST PUSH1 0x0 DUP3 DUP2 MSTORE PUSH1 0x97 PUSH1 0x20 MSTORE PUSH1 0x40 DUP2 KECCAK256 PUSH2 0x9B8 SWAP1 DUP4 PUSH2 0x2326 JUMP JUMPDEST PUSH2 0x10A2 PUSH2 0x1BCB JUMP JUMPDEST PUSH2 0x28F DUP2 SWAP1 SSTORE PUSH1 0x40 MLOAD PUSH32 0xF2E795D4A33AE9A0D3282888375B8AE781EA4DE1CBF101AC96150AA95CCFF0B4 SWAP1 PUSH1 0x0 SWAP1 LOG1 POP JUMP JUMPDEST PUSH1 0x0 SWAP2 DUP3 MSTORE PUSH1 0x65 PUSH1 0x20 SWAP1 DUP2 MSTORE PUSH1 0x40 DUP1 DUP5 KECCAK256 PUSH1 0x1 PUSH1 0x1 PUSH1 0xA0 SHL SUB SWAP4 SWAP1 SWAP4 AND DUP5 MSTORE SWAP2 SWAP1 MSTORE SWAP1 KECCAK256 SLOAD PUSH1 0xFF AND SWAP1 JUMP JUMPDEST PUSH2 0x1107 PUSH2 0x1BCB JUMP JUMPDEST DUP1 MLOAD PUSH2 0xA96 SWAP1 PUSH2 0x28D SWAP1 PUSH1 0x20 DUP5 ADD SWAP1 PUSH2 0x3C14 JUMP JUMPDEST PUSH2 0xA96 PUSH2 0x1126 PUSH2 0x1C44 JUMP JUMPDEST DUP4 DUP4 PUSH2 0x2332 JUMP JUMPDEST PUSH2 0x1135 PUSH2 0x2413 JUMP JUMPDEST PUSH2 0x113D PUSH2 0x1BCB JUMP JUMPDEST PUSH2 0x290 SLOAD DUP2 GT ISZERO PUSH2 0x114D JUMPI PUSH1 0x0 DUP1 REVERT JUMPDEST PUSH2 0x290 SLOAD PUSH2 0x115B SWAP1 DUP3 PUSH2 0x246F JUMP JUMPDEST PUSH2 0x290 SSTORE PUSH2 0x1169 DUP3 DUP3 PUSH2 0x247B JUMP JUMPDEST PUSH2 0xA96 PUSH1 0x1 PUSH2 0x25A SSTORE JUMP JUMPDEST PUSH1 0x0 SLOAD PUSH2 0x100 SWAP1 DIV PUSH1 0xFF AND ISZERO DUP1 DUP1 ISZERO PUSH2 0x1194 JUMPI POP PUSH1 0x0 SLOAD PUSH1 0x1 PUSH1 0xFF SWAP1 SWAP2 AND LT JUMPDEST DUP1 PUSH2 0x11B5 JUMPI POP PUSH2 0x11A3 ADDRESS PUSH2 0x24DB JUMP JUMPDEST ISZERO DUP1 ISZERO PUSH2 0x11B5 JUMPI POP PUSH1 0x0 SLOAD PUSH1 0xFF AND PUSH1 0x1 EQ JUMPDEST PUSH2 0x1218 JUMPI PUSH1 0x40 MLOAD PUSH3 0x461BCD PUSH1 0xE5 SHL DUP2 MSTORE PUSH1 0x20 PUSH1 0x4 DUP3 ADD MSTORE PUSH1 0x2E PUSH1 0x24 DUP3 ADD MSTORE PUSH32 0x496E697469616C697A61626C653A20636F6E747261637420697320616C726561 PUSH1 0x44 DUP3 ADD MSTORE PUSH14 0x191E481A5B9A5D1A585B1A5E9959 PUSH1 0x92 SHL PUSH1 0x64 DUP3 ADD MSTORE PUSH1 0x84 ADD PUSH2 0x930 JUMP JUMPDEST PUSH1 0x0 DUP1 SLOAD PUSH1 0xFF NOT AND PUSH1 0x1 OR SWAP1 SSTORE DUP1 ISZERO PUSH2 0x123B JUMPI PUSH1 0x0 DUP1 SLOAD PUSH2 0xFF00 NOT AND PUSH2 0x100 OR SWAP1 SSTORE JUMPDEST PUSH2 0x1247 DUP6 DUP6 DUP6 DUP6 PUSH2 0x24EA JUMP JUMPDEST DUP1 ISZERO PUSH2 0xAF1 JUMPI PUSH1 0x0 DUP1 SLOAD PUSH2 0xFF00 NOT AND SWAP1 SSTORE PUSH1 0x40 MLOAD PUSH1 0x1 DUP2 MSTORE PUSH32 0x7F26B83FF96E1F2B6A682F133852F6798A09C465DA95921460CEFB3847402498 SWAP1 PUSH1 0x20 ADD PUSH1 0x40 MLOAD DUP1 SWAP2 SUB SWAP1 LOG1 POP POP POP POP POP JUMP JUMPDEST PUSH1 0x0 DUP2 DUP2 MSTORE PUSH1 0x97 PUSH1 0x20 MSTORE PUSH1 0x40 DUP2 KECCAK256 PUSH2 0x95E SWAP1 PUSH2 0x2587 JUMP JUMPDEST PUSH2 0x12B2 PUSH2 0x2591 JUMP JUMPDEST PUSH2 0x12CC PUSH1 0x0 DUP1 MLOAD PUSH1 0x20 PUSH2 0x5408 DUP4 CODECOPY DUP2 MLOAD SWAP2 MSTORE PUSH2 0x68D PUSH2 0x1C44 JUMP JUMPDEST DUP1 PUSH2 0x12F7 JUMPI POP PUSH2 0x12DA PUSH2 0x1C44 JUMP JUMPDEST PUSH1 0x1 PUSH1 0x1 PUSH1 0xA0 SHL SUB AND DUP4 PUSH1 0x80 ADD MLOAD PUSH1 0x20 ADD MLOAD PUSH1 0x1 PUSH1 0x1 PUSH1 0xA0 SHL SUB AND EQ JUMPDEST PUSH2 0x1362 JUMPI PUSH1 0x40 MLOAD PUSH3 0x461BCD PUSH1 0xE5 SHL DUP2 MSTORE PUSH1 0x20 PUSH1 0x4 DUP3 ADD MSTORE PUSH1 0x36 PUSH1 0x24 DUP3 ADD MSTORE PUSH32 0x4B5242546F6B656E3A2073656E646572206D7573742062652074686520637265 PUSH1 0x44 DUP3 ADD MSTORE PUSH22 0x64656E7469616C5375626A6563742061646472657373 PUSH1 0x50 SHL PUSH1 0x64 DUP3 ADD MSTORE PUSH1 0x84 ADD PUSH2 0x930 JUMP JUMPDEST DUP5 PUSH1 0x1 PUSH1 0x1 PUSH1 0xA0 SHL SUB AND DUP4 PUSH1 0x80 ADD MLOAD PUSH1 0x20 ADD MLOAD PUSH1 0x1 PUSH1 0x1 PUSH1 0xA0 SHL SUB AND EQ PUSH2 0x13EC JUMPI PUSH1 0x40 MLOAD PUSH3 0x461BCD PUSH1 0xE5 SHL DUP2 MSTORE PUSH1 0x20 PUSH1 0x4 DUP3 ADD MSTORE PUSH1 0x38 PUSH1 0x24 DUP3 ADD MSTORE PUSH32 0x4D696E7420746F2061646472657373206D757374206265207468652076632E63 PUSH1 0x44 DUP3 ADD MSTORE PUSH24 0x726564656E7469616C5375626A6563742061646472657373 PUSH1 0x40 SHL PUSH1 0x64 DUP3 ADD MSTORE PUSH1 0x84 ADD PUSH2 0x930 JUMP JUMPDEST PUSH2 0x13F5 DUP4 PUSH2 0x25D7 JUMP JUMPDEST DUP4 PUSH1 0x40 MLOAD PUSH1 0x20 ADD PUSH2 0x1406 SWAP2 SWAP1 PUSH2 0x3F63 JUMP JUMPDEST PUSH1 0x40 MLOAD PUSH1 0x20 DUP2 DUP4 SUB SUB DUP2 MSTORE SWAP1 PUSH1 0x40 MSTORE DUP1 MLOAD SWAP1 PUSH1 0x20 ADD KECCAK256 DUP4 PUSH1 0x80 ADD MLOAD PUSH1 0x40 ADD MLOAD PUSH1 0x40 MLOAD PUSH1 0x20 ADD PUSH2 0x1435 SWAP2 SWAP1 PUSH2 0x3F63 JUMP JUMPDEST PUSH1 0x40 MLOAD PUSH1 0x20 DUP2 DUP4 SUB SUB DUP2 MSTORE SWAP1 PUSH1 0x40 MSTORE DUP1 MLOAD SWAP1 PUSH1 0x20 ADD KECCAK256 EQ PUSH2 0x14BE JUMPI PUSH1 0x40 MLOAD PUSH3 0x461BCD PUSH1 0xE5 SHL DUP2 MSTORE PUSH1 0x20 PUSH1 0x4 DUP3 ADD MSTORE PUSH1 0x3E PUSH1 0x24 DUP3 ADD MSTORE PUSH32 0x76632E63726564656E7469616C5375626A6563742E5F7479706520646F65736E PUSH1 0x44 DUP3 ADD MSTORE PUSH32 0x2774206D617463682063726564656E7469616C5375626A656374547970650000 PUSH1 0x64 DUP3 ADD MSTORE PUSH1 0x84 ADD PUSH2 0x930 JUMP JUMPDEST PUSH1 0x0 PUSH2 0x14C9 DUP5 PUSH2 0x28BD JUMP JUMPDEST PUSH1 0x0 DUP2 DUP2 MSTORE PUSH2 0x292 PUSH1 0x20 MSTORE PUSH1 0x40 SWAP1 KECCAK256 SLOAD SWAP1 SWAP2 POP PUSH1 0xFF AND ISZERO PUSH2 0x1528 JUMPI PUSH1 0x40 MLOAD PUSH3 0x461BCD PUSH1 0xE5 SHL DUP2 MSTORE PUSH1 0x20 PUSH1 0x4 DUP3 ADD MSTORE PUSH1 0x19 PUSH1 0x24 DUP3 ADD MSTORE PUSH25 0x10DC9959195B9D1A585B08185B1C9958591E481B5A5B9D1959 PUSH1 0x3A SHL PUSH1 0x44 DUP3 ADD MSTORE PUSH1 0x64 ADD PUSH2 0x930 JUMP JUMPDEST PUSH2 0x291 SLOAD PUSH1 0xFF AND DUP1 ISZERO PUSH2 0x1614 JUMPI POP PUSH1 0x40 MLOAD PUSH1 0x20 ADD PUSH2 0x155E SWAP1 PUSH1 0x20 DUP1 DUP3 MSTORE PUSH1 0x4 SWAP1 DUP3 ADD MSTORE PUSH4 0x4E6F6E65 PUSH1 0xE0 SHL PUSH1 0x40 DUP3 ADD MSTORE PUSH1 0x60 ADD SWAP1 JUMP JUMPDEST PUSH1 0x40 DUP1 MLOAD PUSH1 0x1F NOT DUP2 DUP5 SUB ADD DUP2 MSTORE SWAP1 DUP3 SWAP1 MSTORE DUP1 MLOAD PUSH1 0x20 SWAP1 SWAP2 ADD KECCAK256 PUSH2 0x28C SLOAD PUSH4 0x606A836B PUSH1 0xE1 SHL DUP4 MSTORE SWAP1 SWAP2 PUSH1 0x1 PUSH1 0x1 PUSH1 0xA0 SHL SUB SWAP1 SWAP2 AND SWAP1 PUSH4 0xC0D506D6 SWAP1 PUSH2 0x15A7 SWAP1 DUP9 SWAP1 PUSH1 0x4 ADD PUSH2 0x4D2C JUMP JUMPDEST PUSH1 0x0 PUSH1 0x40 MLOAD DUP1 DUP4 SUB DUP2 DUP7 GAS STATICCALL ISZERO DUP1 ISZERO PUSH2 0x15C4 JUMPI RETURNDATASIZE PUSH1 0x0 DUP1 RETURNDATACOPY RETURNDATASIZE PUSH1 0x0 REVERT JUMPDEST POP POP POP POP PUSH1 0x40 MLOAD RETURNDATASIZE PUSH1 0x0 DUP3 RETURNDATACOPY PUSH1 0x1F RETURNDATASIZE SWAP1 DUP2 ADD PUSH1 0x1F NOT AND DUP3 ADD PUSH1 0x40 MSTORE PUSH2 0x15EC SWAP2 SWAP1 DUP2 ADD SWAP1 PUSH2 0x4D3F JUMP JUMPDEST PUSH1 0x40 MLOAD PUSH1 0x20 ADD PUSH2 0x15FC SWAP2 SWAP1 PUSH2 0x3F63 JUMP JUMPDEST PUSH1 0x40 MLOAD PUSH1 0x20 DUP2 DUP4 SUB SUB DUP2 MSTORE SWAP1 PUSH1 0x40 MSTORE DUP1 MLOAD SWAP1 PUSH1 0x20 ADD KECCAK256 EQ JUMPDEST ISZERO PUSH2 0x175E JUMPI PUSH2 0x28C SLOAD PUSH1 0x80 DUP6 ADD MLOAD PUSH2 0x100 ADD MLOAD PUSH1 0x40 MLOAD PUSH4 0x6F64E57F PUSH1 0xE1 SHL DUP2 MSTORE PUSH1 0x0 SWAP3 PUSH1 0x1 PUSH1 0x1 PUSH1 0xA0 SHL SUB AND SWAP2 PUSH4 0xDEC9CAFE SWAP2 PUSH2 0x1657 SWAP1 DUP10 SWAP1 DUP10 SWAP1 PUSH1 0x4 ADD PUSH2 0x4DC0 JUMP JUMPDEST PUSH1 0x20 PUSH1 0x40 MLOAD DUP1 DUP4 SUB DUP2 DUP6 DUP9 GAS CALL ISZERO DUP1 ISZERO PUSH2 0x1675 JUMPI RETURNDATASIZE PUSH1 0x0 DUP1 RETURNDATACOPY RETURNDATASIZE PUSH1 0x0 REVERT JUMPDEST POP POP POP POP POP PUSH1 0x40 MLOAD RETURNDATASIZE PUSH1 0x1F NOT PUSH1 0x1F DUP3 ADD AND DUP3 ADD DUP1 PUSH1 0x40 MSTORE POP DUP2 ADD SWAP1 PUSH2 0x169A SWAP2 SWAP1 PUSH2 0x4DE5 JUMP JUMPDEST SWAP1 POP DUP1 PUSH2 0x16F4 JUMPI PUSH1 0x40 MLOAD PUSH3 0x461BCD PUSH1 0xE5 SHL DUP2 MSTORE PUSH1 0x20 PUSH1 0x4 DUP3 ADD MSTORE PUSH1 0x22 PUSH1 0x24 DUP3 ADD MSTORE PUSH32 0x43726564656E7469616C206661696C656420746F206265207265676973746572 PUSH1 0x44 DUP3 ADD MSTORE PUSH2 0x1959 PUSH1 0xF2 SHL PUSH1 0x64 DUP3 ADD MSTORE PUSH1 0x84 ADD PUSH2 0x930 JUMP JUMPDEST PUSH2 0x28F SLOAD PUSH1 0x80 DUP7 ADD MLOAD PUSH2 0x100 ADD MLOAD PUSH2 0x170D SWAP1 CALLVALUE SWAP1 PUSH2 0x246F JUMP JUMPDEST LT ISZERO PUSH2 0x172B JUMPI PUSH1 0x40 MLOAD PUSH3 0x461BCD PUSH1 0xE5 SHL DUP2 MSTORE PUSH1 0x4 ADD PUSH2 0x930 SWAP1 PUSH2 0x4E02 JUMP JUMPDEST PUSH2 0x1754 PUSH2 0x174A DUP7 PUSH1 0x80 ADD MLOAD PUSH2 0x100 ADD MLOAD CALLVALUE PUSH2 0x246F SWAP1 SWAP2 SWAP1 PUSH4 0xFFFFFFFF AND JUMP JUMPDEST PUSH2 0x290 SLOAD SWAP1 PUSH2 0x29B1 JUMP JUMPDEST PUSH2 0x290 SSTORE POP PUSH2 0x180B JUMP JUMPDEST PUSH2 0x28C SLOAD PUSH1 0x60 DUP6 ADD MLOAD PUSH1 0x20 ADD MLOAD PUSH1 0x1 PUSH1 0x1 PUSH1 0xA0 SHL SUB SWAP1 SWAP2 AND SWAP1 PUSH4 0xB25DD4FC SWAP1 PUSH2 0x1786 DUP8 PUSH2 0x28BD JUMP JUMPDEST DUP7 PUSH1 0x40 MLOAD DUP5 PUSH4 0xFFFFFFFF AND PUSH1 0xE0 SHL DUP2 MSTORE PUSH1 0x4 ADD PUSH2 0x17A5 SWAP4 SWAP3 SWAP2 SWAP1 PUSH2 0x4E49 JUMP JUMPDEST PUSH1 0x0 PUSH1 0x40 MLOAD DUP1 DUP4 SUB DUP2 DUP7 DUP1 EXTCODESIZE ISZERO DUP1 ISZERO PUSH2 0x17BD JUMPI PUSH1 0x0 DUP1 REVERT JUMPDEST POP GAS STATICCALL ISZERO DUP1 ISZERO PUSH2 0x17D1 JUMPI RETURNDATASIZE PUSH1 0x0 DUP1 RETURNDATACOPY RETURNDATASIZE PUSH1 0x0 REVERT JUMPDEST POP POP POP POP PUSH2 0x28F SLOAD CALLVALUE LT ISZERO PUSH2 0x17F8 JUMPI PUSH1 0x40 MLOAD PUSH3 0x461BCD PUSH1 0xE5 SHL DUP2 MSTORE PUSH1 0x4 ADD PUSH2 0x930 SWAP1 PUSH2 0x4E02 JUMP JUMPDEST PUSH2 0x290 SLOAD PUSH2 0x1806 SWAP1 CALLVALUE PUSH2 0x29B1 JUMP JUMPDEST PUSH2 0x290 SSTORE JUMPDEST PUSH2 0x1820 DUP7 PUSH2 0x1818 DUP8 PUSH2 0xA53 JUMP JUMPDEST PUSH1 0x1 DUP6 PUSH2 0x29BD JUMP JUMPDEST PUSH1 0x0 SWAP1 DUP2 MSTORE PUSH2 0x292 PUSH1 0x20 MSTORE PUSH1 0x40 SWAP1 KECCAK256 DUP1 SLOAD PUSH1 0xFF NOT AND PUSH1 0x1 OR SWAP1 SSTORE POP POP POP POP POP JUMP JUMPDEST PUSH2 0x186D PUSH32 0x8F4F2DA22E8AC8F11E15F9FC141CDDBB5DEEA8800186560ABB6E68C5496619A9 PUSH2 0x68D PUSH2 0x1C44 JUMP JUMPDEST PUSH2 0x18D0 JUMPI PUSH1 0x40 MLOAD PUSH3 0x461BCD PUSH1 0xE5 SHL DUP2 MSTORE PUSH1 0x20 PUSH1 0x4 DUP3 ADD MSTORE PUSH1 0x2E PUSH1 0x24 DUP3 ADD MSTORE PUSH32 0x4368696C644D696E7461626C65455243313135353A20494E5355464649434945 PUSH1 0x44 DUP3 ADD MSTORE PUSH14 0x4E545F5045524D495353494F4E53 PUSH1 0x90 SHL PUSH1 0x64 DUP3 ADD MSTORE PUSH1 0x84 ADD PUSH2 0x930 JUMP JUMPDEST PUSH1 0x0 DUP1 DUP1 PUSH2 0x18E0 DUP5 DUP7 ADD DUP7 PUSH2 0x4E70 JUMP JUMPDEST SWAP2 SWAP5 POP SWAP3 POP SWAP1 POP PUSH1 0x1 PUSH1 0x1 PUSH1 0xA0 SHL SUB DUP7 AND PUSH2 0x1950 JUMPI PUSH1 0x40 MLOAD PUSH3 0x461BCD PUSH1 0xE5 SHL DUP2 MSTORE PUSH1 0x20 PUSH1 0x4 DUP3 ADD MSTORE PUSH1 0x2A PUSH1 0x24 DUP3 ADD MSTORE PUSH32 0x4368696C644D696E7461626C65455243313135353A20494E56414C49445F4445 PUSH1 0x44 DUP3 ADD MSTORE PUSH10 0x2827A9A4AA2FAAA9A2A9 PUSH1 0xB1 SHL PUSH1 0x64 DUP3 ADD MSTORE PUSH1 0x84 ADD PUSH2 0x930 JUMP JUMPDEST PUSH2 0x195C DUP7 DUP5 DUP5 DUP5 PUSH2 0x2A98 JUMP JUMPDEST POP POP POP POP POP POP JUMP JUMPDEST PUSH1 0x0 DUP3 DUP2 MSTORE PUSH1 0x65 PUSH1 0x20 MSTORE PUSH1 0x40 SWAP1 KECCAK256 PUSH1 0x1 ADD SLOAD PUSH2 0x197F DUP2 PUSH2 0x1F1E JUMP JUMPDEST PUSH2 0xB1D DUP4 DUP4 PUSH2 0x1F51 JUMP JUMPDEST PUSH2 0x1991 PUSH2 0x1BCB JUMP JUMPDEST PUSH2 0x28E DUP1 SLOAD PUSH1 0x1 PUSH1 0x1 PUSH1 0xA0 SHL SUB NOT AND PUSH1 0x1 PUSH1 0x1 PUSH1 0xA0 SHL SUB DUP4 AND OR SWAP1 SSTORE PUSH1 0x40 MLOAD PUSH32 0xF2E795D4A33AE9A0D3282888375B8AE781EA4DE1CBF101AC96150AA95CCFF0B4 SWAP1 PUSH1 0x0 SWAP1 LOG1 POP JUMP JUMPDEST PUSH2 0x227 SLOAD PUSH1 0x40 MLOAD PUSH4 0x71D4ED8D PUSH1 0xE1 SHL DUP2 MSTORE PUSH1 0x0 SWAP2 PUSH1 0x1 PUSH1 0x1 PUSH1 0xA0 SHL SUB AND SWAP1 PUSH4 0xE3A9DB1A SWAP1 PUSH2 0x1A0B SWAP1 DUP6 SWAP1 PUSH1 0x4 ADD PUSH2 0x438C JUMP JUMPDEST PUSH1 0x20 PUSH1 0x40 MLOAD DUP1 DUP4 SUB DUP2 DUP7 GAS STATICCALL ISZERO DUP1 ISZERO PUSH2 0x1A28 JUMPI RETURNDATASIZE PUSH1 0x0 DUP1 RETURNDATACOPY RETURNDATASIZE PUSH1 0x0 REVERT JUMPDEST POP POP POP POP PUSH1 0x40 MLOAD RETURNDATASIZE PUSH1 0x1F NOT PUSH1 0x1F DUP3 ADD AND DUP3 ADD DUP1 PUSH1 0x40 MSTORE POP DUP2 ADD SWAP1 PUSH2 0x95E SWAP2 SWAP1 PUSH2 0x4EED JUMP JUMPDEST PUSH1 0x60 PUSH2 0x28D DUP1 SLOAD PUSH2 0x1A5C SWAP1 PUSH2 0x49B4 JUMP JUMPDEST DUP1 PUSH1 0x1F ADD PUSH1 0x20 DUP1 SWAP2 DIV MUL PUSH1 0x20 ADD PUSH1 0x40 MLOAD SWAP1 DUP2 ADD PUSH1 0x40 MSTORE DUP1 SWAP3 SWAP2 SWAP1 DUP2 DUP2 MSTORE PUSH1 0x20 ADD DUP3 DUP1 SLOAD PUSH2 0x1A88 SWAP1 PUSH2 0x49B4 JUMP JUMPDEST DUP1 ISZERO PUSH2 0x1AD5 JUMPI DUP1 PUSH1 0x1F LT PUSH2 0x1AAA JUMPI PUSH2 0x100 DUP1 DUP4 SLOAD DIV MUL DUP4 MSTORE SWAP2 PUSH1 0x20 ADD SWAP2 PUSH2 0x1AD5 JUMP JUMPDEST DUP3 ADD SWAP2 SWAP1 PUSH1 0x0 MSTORE PUSH1 0x20 PUSH1 0x0 KECCAK256 SWAP1 JUMPDEST DUP2 SLOAD DUP2 MSTORE SWAP1 PUSH1 0x1 ADD SWAP1 PUSH1 0x20 ADD DUP1 DUP4 GT PUSH2 0x1AB8 JUMPI DUP3 SWAP1 SUB PUSH1 0x1F AND DUP3 ADD SWAP2 JUMPDEST POP POP POP POP POP SWAP1 POP SWAP1 JUMP JUMPDEST PUSH2 0x1AE7 PUSH2 0x1C44 JUMP JUMPDEST PUSH1 0x1 PUSH1 0x1 PUSH1 0xA0 SHL SUB AND DUP6 PUSH1 0x1 PUSH1 0x1 PUSH1 0xA0 SHL SUB AND EQ DUP1 PUSH2 0x1B0D JUMPI POP PUSH2 0x1B0D DUP6 PUSH2 0x89A PUSH2 0x1C44 JUMP JUMPDEST PUSH2 0x1B29 JUMPI PUSH1 0x40 MLOAD PUSH3 0x461BCD PUSH1 0xE5 SHL DUP2 MSTORE PUSH1 0x4 ADD PUSH2 0x930 SWAP1 PUSH2 0x49EF JUMP JUMPDEST PUSH2 0xAF1 DUP6 DUP6 DUP6 DUP6 DUP6 PUSH2 0x2BEC JUMP JUMPDEST PUSH2 0x1B3E PUSH2 0x1C44 JUMP JUMPDEST PUSH1 0x1 PUSH1 0x1 PUSH1 0xA0 SHL SUB AND DUP4 PUSH1 0x1 PUSH1 0x1 PUSH1 0xA0 SHL SUB AND EQ DUP1 PUSH2 0x1B64 JUMPI POP PUSH2 0x1B64 DUP4 PUSH2 0x89A PUSH2 0x1C44 JUMP JUMPDEST PUSH2 0x1B80 JUMPI PUSH1 0x40 MLOAD PUSH3 0x461BCD PUSH1 0xE5 SHL DUP2 MSTORE PUSH1 0x4 ADD PUSH2 0x930 SWAP1 PUSH2 0x49EF JUMP JUMPDEST PUSH2 0xB1D DUP4 DUP4 DUP4 PUSH2 0x1C66 JUMP JUMPDEST PUSH1 0x0 PUSH1 0x1 PUSH1 0x1 PUSH1 0xE0 SHL SUB NOT DUP3 AND PUSH4 0x6CDB3D13 PUSH1 0xE1 SHL EQ DUP1 PUSH2 0x1BBC JUMPI POP PUSH1 0x1 PUSH1 0x1 PUSH1 0xE0 SHL SUB NOT DUP3 AND PUSH4 0x3A24D07 PUSH1 0xE2 SHL EQ JUMPDEST DUP1 PUSH2 0x95E JUMPI POP PUSH2 0x95E DUP3 PUSH2 0x2D21 JUMP JUMPDEST PUSH2 0x1BE5 PUSH1 0x0 DUP1 MLOAD PUSH1 0x20 PUSH2 0x5408 DUP4 CODECOPY DUP2 MLOAD SWAP2 MSTORE PUSH2 0x68D PUSH2 0x1C44 JUMP JUMPDEST PUSH2 0xCE1 JUMPI PUSH1 0x40 MLOAD PUSH3 0x461BCD PUSH1 0xE5 SHL DUP2 MSTORE PUSH1 0x20 PUSH1 0x4 DUP3 ADD DUP2 SWAP1 MSTORE PUSH1 0x24 DUP3 ADD MSTORE PUSH32 0x4B72656269744E46543A206D757374206861766520676F7665726E20726F6C65 PUSH1 0x44 DUP3 ADD MSTORE PUSH1 0x64 ADD PUSH2 0x930 JUMP JUMPDEST DUP1 MLOAD PUSH2 0xA96 SWAP1 PUSH1 0xCB SWAP1 PUSH1 0x20 DUP5 ADD SWAP1 PUSH2 0x3C14 JUMP JUMPDEST PUSH1 0x0 PUSH2 0x1C4F CALLER PUSH2 0xF8D JUMP JUMPDEST ISZERO PUSH2 0x1C61 JUMPI POP PUSH1 0x13 NOT CALLDATASIZE ADD CALLDATALOAD PUSH1 0x60 SHR SWAP1 JUMP JUMPDEST POP CALLER SWAP1 JUMP JUMPDEST PUSH1 0x1 PUSH1 0x1 PUSH1 0xA0 SHL SUB DUP4 AND PUSH2 0x1C8C JUMPI PUSH1 0x40 MLOAD PUSH3 0x461BCD PUSH1 0xE5 SHL DUP2 MSTORE PUSH1 0x4 ADD PUSH2 0x930 SWAP1 PUSH2 0x4F06 JUMP JUMPDEST PUSH1 0x0 PUSH2 0x1C96 PUSH2 0x1C44 JUMP JUMPDEST SWAP1 POP PUSH1 0x0 PUSH2 0x1CA3 DUP5 PUSH2 0x2D46 JUMP JUMPDEST SWAP1 POP PUSH1 0x0 PUSH2 0x1CB0 DUP5 PUSH2 0x2D46 JUMP JUMPDEST SWAP1 POP PUSH2 0x1CD0 DUP4 DUP8 PUSH1 0x0 DUP6 DUP6 PUSH1 0x40 MLOAD DUP1 PUSH1 0x20 ADD PUSH1 0x40 MSTORE DUP1 PUSH1 0x0 DUP2 MSTORE POP PUSH2 0x2D91 JUMP JUMPDEST PUSH1 0x0 DUP6 DUP2 MSTORE PUSH1 0xC9 PUSH1 0x20 SWAP1 DUP2 MSTORE PUSH1 0x40 DUP1 DUP4 KECCAK256 PUSH1 0x1 PUSH1 0x1 PUSH1 0xA0 SHL SUB DUP11 AND DUP5 MSTORE SWAP1 SWAP2 MSTORE SWAP1 KECCAK256 SLOAD DUP5 DUP2 LT ISZERO PUSH2 0x1D13 JUMPI PUSH1 0x40 MLOAD PUSH3 0x461BCD PUSH1 0xE5 SHL DUP2 MSTORE PUSH1 0x4 ADD PUSH2 0x930 SWAP1 PUSH2 0x4F49 JUMP JUMPDEST PUSH1 0x0 DUP7 DUP2 MSTORE PUSH1 0xC9 PUSH1 0x20 SWAP1 DUP2 MSTORE PUSH1 0x40 DUP1 DUP4 KECCAK256 PUSH1 0x1 PUSH1 0x1 PUSH1 0xA0 SHL SUB DUP12 DUP2 AND DUP1 DUP7 MSTORE SWAP2 DUP5 MSTORE DUP3 DUP6 KECCAK256 DUP11 DUP8 SUB SWAP1 SSTORE DUP3 MLOAD DUP12 DUP2 MSTORE SWAP4 DUP5 ADD DUP11 SWAP1 MSTORE SWAP1 SWAP3 SWAP1 DUP9 AND SWAP2 PUSH1 0x0 DUP1 MLOAD PUSH1 0x20 PUSH2 0x53E8 DUP4 CODECOPY DUP2 MLOAD SWAP2 MSTORE SWAP2 ADD PUSH1 0x40 MLOAD DUP1 SWAP2 SUB SWAP1 LOG4 PUSH1 0x40 DUP1 MLOAD PUSH1 0x20 DUP2 ADD SWAP1 SWAP2 MSTORE PUSH1 0x0 SWAP1 MSTORE JUMPDEST POP POP POP POP POP POP POP JUMP JUMPDEST DUP2 MLOAD DUP4 MLOAD EQ PUSH2 0x1DA1 JUMPI PUSH1 0x40 MLOAD PUSH3 0x461BCD PUSH1 0xE5 SHL DUP2 MSTORE PUSH1 0x4 ADD PUSH2 0x930 SWAP1 PUSH2 0x4F8D JUMP JUMPDEST PUSH1 0x1 PUSH1 0x1 PUSH1 0xA0 SHL SUB DUP5 AND PUSH2 0x1DC7 JUMPI PUSH1 0x40 MLOAD PUSH3 0x461BCD PUSH1 0xE5 SHL DUP2 MSTORE PUSH1 0x4 ADD PUSH2 0x930 SWAP1 PUSH2 0x4FD5 JUMP JUMPDEST PUSH1 0x0 PUSH2 0x1DD1 PUSH2 0x1C44 JUMP JUMPDEST SWAP1 POP PUSH2 0x1DE1 DUP2 DUP8 DUP8 DUP8 DUP8 DUP8 PUSH2 0x2D91 JUMP JUMPDEST PUSH1 0x0 JUMPDEST DUP5 MLOAD DUP2 LT ISZERO PUSH2 0x1ECA JUMPI PUSH1 0x0 DUP6 DUP3 DUP2 MLOAD DUP2 LT PUSH2 0x1E01 JUMPI PUSH2 0x1E01 PUSH2 0x4AD5 JUMP JUMPDEST PUSH1 0x20 MUL PUSH1 0x20 ADD ADD MLOAD SWAP1 POP PUSH1 0x0 DUP6 DUP4 DUP2 MLOAD DUP2 LT PUSH2 0x1E1F JUMPI PUSH2 0x1E1F PUSH2 0x4AD5 JUMP JUMPDEST PUSH1 0x20 SWAP1 DUP2 MUL SWAP2 SWAP1 SWAP2 ADD DUP2 ADD MLOAD PUSH1 0x0 DUP5 DUP2 MSTORE PUSH1 0xC9 DUP4 MSTORE PUSH1 0x40 DUP1 DUP3 KECCAK256 PUSH1 0x1 PUSH1 0x1 PUSH1 0xA0 SHL SUB DUP15 AND DUP4 MSTORE SWAP1 SWAP4 MSTORE SWAP2 SWAP1 SWAP2 KECCAK256 SLOAD SWAP1 SWAP2 POP DUP2 DUP2 LT ISZERO PUSH2 0x1E70 JUMPI PUSH1 0x40 MLOAD PUSH3 0x461BCD PUSH1 0xE5 SHL DUP2 MSTORE PUSH1 0x4 ADD PUSH2 0x930 SWAP1 PUSH2 0x501A JUMP JUMPDEST PUSH1 0x0 DUP4 DUP2 MSTORE PUSH1 0xC9 PUSH1 0x20 SWAP1 DUP2 MSTORE PUSH1 0x40 DUP1 DUP4 KECCAK256 PUSH1 0x1 PUSH1 0x1 PUSH1 0xA0 SHL SUB DUP15 DUP2 AND DUP6 MSTORE SWAP3 MSTORE DUP1 DUP4 KECCAK256 DUP6 DUP6 SUB SWAP1 SSTORE SWAP1 DUP12 AND DUP3 MSTORE DUP2 KECCAK256 DUP1 SLOAD DUP5 SWAP3 SWAP1 PUSH2 0x1EAF SWAP1 DUP5 SWAP1 PUSH2 0x5064 JUMP JUMPDEST SWAP3 POP POP DUP2 SWAP1 SSTORE POP POP POP POP DUP1 PUSH2 0x1EC3 SWAP1 PUSH2 0x4B01 JUMP JUMPDEST SWAP1 POP PUSH2 0x1DE4 JUMP JUMPDEST POP DUP5 PUSH1 0x1 PUSH1 0x1 PUSH1 0xA0 SHL SUB AND DUP7 PUSH1 0x1 PUSH1 0x1 PUSH1 0xA0 SHL SUB AND DUP3 PUSH1 0x1 PUSH1 0x1 PUSH1 0xA0 SHL SUB AND PUSH1 0x0 DUP1 MLOAD PUSH1 0x20 PUSH2 0x53C8 DUP4 CODECOPY DUP2 MLOAD SWAP2 MSTORE DUP8 DUP8 PUSH1 0x40 MLOAD PUSH2 0x1F08 SWAP3 SWAP2 SWAP1 PUSH2 0x507C JUMP JUMPDEST PUSH1 0x40 MLOAD DUP1 SWAP2 SUB SWAP1 LOG4 PUSH2 0x195C DUP2 DUP8 DUP8 DUP8 DUP8 DUP8 PUSH2 0x2E3C JUMP JUMPDEST PUSH2 0x980 DUP2 PUSH2 0x1F2A PUSH2 0x1C44 JUMP JUMPDEST PUSH2 0x2F9F JUMP JUMPDEST PUSH2 0x1F39 DUP3 DUP3 PUSH2 0x2FF8 JUMP JUMPDEST PUSH1 0x0 DUP3 DUP2 MSTORE PUSH1 0x97 PUSH1 0x20 MSTORE PUSH1 0x40 SWAP1 KECCAK256 PUSH2 0xB1D SWAP1 DUP3 PUSH2 0x307F JUMP JUMPDEST PUSH2 0x1F5B DUP3 DUP3 PUSH2 0x3094 JUMP JUMPDEST PUSH1 0x0 DUP3 DUP2 MSTORE PUSH1 0x97 PUSH1 0x20 MSTORE PUSH1 0x40 SWAP1 KECCAK256 PUSH2 0xB1D SWAP1 DUP3 PUSH2 0x3119 JUMP JUMPDEST PUSH1 0x0 DUP1 MLOAD PUSH1 0x20 PUSH2 0x5428 DUP4 CODECOPY DUP2 MLOAD SWAP2 MSTORE SLOAD PUSH1 0x1 PUSH1 0x1 PUSH1 0xA0 SHL SUB AND SWAP1 JUMP JUMPDEST PUSH2 0x980 PUSH2 0x1BCB JUMP JUMPDEST PUSH32 0x4910FDFA16FED3260ED0E7147F7CC6DA11A60208B5B9406D12A635614FFD9143 SLOAD PUSH1 0xFF AND ISZERO PUSH2 0x1FCA JUMPI PUSH2 0xB1D DUP4 PUSH2 0x312E JUMP JUMPDEST DUP3 PUSH1 0x1 PUSH1 0x1 PUSH1 0xA0 SHL SUB AND PUSH4 0x52D1902D PUSH1 0x40 MLOAD DUP2 PUSH4 0xFFFFFFFF AND PUSH1 0xE0 SHL DUP2 MSTORE PUSH1 0x4 ADD PUSH1 0x20 PUSH1 0x40 MLOAD DUP1 DUP4 SUB DUP2 DUP7 GAS STATICCALL SWAP3 POP POP POP DUP1 ISZERO PUSH2 0x2024 JUMPI POP PUSH1 0x40 DUP1 MLOAD PUSH1 0x1F RETURNDATASIZE SWAP1 DUP2 ADD PUSH1 0x1F NOT AND DUP3 ADD SWAP1 SWAP3 MSTORE PUSH2 0x2021 SWAP2 DUP2 ADD SWAP1 PUSH2 0x4EED JUMP JUMPDEST PUSH1 0x1 JUMPDEST PUSH2 0x2087 JUMPI PUSH1 0x40 MLOAD PUSH3 0x461BCD PUSH1 0xE5 SHL DUP2 MSTORE PUSH1 0x20 PUSH1 0x4 DUP3 ADD MSTORE PUSH1 0x2E PUSH1 0x24 DUP3 ADD MSTORE PUSH32 0x45524331393637557067726164653A206E657720696D706C656D656E74617469 PUSH1 0x44 DUP3 ADD MSTORE PUSH14 0x6F6E206973206E6F742055555053 PUSH1 0x90 SHL PUSH1 0x64 DUP3 ADD MSTORE PUSH1 0x84 ADD PUSH2 0x930 JUMP JUMPDEST PUSH1 0x0 DUP1 MLOAD PUSH1 0x20 PUSH2 0x5428 DUP4 CODECOPY DUP2 MLOAD SWAP2 MSTORE DUP2 EQ PUSH2 0x20F6 JUMPI PUSH1 0x40 MLOAD PUSH3 0x461BCD PUSH1 0xE5 SHL DUP2 MSTORE PUSH1 0x20 PUSH1 0x4 DUP3 ADD MSTORE PUSH1 0x29 PUSH1 0x24 DUP3 ADD MSTORE PUSH32 0x45524331393637557067726164653A20756E737570706F727465642070726F78 PUSH1 0x44 DUP3 ADD MSTORE PUSH9 0x1A58589B1955555251 PUSH1 0xBA SHL PUSH1 0x64 DUP3 ADD MSTORE PUSH1 0x84 ADD PUSH2 0x930 JUMP JUMPDEST POP PUSH2 0xB1D DUP4 DUP4 DUP4 PUSH2 0x31C8 JUMP JUMPDEST PUSH2 0x210A PUSH2 0x31ED JUMP JUMPDEST PUSH1 0xFB DUP1 SLOAD PUSH1 0xFF NOT AND SWAP1 SSTORE PUSH32 0x5DB9EE0A495BF2E6FF9C91A7834C1BA4FDD244A5E8AA4E537BD38AEAE4B073AA PUSH2 0x213D PUSH2 0x1C44 JUMP JUMPDEST PUSH1 0x40 MLOAD PUSH2 0x214A SWAP2 SWAP1 PUSH2 0x438C JUMP JUMPDEST PUSH1 0x40 MLOAD DUP1 SWAP2 SUB SWAP1 LOG1 JUMP JUMPDEST PUSH1 0x1 PUSH1 0x1 PUSH1 0xA0 SHL SUB DUP4 AND PUSH2 0x217A JUMPI PUSH1 0x40 MLOAD PUSH3 0x461BCD PUSH1 0xE5 SHL DUP2 MSTORE PUSH1 0x4 ADD PUSH2 0x930 SWAP1 PUSH2 0x4F06 JUMP JUMPDEST DUP1 MLOAD DUP3 MLOAD EQ PUSH2 0x219B JUMPI PUSH1 0x40 MLOAD PUSH3 0x461BCD PUSH1 0xE5 SHL DUP2 MSTORE PUSH1 0x4 ADD PUSH2 0x930 SWAP1 PUSH2 0x4F8D JUMP JUMPDEST PUSH1 0x0 PUSH2 0x21A5 PUSH2 0x1C44 JUMP JUMPDEST SWAP1 POP PUSH2 0x21C5 DUP2 DUP6 PUSH1 0x0 DUP7 DUP7 PUSH1 0x40 MLOAD DUP1 PUSH1 0x20 ADD PUSH1 0x40 MSTORE DUP1 PUSH1 0x0 DUP2 MSTORE POP PUSH2 0x2D91 JUMP JUMPDEST PUSH1 0x0 JUMPDEST DUP4 MLOAD DUP2 LT ISZERO PUSH2 0x228D JUMPI PUSH1 0x0 DUP5 DUP3 DUP2 MLOAD DUP2 LT PUSH2 0x21E5 JUMPI PUSH2 0x21E5 PUSH2 0x4AD5 JUMP JUMPDEST PUSH1 0x20 MUL PUSH1 0x20 ADD ADD MLOAD SWAP1 POP PUSH1 0x0 DUP5 DUP4 DUP2 MLOAD DUP2 LT PUSH2 0x2203 JUMPI PUSH2 0x2203 PUSH2 0x4AD5 JUMP JUMPDEST PUSH1 0x20 SWAP1 DUP2 MUL SWAP2 SWAP1 SWAP2 ADD DUP2 ADD MLOAD PUSH1 0x0 DUP5 DUP2 MSTORE PUSH1 0xC9 DUP4 MSTORE PUSH1 0x40 DUP1 DUP3 KECCAK256 PUSH1 0x1 PUSH1 0x1 PUSH1 0xA0 SHL SUB DUP13 AND DUP4 MSTORE SWAP1 SWAP4 MSTORE SWAP2 SWAP1 SWAP2 KECCAK256 SLOAD SWAP1 SWAP2 POP DUP2 DUP2 LT ISZERO PUSH2 0x2254 JUMPI PUSH1 0x40 MLOAD PUSH3 0x461BCD PUSH1 0xE5 SHL DUP2 MSTORE PUSH1 0x4 ADD PUSH2 0x930 SWAP1 PUSH2 0x4F49 JUMP JUMPDEST PUSH1 0x0 SWAP3 DUP4 MSTORE PUSH1 0xC9 PUSH1 0x20 SWAP1 DUP2 MSTORE PUSH1 0x40 DUP1 DUP6 KECCAK256 PUSH1 0x1 PUSH1 0x1 PUSH1 0xA0 SHL SUB DUP12 AND DUP7 MSTORE SWAP1 SWAP2 MSTORE SWAP1 SWAP3 KECCAK256 SWAP2 SUB SWAP1 SSTORE DUP1 PUSH2 0x2285 DUP2 PUSH2 0x4B01 JUMP JUMPDEST SWAP2 POP POP PUSH2 0x21C8 JUMP JUMPDEST POP PUSH1 0x0 PUSH1 0x1 PUSH1 0x1 PUSH1 0xA0 SHL SUB AND DUP5 PUSH1 0x1 PUSH1 0x1 PUSH1 0xA0 SHL SUB AND DUP3 PUSH1 0x1 PUSH1 0x1 PUSH1 0xA0 SHL SUB AND PUSH1 0x0 DUP1 MLOAD PUSH1 0x20 PUSH2 0x53C8 DUP4 CODECOPY DUP2 MLOAD SWAP2 MSTORE DUP7 DUP7 PUSH1 0x40 MLOAD PUSH2 0x22CC SWAP3 SWAP2 SWAP1 PUSH2 0x507C JUMP JUMPDEST PUSH1 0x40 MLOAD DUP1 SWAP2 SUB SWAP1 LOG4 PUSH1 0x40 DUP1 MLOAD PUSH1 0x20 DUP2 ADD SWAP1 SWAP2 MSTORE PUSH1 0x0 SWAP1 MSTORE PUSH2 0x1017 JUMP JUMPDEST PUSH2 0x22F0 PUSH2 0x2591 JUMP JUMPDEST PUSH1 0xFB DUP1 SLOAD PUSH1 0xFF NOT AND PUSH1 0x1 OR SWAP1 SSTORE PUSH32 0x62E78CEA01BEE320CD4E420270B5EA74000D11B0C9F74754EBDBFC544B05A258 PUSH2 0x213D PUSH2 0x1C44 JUMP JUMPDEST PUSH1 0x0 PUSH2 0x9B8 DUP4 DUP4 PUSH2 0x3236 JUMP JUMPDEST DUP2 PUSH1 0x1 PUSH1 0x1 PUSH1 0xA0 SHL SUB AND DUP4 PUSH1 0x1 PUSH1 0x1 PUSH1 0xA0 SHL SUB AND EQ ISZERO PUSH2 0x23A6 JUMPI PUSH1 0x40 MLOAD PUSH3 0x461BCD PUSH1 0xE5 SHL DUP2 MSTORE PUSH1 0x20 PUSH1 0x4 DUP3 ADD MSTORE PUSH1 0x29 PUSH1 0x24 DUP3 ADD MSTORE PUSH32 0x455243313135353A2073657474696E6720617070726F76616C20737461747573 PUSH1 0x44 DUP3 ADD MSTORE PUSH9 0x103337B91039B2B633 PUSH1 0xB9 SHL PUSH1 0x64 DUP3 ADD MSTORE PUSH1 0x84 ADD PUSH2 0x930 JUMP JUMPDEST PUSH1 0x1 PUSH1 0x1 PUSH1 0xA0 SHL SUB DUP4 DUP2 AND PUSH1 0x0 DUP2 DUP2 MSTORE PUSH1 0xCA PUSH1 0x20 SWAP1 DUP2 MSTORE PUSH1 0x40 DUP1 DUP4 KECCAK256 SWAP5 DUP8 AND DUP1 DUP5 MSTORE SWAP5 DUP3 MSTORE SWAP2 DUP3 SWAP1 KECCAK256 DUP1 SLOAD PUSH1 0xFF NOT AND DUP7 ISZERO ISZERO SWAP1 DUP2 OR SWAP1 SWAP2 SSTORE SWAP2 MLOAD SWAP2 DUP3 MSTORE PUSH32 0x17307EAB39AB6107E8899845AD3D59BD9653F200F220920489CA2B5937696C31 SWAP2 ADD PUSH1 0x40 MLOAD DUP1 SWAP2 SUB SWAP1 LOG3 POP POP POP JUMP JUMPDEST PUSH1 0x2 PUSH2 0x25A SLOAD EQ ISZERO PUSH2 0x2467 JUMPI PUSH1 0x40 MLOAD PUSH3 0x461BCD PUSH1 0xE5 SHL DUP2 MSTORE PUSH1 0x20 PUSH1 0x4 DUP3 ADD MSTORE PUSH1 0x1F PUSH1 0x24 DUP3 ADD MSTORE PUSH32 0x5265656E7472616E637947756172643A207265656E7472616E742063616C6C00 PUSH1 0x44 DUP3 ADD MSTORE PUSH1 0x64 ADD PUSH2 0x930 JUMP JUMPDEST PUSH1 0x2 PUSH2 0x25A SSTORE JUMP JUMPDEST PUSH1 0x0 PUSH2 0x9B8 DUP3 DUP5 PUSH2 0x50A1 JUMP JUMPDEST PUSH2 0x227 SLOAD PUSH1 0x40 MLOAD PUSH4 0xF340FA01 PUSH1 0xE0 SHL DUP2 MSTORE PUSH1 0x1 PUSH1 0x1 PUSH1 0xA0 SHL SUB SWAP1 SWAP2 AND SWAP1 PUSH4 0xF340FA01 SWAP1 DUP4 SWAP1 PUSH2 0x24AE SWAP1 DUP7 SWAP1 PUSH1 0x4 ADD PUSH2 0x438C JUMP JUMPDEST PUSH1 0x0 PUSH1 0x40 MLOAD DUP1 DUP4 SUB DUP2 DUP6 DUP9 DUP1 EXTCODESIZE ISZERO DUP1 ISZERO PUSH2 0x24C7 JUMPI PUSH1 0x0 DUP1 REVERT JUMPDEST POP GAS CALL ISZERO DUP1 ISZERO PUSH2 0x1D77 JUMPI RETURNDATASIZE PUSH1 0x0 DUP1 RETURNDATACOPY RETURNDATASIZE PUSH1 0x0 REVERT JUMPDEST PUSH1 0x1 PUSH1 0x1 PUSH1 0xA0 SHL SUB AND EXTCODESIZE ISZERO ISZERO SWAP1 JUMP JUMPDEST PUSH1 0x0 SLOAD PUSH2 0x100 SWAP1 DIV PUSH1 0xFF AND PUSH2 0x2511 JUMPI PUSH1 0x40 MLOAD PUSH3 0x461BCD PUSH1 0xE5 SHL DUP2 MSTORE PUSH1 0x4 ADD PUSH2 0x930 SWAP1 PUSH2 0x50B8 JUMP JUMPDEST PUSH2 0x251A DUP5 PUSH2 0x3260 JUMP JUMPDEST PUSH2 0x2522 PUSH2 0x3287 JUMP JUMPDEST PUSH2 0x252A PUSH2 0x32AE JUMP JUMPDEST PUSH2 0x2532 PUSH2 0x3287 JUMP JUMPDEST PUSH2 0x253A PUSH2 0x3287 JUMP JUMPDEST PUSH2 0x28C DUP1 SLOAD PUSH1 0x1 PUSH1 0x1 PUSH1 0xA0 SHL SUB NOT AND PUSH1 0x1 PUSH1 0x1 PUSH1 0xA0 SHL SUB DUP4 AND OR SWAP1 SSTORE DUP3 MLOAD PUSH2 0x256A SWAP1 PUSH2 0x28D SWAP1 PUSH1 0x20 DUP7 ADD SWAP1 PUSH2 0x3C14 JUMP JUMPDEST POP PUSH2 0x28F DUP3 SWAP1 SSTORE PUSH2 0x291 DUP1 SLOAD PUSH1 0xFF NOT AND PUSH1 0x1 OR SWAP1 SSTORE PUSH2 0x1017 PUSH2 0x32E1 JUMP JUMPDEST PUSH1 0x0 PUSH2 0x95E DUP3 SLOAD SWAP1 JUMP JUMPDEST PUSH1 0xFB SLOAD PUSH1 0xFF AND ISZERO PUSH2 0xCE1 JUMPI PUSH1 0x40 MLOAD PUSH3 0x461BCD PUSH1 0xE5 SHL DUP2 MSTORE PUSH1 0x20 PUSH1 0x4 DUP3 ADD MSTORE PUSH1 0x10 PUSH1 0x24 DUP3 ADD MSTORE PUSH16 0x14185D5CD8589B194E881C185D5CD959 PUSH1 0x82 SHL PUSH1 0x44 DUP3 ADD MSTORE PUSH1 0x64 ADD PUSH2 0x930 JUMP JUMPDEST PUSH1 0x60 DUP2 ADD MLOAD PUSH1 0x20 ADD MLOAD PUSH1 0x1 PUSH1 0x1 PUSH1 0xA0 SHL SUB AND PUSH2 0x2635 JUMPI PUSH1 0x40 MLOAD PUSH3 0x461BCD PUSH1 0xE5 SHL DUP2 MSTORE PUSH1 0x20 PUSH1 0x4 DUP3 ADD MSTORE PUSH1 0x1C PUSH1 0x24 DUP3 ADD MSTORE PUSH32 0x4B5242546F6B656E3A2062616420697373756572206164647265737300000000 PUSH1 0x44 DUP3 ADD MSTORE PUSH1 0x64 ADD PUSH2 0x930 JUMP JUMPDEST PUSH1 0x80 DUP2 ADD MLOAD PUSH1 0x20 ADD MLOAD PUSH1 0x1 PUSH1 0x1 PUSH1 0xA0 SHL SUB AND PUSH2 0x26A3 JUMPI PUSH1 0x40 MLOAD PUSH3 0x461BCD PUSH1 0xE5 SHL DUP2 MSTORE PUSH1 0x20 PUSH1 0x4 DUP3 ADD MSTORE PUSH1 0x27 PUSH1 0x24 DUP3 ADD MSTORE PUSH32 0x4B5242546F6B656E3A206261642063726564656E7469616C5375626A65637420 PUSH1 0x44 DUP3 ADD MSTORE PUSH7 0x61646472657373 PUSH1 0xC8 SHL PUSH1 0x64 DUP3 ADD MSTORE PUSH1 0x84 ADD PUSH2 0x930 JUMP JUMPDEST PUSH1 0x80 DUP2 ADD MLOAD MLOAD PUSH1 0x40 MLOAD PUSH2 0x26B9 SWAP2 SWAP1 PUSH1 0x20 ADD PUSH2 0x3F63 JUMP JUMPDEST PUSH1 0x40 DUP1 MLOAD PUSH1 0x1F NOT DUP2 DUP5 SUB ADD DUP2 MSTORE SWAP1 DUP3 SWAP1 MSTORE DUP1 MLOAD PUSH1 0x20 SWAP2 DUP3 ADD KECCAK256 PUSH1 0x60 DUP5 ADD MLOAD MLOAD SWAP1 SWAP3 PUSH2 0x26E4 SWAP3 ADD PUSH2 0x3F63 JUMP JUMPDEST PUSH1 0x40 MLOAD PUSH1 0x20 DUP2 DUP4 SUB SUB DUP2 MSTORE SWAP1 PUSH1 0x40 MSTORE DUP1 MLOAD SWAP1 PUSH1 0x20 ADD KECCAK256 EQ ISZERO PUSH2 0x2766 JUMPI PUSH1 0x40 MLOAD PUSH3 0x461BCD PUSH1 0xE5 SHL DUP2 MSTORE PUSH1 0x20 PUSH1 0x4 DUP3 ADD MSTORE PUSH1 0x35 PUSH1 0x24 DUP3 ADD MSTORE PUSH32 0x4B5242546F6B656E3A2069737375657220444944206973207468652073616D65 PUSH1 0x44 DUP3 ADD MSTORE PUSH21 0x8185CC818DC9959195B9D1A585B14DD589A9958DD PUSH1 0x5A SHL PUSH1 0x64 DUP3 ADD MSTORE PUSH1 0x84 ADD PUSH2 0x930 JUMP JUMPDEST DUP1 PUSH1 0x80 ADD MLOAD PUSH1 0x20 ADD MLOAD PUSH1 0x1 PUSH1 0x1 PUSH1 0xA0 SHL SUB AND DUP2 PUSH1 0x60 ADD MLOAD PUSH1 0x20 ADD MLOAD PUSH1 0x1 PUSH1 0x1 PUSH1 0xA0 SHL SUB AND EQ ISZERO PUSH2 0x27FA JUMPI PUSH1 0x40 MLOAD PUSH3 0x461BCD PUSH1 0xE5 SHL DUP2 MSTORE PUSH1 0x20 PUSH1 0x4 DUP3 ADD MSTORE PUSH1 0x39 PUSH1 0x24 DUP3 ADD MSTORE PUSH32 0x4B5242546F6B656E3A2069737375657220616464726573732069732074686520 PUSH1 0x44 DUP3 ADD MSTORE PUSH25 0x1CD85B5948185CC818DC9959195B9D1A585B14DD589A9958DD PUSH1 0x3A SHL PUSH1 0x64 DUP3 ADD MSTORE PUSH1 0x84 ADD PUSH2 0x930 JUMP JUMPDEST DUP1 PUSH1 0x80 ADD MLOAD PUSH2 0x120 ADD MLOAD TIMESTAMP GT PUSH2 0x2865 JUMPI PUSH1 0x40 MLOAD PUSH3 0x461BCD PUSH1 0xE5 SHL DUP2 MSTORE PUSH1 0x20 PUSH1 0x4 DUP3 ADD MSTORE PUSH1 0x2A PUSH1 0x24 DUP3 ADD MSTORE PUSH32 0x4B5242546F6B656E3A2056432069737375616E63654461746520697320696E20 PUSH1 0x44 DUP3 ADD MSTORE PUSH10 0x74686520667574757265 PUSH1 0xB0 SHL PUSH1 0x64 DUP3 ADD MSTORE PUSH1 0x84 ADD PUSH2 0x930 JUMP JUMPDEST DUP1 PUSH1 0x80 ADD MLOAD PUSH2 0x140 ADD MLOAD TIMESTAMP LT PUSH2 0x980 JUMPI PUSH1 0x40 MLOAD PUSH3 0x461BCD PUSH1 0xE5 SHL DUP2 MSTORE PUSH1 0x20 PUSH1 0x4 DUP3 ADD DUP2 SWAP1 MSTORE PUSH1 0x24 DUP3 ADD MSTORE PUSH32 0x4B5242546F6B656E3A2056432068617320616C72656164792065787069726564 PUSH1 0x44 DUP3 ADD MSTORE PUSH1 0x64 ADD PUSH2 0x930 JUMP JUMPDEST PUSH1 0x0 PUSH32 0x63C4847AA3662952B34B8F76F3ABC371C24535EE34FCE5B3DF34D029DB924D4E PUSH1 0x0 SHL DUP3 PUSH1 0x0 ADD MLOAD DUP1 MLOAD SWAP1 PUSH1 0x20 ADD KECCAK256 DUP4 PUSH1 0x20 ADD MLOAD DUP1 MLOAD SWAP1 PUSH1 0x20 ADD KECCAK256 DUP5 PUSH1 0x40 ADD MLOAD DUP1 MLOAD SWAP1 PUSH1 0x20 ADD KECCAK256 PUSH2 0x2914 DUP7 PUSH1 0x60 ADD MLOAD PUSH2 0x3334 JUMP JUMPDEST PUSH2 0x2921 DUP8 PUSH1 0x80 ADD MLOAD PUSH2 0x338D JUMP JUMPDEST PUSH2 0x292E DUP9 PUSH1 0xA0 ADD MLOAD PUSH2 0x3486 JUMP JUMPDEST PUSH1 0xC0 DUP10 ADD MLOAD DUP1 MLOAD PUSH1 0x20 SWAP2 DUP3 ADD KECCAK256 PUSH1 0xE0 DUP12 ADD MLOAD DUP1 MLOAD SWAP1 DUP4 ADD KECCAK256 PUSH1 0x40 MLOAD PUSH2 0x2994 SWAP11 SWAP10 SWAP9 SWAP8 SWAP7 SWAP6 SWAP5 SWAP4 ADD SWAP9 DUP10 MSTORE PUSH1 0x20 DUP10 ADD SWAP8 SWAP1 SWAP8 MSTORE PUSH1 0x40 DUP9 ADD SWAP6 SWAP1 SWAP6 MSTORE PUSH1 0x60 DUP8 ADD SWAP4 SWAP1 SWAP4 MSTORE PUSH1 0x80 DUP7 ADD SWAP2 SWAP1 SWAP2 MSTORE PUSH1 0xA0 DUP6 ADD MSTORE PUSH1 0xC0 DUP5 ADD MSTORE PUSH1 0xE0 DUP4 ADD MSTORE PUSH2 0x100 DUP3 ADD MSTORE PUSH2 0x120 ADD SWAP1 JUMP JUMPDEST PUSH1 0x40 MLOAD PUSH1 0x20 DUP2 DUP4 SUB SUB DUP2 MSTORE SWAP1 PUSH1 0x40 MSTORE DUP1 MLOAD SWAP1 PUSH1 0x20 ADD KECCAK256 SWAP1 POP SWAP2 SWAP1 POP JUMP JUMPDEST PUSH1 0x0 PUSH2 0x9B8 DUP3 DUP5 PUSH2 0x5064 JUMP JUMPDEST PUSH1 0x1 PUSH1 0x1 PUSH1 0xA0 SHL SUB DUP5 AND PUSH2 0x29E3 JUMPI PUSH1 0x40 MLOAD PUSH3 0x461BCD PUSH1 0xE5 SHL DUP2 MSTORE PUSH1 0x4 ADD PUSH2 0x930 SWAP1 PUSH2 0x5103 JUMP JUMPDEST PUSH1 0x0 PUSH2 0x29ED PUSH2 0x1C44 JUMP JUMPDEST SWAP1 POP PUSH1 0x0 PUSH2 0x29FA DUP6 PUSH2 0x2D46 JUMP JUMPDEST SWAP1 POP PUSH1 0x0 PUSH2 0x2A07 DUP6 PUSH2 0x2D46 JUMP JUMPDEST SWAP1 POP PUSH2 0x2A18 DUP4 PUSH1 0x0 DUP10 DUP6 DUP6 DUP10 PUSH2 0x2D91 JUMP JUMPDEST PUSH1 0x0 DUP7 DUP2 MSTORE PUSH1 0xC9 PUSH1 0x20 SWAP1 DUP2 MSTORE PUSH1 0x40 DUP1 DUP4 KECCAK256 PUSH1 0x1 PUSH1 0x1 PUSH1 0xA0 SHL SUB DUP12 AND DUP5 MSTORE SWAP1 SWAP2 MSTORE DUP2 KECCAK256 DUP1 SLOAD DUP8 SWAP3 SWAP1 PUSH2 0x2A4A SWAP1 DUP5 SWAP1 PUSH2 0x5064 JUMP JUMPDEST SWAP1 SWAP2 SSTORE POP POP PUSH1 0x40 DUP1 MLOAD DUP8 DUP2 MSTORE PUSH1 0x20 DUP2 ADD DUP8 SWAP1 MSTORE PUSH1 0x1 PUSH1 0x1 PUSH1 0xA0 SHL SUB DUP1 DUP11 AND SWAP3 PUSH1 0x0 SWAP3 SWAP2 DUP8 AND SWAP2 PUSH1 0x0 DUP1 MLOAD PUSH1 0x20 PUSH2 0x53E8 DUP4 CODECOPY DUP2 MLOAD SWAP2 MSTORE SWAP2 ADD PUSH1 0x40 MLOAD DUP1 SWAP2 SUB SWAP1 LOG4 PUSH2 0x1D77 DUP4 PUSH1 0x0 DUP10 DUP10 DUP10 DUP10 PUSH2 0x34DC JUMP JUMPDEST PUSH1 0x1 PUSH1 0x1 PUSH1 0xA0 SHL SUB DUP5 AND PUSH2 0x2ABE JUMPI PUSH1 0x40 MLOAD PUSH3 0x461BCD PUSH1 0xE5 SHL DUP2 MSTORE PUSH1 0x4 ADD PUSH2 0x930 SWAP1 PUSH2 0x5103 JUMP JUMPDEST DUP2 MLOAD DUP4 MLOAD EQ PUSH2 0x2ADF JUMPI PUSH1 0x40 MLOAD PUSH3 0x461BCD PUSH1 0xE5 SHL DUP2 MSTORE PUSH1 0x4 ADD PUSH2 0x930 SWAP1 PUSH2 0x4F8D JUMP JUMPDEST PUSH1 0x0 PUSH2 0x2AE9 PUSH2 0x1C44 JUMP JUMPDEST SWAP1 POP PUSH2 0x2AFA DUP2 PUSH1 0x0 DUP8 DUP8 DUP8 DUP8 PUSH2 0x2D91 JUMP JUMPDEST PUSH1 0x0 JUMPDEST DUP5 MLOAD DUP2 LT ISZERO PUSH2 0x2B96 JUMPI DUP4 DUP2 DUP2 MLOAD DUP2 LT PUSH2 0x2B18 JUMPI PUSH2 0x2B18 PUSH2 0x4AD5 JUMP JUMPDEST PUSH1 0x20 MUL PUSH1 0x20 ADD ADD MLOAD PUSH1 0xC9 PUSH1 0x0 DUP8 DUP5 DUP2 MLOAD DUP2 LT PUSH2 0x2B36 JUMPI PUSH2 0x2B36 PUSH2 0x4AD5 JUMP JUMPDEST PUSH1 0x20 MUL PUSH1 0x20 ADD ADD MLOAD DUP2 MSTORE PUSH1 0x20 ADD SWAP1 DUP2 MSTORE PUSH1 0x20 ADD PUSH1 0x0 KECCAK256 PUSH1 0x0 DUP9 PUSH1 0x1 PUSH1 0x1 PUSH1 0xA0 SHL SUB AND PUSH1 0x1 PUSH1 0x1 PUSH1 0xA0 SHL SUB AND DUP2 MSTORE PUSH1 0x20 ADD SWAP1 DUP2 MSTORE PUSH1 0x20 ADD PUSH1 0x0 KECCAK256 PUSH1 0x0 DUP3 DUP3 SLOAD PUSH2 0x2B7E SWAP2 SWAP1 PUSH2 0x5064 JUMP JUMPDEST SWAP1 SWAP2 SSTORE POP DUP2 SWAP1 POP PUSH2 0x2B8E DUP2 PUSH2 0x4B01 JUMP JUMPDEST SWAP2 POP POP PUSH2 0x2AFD JUMP JUMPDEST POP DUP5 PUSH1 0x1 PUSH1 0x1 PUSH1 0xA0 SHL SUB AND PUSH1 0x0 PUSH1 0x1 PUSH1 0x1 PUSH1 0xA0 SHL SUB AND DUP3 PUSH1 0x1 PUSH1 0x1 PUSH1 0xA0 SHL SUB AND PUSH1 0x0 DUP1 MLOAD PUSH1 0x20 PUSH2 0x53C8 DUP4 CODECOPY DUP2 MLOAD SWAP2 MSTORE DUP8 DUP8 PUSH1 0x40 MLOAD PUSH2 0x2BD5 SWAP3 SWAP2 SWAP1 PUSH2 0x507C JUMP JUMPDEST PUSH1 0x40 MLOAD DUP1 SWAP2 SUB SWAP1 LOG4 PUSH2 0xAF1 DUP2 PUSH1 0x0 DUP8 DUP8 DUP8 DUP8 PUSH2 0x2E3C JUMP JUMPDEST PUSH1 0x1 PUSH1 0x1 PUSH1 0xA0 SHL SUB DUP5 AND PUSH2 0x2C12 JUMPI PUSH1 0x40 MLOAD PUSH3 0x461BCD PUSH1 0xE5 SHL DUP2 MSTORE PUSH1 0x4 ADD PUSH2 0x930 SWAP1 PUSH2 0x4FD5 JUMP JUMPDEST PUSH1 0x0 PUSH2 0x2C1C PUSH2 0x1C44 JUMP JUMPDEST SWAP1 POP PUSH1 0x0 PUSH2 0x2C29 DUP6 PUSH2 0x2D46 JUMP JUMPDEST SWAP1 POP PUSH1 0x0 PUSH2 0x2C36 DUP6 PUSH2 0x2D46 JUMP JUMPDEST SWAP1 POP PUSH2 0x2C46 DUP4 DUP10 DUP10 DUP6 DUP6 DUP10 PUSH2 0x2D91 JUMP JUMPDEST PUSH1 0x0 DUP7 DUP2 MSTORE PUSH1 0xC9 PUSH1 0x20 SWAP1 DUP2 MSTORE PUSH1 0x40 DUP1 DUP4 KECCAK256 PUSH1 0x1 PUSH1 0x1 PUSH1 0xA0 SHL SUB DUP13 AND DUP5 MSTORE SWAP1 SWAP2 MSTORE SWAP1 KECCAK256 SLOAD DUP6 DUP2 LT ISZERO PUSH2 0x2C89 JUMPI PUSH1 0x40 MLOAD PUSH3 0x461BCD PUSH1 0xE5 SHL DUP2 MSTORE PUSH1 0x4 ADD PUSH2 0x930 SWAP1 PUSH2 0x501A JUMP JUMPDEST PUSH1 0x0 DUP8 DUP2 MSTORE PUSH1 0xC9 PUSH1 0x20 SWAP1 DUP2 MSTORE PUSH1 0x40 DUP1 DUP4 KECCAK256 PUSH1 0x1 PUSH1 0x1 PUSH1 0xA0 SHL SUB DUP14 DUP2 AND DUP6 MSTORE SWAP3 MSTORE DUP1 DUP4 KECCAK256 DUP10 DUP6 SUB SWAP1 SSTORE SWAP1 DUP11 AND DUP3 MSTORE DUP2 KECCAK256 DUP1 SLOAD DUP9 SWAP3 SWAP1 PUSH2 0x2CC8 SWAP1 DUP5 SWAP1 PUSH2 0x5064 JUMP JUMPDEST SWAP1 SWAP2 SSTORE POP POP PUSH1 0x40 DUP1 MLOAD DUP9 DUP2 MSTORE PUSH1 0x20 DUP2 ADD DUP9 SWAP1 MSTORE PUSH1 0x1 PUSH1 0x1 PUSH1 0xA0 SHL SUB DUP1 DUP12 AND SWAP3 DUP13 DUP3 AND SWAP3 SWAP2 DUP9 AND SWAP2 PUSH1 0x0 DUP1 MLOAD PUSH1 0x20 PUSH2 0x53E8 DUP4 CODECOPY DUP2 MLOAD SWAP2 MSTORE SWAP2 ADD PUSH1 0x40 MLOAD DUP1 SWAP2 SUB SWAP1 LOG4 PUSH2 0x2D16 DUP5 DUP11 DUP11 DUP11 DUP11 DUP11 PUSH2 0x34DC JUMP JUMPDEST POP POP POP POP POP POP POP POP POP JUMP JUMPDEST PUSH1 0x0 PUSH1 0x1 PUSH1 0x1 PUSH1 0xE0 SHL SUB NOT DUP3 AND PUSH4 0x5A05180F PUSH1 0xE0 SHL EQ DUP1 PUSH2 0x95E JUMPI POP PUSH2 0x95E DUP3 PUSH2 0x359E JUMP JUMPDEST PUSH1 0x40 DUP1 MLOAD PUSH1 0x1 DUP1 DUP3 MSTORE DUP2 DUP4 ADD SWAP1 SWAP3 MSTORE PUSH1 0x60 SWAP2 PUSH1 0x0 SWAP2 SWAP1 PUSH1 0x20 DUP1 DUP4 ADD SWAP1 DUP1 CALLDATASIZE DUP4 CALLDATACOPY ADD SWAP1 POP POP SWAP1 POP DUP3 DUP2 PUSH1 0x0 DUP2 MLOAD DUP2 LT PUSH2 0x2D80 JUMPI PUSH2 0x2D80 PUSH2 0x4AD5 JUMP JUMPDEST PUSH1 0x20 SWAP1 DUP2 MUL SWAP2 SWAP1 SWAP2 ADD ADD MSTORE SWAP3 SWAP2 POP POP JUMP JUMPDEST PUSH2 0x2D99 PUSH2 0x2591 JUMP JUMPDEST PUSH2 0x2DA7 DUP7 DUP7 DUP7 DUP7 DUP7 DUP7 PUSH2 0x35D3 JUMP JUMPDEST PUSH2 0x2DC1 PUSH1 0x0 DUP1 MLOAD PUSH1 0x20 PUSH2 0x5408 DUP4 CODECOPY DUP2 MLOAD SWAP2 MSTORE PUSH2 0x68D PUSH2 0x1C44 JUMP JUMPDEST DUP1 PUSH2 0x2DD3 JUMPI POP PUSH1 0x1 PUSH1 0x1 PUSH1 0xA0 SHL SUB DUP6 AND ISZERO JUMPDEST DUP1 PUSH2 0x2DE5 JUMPI POP PUSH1 0x1 PUSH1 0x1 PUSH1 0xA0 SHL SUB DUP5 AND ISZERO JUMPDEST PUSH2 0x195C JUMPI PUSH1 0x40 MLOAD PUSH3 0x461BCD PUSH1 0xE5 SHL DUP2 MSTORE PUSH1 0x20 PUSH1 0x4 DUP3 ADD MSTORE PUSH1 0x22 PUSH1 0x24 DUP3 ADD MSTORE PUSH32 0x4B72656269744E46543A205472616E7366657273206E6F7420737570706F7274 PUSH1 0x44 DUP3 ADD MSTORE PUSH2 0x1959 PUSH1 0xF2 SHL PUSH1 0x64 DUP3 ADD MSTORE PUSH1 0x84 ADD PUSH2 0x930 JUMP JUMPDEST PUSH2 0x2E4E DUP5 PUSH1 0x1 PUSH1 0x1 PUSH1 0xA0 SHL SUB AND PUSH2 0x24DB JUMP JUMPDEST ISZERO PUSH2 0x195C JUMPI PUSH1 0x40 MLOAD PUSH4 0xBC197C81 PUSH1 0xE0 SHL DUP2 MSTORE PUSH1 0x1 PUSH1 0x1 PUSH1 0xA0 SHL SUB DUP6 AND SWAP1 PUSH4 0xBC197C81 SWAP1 PUSH2 0x2E87 SWAP1 DUP10 SWAP1 DUP10 SWAP1 DUP9 SWAP1 DUP9 SWAP1 DUP9 SWAP1 PUSH1 0x4 ADD PUSH2 0x5144 JUMP JUMPDEST PUSH1 0x20 PUSH1 0x40 MLOAD DUP1 DUP4 SUB DUP2 PUSH1 0x0 DUP8 GAS CALL SWAP3 POP POP POP DUP1 ISZERO PUSH2 0x2EC2 JUMPI POP PUSH1 0x40 DUP1 MLOAD PUSH1 0x1F RETURNDATASIZE SWAP1 DUP2 ADD PUSH1 0x1F NOT AND DUP3 ADD SWAP1 SWAP3 MSTORE PUSH2 0x2EBF SWAP2 DUP2 ADD SWAP1 PUSH2 0x51A2 JUMP JUMPDEST PUSH1 0x1 JUMPDEST PUSH2 0x2F6F JUMPI PUSH2 0x2ECE PUSH2 0x51BF JUMP JUMPDEST DUP1 PUSH4 0x8C379A0 EQ ISZERO PUSH2 0x2F08 JUMPI POP PUSH2 0x2EE3 PUSH2 0x51DA JUMP JUMPDEST DUP1 PUSH2 0x2EEE JUMPI POP PUSH2 0x2F0A JUMP JUMPDEST DUP1 PUSH1 0x40 MLOAD PUSH3 0x461BCD PUSH1 0xE5 SHL DUP2 MSTORE PUSH1 0x4 ADD PUSH2 0x930 SWAP2 SWAP1 PUSH2 0x3F63 JUMP JUMPDEST POP JUMPDEST PUSH1 0x40 MLOAD PUSH3 0x461BCD PUSH1 0xE5 SHL DUP2 MSTORE PUSH1 0x20 PUSH1 0x4 DUP3 ADD MSTORE PUSH1 0x34 PUSH1 0x24 DUP3 ADD MSTORE PUSH32 0x455243313135353A207472616E7366657220746F206E6F6E2D45524331313535 PUSH1 0x44 DUP3 ADD MSTORE PUSH20 0x2932B1B2B4BB32B91034B6B83632B6B2B73A32B9 PUSH1 0x61 SHL PUSH1 0x64 DUP3 ADD MSTORE PUSH1 0x84 ADD PUSH2 0x930 JUMP JUMPDEST PUSH1 0x1 PUSH1 0x1 PUSH1 0xE0 SHL SUB NOT DUP2 AND PUSH4 0xBC197C81 PUSH1 0xE0 SHL EQ PUSH2 0x1D77 JUMPI PUSH1 0x40 MLOAD PUSH3 0x461BCD PUSH1 0xE5 SHL DUP2 MSTORE PUSH1 0x4 ADD PUSH2 0x930 SWAP1 PUSH2 0x5263 JUMP JUMPDEST PUSH2 0x2FA9 DUP3 DUP3 PUSH2 0x10D4 JUMP JUMPDEST PUSH2 0xA96 JUMPI PUSH2 0x2FB6 DUP2 PUSH2 0x375D JUMP JUMPDEST PUSH2 0x2FC1 DUP4 PUSH1 0x20 PUSH2 0x376F JUMP JUMPDEST PUSH1 0x40 MLOAD PUSH1 0x20 ADD PUSH2 0x2FD2 SWAP3 SWAP2 SWAP1 PUSH2 0x52AB JUMP JUMPDEST PUSH1 0x40 DUP1 MLOAD PUSH1 0x1F NOT DUP2 DUP5 SUB ADD DUP2 MSTORE SWAP1 DUP3 SWAP1 MSTORE PUSH3 0x461BCD PUSH1 0xE5 SHL DUP3 MSTORE PUSH2 0x930 SWAP2 PUSH1 0x4 ADD PUSH2 0x3F63 JUMP JUMPDEST PUSH2 0x3002 DUP3 DUP3 PUSH2 0x10D4 JUMP JUMPDEST PUSH2 0xA96 JUMPI PUSH1 0x0 DUP3 DUP2 MSTORE PUSH1 0x65 PUSH1 0x20 SWAP1 DUP2 MSTORE PUSH1 0x40 DUP1 DUP4 KECCAK256 PUSH1 0x1 PUSH1 0x1 PUSH1 0xA0 SHL SUB DUP6 AND DUP5 MSTORE SWAP1 SWAP2 MSTORE SWAP1 KECCAK256 DUP1 SLOAD PUSH1 0xFF NOT AND PUSH1 0x1 OR SWAP1 SSTORE PUSH2 0x303B PUSH2 0x1C44 JUMP JUMPDEST PUSH1 0x1 PUSH1 0x1 PUSH1 0xA0 SHL SUB AND DUP2 PUSH1 0x1 PUSH1 0x1 PUSH1 0xA0 SHL SUB AND DUP4 PUSH32 0x2F8788117E7EFF1D82E926EC794901D17C78024A50270940304540A733656F0D PUSH1 0x40 MLOAD PUSH1 0x40 MLOAD DUP1 SWAP2 SUB SWAP1 LOG4 POP POP JUMP JUMPDEST PUSH1 0x0 PUSH2 0x9B8 DUP4 PUSH1 0x1 PUSH1 0x1 PUSH1 0xA0 SHL SUB DUP5 AND PUSH2 0x390A JUMP JUMPDEST PUSH2 0x309E DUP3 DUP3 PUSH2 0x10D4 JUMP JUMPDEST ISZERO PUSH2 0xA96 JUMPI PUSH1 0x0 DUP3 DUP2 MSTORE PUSH1 0x65 PUSH1 0x20 SWAP1 DUP2 MSTORE PUSH1 0x40 DUP1 DUP4 KECCAK256 PUSH1 0x1 PUSH1 0x1 PUSH1 0xA0 SHL SUB DUP6 AND DUP5 MSTORE SWAP1 SWAP2 MSTORE SWAP1 KECCAK256 DUP1 SLOAD PUSH1 0xFF NOT AND SWAP1 SSTORE PUSH2 0x30D5 PUSH2 0x1C44 JUMP JUMPDEST PUSH1 0x1 PUSH1 0x1 PUSH1 0xA0 SHL SUB AND DUP2 PUSH1 0x1 PUSH1 0x1 PUSH1 0xA0 SHL SUB AND DUP4 PUSH32 0xF6391F5C32D9C69D2A47EA670B442974B53935D1EDC7FD64EB21E047A839171B PUSH1 0x40 MLOAD PUSH1 0x40 MLOAD DUP1 SWAP2 SUB SWAP1 LOG4 POP POP JUMP JUMPDEST PUSH1 0x0 PUSH2 0x9B8 DUP4 PUSH1 0x1 PUSH1 0x1 PUSH1 0xA0 SHL SUB DUP5 AND PUSH2 0x3959 JUMP JUMPDEST PUSH2 0x3137 DUP2 PUSH2 0x24DB JUMP JUMPDEST PUSH2 0x3199 JUMPI PUSH1 0x40 MLOAD PUSH3 0x461BCD PUSH1 0xE5 SHL DUP2 MSTORE PUSH1 0x20 PUSH1 0x4 DUP3 ADD MSTORE PUSH1 0x2D PUSH1 0x24 DUP3 ADD MSTORE PUSH32 0x455243313936373A206E657720696D706C656D656E746174696F6E206973206E PUSH1 0x44 DUP3 ADD MSTORE PUSH13 0x1BDD08184818DBDB9D1C9858DD PUSH1 0x9A SHL PUSH1 0x64 DUP3 ADD MSTORE PUSH1 0x84 ADD PUSH2 0x930 JUMP JUMPDEST PUSH1 0x0 DUP1 MLOAD PUSH1 0x20 PUSH2 0x5428 DUP4 CODECOPY DUP2 MLOAD SWAP2 MSTORE DUP1 SLOAD PUSH1 0x1 PUSH1 0x1 PUSH1 0xA0 SHL SUB NOT AND PUSH1 0x1 PUSH1 0x1 PUSH1 0xA0 SHL SUB SWAP3 SWAP1 SWAP3 AND SWAP2 SWAP1 SWAP2 OR SWAP1 SSTORE JUMP JUMPDEST PUSH2 0x31D1 DUP4 PUSH2 0x3A4C JUMP JUMPDEST PUSH1 0x0 DUP3 MLOAD GT DUP1 PUSH2 0x31DE JUMPI POP DUP1 JUMPDEST ISZERO PUSH2 0xB1D JUMPI PUSH2 0x1017 DUP4 DUP4 PUSH2 0x3A8C JUMP JUMPDEST PUSH1 0xFB SLOAD PUSH1 0xFF AND PUSH2 0xCE1 JUMPI PUSH1 0x40 MLOAD PUSH3 0x461BCD PUSH1 0xE5 SHL DUP2 MSTORE PUSH1 0x20 PUSH1 0x4 DUP3 ADD MSTORE PUSH1 0x14 PUSH1 0x24 DUP3 ADD MSTORE PUSH20 0x14185D5CD8589B194E881B9BDD081C185D5CD959 PUSH1 0x62 SHL PUSH1 0x44 DUP3 ADD MSTORE PUSH1 0x64 ADD PUSH2 0x930 JUMP JUMPDEST PUSH1 0x0 DUP3 PUSH1 0x0 ADD DUP3 DUP2 SLOAD DUP2 LT PUSH2 0x324D JUMPI PUSH2 0x324D PUSH2 0x4AD5 JUMP JUMPDEST SWAP1 PUSH1 0x0 MSTORE PUSH1 0x20 PUSH1 0x0 KECCAK256 ADD SLOAD SWAP1 POP SWAP3 SWAP2 POP POP JUMP JUMPDEST PUSH1 0x0 SLOAD PUSH2 0x100 SWAP1 DIV PUSH1 0xFF AND PUSH2 0x977 JUMPI PUSH1 0x40 MLOAD PUSH3 0x461BCD PUSH1 0xE5 SHL DUP2 MSTORE PUSH1 0x4 ADD PUSH2 0x930 SWAP1 PUSH2 0x50B8 JUMP JUMPDEST PUSH1 0x0 SLOAD PUSH2 0x100 SWAP1 DIV PUSH1 0xFF AND PUSH2 0xCE1 JUMPI PUSH1 0x40 MLOAD PUSH3 0x461BCD PUSH1 0xE5 SHL DUP2 MSTORE PUSH1 0x4 ADD PUSH2 0x930 SWAP1 PUSH2 0x50B8 JUMP JUMPDEST PUSH1 0x0 SLOAD PUSH2 0x100 SWAP1 DIV PUSH1 0xFF AND PUSH2 0x32D5 JUMPI PUSH1 0x40 MLOAD PUSH3 0x461BCD PUSH1 0xE5 SHL DUP2 MSTORE PUSH1 0x4 ADD PUSH2 0x930 SWAP1 PUSH2 0x50B8 JUMP JUMPDEST PUSH1 0xFB DUP1 SLOAD PUSH1 0xFF NOT AND SWAP1 SSTORE JUMP JUMPDEST PUSH1 0x0 SLOAD PUSH2 0x100 SWAP1 DIV PUSH1 0xFF AND PUSH2 0x3308 JUMPI PUSH1 0x40 MLOAD PUSH3 0x461BCD PUSH1 0xE5 SHL DUP2 MSTORE PUSH1 0x4 ADD PUSH2 0x930 SWAP1 PUSH2 0x50B8 JUMP JUMPDEST PUSH2 0x331A PUSH1 0x0 PUSH2 0x3315 PUSH2 0x1C44 JUMP JUMPDEST PUSH2 0x3B7E JUMP JUMPDEST PUSH2 0xCE1 PUSH1 0x0 DUP1 MLOAD PUSH1 0x20 PUSH2 0x5408 DUP4 CODECOPY DUP2 MLOAD SWAP2 MSTORE PUSH2 0x3315 PUSH2 0x1C44 JUMP JUMPDEST DUP1 MLOAD DUP1 MLOAD PUSH1 0x20 SWAP2 DUP3 ADD KECCAK256 DUP2 DUP4 ADD MLOAD PUSH1 0x40 DUP1 MLOAD PUSH32 0xABB691E6E52CEB1FF8B3DF91DC14323057E88EFA3252486ED994FD62706CDFAA SWAP5 DUP2 ADD SWAP5 SWAP1 SWAP5 MSTORE DUP4 ADD SWAP2 SWAP1 SWAP2 MSTORE PUSH1 0x1 PUSH1 0x1 PUSH1 0xA0 SHL SUB AND PUSH1 0x60 DUP3 ADD MSTORE PUSH1 0x0 SWAP1 PUSH1 0x80 ADD PUSH2 0x2994 JUMP JUMPDEST PUSH1 0x0 PUSH32 0x4B87DB6C5998F503AC6519B5A7D74EFCF2A230368DEEAF54DD8BF078DA459FF7 PUSH1 0x0 SHL DUP3 PUSH1 0x0 ADD MLOAD DUP1 MLOAD SWAP1 PUSH1 0x20 ADD KECCAK256 DUP4 PUSH1 0x20 ADD MLOAD DUP5 PUSH1 0x40 ADD MLOAD DUP1 MLOAD SWAP1 PUSH1 0x20 ADD KECCAK256 DUP6 PUSH1 0x60 ADD MLOAD DUP1 MLOAD SWAP1 PUSH1 0x20 ADD KECCAK256 DUP7 PUSH1 0x80 ADD MLOAD DUP1 MLOAD SWAP1 PUSH1 0x20 ADD KECCAK256 DUP8 PUSH1 0xA0 ADD MLOAD DUP1 MLOAD SWAP1 PUSH1 0x20 ADD KECCAK256 DUP9 PUSH1 0xC0 ADD MLOAD DUP10 PUSH1 0xE0 ADD MLOAD DUP11 PUSH2 0x100 ADD MLOAD DUP12 PUSH2 0x120 ADD MLOAD DUP13 PUSH2 0x140 ADD MLOAD PUSH1 0x40 MLOAD PUSH1 0x20 ADD PUSH2 0x2994 SWAP13 SWAP12 SWAP11 SWAP10 SWAP9 SWAP8 SWAP7 SWAP6 SWAP5 SWAP4 SWAP3 SWAP2 SWAP1 SWAP12 DUP13 MSTORE PUSH1 0x20 DUP13 ADD SWAP11 SWAP1 SWAP11 MSTORE PUSH1 0x1 PUSH1 0x1 PUSH1 0xA0 SHL SUB SWAP9 SWAP1 SWAP9 AND PUSH1 0x40 DUP12 ADD MSTORE PUSH1 0x60 DUP11 ADD SWAP7 SWAP1 SWAP7 MSTORE PUSH1 0x80 DUP10 ADD SWAP5 SWAP1 SWAP5 MSTORE PUSH1 0xA0 DUP9 ADD SWAP3 SWAP1 SWAP3 MSTORE PUSH1 0xC0 DUP8 ADD MSTORE PUSH1 0xFF AND PUSH1 0xE0 DUP7 ADD MSTORE PUSH2 0x100 DUP6 ADD MSTORE PUSH2 0x120 DUP5 ADD MSTORE PUSH2 0x140 DUP4 ADD MSTORE PUSH2 0x160 DUP3 ADD MSTORE PUSH2 0x180 ADD SWAP1 JUMP JUMPDEST DUP1 MLOAD DUP1 MLOAD PUSH1 0x20 SWAP2 DUP3 ADD KECCAK256 DUP2 DUP4 ADD MLOAD DUP1 MLOAD SWAP1 DUP4 ADD KECCAK256 PUSH1 0x40 DUP1 MLOAD PUSH32 0x1A58B7C56676B62343F37F4F3603A07AE6DD78BEA300689BCEFEF0F9498C6CC9 SWAP5 DUP2 ADD SWAP5 SWAP1 SWAP5 MSTORE DUP4 ADD SWAP2 SWAP1 SWAP2 MSTORE PUSH1 0x60 DUP3 ADD MSTORE PUSH1 0x0 SWAP1 PUSH1 0x80 ADD PUSH2 0x2994 JUMP JUMPDEST PUSH2 0x34EE DUP5 PUSH1 0x1 PUSH1 0x1 PUSH1 0xA0 SHL SUB AND PUSH2 0x24DB JUMP JUMPDEST ISZERO PUSH2 0x195C JUMPI PUSH1 0x40 MLOAD PUSH4 0xF23A6E61 PUSH1 0xE0 SHL DUP2 MSTORE PUSH1 0x1 PUSH1 0x1 PUSH1 0xA0 SHL SUB DUP6 AND SWAP1 PUSH4 0xF23A6E61 SWAP1 PUSH2 0x3527 SWAP1 DUP10 SWAP1 DUP10 SWAP1 DUP9 SWAP1 DUP9 SWAP1 DUP9 SWAP1 PUSH1 0x4 ADD PUSH2 0x531A JUMP JUMPDEST PUSH1 0x20 PUSH1 0x40 MLOAD DUP1 DUP4 SUB DUP2 PUSH1 0x0 DUP8 GAS CALL SWAP3 POP POP POP DUP1 ISZERO PUSH2 0x3562 JUMPI POP PUSH1 0x40 DUP1 MLOAD PUSH1 0x1F RETURNDATASIZE SWAP1 DUP2 ADD PUSH1 0x1F NOT AND DUP3 ADD SWAP1 SWAP3 MSTORE PUSH2 0x355F SWAP2 DUP2 ADD SWAP1 PUSH2 0x51A2 JUMP JUMPDEST PUSH1 0x1 JUMPDEST PUSH2 0x356E JUMPI PUSH2 0x2ECE PUSH2 0x51BF JUMP JUMPDEST PUSH1 0x1 PUSH1 0x1 PUSH1 0xE0 SHL SUB NOT DUP2 AND PUSH4 0xF23A6E61 PUSH1 0xE0 SHL EQ PUSH2 0x1D77 JUMPI PUSH1 0x40 MLOAD PUSH3 0x461BCD PUSH1 0xE5 SHL DUP2 MSTORE PUSH1 0x4 ADD PUSH2 0x930 SWAP1 PUSH2 0x5263 JUMP JUMPDEST PUSH1 0x0 PUSH1 0x1 PUSH1 0x1 PUSH1 0xE0 SHL SUB NOT DUP3 AND PUSH4 0x7965DB0B PUSH1 0xE0 SHL EQ DUP1 PUSH2 0x95E JUMPI POP PUSH4 0x1FFC9A7 PUSH1 0xE0 SHL PUSH1 0x1 PUSH1 0x1 PUSH1 0xE0 SHL SUB NOT DUP4 AND EQ PUSH2 0x95E JUMP JUMPDEST PUSH2 0x35E1 DUP7 DUP7 DUP7 DUP7 DUP7 DUP7 PUSH2 0x3B88 JUMP JUMPDEST PUSH1 0x1 PUSH1 0x1 PUSH1 0xA0 SHL SUB DUP6 AND PUSH2 0x3669 JUMPI PUSH1 0x0 JUMPDEST DUP4 MLOAD DUP2 LT ISZERO PUSH2 0x3667 JUMPI DUP3 DUP2 DUP2 MLOAD DUP2 LT PUSH2 0x360D JUMPI PUSH2 0x360D PUSH2 0x4AD5 JUMP JUMPDEST PUSH1 0x20 MUL PUSH1 0x20 ADD ADD MLOAD PUSH2 0x191 PUSH1 0x0 DUP7 DUP5 DUP2 MLOAD DUP2 LT PUSH2 0x362C JUMPI PUSH2 0x362C PUSH2 0x4AD5 JUMP JUMPDEST PUSH1 0x20 MUL PUSH1 0x20 ADD ADD MLOAD DUP2 MSTORE PUSH1 0x20 ADD SWAP1 DUP2 MSTORE PUSH1 0x20 ADD PUSH1 0x0 KECCAK256 PUSH1 0x0 DUP3 DUP3 SLOAD PUSH2 0x3651 SWAP2 SWAP1 PUSH2 0x5064 JUMP JUMPDEST SWAP1 SWAP2 SSTORE POP PUSH2 0x3660 SWAP1 POP DUP2 PUSH2 0x4B01 JUMP JUMPDEST SWAP1 POP PUSH2 0x35F2 JUMP JUMPDEST POP JUMPDEST PUSH1 0x1 PUSH1 0x1 PUSH1 0xA0 SHL SUB DUP5 AND PUSH2 0x195C JUMPI PUSH1 0x0 JUMPDEST DUP4 MLOAD DUP2 LT ISZERO PUSH2 0x1D77 JUMPI PUSH1 0x0 DUP5 DUP3 DUP2 MLOAD DUP2 LT PUSH2 0x3697 JUMPI PUSH2 0x3697 PUSH2 0x4AD5 JUMP JUMPDEST PUSH1 0x20 MUL PUSH1 0x20 ADD ADD MLOAD SWAP1 POP PUSH1 0x0 DUP5 DUP4 DUP2 MLOAD DUP2 LT PUSH2 0x36B5 JUMPI PUSH2 0x36B5 PUSH2 0x4AD5 JUMP JUMPDEST PUSH1 0x20 MUL PUSH1 0x20 ADD ADD MLOAD SWAP1 POP PUSH1 0x0 PUSH2 0x191 PUSH1 0x0 DUP5 DUP2 MSTORE PUSH1 0x20 ADD SWAP1 DUP2 MSTORE PUSH1 0x20 ADD PUSH1 0x0 KECCAK256 SLOAD SWAP1 POP DUP2 DUP2 LT ISZERO PUSH2 0x3739 JUMPI PUSH1 0x40 MLOAD PUSH3 0x461BCD PUSH1 0xE5 SHL DUP2 MSTORE PUSH1 0x20 PUSH1 0x4 DUP3 ADD MSTORE PUSH1 0x28 PUSH1 0x24 DUP3 ADD MSTORE PUSH32 0x455243313135353A206275726E20616D6F756E74206578636565647320746F74 PUSH1 0x44 DUP3 ADD MSTORE PUSH8 0x616C537570706C79 PUSH1 0xC0 SHL PUSH1 0x64 DUP3 ADD MSTORE PUSH1 0x84 ADD PUSH2 0x930 JUMP JUMPDEST PUSH1 0x0 SWAP3 DUP4 MSTORE PUSH2 0x191 PUSH1 0x20 MSTORE PUSH1 0x40 SWAP1 SWAP3 KECCAK256 SWAP2 SUB SWAP1 SSTORE PUSH2 0x3756 DUP2 PUSH2 0x4B01 JUMP JUMPDEST SWAP1 POP PUSH2 0x367A JUMP JUMPDEST PUSH1 0x60 PUSH2 0x95E PUSH1 0x1 PUSH1 0x1 PUSH1 0xA0 SHL SUB DUP4 AND PUSH1 0x14 JUMPDEST PUSH1 0x60 PUSH1 0x0 PUSH2 0x377E DUP4 PUSH1 0x2 PUSH2 0x535F JUMP JUMPDEST PUSH2 0x3789 SWAP1 PUSH1 0x2 PUSH2 0x5064 JUMP JUMPDEST PUSH1 0x1 PUSH1 0x1 PUSH1 0x40 SHL SUB DUP2 GT ISZERO PUSH2 0x37A0 JUMPI PUSH2 0x37A0 PUSH2 0x3D31 JUMP JUMPDEST PUSH1 0x40 MLOAD SWAP1 DUP1 DUP3 MSTORE DUP1 PUSH1 0x1F ADD PUSH1 0x1F NOT AND PUSH1 0x20 ADD DUP3 ADD PUSH1 0x40 MSTORE DUP1 ISZERO PUSH2 0x37CA JUMPI PUSH1 0x20 DUP3 ADD DUP2 DUP1 CALLDATASIZE DUP4 CALLDATACOPY ADD SWAP1 POP JUMPDEST POP SWAP1 POP PUSH1 0x3 PUSH1 0xFC SHL DUP2 PUSH1 0x0 DUP2 MLOAD DUP2 LT PUSH2 0x37E5 JUMPI PUSH2 0x37E5 PUSH2 0x4AD5 JUMP JUMPDEST PUSH1 0x20 ADD ADD SWAP1 PUSH1 0x1 PUSH1 0x1 PUSH1 0xF8 SHL SUB NOT AND SWAP1 DUP2 PUSH1 0x0 BYTE SWAP1 MSTORE8 POP PUSH1 0xF PUSH1 0xFB SHL DUP2 PUSH1 0x1 DUP2 MLOAD DUP2 LT PUSH2 0x3814 JUMPI PUSH2 0x3814 PUSH2 0x4AD5 JUMP JUMPDEST PUSH1 0x20 ADD ADD SWAP1 PUSH1 0x1 PUSH1 0x1 PUSH1 0xF8 SHL SUB NOT AND SWAP1 DUP2 PUSH1 0x0 BYTE SWAP1 MSTORE8 POP PUSH1 0x0 PUSH2 0x3838 DUP5 PUSH1 0x2 PUSH2 0x535F JUMP JUMPDEST PUSH2 0x3843 SWAP1 PUSH1 0x1 PUSH2 0x5064 JUMP JUMPDEST SWAP1 POP JUMPDEST PUSH1 0x1 DUP2 GT ISZERO PUSH2 0x38BB JUMPI PUSH16 0x181899199A1A9B1B9C1CB0B131B232B3 PUSH1 0x81 SHL DUP6 PUSH1 0xF AND PUSH1 0x10 DUP2 LT PUSH2 0x3877 JUMPI PUSH2 0x3877 PUSH2 0x4AD5 JUMP JUMPDEST BYTE PUSH1 0xF8 SHL DUP3 DUP3 DUP2 MLOAD DUP2 LT PUSH2 0x388D JUMPI PUSH2 0x388D PUSH2 0x4AD5 JUMP JUMPDEST PUSH1 0x20 ADD ADD SWAP1 PUSH1 0x1 PUSH1 0x1 PUSH1 0xF8 SHL SUB NOT AND SWAP1 DUP2 PUSH1 0x0 BYTE SWAP1 MSTORE8 POP PUSH1 0x4 SWAP5 SWAP1 SWAP5 SHR SWAP4 PUSH2 0x38B4 DUP2 PUSH2 0x537E JUMP JUMPDEST SWAP1 POP PUSH2 0x3846 JUMP JUMPDEST POP DUP4 ISZERO PUSH2 0x9B8 JUMPI PUSH1 0x40 MLOAD PUSH3 0x461BCD PUSH1 0xE5 SHL DUP2 MSTORE PUSH1 0x20 PUSH1 0x4 DUP3 ADD DUP2 SWAP1 MSTORE PUSH1 0x24 DUP3 ADD MSTORE PUSH32 0x537472696E67733A20686578206C656E67746820696E73756666696369656E74 PUSH1 0x44 DUP3 ADD MSTORE PUSH1 0x64 ADD PUSH2 0x930 JUMP JUMPDEST PUSH1 0x0 DUP2 DUP2 MSTORE PUSH1 0x1 DUP4 ADD PUSH1 0x20 MSTORE PUSH1 0x40 DUP2 KECCAK256 SLOAD PUSH2 0x3951 JUMPI POP DUP2 SLOAD PUSH1 0x1 DUP2 DUP2 ADD DUP5 SSTORE PUSH1 0x0 DUP5 DUP2 MSTORE PUSH1 0x20 DUP1 DUP3 KECCAK256 SWAP1 SWAP4 ADD DUP5 SWAP1 SSTORE DUP5 SLOAD DUP5 DUP3 MSTORE DUP3 DUP7 ADD SWAP1 SWAP4 MSTORE PUSH1 0x40 SWAP1 KECCAK256 SWAP2 SWAP1 SWAP2 SSTORE PUSH2 0x95E JUMP JUMPDEST POP PUSH1 0x0 PUSH2 0x95E JUMP JUMPDEST PUSH1 0x0 DUP2 DUP2 MSTORE PUSH1 0x1 DUP4 ADD PUSH1 0x20 MSTORE PUSH1 0x40 DUP2 KECCAK256 SLOAD DUP1 ISZERO PUSH2 0x3A42 JUMPI PUSH1 0x0 PUSH2 0x397D PUSH1 0x1 DUP4 PUSH2 0x50A1 JUMP JUMPDEST DUP6 SLOAD SWAP1 SWAP2 POP PUSH1 0x0 SWAP1 PUSH2 0x3991 SWAP1 PUSH1 0x1 SWAP1 PUSH2 0x50A1 JUMP JUMPDEST SWAP1 POP DUP2 DUP2 EQ PUSH2 0x39F6 JUMPI PUSH1 0x0 DUP7 PUSH1 0x0 ADD DUP3 DUP2 SLOAD DUP2 LT PUSH2 0x39B1 JUMPI PUSH2 0x39B1 PUSH2 0x4AD5 JUMP JUMPDEST SWAP1 PUSH1 0x0 MSTORE PUSH1 0x20 PUSH1 0x0 KECCAK256 ADD SLOAD SWAP1 POP DUP1 DUP8 PUSH1 0x0 ADD DUP5 DUP2 SLOAD DUP2 LT PUSH2 0x39D4 JUMPI PUSH2 0x39D4 PUSH2 0x4AD5 JUMP JUMPDEST PUSH1 0x0 SWAP2 DUP3 MSTORE PUSH1 0x20 DUP1 DUP4 KECCAK256 SWAP1 SWAP2 ADD SWAP3 SWAP1 SWAP3 SSTORE SWAP2 DUP3 MSTORE PUSH1 0x1 DUP9 ADD SWAP1 MSTORE PUSH1 0x40 SWAP1 KECCAK256 DUP4 SWAP1 SSTORE JUMPDEST DUP6 SLOAD DUP7 SWAP1 DUP1 PUSH2 0x3A07 JUMPI PUSH2 0x3A07 PUSH2 0x5395 JUMP JUMPDEST PUSH1 0x1 SWAP1 SUB DUP2 DUP2 SWAP1 PUSH1 0x0 MSTORE PUSH1 0x20 PUSH1 0x0 KECCAK256 ADD PUSH1 0x0 SWAP1 SSTORE SWAP1 SSTORE DUP6 PUSH1 0x1 ADD PUSH1 0x0 DUP7 DUP2 MSTORE PUSH1 0x20 ADD SWAP1 DUP2 MSTORE PUSH1 0x20 ADD PUSH1 0x0 KECCAK256 PUSH1 0x0 SWAP1 SSTORE PUSH1 0x1 SWAP4 POP POP POP POP PUSH2 0x95E JUMP JUMPDEST PUSH1 0x0 SWAP2 POP POP PUSH2 0x95E JUMP JUMPDEST PUSH2 0x3A55 DUP2 PUSH2 0x312E JUMP JUMPDEST PUSH1 0x40 MLOAD PUSH1 0x1 PUSH1 0x1 PUSH1 0xA0 SHL SUB DUP3 AND SWAP1 PUSH32 0xBC7CD75A20EE27FD9ADEBAB32041F755214DBC6BFFA90CC0225B39DA2E5C2D3B SWAP1 PUSH1 0x0 SWAP1 LOG2 POP JUMP JUMPDEST PUSH1 0x60 PUSH2 0x3A97 DUP4 PUSH2 0x24DB JUMP JUMPDEST PUSH2 0x3AF2 JUMPI PUSH1 0x40 MLOAD PUSH3 0x461BCD PUSH1 0xE5 SHL DUP2 MSTORE PUSH1 0x20 PUSH1 0x4 DUP3 ADD MSTORE PUSH1 0x26 PUSH1 0x24 DUP3 ADD MSTORE PUSH32 0x416464726573733A2064656C65676174652063616C6C20746F206E6F6E2D636F PUSH1 0x44 DUP3 ADD MSTORE PUSH6 0x1B9D1C9858DD PUSH1 0xD2 SHL PUSH1 0x64 DUP3 ADD MSTORE PUSH1 0x84 ADD PUSH2 0x930 JUMP JUMPDEST PUSH1 0x0 DUP1 DUP5 PUSH1 0x1 PUSH1 0x1 PUSH1 0xA0 SHL SUB AND DUP5 PUSH1 0x40 MLOAD PUSH2 0x3B0D SWAP2 SWAP1 PUSH2 0x53AB JUMP JUMPDEST PUSH1 0x0 PUSH1 0x40 MLOAD DUP1 DUP4 SUB DUP2 DUP6 GAS DELEGATECALL SWAP2 POP POP RETURNDATASIZE DUP1 PUSH1 0x0 DUP2 EQ PUSH2 0x3B48 JUMPI PUSH1 0x40 MLOAD SWAP2 POP PUSH1 0x1F NOT PUSH1 0x3F RETURNDATASIZE ADD AND DUP3 ADD PUSH1 0x40 MSTORE RETURNDATASIZE DUP3 MSTORE RETURNDATASIZE PUSH1 0x0 PUSH1 0x20 DUP5 ADD RETURNDATACOPY PUSH2 0x3B4D JUMP JUMPDEST PUSH1 0x60 SWAP2 POP JUMPDEST POP SWAP2 POP SWAP2 POP PUSH2 0x3B75 DUP3 DUP3 PUSH1 0x40 MLOAD DUP1 PUSH1 0x60 ADD PUSH1 0x40 MSTORE DUP1 PUSH1 0x27 DUP2 MSTORE PUSH1 0x20 ADD PUSH2 0x5448 PUSH1 0x27 SWAP2 CODECOPY PUSH2 0x3BF0 JUMP JUMPDEST SWAP6 SWAP5 POP POP POP POP POP JUMP JUMPDEST PUSH2 0xA96 DUP3 DUP3 PUSH2 0x1F2F JUMP JUMPDEST PUSH1 0xFB SLOAD PUSH1 0xFF AND ISZERO PUSH2 0x195C JUMPI PUSH1 0x40 MLOAD PUSH3 0x461BCD PUSH1 0xE5 SHL DUP2 MSTORE PUSH1 0x20 PUSH1 0x4 DUP3 ADD MSTORE PUSH1 0x2C PUSH1 0x24 DUP3 ADD MSTORE PUSH32 0x455243313135355061757361626C653A20746F6B656E207472616E7366657220 PUSH1 0x44 DUP3 ADD MSTORE PUSH12 0x1DDA1A5B19481C185D5CD959 PUSH1 0xA2 SHL PUSH1 0x64 DUP3 ADD MSTORE PUSH1 0x84 ADD PUSH2 0x930 JUMP JUMPDEST PUSH1 0x60 DUP4 ISZERO PUSH2 0x3BFF JUMPI POP DUP2 PUSH2 0x9B8 JUMP JUMPDEST PUSH2 0x9B8 DUP4 DUP4 DUP2 MLOAD ISZERO PUSH2 0x2EEE JUMPI DUP2 MLOAD DUP1 DUP4 PUSH1 0x20 ADD REVERT JUMPDEST DUP3 DUP1 SLOAD PUSH2 0x3C20 SWAP1 PUSH2 0x49B4 JUMP JUMPDEST SWAP1 PUSH1 0x0 MSTORE PUSH1 0x20 PUSH1 0x0 KECCAK256 SWAP1 PUSH1 0x1F ADD PUSH1 0x20 SWAP1 DIV DUP2 ADD SWAP3 DUP3 PUSH2 0x3C42 JUMPI PUSH1 0x0 DUP6 SSTORE PUSH2 0x3C88 JUMP JUMPDEST DUP3 PUSH1 0x1F LT PUSH2 0x3C5B JUMPI DUP1 MLOAD PUSH1 0xFF NOT AND DUP4 DUP1 ADD OR DUP6 SSTORE PUSH2 0x3C88 JUMP JUMPDEST DUP3 DUP1 ADD PUSH1 0x1 ADD DUP6 SSTORE DUP3 ISZERO PUSH2 0x3C88 JUMPI SWAP2 DUP3 ADD JUMPDEST DUP3 DUP2 GT ISZERO PUSH2 0x3C88 JUMPI DUP3 MLOAD DUP3 SSTORE SWAP2 PUSH1 0x20 ADD SWAP2 SWAP1 PUSH1 0x1 ADD SWAP1 PUSH2 0x3C6D JUMP JUMPDEST POP PUSH2 0x3C94 SWAP3 SWAP2 POP PUSH2 0x3C98 JUMP JUMPDEST POP SWAP1 JUMP JUMPDEST JUMPDEST DUP1 DUP3 GT ISZERO PUSH2 0x3C94 JUMPI PUSH1 0x0 DUP2 SSTORE PUSH1 0x1 ADD PUSH2 0x3C99 JUMP JUMPDEST PUSH1 0x1 PUSH1 0x1 PUSH1 0xA0 SHL SUB DUP2 AND DUP2 EQ PUSH2 0x980 JUMPI PUSH1 0x0 DUP1 REVERT JUMPDEST DUP1 CALLDATALOAD PUSH2 0x3CCD DUP2 PUSH2 0x3CAD JUMP JUMPDEST SWAP2 SWAP1 POP JUMP JUMPDEST PUSH1 0x0 DUP1 PUSH1 0x40 DUP4 DUP6 SUB SLT ISZERO PUSH2 0x3CE5 JUMPI PUSH1 0x0 DUP1 REVERT JUMPDEST DUP3 CALLDATALOAD PUSH2 0x3CF0 DUP2 PUSH2 0x3CAD JUMP JUMPDEST SWAP5 PUSH1 0x20 SWAP4 SWAP1 SWAP4 ADD CALLDATALOAD SWAP4 POP POP POP JUMP JUMPDEST PUSH1 0x1 PUSH1 0x1 PUSH1 0xE0 SHL SUB NOT DUP2 AND DUP2 EQ PUSH2 0x980 JUMPI PUSH1 0x0 DUP1 REVERT JUMPDEST PUSH1 0x0 PUSH1 0x20 DUP3 DUP5 SUB SLT ISZERO PUSH2 0x3D26 JUMPI PUSH1 0x0 DUP1 REVERT JUMPDEST DUP2 CALLDATALOAD PUSH2 0x9B8 DUP2 PUSH2 0x3CFE JUMP JUMPDEST PUSH4 0x4E487B71 PUSH1 0xE0 SHL PUSH1 0x0 MSTORE PUSH1 0x41 PUSH1 0x4 MSTORE PUSH1 0x24 PUSH1 0x0 REVERT JUMPDEST PUSH1 0x40 DUP2 ADD DUP2 DUP2 LT PUSH1 0x1 PUSH1 0x1 PUSH1 0x40 SHL SUB DUP3 GT OR ISZERO PUSH2 0x3D66 JUMPI PUSH2 0x3D66 PUSH2 0x3D31 JUMP JUMPDEST PUSH1 0x40 MSTORE POP JUMP JUMPDEST PUSH1 0x1F DUP3 ADD PUSH1 0x1F NOT AND DUP2 ADD PUSH1 0x1 PUSH1 0x1 PUSH1 0x40 SHL SUB DUP2 GT DUP3 DUP3 LT OR ISZERO PUSH2 0x3D91 JUMPI PUSH2 0x3D91 PUSH2 0x3D31 JUMP JUMPDEST PUSH1 0x40 MSTORE POP POP JUMP JUMPDEST PUSH1 0x40 MLOAD PUSH2 0x160 DUP2 ADD PUSH1 0x1 PUSH1 0x1 PUSH1 0x40 SHL SUB DUP2 GT DUP3 DUP3 LT OR ISZERO PUSH2 0x3DBB JUMPI PUSH2 0x3DBB PUSH2 0x3D31 JUMP JUMPDEST PUSH1 0x40 MSTORE SWAP1 JUMP JUMPDEST PUSH1 0x40 MLOAD PUSH2 0x100 DUP2 ADD PUSH1 0x1 PUSH1 0x1 PUSH1 0x40 SHL SUB DUP2 GT DUP3 DUP3 LT OR ISZERO PUSH2 0x3DBB JUMPI PUSH2 0x3DBB PUSH2 0x3D31 JUMP JUMPDEST PUSH1 0x0 PUSH1 0x1 PUSH1 0x1 PUSH1 0x40 SHL SUB DUP3 GT ISZERO PUSH2 0x3DFD JUMPI PUSH2 0x3DFD PUSH2 0x3D31 JUMP JUMPDEST POP PUSH1 0x1F ADD PUSH1 0x1F NOT AND PUSH1 0x20 ADD SWAP1 JUMP JUMPDEST PUSH1 0x0 DUP3 PUSH1 0x1F DUP4 ADD SLT PUSH2 0x3E1C JUMPI PUSH1 0x0 DUP1 REVERT JUMPDEST DUP2 CALLDATALOAD PUSH2 0x3E27 DUP2 PUSH2 0x3DE4 JUMP JUMPDEST PUSH1 0x40 MLOAD PUSH2 0x3E34 DUP3 DUP3 PUSH2 0x3D6C JUMP JUMPDEST DUP3 DUP2 MSTORE DUP6 PUSH1 0x20 DUP5 DUP8 ADD ADD GT ISZERO PUSH2 0x3E49 JUMPI PUSH1 0x0 DUP1 REVERT JUMPDEST DUP3 PUSH1 0x20 DUP7 ADD PUSH1 0x20 DUP4 ADD CALLDATACOPY PUSH1 0x0 SWAP3 DUP2 ADD PUSH1 0x20 ADD SWAP3 SWAP1 SWAP3 MSTORE POP SWAP4 SWAP3 POP POP POP JUMP JUMPDEST PUSH1 0x0 PUSH1 0x20 DUP3 DUP5 SUB SLT ISZERO PUSH2 0x3E79 JUMPI PUSH1 0x0 DUP1 REVERT JUMPDEST DUP2 CALLDATALOAD PUSH1 0x1 PUSH1 0x1 PUSH1 0x40 SHL SUB DUP2 GT ISZERO PUSH2 0x3E8F JUMPI PUSH1 0x0 DUP1 REVERT JUMPDEST PUSH2 0x3E9B DUP5 DUP3 DUP6 ADD PUSH2 0x3E0B JUMP JUMPDEST SWAP5 SWAP4 POP POP POP POP JUMP JUMPDEST PUSH1 0x0 DUP1 PUSH1 0x40 DUP4 DUP6 SUB SLT ISZERO PUSH2 0x3EB6 JUMPI PUSH1 0x0 DUP1 REVERT JUMPDEST DUP3 CALLDATALOAD PUSH2 0x3EC1 DUP2 PUSH2 0x3CAD JUMP JUMPDEST SWAP2 POP PUSH1 0x20 DUP4 ADD CALLDATALOAD PUSH1 0x1 PUSH1 0x1 PUSH1 0x40 SHL SUB DUP2 GT ISZERO PUSH2 0x3EDC JUMPI PUSH1 0x0 DUP1 REVERT JUMPDEST PUSH2 0x3EE8 DUP6 DUP3 DUP7 ADD PUSH2 0x3E0B JUMP JUMPDEST SWAP2 POP POP SWAP3 POP SWAP3 SWAP1 POP JUMP JUMPDEST PUSH1 0x0 PUSH1 0x20 DUP3 DUP5 SUB SLT ISZERO PUSH2 0x3F04 JUMPI PUSH1 0x0 DUP1 REVERT JUMPDEST POP CALLDATALOAD SWAP2 SWAP1 POP JUMP JUMPDEST PUSH1 0x0 JUMPDEST DUP4 DUP2 LT ISZERO PUSH2 0x3F26 JUMPI DUP2 DUP2 ADD MLOAD DUP4 DUP3 ADD MSTORE PUSH1 0x20 ADD PUSH2 0x3F0E JUMP JUMPDEST DUP4 DUP2 GT ISZERO PUSH2 0x1017 JUMPI POP POP PUSH1 0x0 SWAP2 ADD MSTORE JUMP JUMPDEST PUSH1 0x0 DUP2 MLOAD DUP1 DUP5 MSTORE PUSH2 0x3F4F DUP2 PUSH1 0x20 DUP7 ADD PUSH1 0x20 DUP7 ADD PUSH2 0x3F0B JUMP JUMPDEST PUSH1 0x1F ADD PUSH1 0x1F NOT AND SWAP3 SWAP1 SWAP3 ADD PUSH1 0x20 ADD SWAP3 SWAP2 POP POP JUMP JUMPDEST PUSH1 0x20 DUP2 MSTORE PUSH1 0x0 PUSH2 0x9B8 PUSH1 0x20 DUP4 ADD DUP5 PUSH2 0x3F37 JUMP JUMPDEST PUSH1 0x0 DUP1 PUSH1 0x40 DUP4 DUP6 SUB SLT ISZERO PUSH2 0x3F89 JUMPI PUSH1 0x0 DUP1 REVERT JUMPDEST POP POP DUP1 CALLDATALOAD SWAP3 PUSH1 0x20 SWAP1 SWAP2 ADD CALLDATALOAD SWAP2 POP JUMP JUMPDEST PUSH1 0x0 PUSH1 0x1 PUSH1 0x1 PUSH1 0x40 SHL SUB DUP3 GT ISZERO PUSH2 0x3FB1 JUMPI PUSH2 0x3FB1 PUSH2 0x3D31 JUMP JUMPDEST POP PUSH1 0x5 SHL PUSH1 0x20 ADD SWAP1 JUMP JUMPDEST PUSH1 0x0 DUP3 PUSH1 0x1F DUP4 ADD SLT PUSH2 0x3FCC JUMPI PUSH1 0x0 DUP1 REVERT JUMPDEST DUP2 CALLDATALOAD PUSH1 0x20 PUSH2 0x3FD9 DUP3 PUSH2 0x3F98 JUMP JUMPDEST PUSH1 0x40 MLOAD PUSH2 0x3FE6 DUP3 DUP3 PUSH2 0x3D6C JUMP JUMPDEST DUP4 DUP2 MSTORE PUSH1 0x5 SWAP4 SWAP1 SWAP4 SHL DUP6 ADD DUP3 ADD SWAP3 DUP3 DUP2 ADD SWAP2 POP DUP7 DUP5 GT ISZERO PUSH2 0x4006 JUMPI PUSH1 0x0 DUP1 REVERT JUMPDEST DUP3 DUP7 ADD JUMPDEST DUP5 DUP2 LT ISZERO PUSH2 0x4021 JUMPI DUP1 CALLDATALOAD DUP4 MSTORE SWAP2 DUP4 ADD SWAP2 DUP4 ADD PUSH2 0x400A JUMP JUMPDEST POP SWAP7 SWAP6 POP POP POP POP POP POP JUMP JUMPDEST PUSH1 0x0 DUP1 PUSH1 0x0 DUP1 PUSH1 0x0 PUSH1 0xA0 DUP7 DUP9 SUB SLT ISZERO PUSH2 0x4044 JUMPI PUSH1 0x0 DUP1 REVERT JUMPDEST DUP6 CALLDATALOAD PUSH2 0x404F DUP2 PUSH2 0x3CAD JUMP JUMPDEST SWAP5 POP PUSH1 0x20 DUP7 ADD CALLDATALOAD PUSH2 0x405F DUP2 PUSH2 0x3CAD JUMP JUMPDEST SWAP4 POP PUSH1 0x40 DUP7 ADD CALLDATALOAD PUSH1 0x1 PUSH1 0x1 PUSH1 0x40 SHL SUB DUP1 DUP3 GT ISZERO PUSH2 0x407B JUMPI PUSH1 0x0 DUP1 REVERT JUMPDEST PUSH2 0x4087 DUP10 DUP4 DUP11 ADD PUSH2 0x3FBB JUMP JUMPDEST SWAP5 POP PUSH1 0x60 DUP9 ADD CALLDATALOAD SWAP2 POP DUP1 DUP3 GT ISZERO PUSH2 0x409D JUMPI PUSH1 0x0 DUP1 REVERT JUMPDEST PUSH2 0x40A9 DUP10 DUP4 DUP11 ADD PUSH2 0x3FBB JUMP JUMPDEST SWAP4 POP PUSH1 0x80 DUP9 ADD CALLDATALOAD SWAP2 POP DUP1 DUP3 GT ISZERO PUSH2 0x40BF JUMPI PUSH1 0x0 DUP1 REVERT JUMPDEST POP PUSH2 0x40CC DUP9 DUP3 DUP10 ADD PUSH2 0x3E0B JUMP JUMPDEST SWAP2 POP POP SWAP3 SWAP6 POP SWAP3 SWAP6 SWAP1 SWAP4 POP JUMP JUMPDEST PUSH1 0x0 DUP1 PUSH1 0x40 DUP4 DUP6 SUB SLT ISZERO PUSH2 0x40EC JUMPI PUSH1 0x0 DUP1 REVERT JUMPDEST DUP3 CALLDATALOAD SWAP2 POP PUSH1 0x20 DUP4 ADD CALLDATALOAD PUSH2 0x40FE DUP2 PUSH2 0x3CAD JUMP JUMPDEST DUP1 SWAP2 POP POP SWAP3 POP SWAP3 SWAP1 POP JUMP JUMPDEST PUSH1 0x0 PUSH1 0x20 DUP3 DUP5 SUB SLT ISZERO PUSH2 0x411B JUMPI PUSH1 0x0 DUP1 REVERT JUMPDEST DUP2 CALLDATALOAD PUSH2 0x9B8 DUP2 PUSH2 0x3CAD JUMP JUMPDEST DUP1 ISZERO ISZERO DUP2 EQ PUSH2 0x980 JUMPI PUSH1 0x0 DUP1 REVERT JUMPDEST PUSH1 0x0 PUSH1 0x20 DUP3 DUP5 SUB SLT ISZERO PUSH2 0x4146 JUMPI PUSH1 0x0 DUP1 REVERT JUMPDEST DUP2 CALLDATALOAD PUSH2 0x9B8 DUP2 PUSH2 0x4126 JUMP JUMPDEST PUSH1 0x0 DUP1 PUSH1 0x40 DUP4 DUP6 SUB SLT ISZERO PUSH2 0x4164 JUMPI PUSH1 0x0 DUP1 REVERT JUMPDEST DUP3 CALLDATALOAD PUSH1 0x1 PUSH1 0x1 PUSH1 0x40 SHL SUB DUP1 DUP3 GT ISZERO PUSH2 0x417B JUMPI PUSH1 0x0 DUP1 REVERT JUMPDEST DUP2 DUP6 ADD SWAP2 POP DUP6 PUSH1 0x1F DUP4 ADD SLT PUSH2 0x418F JUMPI PUSH1 0x0 DUP1 REVERT JUMPDEST DUP2 CALLDATALOAD PUSH1 0x20 PUSH2 0x419C DUP3 PUSH2 0x3F98 JUMP JUMPDEST PUSH1 0x40 MLOAD PUSH2 0x41A9 DUP3 DUP3 PUSH2 0x3D6C JUMP JUMPDEST DUP4 DUP2 MSTORE PUSH1 0x5 SWAP4 SWAP1 SWAP4 SHL DUP6 ADD DUP3 ADD SWAP3 DUP3 DUP2 ADD SWAP2 POP DUP10 DUP5 GT ISZERO PUSH2 0x41C9 JUMPI PUSH1 0x0 DUP1 REVERT JUMPDEST SWAP5 DUP3 ADD SWAP5 JUMPDEST DUP4 DUP7 LT ISZERO PUSH2 0x41F0 JUMPI DUP6 CALLDATALOAD PUSH2 0x41E1 DUP2 PUSH2 0x3CAD JUMP JUMPDEST DUP3 MSTORE SWAP5 DUP3 ADD SWAP5 SWAP1 DUP3 ADD SWAP1 PUSH2 0x41CE JUMP JUMPDEST SWAP7 POP POP DUP7 ADD CALLDATALOAD SWAP3 POP POP DUP1 DUP3 GT ISZERO PUSH2 0x4206 JUMPI PUSH1 0x0 DUP1 REVERT JUMPDEST POP PUSH2 0x3EE8 DUP6 DUP3 DUP7 ADD PUSH2 0x3FBB JUMP JUMPDEST PUSH1 0x0 DUP2 MLOAD DUP1 DUP5 MSTORE PUSH1 0x20 DUP1 DUP6 ADD SWAP5 POP DUP1 DUP5 ADD PUSH1 0x0 JUMPDEST DUP4 DUP2 LT ISZERO PUSH2 0x4243 JUMPI DUP2 MLOAD DUP8 MSTORE SWAP6 DUP3 ADD SWAP6 SWAP1 DUP3 ADD SWAP1 PUSH1 0x1 ADD PUSH2 0x4227 JUMP JUMPDEST POP SWAP5 SWAP6 SWAP5 POP POP POP POP POP JUMP JUMPDEST PUSH1 0x20 DUP2 MSTORE PUSH1 0x0 PUSH2 0x9B8 PUSH1 0x20 DUP4 ADD DUP5 PUSH2 0x4213 JUMP JUMPDEST PUSH1 0x0 DUP1 DUP4 PUSH1 0x1F DUP5 ADD SLT PUSH2 0x4273 JUMPI PUSH1 0x0 DUP1 REVERT JUMPDEST POP DUP2 CALLDATALOAD PUSH1 0x1 PUSH1 0x1 PUSH1 0x40 SHL SUB DUP2 GT ISZERO PUSH2 0x428A JUMPI PUSH1 0x0 DUP1 REVERT JUMPDEST PUSH1 0x20 DUP4 ADD SWAP2 POP DUP4 PUSH1 0x20 DUP3 PUSH1 0x5 SHL DUP6 ADD ADD GT ISZERO PUSH2 0x42A5 JUMPI PUSH1 0x0 DUP1 REVERT JUMPDEST SWAP3 POP SWAP3 SWAP1 POP JUMP JUMPDEST PUSH1 0x0 DUP1 PUSH1 0x0 DUP1 PUSH1 0x40 DUP6 DUP8 SUB SLT ISZERO PUSH2 0x42C2 JUMPI PUSH1 0x0 DUP1 REVERT JUMPDEST DUP5 CALLDATALOAD PUSH1 0x1 PUSH1 0x1 PUSH1 0x40 SHL SUB DUP1 DUP3 GT ISZERO PUSH2 0x42D9 JUMPI PUSH1 0x0 DUP1 REVERT JUMPDEST PUSH2 0x42E5 DUP9 DUP4 DUP10 ADD PUSH2 0x4261 JUMP JUMPDEST SWAP1 SWAP7 POP SWAP5 POP PUSH1 0x20 DUP8 ADD CALLDATALOAD SWAP2 POP DUP1 DUP3 GT ISZERO PUSH2 0x42FE JUMPI PUSH1 0x0 DUP1 REVERT JUMPDEST POP PUSH2 0x430B DUP8 DUP3 DUP9 ADD PUSH2 0x4261 JUMP JUMPDEST SWAP6 SWAP9 SWAP5 SWAP8 POP SWAP6 POP POP POP POP JUMP JUMPDEST PUSH1 0x0 DUP1 PUSH1 0x0 PUSH1 0x60 DUP5 DUP7 SUB SLT ISZERO PUSH2 0x432C JUMPI PUSH1 0x0 DUP1 REVERT JUMPDEST DUP4 CALLDATALOAD PUSH2 0x4337 DUP2 PUSH2 0x3CAD JUMP JUMPDEST SWAP3 POP PUSH1 0x20 DUP5 ADD CALLDATALOAD PUSH1 0x1 PUSH1 0x1 PUSH1 0x40 SHL SUB DUP1 DUP3 GT ISZERO PUSH2 0x4353 JUMPI PUSH1 0x0 DUP1 REVERT JUMPDEST PUSH2 0x435F DUP8 DUP4 DUP9 ADD PUSH2 0x3FBB JUMP JUMPDEST SWAP4 POP PUSH1 0x40 DUP7 ADD CALLDATALOAD SWAP2 POP DUP1 DUP3 GT ISZERO PUSH2 0x4375 JUMPI PUSH1 0x0 DUP1 REVERT JUMPDEST POP PUSH2 0x4382 DUP7 DUP3 DUP8 ADD PUSH2 0x3FBB JUMP JUMPDEST SWAP2 POP POP SWAP3 POP SWAP3 POP SWAP3 JUMP JUMPDEST PUSH1 0x1 PUSH1 0x1 PUSH1 0xA0 SHL SUB SWAP2 SWAP1 SWAP2 AND DUP2 MSTORE PUSH1 0x20 ADD SWAP1 JUMP JUMPDEST PUSH1 0x0 DUP1 PUSH1 0x40 DUP4 DUP6 SUB SLT ISZERO PUSH2 0x43B3 JUMPI PUSH1 0x0 DUP1 REVERT JUMPDEST DUP3 CALLDATALOAD PUSH2 0x43BE DUP2 PUSH2 0x3CAD JUMP JUMPDEST SWAP2 POP PUSH1 0x20 DUP4 ADD CALLDATALOAD PUSH2 0x40FE DUP2 PUSH2 0x4126 JUMP JUMPDEST PUSH1 0x0 DUP1 PUSH1 0x0 DUP1 PUSH1 0x80 DUP6 DUP8 SUB SLT ISZERO PUSH2 0x43E4 JUMPI PUSH1 0x0 DUP1 REVERT JUMPDEST DUP5 CALLDATALOAD PUSH1 0x1 PUSH1 0x1 PUSH1 0x40 SHL SUB DUP1 DUP3 GT ISZERO PUSH2 0x43FB JUMPI PUSH1 0x0 DUP1 REVERT JUMPDEST PUSH2 0x4407 DUP9 DUP4 DUP10 ADD PUSH2 0x3E0B JUMP JUMPDEST SWAP6 POP PUSH1 0x20 DUP8 ADD CALLDATALOAD SWAP2 POP DUP1 DUP3 GT ISZERO PUSH2 0x441D JUMPI PUSH1 0x0 DUP1 REVERT JUMPDEST POP PUSH2 0x442A DUP8 DUP3 DUP9 ADD PUSH2 0x3E0B JUMP JUMPDEST SWAP4 POP POP PUSH1 0x40 DUP6 ADD CALLDATALOAD SWAP2 POP PUSH1 0x60 DUP6 ADD CALLDATALOAD PUSH2 0x4442 DUP2 PUSH2 0x3CAD JUMP JUMPDEST SWAP4 SWAP7 SWAP3 SWAP6 POP SWAP1 SWAP4 POP POP JUMP JUMPDEST PUSH1 0x0 PUSH1 0x40 DUP3 DUP5 SUB SLT ISZERO PUSH2 0x445F JUMPI PUSH1 0x0 DUP1 REVERT JUMPDEST PUSH1 0x40 MLOAD PUSH2 0x446B DUP2 PUSH2 0x3D47 JUMP JUMPDEST DUP1 SWAP2 POP DUP3 CALLDATALOAD PUSH1 0x1 PUSH1 0x1 PUSH1 0x40 SHL SUB DUP2 GT ISZERO PUSH2 0x4484 JUMPI PUSH1 0x0 DUP1 REVERT JUMPDEST PUSH2 0x4490 DUP6 DUP3 DUP7 ADD PUSH2 0x3E0B JUMP JUMPDEST DUP3 MSTORE POP PUSH1 0x20 DUP4 ADD CALLDATALOAD PUSH2 0x44A1 DUP2 PUSH2 0x3CAD JUMP JUMPDEST PUSH1 0x20 SWAP2 SWAP1 SWAP2 ADD MSTORE SWAP3 SWAP2 POP POP JUMP JUMPDEST DUP1 CALLDATALOAD PUSH1 0xFF DUP2 AND DUP2 EQ PUSH2 0x3CCD JUMPI PUSH1 0x0 DUP1 REVERT JUMPDEST PUSH1 0x0 PUSH2 0x160 DUP3 DUP5 SUB SLT ISZERO PUSH2 0x44D2 JUMPI PUSH1 0x0 DUP1 REVERT JUMPDEST PUSH2 0x44DA PUSH2 0x3D98 JUMP JUMPDEST SWAP1 POP DUP2 CALLDATALOAD PUSH1 0x1 PUSH1 0x1 PUSH1 0x40 SHL SUB DUP1 DUP3 GT ISZERO PUSH2 0x44F3 JUMPI PUSH1 0x0 DUP1 REVERT JUMPDEST PUSH2 0x44FF DUP6 DUP4 DUP7 ADD PUSH2 0x3E0B JUMP JUMPDEST DUP4 MSTORE PUSH2 0x450D PUSH1 0x20 DUP6 ADD PUSH2 0x3CC2 JUMP JUMPDEST PUSH1 0x20 DUP5 ADD MSTORE PUSH1 0x40 DUP5 ADD CALLDATALOAD SWAP2 POP DUP1 DUP3 GT ISZERO PUSH2 0x4526 JUMPI PUSH1 0x0 DUP1 REVERT JUMPDEST PUSH2 0x4532 DUP6 DUP4 DUP7 ADD PUSH2 0x3E0B JUMP JUMPDEST PUSH1 0x40 DUP5 ADD MSTORE PUSH1 0x60 DUP5 ADD CALLDATALOAD SWAP2 POP DUP1 DUP3 GT ISZERO PUSH2 0x454B JUMPI PUSH1 0x0 DUP1 REVERT JUMPDEST PUSH2 0x4557 DUP6 DUP4 DUP7 ADD PUSH2 0x3E0B JUMP JUMPDEST PUSH1 0x60 DUP5 ADD MSTORE PUSH1 0x80 DUP5 ADD CALLDATALOAD SWAP2 POP DUP1 DUP3 GT ISZERO PUSH2 0x4570 JUMPI PUSH1 0x0 DUP1 REVERT JUMPDEST PUSH2 0x457C DUP6 DUP4 DUP7 ADD PUSH2 0x3E0B JUMP JUMPDEST PUSH1 0x80 DUP5 ADD MSTORE PUSH1 0xA0 DUP5 ADD CALLDATALOAD SWAP2 POP DUP1 DUP3 GT ISZERO PUSH2 0x4595 JUMPI PUSH1 0x0 DUP1 REVERT JUMPDEST POP PUSH2 0x45A2 DUP5 DUP3 DUP6 ADD PUSH2 0x3E0B JUMP JUMPDEST PUSH1 0xA0 DUP4 ADD MSTORE POP PUSH2 0x45B4 PUSH1 0xC0 DUP4 ADD PUSH2 0x44AE JUMP JUMPDEST PUSH1 0xC0 DUP3 ADD MSTORE PUSH1 0xE0 DUP3 ADD CALLDATALOAD PUSH1 0xE0 DUP3 ADD MSTORE PUSH2 0x100 DUP1 DUP4 ADD CALLDATALOAD DUP2 DUP4 ADD MSTORE POP PUSH2 0x120 DUP1 DUP4 ADD CALLDATALOAD DUP2 DUP4 ADD MSTORE POP PUSH2 0x140 DUP1 DUP4 ADD CALLDATALOAD DUP2 DUP4 ADD MSTORE POP SWAP3 SWAP2 POP POP JUMP JUMPDEST PUSH1 0x0 PUSH1 0x40 DUP3 DUP5 SUB SLT ISZERO PUSH2 0x45FF JUMPI PUSH1 0x0 DUP1 REVERT JUMPDEST PUSH1 0x40 MLOAD PUSH2 0x460B DUP2 PUSH2 0x3D47 JUMP JUMPDEST DUP1 SWAP2 POP DUP3 CALLDATALOAD PUSH1 0x1 PUSH1 0x1 PUSH1 0x40 SHL SUB DUP1 DUP3 GT ISZERO PUSH2 0x4625 JUMPI PUSH1 0x0 DUP1 REVERT JUMPDEST PUSH2 0x4631 DUP7 DUP4 DUP8 ADD PUSH2 0x3E0B JUMP JUMPDEST DUP4 MSTORE PUSH1 0x20 DUP6 ADD CALLDATALOAD SWAP2 POP DUP1 DUP3 GT ISZERO PUSH2 0x4647 JUMPI PUSH1 0x0 DUP1 REVERT JUMPDEST POP PUSH2 0x4654 DUP6 DUP3 DUP7 ADD PUSH2 0x3E0B JUMP JUMPDEST PUSH1 0x20 DUP4 ADD MSTORE POP POP SWAP3 SWAP2 POP POP JUMP JUMPDEST PUSH1 0x0 DUP1 PUSH1 0x0 DUP1 PUSH1 0x0 PUSH1 0xA0 DUP7 DUP9 SUB SLT ISZERO PUSH2 0x4679 JUMPI PUSH1 0x0 DUP1 REVERT JUMPDEST DUP6 CALLDATALOAD PUSH2 0x4684 DUP2 PUSH2 0x3CAD JUMP JUMPDEST SWAP5 POP PUSH1 0x20 DUP7 ADD CALLDATALOAD PUSH1 0x1 PUSH1 0x1 PUSH1 0x40 SHL SUB DUP1 DUP3 GT ISZERO PUSH2 0x46A0 JUMPI PUSH1 0x0 DUP1 REVERT JUMPDEST PUSH2 0x46AC DUP10 DUP4 DUP11 ADD PUSH2 0x3E0B JUMP JUMPDEST SWAP6 POP PUSH1 0x40 DUP9 ADD CALLDATALOAD SWAP2 POP DUP1 DUP3 GT ISZERO PUSH2 0x46C2 JUMPI PUSH1 0x0 DUP1 REVERT JUMPDEST SWAP1 DUP8 ADD SWAP1 PUSH2 0x100 DUP3 DUP11 SUB SLT ISZERO PUSH2 0x46D7 JUMPI PUSH1 0x0 DUP1 REVERT JUMPDEST PUSH2 0x46DF PUSH2 0x3DC1 JUMP JUMPDEST DUP3 CALLDATALOAD DUP3 DUP2 GT ISZERO PUSH2 0x46EE JUMPI PUSH1 0x0 DUP1 REVERT JUMPDEST PUSH2 0x46FA DUP12 DUP3 DUP7 ADD PUSH2 0x3E0B JUMP JUMPDEST DUP3 MSTORE POP PUSH1 0x20 DUP4 ADD CALLDATALOAD DUP3 DUP2 GT ISZERO PUSH2 0x470F JUMPI PUSH1 0x0 DUP1 REVERT JUMPDEST PUSH2 0x471B DUP12 DUP3 DUP7 ADD PUSH2 0x3E0B JUMP JUMPDEST PUSH1 0x20 DUP4 ADD MSTORE POP PUSH1 0x40 DUP4 ADD CALLDATALOAD DUP3 DUP2 GT ISZERO PUSH2 0x4733 JUMPI PUSH1 0x0 DUP1 REVERT JUMPDEST PUSH2 0x473F DUP12 DUP3 DUP7 ADD PUSH2 0x3E0B JUMP JUMPDEST PUSH1 0x40 DUP4 ADD MSTORE POP PUSH1 0x60 DUP4 ADD CALLDATALOAD DUP3 DUP2 GT ISZERO PUSH2 0x4757 JUMPI PUSH1 0x0 DUP1 REVERT JUMPDEST PUSH2 0x4763 DUP12 DUP3 DUP7 ADD PUSH2 0x444D JUMP JUMPDEST PUSH1 0x60 DUP4 ADD MSTORE POP PUSH1 0x80 DUP4 ADD CALLDATALOAD DUP3 DUP2 GT ISZERO PUSH2 0x477B JUMPI PUSH1 0x0 DUP1 REVERT JUMPDEST PUSH2 0x4787 DUP12 DUP3 DUP7 ADD PUSH2 0x44BF JUMP JUMPDEST PUSH1 0x80 DUP4 ADD MSTORE POP PUSH1 0xA0 DUP4 ADD CALLDATALOAD DUP3 DUP2 GT ISZERO PUSH2 0x479F JUMPI PUSH1 0x0 DUP1 REVERT JUMPDEST PUSH2 0x47AB DUP12 DUP3 DUP7 ADD PUSH2 0x45ED JUMP JUMPDEST PUSH1 0xA0 DUP4 ADD MSTORE POP PUSH1 0xC0 DUP4 ADD CALLDATALOAD DUP3 DUP2 GT ISZERO PUSH2 0x47C3 JUMPI PUSH1 0x0 DUP1 REVERT JUMPDEST PUSH2 0x47CF DUP12 DUP3 DUP7 ADD PUSH2 0x3E0B JUMP JUMPDEST PUSH1 0xC0 DUP4 ADD MSTORE POP PUSH1 0xE0 DUP4 ADD CALLDATALOAD DUP3 DUP2 GT ISZERO PUSH2 0x47E7 JUMPI PUSH1 0x0 DUP1 REVERT JUMPDEST PUSH2 0x47F3 DUP12 DUP3 DUP7 ADD PUSH2 0x3E0B JUMP JUMPDEST PUSH1 0xE0 DUP4 ADD MSTORE POP SWAP5 POP PUSH1 0x60 DUP9 ADD CALLDATALOAD SWAP2 POP DUP1 DUP3 GT ISZERO PUSH2 0x480F JUMPI PUSH1 0x0 DUP1 REVERT JUMPDEST PUSH2 0x40A9 DUP10 DUP4 DUP11 ADD PUSH2 0x3E0B JUMP JUMPDEST PUSH1 0x0 DUP1 PUSH1 0x0 PUSH1 0x40 DUP5 DUP7 SUB SLT ISZERO PUSH2 0x4830 JUMPI PUSH1 0x0 DUP1 REVERT JUMPDEST DUP4 CALLDATALOAD PUSH2 0x483B DUP2 PUSH2 0x3CAD JUMP JUMPDEST SWAP3 POP PUSH1 0x20 DUP5 ADD CALLDATALOAD PUSH1 0x1 PUSH1 0x1 PUSH1 0x40 SHL SUB DUP1 DUP3 GT ISZERO PUSH2 0x4857 JUMPI PUSH1 0x0 DUP1 REVERT JUMPDEST DUP2 DUP7 ADD SWAP2 POP DUP7 PUSH1 0x1F DUP4 ADD SLT PUSH2 0x486B JUMPI PUSH1 0x0 DUP1 REVERT JUMPDEST DUP2 CALLDATALOAD DUP2 DUP2 GT ISZERO PUSH2 0x487A JUMPI PUSH1 0x0 DUP1 REVERT JUMPDEST DUP8 PUSH1 0x20 DUP3 DUP6 ADD ADD GT ISZERO PUSH2 0x488C JUMPI PUSH1 0x0 DUP1 REVERT JUMPDEST PUSH1 0x20 DUP4 ADD SWAP5 POP DUP1 SWAP4 POP POP POP POP SWAP3 POP SWAP3 POP SWAP3 JUMP JUMPDEST PUSH1 0x0 DUP1 PUSH1 0x40 DUP4 DUP6 SUB SLT ISZERO PUSH2 0x48B2 JUMPI PUSH1 0x0 DUP1 REVERT JUMPDEST DUP3 CALLDATALOAD PUSH2 0x48BD DUP2 PUSH2 0x3CAD JUMP JUMPDEST SWAP2 POP PUSH1 0x20 DUP4 ADD CALLDATALOAD PUSH2 0x40FE DUP2 PUSH2 0x3CAD JUMP JUMPDEST PUSH1 0x0 DUP1 PUSH1 0x0 DUP1 PUSH1 0x0 PUSH1 0xA0 DUP7 DUP9 SUB SLT ISZERO PUSH2 0x48E5 JUMPI PUSH1 0x0 DUP1 REVERT JUMPDEST DUP6 CALLDATALOAD PUSH2 0x48F0 DUP2 PUSH2 0x3CAD JUMP JUMPDEST SWAP5 POP PUSH1 0x20 DUP7 ADD CALLDATALOAD PUSH2 0x4900 DUP2 PUSH2 0x3CAD JUMP JUMPDEST SWAP4 POP PUSH1 0x40 DUP7 ADD CALLDATALOAD SWAP3 POP PUSH1 0x60 DUP7 ADD CALLDATALOAD SWAP2 POP PUSH1 0x80 DUP7 ADD CALLDATALOAD PUSH1 0x1 PUSH1 0x1 PUSH1 0x40 SHL SUB DUP2 GT ISZERO PUSH2 0x4929 JUMPI PUSH1 0x0 DUP1 REVERT JUMPDEST PUSH2 0x40CC DUP9 DUP3 DUP10 ADD PUSH2 0x3E0B JUMP JUMPDEST PUSH1 0x0 DUP1 PUSH1 0x0 PUSH1 0x60 DUP5 DUP7 SUB SLT ISZERO PUSH2 0x494A JUMPI PUSH1 0x0 DUP1 REVERT JUMPDEST DUP4 CALLDATALOAD PUSH2 0x4955 DUP2 PUSH2 0x3CAD JUMP JUMPDEST SWAP6 PUSH1 0x20 DUP6 ADD CALLDATALOAD SWAP6 POP PUSH1 0x40 SWAP1 SWAP5 ADD CALLDATALOAD SWAP4 SWAP3 POP POP POP JUMP JUMPDEST PUSH1 0x20 DUP1 DUP3 MSTORE PUSH1 0x2A SWAP1 DUP3 ADD MSTORE PUSH32 0x455243313135353A2061646472657373207A65726F206973206E6F7420612076 PUSH1 0x40 DUP3 ADD MSTORE PUSH10 0x30B634B21037BBB732B9 PUSH1 0xB1 SHL PUSH1 0x60 DUP3 ADD MSTORE PUSH1 0x80 ADD SWAP1 JUMP JUMPDEST PUSH1 0x1 DUP2 DUP2 SHR SWAP1 DUP3 AND DUP1 PUSH2 0x49C8 JUMPI PUSH1 0x7F DUP3 AND SWAP2 POP JUMPDEST PUSH1 0x20 DUP3 LT DUP2 EQ ISZERO PUSH2 0x49E9 JUMPI PUSH4 0x4E487B71 PUSH1 0xE0 SHL PUSH1 0x0 MSTORE PUSH1 0x22 PUSH1 0x4 MSTORE PUSH1 0x24 PUSH1 0x0 REVERT JUMPDEST POP SWAP2 SWAP1 POP JUMP JUMPDEST PUSH1 0x20 DUP1 DUP3 MSTORE PUSH1 0x2E SWAP1 DUP3 ADD MSTORE PUSH32 0x455243313135353A2063616C6C6572206973206E6F7420746F6B656E206F776E PUSH1 0x40 DUP3 ADD MSTORE PUSH14 0x195C881BDC88185C1C1C9BDD9959 PUSH1 0x92 SHL PUSH1 0x60 DUP3 ADD MSTORE PUSH1 0x80 ADD SWAP1 JUMP JUMPDEST PUSH1 0x20 DUP1 DUP3 MSTORE PUSH1 0x2C SWAP1 DUP3 ADD MSTORE PUSH32 0x46756E6374696F6E206D7573742062652063616C6C6564207468726F75676820 PUSH1 0x40 DUP3 ADD MSTORE PUSH12 0x19195B1959D85D1958D85B1B PUSH1 0xA2 SHL PUSH1 0x60 DUP3 ADD MSTORE PUSH1 0x80 ADD SWAP1 JUMP JUMPDEST PUSH1 0x20 DUP1 DUP3 MSTORE PUSH1 0x2C SWAP1 DUP3 ADD MSTORE PUSH32 0x46756E6374696F6E206D7573742062652063616C6C6564207468726F75676820 PUSH1 0x40 DUP3 ADD MSTORE PUSH12 0x6163746976652070726F7879 PUSH1 0xA0 SHL PUSH1 0x60 DUP3 ADD MSTORE PUSH1 0x80 ADD SWAP1 JUMP JUMPDEST PUSH4 0x4E487B71 PUSH1 0xE0 SHL PUSH1 0x0 MSTORE PUSH1 0x32 PUSH1 0x4 MSTORE PUSH1 0x24 PUSH1 0x0 REVERT JUMPDEST PUSH4 0x4E487B71 PUSH1 0xE0 SHL PUSH1 0x0 MSTORE PUSH1 0x11 PUSH1 0x4 MSTORE PUSH1 0x24 PUSH1 0x0 REVERT JUMPDEST PUSH1 0x0 PUSH1 0x0 NOT DUP3 EQ ISZERO PUSH2 0x4B15 JUMPI PUSH2 0x4B15 PUSH2 0x4AEB JUMP JUMPDEST POP PUSH1 0x1 ADD SWAP1 JUMP JUMPDEST PUSH1 0x0 DUP2 MLOAD PUSH1 0x40 DUP5 MSTORE PUSH2 0x4B31 PUSH1 0x40 DUP6 ADD DUP3 PUSH2 0x3F37 JUMP JUMPDEST PUSH1 0x20 SWAP4 DUP5 ADD MLOAD PUSH1 0x1 PUSH1 0x1 PUSH1 0xA0 SHL SUB AND SWAP5 SWAP1 SWAP4 ADD SWAP4 SWAP1 SWAP4 MSTORE POP SWAP2 SWAP1 POP JUMP JUMPDEST PUSH1 0x0 PUSH2 0x160 DUP3 MLOAD DUP2 DUP6 MSTORE PUSH2 0x4B64 DUP3 DUP7 ADD DUP3 PUSH2 0x3F37 JUMP JUMPDEST SWAP2 POP POP PUSH1 0x20 DUP4 ADD MLOAD PUSH2 0x4B81 PUSH1 0x20 DUP7 ADD DUP3 PUSH1 0x1 PUSH1 0x1 PUSH1 0xA0 SHL SUB AND SWAP1 MSTORE JUMP JUMPDEST POP PUSH1 0x40 DUP4 ADD MLOAD DUP5 DUP3 SUB PUSH1 0x40 DUP7 ADD MSTORE PUSH2 0x4B99 DUP3 DUP3 PUSH2 0x3F37 JUMP JUMPDEST SWAP2 POP POP PUSH1 0x60 DUP4 ADD MLOAD DUP5 DUP3 SUB PUSH1 0x60 DUP7 ADD MSTORE PUSH2 0x4BB3 DUP3 DUP3 PUSH2 0x3F37 JUMP JUMPDEST SWAP2 POP POP PUSH1 0x80 DUP4 ADD MLOAD DUP5 DUP3 SUB PUSH1 0x80 DUP7 ADD MSTORE PUSH2 0x4BCD DUP3 DUP3 PUSH2 0x3F37 JUMP JUMPDEST SWAP2 POP POP PUSH1 0xA0 DUP4 ADD MLOAD DUP5 DUP3 SUB PUSH1 0xA0 DUP7 ADD MSTORE PUSH2 0x4BE7 DUP3 DUP3 PUSH2 0x3F37 JUMP JUMPDEST SWAP2 POP POP PUSH1 0xC0 DUP4 ADD MLOAD PUSH2 0x4BFE PUSH1 0xC0 DUP7 ADD DUP3 PUSH1 0xFF AND SWAP1 MSTORE JUMP JUMPDEST POP PUSH1 0xE0 DUP4 DUP2 ADD MLOAD SWAP1 DUP6 ADD MSTORE PUSH2 0x100 DUP1 DUP5 ADD MLOAD SWAP1 DUP6 ADD MSTORE PUSH2 0x120 DUP1 DUP5 ADD MLOAD SWAP1 DUP6 ADD MSTORE PUSH2 0x140 SWAP3 DUP4 ADD MLOAD SWAP3 SWAP1 SWAP4 ADD SWAP2 SWAP1 SWAP2 MSTORE POP SWAP1 JUMP JUMPDEST PUSH1 0x0 DUP2 MLOAD PUSH1 0x40 DUP5 MSTORE PUSH2 0x4C47 PUSH1 0x40 DUP6 ADD DUP3 PUSH2 0x3F37 JUMP JUMPDEST SWAP1 POP PUSH1 0x20 DUP4 ADD MLOAD DUP5 DUP3 SUB PUSH1 0x20 DUP7 ADD MSTORE PUSH2 0x3B75 DUP3 DUP3 PUSH2 0x3F37 JUMP JUMPDEST PUSH1 0x0 PUSH2 0x100 DUP3 MLOAD DUP2 DUP6 MSTORE PUSH2 0x4C76 DUP3 DUP7 ADD DUP3 PUSH2 0x3F37 JUMP JUMPDEST SWAP2 POP POP PUSH1 0x20 DUP4 ADD MLOAD DUP5 DUP3 SUB PUSH1 0x20 DUP7 ADD MSTORE PUSH2 0x4C90 DUP3 DUP3 PUSH2 0x3F37 JUMP JUMPDEST SWAP2 POP POP PUSH1 0x40 DUP4 ADD MLOAD DUP5 DUP3 SUB PUSH1 0x40 DUP7 ADD MSTORE PUSH2 0x4CAA DUP3 DUP3 PUSH2 0x3F37 JUMP JUMPDEST SWAP2 POP POP PUSH1 0x60 DUP4 ADD MLOAD DUP5 DUP3 SUB PUSH1 0x60 DUP7 ADD MSTORE PUSH2 0x4CC4 DUP3 DUP3 PUSH2 0x4B1C JUMP JUMPDEST SWAP2 POP POP PUSH1 0x80 DUP4 ADD MLOAD DUP5 DUP3 SUB PUSH1 0x80 DUP7 ADD MSTORE PUSH2 0x4CDE DUP3 DUP3 PUSH2 0x4B4E JUMP JUMPDEST SWAP2 POP POP PUSH1 0xA0 DUP4 ADD MLOAD DUP5 DUP3 SUB PUSH1 0xA0 DUP7 ADD MSTORE PUSH2 0x4CF8 DUP3 DUP3 PUSH2 0x4C32 JUMP JUMPDEST SWAP2 POP POP PUSH1 0xC0 DUP4 ADD MLOAD DUP5 DUP3 SUB PUSH1 0xC0 DUP7 ADD MSTORE PUSH2 0x4D12 DUP3 DUP3 PUSH2 0x3F37 JUMP JUMPDEST SWAP2 POP POP PUSH1 0xE0 DUP4 ADD MLOAD DUP5 DUP3 SUB PUSH1 0xE0 DUP7 ADD MSTORE PUSH2 0x3B75 DUP3 DUP3 PUSH2 0x3F37 JUMP JUMPDEST PUSH1 0x20 DUP2 MSTORE PUSH1 0x0 PUSH2 0x9B8 PUSH1 0x20 DUP4 ADD DUP5 PUSH2 0x4C60 JUMP JUMPDEST PUSH1 0x0 PUSH1 0x20 DUP3 DUP5 SUB SLT ISZERO PUSH2 0x4D51 JUMPI PUSH1 0x0 DUP1 REVERT JUMPDEST DUP2 MLOAD PUSH1 0x1 PUSH1 0x1 PUSH1 0x40 SHL SUB DUP2 GT ISZERO PUSH2 0x4D67 JUMPI PUSH1 0x0 DUP1 REVERT JUMPDEST DUP3 ADD PUSH1 0x1F DUP2 ADD DUP5 SGT PUSH2 0x4D78 JUMPI PUSH1 0x0 DUP1 REVERT JUMPDEST DUP1 MLOAD PUSH2 0x4D83 DUP2 PUSH2 0x3DE4 JUMP JUMPDEST PUSH1 0x40 MLOAD PUSH2 0x4D90 DUP3 DUP3 PUSH2 0x3D6C JUMP JUMPDEST DUP3 DUP2 MSTORE DUP7 PUSH1 0x20 DUP5 DUP7 ADD ADD GT ISZERO PUSH2 0x4DA5 JUMPI PUSH1 0x0 DUP1 REVERT JUMPDEST PUSH2 0x4DB6 DUP4 PUSH1 0x20 DUP4 ADD PUSH1 0x20 DUP8 ADD PUSH2 0x3F0B JUMP JUMPDEST SWAP7 SWAP6 POP POP POP POP POP POP JUMP JUMPDEST PUSH1 0x40 DUP2 MSTORE PUSH1 0x0 PUSH2 0x4DD3 PUSH1 0x40 DUP4 ADD DUP6 PUSH2 0x4C60 JUMP JUMPDEST DUP3 DUP2 SUB PUSH1 0x20 DUP5 ADD MSTORE PUSH2 0x3B75 DUP2 DUP6 PUSH2 0x3F37 JUMP JUMPDEST PUSH1 0x0 PUSH1 0x20 DUP3 DUP5 SUB SLT ISZERO PUSH2 0x4DF7 JUMPI PUSH1 0x0 DUP1 REVERT JUMPDEST DUP2 MLOAD PUSH2 0x9B8 DUP2 PUSH2 0x4126 JUMP JUMPDEST PUSH1 0x20 DUP1 DUP3 MSTORE PUSH1 0x27 SWAP1 DUP3 ADD MSTORE PUSH32 0x416D6F756E742073656E74206973206C657373207468616E20746865206D696E PUSH1 0x40 DUP3 ADD MSTORE PUSH7 0x74207072696365 PUSH1 0xC8 SHL PUSH1 0x60 DUP3 ADD MSTORE PUSH1 0x80 ADD SWAP1 JUMP JUMPDEST PUSH1 0x1 DUP1 PUSH1 0xA0 SHL SUB DUP5 AND DUP2 MSTORE DUP3 PUSH1 0x20 DUP3 ADD MSTORE PUSH1 0x60 PUSH1 0x40 DUP3 ADD MSTORE PUSH1 0x0 PUSH2 0x3B75 PUSH1 0x60 DUP4 ADD DUP5 PUSH2 0x3F37 JUMP JUMPDEST PUSH1 0x0 DUP1 PUSH1 0x0 PUSH1 0x60 DUP5 DUP7 SUB SLT ISZERO PUSH2 0x4E85 JUMPI PUSH1 0x0 DUP1 REVERT JUMPDEST DUP4 CALLDATALOAD PUSH1 0x1 PUSH1 0x1 PUSH1 0x40 SHL SUB DUP1 DUP3 GT ISZERO PUSH2 0x4E9C JUMPI PUSH1 0x0 DUP1 REVERT JUMPDEST PUSH2 0x4EA8 DUP8 DUP4 DUP9 ADD PUSH2 0x3FBB JUMP JUMPDEST SWAP5 POP PUSH1 0x20 DUP7 ADD CALLDATALOAD SWAP2 POP DUP1 DUP3 GT ISZERO PUSH2 0x4EBE JUMPI PUSH1 0x0 DUP1 REVERT JUMPDEST PUSH2 0x4ECA DUP8 DUP4 DUP9 ADD PUSH2 0x3FBB JUMP JUMPDEST SWAP4 POP PUSH1 0x40 DUP7 ADD CALLDATALOAD SWAP2 POP DUP1 DUP3 GT ISZERO PUSH2 0x4EE0 JUMPI PUSH1 0x0 DUP1 REVERT JUMPDEST POP PUSH2 0x4382 DUP7 DUP3 DUP8 ADD PUSH2 0x3E0B JUMP JUMPDEST PUSH1 0x0 PUSH1 0x20 DUP3 DUP5 SUB SLT ISZERO PUSH2 0x4EFF JUMPI PUSH1 0x0 DUP1 REVERT JUMPDEST POP MLOAD SWAP2 SWAP1 POP JUMP JUMPDEST PUSH1 0x20 DUP1 DUP3 MSTORE PUSH1 0x23 SWAP1 DUP3 ADD MSTORE PUSH32 0x455243313135353A206275726E2066726F6D20746865207A65726F2061646472 PUSH1 0x40 DUP3 ADD MSTORE PUSH3 0x657373 PUSH1 0xE8 SHL PUSH1 0x60 DUP3 ADD MSTORE PUSH1 0x80 ADD SWAP1 JUMP JUMPDEST PUSH1 0x20 DUP1 DUP3 MSTORE PUSH1 0x24 SWAP1 DUP3 ADD MSTORE PUSH32 0x455243313135353A206275726E20616D6F756E7420657863656564732062616C PUSH1 0x40 DUP3 ADD MSTORE PUSH4 0x616E6365 PUSH1 0xE0 SHL PUSH1 0x60 DUP3 ADD MSTORE PUSH1 0x80 ADD SWAP1 JUMP JUMPDEST PUSH1 0x20 DUP1 DUP3 MSTORE PUSH1 0x28 SWAP1 DUP3 ADD MSTORE PUSH32 0x455243313135353A2069647320616E6420616D6F756E7473206C656E67746820 PUSH1 0x40 DUP3 ADD MSTORE PUSH8 0xDAD2E6DAC2E8C6D PUSH1 0xC3 SHL PUSH1 0x60 DUP3 ADD MSTORE PUSH1 0x80 ADD SWAP1 JUMP JUMPDEST PUSH1 0x20 DUP1 DUP3 MSTORE PUSH1 0x25 SWAP1 DUP3 ADD MSTORE PUSH32 0x455243313135353A207472616E7366657220746F20746865207A65726F206164 PUSH1 0x40 DUP3 ADD MSTORE PUSH5 0x6472657373 PUSH1 0xD8 SHL PUSH1 0x60 DUP3 ADD MSTORE PUSH1 0x80 ADD SWAP1 JUMP JUMPDEST PUSH1 0x20 DUP1 DUP3 MSTORE PUSH1 0x2A SWAP1 DUP3 ADD MSTORE PUSH32 0x455243313135353A20696E73756666696369656E742062616C616E636520666F PUSH1 0x40 DUP3 ADD MSTORE PUSH10 0x39103A3930B739B332B9 PUSH1 0xB1 SHL PUSH1 0x60 DUP3 ADD MSTORE PUSH1 0x80 ADD SWAP1 JUMP JUMPDEST PUSH1 0x0 DUP3 NOT DUP3 GT ISZERO PUSH2 0x5077 JUMPI PUSH2 0x5077 PUSH2 0x4AEB JUMP JUMPDEST POP ADD SWAP1 JUMP JUMPDEST PUSH1 0x40 DUP2 MSTORE PUSH1 0x0 PUSH2 0x508F PUSH1 0x40 DUP4 ADD DUP6 PUSH2 0x4213 JUMP JUMPDEST DUP3 DUP2 SUB PUSH1 0x20 DUP5 ADD MSTORE PUSH2 0x3B75 DUP2 DUP6 PUSH2 0x4213 JUMP JUMPDEST PUSH1 0x0 DUP3 DUP3 LT ISZERO PUSH2 0x50B3 JUMPI PUSH2 0x50B3 PUSH2 0x4AEB JUMP JUMPDEST POP SUB SWAP1 JUMP JUMPDEST PUSH1 0x20 DUP1 DUP3 MSTORE PUSH1 0x2B SWAP1 DUP3 ADD MSTORE PUSH32 0x496E697469616C697A61626C653A20636F6E7472616374206973206E6F742069 PUSH1 0x40 DUP3 ADD MSTORE PUSH11 0x6E697469616C697A696E67 PUSH1 0xA8 SHL PUSH1 0x60 DUP3 ADD MSTORE PUSH1 0x80 ADD SWAP1 JUMP JUMPDEST PUSH1 0x20 DUP1 DUP3 MSTORE PUSH1 0x21 SWAP1 DUP3 ADD MSTORE PUSH32 0x455243313135353A206D696E7420746F20746865207A65726F20616464726573 PUSH1 0x40 DUP3 ADD MSTORE PUSH1 0x73 PUSH1 0xF8 SHL PUSH1 0x60 DUP3 ADD MSTORE PUSH1 0x80 ADD SWAP1 JUMP JUMPDEST PUSH1 0x1 PUSH1 0x1 PUSH1 0xA0 SHL SUB DUP7 DUP2 AND DUP3 MSTORE DUP6 AND PUSH1 0x20 DUP3 ADD MSTORE PUSH1 0xA0 PUSH1 0x40 DUP3 ADD DUP2 SWAP1 MSTORE PUSH1 0x0 SWAP1 PUSH2 0x5170 SWAP1 DUP4 ADD DUP7 PUSH2 0x4213 JUMP JUMPDEST DUP3 DUP2 SUB PUSH1 0x60 DUP5 ADD MSTORE PUSH2 0x5182 DUP2 DUP7 PUSH2 0x4213 JUMP JUMPDEST SWAP1 POP DUP3 DUP2 SUB PUSH1 0x80 DUP5 ADD MSTORE PUSH2 0x5196 DUP2 DUP6 PUSH2 0x3F37 JUMP JUMPDEST SWAP9 SWAP8 POP POP POP POP POP POP POP POP JUMP JUMPDEST PUSH1 0x0 PUSH1 0x20 DUP3 DUP5 SUB SLT ISZERO PUSH2 0x51B4 JUMPI PUSH1 0x0 DUP1 REVERT JUMPDEST DUP2 MLOAD PUSH2 0x9B8 DUP2 PUSH2 0x3CFE JUMP JUMPDEST PUSH1 0x0 PUSH1 0x3 RETURNDATASIZE GT ISZERO PUSH2 0xF8A JUMPI PUSH1 0x4 PUSH1 0x0 DUP1 RETURNDATACOPY POP PUSH1 0x0 MLOAD PUSH1 0xE0 SHR SWAP1 JUMP JUMPDEST PUSH1 0x0 PUSH1 0x44 RETURNDATASIZE LT ISZERO PUSH2 0x51E8 JUMPI SWAP1 JUMP JUMPDEST PUSH1 0x40 MLOAD PUSH1 0x3 NOT RETURNDATASIZE DUP2 ADD PUSH1 0x4 DUP4 RETURNDATACOPY DUP2 MLOAD RETURNDATASIZE PUSH1 0x1 PUSH1 0x1 PUSH1 0x40 SHL SUB DUP2 PUSH1 0x24 DUP5 ADD GT DUP2 DUP5 GT OR ISZERO PUSH2 0x5217 JUMPI POP POP POP POP POP SWAP1 JUMP JUMPDEST DUP3 DUP6 ADD SWAP2 POP DUP2 MLOAD DUP2 DUP2 GT ISZERO PUSH2 0x522F JUMPI POP POP POP POP POP POP SWAP1 JUMP JUMPDEST DUP5 RETURNDATASIZE DUP8 ADD ADD PUSH1 0x20 DUP3 DUP6 ADD ADD GT ISZERO PUSH2 0x5249 JUMPI POP POP POP POP POP POP SWAP1 JUMP JUMPDEST PUSH2 0x5258 PUSH1 0x20 DUP3 DUP7 ADD ADD DUP8 PUSH2 0x3D6C JUMP JUMPDEST POP SWAP1 SWAP6 SWAP5 POP POP POP POP POP JUMP JUMPDEST PUSH1 0x20 DUP1 DUP3 MSTORE PUSH1 0x28 SWAP1 DUP3 ADD MSTORE PUSH32 0x455243313135353A204552433131353552656365697665722072656A65637465 PUSH1 0x40 DUP3 ADD MSTORE PUSH8 0x6420746F6B656E73 PUSH1 0xC0 SHL PUSH1 0x60 DUP3 ADD MSTORE PUSH1 0x80 ADD SWAP1 JUMP JUMPDEST PUSH23 0x20B1B1B2B9B9A1B7B73A3937B61D1030B1B1B7BAB73A1 PUSH1 0x4D SHL DUP2 MSTORE PUSH1 0x0 DUP4 MLOAD PUSH2 0x52DD DUP2 PUSH1 0x17 DUP6 ADD PUSH1 0x20 DUP9 ADD PUSH2 0x3F0B JUMP JUMPDEST PUSH17 0x1034B99036B4B9B9B4B733903937B6329 PUSH1 0x7D SHL PUSH1 0x17 SWAP2 DUP5 ADD SWAP2 DUP3 ADD MSTORE DUP4 MLOAD PUSH2 0x530E DUP2 PUSH1 0x28 DUP5 ADD PUSH1 0x20 DUP9 ADD PUSH2 0x3F0B JUMP JUMPDEST ADD PUSH1 0x28 ADD SWAP5 SWAP4 POP POP POP POP JUMP JUMPDEST PUSH1 0x1 PUSH1 0x1 PUSH1 0xA0 SHL SUB DUP7 DUP2 AND DUP3 MSTORE DUP6 AND PUSH1 0x20 DUP3 ADD MSTORE PUSH1 0x40 DUP2 ADD DUP5 SWAP1 MSTORE PUSH1 0x60 DUP2 ADD DUP4 SWAP1 MSTORE PUSH1 0xA0 PUSH1 0x80 DUP3 ADD DUP2 SWAP1 MSTORE PUSH1 0x0 SWAP1 PUSH2 0x5354 SWAP1 DUP4 ADD DUP5 PUSH2 0x3F37 JUMP JUMPDEST SWAP8 SWAP7 POP POP POP POP POP POP POP JUMP JUMPDEST PUSH1 0x0 DUP2 PUSH1 0x0 NOT DIV DUP4 GT DUP3 ISZERO ISZERO AND ISZERO PUSH2 0x5379 JUMPI PUSH2 0x5379 PUSH2 0x4AEB JUMP JUMPDEST POP MUL SWAP1 JUMP JUMPDEST PUSH1 0x0 DUP2 PUSH2 0x538D JUMPI PUSH2 0x538D PUSH2 0x4AEB JUMP JUMPDEST POP PUSH1 0x0 NOT ADD SWAP1 JUMP JUMPDEST PUSH4 0x4E487B71 PUSH1 0xE0 SHL PUSH1 0x0 MSTORE PUSH1 0x31 PUSH1 0x4 MSTORE PUSH1 0x24 PUSH1 0x0 REVERT JUMPDEST PUSH1 0x0 DUP3 MLOAD PUSH2 0x53BD DUP2 DUP5 PUSH1 0x20 DUP8 ADD PUSH2 0x3F0B JUMP JUMPDEST SWAP2 SWAP1 SWAP2 ADD SWAP3 SWAP2 POP POP JUMP INVALID 0x4A CODECOPY 0xDC MOD 0xD4 0xC0 0xDB 0xC6 0x4B PUSH17 0xAF90FD698A233A518AA5D07E595D983B8C SDIV 0x26 0xC8 0xF7 0xFB 0xC3 0xD5 DUP2 PUSH9 0xC5AE7397731D063D5B 0xBF RETURNDATASIZE PUSH6 0x7854427343F4 0xC0 DUP4 0x24 0xF PUSH27 0xACAA2D0F62899BD46557473CB80307A9DABC297131CED39608330A 0x2D 0x29 0xB2 0xD5 0x2B PUSH7 0xC03923E360894 LOG1 EXTCODESIZE LOG1 LOG3 0x21 MOD PUSH8 0xC828492DB98DCA3E KECCAK256 PUSH23 0xCC3735A920A3CA505D382BBC416464726573733A206C6F PUSH24 0x2D6C6576656C2064656C65676174652063616C6C20666169 PUSH13 0x6564A264697066735822122021 SLOAD LOG0 0x27 MSTORE 0xC6 0xBF JUMPDEST 0xFC 0xB4 DUP16 PUSH22 0xEC5CF1A2CB0D2EFE1F4D60CEEB3865005691719B6473 PUSH16 0x6C634300080C00330000000000000000 "},"methodIdentifiers":{"DEFAULT_ADMIN_ROLE()":"a217fddf","DEPOSITOR_ROLE()":"a3b0b5a3","GOVERN_ROLE()":"38b7f446","balanceOf(address,uint256)":"00fdd58e","balanceOfBatch(address[],uint256[])":"4e1273f4","balanceOfCredential(address,string)":"06b6ac69","burn(address,uint256,uint256)":"f5298aca","burnBatch(address,uint256[],uint256[])":"6b20c454","contractURI()":"e8a3d485","credentialMinted(uint256)":"1ecd3480","deposit(address,bytes)":"cf2c52cb","exists(uint256)":"4f558e79","feesAvailableForWithdraw()":"de5785d5","forceRegister()":"37b0f07d","getRoleAdmin(bytes32)":"248a9ca3","getRoleMember(bytes32,uint256)":"9010d07c","getRoleMemberCount(bytes32)":"ca15c873","getTokenId(string)":"1e7663bc","grantRole(bytes32,address)":"2f2ff15d","hasRole(bytes32,address)":"91d14854","initialize(string,string,uint256,address)":"bd3a13f6","isApprovedForAll(address,address)":"e985e9c5","isTrustedForwarder(address)":"572b6c05","mintWithCredential(address,string,(string,string,string,(string,address),(string,address,string,string,string,string,uint8,uint256,uint256,uint256,uint256),(string,string),string,string),bytes,bytes)":"ca6b12f1","pause()":"8456cb59","paused()":"5c975abb","payments(address)":"e2982c21","price()":"a035b1fe","proxiableUUID()":"52d1902d","renounceRole(bytes32,address)":"36568abe","revokeRole(bytes32,address)":"d547741f","safeBatchTransferFrom(address,address,uint256[],uint256[],bytes)":"2eb2c2d6","safeTransferFrom(address,address,uint256,uint256,bytes)":"f242432a","setApprovalForAll(address,bool)":"a22cb465","setContractURI(string)":"938e3d7b","setPrice(uint256)":"91b7f5ed","setTrustedForwarder(address)":"da742228","setURI(string)":"02fe5305","setforceRegister(bool)":"43401543","supportsInterface(bytes4)":"01ffc9a7","totalSupply(uint256)":"bd85b039","trustedForwarder()":"7da0a877","unpause()":"3f4ba83a","upgradeTo(address)":"3659cfe6","upgradeToAndCall(address,bytes)":"4f1ef286","uri(uint256)":"0e89341c","withdrawBatch(uint256[],uint256[])":"5c5fb521","withdrawFees(address,uint256)":"ad3b1b47","withdrawPayments(address)":"31b3eb94","withdrawSingle(uint256,uint256)":"2262f53f"}},"storageLayout":{"storage":[{"astId":1106,"contract":"contracts/KrebitNFT.sol:KrebitNFT","label":"_initialized","offset":0,"slot":"0","type":"t_uint8"},{"astId":1109,"contract":"contracts/KrebitNFT.sol:KrebitNFT","label":"_initializing","offset":1,"slot":"0","type":"t_bool"},{"astId":3776,"contract":"contracts/KrebitNFT.sol:KrebitNFT","label":"__gap","offset":0,"slot":"1","type":"t_array(t_uint256)50_storage"},{"astId":4183,"contract":"contracts/KrebitNFT.sol:KrebitNFT","label":"__gap","offset":0,"slot":"51","type":"t_array(t_uint256)50_storage"},{"astId":184,"contract":"contracts/KrebitNFT.sol:KrebitNFT","label":"_roles","offset":0,"slot":"101","type":"t_mapping(t_bytes32,t_struct(RoleData)179_storage)"},{"astId":479,"contract":"contracts/KrebitNFT.sol:KrebitNFT","label":"__gap","offset":0,"slot":"102","type":"t_array(t_uint256)49_storage"},{"astId":33,"contract":"contracts/KrebitNFT.sol:KrebitNFT","label":"_roleMembers","offset":0,"slot":"151","type":"t_mapping(t_bytes32,t_struct(AddressSet)5699_storage)"},{"astId":143,"contract":"contracts/KrebitNFT.sol:KrebitNFT","label":"__gap","offset":0,"slot":"152","type":"t_array(t_uint256)49_storage"},{"astId":1720,"contract":"contracts/KrebitNFT.sol:KrebitNFT","label":"_balances","offset":0,"slot":"201","type":"t_mapping(t_uint256,t_mapping(t_address,t_uint256))"},{"astId":1726,"contract":"contracts/KrebitNFT.sol:KrebitNFT","label":"_operatorApprovals","offset":0,"slot":"202","type":"t_mapping(t_address,t_mapping(t_address,t_bool))"},{"astId":1728,"contract":"contracts/KrebitNFT.sol:KrebitNFT","label":"_uri","offset":0,"slot":"203","type":"t_string_storage"},{"astId":2935,"contract":"contracts/KrebitNFT.sol:KrebitNFT","label":"__gap","offset":0,"slot":"204","type":"t_array(t_uint256)47_storage"},{"astId":1425,"contract":"contracts/KrebitNFT.sol:KrebitNFT","label":"_paused","offset":0,"slot":"251","type":"t_bool"},{"astId":1530,"contract":"contracts/KrebitNFT.sol:KrebitNFT","label":"__gap","offset":0,"slot":"252","type":"t_array(t_uint256)49_storage"},{"astId":3258,"contract":"contracts/KrebitNFT.sol:KrebitNFT","label":"__gap","offset":0,"slot":"301","type":"t_array(t_uint256)50_storage"},{"astId":3187,"contract":"contracts/KrebitNFT.sol:KrebitNFT","label":"__gap","offset":0,"slot":"351","type":"t_array(t_uint256)50_storage"},{"astId":3284,"contract":"contracts/KrebitNFT.sol:KrebitNFT","label":"_totalSupply","offset":0,"slot":"401","type":"t_mapping(t_uint256,t_uint256)"},{"astId":3435,"contract":"contracts/KrebitNFT.sol:KrebitNFT","label":"__gap","offset":0,"slot":"402","type":"t_array(t_uint256)49_storage"},{"astId":1088,"contract":"contracts/KrebitNFT.sol:KrebitNFT","label":"__gap","offset":0,"slot":"451","type":"t_array(t_uint256)50_storage"},{"astId":1403,"contract":"contracts/KrebitNFT.sol:KrebitNFT","label":"__gap","offset":0,"slot":"501","type":"t_array(t_uint256)50_storage"},{"astId":1541,"contract":"contracts/KrebitNFT.sol:KrebitNFT","label":"_escrow","offset":0,"slot":"551","type":"t_contract(EscrowUpgradeable)4140"},{"astId":1617,"contract":"contracts/KrebitNFT.sol:KrebitNFT","label":"__gap","offset":0,"slot":"552","type":"t_array(t_uint256)50_storage"},{"astId":1632,"contract":"contracts/KrebitNFT.sol:KrebitNFT","label":"_status","offset":0,"slot":"602","type":"t_uint256"},{"astId":1690,"contract":"contracts/KrebitNFT.sol:KrebitNFT","label":"__gap","offset":0,"slot":"603","type":"t_array(t_uint256)49_storage"},{"astId":6066,"contract":"contracts/KrebitNFT.sol:KrebitNFT","label":"_KrebitContract","offset":0,"slot":"652","type":"t_contract(IKRBToken)6028"},{"astId":6069,"contract":"contracts/KrebitNFT.sol:KrebitNFT","label":"_contractURI","offset":0,"slot":"653","type":"t_string_storage"},{"astId":6072,"contract":"contracts/KrebitNFT.sol:KrebitNFT","label":"trustedForwarder","offset":0,"slot":"654","type":"t_address"},{"astId":6075,"contract":"contracts/KrebitNFT.sol:KrebitNFT","label":"price","offset":0,"slot":"655","type":"t_uint256"},{"astId":6078,"contract":"contracts/KrebitNFT.sol:KrebitNFT","label":"feesAvailableForWithdraw","offset":0,"slot":"656","type":"t_uint256"},{"astId":6081,"contract":"contracts/KrebitNFT.sol:KrebitNFT","label":"forceRegister","offset":0,"slot":"657","type":"t_bool"},{"astId":6088,"contract":"contracts/KrebitNFT.sol:KrebitNFT","label":"credentialMinted","offset":0,"slot":"658","type":"t_mapping(t_uint256,t_bool)"},{"astId":6823,"contract":"contracts/KrebitNFT.sol:KrebitNFT","label":"__gap","offset":0,"slot":"659","type":"t_array(t_uint256)50_storage"}],"types":{"t_address":{"encoding":"inplace","label":"address","numberOfBytes":"20"},"t_array(t_bytes32)dyn_storage":{"base":"t_bytes32","encoding":"dynamic_array","label":"bytes32[]","numberOfBytes":"32"},"t_array(t_uint256)47_storage":{"base":"t_uint256","encoding":"inplace","label":"uint256[47]","numberOfBytes":"1504"},"t_array(t_uint256)49_storage":{"base":"t_uint256","encoding":"inplace","label":"uint256[49]","numberOfBytes":"1568"},"t_array(t_uint256)50_storage":{"base":"t_uint256","encoding":"inplace","label":"uint256[50]","numberOfBytes":"1600"},"t_bool":{"encoding":"inplace","label":"bool","numberOfBytes":"1"},"t_bytes32":{"encoding":"inplace","label":"bytes32","numberOfBytes":"32"},"t_contract(EscrowUpgradeable)4140":{"encoding":"inplace","label":"contract EscrowUpgradeable","numberOfBytes":"20"},"t_contract(IKRBToken)6028":{"encoding":"inplace","label":"contract IKRBToken","numberOfBytes":"20"},"t_mapping(t_address,t_bool)":{"encoding":"mapping","key":"t_address","label":"mapping(address => bool)","numberOfBytes":"32","value":"t_bool"},"t_mapping(t_address,t_mapping(t_address,t_bool))":{"encoding":"mapping","key":"t_address","label":"mapping(address => mapping(address => bool))","numberOfBytes":"32","value":"t_mapping(t_address,t_bool)"},"t_mapping(t_address,t_uint256)":{"encoding":"mapping","key":"t_address","label":"mapping(address => uint256)","numberOfBytes":"32","value":"t_uint256"},"t_mapping(t_bytes32,t_struct(AddressSet)5699_storage)":{"encoding":"mapping","key":"t_bytes32","label":"mapping(bytes32 => struct EnumerableSetUpgradeable.AddressSet)","numberOfBytes":"32","value":"t_struct(AddressSet)5699_storage"},"t_mapping(t_bytes32,t_struct(RoleData)179_storage)":{"encoding":"mapping","key":"t_bytes32","label":"mapping(bytes32 => struct AccessControlUpgradeable.RoleData)","numberOfBytes":"32","value":"t_struct(RoleData)179_storage"},"t_mapping(t_bytes32,t_uint256)":{"encoding":"mapping","key":"t_bytes32","label":"mapping(bytes32 => uint256)","numberOfBytes":"32","value":"t_uint256"},"t_mapping(t_uint256,t_bool)":{"encoding":"mapping","key":"t_uint256","label":"mapping(uint256 => bool)","numberOfBytes":"32","value":"t_bool"},"t_mapping(t_uint256,t_mapping(t_address,t_uint256))":{"encoding":"mapping","key":"t_uint256","label":"mapping(uint256 => mapping(address => uint256))","numberOfBytes":"32","value":"t_mapping(t_address,t_uint256)"},"t_mapping(t_uint256,t_uint256)":{"encoding":"mapping","key":"t_uint256","label":"mapping(uint256 => uint256)","numberOfBytes":"32","value":"t_uint256"},"t_string_storage":{"encoding":"bytes","label":"string","numberOfBytes":"32"},"t_struct(AddressSet)5699_storage":{"encoding":"inplace","label":"struct EnumerableSetUpgradeable.AddressSet","members":[{"astId":5698,"contract":"contracts/KrebitNFT.sol:KrebitNFT","label":"_inner","offset":0,"slot":"0","type":"t_struct(Set)5384_storage"}],"numberOfBytes":"64"},"t_struct(RoleData)179_storage":{"encoding":"inplace","label":"struct AccessControlUpgradeable.RoleData","members":[{"astId":176,"contract":"contracts/KrebitNFT.sol:KrebitNFT","label":"members","offset":0,"slot":"0","type":"t_mapping(t_address,t_bool)"},{"astId":178,"contract":"contracts/KrebitNFT.sol:KrebitNFT","label":"adminRole","offset":0,"slot":"1","type":"t_bytes32"}],"numberOfBytes":"64"},"t_struct(Set)5384_storage":{"encoding":"inplace","label":"struct EnumerableSetUpgradeable.Set","members":[{"astId":5379,"contract":"contracts/KrebitNFT.sol:KrebitNFT","label":"_values","offset":0,"slot":"0","type":"t_array(t_bytes32)dyn_storage"},{"astId":5383,"contract":"contracts/KrebitNFT.sol:KrebitNFT","label":"_indexes","offset":0,"slot":"1","type":"t_mapping(t_bytes32,t_uint256)"}],"numberOfBytes":"64"},"t_uint256":{"encoding":"inplace","label":"uint256","numberOfBytes":"32"},"t_uint8":{"encoding":"inplace","label":"uint8","numberOfBytes":"1"}}}}}}