{
  "_format": "hh-sol-artifact-1",
  "contractName": "MainnetKrebitNFT",
  "sourceName": "contracts/MainnetKrebitNFT.sol",
  "abi": [
    {
      "inputs": [],
      "stateMutability": "nonpayable",
      "type": "constructor"
    },
    {
      "anonymous": false,
      "inputs": [
        {
          "indexed": false,
          "internalType": "address",
          "name": "previousAdmin",
          "type": "address"
        },
        {
          "indexed": false,
          "internalType": "address",
          "name": "newAdmin",
          "type": "address"
        }
      ],
      "name": "AdminChanged",
      "type": "event"
    },
    {
      "anonymous": false,
      "inputs": [
        {
          "indexed": true,
          "internalType": "address",
          "name": "account",
          "type": "address"
        },
        {
          "indexed": true,
          "internalType": "address",
          "name": "operator",
          "type": "address"
        },
        {
          "indexed": false,
          "internalType": "bool",
          "name": "approved",
          "type": "bool"
        }
      ],
      "name": "ApprovalForAll",
      "type": "event"
    },
    {
      "anonymous": false,
      "inputs": [
        {
          "indexed": true,
          "internalType": "address",
          "name": "beacon",
          "type": "address"
        }
      ],
      "name": "BeaconUpgraded",
      "type": "event"
    },
    {
      "anonymous": false,
      "inputs": [
        {
          "indexed": false,
          "internalType": "uint8",
          "name": "version",
          "type": "uint8"
        }
      ],
      "name": "Initialized",
      "type": "event"
    },
    {
      "anonymous": false,
      "inputs": [
        {
          "indexed": false,
          "internalType": "address",
          "name": "account",
          "type": "address"
        }
      ],
      "name": "Paused",
      "type": "event"
    },
    {
      "anonymous": false,
      "inputs": [
        {
          "indexed": true,
          "internalType": "bytes32",
          "name": "role",
          "type": "bytes32"
        },
        {
          "indexed": true,
          "internalType": "bytes32",
          "name": "previousAdminRole",
          "type": "bytes32"
        },
        {
          "indexed": true,
          "internalType": "bytes32",
          "name": "newAdminRole",
          "type": "bytes32"
        }
      ],
      "name": "RoleAdminChanged",
      "type": "event"
    },
    {
      "anonymous": false,
      "inputs": [
        {
          "indexed": true,
          "internalType": "bytes32",
          "name": "role",
          "type": "bytes32"
        },
        {
          "indexed": true,
          "internalType": "address",
          "name": "account",
          "type": "address"
        },
        {
          "indexed": true,
          "internalType": "address",
          "name": "sender",
          "type": "address"
        }
      ],
      "name": "RoleGranted",
      "type": "event"
    },
    {
      "anonymous": false,
      "inputs": [
        {
          "indexed": true,
          "internalType": "bytes32",
          "name": "role",
          "type": "bytes32"
        },
        {
          "indexed": true,
          "internalType": "address",
          "name": "account",
          "type": "address"
        },
        {
          "indexed": true,
          "internalType": "address",
          "name": "sender",
          "type": "address"
        }
      ],
      "name": "RoleRevoked",
      "type": "event"
    },
    {
      "anonymous": false,
      "inputs": [
        {
          "indexed": true,
          "internalType": "address",
          "name": "operator",
          "type": "address"
        },
        {
          "indexed": true,
          "internalType": "address",
          "name": "from",
          "type": "address"
        },
        {
          "indexed": true,
          "internalType": "address",
          "name": "to",
          "type": "address"
        },
        {
          "indexed": false,
          "internalType": "uint256[]",
          "name": "ids",
          "type": "uint256[]"
        },
        {
          "indexed": false,
          "internalType": "uint256[]",
          "name": "values",
          "type": "uint256[]"
        }
      ],
      "name": "TransferBatch",
      "type": "event"
    },
    {
      "anonymous": false,
      "inputs": [
        {
          "indexed": true,
          "internalType": "address",
          "name": "operator",
          "type": "address"
        },
        {
          "indexed": true,
          "internalType": "address",
          "name": "from",
          "type": "address"
        },
        {
          "indexed": true,
          "internalType": "address",
          "name": "to",
          "type": "address"
        },
        {
          "indexed": false,
          "internalType": "uint256",
          "name": "id",
          "type": "uint256"
        },
        {
          "indexed": false,
          "internalType": "uint256",
          "name": "value",
          "type": "uint256"
        }
      ],
      "name": "TransferSingle",
      "type": "event"
    },
    {
      "anonymous": false,
      "inputs": [
        {
          "indexed": false,
          "internalType": "string",
          "name": "value",
          "type": "string"
        },
        {
          "indexed": true,
          "internalType": "uint256",
          "name": "id",
          "type": "uint256"
        }
      ],
      "name": "URI",
      "type": "event"
    },
    {
      "anonymous": false,
      "inputs": [
        {
          "indexed": false,
          "internalType": "address",
          "name": "account",
          "type": "address"
        }
      ],
      "name": "Unpaused",
      "type": "event"
    },
    {
      "anonymous": false,
      "inputs": [
        {
          "indexed": true,
          "internalType": "address",
          "name": "implementation",
          "type": "address"
        }
      ],
      "name": "Upgraded",
      "type": "event"
    },
    {
      "inputs": [],
      "name": "DEFAULT_ADMIN_ROLE",
      "outputs": [
        {
          "internalType": "bytes32",
          "name": "",
          "type": "bytes32"
        }
      ],
      "stateMutability": "view",
      "type": "function"
    },
    {
      "inputs": [],
      "name": "GOVERN_ROLE",
      "outputs": [
        {
          "internalType": "bytes32",
          "name": "",
          "type": "bytes32"
        }
      ],
      "stateMutability": "view",
      "type": "function"
    },
    {
      "inputs": [],
      "name": "PREDICATE_ROLE",
      "outputs": [
        {
          "internalType": "bytes32",
          "name": "",
          "type": "bytes32"
        }
      ],
      "stateMutability": "view",
      "type": "function"
    },
    {
      "inputs": [
        {
          "internalType": "address",
          "name": "account",
          "type": "address"
        },
        {
          "internalType": "uint256",
          "name": "id",
          "type": "uint256"
        }
      ],
      "name": "balanceOf",
      "outputs": [
        {
          "internalType": "uint256",
          "name": "",
          "type": "uint256"
        }
      ],
      "stateMutability": "view",
      "type": "function"
    },
    {
      "inputs": [
        {
          "internalType": "address[]",
          "name": "accounts",
          "type": "address[]"
        },
        {
          "internalType": "uint256[]",
          "name": "ids",
          "type": "uint256[]"
        }
      ],
      "name": "balanceOfBatch",
      "outputs": [
        {
          "internalType": "uint256[]",
          "name": "",
          "type": "uint256[]"
        }
      ],
      "stateMutability": "view",
      "type": "function"
    },
    {
      "inputs": [
        {
          "internalType": "address",
          "name": "account",
          "type": "address"
        },
        {
          "internalType": "string",
          "name": "credentialSubjectType",
          "type": "string"
        }
      ],
      "name": "balanceOfCredential",
      "outputs": [
        {
          "internalType": "uint256",
          "name": "",
          "type": "uint256"
        }
      ],
      "stateMutability": "view",
      "type": "function"
    },
    {
      "inputs": [
        {
          "internalType": "address",
          "name": "account",
          "type": "address"
        },
        {
          "internalType": "uint256",
          "name": "id",
          "type": "uint256"
        },
        {
          "internalType": "uint256",
          "name": "value",
          "type": "uint256"
        }
      ],
      "name": "burn",
      "outputs": [],
      "stateMutability": "nonpayable",
      "type": "function"
    },
    {
      "inputs": [
        {
          "internalType": "address",
          "name": "account",
          "type": "address"
        },
        {
          "internalType": "uint256[]",
          "name": "ids",
          "type": "uint256[]"
        },
        {
          "internalType": "uint256[]",
          "name": "values",
          "type": "uint256[]"
        }
      ],
      "name": "burnBatch",
      "outputs": [],
      "stateMutability": "nonpayable",
      "type": "function"
    },
    {
      "inputs": [],
      "name": "contractURI",
      "outputs": [
        {
          "internalType": "string",
          "name": "",
          "type": "string"
        }
      ],
      "stateMutability": "view",
      "type": "function"
    },
    {
      "inputs": [
        {
          "internalType": "uint256",
          "name": "id",
          "type": "uint256"
        }
      ],
      "name": "exists",
      "outputs": [
        {
          "internalType": "bool",
          "name": "",
          "type": "bool"
        }
      ],
      "stateMutability": "view",
      "type": "function"
    },
    {
      "inputs": [
        {
          "internalType": "bytes32",
          "name": "role",
          "type": "bytes32"
        }
      ],
      "name": "getRoleAdmin",
      "outputs": [
        {
          "internalType": "bytes32",
          "name": "",
          "type": "bytes32"
        }
      ],
      "stateMutability": "view",
      "type": "function"
    },
    {
      "inputs": [
        {
          "internalType": "bytes32",
          "name": "role",
          "type": "bytes32"
        },
        {
          "internalType": "uint256",
          "name": "index",
          "type": "uint256"
        }
      ],
      "name": "getRoleMember",
      "outputs": [
        {
          "internalType": "address",
          "name": "",
          "type": "address"
        }
      ],
      "stateMutability": "view",
      "type": "function"
    },
    {
      "inputs": [
        {
          "internalType": "bytes32",
          "name": "role",
          "type": "bytes32"
        }
      ],
      "name": "getRoleMemberCount",
      "outputs": [
        {
          "internalType": "uint256",
          "name": "",
          "type": "uint256"
        }
      ],
      "stateMutability": "view",
      "type": "function"
    },
    {
      "inputs": [
        {
          "internalType": "string",
          "name": "credentialSubjectType",
          "type": "string"
        }
      ],
      "name": "getTokenId",
      "outputs": [
        {
          "internalType": "uint256",
          "name": "",
          "type": "uint256"
        }
      ],
      "stateMutability": "view",
      "type": "function"
    },
    {
      "inputs": [
        {
          "internalType": "bytes32",
          "name": "role",
          "type": "bytes32"
        },
        {
          "internalType": "address",
          "name": "account",
          "type": "address"
        }
      ],
      "name": "grantRole",
      "outputs": [],
      "stateMutability": "nonpayable",
      "type": "function"
    },
    {
      "inputs": [
        {
          "internalType": "bytes32",
          "name": "role",
          "type": "bytes32"
        },
        {
          "internalType": "address",
          "name": "account",
          "type": "address"
        }
      ],
      "name": "hasRole",
      "outputs": [
        {
          "internalType": "bool",
          "name": "",
          "type": "bool"
        }
      ],
      "stateMutability": "view",
      "type": "function"
    },
    {
      "inputs": [
        {
          "internalType": "string",
          "name": "uri",
          "type": "string"
        },
        {
          "internalType": "string",
          "name": "collectionURI",
          "type": "string"
        }
      ],
      "name": "initialize",
      "outputs": [],
      "stateMutability": "nonpayable",
      "type": "function"
    },
    {
      "inputs": [
        {
          "internalType": "address",
          "name": "account",
          "type": "address"
        },
        {
          "internalType": "address",
          "name": "operator",
          "type": "address"
        }
      ],
      "name": "isApprovedForAll",
      "outputs": [
        {
          "internalType": "bool",
          "name": "",
          "type": "bool"
        }
      ],
      "stateMutability": "view",
      "type": "function"
    },
    {
      "inputs": [
        {
          "internalType": "address",
          "name": "account",
          "type": "address"
        },
        {
          "internalType": "uint256",
          "name": "id",
          "type": "uint256"
        },
        {
          "internalType": "uint256",
          "name": "amount",
          "type": "uint256"
        },
        {
          "internalType": "bytes",
          "name": "data",
          "type": "bytes"
        }
      ],
      "name": "mint",
      "outputs": [],
      "stateMutability": "nonpayable",
      "type": "function"
    },
    {
      "inputs": [
        {
          "internalType": "address",
          "name": "to",
          "type": "address"
        },
        {
          "internalType": "uint256[]",
          "name": "ids",
          "type": "uint256[]"
        },
        {
          "internalType": "uint256[]",
          "name": "amounts",
          "type": "uint256[]"
        },
        {
          "internalType": "bytes",
          "name": "data",
          "type": "bytes"
        }
      ],
      "name": "mintBatch",
      "outputs": [],
      "stateMutability": "nonpayable",
      "type": "function"
    },
    {
      "inputs": [],
      "name": "pause",
      "outputs": [],
      "stateMutability": "nonpayable",
      "type": "function"
    },
    {
      "inputs": [],
      "name": "paused",
      "outputs": [
        {
          "internalType": "bool",
          "name": "",
          "type": "bool"
        }
      ],
      "stateMutability": "view",
      "type": "function"
    },
    {
      "inputs": [],
      "name": "proxiableUUID",
      "outputs": [
        {
          "internalType": "bytes32",
          "name": "",
          "type": "bytes32"
        }
      ],
      "stateMutability": "view",
      "type": "function"
    },
    {
      "inputs": [
        {
          "internalType": "bytes32",
          "name": "role",
          "type": "bytes32"
        },
        {
          "internalType": "address",
          "name": "account",
          "type": "address"
        }
      ],
      "name": "renounceRole",
      "outputs": [],
      "stateMutability": "nonpayable",
      "type": "function"
    },
    {
      "inputs": [
        {
          "internalType": "bytes32",
          "name": "role",
          "type": "bytes32"
        },
        {
          "internalType": "address",
          "name": "account",
          "type": "address"
        }
      ],
      "name": "revokeRole",
      "outputs": [],
      "stateMutability": "nonpayable",
      "type": "function"
    },
    {
      "inputs": [
        {
          "internalType": "address",
          "name": "from",
          "type": "address"
        },
        {
          "internalType": "address",
          "name": "to",
          "type": "address"
        },
        {
          "internalType": "uint256[]",
          "name": "ids",
          "type": "uint256[]"
        },
        {
          "internalType": "uint256[]",
          "name": "amounts",
          "type": "uint256[]"
        },
        {
          "internalType": "bytes",
          "name": "data",
          "type": "bytes"
        }
      ],
      "name": "safeBatchTransferFrom",
      "outputs": [],
      "stateMutability": "nonpayable",
      "type": "function"
    },
    {
      "inputs": [
        {
          "internalType": "address",
          "name": "from",
          "type": "address"
        },
        {
          "internalType": "address",
          "name": "to",
          "type": "address"
        },
        {
          "internalType": "uint256",
          "name": "id",
          "type": "uint256"
        },
        {
          "internalType": "uint256",
          "name": "amount",
          "type": "uint256"
        },
        {
          "internalType": "bytes",
          "name": "data",
          "type": "bytes"
        }
      ],
      "name": "safeTransferFrom",
      "outputs": [],
      "stateMutability": "nonpayable",
      "type": "function"
    },
    {
      "inputs": [
        {
          "internalType": "address",
          "name": "operator",
          "type": "address"
        },
        {
          "internalType": "bool",
          "name": "approved",
          "type": "bool"
        }
      ],
      "name": "setApprovalForAll",
      "outputs": [],
      "stateMutability": "nonpayable",
      "type": "function"
    },
    {
      "inputs": [
        {
          "internalType": "string",
          "name": "newuri",
          "type": "string"
        }
      ],
      "name": "setContractURI",
      "outputs": [],
      "stateMutability": "nonpayable",
      "type": "function"
    },
    {
      "inputs": [
        {
          "internalType": "string",
          "name": "newuri",
          "type": "string"
        }
      ],
      "name": "setURI",
      "outputs": [],
      "stateMutability": "nonpayable",
      "type": "function"
    },
    {
      "inputs": [
        {
          "internalType": "bytes4",
          "name": "interfaceId",
          "type": "bytes4"
        }
      ],
      "name": "supportsInterface",
      "outputs": [
        {
          "internalType": "bool",
          "name": "",
          "type": "bool"
        }
      ],
      "stateMutability": "view",
      "type": "function"
    },
    {
      "inputs": [
        {
          "internalType": "uint256",
          "name": "id",
          "type": "uint256"
        }
      ],
      "name": "totalSupply",
      "outputs": [
        {
          "internalType": "uint256",
          "name": "",
          "type": "uint256"
        }
      ],
      "stateMutability": "view",
      "type": "function"
    },
    {
      "inputs": [],
      "name": "unpause",
      "outputs": [],
      "stateMutability": "nonpayable",
      "type": "function"
    },
    {
      "inputs": [
        {
          "internalType": "address",
          "name": "newImplementation",
          "type": "address"
        }
      ],
      "name": "upgradeTo",
      "outputs": [],
      "stateMutability": "nonpayable",
      "type": "function"
    },
    {
      "inputs": [
        {
          "internalType": "address",
          "name": "newImplementation",
          "type": "address"
        },
        {
          "internalType": "bytes",
          "name": "data",
          "type": "bytes"
        }
      ],
      "name": "upgradeToAndCall",
      "outputs": [],
      "stateMutability": "payable",
      "type": "function"
    },
    {
      "inputs": [
        {
          "internalType": "uint256",
          "name": "",
          "type": "uint256"
        }
      ],
      "name": "uri",
      "outputs": [
        {
          "internalType": "string",
          "name": "",
          "type": "string"
        }
      ],
      "stateMutability": "view",
      "type": "function"
    }
  ],
  "bytecode": "0x60a0604052306080523480156200001557600080fd5b506200002062000026565b620000e8565b600054610100900460ff1615620000935760405162461bcd60e51b815260206004820152602760248201527f496e697469616c697a61626c653a20636f6e747261637420697320696e697469604482015266616c697a696e6760c81b606482015260840160405180910390fd5b60005460ff9081161015620000e6576000805460ff191660ff9081179091556040519081527f7f26b83ff96e1f2b6a682f133852f6798a09c465da95921460cefb38474024989060200160405180910390a15b565b608051613b4f6200012060003960008181610a0801528181610a4801528181610d2401528181610d640152610ddc0152613b4f6000f3fe6080604052600436106101ce5760003560e01c806352d1902d116100f8578063a22cb46511610090578063a22cb46514610560578063bd85b03914610580578063ca15c873146105ae578063d547741f146105ce578063e72db5fd146105ee578063e8a3d48514610610578063e985e9c514610625578063f242432a1461066e578063f5298aca1461068e57600080fd5b806352d1902d1461045c5780635c975abb146104715780636b20c45414610489578063731133e9146104a95780638456cb59146104c95780639010d07c146104de57806391d148541461050b578063938e3d7b1461052b578063a217fddf1461054b57600080fd5b80632f2ff15d1161016b5780632f2ff15d1461033557806336568abe146103555780633659cfe61461037557806338b7f446146103955780633f4ba83a146103b75780634cd88b76146103cc5780634e1273f4146103ec5780634f1ef286146104195780634f558e791461042c57600080fd5b8062fdd58e146101d357806301ffc9a71461020657806302fe53051461023657806306b6ac69146102585780630e89341c146102785780631e7663bc146102a55780631f7fdffa146102c5578063248a9ca3146102e55780632eb2c2d614610315575b600080fd5b3480156101df57600080fd5b506101f36101ee366004612b2b565b6106ae565b6040519081526020015b60405180910390f35b34801561021257600080fd5b50610226610221366004612b6b565b61070a565b60405190151581526020016101fd565b34801561024257600080fd5b50610256610251366004612c3d565b610715565b005b34801561026457600080fd5b506101f3610273366004612c79565b610729565b34801561028457600080fd5b50610298610293366004612cc6565b610765565b6040516101fd9190612d37565b3480156102b157600080fd5b506101f36102c0366004612c3d565b6107f9565b3480156102d157600080fd5b506102566102e0366004612dd6565b61082a565b3480156102f157600080fd5b506101f3610300366004612cc6565b60009081526065602052604090206001015490565b34801561032157600080fd5b50610256610330366004612f14565b610909565b34801561034157600080fd5b50610256610350366004612fbd565b610955565b34801561036157600080fd5b50610256610370366004612fbd565b61097f565b34801561038157600080fd5b50610256610390366004612fe9565b6109fd565b3480156103a157600080fd5b506101f3600080516020613a9383398151915281565b3480156103c357600080fd5b50610256610ac3565b3480156103d857600080fd5b506102566103e7366004613004565b610ad5565b3480156103f857600080fd5b5061040c61040736600461305d565b610bf0565b6040516101fd9190613158565b610256610427366004612c79565b610d19565b34801561043857600080fd5b50610226610447366004612cc6565b60009081526101916020526040902054151590565b34801561046857600080fd5b506101f3610dcf565b34801561047d57600080fd5b5060fb5460ff16610226565b34801561049557600080fd5b506102566104a436600461316b565b610e7e565b3480156104b557600080fd5b506102566104c43660046131de565b610ec1565b3480156104d557600080fd5b50610256610f37565b3480156104ea57600080fd5b506104fe6104f9366004613245565b610f47565b6040516101fd9190613267565b34801561051757600080fd5b50610226610526366004612fbd565b610f5f565b34801561053757600080fd5b50610256610546366004612c3d565b610f8a565b34801561055757600080fd5b506101f3600081565b34801561056c57600080fd5b5061025661057b36600461327b565b610fa6565b34801561058c57600080fd5b506101f361059b366004612cc6565b6000908152610191602052604090205490565b3480156105ba57600080fd5b506101f36105c9366004612cc6565b610fb1565b3480156105da57600080fd5b506102566105e9366004612fbd565b610fc8565b3480156105fa57600080fd5b506101f3600080516020613afa83398151915281565b34801561061c57600080fd5b50610298610fed565b34801561063157600080fd5b506102266106403660046132b7565b6001600160a01b03918216600090815260ca6020908152604080832093909416825291909152205460ff1690565b34801561067a57600080fd5b506102566106893660046132e1565b611080565b34801561069a57600080fd5b506102566106a9366004613345565b6110c5565b60006001600160a01b0383166106df5760405162461bcd60e51b81526004016106d690613378565b60405180910390fd5b50600081815260c9602090815260408083206001600160a01b03861684529091529020545b92915050565b600061070482611108565b61071d611148565b610726816111ac565b50565b60006001600160a01b0383166107515760405162461bcd60e51b81526004016106d690613378565b61075e836101ee846107f9565b9392505050565b606060cb8054610774906133c2565b80601f01602080910402602001604051908101604052809291908181526020018280546107a0906133c2565b80156107ed5780601f106107c2576101008083540402835291602001916107ed565b820191906000526020600020905b8154815290600101906020018083116107d057829003601f168201915b50505050509050919050565b60008160405160200161080c9190612d37565b60408051601f19818403018152919052805160209091012092915050565b610842600080516020613afa83398151915233610f5f565b61085e5760405162461bcd60e51b81526004016106d6906133fd565b6109008787878080602002602001604051908101604052809392919081815260200183836020028082843760009201919091525050604080516020808b0282810182019093528a82529093508a92508991829185019084908082843760009201919091525050604080516020601f8a0181900481028201810190925288815292508891508790819084018382808284376000920191909152506111bf92505050565b50505050505050565b6001600160a01b03851633148061092557506109258533610640565b6109415760405162461bcd60e51b81526004016106d69061344b565b61094e8585858585611308565b5050505050565b600082815260656020526040902060010154610970816114a3565b61097a83836114ad565b505050565b6001600160a01b03811633146109ef5760405162461bcd60e51b815260206004820152602f60248201527f416363657373436f6e74726f6c3a2063616e206f6e6c792072656e6f756e636560448201526e103937b632b9903337b91039b2b63360891b60648201526084016106d6565b6109f982826114cf565b5050565b306001600160a01b037f0000000000000000000000000000000000000000000000000000000000000000161415610a465760405162461bcd60e51b81526004016106d690613499565b7f00000000000000000000000000000000000000000000000000000000000000006001600160a01b0316610a786114f1565b6001600160a01b031614610a9e5760405162461bcd60e51b81526004016106d6906134e5565b610aa78161150d565b6040805160008082526020820190925261072691839190611515565b610acb611148565b610ad3611680565b565b600054610100900460ff1615808015610af55750600054600160ff909116105b80610b165750610b04306116cc565b158015610b16575060005460ff166001145b610b795760405162461bcd60e51b815260206004820152602e60248201527f496e697469616c697a61626c653a20636f6e747261637420697320616c72656160448201526d191e481a5b9a5d1a585b1a5e995960921b60648201526084016106d6565b6000805460ff191660011790558015610b9c576000805461ff0019166101001790555b610ba683836116db565b801561097a576000805461ff0019169055604051600181527f7f26b83ff96e1f2b6a682f133852f6798a09c465da95921460cefb38474024989060200160405180910390a1505050565b60608151835114610c555760405162461bcd60e51b815260206004820152602960248201527f455243313135353a206163636f756e747320616e6420696473206c656e677468604482015268040dad2e6dac2e8c6d60bb1b60648201526084016106d6565b600083516001600160401b03811115610c7057610c70612b88565b604051908082528060200260200182016040528015610c99578160200160208202803683370190505b50905060005b8451811015610d1157610ce4858281518110610cbd57610cbd613531565b6020026020010151858381518110610cd757610cd7613531565b60200260200101516106ae565b828281518110610cf657610cf6613531565b6020908102919091010152610d0a8161355d565b9050610c9f565b509392505050565b306001600160a01b037f0000000000000000000000000000000000000000000000000000000000000000161415610d625760405162461bcd60e51b81526004016106d690613499565b7f00000000000000000000000000000000000000000000000000000000000000006001600160a01b0316610d946114f1565b6001600160a01b031614610dba5760405162461bcd60e51b81526004016106d6906134e5565b610dc38261150d565b6109f982826001611515565b6000306001600160a01b037f00000000000000000000000000000000000000000000000000000000000000001614610e6a5760405162461bcd60e51b815260206004820152603860248201527f555550535570677261646561626c653a206d757374206e6f742062652063616c6044820152771b1959081d1a1c9bdd59da0819195b1959d85d1958d85b1b60421b60648201526084016106d6565b50600080516020613ab38339815191525b90565b6001600160a01b038316331480610e9a5750610e9a8333610640565b610eb65760405162461bcd60e51b81526004016106d69061344b565b61097a838383611748565b610ed9600080516020613afa83398151915233610f5f565b610ef55760405162461bcd60e51b81526004016106d6906133fd565b61094e85858585858080601f0160208091040260200160405190810160405280939291908181526020018383808284376000920191909152506118d792505050565b610f3f611148565b610ad36119a7565b600082815260976020526040812061075e90836119e4565b60009182526065602090815260408084206001600160a01b0393909316845291905290205460ff1690565b610f92611148565b80516109f990610227906020840190612a76565b6109f93383836119f0565b600081815260976020526040812061070490611ad1565b600082815260656020526040902060010154610fe3816114a3565b61097a83836114cf565b60606102278054610ffd906133c2565b80601f0160208091040260200160405190810160405280929190818152602001828054611029906133c2565b80156110765780601f1061104b57610100808354040283529160200191611076565b820191906000526020600020905b81548152906001019060200180831161105957829003601f168201915b5050505050905090565b6001600160a01b03851633148061109c575061109c8533610640565b6110b85760405162461bcd60e51b81526004016106d69061344b565b61094e8585858585611adb565b6001600160a01b0383163314806110e157506110e18333610640565b6110fd5760405162461bcd60e51b81526004016106d69061344b565b61097a838383611c05565b60006001600160e01b03198216636cdb3d1360e11b148061113957506001600160e01b031982166303a24d0760e21b145b80610704575061070482611d0f565b611160600080516020613a9383398151915233610f5f565b610ad35760405162461bcd60e51b815260206004820181905260248201527f4b72656269744e46543a206d757374206861766520676f7665726e20726f6c6560448201526064016106d6565b80516109f99060cb906020840190612a76565b6001600160a01b0384166111e55760405162461bcd60e51b81526004016106d690613578565b81518351146112065760405162461bcd60e51b81526004016106d6906135b9565b3361121681600087878787611d34565b60005b84518110156112b25783818151811061123457611234613531565b602002602001015160c9600087848151811061125257611252613531565b602002602001015181526020019081526020016000206000886001600160a01b03166001600160a01b03168152602001908152602001600020600082825461129a9190613601565b909155508190506112aa8161355d565b915050611219565b50846001600160a01b031660006001600160a01b0316826001600160a01b0316600080516020613a5383398151915287876040516112f1929190613619565b60405180910390a461094e81600087878787611ddd565b81518351146113295760405162461bcd60e51b81526004016106d6906135b9565b6001600160a01b03841661134f5760405162461bcd60e51b81526004016106d69061363e565b3361135e818787878787611d34565b60005b845181101561144757600085828151811061137e5761137e613531565b60200260200101519050600085838151811061139c5761139c613531565b602090810291909101810151600084815260c9835260408082206001600160a01b038e1683529093529190912054909150818110156113ed5760405162461bcd60e51b81526004016106d690613683565b600083815260c9602090815260408083206001600160a01b038e8116855292528083208585039055908b1682528120805484929061142c908490613601565b92505081905550505050806114409061355d565b9050611361565b50846001600160a01b0316866001600160a01b0316826001600160a01b0316600080516020613a538339815191528787604051611485929190613619565b60405180910390a461149b818787878787611ddd565b505050505050565b6107268133611f40565b6114b78282611f99565b600082815260976020526040902061097a908261201f565b6114d98282612034565b600082815260976020526040902061097a908261209b565b600080516020613ab3833981519152546001600160a01b031690565b610726611148565b7f4910fdfa16fed3260ed0e7147f7cc6da11a60208b5b9406d12a635614ffd91435460ff16156115485761097a836120b0565b826001600160a01b03166352d1902d6040518163ffffffff1660e01b8152600401602060405180830381865afa9250505080156115a2575060408051601f3d908101601f1916820190925261159f918101906136cd565b60015b6116055760405162461bcd60e51b815260206004820152602e60248201527f45524331393637557067726164653a206e657720696d706c656d656e7461746960448201526d6f6e206973206e6f74205555505360901b60648201526084016106d6565b600080516020613ab383398151915281146116745760405162461bcd60e51b815260206004820152602960248201527f45524331393637557067726164653a20756e737570706f727465642070726f786044820152681a58589b195555525160ba1b60648201526084016106d6565b5061097a83838361214a565b61168861216f565b60fb805460ff191690557f5db9ee0a495bf2e6ff9c91a7834c1ba4fdd244a5e8aa4e537bd38aeae4b073aa335b6040516116c29190613267565b60405180910390a1565b6001600160a01b03163b151590565b600054610100900460ff166117025760405162461bcd60e51b81526004016106d6906136e6565b61170b826121b8565b6117136121df565b61171b612206565b6117236121df565b61172b6121df565b805161173f90610227906020840190612a76565b506109f9612239565b6001600160a01b03831661176e5760405162461bcd60e51b81526004016106d690613731565b805182511461178f5760405162461bcd60e51b81526004016106d6906135b9565b60003390506117b281856000868660405180602001604052806000815250611d34565b60005b835181101561187a5760008482815181106117d2576117d2613531565b6020026020010151905060008483815181106117f0576117f0613531565b602090810291909101810151600084815260c9835260408082206001600160a01b038c1683529093529190912054909150818110156118415760405162461bcd60e51b81526004016106d690613774565b600092835260c9602090815260408085206001600160a01b038b16865290915290922091039055806118728161355d565b9150506117b5565b5060006001600160a01b0316846001600160a01b0316826001600160a01b0316600080516020613a5383398151915286866040516118b9929190613619565b60405180910390a46040805160208101909152600090525b50505050565b6001600160a01b0384166118fd5760405162461bcd60e51b81526004016106d690613578565b33600061190985612283565b9050600061191685612283565b905061192783600089858589611d34565b600086815260c9602090815260408083206001600160a01b038b16845290915281208054879290611959908490613601565b909155505060408051878152602081018790526001600160a01b03808a169260009291871691600080516020613a73833981519152910160405180910390a4610900836000898989896122ce565b6119af612390565b60fb805460ff191660011790557f62e78cea01bee320cd4e420270b5ea74000d11b0c9f74754ebdbfc544b05a2586116b53390565b600061075e83836123d6565b816001600160a01b0316836001600160a01b03161415611a645760405162461bcd60e51b815260206004820152602960248201527f455243313135353a2073657474696e6720617070726f76616c20737461747573604482015268103337b91039b2b63360b91b60648201526084016106d6565b6001600160a01b03838116600081815260ca6020908152604080832094871680845294825291829020805460ff191686151590811790915591519182527f17307eab39ab6107e8899845ad3d59bd9653f200f220920489ca2b5937696c31910160405180910390a3505050565b6000610704825490565b6001600160a01b038416611b015760405162461bcd60e51b81526004016106d69061363e565b336000611b0d85612283565b90506000611b1a85612283565b9050611b2a838989858589611d34565b600086815260c9602090815260408083206001600160a01b038c16845290915290205485811015611b6d5760405162461bcd60e51b81526004016106d690613683565b600087815260c9602090815260408083206001600160a01b038d8116855292528083208985039055908a16825281208054889290611bac908490613601565b909155505060408051888152602081018890526001600160a01b03808b16928c82169291881691600080516020613a73833981519152910160405180910390a4611bfa848a8a8a8a8a6122ce565b505050505050505050565b6001600160a01b038316611c2b5760405162461bcd60e51b81526004016106d690613731565b336000611c3784612283565b90506000611c4484612283565b9050611c6483876000858560405180602001604052806000815250611d34565b600085815260c9602090815260408083206001600160a01b038a16845290915290205484811015611ca75760405162461bcd60e51b81526004016106d690613774565b600086815260c9602090815260408083206001600160a01b038b81168086529184528285208a8703905582518b81529384018a9052909290881691600080516020613a73833981519152910160405180910390a4604080516020810190915260009052610900565b60006001600160e01b03198216635a05180f60e01b1480610704575061070482612400565b611d3c612390565b611d4a868686868686612435565b611d62600080516020613a9383398151915233610f5f565b80611d7457506001600160a01b038516155b80611d8657506001600160a01b038416155b61149b5760405162461bcd60e51b815260206004820152602260248201527f4b72656269744e46543a205472616e7366657273206e6f7420737570706f7274604482015261195960f21b60648201526084016106d6565b611def846001600160a01b03166116cc565b1561149b5760405163bc197c8160e01b81526001600160a01b0385169063bc197c8190611e2890899089908890889088906004016137b8565b6020604051808303816000875af1925050508015611e63575060408051601f3d908101601f19168201909252611e6091810190613816565b60015b611f1057611e6f613833565b806308c379a01415611ea95750611e8461384e565b80611e8f5750611eab565b8060405162461bcd60e51b81526004016106d69190612d37565b505b60405162461bcd60e51b815260206004820152603460248201527f455243313135353a207472616e7366657220746f206e6f6e2d455243313135356044820152732932b1b2b4bb32b91034b6b83632b6b2b73a32b960611b60648201526084016106d6565b6001600160e01b0319811663bc197c8160e01b146109005760405162461bcd60e51b81526004016106d6906138d7565b611f4a8282610f5f565b6109f957611f57816125bf565b611f628360206125d1565b604051602001611f7392919061391f565b60408051601f198184030181529082905262461bcd60e51b82526106d691600401612d37565b611fa38282610f5f565b6109f95760008281526065602090815260408083206001600160a01b03851684529091529020805460ff19166001179055611fdb3390565b6001600160a01b0316816001600160a01b0316837f2f8788117e7eff1d82e926ec794901d17c78024a50270940304540a733656f0d60405160405180910390a45050565b600061075e836001600160a01b03841661276c565b61203e8282610f5f565b156109f95760008281526065602090815260408083206001600160a01b0385168085529252808320805460ff1916905551339285917ff6391f5c32d9c69d2a47ea670b442974b53935d1edc7fd64eb21e047a839171b9190a45050565b600061075e836001600160a01b0384166127bb565b6120b9816116cc565b61211b5760405162461bcd60e51b815260206004820152602d60248201527f455243313936373a206e657720696d706c656d656e746174696f6e206973206e60448201526c1bdd08184818dbdb9d1c9858dd609a1b60648201526084016106d6565b600080516020613ab383398151915280546001600160a01b0319166001600160a01b0392909216919091179055565b612153836128ae565b6000825111806121605750805b1561097a576118d183836128ee565b60fb5460ff16610ad35760405162461bcd60e51b815260206004820152601460248201527314185d5cd8589b194e881b9bdd081c185d5cd95960621b60448201526064016106d6565b600054610100900460ff1661071d5760405162461bcd60e51b81526004016106d6906136e6565b600054610100900460ff16610ad35760405162461bcd60e51b81526004016106d6906136e6565b600054610100900460ff1661222d5760405162461bcd60e51b81526004016106d6906136e6565b60fb805460ff19169055565b600054610100900460ff166122605760405162461bcd60e51b81526004016106d6906136e6565b61226b6000336129e0565b610ad3600080516020613a93833981519152336129e0565b604080516001808252818301909252606091600091906020808301908036833701905050905082816000815181106122bd576122bd613531565b602090810291909101015292915050565b6122e0846001600160a01b03166116cc565b1561149b5760405163f23a6e6160e01b81526001600160a01b0385169063f23a6e6190612319908990899088908890889060040161398e565b6020604051808303816000875af1925050508015612354575060408051601f3d908101601f1916820190925261235191810190613816565b60015b61236057611e6f613833565b6001600160e01b0319811663f23a6e6160e01b146109005760405162461bcd60e51b81526004016106d6906138d7565b60fb5460ff1615610ad35760405162461bcd60e51b815260206004820152601060248201526f14185d5cd8589b194e881c185d5cd95960821b60448201526064016106d6565b60008260000182815481106123ed576123ed613531565b9060005260206000200154905092915050565b60006001600160e01b03198216637965db0b60e01b148061070457506301ffc9a760e01b6001600160e01b0319831614610704565b6124438686868686866129ea565b6001600160a01b0385166124cb5760005b83518110156124c95782818151811061246f5761246f613531565b6020026020010151610191600086848151811061248e5761248e613531565b6020026020010151815260200190815260200160002060008282546124b39190613601565b909155506124c290508161355d565b9050612454565b505b6001600160a01b03841661149b5760005b83518110156109005760008482815181106124f9576124f9613531565b60200260200101519050600084838151811061251757612517613531565b60200260200101519050600061019160008481526020019081526020016000205490508181101561259b5760405162461bcd60e51b815260206004820152602860248201527f455243313135353a206275726e20616d6f756e74206578636565647320746f74604482015267616c537570706c7960c01b60648201526084016106d6565b60009283526101916020526040909220910390556125b88161355d565b90506124dc565b60606107046001600160a01b03831660145b606060006125e08360026139d3565b6125eb906002613601565b6001600160401b0381111561260257612602612b88565b6040519080825280601f01601f19166020018201604052801561262c576020820181803683370190505b509050600360fc1b8160008151811061264757612647613531565b60200101906001600160f81b031916908160001a905350600f60fb1b8160018151811061267657612676613531565b60200101906001600160f81b031916908160001a905350600061269a8460026139d3565b6126a5906001613601565b90505b600181111561271d576f181899199a1a9b1b9c1cb0b131b232b360811b85600f16601081106126d9576126d9613531565b1a60f81b8282815181106126ef576126ef613531565b60200101906001600160f81b031916908160001a90535060049490941c93612716816139f2565b90506126a8565b50831561075e5760405162461bcd60e51b815260206004820181905260248201527f537472696e67733a20686578206c656e67746820696e73756666696369656e7460448201526064016106d6565b60008181526001830160205260408120546127b357508154600181810184556000848152602080822090930184905584548482528286019093526040902091909155610704565b506000610704565b600081815260018301602052604081205480156128a45760006127df600183613a09565b85549091506000906127f390600190613a09565b905081811461285857600086600001828154811061281357612813613531565b906000526020600020015490508087600001848154811061283657612836613531565b6000918252602080832090910192909255918252600188019052604090208390555b855486908061286957612869613a20565b600190038181906000526020600020016000905590558560010160008681526020019081526020016000206000905560019350505050610704565b6000915050610704565b6128b7816120b0565b6040516001600160a01b038216907fbc7cd75a20ee27fd9adebab32041f755214dbc6bffa90cc0225b39da2e5c2d3b90600090a250565b60606128f9836116cc565b6129545760405162461bcd60e51b815260206004820152602660248201527f416464726573733a2064656c65676174652063616c6c20746f206e6f6e2d636f6044820152651b9d1c9858dd60d21b60648201526084016106d6565b600080846001600160a01b03168460405161296f9190613a36565b600060405180830381855af49150503d80600081146129aa576040519150601f19603f3d011682016040523d82523d6000602084013e6129af565b606091505b50915091506129d78282604051806060016040528060278152602001613ad360279139612a52565b95945050505050565b6109f982826114ad565b60fb5460ff161561149b5760405162461bcd60e51b815260206004820152602c60248201527f455243313135355061757361626c653a20746f6b656e207472616e736665722060448201526b1dda1a5b19481c185d5cd95960a21b60648201526084016106d6565b60608315612a6157508161075e565b61075e8383815115611e8f5781518083602001fd5b828054612a82906133c2565b90600052602060002090601f016020900481019282612aa45760008555612aea565b82601f10612abd57805160ff1916838001178555612aea565b82800160010185558215612aea579182015b82811115612aea578251825591602001919060010190612acf565b50612af6929150612afa565b5090565b5b80821115612af65760008155600101612afb565b80356001600160a01b0381168114612b2657600080fd5b919050565b60008060408385031215612b3e57600080fd5b612b4783612b0f565b946020939093013593505050565b6001600160e01b03198116811461072657600080fd5b600060208284031215612b7d57600080fd5b813561075e81612b55565b634e487b7160e01b600052604160045260246000fd5b601f8201601f191681016001600160401b0381118282101715612bc357612bc3612b88565b6040525050565b600082601f830112612bdb57600080fd5b81356001600160401b03811115612bf457612bf4612b88565b604051612c0b601f8301601f191660200182612b9e565b818152846020838601011115612c2057600080fd5b816020850160208301376000918101602001919091529392505050565b600060208284031215612c4f57600080fd5b81356001600160401b03811115612c6557600080fd5b612c7184828501612bca565b949350505050565b60008060408385031215612c8c57600080fd5b612c9583612b0f565b915060208301356001600160401b03811115612cb057600080fd5b612cbc85828601612bca565b9150509250929050565b600060208284031215612cd857600080fd5b5035919050565b60005b83811015612cfa578181015183820152602001612ce2565b838111156118d15750506000910152565b60008151808452612d23816020860160208601612cdf565b601f01601f19169290920160200192915050565b60208152600061075e6020830184612d0b565b60008083601f840112612d5c57600080fd5b5081356001600160401b03811115612d7357600080fd5b6020830191508360208260051b8501011115612d8e57600080fd5b9250929050565b60008083601f840112612da757600080fd5b5081356001600160401b03811115612dbe57600080fd5b602083019150836020828501011115612d8e57600080fd5b60008060008060008060006080888a031215612df157600080fd5b612dfa88612b0f565b965060208801356001600160401b0380821115612e1657600080fd5b612e228b838c01612d4a565b909850965060408a0135915080821115612e3b57600080fd5b612e478b838c01612d4a565b909650945060608a0135915080821115612e6057600080fd5b50612e6d8a828b01612d95565b989b979a50959850939692959293505050565b60006001600160401b03821115612e9957612e99612b88565b5060051b60200190565b600082601f830112612eb457600080fd5b81356020612ec182612e80565b604051612ece8282612b9e565b83815260059390931b8501820192828101915086841115612eee57600080fd5b8286015b84811015612f095780358352918301918301612ef2565b509695505050505050565b600080600080600060a08688031215612f2c57600080fd5b612f3586612b0f565b9450612f4360208701612b0f565b935060408601356001600160401b0380821115612f5f57600080fd5b612f6b89838a01612ea3565b94506060880135915080821115612f8157600080fd5b612f8d89838a01612ea3565b93506080880135915080821115612fa357600080fd5b50612fb088828901612bca565b9150509295509295909350565b60008060408385031215612fd057600080fd5b82359150612fe060208401612b0f565b90509250929050565b600060208284031215612ffb57600080fd5b61075e82612b0f565b6000806040838503121561301757600080fd5b82356001600160401b038082111561302e57600080fd5b61303a86838701612bca565b9350602085013591508082111561305057600080fd5b50612cbc85828601612bca565b6000806040838503121561307057600080fd5b82356001600160401b038082111561308757600080fd5b818501915085601f83011261309b57600080fd5b813560206130a882612e80565b6040516130b58282612b9e565b83815260059390931b85018201928281019150898411156130d557600080fd5b948201945b838610156130fa576130eb86612b0f565b825294820194908201906130da565b9650508601359250508082111561311057600080fd5b50612cbc85828601612ea3565b600081518084526020808501945080840160005b8381101561314d57815187529582019590820190600101613131565b509495945050505050565b60208152600061075e602083018461311d565b60008060006060848603121561318057600080fd5b61318984612b0f565b925060208401356001600160401b03808211156131a557600080fd5b6131b187838801612ea3565b935060408601359150808211156131c757600080fd5b506131d486828701612ea3565b9150509250925092565b6000806000806000608086880312156131f657600080fd5b6131ff86612b0f565b9450602086013593506040860135925060608601356001600160401b0381111561322857600080fd5b61323488828901612d95565b969995985093965092949392505050565b6000806040838503121561325857600080fd5b50508035926020909101359150565b6001600160a01b0391909116815260200190565b6000806040838503121561328e57600080fd5b61329783612b0f565b9150602083013580151581146132ac57600080fd5b809150509250929050565b600080604083850312156132ca57600080fd5b6132d383612b0f565b9150612fe060208401612b0f565b600080600080600060a086880312156132f957600080fd5b61330286612b0f565b945061331060208701612b0f565b9350604086013592506060860135915060808601356001600160401b0381111561333957600080fd5b612fb088828901612bca565b60008060006060848603121561335a57600080fd5b61336384612b0f565b95602085013595506040909401359392505050565b6020808252602a908201527f455243313135353a2061646472657373207a65726f206973206e6f742061207660408201526930b634b21037bbb732b960b11b606082015260800190565b600181811c908216806133d657607f821691505b602082108114156133f757634e487b7160e01b600052602260045260246000fd5b50919050565b6020808252602e908201527f44756d6d794d696e7461626c65455243313135353a20494e535546464943494560408201526d4e545f5045524d495353494f4e5360901b606082015260800190565b6020808252602e908201527f455243313135353a2063616c6c6572206973206e6f7420746f6b656e206f776e60408201526d195c881bdc88185c1c1c9bdd995960921b606082015260800190565b6020808252602c908201527f46756e6374696f6e206d7573742062652063616c6c6564207468726f7567682060408201526b19195b1959d85d1958d85b1b60a21b606082015260800190565b6020808252602c908201527f46756e6374696f6e206d7573742062652063616c6c6564207468726f7567682060408201526b6163746976652070726f787960a01b606082015260800190565b634e487b7160e01b600052603260045260246000fd5b634e487b7160e01b600052601160045260246000fd5b600060001982141561357157613571613547565b5060010190565b60208082526021908201527f455243313135353a206d696e7420746f20746865207a65726f206164647265736040820152607360f81b606082015260800190565b60208082526028908201527f455243313135353a2069647320616e6420616d6f756e7473206c656e677468206040820152670dad2e6dac2e8c6d60c31b606082015260800190565b6000821982111561361457613614613547565b500190565b60408152600061362c604083018561311d565b82810360208401526129d7818561311d565b60208082526025908201527f455243313135353a207472616e7366657220746f20746865207a65726f206164604082015264647265737360d81b606082015260800190565b6020808252602a908201527f455243313135353a20696e73756666696369656e742062616c616e636520666f60408201526939103a3930b739b332b960b11b606082015260800190565b6000602082840312156136df57600080fd5b5051919050565b6020808252602b908201527f496e697469616c697a61626c653a20636f6e7472616374206973206e6f74206960408201526a6e697469616c697a696e6760a81b606082015260800190565b60208082526023908201527f455243313135353a206275726e2066726f6d20746865207a65726f206164647260408201526265737360e81b606082015260800190565b60208082526024908201527f455243313135353a206275726e20616d6f756e7420657863656564732062616c604082015263616e636560e01b606082015260800190565b6001600160a01b0386811682528516602082015260a0604082018190526000906137e49083018661311d565b82810360608401526137f6818661311d565b9050828103608084015261380a8185612d0b565b98975050505050505050565b60006020828403121561382857600080fd5b815161075e81612b55565b600060033d1115610e7b5760046000803e5060005160e01c90565b600060443d101561385c5790565b6040516003193d81016004833e81513d6001600160401b03816024840111818411171561388b57505050505090565b82850191508151818111156138a35750505050505090565b843d87010160208285010111156138bd5750505050505090565b6138cc60208286010187612b9e565b509095945050505050565b60208082526028908201527f455243313135353a204552433131353552656365697665722072656a656374656040820152676420746f6b656e7360c01b606082015260800190565b76020b1b1b2b9b9a1b7b73a3937b61d1030b1b1b7bab73a1604d1b815260008351613951816017850160208801612cdf565b7001034b99036b4b9b9b4b733903937b6329607d1b6017918401918201528351613982816028840160208801612cdf565b01602801949350505050565b6001600160a01b03868116825285166020820152604081018490526060810183905260a0608082018190526000906139c890830184612d0b565b979650505050505050565b60008160001904831182151516156139ed576139ed613547565b500290565b600081613a0157613a01613547565b506000190190565b600082821015613a1b57613a1b613547565b500390565b634e487b7160e01b600052603160045260246000fd5b60008251613a48818460208701612cdf565b919091019291505056fe4a39dc06d4c0dbc64b70af90fd698a233a518aa5d07e595d983b8c0526c8f7fbc3d58168c5ae7397731d063d5bbf3d657854427343f4c083240f7aacaa2d0f62899bd46557473cb80307a9dabc297131ced39608330a2d29b2d52b660c03923e360894a13ba1a3210667c828492db98dca3e2076cc3735a920a3ca505d382bbc416464726573733a206c6f772d6c6576656c2064656c65676174652063616c6c206661696c656412ff340d0cd9c652c747ca35727e68c547d0f0bfa7758d2e77f75acef481b4f2a2646970667358221220eb91ae5ee20eb342ab8375a0f7ac9de5a6e59f23a80c5a5ab19bf9597bff375364736f6c634300080c0033",
  "linkReferences": {},
  "deployedLinkReferences": {}
}