{
    "contractName": "KRBTokenV01",
    "abi": [
        {
            "anonymous": false,
            "inputs": [
                {
                    "indexed": false,
                    "internalType": "address",
                    "name": "previousAdmin",
                    "type": "address"
                },
                {
                    "indexed": false,
                    "internalType": "address",
                    "name": "newAdmin",
                    "type": "address"
                }
            ],
            "name": "AdminChanged",
            "type": "event"
        },
        {
            "anonymous": false,
            "inputs": [
                {
                    "indexed": true,
                    "internalType": "address",
                    "name": "owner",
                    "type": "address"
                },
                {
                    "indexed": true,
                    "internalType": "address",
                    "name": "spender",
                    "type": "address"
                },
                {
                    "indexed": false,
                    "internalType": "uint256",
                    "name": "value",
                    "type": "uint256"
                }
            ],
            "name": "Approval",
            "type": "event"
        },
        {
            "anonymous": false,
            "inputs": [
                {
                    "indexed": true,
                    "internalType": "address",
                    "name": "beacon",
                    "type": "address"
                }
            ],
            "name": "BeaconUpgraded",
            "type": "event"
        },
        {
            "anonymous": false,
            "inputs": [
                {
                    "indexed": false,
                    "internalType": "bytes32",
                    "name": "uuid",
                    "type": "bytes32"
                },
                {
                    "indexed": false,
                    "internalType": "string",
                    "name": "reason",
                    "type": "string"
                }
            ],
            "name": "Deleted",
            "type": "event"
        },
        {
            "anonymous": false,
            "inputs": [
                {
                    "indexed": false,
                    "internalType": "bytes32",
                    "name": "uuid",
                    "type": "bytes32"
                },
                {
                    "indexed": false,
                    "internalType": "bytes32",
                    "name": "disputedBy",
                    "type": "bytes32"
                }
            ],
            "name": "Disputed",
            "type": "event"
        },
        {
            "anonymous": false,
            "inputs": [
                {
                    "indexed": false,
                    "internalType": "bytes32",
                    "name": "uuid",
                    "type": "bytes32"
                }
            ],
            "name": "Expired",
            "type": "event"
        },
        {
            "anonymous": false,
            "inputs": [
                {
                    "indexed": false,
                    "internalType": "bytes32",
                    "name": "uuid",
                    "type": "bytes32"
                },
                {
                    "components": [
                        {
                            "internalType": "string",
                            "name": "_context",
                            "type": "string"
                        },
                        {
                            "internalType": "string",
                            "name": "_type",
                            "type": "string"
                        },
                        {
                            "internalType": "string",
                            "name": "id",
                            "type": "string"
                        },
                        {
                            "components": [
                                {
                                    "internalType": "string",
                                    "name": "id",
                                    "type": "string"
                                },
                                {
                                    "internalType": "address",
                                    "name": "ethereumAddress",
                                    "type": "address"
                                }
                            ],
                            "internalType": "struct VCTypesV01.Issuer",
                            "name": "issuer",
                            "type": "tuple"
                        },
                        {
                            "components": [
                                {
                                    "internalType": "string",
                                    "name": "id",
                                    "type": "string"
                                },
                                {
                                    "internalType": "address",
                                    "name": "ethereumAddress",
                                    "type": "address"
                                },
                                {
                                    "internalType": "string",
                                    "name": "_type",
                                    "type": "string"
                                },
                                {
                                    "internalType": "string",
                                    "name": "typeSchema",
                                    "type": "string"
                                },
                                {
                                    "internalType": "string",
                                    "name": "value",
                                    "type": "string"
                                },
                                {
                                    "internalType": "string",
                                    "name": "encrypted",
                                    "type": "string"
                                },
                                {
                                    "internalType": "uint8",
                                    "name": "trust",
                                    "type": "uint8"
                                },
                                {
                                    "internalType": "uint256",
                                    "name": "stake",
                                    "type": "uint256"
                                },
                                {
                                    "internalType": "uint256",
                                    "name": "price",
                                    "type": "uint256"
                                },
                                {
                                    "internalType": "uint256",
                                    "name": "nbf",
                                    "type": "uint256"
                                },
                                {
                                    "internalType": "uint256",
                                    "name": "exp",
                                    "type": "uint256"
                                }
                            ],
                            "internalType": "struct VCTypesV01.CredentialSubject",
                            "name": "credentialSubject",
                            "type": "tuple"
                        },
                        {
                            "components": [
                                {
                                    "internalType": "string",
                                    "name": "id",
                                    "type": "string"
                                },
                                {
                                    "internalType": "string",
                                    "name": "_type",
                                    "type": "string"
                                }
                            ],
                            "internalType": "struct VCTypesV01.CredentialSchema",
                            "name": "credentialSchema",
                            "type": "tuple"
                        },
                        {
                            "internalType": "string",
                            "name": "issuanceDate",
                            "type": "string"
                        },
                        {
                            "internalType": "string",
                            "name": "expirationDate",
                            "type": "string"
                        }
                    ],
                    "indexed": false,
                    "internalType": "struct VCTypesV01.VerifiableCredential",
                    "name": "vc",
                    "type": "tuple"
                }
            ],
            "name": "Issued",
            "type": "event"
        },
        {
            "anonymous": false,
            "inputs": [
                {
                    "indexed": false,
                    "internalType": "address",
                    "name": "account",
                    "type": "address"
                }
            ],
            "name": "Paused",
            "type": "event"
        },
        {
            "anonymous": false,
            "inputs": [
                {
                    "indexed": false,
                    "internalType": "bytes32",
                    "name": "uuid",
                    "type": "bytes32"
                },
                {
                    "indexed": false,
                    "internalType": "string",
                    "name": "reason",
                    "type": "string"
                }
            ],
            "name": "Revoked",
            "type": "event"
        },
        {
            "anonymous": false,
            "inputs": [
                {
                    "indexed": true,
                    "internalType": "bytes32",
                    "name": "role",
                    "type": "bytes32"
                },
                {
                    "indexed": true,
                    "internalType": "bytes32",
                    "name": "previousAdminRole",
                    "type": "bytes32"
                },
                {
                    "indexed": true,
                    "internalType": "bytes32",
                    "name": "newAdminRole",
                    "type": "bytes32"
                }
            ],
            "name": "RoleAdminChanged",
            "type": "event"
        },
        {
            "anonymous": false,
            "inputs": [
                {
                    "indexed": true,
                    "internalType": "bytes32",
                    "name": "role",
                    "type": "bytes32"
                },
                {
                    "indexed": true,
                    "internalType": "address",
                    "name": "account",
                    "type": "address"
                },
                {
                    "indexed": true,
                    "internalType": "address",
                    "name": "sender",
                    "type": "address"
                }
            ],
            "name": "RoleGranted",
            "type": "event"
        },
        {
            "anonymous": false,
            "inputs": [
                {
                    "indexed": true,
                    "internalType": "bytes32",
                    "name": "role",
                    "type": "bytes32"
                },
                {
                    "indexed": true,
                    "internalType": "address",
                    "name": "account",
                    "type": "address"
                },
                {
                    "indexed": true,
                    "internalType": "address",
                    "name": "sender",
                    "type": "address"
                }
            ],
            "name": "RoleRevoked",
            "type": "event"
        },
        {
            "anonymous": false,
            "inputs": [
                {
                    "indexed": true,
                    "internalType": "address",
                    "name": "from",
                    "type": "address"
                },
                {
                    "indexed": true,
                    "internalType": "address",
                    "name": "to",
                    "type": "address"
                },
                {
                    "indexed": false,
                    "internalType": "uint256",
                    "name": "value",
                    "type": "uint256"
                }
            ],
            "name": "Staked",
            "type": "event"
        },
        {
            "anonymous": false,
            "inputs": [
                {
                    "indexed": false,
                    "internalType": "bytes32",
                    "name": "uuid",
                    "type": "bytes32"
                },
                {
                    "indexed": false,
                    "internalType": "string",
                    "name": "reason",
                    "type": "string"
                }
            ],
            "name": "Suspended",
            "type": "event"
        },
        {
            "anonymous": false,
            "inputs": [
                {
                    "indexed": true,
                    "internalType": "address",
                    "name": "from",
                    "type": "address"
                },
                {
                    "indexed": true,
                    "internalType": "address",
                    "name": "to",
                    "type": "address"
                },
                {
                    "indexed": false,
                    "internalType": "uint256",
                    "name": "value",
                    "type": "uint256"
                }
            ],
            "name": "Transfer",
            "type": "event"
        },
        {
            "anonymous": false,
            "inputs": [
                {
                    "indexed": false,
                    "internalType": "address",
                    "name": "account",
                    "type": "address"
                }
            ],
            "name": "Unpaused",
            "type": "event"
        },
        {
            "anonymous": false,
            "inputs": [],
            "name": "Updated",
            "type": "event"
        },
        {
            "anonymous": false,
            "inputs": [
                {
                    "indexed": true,
                    "internalType": "address",
                    "name": "implementation",
                    "type": "address"
                }
            ],
            "name": "Upgraded",
            "type": "event"
        },
        {
            "inputs": [],
            "name": "DEFAULT_ADMIN_ROLE",
            "outputs": [
                {
                    "internalType": "bytes32",
                    "name": "",
                    "type": "bytes32"
                }
            ],
            "stateMutability": "view",
            "type": "function"
        },
        {
            "inputs": [],
            "name": "DOMAIN_SEPARATOR",
            "outputs": [
                {
                    "internalType": "bytes32",
                    "name": "",
                    "type": "bytes32"
                }
            ],
            "stateMutability": "view",
            "type": "function"
        },
        {
            "inputs": [],
            "name": "GOVERN_ROLE",
            "outputs": [
                {
                    "internalType": "bytes32",
                    "name": "",
                    "type": "bytes32"
                }
            ],
            "stateMutability": "view",
            "type": "function"
        },
        {
            "inputs": [
                {
                    "internalType": "address",
                    "name": "owner",
                    "type": "address"
                },
                {
                    "internalType": "address",
                    "name": "spender",
                    "type": "address"
                }
            ],
            "name": "allowance",
            "outputs": [
                {
                    "internalType": "uint256",
                    "name": "",
                    "type": "uint256"
                }
            ],
            "stateMutability": "view",
            "type": "function"
        },
        {
            "inputs": [
                {
                    "internalType": "address",
                    "name": "spender",
                    "type": "address"
                },
                {
                    "internalType": "uint256",
                    "name": "amount",
                    "type": "uint256"
                }
            ],
            "name": "approve",
            "outputs": [
                {
                    "internalType": "bool",
                    "name": "",
                    "type": "bool"
                }
            ],
            "stateMutability": "nonpayable",
            "type": "function"
        },
        {
            "inputs": [
                {
                    "internalType": "address",
                    "name": "account",
                    "type": "address"
                }
            ],
            "name": "balanceOf",
            "outputs": [
                {
                    "internalType": "uint256",
                    "name": "",
                    "type": "uint256"
                }
            ],
            "stateMutability": "view",
            "type": "function"
        },
        {
            "inputs": [
                {
                    "internalType": "uint256",
                    "name": "amount",
                    "type": "uint256"
                }
            ],
            "name": "burn",
            "outputs": [],
            "stateMutability": "nonpayable",
            "type": "function"
        },
        {
            "inputs": [
                {
                    "internalType": "address",
                    "name": "account",
                    "type": "address"
                },
                {
                    "internalType": "uint256",
                    "name": "amount",
                    "type": "uint256"
                }
            ],
            "name": "burnFrom",
            "outputs": [],
            "stateMutability": "nonpayable",
            "type": "function"
        },
        {
            "inputs": [
                {
                    "internalType": "address",
                    "name": "issuer",
                    "type": "address"
                },
                {
                    "internalType": "uint256",
                    "name": "stake",
                    "type": "uint256"
                }
            ],
            "name": "burnStake",
            "outputs": [],
            "stateMutability": "nonpayable",
            "type": "function"
        },
        {
            "inputs": [],
            "name": "decimals",
            "outputs": [
                {
                    "internalType": "uint8",
                    "name": "",
                    "type": "uint8"
                }
            ],
            "stateMutability": "view",
            "type": "function"
        },
        {
            "inputs": [
                {
                    "internalType": "address",
                    "name": "spender",
                    "type": "address"
                },
                {
                    "internalType": "uint256",
                    "name": "subtractedValue",
                    "type": "uint256"
                }
            ],
            "name": "decreaseAllowance",
            "outputs": [
                {
                    "internalType": "bool",
                    "name": "",
                    "type": "bool"
                }
            ],
            "stateMutability": "nonpayable",
            "type": "function"
        },
        {
            "inputs": [
                {
                    "components": [
                        {
                            "internalType": "string",
                            "name": "_context",
                            "type": "string"
                        },
                        {
                            "internalType": "string",
                            "name": "_type",
                            "type": "string"
                        },
                        {
                            "internalType": "string",
                            "name": "id",
                            "type": "string"
                        },
                        {
                            "components": [
                                {
                                    "internalType": "string",
                                    "name": "id",
                                    "type": "string"
                                },
                                {
                                    "internalType": "address",
                                    "name": "ethereumAddress",
                                    "type": "address"
                                }
                            ],
                            "internalType": "struct VCTypesV01.Issuer",
                            "name": "issuer",
                            "type": "tuple"
                        },
                        {
                            "components": [
                                {
                                    "internalType": "string",
                                    "name": "id",
                                    "type": "string"
                                },
                                {
                                    "internalType": "address",
                                    "name": "ethereumAddress",
                                    "type": "address"
                                },
                                {
                                    "internalType": "string",
                                    "name": "_type",
                                    "type": "string"
                                },
                                {
                                    "internalType": "string",
                                    "name": "typeSchema",
                                    "type": "string"
                                },
                                {
                                    "internalType": "string",
                                    "name": "value",
                                    "type": "string"
                                },
                                {
                                    "internalType": "string",
                                    "name": "encrypted",
                                    "type": "string"
                                },
                                {
                                    "internalType": "uint8",
                                    "name": "trust",
                                    "type": "uint8"
                                },
                                {
                                    "internalType": "uint256",
                                    "name": "stake",
                                    "type": "uint256"
                                },
                                {
                                    "internalType": "uint256",
                                    "name": "price",
                                    "type": "uint256"
                                },
                                {
                                    "internalType": "uint256",
                                    "name": "nbf",
                                    "type": "uint256"
                                },
                                {
                                    "internalType": "uint256",
                                    "name": "exp",
                                    "type": "uint256"
                                }
                            ],
                            "internalType": "struct VCTypesV01.CredentialSubject",
                            "name": "credentialSubject",
                            "type": "tuple"
                        },
                        {
                            "components": [
                                {
                                    "internalType": "string",
                                    "name": "id",
                                    "type": "string"
                                },
                                {
                                    "internalType": "string",
                                    "name": "_type",
                                    "type": "string"
                                }
                            ],
                            "internalType": "struct VCTypesV01.CredentialSchema",
                            "name": "credentialSchema",
                            "type": "tuple"
                        },
                        {
                            "internalType": "string",
                            "name": "issuanceDate",
                            "type": "string"
                        },
                        {
                            "internalType": "string",
                            "name": "expirationDate",
                            "type": "string"
                        }
                    ],
                    "internalType": "struct VCTypesV01.VerifiableCredential",
                    "name": "vc",
                    "type": "tuple"
                },
                {
                    "internalType": "string",
                    "name": "reason",
                    "type": "string"
                }
            ],
            "name": "deleteVC",
            "outputs": [
                {
                    "internalType": "bool",
                    "name": "",
                    "type": "bool"
                }
            ],
            "stateMutability": "nonpayable",
            "type": "function"
        },
        {
            "inputs": [
                {
                    "components": [
                        {
                            "internalType": "string",
                            "name": "_context",
                            "type": "string"
                        },
                        {
                            "internalType": "string",
                            "name": "_type",
                            "type": "string"
                        },
                        {
                            "internalType": "string",
                            "name": "id",
                            "type": "string"
                        },
                        {
                            "components": [
                                {
                                    "internalType": "string",
                                    "name": "id",
                                    "type": "string"
                                },
                                {
                                    "internalType": "address",
                                    "name": "ethereumAddress",
                                    "type": "address"
                                }
                            ],
                            "internalType": "struct VCTypesV01.Issuer",
                            "name": "issuer",
                            "type": "tuple"
                        },
                        {
                            "components": [
                                {
                                    "internalType": "string",
                                    "name": "id",
                                    "type": "string"
                                },
                                {
                                    "internalType": "address",
                                    "name": "ethereumAddress",
                                    "type": "address"
                                },
                                {
                                    "internalType": "string",
                                    "name": "_type",
                                    "type": "string"
                                },
                                {
                                    "internalType": "string",
                                    "name": "typeSchema",
                                    "type": "string"
                                },
                                {
                                    "internalType": "string",
                                    "name": "value",
                                    "type": "string"
                                },
                                {
                                    "internalType": "string",
                                    "name": "encrypted",
                                    "type": "string"
                                },
                                {
                                    "internalType": "uint8",
                                    "name": "trust",
                                    "type": "uint8"
                                },
                                {
                                    "internalType": "uint256",
                                    "name": "stake",
                                    "type": "uint256"
                                },
                                {
                                    "internalType": "uint256",
                                    "name": "price",
                                    "type": "uint256"
                                },
                                {
                                    "internalType": "uint256",
                                    "name": "nbf",
                                    "type": "uint256"
                                },
                                {
                                    "internalType": "uint256",
                                    "name": "exp",
                                    "type": "uint256"
                                }
                            ],
                            "internalType": "struct VCTypesV01.CredentialSubject",
                            "name": "credentialSubject",
                            "type": "tuple"
                        },
                        {
                            "components": [
                                {
                                    "internalType": "string",
                                    "name": "id",
                                    "type": "string"
                                },
                                {
                                    "internalType": "string",
                                    "name": "_type",
                                    "type": "string"
                                }
                            ],
                            "internalType": "struct VCTypesV01.CredentialSchema",
                            "name": "credentialSchema",
                            "type": "tuple"
                        },
                        {
                            "internalType": "string",
                            "name": "issuanceDate",
                            "type": "string"
                        },
                        {
                            "internalType": "string",
                            "name": "expirationDate",
                            "type": "string"
                        }
                    ],
                    "internalType": "struct VCTypesV01.VerifiableCredential",
                    "name": "vc",
                    "type": "tuple"
                },
                {
                    "components": [
                        {
                            "internalType": "string",
                            "name": "_context",
                            "type": "string"
                        },
                        {
                            "internalType": "string",
                            "name": "_type",
                            "type": "string"
                        },
                        {
                            "internalType": "string",
                            "name": "id",
                            "type": "string"
                        },
                        {
                            "components": [
                                {
                                    "internalType": "string",
                                    "name": "id",
                                    "type": "string"
                                },
                                {
                                    "internalType": "address",
                                    "name": "ethereumAddress",
                                    "type": "address"
                                }
                            ],
                            "internalType": "struct VCTypesV01.Issuer",
                            "name": "issuer",
                            "type": "tuple"
                        },
                        {
                            "components": [
                                {
                                    "internalType": "string",
                                    "name": "id",
                                    "type": "string"
                                },
                                {
                                    "internalType": "address",
                                    "name": "ethereumAddress",
                                    "type": "address"
                                },
                                {
                                    "internalType": "string",
                                    "name": "_type",
                                    "type": "string"
                                },
                                {
                                    "internalType": "string",
                                    "name": "typeSchema",
                                    "type": "string"
                                },
                                {
                                    "internalType": "string",
                                    "name": "value",
                                    "type": "string"
                                },
                                {
                                    "internalType": "string",
                                    "name": "encrypted",
                                    "type": "string"
                                },
                                {
                                    "internalType": "uint8",
                                    "name": "trust",
                                    "type": "uint8"
                                },
                                {
                                    "internalType": "uint256",
                                    "name": "stake",
                                    "type": "uint256"
                                },
                                {
                                    "internalType": "uint256",
                                    "name": "price",
                                    "type": "uint256"
                                },
                                {
                                    "internalType": "uint256",
                                    "name": "nbf",
                                    "type": "uint256"
                                },
                                {
                                    "internalType": "uint256",
                                    "name": "exp",
                                    "type": "uint256"
                                }
                            ],
                            "internalType": "struct VCTypesV01.CredentialSubject",
                            "name": "credentialSubject",
                            "type": "tuple"
                        },
                        {
                            "components": [
                                {
                                    "internalType": "string",
                                    "name": "id",
                                    "type": "string"
                                },
                                {
                                    "internalType": "string",
                                    "name": "_type",
                                    "type": "string"
                                }
                            ],
                            "internalType": "struct VCTypesV01.CredentialSchema",
                            "name": "credentialSchema",
                            "type": "tuple"
                        },
                        {
                            "internalType": "string",
                            "name": "issuanceDate",
                            "type": "string"
                        },
                        {
                            "internalType": "string",
                            "name": "expirationDate",
                            "type": "string"
                        }
                    ],
                    "internalType": "struct VCTypesV01.VerifiableCredential",
                    "name": "disputeVC",
                    "type": "tuple"
                }
            ],
            "name": "disputeVCByGovern",
            "outputs": [
                {
                    "internalType": "bool",
                    "name": "",
                    "type": "bool"
                }
            ],
            "stateMutability": "nonpayable",
            "type": "function"
        },
        {
            "inputs": [
                {
                    "components": [
                        {
                            "internalType": "string",
                            "name": "_context",
                            "type": "string"
                        },
                        {
                            "internalType": "string",
                            "name": "_type",
                            "type": "string"
                        },
                        {
                            "internalType": "string",
                            "name": "id",
                            "type": "string"
                        },
                        {
                            "components": [
                                {
                                    "internalType": "string",
                                    "name": "id",
                                    "type": "string"
                                },
                                {
                                    "internalType": "address",
                                    "name": "ethereumAddress",
                                    "type": "address"
                                }
                            ],
                            "internalType": "struct VCTypesV01.Issuer",
                            "name": "issuer",
                            "type": "tuple"
                        },
                        {
                            "components": [
                                {
                                    "internalType": "string",
                                    "name": "id",
                                    "type": "string"
                                },
                                {
                                    "internalType": "address",
                                    "name": "ethereumAddress",
                                    "type": "address"
                                },
                                {
                                    "internalType": "string",
                                    "name": "_type",
                                    "type": "string"
                                },
                                {
                                    "internalType": "string",
                                    "name": "typeSchema",
                                    "type": "string"
                                },
                                {
                                    "internalType": "string",
                                    "name": "value",
                                    "type": "string"
                                },
                                {
                                    "internalType": "string",
                                    "name": "encrypted",
                                    "type": "string"
                                },
                                {
                                    "internalType": "uint8",
                                    "name": "trust",
                                    "type": "uint8"
                                },
                                {
                                    "internalType": "uint256",
                                    "name": "stake",
                                    "type": "uint256"
                                },
                                {
                                    "internalType": "uint256",
                                    "name": "price",
                                    "type": "uint256"
                                },
                                {
                                    "internalType": "uint256",
                                    "name": "nbf",
                                    "type": "uint256"
                                },
                                {
                                    "internalType": "uint256",
                                    "name": "exp",
                                    "type": "uint256"
                                }
                            ],
                            "internalType": "struct VCTypesV01.CredentialSubject",
                            "name": "credentialSubject",
                            "type": "tuple"
                        },
                        {
                            "components": [
                                {
                                    "internalType": "string",
                                    "name": "id",
                                    "type": "string"
                                },
                                {
                                    "internalType": "string",
                                    "name": "_type",
                                    "type": "string"
                                }
                            ],
                            "internalType": "struct VCTypesV01.CredentialSchema",
                            "name": "credentialSchema",
                            "type": "tuple"
                        },
                        {
                            "internalType": "string",
                            "name": "issuanceDate",
                            "type": "string"
                        },
                        {
                            "internalType": "string",
                            "name": "expirationDate",
                            "type": "string"
                        }
                    ],
                    "internalType": "struct VCTypesV01.VerifiableCredential",
                    "name": "vc",
                    "type": "tuple"
                }
            ],
            "name": "expiredVC",
            "outputs": [
                {
                    "internalType": "bool",
                    "name": "",
                    "type": "bool"
                }
            ],
            "stateMutability": "nonpayable",
            "type": "function"
        },
        {
            "inputs": [],
            "name": "feePercentage",
            "outputs": [
                {
                    "internalType": "uint256",
                    "name": "",
                    "type": "uint256"
                }
            ],
            "stateMutability": "view",
            "type": "function"
        },
        {
            "inputs": [],
            "name": "feesAvailableForWithdraw",
            "outputs": [
                {
                    "internalType": "uint256",
                    "name": "",
                    "type": "uint256"
                }
            ],
            "stateMutability": "view",
            "type": "function"
        },
        {
            "inputs": [
                {
                    "internalType": "bytes32",
                    "name": "role",
                    "type": "bytes32"
                }
            ],
            "name": "getRoleAdmin",
            "outputs": [
                {
                    "internalType": "bytes32",
                    "name": "",
                    "type": "bytes32"
                }
            ],
            "stateMutability": "view",
            "type": "function"
        },
        {
            "inputs": [
                {
                    "internalType": "bytes32",
                    "name": "role",
                    "type": "bytes32"
                },
                {
                    "internalType": "uint256",
                    "name": "index",
                    "type": "uint256"
                }
            ],
            "name": "getRoleMember",
            "outputs": [
                {
                    "internalType": "address",
                    "name": "",
                    "type": "address"
                }
            ],
            "stateMutability": "view",
            "type": "function"
        },
        {
            "inputs": [
                {
                    "internalType": "bytes32",
                    "name": "role",
                    "type": "bytes32"
                }
            ],
            "name": "getRoleMemberCount",
            "outputs": [
                {
                    "internalType": "uint256",
                    "name": "",
                    "type": "uint256"
                }
            ],
            "stateMutability": "view",
            "type": "function"
        },
        {
            "inputs": [
                {
                    "components": [
                        {
                            "internalType": "string",
                            "name": "_context",
                            "type": "string"
                        },
                        {
                            "internalType": "string",
                            "name": "_type",
                            "type": "string"
                        },
                        {
                            "internalType": "string",
                            "name": "id",
                            "type": "string"
                        },
                        {
                            "components": [
                                {
                                    "internalType": "string",
                                    "name": "id",
                                    "type": "string"
                                },
                                {
                                    "internalType": "address",
                                    "name": "ethereumAddress",
                                    "type": "address"
                                }
                            ],
                            "internalType": "struct VCTypesV01.Issuer",
                            "name": "issuer",
                            "type": "tuple"
                        },
                        {
                            "components": [
                                {
                                    "internalType": "string",
                                    "name": "id",
                                    "type": "string"
                                },
                                {
                                    "internalType": "address",
                                    "name": "ethereumAddress",
                                    "type": "address"
                                },
                                {
                                    "internalType": "string",
                                    "name": "_type",
                                    "type": "string"
                                },
                                {
                                    "internalType": "string",
                                    "name": "typeSchema",
                                    "type": "string"
                                },
                                {
                                    "internalType": "string",
                                    "name": "value",
                                    "type": "string"
                                },
                                {
                                    "internalType": "string",
                                    "name": "encrypted",
                                    "type": "string"
                                },
                                {
                                    "internalType": "uint8",
                                    "name": "trust",
                                    "type": "uint8"
                                },
                                {
                                    "internalType": "uint256",
                                    "name": "stake",
                                    "type": "uint256"
                                },
                                {
                                    "internalType": "uint256",
                                    "name": "price",
                                    "type": "uint256"
                                },
                                {
                                    "internalType": "uint256",
                                    "name": "nbf",
                                    "type": "uint256"
                                },
                                {
                                    "internalType": "uint256",
                                    "name": "exp",
                                    "type": "uint256"
                                }
                            ],
                            "internalType": "struct VCTypesV01.CredentialSubject",
                            "name": "credentialSubject",
                            "type": "tuple"
                        },
                        {
                            "components": [
                                {
                                    "internalType": "string",
                                    "name": "id",
                                    "type": "string"
                                },
                                {
                                    "internalType": "string",
                                    "name": "_type",
                                    "type": "string"
                                }
                            ],
                            "internalType": "struct VCTypesV01.CredentialSchema",
                            "name": "credentialSchema",
                            "type": "tuple"
                        },
                        {
                            "internalType": "string",
                            "name": "issuanceDate",
                            "type": "string"
                        },
                        {
                            "internalType": "string",
                            "name": "expirationDate",
                            "type": "string"
                        }
                    ],
                    "internalType": "struct VCTypesV01.VerifiableCredential",
                    "name": "vc",
                    "type": "tuple"
                }
            ],
            "name": "getUuid",
            "outputs": [
                {
                    "internalType": "bytes32",
                    "name": "",
                    "type": "bytes32"
                }
            ],
            "stateMutability": "pure",
            "type": "function"
        },
        {
            "inputs": [
                {
                    "components": [
                        {
                            "internalType": "string",
                            "name": "_context",
                            "type": "string"
                        },
                        {
                            "internalType": "string",
                            "name": "_type",
                            "type": "string"
                        },
                        {
                            "internalType": "string",
                            "name": "id",
                            "type": "string"
                        },
                        {
                            "components": [
                                {
                                    "internalType": "string",
                                    "name": "id",
                                    "type": "string"
                                },
                                {
                                    "internalType": "address",
                                    "name": "ethereumAddress",
                                    "type": "address"
                                }
                            ],
                            "internalType": "struct VCTypesV01.Issuer",
                            "name": "issuer",
                            "type": "tuple"
                        },
                        {
                            "components": [
                                {
                                    "internalType": "string",
                                    "name": "id",
                                    "type": "string"
                                },
                                {
                                    "internalType": "address",
                                    "name": "ethereumAddress",
                                    "type": "address"
                                },
                                {
                                    "internalType": "string",
                                    "name": "_type",
                                    "type": "string"
                                },
                                {
                                    "internalType": "string",
                                    "name": "typeSchema",
                                    "type": "string"
                                },
                                {
                                    "internalType": "string",
                                    "name": "value",
                                    "type": "string"
                                },
                                {
                                    "internalType": "string",
                                    "name": "encrypted",
                                    "type": "string"
                                },
                                {
                                    "internalType": "uint8",
                                    "name": "trust",
                                    "type": "uint8"
                                },
                                {
                                    "internalType": "uint256",
                                    "name": "stake",
                                    "type": "uint256"
                                },
                                {
                                    "internalType": "uint256",
                                    "name": "price",
                                    "type": "uint256"
                                },
                                {
                                    "internalType": "uint256",
                                    "name": "nbf",
                                    "type": "uint256"
                                },
                                {
                                    "internalType": "uint256",
                                    "name": "exp",
                                    "type": "uint256"
                                }
                            ],
                            "internalType": "struct VCTypesV01.CredentialSubject",
                            "name": "credentialSubject",
                            "type": "tuple"
                        },
                        {
                            "components": [
                                {
                                    "internalType": "string",
                                    "name": "id",
                                    "type": "string"
                                },
                                {
                                    "internalType": "string",
                                    "name": "_type",
                                    "type": "string"
                                }
                            ],
                            "internalType": "struct VCTypesV01.CredentialSchema",
                            "name": "credentialSchema",
                            "type": "tuple"
                        },
                        {
                            "internalType": "string",
                            "name": "issuanceDate",
                            "type": "string"
                        },
                        {
                            "internalType": "string",
                            "name": "expirationDate",
                            "type": "string"
                        }
                    ],
                    "internalType": "struct VCTypesV01.VerifiableCredential",
                    "name": "vc",
                    "type": "tuple"
                }
            ],
            "name": "getVCStatus",
            "outputs": [
                {
                    "internalType": "string",
                    "name": "",
                    "type": "string"
                }
            ],
            "stateMutability": "view",
            "type": "function"
        },
        {
            "inputs": [
                {
                    "internalType": "bytes32",
                    "name": "role",
                    "type": "bytes32"
                },
                {
                    "internalType": "address",
                    "name": "account",
                    "type": "address"
                }
            ],
            "name": "grantRole",
            "outputs": [],
            "stateMutability": "nonpayable",
            "type": "function"
        },
        {
            "inputs": [
                {
                    "internalType": "bytes32",
                    "name": "role",
                    "type": "bytes32"
                },
                {
                    "internalType": "address",
                    "name": "account",
                    "type": "address"
                }
            ],
            "name": "hasRole",
            "outputs": [
                {
                    "internalType": "bool",
                    "name": "",
                    "type": "bool"
                }
            ],
            "stateMutability": "view",
            "type": "function"
        },
        {
            "inputs": [
                {
                    "internalType": "address",
                    "name": "spender",
                    "type": "address"
                },
                {
                    "internalType": "uint256",
                    "name": "addedValue",
                    "type": "uint256"
                }
            ],
            "name": "increaseAllowance",
            "outputs": [
                {
                    "internalType": "bool",
                    "name": "",
                    "type": "bool"
                }
            ],
            "stateMutability": "nonpayable",
            "type": "function"
        },
        {
            "inputs": [
                {
                    "internalType": "string",
                    "name": "name",
                    "type": "string"
                },
                {
                    "internalType": "string",
                    "name": "symbol",
                    "type": "string"
                },
                {
                    "internalType": "string",
                    "name": "version",
                    "type": "string"
                }
            ],
            "name": "initialize",
            "outputs": [],
            "stateMutability": "nonpayable",
            "type": "function"
        },
        {
            "inputs": [],
            "name": "maxStakeToIssue",
            "outputs": [
                {
                    "internalType": "uint256",
                    "name": "",
                    "type": "uint256"
                }
            ],
            "stateMutability": "view",
            "type": "function"
        },
        {
            "inputs": [],
            "name": "minBalanceToIssue",
            "outputs": [
                {
                    "internalType": "uint256",
                    "name": "",
                    "type": "uint256"
                }
            ],
            "stateMutability": "view",
            "type": "function"
        },
        {
            "inputs": [],
            "name": "minBalanceToReceive",
            "outputs": [
                {
                    "internalType": "uint256",
                    "name": "",
                    "type": "uint256"
                }
            ],
            "stateMutability": "view",
            "type": "function"
        },
        {
            "inputs": [],
            "name": "minBalanceToTransfer",
            "outputs": [
                {
                    "internalType": "uint256",
                    "name": "",
                    "type": "uint256"
                }
            ],
            "stateMutability": "view",
            "type": "function"
        },
        {
            "inputs": [],
            "name": "minPriceToIssue",
            "outputs": [
                {
                    "internalType": "uint256",
                    "name": "",
                    "type": "uint256"
                }
            ],
            "stateMutability": "view",
            "type": "function"
        },
        {
            "inputs": [],
            "name": "minStakeToIssue",
            "outputs": [
                {
                    "internalType": "uint256",
                    "name": "",
                    "type": "uint256"
                }
            ],
            "stateMutability": "view",
            "type": "function"
        },
        {
            "inputs": [
                {
                    "internalType": "address",
                    "name": "to",
                    "type": "address"
                },
                {
                    "internalType": "uint256",
                    "name": "amount",
                    "type": "uint256"
                }
            ],
            "name": "mint",
            "outputs": [],
            "stateMutability": "nonpayable",
            "type": "function"
        },
        {
            "inputs": [],
            "name": "name",
            "outputs": [
                {
                    "internalType": "string",
                    "name": "",
                    "type": "string"
                }
            ],
            "stateMutability": "view",
            "type": "function"
        },
        {
            "inputs": [],
            "name": "pause",
            "outputs": [],
            "stateMutability": "nonpayable",
            "type": "function"
        },
        {
            "inputs": [],
            "name": "paused",
            "outputs": [
                {
                    "internalType": "bool",
                    "name": "",
                    "type": "bool"
                }
            ],
            "stateMutability": "view",
            "type": "function"
        },
        {
            "inputs": [
                {
                    "internalType": "address",
                    "name": "dest",
                    "type": "address"
                }
            ],
            "name": "payments",
            "outputs": [
                {
                    "internalType": "uint256",
                    "name": "",
                    "type": "uint256"
                }
            ],
            "stateMutability": "view",
            "type": "function"
        },
        {
            "inputs": [
                {
                    "components": [
                        {
                            "internalType": "string",
                            "name": "_context",
                            "type": "string"
                        },
                        {
                            "internalType": "string",
                            "name": "_type",
                            "type": "string"
                        },
                        {
                            "internalType": "string",
                            "name": "id",
                            "type": "string"
                        },
                        {
                            "components": [
                                {
                                    "internalType": "string",
                                    "name": "id",
                                    "type": "string"
                                },
                                {
                                    "internalType": "address",
                                    "name": "ethereumAddress",
                                    "type": "address"
                                }
                            ],
                            "internalType": "struct VCTypesV01.Issuer",
                            "name": "issuer",
                            "type": "tuple"
                        },
                        {
                            "components": [
                                {
                                    "internalType": "string",
                                    "name": "id",
                                    "type": "string"
                                },
                                {
                                    "internalType": "address",
                                    "name": "ethereumAddress",
                                    "type": "address"
                                },
                                {
                                    "internalType": "string",
                                    "name": "_type",
                                    "type": "string"
                                },
                                {
                                    "internalType": "string",
                                    "name": "typeSchema",
                                    "type": "string"
                                },
                                {
                                    "internalType": "string",
                                    "name": "value",
                                    "type": "string"
                                },
                                {
                                    "internalType": "string",
                                    "name": "encrypted",
                                    "type": "string"
                                },
                                {
                                    "internalType": "uint8",
                                    "name": "trust",
                                    "type": "uint8"
                                },
                                {
                                    "internalType": "uint256",
                                    "name": "stake",
                                    "type": "uint256"
                                },
                                {
                                    "internalType": "uint256",
                                    "name": "price",
                                    "type": "uint256"
                                },
                                {
                                    "internalType": "uint256",
                                    "name": "nbf",
                                    "type": "uint256"
                                },
                                {
                                    "internalType": "uint256",
                                    "name": "exp",
                                    "type": "uint256"
                                }
                            ],
                            "internalType": "struct VCTypesV01.CredentialSubject",
                            "name": "credentialSubject",
                            "type": "tuple"
                        },
                        {
                            "components": [
                                {
                                    "internalType": "string",
                                    "name": "id",
                                    "type": "string"
                                },
                                {
                                    "internalType": "string",
                                    "name": "_type",
                                    "type": "string"
                                }
                            ],
                            "internalType": "struct VCTypesV01.CredentialSchema",
                            "name": "credentialSchema",
                            "type": "tuple"
                        },
                        {
                            "internalType": "string",
                            "name": "issuanceDate",
                            "type": "string"
                        },
                        {
                            "internalType": "string",
                            "name": "expirationDate",
                            "type": "string"
                        }
                    ],
                    "internalType": "struct VCTypesV01.VerifiableCredential",
                    "name": "vc",
                    "type": "tuple"
                },
                {
                    "internalType": "bytes",
                    "name": "proofValue",
                    "type": "bytes"
                }
            ],
            "name": "registerVC",
            "outputs": [
                {
                    "internalType": "bool",
                    "name": "",
                    "type": "bool"
                }
            ],
            "stateMutability": "payable",
            "type": "function"
        },
        {
            "inputs": [
                {
                    "internalType": "bytes32",
                    "name": "",
                    "type": "bytes32"
                }
            ],
            "name": "registry",
            "outputs": [
                {
                    "internalType": "enum KRBTokenV01.Status",
                    "name": "credentialStatus",
                    "type": "uint8"
                },
                {
                    "internalType": "bytes32",
                    "name": "disputedBy",
                    "type": "bytes32"
                }
            ],
            "stateMutability": "view",
            "type": "function"
        },
        {
            "inputs": [
                {
                    "internalType": "bytes32",
                    "name": "role",
                    "type": "bytes32"
                },
                {
                    "internalType": "address",
                    "name": "account",
                    "type": "address"
                }
            ],
            "name": "renounceRole",
            "outputs": [],
            "stateMutability": "nonpayable",
            "type": "function"
        },
        {
            "inputs": [
                {
                    "internalType": "bytes32",
                    "name": "role",
                    "type": "bytes32"
                },
                {
                    "internalType": "address",
                    "name": "account",
                    "type": "address"
                }
            ],
            "name": "revokeRole",
            "outputs": [],
            "stateMutability": "nonpayable",
            "type": "function"
        },
        {
            "inputs": [
                {
                    "components": [
                        {
                            "internalType": "string",
                            "name": "_context",
                            "type": "string"
                        },
                        {
                            "internalType": "string",
                            "name": "_type",
                            "type": "string"
                        },
                        {
                            "internalType": "string",
                            "name": "id",
                            "type": "string"
                        },
                        {
                            "components": [
                                {
                                    "internalType": "string",
                                    "name": "id",
                                    "type": "string"
                                },
                                {
                                    "internalType": "address",
                                    "name": "ethereumAddress",
                                    "type": "address"
                                }
                            ],
                            "internalType": "struct VCTypesV01.Issuer",
                            "name": "issuer",
                            "type": "tuple"
                        },
                        {
                            "components": [
                                {
                                    "internalType": "string",
                                    "name": "id",
                                    "type": "string"
                                },
                                {
                                    "internalType": "address",
                                    "name": "ethereumAddress",
                                    "type": "address"
                                },
                                {
                                    "internalType": "string",
                                    "name": "_type",
                                    "type": "string"
                                },
                                {
                                    "internalType": "string",
                                    "name": "typeSchema",
                                    "type": "string"
                                },
                                {
                                    "internalType": "string",
                                    "name": "value",
                                    "type": "string"
                                },
                                {
                                    "internalType": "string",
                                    "name": "encrypted",
                                    "type": "string"
                                },
                                {
                                    "internalType": "uint8",
                                    "name": "trust",
                                    "type": "uint8"
                                },
                                {
                                    "internalType": "uint256",
                                    "name": "stake",
                                    "type": "uint256"
                                },
                                {
                                    "internalType": "uint256",
                                    "name": "price",
                                    "type": "uint256"
                                },
                                {
                                    "internalType": "uint256",
                                    "name": "nbf",
                                    "type": "uint256"
                                },
                                {
                                    "internalType": "uint256",
                                    "name": "exp",
                                    "type": "uint256"
                                }
                            ],
                            "internalType": "struct VCTypesV01.CredentialSubject",
                            "name": "credentialSubject",
                            "type": "tuple"
                        },
                        {
                            "components": [
                                {
                                    "internalType": "string",
                                    "name": "id",
                                    "type": "string"
                                },
                                {
                                    "internalType": "string",
                                    "name": "_type",
                                    "type": "string"
                                }
                            ],
                            "internalType": "struct VCTypesV01.CredentialSchema",
                            "name": "credentialSchema",
                            "type": "tuple"
                        },
                        {
                            "internalType": "string",
                            "name": "issuanceDate",
                            "type": "string"
                        },
                        {
                            "internalType": "string",
                            "name": "expirationDate",
                            "type": "string"
                        }
                    ],
                    "internalType": "struct VCTypesV01.VerifiableCredential",
                    "name": "vc",
                    "type": "tuple"
                },
                {
                    "internalType": "string",
                    "name": "reason",
                    "type": "string"
                }
            ],
            "name": "revokeVC",
            "outputs": [
                {
                    "internalType": "bool",
                    "name": "",
                    "type": "bool"
                }
            ],
            "stateMutability": "nonpayable",
            "type": "function"
        },
        {
            "inputs": [
                {
                    "internalType": "address",
                    "name": "issuer",
                    "type": "address"
                }
            ],
            "name": "stakeOf",
            "outputs": [
                {
                    "internalType": "uint256",
                    "name": "",
                    "type": "uint256"
                }
            ],
            "stateMutability": "view",
            "type": "function"
        },
        {
            "inputs": [
                {
                    "internalType": "bytes4",
                    "name": "interfaceId",
                    "type": "bytes4"
                }
            ],
            "name": "supportsInterface",
            "outputs": [
                {
                    "internalType": "bool",
                    "name": "",
                    "type": "bool"
                }
            ],
            "stateMutability": "view",
            "type": "function"
        },
        {
            "inputs": [
                {
                    "components": [
                        {
                            "internalType": "string",
                            "name": "_context",
                            "type": "string"
                        },
                        {
                            "internalType": "string",
                            "name": "_type",
                            "type": "string"
                        },
                        {
                            "internalType": "string",
                            "name": "id",
                            "type": "string"
                        },
                        {
                            "components": [
                                {
                                    "internalType": "string",
                                    "name": "id",
                                    "type": "string"
                                },
                                {
                                    "internalType": "address",
                                    "name": "ethereumAddress",
                                    "type": "address"
                                }
                            ],
                            "internalType": "struct VCTypesV01.Issuer",
                            "name": "issuer",
                            "type": "tuple"
                        },
                        {
                            "components": [
                                {
                                    "internalType": "string",
                                    "name": "id",
                                    "type": "string"
                                },
                                {
                                    "internalType": "address",
                                    "name": "ethereumAddress",
                                    "type": "address"
                                },
                                {
                                    "internalType": "string",
                                    "name": "_type",
                                    "type": "string"
                                },
                                {
                                    "internalType": "string",
                                    "name": "typeSchema",
                                    "type": "string"
                                },
                                {
                                    "internalType": "string",
                                    "name": "value",
                                    "type": "string"
                                },
                                {
                                    "internalType": "string",
                                    "name": "encrypted",
                                    "type": "string"
                                },
                                {
                                    "internalType": "uint8",
                                    "name": "trust",
                                    "type": "uint8"
                                },
                                {
                                    "internalType": "uint256",
                                    "name": "stake",
                                    "type": "uint256"
                                },
                                {
                                    "internalType": "uint256",
                                    "name": "price",
                                    "type": "uint256"
                                },
                                {
                                    "internalType": "uint256",
                                    "name": "nbf",
                                    "type": "uint256"
                                },
                                {
                                    "internalType": "uint256",
                                    "name": "exp",
                                    "type": "uint256"
                                }
                            ],
                            "internalType": "struct VCTypesV01.CredentialSubject",
                            "name": "credentialSubject",
                            "type": "tuple"
                        },
                        {
                            "components": [
                                {
                                    "internalType": "string",
                                    "name": "id",
                                    "type": "string"
                                },
                                {
                                    "internalType": "string",
                                    "name": "_type",
                                    "type": "string"
                                }
                            ],
                            "internalType": "struct VCTypesV01.CredentialSchema",
                            "name": "credentialSchema",
                            "type": "tuple"
                        },
                        {
                            "internalType": "string",
                            "name": "issuanceDate",
                            "type": "string"
                        },
                        {
                            "internalType": "string",
                            "name": "expirationDate",
                            "type": "string"
                        }
                    ],
                    "internalType": "struct VCTypesV01.VerifiableCredential",
                    "name": "vc",
                    "type": "tuple"
                },
                {
                    "internalType": "string",
                    "name": "reason",
                    "type": "string"
                }
            ],
            "name": "suspendVC",
            "outputs": [
                {
                    "internalType": "bool",
                    "name": "",
                    "type": "bool"
                }
            ],
            "stateMutability": "nonpayable",
            "type": "function"
        },
        {
            "inputs": [],
            "name": "symbol",
            "outputs": [
                {
                    "internalType": "string",
                    "name": "",
                    "type": "string"
                }
            ],
            "stateMutability": "view",
            "type": "function"
        },
        {
            "inputs": [],
            "name": "totalSupply",
            "outputs": [
                {
                    "internalType": "uint256",
                    "name": "",
                    "type": "uint256"
                }
            ],
            "stateMutability": "view",
            "type": "function"
        },
        {
            "inputs": [
                {
                    "internalType": "address",
                    "name": "recipient",
                    "type": "address"
                },
                {
                    "internalType": "uint256",
                    "name": "amount",
                    "type": "uint256"
                }
            ],
            "name": "transfer",
            "outputs": [
                {
                    "internalType": "bool",
                    "name": "",
                    "type": "bool"
                }
            ],
            "stateMutability": "nonpayable",
            "type": "function"
        },
        {
            "inputs": [
                {
                    "internalType": "address",
                    "name": "sender",
                    "type": "address"
                },
                {
                    "internalType": "address",
                    "name": "recipient",
                    "type": "address"
                },
                {
                    "internalType": "uint256",
                    "name": "amount",
                    "type": "uint256"
                }
            ],
            "name": "transferFrom",
            "outputs": [
                {
                    "internalType": "bool",
                    "name": "",
                    "type": "bool"
                }
            ],
            "stateMutability": "nonpayable",
            "type": "function"
        },
        {
            "inputs": [],
            "name": "unpause",
            "outputs": [],
            "stateMutability": "nonpayable",
            "type": "function"
        },
        {
            "inputs": [
                {
                    "internalType": "uint256",
                    "name": "newMinBalanceToTransfer",
                    "type": "uint256"
                },
                {
                    "internalType": "uint256",
                    "name": "newMinBalanceToReceive",
                    "type": "uint256"
                },
                {
                    "internalType": "uint256",
                    "name": "newMinBalanceToIssue",
                    "type": "uint256"
                },
                {
                    "internalType": "uint256",
                    "name": "newFeePercentage",
                    "type": "uint256"
                },
                {
                    "internalType": "uint256",
                    "name": "newMinPrice",
                    "type": "uint256"
                },
                {
                    "internalType": "uint256",
                    "name": "newMinStake",
                    "type": "uint256"
                },
                {
                    "internalType": "uint256",
                    "name": "newMaxStake",
                    "type": "uint256"
                }
            ],
            "name": "updateParameters",
            "outputs": [],
            "stateMutability": "nonpayable",
            "type": "function"
        },
        {
            "inputs": [
                {
                    "internalType": "address",
                    "name": "newImplementation",
                    "type": "address"
                }
            ],
            "name": "upgradeTo",
            "outputs": [],
            "stateMutability": "nonpayable",
            "type": "function"
        },
        {
            "inputs": [
                {
                    "internalType": "address",
                    "name": "newImplementation",
                    "type": "address"
                },
                {
                    "internalType": "bytes",
                    "name": "data",
                    "type": "bytes"
                }
            ],
            "name": "upgradeToAndCall",
            "outputs": [],
            "stateMutability": "payable",
            "type": "function"
        },
        {
            "inputs": [
                {
                    "internalType": "address payable",
                    "name": "_to",
                    "type": "address"
                },
                {
                    "internalType": "uint256",
                    "name": "_amount",
                    "type": "uint256"
                }
            ],
            "name": "withdrawFees",
            "outputs": [],
            "stateMutability": "nonpayable",
            "type": "function"
        },
        {
            "inputs": [
                {
                    "internalType": "address payable",
                    "name": "payee",
                    "type": "address"
                }
            ],
            "name": "withdrawPayments",
            "outputs": [],
            "stateMutability": "nonpayable",
            "type": "function"
        }
    ],
    "bytecode": "60a06040523060805234801561001457600080fd5b506080516161176200004660003960008181611394015281816113d40152818161157d01526115bd01526161176000f3fe6080604052600436106103355760003560e01c80637ef50298116101ab578063af4e720d116100f7578063dd62ed3e11610095578063dec9cafe1161006f578063dec9cafe146109b7578063e2982c21146109ca578063e5a2b28e146109ea578063ee2b1b4d14610a0157600080fd5b8063dd62ed3e14610943578063de5785d514610989578063de9d2b1c146109a057600080fd5b8063ca15c873116100d1578063ca15c873146108c3578063ca2a8cfc146108e3578063ce556f9d14610903578063d547741f1461092357600080fd5b8063af4e720d1461086c578063bcd6899314610883578063c0d506d6146108a357600080fd5b80639c70287c11610164578063a457c2d71161013e578063a457c2d7146107ec578063a6487c531461080c578063a9059cbb1461082c578063ad3b1b471461084c57600080fd5b80639c70287c146107a0578063a001ecdd146107c0578063a217fddf146107d757600080fd5b80637ef50298146106b55780638456cb59146106fe578063888bb7b5146107135780639010d07c1461073357806391d148541461076b57806395d89b411461078b57600080fd5b80633644e5151161028557806342623360116102235780635c975abb116101fd5780635c975abb1461062657806370a082311461063f578063716f4d901461067557806379cc67901461069557600080fd5b806342623360146105bc57806342966c68146105f35780634f1ef2861461061357600080fd5b806338b7f4461161025f57806338b7f4461461054557806339509351146105675780633f4ba83a1461058757806340c10f191461059c57600080fd5b80633644e515146104f057806336568abe146105055780633659cfe61461052557600080fd5b806318160ddd116102f25780632a401e81116102cc5780632a401e81146104745780632f2ff15d14610494578063313ce567146104b457806331b3eb94146104d057600080fd5b806318160ddd1461040f57806323b872dd14610424578063248a9ca31461044457600080fd5b806301ffc9a71461033a57806306fdde031461036f57806307a0d7981461039157806307a77292146103b6578063095ea7b3146103cd5780630e8bc074146103ed575b600080fd5b34801561034657600080fd5b5061035a6103553660046148a4565b610a18565b60405190151581526020015b60405180910390f35b34801561037b57600080fd5b50610384610a43565b6040516103669190614926565b34801561039d57600080fd5b506103a86102935481565b604051908152602001610366565b3480156103c257600080fd5b506103a861028f5481565b3480156103d957600080fd5b5061035a6103e836600461495e565b610ad5565b3480156103f957600080fd5b5061040d61040836600461498a565b610aeb565b005b34801561041b57600080fd5b5060cb546103a8565b34801561043057600080fd5b5061035a61043f3660046149d6565b610c30565b34801561045057600080fd5b506103a861045f366004614a17565b60009081526065602052604090206001015490565b34801561048057600080fd5b5061035a61048f366004614e94565b610cdc565b3480156104a057600080fd5b5061040d6104af366004614ef7565b61126f565b3480156104c057600080fd5b5060405160128152602001610366565b3480156104dc57600080fd5b5061040d6104eb366004614f27565b61129a565b3480156104fc57600080fd5b506103a86112fd565b34801561051157600080fd5b5061040d610520366004614ef7565b61130c565b34801561053157600080fd5b5061040d610540366004614f27565b61138a565b34801561055157600080fd5b506103a860008051602061605b83398151915281565b34801561057357600080fd5b5061035a61058236600461495e565b611452565b34801561059357600080fd5b5061040d61148e565b3480156105a857600080fd5b5061040d6105b736600461495e565b6114fd565b3480156105c857600080fd5b506103a86105d7366004614f27565b6001600160a01b03166000908152610297602052604090205490565b3480156105ff57600080fd5b5061040d61060e366004614a17565b611569565b61040d610621366004614f44565b611573565b34801561063257600080fd5b5061012d5460ff1661035a565b34801561064b57600080fd5b506103a861065a366004614f27565b6001600160a01b0316600090815260c9602052604090205490565b34801561068157600080fd5b5061035a610690366004614f89565b611628565b3480156106a157600080fd5b5061040d6106b036600461495e565b61182e565b3480156106c157600080fd5b506106f06106d0366004614a17565b610296602052600090815260409020805460019091015460ff9091169082565b604051610366929190614ff8565b34801561070a57600080fd5b5061040d6118af565b34801561071f57600080fd5b5061035a61072e366004615024565b61191a565b34801561073f57600080fd5b5061075361074e366004615060565b611a82565b6040516001600160a01b039091168152602001610366565b34801561077757600080fd5b5061035a610786366004614ef7565b611a9a565b34801561079757600080fd5b50610384611ac5565b3480156107ac57600080fd5b5061040d6107bb36600461495e565b611ad4565b3480156107cc57600080fd5b506103a86102945481565b3480156107e357600080fd5b506103a8600081565b3480156107f857600080fd5b5061035a61080736600461495e565b611c2c565b34801561081857600080fd5b5061040d610827366004615082565b611cc5565b34801561083857600080fd5b5061035a61084736600461495e565b611d8c565b34801561085857600080fd5b5061040d61086736600461495e565b611d99565b34801561087857600080fd5b506103a86102905481565b34801561088f57600080fd5b506103a861089e366004615024565b611e8e565b3480156108af57600080fd5b506103846108be366004615024565b611e99565b3480156108cf57600080fd5b506103a86108de366004614a17565b61205a565b3480156108ef57600080fd5b5061035a6108fe366004614f89565b612071565b34801561090f57600080fd5b5061035a61091e366004614f89565b612140565b34801561092f57600080fd5b5061040d61093e366004614ef7565b61232b565b34801561094f57600080fd5b506103a861095e366004615109565b6001600160a01b03918216600090815260ca6020908152604080832093909416825291909152205490565b34801561099557600080fd5b506103a86102955481565b3480156109ac57600080fd5b506103a86102925481565b61035a6109c5366004614f89565b612351565b3480156109d657600080fd5b506103a86109e5366004614f27565b6127c0565b3480156109f657600080fd5b506103a861028e5481565b348015610a0d57600080fd5b506103a86102915481565b60006001600160e01b03198216635a05180f60e01b1480610a3d5750610a3d82612830565b92915050565b606060cc8054610a5290615137565b80601f0160208091040260200160405190810160405280929190818152602001828054610a7e90615137565b8015610acb5780601f10610aa057610100808354040283529160200191610acb565b820191906000526020600020905b815481529060010190602001808311610aae57829003601f168201915b5050505050905090565b6000610ae2338484612865565b50600192915050565b610b0360008051602061605b83398151915233611a9a565b610b5f5760405162461bcd60e51b815260206004820152603460248201526000805160206160c2833981519152604482015273746f206368616e676520706172616d657465727360601b60648201526084015b60405180910390fd5b61028e87905561028f869055610290859055610294849055610291839055818111610bf25760405162461bcd60e51b815260206004820152603f60248201527f4b5242546f6b656e3a206e65774d61785374616b65206d75737420626520677260448201527f6561746572206f7220657175616c207468616e206e65774d696e5374616b65006064820152608401610b56565b6102928290556102938190556040517ff2e795d4a33ae9a0d3282888375b8ae781ea4de1cbf101ac96150aa95ccff0b490600090a150505050505050565b6000610c3d848484612989565b6001600160a01b038416600090815260ca6020908152604080832033845290915290205482811015610cc25760405162461bcd60e51b815260206004820152602860248201527f45524332303a207472616e7366657220616d6f756e74206578636565647320616044820152676c6c6f77616e636560c01b6064820152608401610b56565b610ccf8533858403612865565b60019150505b9392505050565b6000610cf660008051602061605b83398151915233611a9a565b610d4b5760405162461bcd60e51b815260206004820152603260248201526000805160206160c2833981519152604482015271746f207265736f6c7665206469737075746560701b6064820152608401610b56565b604051602001610d93907f5b2256657269666961626c6543726564656e7469616c222c224469737075746581526b43726564656e7469616c225d60a01b6020820152602c0190565b604051602081830303815290604052805190602001208260200151604051602001610dbe9190615171565b6040516020818303038152906040528051906020012014610e405760405162461bcd60e51b815260206004820152603660248201527f4b5242546f6b656e3a206469737075746520636c61696d2074797065206d75736044820152751d08189948111a5cdc1d5d1950dc9959195b9d1a585b60521b6064820152608401610b56565b6060820151602001516001600160a01b03163314610eb45760405162461bcd60e51b815260206004820152602b60248201527f4b5242546f6b656e3a20697373756572206d7573742062652074686520476f7660448201526a65726e206164647265737360a81b6064820152608401610b56565b8260400151604051602001610ec99190615171565b60408051601f198184030181529082905280516020918201206080850151519092610ef49201615171565b6040516020818303038152906040528051906020012014610f7d5760405162461bcd60e51b815260206004820152603c60248201527f4b5242546f6b656e3a206469737075746556432063726564656e7469616c537560448201527f626a6563742069642064696666657265732066726f6d205643206964000000006064820152608401610b56565b610f8682612b62565b6000610f9184611e8e565b9050600080828152610296602052604090205460ff166005811115610fb857610fb8614fe2565b14158015610fea575060026000828152610296602052604090205460ff166005811115610fe757610fe7614fe2565b14155b6110425760405162461bcd60e51b815260206004820152602360248201527f4b5242546f6b656e3a20564320737461746520616c72656164792064697370756044820152621d195960ea1b6064820152608401610b56565b600061104d84611e8e565b60008381526102966020908152604091829020805460ff1916600217815560010183905581518581529081018390529192507f8e39eab2c454d024fb5c89b50dabc51f5068c7a283891d06aa91f5ba96acded1910160405180910390a16000818152610296602052604090819020805460ff19166001179055517f632a70c3617009ee20500487ed52cd53ce50635cd84cf177b09577715eae51db906110f690839087906152d1565b60405180910390a1600061110c6012600a6154c8565b866080015160e0015161111f91906154d7565b90508061029760008860600151602001516001600160a01b03166001600160a01b0316815260200190815260200160002054106111d55760608601516020908101516001600160a01b0316600090815261029790915260409020546111849082612ec8565b6060870180516020908101516001600160a01b0390811660009081526102978352604080822095909555925182015193518581529316926000805160206160a2833981519152910160405180910390a35b60006111ec82886080015160c0015160ff16612ed4565b905061120087608001516020015182612ee3565b61121287606001516020015182612ee3565b60006112206012600a6154c8565b876080015160e0015161123391906154d7565b9050600061124c82896080015160c0015160ff16612ed4565b90506112608860800151602001518261303d565b50600198975050505050505050565b60008281526065602052604090206001015461128b8133613128565b611295838361318c565b505050565b610229546040516351cff8d960e01b81526001600160a01b038381166004830152909116906351cff8d990602401600060405180830381600087803b1580156112e257600080fd5b505af11580156112f6573d6000803e3d6000fd5b5050505050565b60006113076131ae565b905090565b6001600160a01b038116331461137c5760405162461bcd60e51b815260206004820152602f60248201527f416363657373436f6e74726f6c3a2063616e206f6e6c792072656e6f756e636560448201526e103937b632b9903337b91039b2b63360891b6064820152608401610b56565b611386828261322b565b5050565b6001600160a01b037f00000000000000000000000000000000000000000000000000000000000000001630036113d25760405162461bcd60e51b8152600401610b56906154f6565b7f00000000000000000000000000000000000000000000000000000000000000006001600160a01b031661140461324d565b6001600160a01b03161461142a5760405162461bcd60e51b8152600401610b5690615542565b6114338161327b565b6040805160008082526020820190925261144f918391906132e0565b50565b33600081815260ca602090815260408083206001600160a01b03871684529091528120549091610ae291859061148990869061558e565b612865565b6114a660008051602061605b83398151915233611a9a565b6114f35760405162461bcd60e51b815260206004820152602a60248201526000805160206160c2833981519152604482015269746f20756e706175736560b01b6064820152608401610b56565b6114fb613424565b565b61151560008051602061605b83398151915233611a9a565b61155f5760405162461bcd60e51b815260206004820152602760248201526000805160206160c28339815191526044820152661d1bc81b5a5b9d60ca1b6064820152608401610b56565b611386828261303d565b61144f3382612ee3565b6001600160a01b037f00000000000000000000000000000000000000000000000000000000000000001630036115bb5760405162461bcd60e51b8152600401610b56906154f6565b7f00000000000000000000000000000000000000000000000000000000000000006001600160a01b03166115ed61324d565b6001600160a01b0316146116135760405162461bcd60e51b8152600401610b5690615542565b61161c8261327b565b611386828260016132e0565b6080820151602001516000906001600160a01b0316331461165b5760405162461bcd60e51b8152600401610b56906155a6565b600061166684611e8e565b905060016000828152610296602052604090205460ff16600581111561168e5761168e614fe2565b146116ab5760405162461bcd60e51b8152600401610b56906155fc565b6000818152610296602052604090819020805460ff19169055517f761f6dc13136b4cb3a156f0ed2a2b0865663e8bae80e43eb200aaff89b223b8a906116f49083908690615633565b60405180910390a1600061170a6012600a6154c8565b856080015160e0015161171d91906154d7565b9050600061173682876080015160c0015160ff16612ed4565b90508161029760008860600151602001516001600160a01b03166001600160a01b0316815260200190815260200160002054106117ec5760608601516020908101516001600160a01b03166000908152610297909152604090205461179b9083612ec8565b6060870180516020908101516001600160a01b0390811660009081526102978352604080822095909555925182015193518681529316926000805160206160a2833981519152910160405180910390a35b6117fe8660600151602001518361303d565b61181086608001516020015182612ee3565b61182286606001516020015182612ee3565b50600195945050505050565b600061183a833361095e565b9050818110156118985760405162461bcd60e51b8152602060048201526024808201527f45524332303a206275726e20616d6f756e74206578636565647320616c6c6f77604482015263616e636560e01b6064820152608401610b56565b6118a58333848403612865565b6112958383612ee3565b6118c760008051602061605b83398151915233611a9a565b6119125760405162461bcd60e51b815260206004820152602860248201526000805160206160c2833981519152604482015267746f20706175736560c01b6064820152608401610b56565b6114fb6134b9565b60008061192683611e8e565b905082608001516101400151421115611a725760006119476012600a6154c8565b846080015160e0015161195a91906154d7565b90508061029760008660600151602001516001600160a01b03166001600160a01b031681526020019081526020016000205410611a105760608401516020908101516001600160a01b0316600090815261029790915260409020546119bf9082612ec8565b6060850180516020908101516001600160a01b0390811660009081526102978352604080822095909555925182015193518581529316926000805160206160a2833981519152910160405180910390a35b611a228460600151602001518261303d565b60008281526102966020908152604091829020805460ff1916600517905590518381527f3077f64f92ad91c6479071531304fa3c1e0bb9b63e130c746f3a564292f0ddc6910160405180910390a1505b5050608001516101400151421190565b6000828152609760205260408120610cd59083613536565b60009182526065602090815260408084206001600160a01b0393909316845291905290205460ff1690565b606060cd8054610a5290615137565b611aec60008051602061605b83398151915233611a9a565b611b365760405162461bcd60e51b815260206004820152602760248201526000805160206160c28339815191526044820152663a3790313ab93760c91b6064820152608401610b56565b6001600160a01b038216611b9f5760405162461bcd60e51b815260206004820152602a60248201527f4b5242546f6b656e3a206275726e207374616b652066726f6d20746865207a65604482015269726f206164647265737360b01b6064820152608401610b56565b6001600160a01b038216600090815261029760205260409020548111611386576001600160a01b03821660009081526102976020526040902054611be39082612ec8565b6001600160a01b038316600081815261029760205260408082209390935591516000805160206160a283398151915290611c209085815260200190565b60405180910390a35050565b33600090815260ca602090815260408083206001600160a01b038616845290915281205482811015611cae5760405162461bcd60e51b815260206004820152602560248201527f45524332303a2064656372656173656420616c6c6f77616e63652062656c6f77604482015264207a65726f60d81b6064820152608401610b56565b611cbb3385858403612865565b5060019392505050565b600054610100900460ff16611ce05760005460ff1615611ce4565b303b155b611d475760405162461bcd60e51b815260206004820152602e60248201527f496e697469616c697a61626c653a20636f6e747261637420697320616c72656160448201526d191e481a5b9a5d1a585b1a5e995960921b6064820152608401610b56565b600054610100900460ff16158015611d69576000805461ffff19166101011790555b611d74848484613542565b8015611d86576000805461ff00191690555b50505050565b6000610ae2338484612989565b600261025c5403611dec5760405162461bcd60e51b815260206004820152601f60248201527f5265656e7472616e637947756172643a207265656e7472616e742063616c6c006044820152606401610b56565b600261025c55611e0a60008051602061605b83398151915233611a9a565b611e585760405162461bcd60e51b815260206004820152602b60248201526000805160206160c283398151915260448201526a746f20776974686472617760a81b6064820152608401610b56565b61029554811115611e6857600080fd5b61029554611e769082612ec8565b61029555611e8482826135d0565b5050600161025c55565b6000610a3d82613636565b60606000611ea683611e8e565b6000818152610296602052604081205491925060ff90911690816005811115611ed157611ed1614fe2565b03611ef95750506040805180820190915260048152634e6f6e6560e01b602082015292915050565b6001816005811115611f0d57611f0d614fe2565b03611f37575050604080518082019091526006815265125cdcdd595960d21b602082015292915050565b6002816005811115611f4b57611f4b614fe2565b03611f77575050604080518082019091526008815267111a5cdc1d5d195960c21b602082015292915050565b6003816005811115611f8b57611f8b614fe2565b03611fb657505060408051808201909152600781526614995d9bdad95960ca1b602082015292915050565b6004816005811115611fca57611fca614fe2565b03611ff757505060408051808201909152600981526814dd5cdc195b99195960ba1b602082015292915050565b600581600581111561200b5761200b614fe2565b03612036575050604080518082019091526007815266115e1c1a5c995960ca1b602082015292915050565b505060408051808201909152600581526422b93937b960d91b602082015292915050565b6000818152609760205260408120610a3d9061372a565b6060820151602001516000906001600160a01b031633146120a45760405162461bcd60e51b8152600401610b569061564c565b60006120af84611e8e565b905060016000828152610296602052604090205460ff1660058111156120d7576120d7614fe2565b146120f45760405162461bcd60e51b8152600401610b56906155fc565b6000818152610296602052604090819020805460ff19166003179055517fc8d626f397822cbf88d2668dbdd8bac1a4a172c0d81425fde1526ef2b8195ca3906116f49083908690615633565b6060820151602001516000906001600160a01b031633146121735760405162461bcd60e51b8152600401610b569061564c565b600061217e84611e8e565b905060016000828152610296602052604090205460ff1660058111156121a6576121a6614fe2565b146121c35760405162461bcd60e51b8152600401610b56906155fc565b6000818152610296602052604090819020805460ff19166004179055517f9f3ea3215e3320f6d705861aefc7d473557aff8cae1ac438222996d547233d359061220f9083908690615633565b60405180910390a160006122256012600a6154c8565b856080015160e0015161223891906154d7565b9050600061225182876080015160c0015160ff16612ed4565b90508161029760008860600151602001516001600160a01b03166001600160a01b0316815260200190815260200160002054106123075760608601516020908101516001600160a01b0316600090815261029790915260409020546122b69083612ec8565b6060870180516020908101516001600160a01b0390811660009081526102978352604080822095909555925182015193518681529316926000805160206160a2833981519152910160405180910390a35b6123198660600151602001518361303d565b61182286608001516020015182612ee3565b6000828152606560205260409020600101546123478133613128565b611295838361322b565b6080820151602001516000906001600160a01b031633146123845760405162461bcd60e51b8152600401610b56906155a6565b610291543410156123fd5760405162461bcd60e51b815260206004820152603860248201527f4b5242546f6b656e3a206d73672e76616c7565206d757374206265206772656160448201527f746572207468616e206d696e5072696365546f497373756500000000000000006064820152608401610b56565b600061240884611e8e565b905061241d8460600151602001518285613734565b61242684612b62565b6000818152610296602052604081205460ff16600581111561244a5761244a614fe2565b146124bd5760405162461bcd60e51b815260206004820152603860248201527f4b5242546f6b656e3a2056657269666961626c652043726564656e7469616c2060448201527f6861736820616c7265616479206265656e2069737375656400000000000000006064820152608401610b56565b610290546124e88560600151602001516001600160a01b0316600090815260c9602052604090205490565b101561254c5760405162461bcd60e51b815260206004820152602d60248201527f4b5242546f6b656e3a2069737375657220646f6573206e6f742068617665206560448201526c6e6f7567682062616c616e636560981b6064820152608401610b56565b600061255a6012600a6154c8565b856080015160e0015161256d91906154d7565b90506102925481101580156125855750610293548111155b6126035760405162461bcd60e51b815260206004820152604360248201527f4b5242546f6b656e3a207374616b65206d757374206265206265747765656e2060448201527f6d696e5374616b65546f497373756520616e64206d61785374616b65546f497360648201526273756560e81b608482015260a401610b56565b61261585606001516020015182612ee3565b60608501516020908101516001600160a01b031660009081526102979091526040902054612643908261383b565b6060860180516020908101516001600160a01b039081166000908152610297835260408082209590955592518201519351858152929316916000805160206160a2833981519152910160405180910390a3604080518082019091528060018152600060209182018190528481526102969091526040902081518154829060ff191660018360058111156126d8576126d8614fe2565b0217905550602082015181600101559050507f632a70c3617009ee20500487ed52cd53ce50635cd84cf177b09577715eae51db828660405161271b9291906152d1565b60405180910390a1600061273a82876080015160c0015160ff16612ed4565b905061274e8660800151602001518261303d565b6127608660600151602001518261303d565b600061278261277b8860800151610100015161029454613847565b6064613853565b6060880151602001519091506127a19061279c3484612ec8565b6135d0565b610295546127af908261383b565b610295555060019695505050505050565b610229546040516371d4ed8d60e11b81526001600160a01b038381166004830152600092169063e3a9db1a90602401602060405180830381865afa15801561280c573d6000803e3d6000fd5b505050506040513d601f19601f82011682018060405250810190610a3d9190615697565b60006001600160e01b03198216637965db0b60e01b1480610a3d57506301ffc9a760e01b6001600160e01b0319831614610a3d565b6001600160a01b0383166128c75760405162461bcd60e51b8152602060048201526024808201527f45524332303a20617070726f76652066726f6d20746865207a65726f206164646044820152637265737360e01b6064820152608401610b56565b6001600160a01b0382166129285760405162461bcd60e51b815260206004820152602260248201527f45524332303a20617070726f766520746f20746865207a65726f206164647265604482015261737360f01b6064820152608401610b56565b6001600160a01b03838116600081815260ca602090815260408083209487168084529482529182902085905590518481527f8c5be1e5ebec7d5bd14f71427d1e84f3dd0314c0f7b2291e5b200ac8c7c3b925910160405180910390a3505050565b6001600160a01b0383166129ed5760405162461bcd60e51b815260206004820152602560248201527f45524332303a207472616e736665722066726f6d20746865207a65726f206164604482015264647265737360d81b6064820152608401610b56565b6001600160a01b038216612a4f5760405162461bcd60e51b815260206004820152602360248201527f45524332303a207472616e7366657220746f20746865207a65726f206164647260448201526265737360e81b6064820152608401610b56565b612a5a83838361385f565b6001600160a01b038316600090815260c9602052604090205481811015612ad25760405162461bcd60e51b815260206004820152602660248201527f45524332303a207472616e7366657220616d6f756e7420657863656564732062604482015265616c616e636560d01b6064820152608401610b56565b6001600160a01b03808516600090815260c96020526040808220858503905591851681529081208054849290612b0990849061558e565b92505081905550826001600160a01b0316846001600160a01b03167fddf252ad1be2c89b69c2b068fc378daa952ba7f163c4a11628f55a4df523b3ef84604051612b5591815260200190565b60405180910390a3611d86565b6060810151602001516001600160a01b0316612bc05760405162461bcd60e51b815260206004820152601c60248201527f4b5242546f6b656e3a20626164206973737565722061646472657373000000006044820152606401610b56565b6080810151602001516001600160a01b0316612c2e5760405162461bcd60e51b815260206004820152602760248201527f4b5242546f6b656e3a206261642063726564656e7469616c5375626a656374206044820152666164647265737360c81b6064820152608401610b56565b608081015151604051612c449190602001615171565b60408051601f198184030181529082905280516020918201206060840151519092612c6f9201615171565b6040516020818303038152906040528051906020012003612cf05760405162461bcd60e51b815260206004820152603560248201527f4b5242546f6b656e3a2069737375657220444944206973207468652073616d6560448201527408185cc818dc9959195b9d1a585b14dd589a9958dd605a1b6064820152608401610b56565b348160800151610100015114612d6e5760405162461bcd60e51b815260206004820152603a60248201527f4b5242546f6b656e3a206d73672e76616c756520646f6573206e6f74206d617460448201527f63682063726564656e7469616c5375626a6563742e70726963650000000000006064820152608401610b56565b8060800151602001516001600160a01b03168160600151602001516001600160a01b031603612e055760405162461bcd60e51b815260206004820152603960248201527f4b5242546f6b656e3a206973737565722061646472657373206973207468652060448201527f73616d652061732063726564656e7469616c5375626a656374000000000000006064820152608401610b56565b806080015161012001514211612e705760405162461bcd60e51b815260206004820152602a60248201527f4b5242546f6b656e3a2056432069737375616e63654461746520697320696e206044820152697468652066757475726560b01b6064820152608401610b56565b80608001516101400151421061144f5760405162461bcd60e51b815260206004820181905260248201527f4b5242546f6b656e3a2056432068617320616c726561647920657870697265646044820152606401610b56565b6000610cd582846156b0565b6000610cd561277b8484613847565b6001600160a01b038216612f435760405162461bcd60e51b815260206004820152602160248201527f45524332303a206275726e2066726f6d20746865207a65726f206164647265736044820152607360f81b6064820152608401610b56565b612f4f8260008361385f565b6001600160a01b038216600090815260c9602052604090205481811015612fc35760405162461bcd60e51b815260206004820152602260248201527f45524332303a206275726e20616d6f756e7420657863656564732062616c616e604482015261636560f01b6064820152608401610b56565b6001600160a01b038316600090815260c960205260408120838303905560cb8054849290612ff29084906156b0565b90915550506040518281526000906001600160a01b038516907fddf252ad1be2c89b69c2b068fc378daa952ba7f163c4a11628f55a4df523b3ef9060200160405180910390a3505050565b6001600160a01b0382166130935760405162461bcd60e51b815260206004820152601f60248201527f45524332303a206d696e7420746f20746865207a65726f2061646472657373006044820152606401610b56565b61309f6000838361385f565b8060cb60008282546130b1919061558e565b90915550506001600160a01b038216600090815260c96020526040812080548392906130de90849061558e565b90915550506040518181526001600160a01b038316906000907fddf252ad1be2c89b69c2b068fc378daa952ba7f163c4a11628f55a4df523b3ef9060200160405180910390a35050565b6131328282611a9a565b6113865761314a816001600160a01b031660146139f5565b6131558360206139f5565b6040516020016131669291906156c7565b60408051601f198184030181529082905262461bcd60e51b8252610b5691600401614926565b6131968282613b90565b60008281526097602052604090206112959082613c16565b60006113077f8b73c3c69bb8fe3d512ecc4cf759cc79239f7b179b0ffacaa9a75d522b39400f6131de6101915490565b610192546040805160208101859052908101839052606081018290524660808201523060a082015260009060c0016040516020818303038152906040528051906020012090509392505050565b6132358282613c2b565b60008281526097602052604090206112959082613c92565b7f360894a13ba1a3210667c828492db98dca3e2076cc3735a920a3ca505d382bbc546001600160a01b031690565b61329360008051602061605b83398151915233611a9a565b61144f5760405162461bcd60e51b815260206004820152602a60248201526000805160206160c2833981519152604482015269746f207570677261646560b01b6064820152608401610b56565b60006132ea61324d565b90506132f584613ca7565b6000835111806133025750815b15613313576133118484613d4c565b505b7f4910fdfa16fed3260ed0e7147f7cc6da11a60208b5b9406d12a635614ffd9143805460ff166112f657805460ff191660011781556040516001600160a01b038316602482015261339290869060440160408051601f198184030181529190526020810180516001600160e01b0316631b2ce7f360e11b179052613d4c565b50805460ff191681556133a361324d565b6001600160a01b0316826001600160a01b03161461341b5760405162461bcd60e51b815260206004820152602f60248201527f45524331393637557067726164653a207570677261646520627265616b73206660448201526e75727468657220757067726164657360881b6064820152608401610b56565b6112f685613e37565b61012d5460ff1661346e5760405162461bcd60e51b815260206004820152601460248201527314185d5cd8589b194e881b9bdd081c185d5cd95960621b6044820152606401610b56565b61012d805460ff191690557f5db9ee0a495bf2e6ff9c91a7834c1ba4fdd244a5e8aa4e537bd38aeae4b073aa335b6040516001600160a01b03909116815260200160405180910390a1565b61012d5460ff16156135005760405162461bcd60e51b815260206004820152601060248201526f14185d5cd8589b194e881c185d5cd95960821b6044820152606401610b56565b61012d805460ff191660011790557f62e78cea01bee320cd4e420270b5ea74000d11b0c9f74754ebdbfc544b05a25861349c3390565b6000610cd58383613e77565b600054610100900460ff166135695760405162461bcd60e51b8152600401610b569061573c565b613571613ea1565b613579613ea1565b613581613ea1565b613589613ea1565b6135938383613ec8565b61359b613ea1565b6135a3613f08565b6135ab613ea1565b6135b58382613f3c565b6135bd613f7f565b6135c561403a565b611295838383614069565b6102295460405163f340fa0160e01b81526001600160a01b0384811660048301529091169063f340fa019083906024016000604051808303818588803b15801561361957600080fd5b505af115801561362d573d6000803e3d6000fd5b50505050505050565b60007f63c4847aa3662952b34b8f76f3abc371c24535ee34fce5b3df34d029db924d4e60001b82600001518051906020012083602001518051906020012084604001518051906020012061368d8660600151614151565b61369a87608001516141aa565b6136a78860a001516142a3565b60c0890151805160209182012060e08b015180519083012060405161370d9a9998979695949301988952602089019790975260408801959095526060870193909352608086019190915260a085015260c084015260e08301526101008201526101200190565b604051602081830303815290604052805190602001209050919050565b6000610a3d825490565b600061373f836142f9565b9050600061374d8284614347565b90506001600160a01b0381166137b45760405162461bcd60e51b815260206004820152602660248201527f4b5242546f6b656e3a20696e76616c6964207369676e6174757265206164647260448201526565737328302960d01b6064820152608401610b56565b846001600160a01b0316816001600160a01b0316146112f65760405162461bcd60e51b815260206004820152603860248201527f4b5242546f6b656e3a207265636f76657265642061646472657373206469666660448201527f6572732066726f6d206578706563746564207369676e657200000000000000006064820152608401610b56565b6000610cd5828461558e565b6000610cd582846154d7565b6000610cd58284615787565b61386a83838361436b565b61388260008051602061605b83398151915233611a9a565b8061389457506001600160a01b038316155b806138a657506001600160a01b038216155b806138cc575061028e546001600160a01b038416600090815260c9602052604090205410155b61392e5760405162461bcd60e51b815260206004820152602d60248201527f4b5242546f6b656e3a2073656e64657220646f6573206e6f742068617665206560448201526c6e6f7567682062616c616e636560981b6064820152608401610b56565b61394660008051602061605b83398151915233611a9a565b8061395857506001600160a01b038316155b8061396a57506001600160a01b038216155b80613990575061028f546001600160a01b038316600090815260c9602052604090205410155b6112955760405162461bcd60e51b815260206004820152603060248201527f4b5242546f6b656e3a20726563697069656e7420646f6573206e6f742068617660448201526f6520656e6f7567682062616c616e636560801b6064820152608401610b56565b60606000613a048360026154d7565b613a0f90600261558e565b6001600160401b03811115613a2657613a26614a30565b6040519080825280601f01601f191660200182016040528015613a50576020820181803683370190505b509050600360fc1b81600081518110613a6b57613a6b6157a9565b60200101906001600160f81b031916908160001a905350600f60fb1b81600181518110613a9a57613a9a6157a9565b60200101906001600160f81b031916908160001a9053506000613abe8460026154d7565b613ac990600161558e565b90505b6001811115613b41576f181899199a1a9b1b9c1cb0b131b232b360811b85600f1660108110613afd57613afd6157a9565b1a60f81b828281518110613b1357613b136157a9565b60200101906001600160f81b031916908160001a90535060049490941c93613b3a816157bf565b9050613acc565b508315610cd55760405162461bcd60e51b815260206004820181905260248201527f537472696e67733a20686578206c656e67746820696e73756666696369656e746044820152606401610b56565b613b9a8282611a9a565b6113865760008281526065602090815260408083206001600160a01b03851684529091529020805460ff19166001179055613bd23390565b6001600160a01b0316816001600160a01b0316837f2f8788117e7eff1d82e926ec794901d17c78024a50270940304540a733656f0d60405160405180910390a45050565b6000610cd5836001600160a01b0384166143d2565b613c358282611a9a565b156113865760008281526065602090815260408083206001600160a01b0385168085529252808320805460ff1916905551339285917ff6391f5c32d9c69d2a47ea670b442974b53935d1edc7fd64eb21e047a839171b9190a45050565b6000610cd5836001600160a01b038416614421565b803b613d0b5760405162461bcd60e51b815260206004820152602d60248201527f455243313936373a206e657720696d706c656d656e746174696f6e206973206e60448201526c1bdd08184818dbdb9d1c9858dd609a1b6064820152608401610b56565b7f360894a13ba1a3210667c828492db98dca3e2076cc3735a920a3ca505d382bbc80546001600160a01b0319166001600160a01b0392909216919091179055565b6060823b613dab5760405162461bcd60e51b815260206004820152602660248201527f416464726573733a2064656c65676174652063616c6c20746f206e6f6e2d636f6044820152651b9d1c9858dd60d21b6064820152608401610b56565b600080846001600160a01b031684604051613dc69190615171565b600060405180830381855af49150503d8060008114613e01576040519150601f19603f3d011682016040523d82523d6000602084013e613e06565b606091505b5091509150613e2e828260405180606001604052806027815260200161607b60279139614514565b95945050505050565b613e4081613ca7565b6040516001600160a01b038216907fbc7cd75a20ee27fd9adebab32041f755214dbc6bffa90cc0225b39da2e5c2d3b90600090a250565b6000826000018281548110613e8e57613e8e6157a9565b9060005260206000200154905092915050565b600054610100900460ff166114fb5760405162461bcd60e51b8152600401610b569061573c565b600054610100900460ff16613eef5760405162461bcd60e51b8152600401610b569061573c565b60cc613efb8382615824565b5060cd6112958282615824565b600054610100900460ff16613f2f5760405162461bcd60e51b8152600401610b569061573c565b61012d805460ff19169055565b600054610100900460ff16613f635760405162461bcd60e51b8152600401610b569061573c565b8151602092830120815191909201206101919190915561019255565b600054610100900460ff16613fa65760405162461bcd60e51b8152600401610b569061573c565b604051613fb290614897565b604051809103906000f080158015613fce573d6000803e3d6000fd5b5061022980546001600160a01b0319166001600160a01b039290921691821790556040805163204a7f0760e21b81529051638129fc1c9160048082019260009290919082900301818387803b15801561402657600080fd5b505af1158015611d86573d6000803e3d6000fd5b600054610100900460ff166140615760405162461bcd60e51b8152600401610b569061573c565b600161025c55565b600054610100900460ff166140905760405162461bcd60e51b8152600401610b569061573c565b61409b60003361454d565b6140b360008051602061605b8339815191523361454d565b6140bf6012600a6154c8565b6140ca9060646154d7565b61028e556140da6012600a6154c8565b6140e59060646154d7565b61028f55600a6102945560126140fc90600a6154c8565b6141079060646154d7565b61029055655af3107a4000610291556141226012600a6154c8565b61412d9060016154d7565b6102925561413d6012600a6154c8565b61414890600a6154d7565b61029355505050565b8051805160209182012081830151604080517fabb691e6e52ceb1ff8b3df91dc14323057e88efa3252486ed994fd62706cdfaa948101949094528301919091526001600160a01b0316606082015260009060800161370d565b60007f4b87db6c5998f503ac6519b5a7d74efcf2a230368deeaf54dd8bf078da459ff760001b82600001518051906020012083602001518460400151805190602001208560600151805190602001208660800151805190602001208760a00151805190602001208860c001518960e001518a61010001518b61012001518c610140015160405160200161370d9c9b9a999897969594939291909b8c5260208c019a909a526001600160a01b039890981660408b015260608a0196909652608089019490945260a088019290925260c087015260ff1660e08601526101008501526101208401526101408301526101608201526101800190565b8051805160209182012081830151805190830120604080517f1a58b7c56676b62343f37f4f3603a07ae6dd78bea300689bcefef0f9498c6cc994810194909452830191909152606082015260009060800161370d565b6000610a3d6143066131ae565b8360405161190160f01b6020820152602281018390526042810182905260009060620160405160208183030381529060405280519060200120905092915050565b60008060006143568585614557565b91509150614363816145c5565b509392505050565b61012d5460ff16156112955760405162461bcd60e51b815260206004820152602a60248201527f45524332305061757361626c653a20746f6b656e207472616e736665722077686044820152691a5b19481c185d5cd95960b21b6064820152608401610b56565b600081815260018301602052604081205461441957508154600181810184556000848152602080822090930184905584548482528286019093526040902091909155610a3d565b506000610a3d565b6000818152600183016020526040812054801561450a5760006144456001836156b0565b8554909150600090614459906001906156b0565b90508181146144be576000866000018281548110614479576144796157a9565b906000526020600020015490508087600001848154811061449c5761449c6157a9565b6000918252602080832090910192909255918252600188019052604090208390555b85548690806144cf576144cf6158e3565b600190038181906000526020600020016000905590558560010160008681526020019081526020016000206000905560019350505050610a3d565b6000915050610a3d565b60608315614523575081610cd5565b8251156145335782518084602001fd5b8160405162461bcd60e51b8152600401610b569190614926565b611386828261318c565b600080825160410361458d5760208301516040840151606085015160001a6145818782858561477b565b945094505050506145be565b82516040036145b657602083015160408401516145ab868383614868565b9350935050506145be565b506000905060025b9250929050565b60008160048111156145d9576145d9614fe2565b036145e15750565b60018160048111156145f5576145f5614fe2565b036146425760405162461bcd60e51b815260206004820152601860248201527f45434453413a20696e76616c6964207369676e617475726500000000000000006044820152606401610b56565b600281600481111561465657614656614fe2565b036146a35760405162461bcd60e51b815260206004820152601f60248201527f45434453413a20696e76616c6964207369676e6174757265206c656e677468006044820152606401610b56565b60038160048111156146b7576146b7614fe2565b0361470f5760405162461bcd60e51b815260206004820152602260248201527f45434453413a20696e76616c6964207369676e6174757265202773272076616c604482015261756560f01b6064820152608401610b56565b600481600481111561472357614723614fe2565b0361144f5760405162461bcd60e51b815260206004820152602260248201527f45434453413a20696e76616c6964207369676e6174757265202776272076616c604482015261756560f01b6064820152608401610b56565b6000807f7fffffffffffffffffffffffffffffff5d576e7357a4501ddfe92f46681b20a08311156147b2575060009050600361485f565b8460ff16601b141580156147ca57508460ff16601c14155b156147db575060009050600461485f565b6040805160008082526020820180845289905260ff881692820192909252606081018690526080810185905260019060a0016020604051602081039080840390855afa15801561482f573d6000803e3d6000fd5b5050604051601f1901519150506001600160a01b0381166148585760006001925092505061485f565b9150600090505b94509492505050565b6000806001600160ff1b03831660ff84901c601b016148898782888561477b565b935093505050935093915050565b610761806158fa83390190565b6000602082840312156148b657600080fd5b81356001600160e01b031981168114610cd557600080fd5b60005b838110156148e95781810151838201526020016148d1565b83811115611d865750506000910152565b600081518084526149128160208601602086016148ce565b601f01601f19169290920160200192915050565b602081526000610cd560208301846148fa565b6001600160a01b038116811461144f57600080fd5b803561495981614939565b919050565b6000806040838503121561497157600080fd5b823561497c81614939565b946020939093013593505050565b600080600080600080600060e0888a0312156149a557600080fd5b505085359760208701359750604087013596606081013596506080810135955060a0810135945060c0013592509050565b6000806000606084860312156149eb57600080fd5b83356149f681614939565b92506020840135614a0681614939565b929592945050506040919091013590565b600060208284031215614a2957600080fd5b5035919050565b634e487b7160e01b600052604160045260246000fd5b604080519081016001600160401b0381118282101715614a6857614a68614a30565b60405290565b60405161016081016001600160401b0381118282101715614a6857614a68614a30565b60405161010081016001600160401b0381118282101715614a6857614a68614a30565b600082601f830112614ac557600080fd5b81356001600160401b0380821115614adf57614adf614a30565b604051601f8301601f19908116603f01168101908282118183101715614b0757614b07614a30565b81604052838152866020858801011115614b2057600080fd5b836020870160208301376000602085830101528094505050505092915050565b600060408284031215614b5257600080fd5b614b5a614a46565b905081356001600160401b03811115614b7257600080fd5b614b7e84828501614ab4565b8252506020820135614b8f81614939565b602082015292915050565b803560ff8116811461495957600080fd5b60006101608284031215614bbe57600080fd5b614bc6614a6e565b905081356001600160401b0380821115614bdf57600080fd5b614beb85838601614ab4565b8352614bf96020850161494e565b60208401526040840135915080821115614c1257600080fd5b614c1e85838601614ab4565b60408401526060840135915080821115614c3757600080fd5b614c4385838601614ab4565b60608401526080840135915080821115614c5c57600080fd5b614c6885838601614ab4565b608084015260a0840135915080821115614c8157600080fd5b50614c8e84828501614ab4565b60a083015250614ca060c08301614b9a565b60c082015260e082013560e082015261010080830135818301525061012080830135818301525061014080830135818301525092915050565b600060408284031215614ceb57600080fd5b614cf3614a46565b905081356001600160401b0380821115614d0c57600080fd5b614d1885838601614ab4565b83526020840135915080821115614d2e57600080fd5b50614d3b84828501614ab4565b60208301525092915050565b60006101008284031215614d5a57600080fd5b614d62614a91565b905081356001600160401b0380821115614d7b57600080fd5b614d8785838601614ab4565b83526020840135915080821115614d9d57600080fd5b614da985838601614ab4565b60208401526040840135915080821115614dc257600080fd5b614dce85838601614ab4565b60408401526060840135915080821115614de757600080fd5b614df385838601614b40565b60608401526080840135915080821115614e0c57600080fd5b614e1885838601614bab565b608084015260a0840135915080821115614e3157600080fd5b614e3d85838601614cd9565b60a084015260c0840135915080821115614e5657600080fd5b614e6285838601614ab4565b60c084015260e0840135915080821115614e7b57600080fd5b50614e8884828501614ab4565b60e08301525092915050565b60008060408385031215614ea757600080fd5b82356001600160401b0380821115614ebe57600080fd5b614eca86838701614d47565b93506020850135915080821115614ee057600080fd5b50614eed85828601614d47565b9150509250929050565b60008060408385031215614f0a57600080fd5b823591506020830135614f1c81614939565b809150509250929050565b600060208284031215614f3957600080fd5b8135610cd581614939565b60008060408385031215614f5757600080fd5b8235614f6281614939565b915060208301356001600160401b03811115614f7d57600080fd5b614eed85828601614ab4565b60008060408385031215614f9c57600080fd5b82356001600160401b0380821115614fb357600080fd5b614fbf86838701614d47565b93506020850135915080821115614fd557600080fd5b50614eed85828601614ab4565b634e487b7160e01b600052602160045260246000fd5b604081016006841061501a57634e487b7160e01b600052602160045260246000fd5b9281526020015290565b60006020828403121561503657600080fd5b81356001600160401b0381111561504c57600080fd5b61505884828501614d47565b949350505050565b6000806040838503121561507357600080fd5b50508035926020909101359150565b60008060006060848603121561509757600080fd5b83356001600160401b03808211156150ae57600080fd5b6150ba87838801614ab4565b945060208601359150808211156150d057600080fd5b6150dc87838801614ab4565b935060408601359150808211156150f257600080fd5b506150ff86828701614ab4565b9150509250925092565b6000806040838503121561511c57600080fd5b823561512781614939565b91506020830135614f1c81614939565b600181811c9082168061514b57607f821691505b60208210810361516b57634e487b7160e01b600052602260045260246000fd5b50919050565b600082516151838184602087016148ce565b9190910192915050565b60008151604084526151a260408501826148fa565b6020938401516001600160a01b0316949093019390935250919050565b600061016082518185526151d5828601826148fa565b91505060208301516151f260208601826001600160a01b03169052565b506040830151848203604086015261520a82826148fa565b9150506060830151848203606086015261522482826148fa565b9150506080830151848203608086015261523e82826148fa565b91505060a083015184820360a086015261525882826148fa565b91505060c083015161526f60c086018260ff169052565b5060e08381015190850152610100808401519085015261012080840151908501526101409283015192909301919091525090565b60008151604084526152b860408501826148fa565b905060208301518482036020860152613e2e82826148fa565b82815260406020820152600082516101008060408501526152f66101408501836148fa565b91506020850151603f198086850301606087015261531484836148fa565b9350604087015191508086850301608087015261533184836148fa565b935060608701519150808685030160a087015261534e848361518d565b935060808701519150808685030160c087015261536b84836151bf565b935060a08701519150808685030160e087015261538884836152a3565b935060c087015191508086850301838701526153a484836148fa565b935060e08701519250808685030161012087015250506153c482826148fa565b9695505050505050565b634e487b7160e01b600052601160045260246000fd5b600181815b8085111561541f578160001904821115615405576154056153ce565b8085161561541257918102915b93841c93908002906153e9565b509250929050565b60008261543657506001610a3d565b8161544357506000610a3d565b816001811461545957600281146154635761547f565b6001915050610a3d565b60ff841115615474576154746153ce565b50506001821b610a3d565b5060208310610133831016604e8410600b84101617156154a2575081810a610a3d565b6154ac83836153e4565b80600019048211156154c0576154c06153ce565b029392505050565b6000610cd560ff841683615427565b60008160001904831182151516156154f1576154f16153ce565b500290565b6020808252602c908201527f46756e6374696f6e206d7573742062652063616c6c6564207468726f7567682060408201526b19195b1959d85d1958d85b1b60a21b606082015260800190565b6020808252602c908201527f46756e6374696f6e206d7573742062652063616c6c6564207468726f7567682060408201526b6163746976652070726f787960a01b606082015260800190565b600082198211156155a1576155a16153ce565b500190565b60208082526036908201527f4b5242546f6b656e3a2073656e646572206d757374206265207468652063726560408201527564656e7469616c5375626a656374206164647265737360501b606082015260800190565b6020808252601d908201527f4b5242546f6b656e3a207374617465206973206e6f7420497373756564000000604082015260600190565b82815260406020820152600061505860408301846148fa565b6020808252602b908201527f4b5242546f6b656e3a2073656e646572206d757374206265207468652069737360408201526a756572206164647265737360a81b606082015260800190565b6000602082840312156156a957600080fd5b5051919050565b6000828210156156c2576156c26153ce565b500390565b7f416363657373436f6e74726f6c3a206163636f756e74200000000000000000008152600083516156ff8160178501602088016148ce565b7001034b99036b4b9b9b4b733903937b6329607d1b60179184019182015283516157308160288401602088016148ce565b01602801949350505050565b6020808252602b908201527f496e697469616c697a61626c653a20636f6e7472616374206973206e6f74206960408201526a6e697469616c697a696e6760a81b606082015260800190565b6000826157a457634e487b7160e01b600052601260045260246000fd5b500490565b634e487b7160e01b600052603260045260246000fd5b6000816157ce576157ce6153ce565b506000190190565b601f82111561129557600081815260208120601f850160051c810160208610156157fd5750805b601f850160051c820191505b8181101561581c57828155600101615809565b505050505050565b81516001600160401b0381111561583d5761583d614a30565b6158518161584b8454615137565b846157d6565b602080601f831160018114615886576000841561586e5750858301515b600019600386901b1c1916600185901b17855561581c565b600085815260208120601f198616915b828110156158b557888601518255948401946001909101908401615896565b50858210156158d35787850151600019600388901b60f8161c191681555b5050505050600190811b01905550565b634e487b7160e01b600052603160045260246000fdfe608060405234801561001057600080fd5b50610741806100206000396000f3fe6080604052600436106100705760003560e01c80638da5cb5b1161004e5780638da5cb5b146100c1578063e3a9db1a146100ee578063f2fde38b14610132578063f340fa011461015257600080fd5b806351cff8d914610075578063715018a6146100975780638129fc1c146100ac575b600080fd5b34801561008157600080fd5b50610095610090366004610641565b610165565b005b3480156100a357600080fd5b50610095610207565b3480156100b857600080fd5b5061009561023d565b3480156100cd57600080fd5b506033546040516001600160a01b0390911681526020015b60405180910390f35b3480156100fa57600080fd5b50610124610109366004610641565b6001600160a01b031660009081526065602052604090205490565b6040519081526020016100e5565b34801561013e57600080fd5b5061009561014d366004610641565b6102fe565b610095610160366004610641565b610396565b6033546001600160a01b031633146101985760405162461bcd60e51b815260040161018f90610665565b60405180910390fd5b6001600160a01b03811660008181526065602052604081208054919055906101c0908261042a565b816001600160a01b03167f7084f5476618d8e60b11ef0d7d3f06914655adb8793e28ff7f018d4c76d505d5826040516101fb91815260200190565b60405180910390a25050565b6033546001600160a01b031633146102315760405162461bcd60e51b815260040161018f90610665565b61023b6000610548565b565b600054610100900460ff166102585760005460ff161561025c565b303b155b6102bf5760405162461bcd60e51b815260206004820152602e60248201527f496e697469616c697a61626c653a20636f6e747261637420697320616c72656160448201526d191e481a5b9a5d1a585b1a5e995960921b606482015260840161018f565b600054610100900460ff161580156102e1576000805461ffff19166101011790555b6102e961059a565b80156102fb576000805461ff00191690555b50565b6033546001600160a01b031633146103285760405162461bcd60e51b815260040161018f90610665565b6001600160a01b03811661038d5760405162461bcd60e51b815260206004820152602660248201527f4f776e61626c653a206e6577206f776e657220697320746865207a65726f206160448201526564647265737360d01b606482015260840161018f565b6102fb81610548565b6033546001600160a01b031633146103c05760405162461bcd60e51b815260040161018f90610665565b6001600160a01b0381166000908152606560205260408120805434928392916103ea90849061069a565b90915550506040518181526001600160a01b038316907f2da466a7b24304f47e87fa2e1e5a81b9831ce54fec19055ce277ca2f39ba42c4906020016101fb565b8047101561047a5760405162461bcd60e51b815260206004820152601d60248201527f416464726573733a20696e73756666696369656e742062616c616e6365000000604482015260640161018f565b6000826001600160a01b03168260405160006040518083038185875af1925050503d80600081146104c7576040519150601f19603f3d011682016040523d82523d6000602084013e6104cc565b606091505b50509050806105435760405162461bcd60e51b815260206004820152603a60248201527f416464726573733a20756e61626c6520746f2073656e642076616c75652c207260448201527f6563697069656e74206d61792068617665207265766572746564000000000000606482015260840161018f565b505050565b603380546001600160a01b038381166001600160a01b0319831681179093556040519116919082907f8be0079c531659141344cd1fd0a4f28419497f9722a3daafe3b4186f6b6457e090600090a35050565b600054610100900460ff166105c15760405162461bcd60e51b815260040161018f906106c0565b6105c96105d5565b6105d16105fc565b61023b5b600054610100900460ff1661023b5760405162461bcd60e51b815260040161018f906106c0565b600054610100900460ff166106235760405162461bcd60e51b815260040161018f906106c0565b61023b33610548565b6001600160a01b03811681146102fb57600080fd5b60006020828403121561065357600080fd5b813561065e8161062c565b9392505050565b6020808252818101527f4f776e61626c653a2063616c6c6572206973206e6f7420746865206f776e6572604082015260600190565b600082198211156106bb57634e487b7160e01b600052601160045260246000fd5b500190565b6020808252602b908201527f496e697469616c697a61626c653a20636f6e7472616374206973206e6f74206960408201526a6e697469616c697a696e6760a81b60608201526080019056fea2646970667358221220d3cd88476c7484b52145b7c9d40218fab79d368d8f5ccdb9684010fe944db81664736f6c634300080f0033899bd46557473cb80307a9dabc297131ced39608330a2d29b2d52b660c03923e416464726573733a206c6f772d6c6576656c2064656c65676174652063616c6c206661696c65645dac0c1b1112564a045ba943c9d50270893e8e826c49be8e7073adc713ab7bd74b5242546f6b656e3a206d757374206861766520676f7665726e20726f6c6520a2646970667358221220e4c52f012ea32a22603bb2340f111b27cf023d33a57bf5e72eebbdc7176faf8864736f6c634300080f0033",
    "sourcePath": "/home/alerios/Tech/krb-contracts/contracts/KRBTokenV01.sol",
    "compiler": {
        "name": "solc",
        "version": "0.8.15+commit.e14f2714"
    },
    "functionHashes": {
        "DEFAULT_ADMIN_ROLE()": "a217fddf",
        "DOMAIN_SEPARATOR()": "3644e515",
        "GOVERN_ROLE()": "38b7f446",
        "allowance(address,address)": "dd62ed3e",
        "approve(address,uint256)": "095ea7b3",
        "balanceOf(address)": "70a08231",
        "burn(uint256)": "42966c68",
        "burnFrom(address,uint256)": "79cc6790",
        "burnStake(address,uint256)": "9c70287c",
        "decimals()": "313ce567",
        "decreaseAllowance(address,uint256)": "a457c2d7",
        "deleteVC((string,string,string,(string,address),(string,address,string,string,string,string,uint8,uint256,uint256,uint256,uint256),(string,string),string,string),string)": "716f4d90",
        "disputeVCByGovern((string,string,string,(string,address),(string,address,string,string,string,string,uint8,uint256,uint256,uint256,uint256),(string,string),string,string),(string,string,string,(string,address),(string,address,string,string,string,string,uint8,uint256,uint256,uint256,uint256),(string,string),string,string))": "2a401e81",
        "expiredVC((string,string,string,(string,address),(string,address,string,string,string,string,uint8,uint256,uint256,uint256,uint256),(string,string),string,string))": "888bb7b5",
        "feePercentage()": "a001ecdd",
        "feesAvailableForWithdraw()": "de5785d5",
        "getRoleAdmin(bytes32)": "248a9ca3",
        "getRoleMember(bytes32,uint256)": "9010d07c",
        "getRoleMemberCount(bytes32)": "ca15c873",
        "getUuid((string,string,string,(string,address),(string,address,string,string,string,string,uint8,uint256,uint256,uint256,uint256),(string,string),string,string))": "bcd68993",
        "getVCStatus((string,string,string,(string,address),(string,address,string,string,string,string,uint8,uint256,uint256,uint256,uint256),(string,string),string,string))": "c0d506d6",
        "grantRole(bytes32,address)": "2f2ff15d",
        "hasRole(bytes32,address)": "91d14854",
        "increaseAllowance(address,uint256)": "39509351",
        "initialize(string,string,string)": "a6487c53",
        "maxStakeToIssue()": "07a0d798",
        "minBalanceToIssue()": "af4e720d",
        "minBalanceToReceive()": "07a77292",
        "minBalanceToTransfer()": "e5a2b28e",
        "minPriceToIssue()": "ee2b1b4d",
        "minStakeToIssue()": "de9d2b1c",
        "mint(address,uint256)": "40c10f19",
        "name()": "06fdde03",
        "pause()": "8456cb59",
        "paused()": "5c975abb",
        "payments(address)": "e2982c21",
        "registerVC((string,string,string,(string,address),(string,address,string,string,string,string,uint8,uint256,uint256,uint256,uint256),(string,string),string,string),bytes)": "dec9cafe",
        "registry(bytes32)": "7ef50298",
        "renounceRole(bytes32,address)": "36568abe",
        "revokeRole(bytes32,address)": "d547741f",
        "revokeVC((string,string,string,(string,address),(string,address,string,string,string,string,uint8,uint256,uint256,uint256,uint256),(string,string),string,string),string)": "ca2a8cfc",
        "stakeOf(address)": "42623360",
        "supportsInterface(bytes4)": "01ffc9a7",
        "suspendVC((string,string,string,(string,address),(string,address,string,string,string,string,uint8,uint256,uint256,uint256,uint256),(string,string),string,string),string)": "ce556f9d",
        "symbol()": "95d89b41",
        "totalSupply()": "18160ddd",
        "transfer(address,uint256)": "a9059cbb",
        "transferFrom(address,address,uint256)": "23b872dd",
        "unpause()": "3f4ba83a",
        "updateParameters(uint256,uint256,uint256,uint256,uint256,uint256,uint256)": "0e8bc074",
        "upgradeTo(address)": "3659cfe6",
        "upgradeToAndCall(address,bytes)": "4f1ef286",
        "withdrawFees(address,uint256)": "ad3b1b47",
        "withdrawPayments(address)": "31b3eb94"
    },
    "gasEstimates": {
        "creation": {
            "codeDepositCost": "4971000",
            "executionCost": "infinite",
            "totalCost": "infinite"
        },
        "external": {
            "DEFAULT_ADMIN_ROLE()": "307",
            "DOMAIN_SEPARATOR()": "infinite",
            "GOVERN_ROLE()": "infinite",
            "allowance(address,address)": "infinite",
            "approve(address,uint256)": "24714",
            "balanceOf(address)": "2620",
            "burn(uint256)": "infinite",
            "burnFrom(address,uint256)": "infinite",
            "burnStake(address,uint256)": "infinite",
            "decimals()": "289",
            "decreaseAllowance(address,uint256)": "26938",
            "deleteVC((string,string,string,(string,address),(string,address,string,string,string,string,uint8,uint256,uint256,uint256,uint256),(string,string),string,string),string)": "infinite",
            "disputeVCByGovern((string,string,string,(string,address),(string,address,string,string,string,string,uint8,uint256,uint256,uint256,uint256),(string,string),string,string),(string,string,string,(string,address),(string,address,string,string,string,string,uint8,uint256,uint256,uint256,uint256),(string,string),string,string))": "infinite",
            "expiredVC((string,string,string,(string,address),(string,address,string,string,string,string,uint8,uint256,uint256,uint256,uint256),(string,string),string,string))": "infinite",
            "feePercentage()": "2385",
            "feesAvailableForWithdraw()": "2384",
            "getRoleAdmin(bytes32)": "2557",
            "getRoleMember(bytes32,uint256)": "infinite",
            "getRoleMemberCount(bytes32)": "infinite",
            "getUuid((string,string,string,(string,address),(string,address,string,string,string,string,uint8,uint256,uint256,uint256,uint256),(string,string),string,string))": "infinite",
            "getVCStatus((string,string,string,(string,address),(string,address,string,string,string,string,uint8,uint256,uint256,uint256,uint256),(string,string),string,string))": "infinite",
            "grantRole(bytes32,address)": "infinite",
            "hasRole(bytes32,address)": "2787",
            "increaseAllowance(address,uint256)": "27007",
            "initialize(string,string,string)": "infinite",
            "maxStakeToIssue()": "2386",
            "minBalanceToIssue()": "2363",
            "minBalanceToReceive()": "2408",
            "minBalanceToTransfer()": "2405",
            "minPriceToIssue()": "2427",
            "minStakeToIssue()": "2406",
            "mint(address,uint256)": "infinite",
            "name()": "infinite",
            "pause()": "infinite",
            "paused()": "2360",
            "payments(address)": "infinite",
            "registerVC((string,string,string,(string,address),(string,address,string,string,string,string,uint8,uint256,uint256,uint256,uint256),(string,string),string,string),bytes)": "infinite",
            "registry(bytes32)": "4676",
            "renounceRole(bytes32,address)": "infinite",
            "revokeRole(bytes32,address)": "infinite",
            "revokeVC((string,string,string,(string,address),(string,address,string,string,string,string,uint8,uint256,uint256,uint256,uint256),(string,string),string,string),string)": "infinite",
            "stakeOf(address)": "2599",
            "supportsInterface(bytes4)": "infinite",
            "suspendVC((string,string,string,(string,address),(string,address,string,string,string,string,uint8,uint256,uint256,uint256,uint256),(string,string),string,string),string)": "infinite",
            "symbol()": "infinite",
            "totalSupply()": "2361",
            "transfer(address,uint256)": "infinite",
            "transferFrom(address,address,uint256)": "infinite",
            "unpause()": "infinite",
            "updateParameters(uint256,uint256,uint256,uint256,uint256,uint256,uint256)": "infinite",
            "upgradeTo(address)": "infinite",
            "upgradeToAndCall(address,bytes)": "infinite",
            "withdrawFees(address,uint256)": "infinite",
            "withdrawPayments(address)": "infinite"
        },
        "internal": {
            "__KRBTokenV01_init(string memory,string memory,string memory)": "infinite",
            "__KRBTokenV01_init_unchained(string memory,string memory,string memory)": "infinite",
            "_authorizeUpgrade(address)": "infinite",
            "_beforeTokenTransfer(address,address,uint256)": "infinite",
            "validateSignedData(address,bytes32,bytes memory)": "infinite"
        }
    }
}