{
  "_format": "hh-sol-artifact-1",
  "contractName": "KRBToken",
  "sourceName": "contracts/KRBToken.sol",
  "abi": [
    {
      "anonymous": false,
      "inputs": [
        {
          "indexed": false,
          "internalType": "address",
          "name": "previousAdmin",
          "type": "address"
        },
        {
          "indexed": false,
          "internalType": "address",
          "name": "newAdmin",
          "type": "address"
        }
      ],
      "name": "AdminChanged",
      "type": "event"
    },
    {
      "anonymous": false,
      "inputs": [
        {
          "indexed": true,
          "internalType": "address",
          "name": "owner",
          "type": "address"
        },
        {
          "indexed": true,
          "internalType": "address",
          "name": "spender",
          "type": "address"
        },
        {
          "indexed": false,
          "internalType": "uint256",
          "name": "value",
          "type": "uint256"
        }
      ],
      "name": "Approval",
      "type": "event"
    },
    {
      "anonymous": false,
      "inputs": [
        {
          "indexed": true,
          "internalType": "address",
          "name": "beacon",
          "type": "address"
        }
      ],
      "name": "BeaconUpgraded",
      "type": "event"
    },
    {
      "anonymous": false,
      "inputs": [
        {
          "indexed": false,
          "internalType": "uint256",
          "name": "uuid",
          "type": "uint256"
        },
        {
          "indexed": false,
          "internalType": "string",
          "name": "reason",
          "type": "string"
        }
      ],
      "name": "Deleted",
      "type": "event"
    },
    {
      "anonymous": false,
      "inputs": [
        {
          "indexed": false,
          "internalType": "uint256",
          "name": "uuid",
          "type": "uint256"
        },
        {
          "indexed": false,
          "internalType": "uint256",
          "name": "disputedBy",
          "type": "uint256"
        }
      ],
      "name": "Disputed",
      "type": "event"
    },
    {
      "anonymous": false,
      "inputs": [
        {
          "indexed": false,
          "internalType": "uint256",
          "name": "uuid",
          "type": "uint256"
        }
      ],
      "name": "Expired",
      "type": "event"
    },
    {
      "anonymous": false,
      "inputs": [
        {
          "indexed": false,
          "internalType": "uint8",
          "name": "version",
          "type": "uint8"
        }
      ],
      "name": "Initialized",
      "type": "event"
    },
    {
      "anonymous": false,
      "inputs": [
        {
          "indexed": false,
          "internalType": "uint256",
          "name": "uuid",
          "type": "uint256"
        },
        {
          "components": [
            {
              "internalType": "string",
              "name": "_context",
              "type": "string"
            },
            {
              "internalType": "string",
              "name": "_type",
              "type": "string"
            },
            {
              "internalType": "string",
              "name": "id",
              "type": "string"
            },
            {
              "components": [
                {
                  "internalType": "string",
                  "name": "id",
                  "type": "string"
                },
                {
                  "internalType": "address",
                  "name": "ethereumAddress",
                  "type": "address"
                }
              ],
              "internalType": "struct VCTypes.Issuer",
              "name": "issuer",
              "type": "tuple"
            },
            {
              "components": [
                {
                  "internalType": "string",
                  "name": "id",
                  "type": "string"
                },
                {
                  "internalType": "address",
                  "name": "ethereumAddress",
                  "type": "address"
                },
                {
                  "internalType": "string",
                  "name": "_type",
                  "type": "string"
                },
                {
                  "internalType": "string",
                  "name": "typeSchema",
                  "type": "string"
                },
                {
                  "internalType": "string",
                  "name": "value",
                  "type": "string"
                },
                {
                  "internalType": "string",
                  "name": "encrypted",
                  "type": "string"
                },
                {
                  "internalType": "uint8",
                  "name": "trust",
                  "type": "uint8"
                },
                {
                  "internalType": "uint256",
                  "name": "stake",
                  "type": "uint256"
                },
                {
                  "internalType": "uint256",
                  "name": "price",
                  "type": "uint256"
                },
                {
                  "internalType": "uint256",
                  "name": "nbf",
                  "type": "uint256"
                },
                {
                  "internalType": "uint256",
                  "name": "exp",
                  "type": "uint256"
                }
              ],
              "internalType": "struct VCTypes.CredentialSubject",
              "name": "credentialSubject",
              "type": "tuple"
            },
            {
              "components": [
                {
                  "internalType": "string",
                  "name": "id",
                  "type": "string"
                },
                {
                  "internalType": "string",
                  "name": "_type",
                  "type": "string"
                }
              ],
              "internalType": "struct VCTypes.CredentialSchema",
              "name": "credentialSchema",
              "type": "tuple"
            },
            {
              "internalType": "string",
              "name": "issuanceDate",
              "type": "string"
            },
            {
              "internalType": "string",
              "name": "expirationDate",
              "type": "string"
            }
          ],
          "indexed": false,
          "internalType": "struct VCTypes.VerifiableCredential",
          "name": "vc",
          "type": "tuple"
        }
      ],
      "name": "Issued",
      "type": "event"
    },
    {
      "anonymous": false,
      "inputs": [
        {
          "indexed": false,
          "internalType": "address",
          "name": "account",
          "type": "address"
        }
      ],
      "name": "Paused",
      "type": "event"
    },
    {
      "anonymous": false,
      "inputs": [
        {
          "indexed": false,
          "internalType": "uint256",
          "name": "uuid",
          "type": "uint256"
        },
        {
          "indexed": false,
          "internalType": "string",
          "name": "reason",
          "type": "string"
        }
      ],
      "name": "Revoked",
      "type": "event"
    },
    {
      "anonymous": false,
      "inputs": [
        {
          "indexed": true,
          "internalType": "bytes32",
          "name": "role",
          "type": "bytes32"
        },
        {
          "indexed": true,
          "internalType": "bytes32",
          "name": "previousAdminRole",
          "type": "bytes32"
        },
        {
          "indexed": true,
          "internalType": "bytes32",
          "name": "newAdminRole",
          "type": "bytes32"
        }
      ],
      "name": "RoleAdminChanged",
      "type": "event"
    },
    {
      "anonymous": false,
      "inputs": [
        {
          "indexed": true,
          "internalType": "bytes32",
          "name": "role",
          "type": "bytes32"
        },
        {
          "indexed": true,
          "internalType": "address",
          "name": "account",
          "type": "address"
        },
        {
          "indexed": true,
          "internalType": "address",
          "name": "sender",
          "type": "address"
        }
      ],
      "name": "RoleGranted",
      "type": "event"
    },
    {
      "anonymous": false,
      "inputs": [
        {
          "indexed": true,
          "internalType": "bytes32",
          "name": "role",
          "type": "bytes32"
        },
        {
          "indexed": true,
          "internalType": "address",
          "name": "account",
          "type": "address"
        },
        {
          "indexed": true,
          "internalType": "address",
          "name": "sender",
          "type": "address"
        }
      ],
      "name": "RoleRevoked",
      "type": "event"
    },
    {
      "anonymous": false,
      "inputs": [
        {
          "indexed": true,
          "internalType": "address",
          "name": "from",
          "type": "address"
        },
        {
          "indexed": true,
          "internalType": "address",
          "name": "to",
          "type": "address"
        },
        {
          "indexed": false,
          "internalType": "uint256",
          "name": "value",
          "type": "uint256"
        }
      ],
      "name": "Staked",
      "type": "event"
    },
    {
      "anonymous": false,
      "inputs": [
        {
          "indexed": false,
          "internalType": "uint256",
          "name": "uuid",
          "type": "uint256"
        },
        {
          "indexed": false,
          "internalType": "string",
          "name": "reason",
          "type": "string"
        }
      ],
      "name": "Suspended",
      "type": "event"
    },
    {
      "anonymous": false,
      "inputs": [
        {
          "indexed": true,
          "internalType": "address",
          "name": "from",
          "type": "address"
        },
        {
          "indexed": true,
          "internalType": "address",
          "name": "to",
          "type": "address"
        },
        {
          "indexed": false,
          "internalType": "uint256",
          "name": "value",
          "type": "uint256"
        }
      ],
      "name": "Transfer",
      "type": "event"
    },
    {
      "anonymous": false,
      "inputs": [
        {
          "indexed": false,
          "internalType": "address",
          "name": "account",
          "type": "address"
        }
      ],
      "name": "Unpaused",
      "type": "event"
    },
    {
      "anonymous": false,
      "inputs": [],
      "name": "Updated",
      "type": "event"
    },
    {
      "anonymous": false,
      "inputs": [
        {
          "indexed": true,
          "internalType": "address",
          "name": "implementation",
          "type": "address"
        }
      ],
      "name": "Upgraded",
      "type": "event"
    },
    {
      "inputs": [],
      "name": "DEFAULT_ADMIN_ROLE",
      "outputs": [
        {
          "internalType": "bytes32",
          "name": "",
          "type": "bytes32"
        }
      ],
      "stateMutability": "view",
      "type": "function"
    },
    {
      "inputs": [],
      "name": "DEPOSITOR_ROLE",
      "outputs": [
        {
          "internalType": "bytes32",
          "name": "",
          "type": "bytes32"
        }
      ],
      "stateMutability": "view",
      "type": "function"
    },
    {
      "inputs": [],
      "name": "DOMAIN_SEPARATOR",
      "outputs": [
        {
          "internalType": "bytes32",
          "name": "",
          "type": "bytes32"
        }
      ],
      "stateMutability": "view",
      "type": "function"
    },
    {
      "inputs": [],
      "name": "GOVERN_ROLE",
      "outputs": [
        {
          "internalType": "bytes32",
          "name": "",
          "type": "bytes32"
        }
      ],
      "stateMutability": "view",
      "type": "function"
    },
    {
      "inputs": [
        {
          "internalType": "address",
          "name": "owner",
          "type": "address"
        },
        {
          "internalType": "address",
          "name": "spender",
          "type": "address"
        }
      ],
      "name": "allowance",
      "outputs": [
        {
          "internalType": "uint256",
          "name": "",
          "type": "uint256"
        }
      ],
      "stateMutability": "view",
      "type": "function"
    },
    {
      "inputs": [
        {
          "internalType": "address",
          "name": "spender",
          "type": "address"
        },
        {
          "internalType": "uint256",
          "name": "amount",
          "type": "uint256"
        }
      ],
      "name": "approve",
      "outputs": [
        {
          "internalType": "bool",
          "name": "",
          "type": "bool"
        }
      ],
      "stateMutability": "nonpayable",
      "type": "function"
    },
    {
      "inputs": [
        {
          "internalType": "address",
          "name": "account",
          "type": "address"
        }
      ],
      "name": "balanceOf",
      "outputs": [
        {
          "internalType": "uint256",
          "name": "",
          "type": "uint256"
        }
      ],
      "stateMutability": "view",
      "type": "function"
    },
    {
      "inputs": [
        {
          "internalType": "uint256",
          "name": "amount",
          "type": "uint256"
        }
      ],
      "name": "burn",
      "outputs": [],
      "stateMutability": "nonpayable",
      "type": "function"
    },
    {
      "inputs": [
        {
          "internalType": "address",
          "name": "account",
          "type": "address"
        },
        {
          "internalType": "uint256",
          "name": "amount",
          "type": "uint256"
        }
      ],
      "name": "burnFrom",
      "outputs": [],
      "stateMutability": "nonpayable",
      "type": "function"
    },
    {
      "inputs": [
        {
          "internalType": "address",
          "name": "issuer",
          "type": "address"
        },
        {
          "internalType": "uint256",
          "name": "stake",
          "type": "uint256"
        }
      ],
      "name": "burnStake",
      "outputs": [],
      "stateMutability": "nonpayable",
      "type": "function"
    },
    {
      "inputs": [],
      "name": "decimals",
      "outputs": [
        {
          "internalType": "uint8",
          "name": "",
          "type": "uint8"
        }
      ],
      "stateMutability": "view",
      "type": "function"
    },
    {
      "inputs": [
        {
          "internalType": "address",
          "name": "spender",
          "type": "address"
        },
        {
          "internalType": "uint256",
          "name": "subtractedValue",
          "type": "uint256"
        }
      ],
      "name": "decreaseAllowance",
      "outputs": [
        {
          "internalType": "bool",
          "name": "",
          "type": "bool"
        }
      ],
      "stateMutability": "nonpayable",
      "type": "function"
    },
    {
      "inputs": [
        {
          "components": [
            {
              "internalType": "string",
              "name": "_context",
              "type": "string"
            },
            {
              "internalType": "string",
              "name": "_type",
              "type": "string"
            },
            {
              "internalType": "string",
              "name": "id",
              "type": "string"
            },
            {
              "components": [
                {
                  "internalType": "string",
                  "name": "id",
                  "type": "string"
                },
                {
                  "internalType": "address",
                  "name": "ethereumAddress",
                  "type": "address"
                }
              ],
              "internalType": "struct VCTypes.Issuer",
              "name": "issuer",
              "type": "tuple"
            },
            {
              "components": [
                {
                  "internalType": "string",
                  "name": "id",
                  "type": "string"
                },
                {
                  "internalType": "address",
                  "name": "ethereumAddress",
                  "type": "address"
                },
                {
                  "internalType": "string",
                  "name": "_type",
                  "type": "string"
                },
                {
                  "internalType": "string",
                  "name": "typeSchema",
                  "type": "string"
                },
                {
                  "internalType": "string",
                  "name": "value",
                  "type": "string"
                },
                {
                  "internalType": "string",
                  "name": "encrypted",
                  "type": "string"
                },
                {
                  "internalType": "uint8",
                  "name": "trust",
                  "type": "uint8"
                },
                {
                  "internalType": "uint256",
                  "name": "stake",
                  "type": "uint256"
                },
                {
                  "internalType": "uint256",
                  "name": "price",
                  "type": "uint256"
                },
                {
                  "internalType": "uint256",
                  "name": "nbf",
                  "type": "uint256"
                },
                {
                  "internalType": "uint256",
                  "name": "exp",
                  "type": "uint256"
                }
              ],
              "internalType": "struct VCTypes.CredentialSubject",
              "name": "credentialSubject",
              "type": "tuple"
            },
            {
              "components": [
                {
                  "internalType": "string",
                  "name": "id",
                  "type": "string"
                },
                {
                  "internalType": "string",
                  "name": "_type",
                  "type": "string"
                }
              ],
              "internalType": "struct VCTypes.CredentialSchema",
              "name": "credentialSchema",
              "type": "tuple"
            },
            {
              "internalType": "string",
              "name": "issuanceDate",
              "type": "string"
            },
            {
              "internalType": "string",
              "name": "expirationDate",
              "type": "string"
            }
          ],
          "internalType": "struct VCTypes.VerifiableCredential",
          "name": "vc",
          "type": "tuple"
        },
        {
          "internalType": "string",
          "name": "reason",
          "type": "string"
        }
      ],
      "name": "deleteVC",
      "outputs": [
        {
          "internalType": "bool",
          "name": "",
          "type": "bool"
        }
      ],
      "stateMutability": "nonpayable",
      "type": "function"
    },
    {
      "inputs": [
        {
          "internalType": "address",
          "name": "user",
          "type": "address"
        },
        {
          "internalType": "bytes",
          "name": "depositData",
          "type": "bytes"
        }
      ],
      "name": "deposit",
      "outputs": [],
      "stateMutability": "nonpayable",
      "type": "function"
    },
    {
      "inputs": [
        {
          "components": [
            {
              "internalType": "string",
              "name": "_context",
              "type": "string"
            },
            {
              "internalType": "string",
              "name": "_type",
              "type": "string"
            },
            {
              "internalType": "string",
              "name": "id",
              "type": "string"
            },
            {
              "components": [
                {
                  "internalType": "string",
                  "name": "id",
                  "type": "string"
                },
                {
                  "internalType": "address",
                  "name": "ethereumAddress",
                  "type": "address"
                }
              ],
              "internalType": "struct VCTypes.Issuer",
              "name": "issuer",
              "type": "tuple"
            },
            {
              "components": [
                {
                  "internalType": "string",
                  "name": "id",
                  "type": "string"
                },
                {
                  "internalType": "address",
                  "name": "ethereumAddress",
                  "type": "address"
                },
                {
                  "internalType": "string",
                  "name": "_type",
                  "type": "string"
                },
                {
                  "internalType": "string",
                  "name": "typeSchema",
                  "type": "string"
                },
                {
                  "internalType": "string",
                  "name": "value",
                  "type": "string"
                },
                {
                  "internalType": "string",
                  "name": "encrypted",
                  "type": "string"
                },
                {
                  "internalType": "uint8",
                  "name": "trust",
                  "type": "uint8"
                },
                {
                  "internalType": "uint256",
                  "name": "stake",
                  "type": "uint256"
                },
                {
                  "internalType": "uint256",
                  "name": "price",
                  "type": "uint256"
                },
                {
                  "internalType": "uint256",
                  "name": "nbf",
                  "type": "uint256"
                },
                {
                  "internalType": "uint256",
                  "name": "exp",
                  "type": "uint256"
                }
              ],
              "internalType": "struct VCTypes.CredentialSubject",
              "name": "credentialSubject",
              "type": "tuple"
            },
            {
              "components": [
                {
                  "internalType": "string",
                  "name": "id",
                  "type": "string"
                },
                {
                  "internalType": "string",
                  "name": "_type",
                  "type": "string"
                }
              ],
              "internalType": "struct VCTypes.CredentialSchema",
              "name": "credentialSchema",
              "type": "tuple"
            },
            {
              "internalType": "string",
              "name": "issuanceDate",
              "type": "string"
            },
            {
              "internalType": "string",
              "name": "expirationDate",
              "type": "string"
            }
          ],
          "internalType": "struct VCTypes.VerifiableCredential",
          "name": "vc",
          "type": "tuple"
        },
        {
          "components": [
            {
              "internalType": "string",
              "name": "_context",
              "type": "string"
            },
            {
              "internalType": "string",
              "name": "_type",
              "type": "string"
            },
            {
              "internalType": "string",
              "name": "id",
              "type": "string"
            },
            {
              "components": [
                {
                  "internalType": "string",
                  "name": "id",
                  "type": "string"
                },
                {
                  "internalType": "address",
                  "name": "ethereumAddress",
                  "type": "address"
                }
              ],
              "internalType": "struct VCTypes.Issuer",
              "name": "issuer",
              "type": "tuple"
            },
            {
              "components": [
                {
                  "internalType": "string",
                  "name": "id",
                  "type": "string"
                },
                {
                  "internalType": "address",
                  "name": "ethereumAddress",
                  "type": "address"
                },
                {
                  "internalType": "string",
                  "name": "_type",
                  "type": "string"
                },
                {
                  "internalType": "string",
                  "name": "typeSchema",
                  "type": "string"
                },
                {
                  "internalType": "string",
                  "name": "value",
                  "type": "string"
                },
                {
                  "internalType": "string",
                  "name": "encrypted",
                  "type": "string"
                },
                {
                  "internalType": "uint8",
                  "name": "trust",
                  "type": "uint8"
                },
                {
                  "internalType": "uint256",
                  "name": "stake",
                  "type": "uint256"
                },
                {
                  "internalType": "uint256",
                  "name": "price",
                  "type": "uint256"
                },
                {
                  "internalType": "uint256",
                  "name": "nbf",
                  "type": "uint256"
                },
                {
                  "internalType": "uint256",
                  "name": "exp",
                  "type": "uint256"
                }
              ],
              "internalType": "struct VCTypes.CredentialSubject",
              "name": "credentialSubject",
              "type": "tuple"
            },
            {
              "components": [
                {
                  "internalType": "string",
                  "name": "id",
                  "type": "string"
                },
                {
                  "internalType": "string",
                  "name": "_type",
                  "type": "string"
                }
              ],
              "internalType": "struct VCTypes.CredentialSchema",
              "name": "credentialSchema",
              "type": "tuple"
            },
            {
              "internalType": "string",
              "name": "issuanceDate",
              "type": "string"
            },
            {
              "internalType": "string",
              "name": "expirationDate",
              "type": "string"
            }
          ],
          "internalType": "struct VCTypes.VerifiableCredential",
          "name": "disputeVC",
          "type": "tuple"
        }
      ],
      "name": "disputeVCByGovern",
      "outputs": [
        {
          "internalType": "bool",
          "name": "",
          "type": "bool"
        }
      ],
      "stateMutability": "nonpayable",
      "type": "function"
    },
    {
      "inputs": [
        {
          "components": [
            {
              "internalType": "string",
              "name": "_context",
              "type": "string"
            },
            {
              "internalType": "string",
              "name": "_type",
              "type": "string"
            },
            {
              "internalType": "string",
              "name": "id",
              "type": "string"
            },
            {
              "components": [
                {
                  "internalType": "string",
                  "name": "id",
                  "type": "string"
                },
                {
                  "internalType": "address",
                  "name": "ethereumAddress",
                  "type": "address"
                }
              ],
              "internalType": "struct VCTypes.Issuer",
              "name": "issuer",
              "type": "tuple"
            },
            {
              "components": [
                {
                  "internalType": "string",
                  "name": "id",
                  "type": "string"
                },
                {
                  "internalType": "address",
                  "name": "ethereumAddress",
                  "type": "address"
                },
                {
                  "internalType": "string",
                  "name": "_type",
                  "type": "string"
                },
                {
                  "internalType": "string",
                  "name": "typeSchema",
                  "type": "string"
                },
                {
                  "internalType": "string",
                  "name": "value",
                  "type": "string"
                },
                {
                  "internalType": "string",
                  "name": "encrypted",
                  "type": "string"
                },
                {
                  "internalType": "uint8",
                  "name": "trust",
                  "type": "uint8"
                },
                {
                  "internalType": "uint256",
                  "name": "stake",
                  "type": "uint256"
                },
                {
                  "internalType": "uint256",
                  "name": "price",
                  "type": "uint256"
                },
                {
                  "internalType": "uint256",
                  "name": "nbf",
                  "type": "uint256"
                },
                {
                  "internalType": "uint256",
                  "name": "exp",
                  "type": "uint256"
                }
              ],
              "internalType": "struct VCTypes.CredentialSubject",
              "name": "credentialSubject",
              "type": "tuple"
            },
            {
              "components": [
                {
                  "internalType": "string",
                  "name": "id",
                  "type": "string"
                },
                {
                  "internalType": "string",
                  "name": "_type",
                  "type": "string"
                }
              ],
              "internalType": "struct VCTypes.CredentialSchema",
              "name": "credentialSchema",
              "type": "tuple"
            },
            {
              "internalType": "string",
              "name": "issuanceDate",
              "type": "string"
            },
            {
              "internalType": "string",
              "name": "expirationDate",
              "type": "string"
            }
          ],
          "internalType": "struct VCTypes.VerifiableCredential",
          "name": "vc",
          "type": "tuple"
        }
      ],
      "name": "expiredVC",
      "outputs": [
        {
          "internalType": "bool",
          "name": "",
          "type": "bool"
        }
      ],
      "stateMutability": "nonpayable",
      "type": "function"
    },
    {
      "inputs": [],
      "name": "feePercentage",
      "outputs": [
        {
          "internalType": "uint256",
          "name": "",
          "type": "uint256"
        }
      ],
      "stateMutability": "view",
      "type": "function"
    },
    {
      "inputs": [],
      "name": "feesAvailableForWithdraw",
      "outputs": [
        {
          "internalType": "uint256",
          "name": "",
          "type": "uint256"
        }
      ],
      "stateMutability": "view",
      "type": "function"
    },
    {
      "inputs": [
        {
          "internalType": "bytes32",
          "name": "role",
          "type": "bytes32"
        }
      ],
      "name": "getRoleAdmin",
      "outputs": [
        {
          "internalType": "bytes32",
          "name": "",
          "type": "bytes32"
        }
      ],
      "stateMutability": "view",
      "type": "function"
    },
    {
      "inputs": [
        {
          "internalType": "bytes32",
          "name": "role",
          "type": "bytes32"
        },
        {
          "internalType": "uint256",
          "name": "index",
          "type": "uint256"
        }
      ],
      "name": "getRoleMember",
      "outputs": [
        {
          "internalType": "address",
          "name": "",
          "type": "address"
        }
      ],
      "stateMutability": "view",
      "type": "function"
    },
    {
      "inputs": [
        {
          "internalType": "bytes32",
          "name": "role",
          "type": "bytes32"
        }
      ],
      "name": "getRoleMemberCount",
      "outputs": [
        {
          "internalType": "uint256",
          "name": "",
          "type": "uint256"
        }
      ],
      "stateMutability": "view",
      "type": "function"
    },
    {
      "inputs": [
        {
          "components": [
            {
              "internalType": "string",
              "name": "_context",
              "type": "string"
            },
            {
              "internalType": "string",
              "name": "_type",
              "type": "string"
            },
            {
              "internalType": "string",
              "name": "id",
              "type": "string"
            },
            {
              "components": [
                {
                  "internalType": "string",
                  "name": "id",
                  "type": "string"
                },
                {
                  "internalType": "address",
                  "name": "ethereumAddress",
                  "type": "address"
                }
              ],
              "internalType": "struct VCTypes.Issuer",
              "name": "issuer",
              "type": "tuple"
            },
            {
              "components": [
                {
                  "internalType": "string",
                  "name": "id",
                  "type": "string"
                },
                {
                  "internalType": "address",
                  "name": "ethereumAddress",
                  "type": "address"
                },
                {
                  "internalType": "string",
                  "name": "_type",
                  "type": "string"
                },
                {
                  "internalType": "string",
                  "name": "typeSchema",
                  "type": "string"
                },
                {
                  "internalType": "string",
                  "name": "value",
                  "type": "string"
                },
                {
                  "internalType": "string",
                  "name": "encrypted",
                  "type": "string"
                },
                {
                  "internalType": "uint8",
                  "name": "trust",
                  "type": "uint8"
                },
                {
                  "internalType": "uint256",
                  "name": "stake",
                  "type": "uint256"
                },
                {
                  "internalType": "uint256",
                  "name": "price",
                  "type": "uint256"
                },
                {
                  "internalType": "uint256",
                  "name": "nbf",
                  "type": "uint256"
                },
                {
                  "internalType": "uint256",
                  "name": "exp",
                  "type": "uint256"
                }
              ],
              "internalType": "struct VCTypes.CredentialSubject",
              "name": "credentialSubject",
              "type": "tuple"
            },
            {
              "components": [
                {
                  "internalType": "string",
                  "name": "id",
                  "type": "string"
                },
                {
                  "internalType": "string",
                  "name": "_type",
                  "type": "string"
                }
              ],
              "internalType": "struct VCTypes.CredentialSchema",
              "name": "credentialSchema",
              "type": "tuple"
            },
            {
              "internalType": "string",
              "name": "issuanceDate",
              "type": "string"
            },
            {
              "internalType": "string",
              "name": "expirationDate",
              "type": "string"
            }
          ],
          "internalType": "struct VCTypes.VerifiableCredential",
          "name": "vc",
          "type": "tuple"
        }
      ],
      "name": "getUuid",
      "outputs": [
        {
          "internalType": "uint256",
          "name": "",
          "type": "uint256"
        }
      ],
      "stateMutability": "pure",
      "type": "function"
    },
    {
      "inputs": [
        {
          "components": [
            {
              "internalType": "string",
              "name": "_context",
              "type": "string"
            },
            {
              "internalType": "string",
              "name": "_type",
              "type": "string"
            },
            {
              "internalType": "string",
              "name": "id",
              "type": "string"
            },
            {
              "components": [
                {
                  "internalType": "string",
                  "name": "id",
                  "type": "string"
                },
                {
                  "internalType": "address",
                  "name": "ethereumAddress",
                  "type": "address"
                }
              ],
              "internalType": "struct VCTypes.Issuer",
              "name": "issuer",
              "type": "tuple"
            },
            {
              "components": [
                {
                  "internalType": "string",
                  "name": "id",
                  "type": "string"
                },
                {
                  "internalType": "address",
                  "name": "ethereumAddress",
                  "type": "address"
                },
                {
                  "internalType": "string",
                  "name": "_type",
                  "type": "string"
                },
                {
                  "internalType": "string",
                  "name": "typeSchema",
                  "type": "string"
                },
                {
                  "internalType": "string",
                  "name": "value",
                  "type": "string"
                },
                {
                  "internalType": "string",
                  "name": "encrypted",
                  "type": "string"
                },
                {
                  "internalType": "uint8",
                  "name": "trust",
                  "type": "uint8"
                },
                {
                  "internalType": "uint256",
                  "name": "stake",
                  "type": "uint256"
                },
                {
                  "internalType": "uint256",
                  "name": "price",
                  "type": "uint256"
                },
                {
                  "internalType": "uint256",
                  "name": "nbf",
                  "type": "uint256"
                },
                {
                  "internalType": "uint256",
                  "name": "exp",
                  "type": "uint256"
                }
              ],
              "internalType": "struct VCTypes.CredentialSubject",
              "name": "credentialSubject",
              "type": "tuple"
            },
            {
              "components": [
                {
                  "internalType": "string",
                  "name": "id",
                  "type": "string"
                },
                {
                  "internalType": "string",
                  "name": "_type",
                  "type": "string"
                }
              ],
              "internalType": "struct VCTypes.CredentialSchema",
              "name": "credentialSchema",
              "type": "tuple"
            },
            {
              "internalType": "string",
              "name": "issuanceDate",
              "type": "string"
            },
            {
              "internalType": "string",
              "name": "expirationDate",
              "type": "string"
            }
          ],
          "internalType": "struct VCTypes.VerifiableCredential",
          "name": "vc",
          "type": "tuple"
        }
      ],
      "name": "getVCStatus",
      "outputs": [
        {
          "internalType": "string",
          "name": "",
          "type": "string"
        }
      ],
      "stateMutability": "view",
      "type": "function"
    },
    {
      "inputs": [
        {
          "internalType": "bytes32",
          "name": "role",
          "type": "bytes32"
        },
        {
          "internalType": "address",
          "name": "account",
          "type": "address"
        }
      ],
      "name": "grantRole",
      "outputs": [],
      "stateMutability": "nonpayable",
      "type": "function"
    },
    {
      "inputs": [
        {
          "internalType": "bytes32",
          "name": "role",
          "type": "bytes32"
        },
        {
          "internalType": "address",
          "name": "account",
          "type": "address"
        }
      ],
      "name": "hasRole",
      "outputs": [
        {
          "internalType": "bool",
          "name": "",
          "type": "bool"
        }
      ],
      "stateMutability": "view",
      "type": "function"
    },
    {
      "inputs": [
        {
          "internalType": "address",
          "name": "spender",
          "type": "address"
        },
        {
          "internalType": "uint256",
          "name": "addedValue",
          "type": "uint256"
        }
      ],
      "name": "increaseAllowance",
      "outputs": [
        {
          "internalType": "bool",
          "name": "",
          "type": "bool"
        }
      ],
      "stateMutability": "nonpayable",
      "type": "function"
    },
    {
      "inputs": [
        {
          "internalType": "string",
          "name": "name",
          "type": "string"
        },
        {
          "internalType": "string",
          "name": "symbol",
          "type": "string"
        },
        {
          "internalType": "string",
          "name": "version",
          "type": "string"
        }
      ],
      "name": "initialize",
      "outputs": [],
      "stateMutability": "nonpayable",
      "type": "function"
    },
    {
      "inputs": [
        {
          "internalType": "address",
          "name": "forwarder",
          "type": "address"
        }
      ],
      "name": "isTrustedForwarder",
      "outputs": [
        {
          "internalType": "bool",
          "name": "",
          "type": "bool"
        }
      ],
      "stateMutability": "view",
      "type": "function"
    },
    {
      "inputs": [],
      "name": "maxPriceToIssue",
      "outputs": [
        {
          "internalType": "uint256",
          "name": "",
          "type": "uint256"
        }
      ],
      "stateMutability": "view",
      "type": "function"
    },
    {
      "inputs": [],
      "name": "maxStakeToIssue",
      "outputs": [
        {
          "internalType": "uint256",
          "name": "",
          "type": "uint256"
        }
      ],
      "stateMutability": "view",
      "type": "function"
    },
    {
      "inputs": [],
      "name": "minBalanceToIssue",
      "outputs": [
        {
          "internalType": "uint256",
          "name": "",
          "type": "uint256"
        }
      ],
      "stateMutability": "view",
      "type": "function"
    },
    {
      "inputs": [],
      "name": "minBalanceToReceive",
      "outputs": [
        {
          "internalType": "uint256",
          "name": "",
          "type": "uint256"
        }
      ],
      "stateMutability": "view",
      "type": "function"
    },
    {
      "inputs": [],
      "name": "minBalanceToTransfer",
      "outputs": [
        {
          "internalType": "uint256",
          "name": "",
          "type": "uint256"
        }
      ],
      "stateMutability": "view",
      "type": "function"
    },
    {
      "inputs": [],
      "name": "minPriceToIssue",
      "outputs": [
        {
          "internalType": "uint256",
          "name": "",
          "type": "uint256"
        }
      ],
      "stateMutability": "view",
      "type": "function"
    },
    {
      "inputs": [],
      "name": "minStakeToIssue",
      "outputs": [
        {
          "internalType": "uint256",
          "name": "",
          "type": "uint256"
        }
      ],
      "stateMutability": "view",
      "type": "function"
    },
    {
      "inputs": [
        {
          "internalType": "address",
          "name": "to",
          "type": "address"
        },
        {
          "internalType": "uint256",
          "name": "amount",
          "type": "uint256"
        }
      ],
      "name": "mint",
      "outputs": [],
      "stateMutability": "nonpayable",
      "type": "function"
    },
    {
      "inputs": [],
      "name": "name",
      "outputs": [
        {
          "internalType": "string",
          "name": "",
          "type": "string"
        }
      ],
      "stateMutability": "view",
      "type": "function"
    },
    {
      "inputs": [],
      "name": "pause",
      "outputs": [],
      "stateMutability": "nonpayable",
      "type": "function"
    },
    {
      "inputs": [],
      "name": "paused",
      "outputs": [
        {
          "internalType": "bool",
          "name": "",
          "type": "bool"
        }
      ],
      "stateMutability": "view",
      "type": "function"
    },
    {
      "inputs": [
        {
          "internalType": "address",
          "name": "dest",
          "type": "address"
        }
      ],
      "name": "payments",
      "outputs": [
        {
          "internalType": "uint256",
          "name": "",
          "type": "uint256"
        }
      ],
      "stateMutability": "view",
      "type": "function"
    },
    {
      "inputs": [],
      "name": "proxiableUUID",
      "outputs": [
        {
          "internalType": "bytes32",
          "name": "",
          "type": "bytes32"
        }
      ],
      "stateMutability": "view",
      "type": "function"
    },
    {
      "inputs": [
        {
          "components": [
            {
              "internalType": "string",
              "name": "_context",
              "type": "string"
            },
            {
              "internalType": "string",
              "name": "_type",
              "type": "string"
            },
            {
              "internalType": "string",
              "name": "id",
              "type": "string"
            },
            {
              "components": [
                {
                  "internalType": "string",
                  "name": "id",
                  "type": "string"
                },
                {
                  "internalType": "address",
                  "name": "ethereumAddress",
                  "type": "address"
                }
              ],
              "internalType": "struct VCTypes.Issuer",
              "name": "issuer",
              "type": "tuple"
            },
            {
              "components": [
                {
                  "internalType": "string",
                  "name": "id",
                  "type": "string"
                },
                {
                  "internalType": "address",
                  "name": "ethereumAddress",
                  "type": "address"
                },
                {
                  "internalType": "string",
                  "name": "_type",
                  "type": "string"
                },
                {
                  "internalType": "string",
                  "name": "typeSchema",
                  "type": "string"
                },
                {
                  "internalType": "string",
                  "name": "value",
                  "type": "string"
                },
                {
                  "internalType": "string",
                  "name": "encrypted",
                  "type": "string"
                },
                {
                  "internalType": "uint8",
                  "name": "trust",
                  "type": "uint8"
                },
                {
                  "internalType": "uint256",
                  "name": "stake",
                  "type": "uint256"
                },
                {
                  "internalType": "uint256",
                  "name": "price",
                  "type": "uint256"
                },
                {
                  "internalType": "uint256",
                  "name": "nbf",
                  "type": "uint256"
                },
                {
                  "internalType": "uint256",
                  "name": "exp",
                  "type": "uint256"
                }
              ],
              "internalType": "struct VCTypes.CredentialSubject",
              "name": "credentialSubject",
              "type": "tuple"
            },
            {
              "components": [
                {
                  "internalType": "string",
                  "name": "id",
                  "type": "string"
                },
                {
                  "internalType": "string",
                  "name": "_type",
                  "type": "string"
                }
              ],
              "internalType": "struct VCTypes.CredentialSchema",
              "name": "credentialSchema",
              "type": "tuple"
            },
            {
              "internalType": "string",
              "name": "issuanceDate",
              "type": "string"
            },
            {
              "internalType": "string",
              "name": "expirationDate",
              "type": "string"
            }
          ],
          "internalType": "struct VCTypes.VerifiableCredential",
          "name": "vc",
          "type": "tuple"
        },
        {
          "internalType": "bytes",
          "name": "proofValue",
          "type": "bytes"
        }
      ],
      "name": "registerVC",
      "outputs": [
        {
          "internalType": "bool",
          "name": "",
          "type": "bool"
        }
      ],
      "stateMutability": "payable",
      "type": "function"
    },
    {
      "inputs": [
        {
          "internalType": "uint256",
          "name": "",
          "type": "uint256"
        }
      ],
      "name": "registry",
      "outputs": [
        {
          "internalType": "enum KRBToken.Status",
          "name": "credentialStatus",
          "type": "uint8"
        },
        {
          "internalType": "uint256",
          "name": "disputedBy",
          "type": "uint256"
        }
      ],
      "stateMutability": "view",
      "type": "function"
    },
    {
      "inputs": [
        {
          "internalType": "bytes32",
          "name": "role",
          "type": "bytes32"
        },
        {
          "internalType": "address",
          "name": "account",
          "type": "address"
        }
      ],
      "name": "renounceRole",
      "outputs": [],
      "stateMutability": "nonpayable",
      "type": "function"
    },
    {
      "inputs": [
        {
          "internalType": "bytes32",
          "name": "role",
          "type": "bytes32"
        },
        {
          "internalType": "address",
          "name": "account",
          "type": "address"
        }
      ],
      "name": "revokeRole",
      "outputs": [],
      "stateMutability": "nonpayable",
      "type": "function"
    },
    {
      "inputs": [
        {
          "components": [
            {
              "internalType": "string",
              "name": "_context",
              "type": "string"
            },
            {
              "internalType": "string",
              "name": "_type",
              "type": "string"
            },
            {
              "internalType": "string",
              "name": "id",
              "type": "string"
            },
            {
              "components": [
                {
                  "internalType": "string",
                  "name": "id",
                  "type": "string"
                },
                {
                  "internalType": "address",
                  "name": "ethereumAddress",
                  "type": "address"
                }
              ],
              "internalType": "struct VCTypes.Issuer",
              "name": "issuer",
              "type": "tuple"
            },
            {
              "components": [
                {
                  "internalType": "string",
                  "name": "id",
                  "type": "string"
                },
                {
                  "internalType": "address",
                  "name": "ethereumAddress",
                  "type": "address"
                },
                {
                  "internalType": "string",
                  "name": "_type",
                  "type": "string"
                },
                {
                  "internalType": "string",
                  "name": "typeSchema",
                  "type": "string"
                },
                {
                  "internalType": "string",
                  "name": "value",
                  "type": "string"
                },
                {
                  "internalType": "string",
                  "name": "encrypted",
                  "type": "string"
                },
                {
                  "internalType": "uint8",
                  "name": "trust",
                  "type": "uint8"
                },
                {
                  "internalType": "uint256",
                  "name": "stake",
                  "type": "uint256"
                },
                {
                  "internalType": "uint256",
                  "name": "price",
                  "type": "uint256"
                },
                {
                  "internalType": "uint256",
                  "name": "nbf",
                  "type": "uint256"
                },
                {
                  "internalType": "uint256",
                  "name": "exp",
                  "type": "uint256"
                }
              ],
              "internalType": "struct VCTypes.CredentialSubject",
              "name": "credentialSubject",
              "type": "tuple"
            },
            {
              "components": [
                {
                  "internalType": "string",
                  "name": "id",
                  "type": "string"
                },
                {
                  "internalType": "string",
                  "name": "_type",
                  "type": "string"
                }
              ],
              "internalType": "struct VCTypes.CredentialSchema",
              "name": "credentialSchema",
              "type": "tuple"
            },
            {
              "internalType": "string",
              "name": "issuanceDate",
              "type": "string"
            },
            {
              "internalType": "string",
              "name": "expirationDate",
              "type": "string"
            }
          ],
          "internalType": "struct VCTypes.VerifiableCredential",
          "name": "vc",
          "type": "tuple"
        },
        {
          "internalType": "string",
          "name": "reason",
          "type": "string"
        }
      ],
      "name": "revokeVC",
      "outputs": [
        {
          "internalType": "bool",
          "name": "",
          "type": "bool"
        }
      ],
      "stateMutability": "nonpayable",
      "type": "function"
    },
    {
      "inputs": [
        {
          "internalType": "address",
          "name": "issuer",
          "type": "address"
        }
      ],
      "name": "stakeOf",
      "outputs": [
        {
          "internalType": "uint256",
          "name": "",
          "type": "uint256"
        }
      ],
      "stateMutability": "view",
      "type": "function"
    },
    {
      "inputs": [
        {
          "internalType": "bytes4",
          "name": "interfaceId",
          "type": "bytes4"
        }
      ],
      "name": "supportsInterface",
      "outputs": [
        {
          "internalType": "bool",
          "name": "",
          "type": "bool"
        }
      ],
      "stateMutability": "view",
      "type": "function"
    },
    {
      "inputs": [
        {
          "components": [
            {
              "internalType": "string",
              "name": "_context",
              "type": "string"
            },
            {
              "internalType": "string",
              "name": "_type",
              "type": "string"
            },
            {
              "internalType": "string",
              "name": "id",
              "type": "string"
            },
            {
              "components": [
                {
                  "internalType": "string",
                  "name": "id",
                  "type": "string"
                },
                {
                  "internalType": "address",
                  "name": "ethereumAddress",
                  "type": "address"
                }
              ],
              "internalType": "struct VCTypes.Issuer",
              "name": "issuer",
              "type": "tuple"
            },
            {
              "components": [
                {
                  "internalType": "string",
                  "name": "id",
                  "type": "string"
                },
                {
                  "internalType": "address",
                  "name": "ethereumAddress",
                  "type": "address"
                },
                {
                  "internalType": "string",
                  "name": "_type",
                  "type": "string"
                },
                {
                  "internalType": "string",
                  "name": "typeSchema",
                  "type": "string"
                },
                {
                  "internalType": "string",
                  "name": "value",
                  "type": "string"
                },
                {
                  "internalType": "string",
                  "name": "encrypted",
                  "type": "string"
                },
                {
                  "internalType": "uint8",
                  "name": "trust",
                  "type": "uint8"
                },
                {
                  "internalType": "uint256",
                  "name": "stake",
                  "type": "uint256"
                },
                {
                  "internalType": "uint256",
                  "name": "price",
                  "type": "uint256"
                },
                {
                  "internalType": "uint256",
                  "name": "nbf",
                  "type": "uint256"
                },
                {
                  "internalType": "uint256",
                  "name": "exp",
                  "type": "uint256"
                }
              ],
              "internalType": "struct VCTypes.CredentialSubject",
              "name": "credentialSubject",
              "type": "tuple"
            },
            {
              "components": [
                {
                  "internalType": "string",
                  "name": "id",
                  "type": "string"
                },
                {
                  "internalType": "string",
                  "name": "_type",
                  "type": "string"
                }
              ],
              "internalType": "struct VCTypes.CredentialSchema",
              "name": "credentialSchema",
              "type": "tuple"
            },
            {
              "internalType": "string",
              "name": "issuanceDate",
              "type": "string"
            },
            {
              "internalType": "string",
              "name": "expirationDate",
              "type": "string"
            }
          ],
          "internalType": "struct VCTypes.VerifiableCredential",
          "name": "vc",
          "type": "tuple"
        },
        {
          "internalType": "string",
          "name": "reason",
          "type": "string"
        }
      ],
      "name": "suspendVC",
      "outputs": [
        {
          "internalType": "bool",
          "name": "",
          "type": "bool"
        }
      ],
      "stateMutability": "nonpayable",
      "type": "function"
    },
    {
      "inputs": [],
      "name": "symbol",
      "outputs": [
        {
          "internalType": "string",
          "name": "",
          "type": "string"
        }
      ],
      "stateMutability": "view",
      "type": "function"
    },
    {
      "inputs": [],
      "name": "totalSupply",
      "outputs": [
        {
          "internalType": "uint256",
          "name": "",
          "type": "uint256"
        }
      ],
      "stateMutability": "view",
      "type": "function"
    },
    {
      "inputs": [
        {
          "internalType": "address",
          "name": "to",
          "type": "address"
        },
        {
          "internalType": "uint256",
          "name": "amount",
          "type": "uint256"
        }
      ],
      "name": "transfer",
      "outputs": [
        {
          "internalType": "bool",
          "name": "",
          "type": "bool"
        }
      ],
      "stateMutability": "nonpayable",
      "type": "function"
    },
    {
      "inputs": [
        {
          "internalType": "address",
          "name": "from",
          "type": "address"
        },
        {
          "internalType": "address",
          "name": "to",
          "type": "address"
        },
        {
          "internalType": "uint256",
          "name": "amount",
          "type": "uint256"
        }
      ],
      "name": "transferFrom",
      "outputs": [
        {
          "internalType": "bool",
          "name": "",
          "type": "bool"
        }
      ],
      "stateMutability": "nonpayable",
      "type": "function"
    },
    {
      "inputs": [],
      "name": "trustedForwarder",
      "outputs": [
        {
          "internalType": "address",
          "name": "",
          "type": "address"
        }
      ],
      "stateMutability": "view",
      "type": "function"
    },
    {
      "inputs": [],
      "name": "unpause",
      "outputs": [],
      "stateMutability": "nonpayable",
      "type": "function"
    },
    {
      "inputs": [
        {
          "internalType": "uint256",
          "name": "newMinBalanceToTransfer",
          "type": "uint256"
        },
        {
          "internalType": "uint256",
          "name": "newMinBalanceToReceive",
          "type": "uint256"
        },
        {
          "internalType": "uint256",
          "name": "newMinBalanceToIssue",
          "type": "uint256"
        },
        {
          "internalType": "uint256",
          "name": "newFeePercentage",
          "type": "uint256"
        },
        {
          "internalType": "uint256",
          "name": "newMinPrice",
          "type": "uint256"
        },
        {
          "internalType": "uint256",
          "name": "newMaxPrice",
          "type": "uint256"
        },
        {
          "internalType": "uint256",
          "name": "newMinStake",
          "type": "uint256"
        },
        {
          "internalType": "uint256",
          "name": "newMaxStake",
          "type": "uint256"
        },
        {
          "internalType": "address",
          "name": "newTrustedForwarder",
          "type": "address"
        }
      ],
      "name": "updateParameters",
      "outputs": [],
      "stateMutability": "nonpayable",
      "type": "function"
    },
    {
      "inputs": [
        {
          "internalType": "address",
          "name": "newImplementation",
          "type": "address"
        }
      ],
      "name": "upgradeTo",
      "outputs": [],
      "stateMutability": "nonpayable",
      "type": "function"
    },
    {
      "inputs": [
        {
          "internalType": "address",
          "name": "newImplementation",
          "type": "address"
        },
        {
          "internalType": "bytes",
          "name": "data",
          "type": "bytes"
        }
      ],
      "name": "upgradeToAndCall",
      "outputs": [],
      "stateMutability": "payable",
      "type": "function"
    },
    {
      "inputs": [
        {
          "internalType": "address",
          "name": "signer",
          "type": "address"
        },
        {
          "internalType": "bytes32",
          "name": "structHash",
          "type": "bytes32"
        },
        {
          "internalType": "bytes",
          "name": "signature",
          "type": "bytes"
        }
      ],
      "name": "validateSignedData",
      "outputs": [],
      "stateMutability": "view",
      "type": "function"
    },
    {
      "inputs": [
        {
          "internalType": "uint256",
          "name": "amount",
          "type": "uint256"
        }
      ],
      "name": "withdraw",
      "outputs": [],
      "stateMutability": "nonpayable",
      "type": "function"
    },
    {
      "inputs": [
        {
          "internalType": "address payable",
          "name": "_to",
          "type": "address"
        },
        {
          "internalType": "uint256",
          "name": "_amount",
          "type": "uint256"
        }
      ],
      "name": "withdrawFees",
      "outputs": [],
      "stateMutability": "nonpayable",
      "type": "function"
    },
    {
      "inputs": [
        {
          "internalType": "address payable",
          "name": "payee",
          "type": "address"
        }
      ],
      "name": "withdrawPayments",
      "outputs": [],
      "stateMutability": "nonpayable",
      "type": "function"
    }
  ],
  "bytecode": "0x60a06040523060805234801561001457600080fd5b50608051615f386200004d60003960008181611177015281816111b70152818161128d015281816112cd01526113450152615f386000f3fe60806040526004361061030d5760003560e01c80638456cb5911610197578063af4e720d116100ed578063d547741f11610090578063d547741f146109bb578063dd62ed3e146109db578063de5785d5146109fb578063de9d2b1c14610a12578063dec9cafe14610a29578063e2982c2114610a3c578063e5a2b28e14610a5c578063ee2b1b4d14610a7357600080fd5b8063af4e720d146108c4578063b25dd4fc146108db578063bcd68993146108fb578063c0d506d61461091b578063ca15c8731461093b578063ca2a8cfc1461095b578063ce556f9d1461097b578063cf2c52cb1461099b57600080fd5b80638456cb5914610703578063888bb7b5146107185780638993a3e5146107385780639010d07c1461075857806391d148541461077857806395d89b41146107985780639c70287c146107ad578063a001ecdd146107cd578063a217fddf146107e4578063a3b0b5a3146107f9578063a457c2d71461082d578063a6487c531461084d578063a775aabd1461086d578063a9059cbb14610884578063ad3b1b47146108a457600080fd5b80633659cfe61161026757806352d1902d1161020a57806352d1902d146105de578063572b6c05146105f35780635893253c146106135780635c975abb1461065c57806370a0823114610675578063716f4d901461069557806379cc6790146106b55780637da0a877146106d557600080fd5b80633659cfe6146104fd57806338b7f4461461051d578063395093511461053f5780633f4ba83a1461055f57806340c10f1914610574578063426233601461059457806342966c681461044a5780634f1ef286146105cb57600080fd5b806301ffc9a71461031257806306fdde031461034757806307a0d7981461036957806307a772921461038e578063095ea7b3146103a557806318160ddd146103c557806323b872dd146103da578063248a9ca3146103fa5780632a401e811461042a5780632e1a7d4d1461044a5780632f2ff15d1461046c578063313ce5671461048c57806331b3eb94146104a85780633644e515146104c857806336568abe146104dd575b600080fd5b34801561031e57600080fd5b5061033261032d36600461472b565b610a8a565b60405190151581526020015b60405180910390f35b34801561035357600080fd5b5061035c610ab5565b60405161033e91906147ad565b34801561037557600080fd5b506103806102955481565b60405190815260200161033e565b34801561039a57600080fd5b506103806102905481565b3480156103b157600080fd5b506103326103c03660046147e5565b610b47565b3480156103d157600080fd5b5060cb54610380565b3480156103e657600080fd5b506103326103f5366004614811565b610b69565b34801561040657600080fd5b50610380610415366004614852565b60009081526065602052604090206001015490565b34801561043657600080fd5b50610332610445366004614ccf565b610b99565b34801561045657600080fd5b5061046a610465366004614852565b61102b565b005b34801561047857600080fd5b5061046a610487366004614d32565b61103f565b34801561049857600080fd5b506040516012815260200161033e565b3480156104b457600080fd5b5061046a6104c3366004614d62565b611069565b3480156104d457600080fd5b506103806110cf565b3480156104e957600080fd5b5061046a6104f8366004614d32565b6110de565b34801561050957600080fd5b5061046a610518366004614d62565b61116c565b34801561052957600080fd5b50610380600080516020615e7c83398151915281565b34801561054b57600080fd5b5061033261055a3660046147e5565b611232565b34801561056b57600080fd5b5061046a61125e565b34801561058057600080fd5b5061046a61058f3660046147e5565b611270565b3480156105a057600080fd5b506103806105af366004614d62565b6001600160a01b03166000908152610299602052604090205490565b61046a6105d9366004614d7f565b611282565b3480156105ea57600080fd5b50610380611338565b3480156105ff57600080fd5b5061033261060e366004614d62565b6113e6565b34801561061f57600080fd5b5061064e61062e366004614852565b610298602052600090815260409020805460019091015460ff9091169082565b60405161033e929190614dda565b34801561066857600080fd5b5061012d5460ff16610332565b34801561068157600080fd5b50610380610690366004614d62565b6113fb565b3480156106a157600080fd5b506103326106b0366004614e06565b611416565b3480156106c157600080fd5b5061046a6106d03660046147e5565b6115aa565b3480156106e157600080fd5b5061028e546106f6906001600160a01b031681565b60405161033e9190614e5f565b34801561070f57600080fd5b5061046a6115c6565b34801561072457600080fd5b50610332610733366004614e73565b6115d6565b34801561074457600080fd5b5061046a610753366004614eaf565b61169c565b34801561076457600080fd5b506106f6610773366004614f23565b611810565b34801561078457600080fd5b50610332610793366004614d32565b611828565b3480156107a457600080fd5b5061035c611853565b3480156107b957600080fd5b5061046a6107c83660046147e5565b611862565b3480156107d957600080fd5b506103806102965481565b3480156107f057600080fd5b50610380600081565b34801561080557600080fd5b506103807f8f4f2da22e8ac8f11e15f9fc141cddbb5deea8800186560abb6e68c5496619a981565b34801561083957600080fd5b506103326108483660046147e5565b611874565b34801561085957600080fd5b5061046a610868366004614f45565b611905565b34801561087957600080fd5b506103806102935481565b34801561089057600080fd5b5061033261089f3660046147e5565b611a23565b3480156108b057600080fd5b5061046a6108bf3660046147e5565b611a3b565b3480156108d057600080fd5b506103806102915481565b3480156108e757600080fd5b5061046a6108f6366004614fcc565b611a82565b34801561090757600080fd5b50610380610916366004614e73565b611b84565b34801561092757600080fd5b5061035c610936366004614e73565b611b8f565b34801561094757600080fd5b50610380610956366004614852565b611d56565b34801561096757600080fd5b50610332610976366004614e06565b611d6d565b34801561098757600080fd5b50610332610996366004614e06565b611e4b565b3480156109a757600080fd5b5061046a6109b636600461501a565b611fa3565b3480156109c757600080fd5b5061046a6109d6366004614d32565b61204a565b3480156109e757600080fd5b506103806109f636600461509e565b61206f565b348015610a0757600080fd5b506103806102975481565b348015610a1e57600080fd5b506103806102945481565b610332610a37366004614e06565b61209a565b348015610a4857600080fd5b50610380610a57366004614d62565b61261e565b348015610a6857600080fd5b5061038061028f5481565b348015610a7f57600080fd5b506103806102925481565b60006001600160e01b03198216635a05180f60e01b1480610aaf5750610aaf82612691565b92915050565b606060cc8054610ac4906150cc565b80601f0160208091040260200160405190810160405280929190818152602001828054610af0906150cc565b8015610b3d5780601f10610b1257610100808354040283529160200191610b3d565b820191906000526020600020905b815481529060010190602001808311610b2057829003601f168201915b5050505050905090565b600080610b526126c6565b9050610b5f8185856126e8565b5060019392505050565b600080610b746126c6565b9050610b8185828561280c565b610b8c858585612880565b60019150505b9392505050565b6000610ba3612a24565b604051602001610bd890602080825260119082015270111a5cdc1d5d1950dc9959195b9d1a585b607a1b604082015260600190565b60405160208183030381529060405280519060200120826080015160400151604051602001610c0791906147ad565b6040516020818303038152906040528051906020012014610c8e5760405162461bcd60e51b815260206004820152603660248201527f4b5242546f6b656e3a206469737075746520636c61696d2074797065206d75736044820152751d08189948111a5cdc1d5d1950dc9959195b9d1a585b60521b60648201526084015b60405180910390fd5b610c966126c6565b6001600160a01b03168260600151602001516001600160a01b031614610d125760405162461bcd60e51b815260206004820152602b60248201527f4b5242546f6b656e3a20697373756572206d7573742062652074686520476f7660448201526a65726e206164647265737360a81b6064820152608401610c85565b8260400151604051602001610d2791906147ad565b60408051601f198184030181529082905280516020918201206080850151519092610d5292016147ad565b6040516020818303038152906040528051906020012014610ddb5760405162461bcd60e51b815260206004820152603c60248201527f4b5242546f6b656e3a206469737075746556432063726564656e7469616c537560448201527f626a6563742069642064696666657265732066726f6d205643206964000000006064820152608401610c85565b610de482612a8a565b6000610def84611b84565b9050600080828152610298602052604090205460ff166005811115610e1657610e16614dc4565b14158015610e48575060026000828152610298602052604090205460ff166005811115610e4557610e45614dc4565b14155b610ea05760405162461bcd60e51b815260206004820152602360248201527f4b5242546f6b656e3a20564320737461746520616c72656164792064697370756044820152621d195960ea1b6064820152608401610c85565b6000610eab84611b84565b60008381526102986020908152604091829020805460ff1916600217815560010183905581518581529081018390529192507f7a5b7de3bc82f24e3a2ec84fdd3d22a2611adff3df42e2917470dc204f0eb0a4910160405180910390a16000818152610298602052604090819020805460ff19166001179055517fb4323e298f3a82d5cf939b5e4ed408526ed5f8ebe42169c54ec2b667a85e1bc990610f54908390879061524b565b60405180910390a16000610f6a6012600a615442565b866080015160e00151610f7d9190615451565b9050610f9186606001516020015182612d70565b6000610fa882886080015160c0015160ff16612e78565b9050610fbc87608001516020015182612e87565b610fce87606001516020015182612e87565b6000610fdc6012600a615442565b876080015160e00151610fef9190615451565b9050600061100882896080015160c0015160ff16612e78565b905061101c88608001516020015182612fb5565b50600198975050505050505050565b61103c6110366126c6565b82612e87565b50565b60008281526065602052604090206001015461105a81613070565b6110648383613081565b505050565b610229546040516351cff8d960e01b81526001600160a01b03909116906351cff8d99061109a908490600401614e5f565b600060405180830381600087803b1580156110b457600080fd5b505af11580156110c8573d6000803e3d6000fd5b5050505050565b60006110d96130a3565b905090565b6110e66126c6565b6001600160a01b0316816001600160a01b03161461115e5760405162461bcd60e51b815260206004820152602f60248201527f416363657373436f6e74726f6c3a2063616e206f6e6c792072656e6f756e636560448201526e103937b632b9903337b91039b2b63360891b6064820152608401610c85565b6111688282613120565b5050565b306001600160a01b037f00000000000000000000000000000000000000000000000000000000000000001614156111b55760405162461bcd60e51b8152600401610c8590615470565b7f00000000000000000000000000000000000000000000000000000000000000006001600160a01b03166111e7613142565b6001600160a01b03161461120d5760405162461bcd60e51b8152600401610c85906154bc565b6112168161315e565b6040805160008082526020820190925261103c91839190613166565b60008061123d6126c6565b9050610b5f81858561124f858961206f565b6112599190615508565b6126e8565b611266612a24565b61126e6132d1565b565b611278612a24565b6111688282612fb5565b306001600160a01b037f00000000000000000000000000000000000000000000000000000000000000001614156112cb5760405162461bcd60e51b8152600401610c8590615470565b7f00000000000000000000000000000000000000000000000000000000000000006001600160a01b03166112fd613142565b6001600160a01b0316146113235760405162461bcd60e51b8152600401610c85906154bc565b61132c8261315e565b61116882826001613166565b6000306001600160a01b037f000000000000000000000000000000000000000000000000000000000000000016146113d35760405162461bcd60e51b815260206004820152603860248201527f555550535570677261646561626c653a206d757374206e6f742062652063616c6044820152771b1959081d1a1c9bdd59da0819195b1959d85d1958d85b1b60421b6064820152608401610c85565b50600080516020615e9c83398151915290565b61028e546001600160a01b0391821691161490565b6001600160a01b0316600090815260c9602052604090205490565b6000611432600080516020615e7c8339815191526107936126c6565b8061145d57506114406126c6565b6001600160a01b03168360800151602001516001600160a01b0316145b6114795760405162461bcd60e51b8152600401610c8590615520565b600061148484611b84565b905060016000828152610298602052604090205460ff1660058111156114ac576114ac614dc4565b146114c95760405162461bcd60e51b8152600401610c8590615576565b6000818152610298602052604090819020805460ff19169055517f9033e030b285e24d878a56c0809910a4fbc2c14bc876c3060bfdefc4f21ea68c9061151290839086906155ad565b60405180910390a160006115286012600a615442565b856080015160e0015161153b9190615451565b9050600061155482876080015160c0015160ff16612e78565b905061156886606001516020015183612d70565b61157a86606001516020015183612fb5565b61158c86608001516020015182612e87565b61159e86606001516020015182612e87565b50600195945050505050565b6115bc826115b66126c6565b8361280c565b6111688282612e87565b6115ce612a24565b61126e613324565b6000806115e283611b84565b90508260800151610140015142111561168c5760006116036012600a615442565b846080015160e001516116169190615451565b905061162a84606001516020015182612d70565b61163c84606001516020015182612fb5565b60008281526102986020908152604091829020805460ff1916600517905590518381527ff80dbaea4785589e52984ca36a31de106adc77759539a5c7d92883bf49692fe9910160405180910390a1505b5050608001516101400151421190565b6116a4612a24565b61028f899055610290889055610291879055610296869055848410156117325760405162461bcd60e51b815260206004820152603f60248201527f4b5242546f6b656e3a206e65774d61785072696365206d75737420626520677260448201527f6561746572206f7220657175616c207468616e206e65774d696e5072696365006064820152608401610c85565b610292859055610293849055828210156117b45760405162461bcd60e51b815260206004820152603f60248201527f4b5242546f6b656e3a206e65774d61785374616b65206d75737420626520677260448201527f6561746572206f7220657175616c207468616e206e65774d696e5374616b65006064820152608401610c85565b61029483905561029582905561028e80546001600160a01b0319166001600160a01b0383161790556040517ff2e795d4a33ae9a0d3282888375b8ae781ea4de1cbf101ac96150aa95ccff0b490600090a1505050505050505050565b6000828152609760205260408120610b929083613363565b60009182526065602090815260408084206001600160a01b0393909316845291905290205460ff1690565b606060cd8054610ac4906150cc565b61186a612a24565b6111688282612d70565b60008061187f6126c6565b9050600061188d828661206f565b9050838110156118ed5760405162461bcd60e51b815260206004820152602560248201527f45524332303a2064656372656173656420616c6c6f77616e63652062656c6f77604482015264207a65726f60d81b6064820152608401610c85565b6118fa82868684036126e8565b506001949350505050565b600054610100900460ff16158080156119255750600054600160ff909116105b8061194657506119343061336f565b158015611946575060005460ff166001145b6119a95760405162461bcd60e51b815260206004820152602e60248201527f496e697469616c697a61626c653a20636f6e747261637420697320616c72656160448201526d191e481a5b9a5d1a585b1a5e995960921b6064820152608401610c85565b6000805460ff1916600117905580156119cc576000805461ff0019166101001790555b6119d784848461337e565b8015611a1d576000805461ff0019169055604051600181527f7f26b83ff96e1f2b6a682f133852f6798a09c465da95921460cefb38474024989060200160405180910390a15b50505050565b600080611a2e6126c6565b9050610b5f818585612880565b611a4361340c565b611a4b612a24565b61029754811115611a5b57600080fd5b61029754611a699082613468565b61029755611a778282613474565b611168600161025c55565b6000611a8d836134e5565b90506000611a9b8284613533565b90506001600160a01b038116611b025760405162461bcd60e51b815260206004820152602660248201527f4b5242546f6b656e3a20696e76616c6964207369676e6174757265206164647260448201526565737328302960d01b6064820152608401610c85565b846001600160a01b0316816001600160a01b0316146110c85760405162461bcd60e51b815260206004820152603860248201527f4b5242546f6b656e3a207265636f76657265642061646472657373206469666660448201527732b93990333937b69032bc3832b1ba32b21039b4b3b732b960411b6064820152608401610c85565b6000610aaf82613557565b60606000611b9c83611b84565b6000818152610298602052604081205491925060ff90911690816005811115611bc757611bc7614dc4565b1415611bf05750506040805180820190915260048152634e6f6e6560e01b602082015292915050565b6001816005811115611c0457611c04614dc4565b1415611c2f575050604080518082019091526006815265125cdcdd595960d21b602082015292915050565b6002816005811115611c4357611c43614dc4565b1415611c70575050604080518082019091526008815267111a5cdc1d5d195960c21b602082015292915050565b6003816005811115611c8457611c84614dc4565b1415611cb057505060408051808201909152600781526614995d9bdad95960ca1b602082015292915050565b6004816005811115611cc457611cc4614dc4565b1415611cf257505060408051808201909152600981526814dd5cdc195b99195960ba1b602082015292915050565b6005816005811115611d0657611d06614dc4565b1415611d32575050604080518082019091526007815266115e1c1a5c995960ca1b602082015292915050565b505060408051808201909152600581526422b93937b960d91b602082015292915050565b6000818152609760205260408120610aaf9061364b565b6000611d776126c6565b6001600160a01b03168360600151602001516001600160a01b031614611daf5760405162461bcd60e51b8152600401610c85906155c6565b6000611dba84611b84565b905060016000828152610298602052604090205460ff166005811115611de257611de2614dc4565b14611dff5760405162461bcd60e51b8152600401610c8590615576565b6000818152610298602052604090819020805460ff19166003179055517f09e41d39f5fbe80f71bc2f0a44e937a0ee3dff62dd07f191a8a461a339891a039061151290839086906155ad565b6000611e556126c6565b6001600160a01b03168360600151602001516001600160a01b031614611e8d5760405162461bcd60e51b8152600401610c85906155c6565b6000611e9884611b84565b905060016000828152610298602052604090205460ff166005811115611ec057611ec0614dc4565b14611edd5760405162461bcd60e51b8152600401610c8590615576565b6000818152610298602052604090819020805460ff19166004179055517f78a24d70a605e5984bdf7233d4f5e3f53c63bda44f9caa9803b2ccabae03364390611f2990839086906155ad565b60405180910390a16000611f3f6012600a615442565b856080015160e00151611f529190615451565b90506000611f6b82876080015160c0015160ff16612e78565b9050611f7f86606001516020015183612d70565b611f9186606001516020015183612fb5565b61159e86608001516020015182612e87565b611fcf7f8f4f2da22e8ac8f11e15f9fc141cddbb5deea8800186560abb6e68c5496619a96107936126c6565b6120305760405162461bcd60e51b815260206004820152602c60248201527f4368696c644d696e7461626c6545524332303a20494e53554646494349454e5460448201526b5f5045524d495353494f4e5360a01b6064820152608401610c85565b600061203e82840184614852565b9050611a1d8482612fb5565b60008281526065602052604090206001015461206581613070565b6110648383613120565b6001600160a01b03918216600090815260ca6020908152604080832093909416825291909152205490565b60006120b6600080516020615e7c8339815191526107936126c6565b806120e157506120c46126c6565b6001600160a01b03168360800151602001516001600160a01b0316145b6120fd5760405162461bcd60e51b8152600401610c8590615520565b610292543410156121715760405162461bcd60e51b815260206004820152603860248201527f4b5242546f6b656e3a206d73672e76616c7565206d7573742062652067726561604482015277746572207468616e206d696e5072696365546f497373756560401b6064820152608401610c85565b610293543411156121e25760405162461bcd60e51b815260206004820152603560248201527f4b5242546f6b656e3a206d73672e76616c7565206d757374206265206c657373604482015274207468616e206d61785072696365546f497373756560581b6064820152608401610c85565b34836080015161010001511461225d5760405162461bcd60e51b815260206004820152603a60248201527f4b5242546f6b656e3a206d73672e76616c756520646f6573206e6f74206d617460448201527963682063726564656e7469616c5375626a6563742e707269636560301b6064820152608401610c85565b600061226884611b84565b905061228584606001516020015161227f86613557565b85611a82565b61228e84612a8a565b6000818152610298602052604081205460ff1660058111156122b2576122b2614dc4565b146123205760405162461bcd60e51b815260206004820152603860248201527f4b5242546f6b656e3a2056657269666961626c652043726564656e7469616c206044820152771a185cda08185b1c9958591e481899595b881a5cdcdd595960421b6064820152608401610c85565b610291546123358560600151602001516113fb565b10156123995760405162461bcd60e51b815260206004820152602d60248201527f4b5242546f6b656e3a2069737375657220646f6573206e6f742068617665206560448201526c6e6f7567682062616c616e636560981b6064820152608401610c85565b60006123a76012600a615442565b856080015160e001516123ba9190615451565b90506102945481101580156123d25750610295548111155b6124505760405162461bcd60e51b815260206004820152604360248201527f4b5242546f6b656e3a207374616b65206d757374206265206265747765656e2060448201527f6d696e5374616b65546f497373756520616e64206d61785374616b65546f497360648201526273756560e81b608482015260a401610c85565b61246285606001516020015182612e87565b60608501516020908101516001600160a01b0316600090815261029990915260409020546124909082613655565b6060860180516020908101516001600160a01b0390811660009081526102998352604080822095909555925182015193518581529316927f5dac0c1b1112564a045ba943c9d50270893e8e826c49be8e7073adc713ab7bd7910160405180910390a3604080518082019091528060018152600060209182018190528481526102989091526040902081518154829060ff1916600183600581111561253657612536614dc4565b0217905550602082015181600101559050507fb4323e298f3a82d5cf939b5e4ed408526ed5f8ebe42169c54ec2b667a85e1bc9828660405161257992919061524b565b60405180910390a1600061259882876080015160c0015160ff16612e78565b90506125ac86608001516020015182612fb5565b6125be86606001516020015182612fb5565b60006125e06125d98860800151610100015161029654613661565b606461366d565b6060880151602001519091506125ff906125fa3484613468565b613474565b6102975461260d9082613655565b610297555060019695505050505050565b610229546040516371d4ed8d60e11b81526000916001600160a01b03169063e3a9db1a90612650908590600401614e5f565b602060405180830381865afa15801561266d573d6000803e3d6000fd5b505050506040513d601f19601f82011682018060405250810190610aaf9190615611565b60006001600160e01b03198216637965db0b60e01b1480610aaf57506301ffc9a760e01b6001600160e01b0319831614610aaf565b60006126d1336113e6565b156126e3575060131936013560601c90565b503390565b6001600160a01b03831661274a5760405162461bcd60e51b8152602060048201526024808201527f45524332303a20617070726f76652066726f6d20746865207a65726f206164646044820152637265737360e01b6064820152608401610c85565b6001600160a01b0382166127ab5760405162461bcd60e51b815260206004820152602260248201527f45524332303a20617070726f766520746f20746865207a65726f206164647265604482015261737360f01b6064820152608401610c85565b6001600160a01b03838116600081815260ca602090815260408083209487168084529482529182902085905590518481527f8c5be1e5ebec7d5bd14f71427d1e84f3dd0314c0f7b2291e5b200ac8c7c3b925910160405180910390a3505050565b6000612818848461206f565b90506000198114611a1d57818110156128735760405162461bcd60e51b815260206004820152601d60248201527f45524332303a20696e73756666696369656e7420616c6c6f77616e63650000006044820152606401610c85565b611a1d84848484036126e8565b6001600160a01b0383166128e45760405162461bcd60e51b815260206004820152602560248201527f45524332303a207472616e736665722066726f6d20746865207a65726f206164604482015264647265737360d81b6064820152608401610c85565b6001600160a01b0382166129465760405162461bcd60e51b815260206004820152602360248201527f45524332303a207472616e7366657220746f20746865207a65726f206164647260448201526265737360e81b6064820152608401610c85565b612951838383613679565b6001600160a01b038316600090815260c96020526040902054818110156129c95760405162461bcd60e51b815260206004820152602660248201527f45524332303a207472616e7366657220616d6f756e7420657863656564732062604482015265616c616e636560d01b6064820152608401610c85565b6001600160a01b03808516600081815260c960205260408082208686039055928616808252908390208054860190559151600080516020615ee383398151915290612a179086815260200190565b60405180910390a3611a1d565b612a3e600080516020615e7c8339815191526107936126c6565b61126e5760405162461bcd60e51b815260206004820152601f60248201527f4b5242546f6b656e3a206d757374206861766520676f7665726e20726f6c65006044820152606401610c85565b6060810151602001516001600160a01b0316612ae85760405162461bcd60e51b815260206004820152601c60248201527f4b5242546f6b656e3a20626164206973737565722061646472657373000000006044820152606401610c85565b6080810151602001516001600160a01b0316612b565760405162461bcd60e51b815260206004820152602760248201527f4b5242546f6b656e3a206261642063726564656e7469616c5375626a656374206044820152666164647265737360c81b6064820152608401610c85565b608081015151604051612b6c91906020016147ad565b60408051601f198184030181529082905280516020918201206060840151519092612b9792016147ad565b604051602081830303815290604052805190602001201415612c195760405162461bcd60e51b815260206004820152603560248201527f4b5242546f6b656e3a2069737375657220444944206973207468652073616d6560448201527408185cc818dc9959195b9d1a585b14dd589a9958dd605a1b6064820152608401610c85565b8060800151602001516001600160a01b03168160600151602001516001600160a01b03161415612cad5760405162461bcd60e51b815260206004820152603960248201527f4b5242546f6b656e3a20697373756572206164647265737320697320746865206044820152781cd85b5948185cc818dc9959195b9d1a585b14dd589a9958dd603a1b6064820152608401610c85565b806080015161012001514211612d185760405162461bcd60e51b815260206004820152602a60248201527f4b5242546f6b656e3a2056432069737375616e63654461746520697320696e206044820152697468652066757475726560b01b6064820152608401610c85565b80608001516101400151421061103c5760405162461bcd60e51b815260206004820181905260248201527f4b5242546f6b656e3a2056432068617320616c726561647920657870697265646044820152606401610c85565b6001600160a01b038216612dd95760405162461bcd60e51b815260206004820152602a60248201527f4b5242546f6b656e3a206275726e207374616b652066726f6d20746865207a65604482015269726f206164647265737360b01b6064820152608401610c85565b6001600160a01b038216600090815261029960205260409020548111611168576001600160a01b03821660009081526102996020526040902054612e1d9082613468565b6001600160a01b038316600081815261029960205260408082209390935591517f5dac0c1b1112564a045ba943c9d50270893e8e826c49be8e7073adc713ab7bd790612e6c9085815260200190565b60405180910390a35050565b6000610b926125d98484613661565b6001600160a01b038216612ee75760405162461bcd60e51b815260206004820152602160248201527f45524332303a206275726e2066726f6d20746865207a65726f206164647265736044820152607360f81b6064820152608401610c85565b612ef382600083613679565b6001600160a01b038216600090815260c9602052604090205481811015612f675760405162461bcd60e51b815260206004820152602260248201527f45524332303a206275726e20616d6f756e7420657863656564732062616c616e604482015261636560f01b6064820152608401610c85565b6001600160a01b038316600081815260c960209081526040808320868603905560cb8054879003905551858152919291600080516020615ee3833981519152910160405180910390a3505050565b6001600160a01b03821661300b5760405162461bcd60e51b815260206004820152601f60248201527f45524332303a206d696e7420746f20746865207a65726f2061646472657373006044820152606401610c85565b61301760008383613679565b8060cb60008282546130299190615508565b90915550506001600160a01b038216600081815260c96020908152604080832080548601905551848152600080516020615ee3833981519152910160405180910390a35050565b61103c8161307c6126c6565b6137f3565b61308b828261384c565b600082815260976020526040902061106490826138d3565b60006110d97f8b73c3c69bb8fe3d512ecc4cf759cc79239f7b179b0ffacaa9a75d522b39400f6130d36101915490565b610192546040805160208101859052908101839052606081018290524660808201523060a082015260009060c0016040516020818303038152906040528051906020012090509392505050565b61312a82826138e8565b6000828152609760205260409020611064908261396d565b600080516020615e9c833981519152546001600160a01b031690565b61103c612a24565b7f4910fdfa16fed3260ed0e7147f7cc6da11a60208b5b9406d12a635614ffd91435460ff16156131995761106483613982565b826001600160a01b03166352d1902d6040518163ffffffff1660e01b8152600401602060405180830381865afa9250505080156131f3575060408051601f3d908101601f191682019092526131f091810190615611565b60015b6132565760405162461bcd60e51b815260206004820152602e60248201527f45524331393637557067726164653a206e657720696d706c656d656e7461746960448201526d6f6e206973206e6f74205555505360901b6064820152608401610c85565b600080516020615e9c83398151915281146132c55760405162461bcd60e51b815260206004820152602960248201527f45524331393637557067726164653a20756e737570706f727465642070726f786044820152681a58589b195555525160ba1b6064820152608401610c85565b50611064838383613a1c565b6132d9613a41565b61012d805460ff191690557f5db9ee0a495bf2e6ff9c91a7834c1ba4fdd244a5e8aa4e537bd38aeae4b073aa61330d6126c6565b60405161331a9190614e5f565b60405180910390a1565b61332c613a8b565b61012d805460ff191660011790557f62e78cea01bee320cd4e420270b5ea74000d11b0c9f74754ebdbfc544b05a25861330d6126c6565b6000610b928383613ad2565b6001600160a01b03163b151590565b600054610100900460ff166133a55760405162461bcd60e51b8152600401610c859061562a565b6133ad613afc565b6133b5613afc565b6133bd613afc565b6133c5613afc565b6133cf8383613b23565b6133d7613afc565b6133df613b71565b6133e7613afc565b6133f18382613ba5565b6133f9613be8565b613401613ca3565b611064838383613cca565b600261025c5414156134605760405162461bcd60e51b815260206004820152601f60248201527f5265656e7472616e637947756172643a207265656e7472616e742063616c6c006044820152606401610c85565b600261025c55565b6000610b928284615675565b6102295460405163f340fa0160e01b81526001600160a01b039091169063f340fa019083906134a7908690600401614e5f565b6000604051808303818588803b1580156134c057600080fd5b505af11580156134d4573d6000803e3d6000fd5b50505050505050565b600161025c55565b6000610aaf6134f26130a3565b8360405161190160f01b6020820152602281018390526042810182905260009060620160405160208183030381529060405280519060200120905092915050565b60008060006135428585613dc4565b9150915061354f81613e0a565b509392505050565b60007f63c4847aa3662952b34b8f76f3abc371c24535ee34fce5b3df34d029db924d4e60001b8260000151805190602001208360200151805190602001208460400151805190602001206135ae8660600151613f53565b6135bb8760800151613fac565b6135c88860a001516140a5565b60c0890151805160209182012060e08b015180519083012060405161362e9a9998979695949301988952602089019790975260408801959095526060870193909352608086019190915260a085015260c084015260e08301526101008201526101200190565b604051602081830303815290604052805190602001209050919050565b6000610aaf825490565b6000610b928284615508565b6000610b928284615451565b6000610b92828461568c565b6136848383836140fb565b61369e600080516020615e7c8339815191526107936126c6565b806136b057506001600160a01b038316155b806136c257506001600160a01b038216155b806136d8575061028f546136d5846113fb565b10155b61373a5760405162461bcd60e51b815260206004820152602d60248201527f4b5242546f6b656e3a2073656e64657220646f6573206e6f742068617665206560448201526c6e6f7567682062616c616e636560981b6064820152608401610c85565b613754600080516020615e7c8339815191526107936126c6565b8061376657506001600160a01b038316155b8061377857506001600160a01b038216155b8061378e57506102905461378b836113fb565b10155b6110645760405162461bcd60e51b815260206004820152603060248201527f4b5242546f6b656e3a20726563697069656e7420646f6573206e6f742068617660448201526f6520656e6f7567682062616c616e636560801b6064820152608401610c85565b6137fd8282611828565b6111685761380a81614162565b613815836020614174565b6040516020016138269291906156ae565b60408051601f198184030181529082905262461bcd60e51b8252610c85916004016147ad565b6138568282611828565b6111685760008281526065602090815260408083206001600160a01b03851684529091529020805460ff1916600117905561388f6126c6565b6001600160a01b0316816001600160a01b0316837f2f8788117e7eff1d82e926ec794901d17c78024a50270940304540a733656f0d60405160405180910390a45050565b6000610b92836001600160a01b03841661430f565b6138f28282611828565b156111685760008281526065602090815260408083206001600160a01b03851684529091529020805460ff191690556139296126c6565b6001600160a01b0316816001600160a01b0316837ff6391f5c32d9c69d2a47ea670b442974b53935d1edc7fd64eb21e047a839171b60405160405180910390a45050565b6000610b92836001600160a01b03841661435e565b61398b8161336f565b6139ed5760405162461bcd60e51b815260206004820152602d60248201527f455243313936373a206e657720696d706c656d656e746174696f6e206973206e60448201526c1bdd08184818dbdb9d1c9858dd609a1b6064820152608401610c85565b600080516020615e9c83398151915280546001600160a01b0319166001600160a01b0392909216919091179055565b613a2583614451565b600082511180613a325750805b1561106457611a1d8383614491565b61012d5460ff1661126e5760405162461bcd60e51b815260206004820152601460248201527314185d5cd8589b194e881b9bdd081c185d5cd95960621b6044820152606401610c85565b61012d5460ff161561126e5760405162461bcd60e51b815260206004820152601060248201526f14185d5cd8589b194e881c185d5cd95960821b6044820152606401610c85565b6000826000018281548110613ae957613ae961571d565b9060005260206000200154905092915050565b600054610100900460ff1661126e5760405162461bcd60e51b8152600401610c859061562a565b600054610100900460ff16613b4a5760405162461bcd60e51b8152600401610c859061562a565b8151613b5d9060cc906020850190614685565b5080516110649060cd906020840190614685565b600054610100900460ff16613b985760405162461bcd60e51b8152600401610c859061562a565b61012d805460ff19169055565b600054610100900460ff16613bcc5760405162461bcd60e51b8152600401610c859061562a565b8151602092830120815191909201206101919190915561019255565b600054610100900460ff16613c0f5760405162461bcd60e51b8152600401610c859061562a565b604051613c1b90614709565b604051809103906000f080158015613c37573d6000803e3d6000fd5b5061022980546001600160a01b0319166001600160a01b039290921691821790556040805163204a7f0760e21b81529051638129fc1c9160048082019260009290919082900301818387803b158015613c8f57600080fd5b505af1158015611a1d573d6000803e3d6000fd5b600054610100900460ff166134dd5760405162461bcd60e51b8152600401610c859061562a565b600054610100900460ff16613cf15760405162461bcd60e51b8152600401610c859061562a565b613d036000613cfe6126c6565b614583565b613d1d600080516020615e7c833981519152613cfe6126c6565b613d296012600a615442565b613d34906064615451565b61028f55613d446012600a615442565b613d4f906064615451565b61029055600a610296556012613d6690600a615442565b613d71906064615451565b61029155600061029255683635c9adc5dea0000061029355613d956012600a615442565b613da0906001615451565b61029455613db06012600a615442565b613dbb90600a615451565b61029555505050565b600080825160411415613dfb5760208301516040840151606085015160001a613def8782858561458d565b94509450505050613e03565b506000905060025b9250929050565b6000816004811115613e1e57613e1e614dc4565b1415613e275750565b6001816004811115613e3b57613e3b614dc4565b1415613e845760405162461bcd60e51b815260206004820152601860248201527745434453413a20696e76616c6964207369676e617475726560401b6044820152606401610c85565b6002816004811115613e9857613e98614dc4565b1415613ee65760405162461bcd60e51b815260206004820152601f60248201527f45434453413a20696e76616c6964207369676e6174757265206c656e677468006044820152606401610c85565b6003816004811115613efa57613efa614dc4565b141561103c5760405162461bcd60e51b815260206004820152602260248201527f45434453413a20696e76616c6964207369676e6174757265202773272076616c604482015261756560f01b6064820152608401610c85565b8051805160209182012081830151604080517fabb691e6e52ceb1ff8b3df91dc14323057e88efa3252486ed994fd62706cdfaa948101949094528301919091526001600160a01b0316606082015260009060800161362e565b60007f4b87db6c5998f503ac6519b5a7d74efcf2a230368deeaf54dd8bf078da459ff760001b82600001518051906020012083602001518460400151805190602001208560600151805190602001208660800151805190602001208760a00151805190602001208860c001518960e001518a61010001518b61012001518c610140015160405160200161362e9c9b9a999897969594939291909b8c5260208c019a909a526001600160a01b039890981660408b015260608a0196909652608089019490945260a088019290925260c087015260ff1660e08601526101008501526101208401526101408301526101608201526101800190565b8051805160209182012081830151805190830120604080517f1a58b7c56676b62343f37f4f3603a07ae6dd78bea300689bcefef0f9498c6cc994810194909452830191909152606082015260009060800161362e565b61012d5460ff16156110645760405162461bcd60e51b815260206004820152602a60248201527f45524332305061757361626c653a20746f6b656e207472616e736665722077686044820152691a5b19481c185d5cd95960b21b6064820152608401610c85565b6060610aaf6001600160a01b03831660145b60606000614183836002615451565b61418e906002615508565b6001600160401b038111156141a5576141a561486b565b6040519080825280601f01601f1916602001820160405280156141cf576020820181803683370190505b509050600360fc1b816000815181106141ea576141ea61571d565b60200101906001600160f81b031916908160001a905350600f60fb1b816001815181106142195761421961571d565b60200101906001600160f81b031916908160001a905350600061423d846002615451565b614248906001615508565b90505b60018111156142c0576f181899199a1a9b1b9c1cb0b131b232b360811b85600f166010811061427c5761427c61571d565b1a60f81b8282815181106142925761429261571d565b60200101906001600160f81b031916908160001a90535060049490941c936142b981615733565b905061424b565b508315610b925760405162461bcd60e51b815260206004820181905260248201527f537472696e67733a20686578206c656e67746820696e73756666696369656e746044820152606401610c85565b600081815260018301602052604081205461435657508154600181810184556000848152602080822090930184905584548482528286019093526040902091909155610aaf565b506000610aaf565b60008181526001830160205260408120548015614447576000614382600183615675565b855490915060009061439690600190615675565b90508181146143fb5760008660000182815481106143b6576143b661571d565b90600052602060002001549050808760000184815481106143d9576143d961571d565b6000918252602080832090910192909255918252600188019052604090208390555b855486908061440c5761440c61574a565b600190038181906000526020600020016000905590558560010160008681526020019081526020016000206000905560019350505050610aaf565b6000915050610aaf565b61445a81613982565b6040516001600160a01b038216907fbc7cd75a20ee27fd9adebab32041f755214dbc6bffa90cc0225b39da2e5c2d3b90600090a250565b606061449c8361336f565b6144f75760405162461bcd60e51b815260206004820152602660248201527f416464726573733a2064656c65676174652063616c6c20746f206e6f6e2d636f6044820152651b9d1c9858dd60d21b6064820152608401610c85565b600080846001600160a01b0316846040516145129190615760565b600060405180830381855af49150503d806000811461454d576040519150601f19603f3d011682016040523d82523d6000602084013e614552565b606091505b509150915061457a8282604051806060016040528060278152602001615ebc60279139614647565b95945050505050565b6111688282613081565b6000806fa2a8918ca85bafe22016d0b997e4df60600160ff1b038311156145ba575060009050600361463e565b6040805160008082526020820180845289905260ff881692820192909252606081018690526080810185905260019060a0016020604051602081039080840390855afa15801561460e573d6000803e3d6000fd5b5050604051601f1901519150506001600160a01b0381166146375760006001925092505061463e565b9150600090505b94509492505050565b60608315614656575081610b92565b610b92838381511561466b5781518083602001fd5b8060405162461bcd60e51b8152600401610c8591906147ad565b828054614691906150cc565b90600052602060002090601f0160209004810192826146b357600085556146f9565b82601f106146cc57805160ff19168380011785556146f9565b828001600101855582156146f9579182015b828111156146f95782518255916020019190600101906146de565b50614705929150614716565b5090565b6106ff8061577d83390190565b5b808211156147055760008155600101614717565b60006020828403121561473d57600080fd5b81356001600160e01b031981168114610b9257600080fd5b60005b83811015614770578181015183820152602001614758565b83811115611a1d5750506000910152565b60008151808452614799816020860160208601614755565b601f01601f19169290920160200192915050565b602081526000610b926020830184614781565b6001600160a01b038116811461103c57600080fd5b80356147e0816147c0565b919050565b600080604083850312156147f857600080fd5b8235614803816147c0565b946020939093013593505050565b60008060006060848603121561482657600080fd5b8335614831816147c0565b92506020840135614841816147c0565b929592945050506040919091013590565b60006020828403121561486457600080fd5b5035919050565b634e487b7160e01b600052604160045260246000fd5b604080519081016001600160401b03811182821017156148a3576148a361486b565b60405290565b60405161016081016001600160401b03811182821017156148a3576148a361486b565b60405161010081016001600160401b03811182821017156148a3576148a361486b565b600082601f83011261490057600080fd5b81356001600160401b038082111561491a5761491a61486b565b604051601f8301601f19908116603f011681019082821181831017156149425761494261486b565b8160405283815286602085880101111561495b57600080fd5b836020870160208301376000602085830101528094505050505092915050565b60006040828403121561498d57600080fd5b614995614881565b905081356001600160401b038111156149ad57600080fd5b6149b9848285016148ef565b82525060208201356149ca816147c0565b602082015292915050565b803560ff811681146147e057600080fd5b600061016082840312156149f957600080fd5b614a016148a9565b905081356001600160401b0380821115614a1a57600080fd5b614a26858386016148ef565b8352614a34602085016147d5565b60208401526040840135915080821115614a4d57600080fd5b614a59858386016148ef565b60408401526060840135915080821115614a7257600080fd5b614a7e858386016148ef565b60608401526080840135915080821115614a9757600080fd5b614aa3858386016148ef565b608084015260a0840135915080821115614abc57600080fd5b50614ac9848285016148ef565b60a083015250614adb60c083016149d5565b60c082015260e082013560e082015261010080830135818301525061012080830135818301525061014080830135818301525092915050565b600060408284031215614b2657600080fd5b614b2e614881565b905081356001600160401b0380821115614b4757600080fd5b614b53858386016148ef565b83526020840135915080821115614b6957600080fd5b50614b76848285016148ef565b60208301525092915050565b60006101008284031215614b9557600080fd5b614b9d6148cc565b905081356001600160401b0380821115614bb657600080fd5b614bc2858386016148ef565b83526020840135915080821115614bd857600080fd5b614be4858386016148ef565b60208401526040840135915080821115614bfd57600080fd5b614c09858386016148ef565b60408401526060840135915080821115614c2257600080fd5b614c2e8583860161497b565b60608401526080840135915080821115614c4757600080fd5b614c53858386016149e6565b608084015260a0840135915080821115614c6c57600080fd5b614c7885838601614b14565b60a084015260c0840135915080821115614c9157600080fd5b614c9d858386016148ef565b60c084015260e0840135915080821115614cb657600080fd5b50614cc3848285016148ef565b60e08301525092915050565b60008060408385031215614ce257600080fd5b82356001600160401b0380821115614cf957600080fd5b614d0586838701614b82565b93506020850135915080821115614d1b57600080fd5b50614d2885828601614b82565b9150509250929050565b60008060408385031215614d4557600080fd5b823591506020830135614d57816147c0565b809150509250929050565b600060208284031215614d7457600080fd5b8135610b92816147c0565b60008060408385031215614d9257600080fd5b8235614d9d816147c0565b915060208301356001600160401b03811115614db857600080fd5b614d28858286016148ef565b634e487b7160e01b600052602160045260246000fd5b6040810160068410614dfc57634e487b7160e01b600052602160045260246000fd5b9281526020015290565b60008060408385031215614e1957600080fd5b82356001600160401b0380821115614e3057600080fd5b614e3c86838701614b82565b93506020850135915080821115614e5257600080fd5b50614d28858286016148ef565b6001600160a01b0391909116815260200190565b600060208284031215614e8557600080fd5b81356001600160401b03811115614e9b57600080fd5b614ea784828501614b82565b949350505050565b60008060008060008060008060006101208a8c031215614ece57600080fd5b8935985060208a0135975060408a0135965060608a0135955060808a0135945060a08a0135935060c08a0135925060e08a013591506101008a0135614f12816147c0565b809150509295985092959850929598565b60008060408385031215614f3657600080fd5b50508035926020909101359150565b600080600060608486031215614f5a57600080fd5b83356001600160401b0380821115614f7157600080fd5b614f7d878388016148ef565b94506020860135915080821115614f9357600080fd5b614f9f878388016148ef565b93506040860135915080821115614fb557600080fd5b50614fc2868287016148ef565b9150509250925092565b600080600060608486031215614fe157600080fd5b8335614fec816147c0565b92506020840135915060408401356001600160401b0381111561500e57600080fd5b614fc2868287016148ef565b60008060006040848603121561502f57600080fd5b833561503a816147c0565b925060208401356001600160401b038082111561505657600080fd5b818601915086601f83011261506a57600080fd5b81358181111561507957600080fd5b87602082850101111561508b57600080fd5b6020830194508093505050509250925092565b600080604083850312156150b157600080fd5b82356150bc816147c0565b91506020830135614d57816147c0565b600181811c908216806150e057607f821691505b6020821081141561510157634e487b7160e01b600052602260045260246000fd5b50919050565b600081516040845261511c6040850182614781565b6020938401516001600160a01b0316949093019390935250919050565b6000610160825181855261514f82860182614781565b915050602083015161516c60208601826001600160a01b03169052565b50604083015184820360408601526151848282614781565b9150506060830151848203606086015261519e8282614781565b915050608083015184820360808601526151b88282614781565b91505060a083015184820360a08601526151d28282614781565b91505060c08301516151e960c086018260ff169052565b5060e08381015190850152610100808401519085015261012080840151908501526101409283015192909301919091525090565b60008151604084526152326040850182614781565b90506020830151848203602086015261457a8282614781565b8281526040602082015260008251610100806040850152615270610140850183614781565b91506020850151603f198086850301606087015261528e8483614781565b935060408701519150808685030160808701526152ab8483614781565b935060608701519150808685030160a08701526152c88483615107565b935060808701519150808685030160c08701526152e58483615139565b935060a08701519150808685030160e0870152615302848361521d565b935060c0870151915080868503018387015261531e8483614781565b935060e087015192508086850301610120870152505061533e8282614781565b9695505050505050565b634e487b7160e01b600052601160045260246000fd5b600181815b8085111561539957816000190482111561537f5761537f615348565b8085161561538c57918102915b93841c9390800290615363565b509250929050565b6000826153b057506001610aaf565b816153bd57506000610aaf565b81600181146153d357600281146153dd576153f9565b6001915050610aaf565b60ff8411156153ee576153ee615348565b50506001821b610aaf565b5060208310610133831016604e8410600b841016171561541c575081810a610aaf565b615426838361535e565b806000190482111561543a5761543a615348565b029392505050565b6000610b9260ff8416836153a1565b600081600019048311821515161561546b5761546b615348565b500290565b6020808252602c908201527f46756e6374696f6e206d7573742062652063616c6c6564207468726f7567682060408201526b19195b1959d85d1958d85b1b60a21b606082015260800190565b6020808252602c908201527f46756e6374696f6e206d7573742062652063616c6c6564207468726f7567682060408201526b6163746976652070726f787960a01b606082015260800190565b6000821982111561551b5761551b615348565b500190565b60208082526036908201527f4b5242546f6b656e3a2073656e646572206d757374206265207468652063726560408201527564656e7469616c5375626a656374206164647265737360501b606082015260800190565b6020808252601d908201527f4b5242546f6b656e3a207374617465206973206e6f7420497373756564000000604082015260600190565b828152604060208201526000614ea76040830184614781565b6020808252602b908201527f4b5242546f6b656e3a2073656e646572206d757374206265207468652069737360408201526a756572206164647265737360a81b606082015260800190565b60006020828403121561562357600080fd5b5051919050565b6020808252602b908201527f496e697469616c697a61626c653a20636f6e7472616374206973206e6f74206960408201526a6e697469616c697a696e6760a81b606082015260800190565b60008282101561568757615687615348565b500390565b6000826156a957634e487b7160e01b600052601260045260246000fd5b500490565b76020b1b1b2b9b9a1b7b73a3937b61d1030b1b1b7bab73a1604d1b8152600083516156e0816017850160208801614755565b7001034b99036b4b9b9b4b733903937b6329607d1b6017918401918201528351615711816028840160208801614755565b01602801949350505050565b634e487b7160e01b600052603260045260246000fd5b60008161574257615742615348565b506000190190565b634e487b7160e01b600052603160045260246000fd5b60008251615772818460208701614755565b919091019291505056fe608060405234801561001057600080fd5b506106df806100206000396000f3fe6080604052600436106100605760003560e01c806351cff8d914610065578063715018a6146100875780638129fc1c1461009c5780638da5cb5b146100b1578063e3a9db1a146100de578063f2fde38b14610122578063f340fa0114610142575b600080fd5b34801561007157600080fd5b50610085610080366004610614565b610155565b005b34801561009357600080fd5b506100856101cc565b3480156100a857600080fd5b506100856101e0565b3480156100bd57600080fd5b506033546040516001600160a01b0390911681526020015b60405180910390f35b3480156100ea57600080fd5b506101146100f9366004610614565b6001600160a01b031660009081526065602052604090205490565b6040519081526020016100d5565b34801561012e57600080fd5b5061008561013d366004610614565b6102f6565b610085610150366004610614565b61036c565b61015d6103de565b6001600160a01b03811660008181526065602052604081208054919055906101859082610438565b816001600160a01b03167f7084f5476618d8e60b11ef0d7d3f06914655adb8793e28ff7f018d4c76d505d5826040516101c091815260200190565b60405180910390a25050565b6101d46103de565b6101de6000610553565b565b600054610100900460ff16158080156102005750600054600160ff909116105b8061021a5750303b15801561021a575060005460ff166001145b6102825760405162461bcd60e51b815260206004820152602e60248201527f496e697469616c697a61626c653a20636f6e747261637420697320616c72656160448201526d191e481a5b9a5d1a585b1a5e995960921b60648201526084015b60405180910390fd5b6000805460ff1916600117905580156102a5576000805461ff0019166101001790555b6102ad6105a5565b80156102f3576000805461ff0019169055604051600181527f7f26b83ff96e1f2b6a682f133852f6798a09c465da95921460cefb38474024989060200160405180910390a15b50565b6102fe6103de565b6001600160a01b0381166103635760405162461bcd60e51b815260206004820152602660248201527f4f776e61626c653a206e6577206f776e657220697320746865207a65726f206160448201526564647265737360d01b6064820152608401610279565b6102f381610553565b6103746103de565b6001600160a01b03811660009081526065602052604081208054349283929161039e908490610638565b90915550506040518181526001600160a01b038316907f2da466a7b24304f47e87fa2e1e5a81b9831ce54fec19055ce277ca2f39ba42c4906020016101c0565b6033546001600160a01b031633146101de5760405162461bcd60e51b815260206004820181905260248201527f4f776e61626c653a2063616c6c6572206973206e6f7420746865206f776e65726044820152606401610279565b804710156104885760405162461bcd60e51b815260206004820152601d60248201527f416464726573733a20696e73756666696369656e742062616c616e63650000006044820152606401610279565b6000826001600160a01b03168260405160006040518083038185875af1925050503d80600081146104d5576040519150601f19603f3d011682016040523d82523d6000602084013e6104da565b606091505b505090508061054e5760405162461bcd60e51b815260206004820152603a60248201527f416464726573733a20756e61626c6520746f2073656e642076616c75652c20726044820152791958da5c1a595b9d081b585e481a185d99481c995d995c9d195960321b6064820152608401610279565b505050565b603380546001600160a01b038381166001600160a01b0319831681179093556040519116919082907f8be0079c531659141344cd1fd0a4f28419497f9722a3daafe3b4186f6b6457e090600090a35050565b600054610100900460ff166105cc5760405162461bcd60e51b81526004016102799061065e565b6101de600054610100900460ff166105f65760405162461bcd60e51b81526004016102799061065e565b6101de33610553565b6001600160a01b03811681146102f357600080fd5b60006020828403121561062657600080fd5b8135610631816105ff565b9392505050565b6000821982111561065957634e487b7160e01b600052601160045260246000fd5b500190565b6020808252602b908201527f496e697469616c697a61626c653a20636f6e7472616374206973206e6f74206960408201526a6e697469616c697a696e6760a81b60608201526080019056fea26469706673582212202c8271a2cea9abdeb9f1af907d388d181a93436d618e97c9dd7d87f028602e6b64736f6c634300080c0033899bd46557473cb80307a9dabc297131ced39608330a2d29b2d52b660c03923e360894a13ba1a3210667c828492db98dca3e2076cc3735a920a3ca505d382bbc416464726573733a206c6f772d6c6576656c2064656c65676174652063616c6c206661696c6564ddf252ad1be2c89b69c2b068fc378daa952ba7f163c4a11628f55a4df523b3efa26469706673582212208672fcd1ef0dff987e69f7aa9eaf279277207014bc9d0631da5754e948857b0564736f6c634300080c0033",
  "deployedBytecode": "0x60806040526004361061030d5760003560e01c80638456cb5911610197578063af4e720d116100ed578063d547741f11610090578063d547741f146109bb578063dd62ed3e146109db578063de5785d5146109fb578063de9d2b1c14610a12578063dec9cafe14610a29578063e2982c2114610a3c578063e5a2b28e14610a5c578063ee2b1b4d14610a7357600080fd5b8063af4e720d146108c4578063b25dd4fc146108db578063bcd68993146108fb578063c0d506d61461091b578063ca15c8731461093b578063ca2a8cfc1461095b578063ce556f9d1461097b578063cf2c52cb1461099b57600080fd5b80638456cb5914610703578063888bb7b5146107185780638993a3e5146107385780639010d07c1461075857806391d148541461077857806395d89b41146107985780639c70287c146107ad578063a001ecdd146107cd578063a217fddf146107e4578063a3b0b5a3146107f9578063a457c2d71461082d578063a6487c531461084d578063a775aabd1461086d578063a9059cbb14610884578063ad3b1b47146108a457600080fd5b80633659cfe61161026757806352d1902d1161020a57806352d1902d146105de578063572b6c05146105f35780635893253c146106135780635c975abb1461065c57806370a0823114610675578063716f4d901461069557806379cc6790146106b55780637da0a877146106d557600080fd5b80633659cfe6146104fd57806338b7f4461461051d578063395093511461053f5780633f4ba83a1461055f57806340c10f1914610574578063426233601461059457806342966c681461044a5780634f1ef286146105cb57600080fd5b806301ffc9a71461031257806306fdde031461034757806307a0d7981461036957806307a772921461038e578063095ea7b3146103a557806318160ddd146103c557806323b872dd146103da578063248a9ca3146103fa5780632a401e811461042a5780632e1a7d4d1461044a5780632f2ff15d1461046c578063313ce5671461048c57806331b3eb94146104a85780633644e515146104c857806336568abe146104dd575b600080fd5b34801561031e57600080fd5b5061033261032d36600461472b565b610a8a565b60405190151581526020015b60405180910390f35b34801561035357600080fd5b5061035c610ab5565b60405161033e91906147ad565b34801561037557600080fd5b506103806102955481565b60405190815260200161033e565b34801561039a57600080fd5b506103806102905481565b3480156103b157600080fd5b506103326103c03660046147e5565b610b47565b3480156103d157600080fd5b5060cb54610380565b3480156103e657600080fd5b506103326103f5366004614811565b610b69565b34801561040657600080fd5b50610380610415366004614852565b60009081526065602052604090206001015490565b34801561043657600080fd5b50610332610445366004614ccf565b610b99565b34801561045657600080fd5b5061046a610465366004614852565b61102b565b005b34801561047857600080fd5b5061046a610487366004614d32565b61103f565b34801561049857600080fd5b506040516012815260200161033e565b3480156104b457600080fd5b5061046a6104c3366004614d62565b611069565b3480156104d457600080fd5b506103806110cf565b3480156104e957600080fd5b5061046a6104f8366004614d32565b6110de565b34801561050957600080fd5b5061046a610518366004614d62565b61116c565b34801561052957600080fd5b50610380600080516020615e7c83398151915281565b34801561054b57600080fd5b5061033261055a3660046147e5565b611232565b34801561056b57600080fd5b5061046a61125e565b34801561058057600080fd5b5061046a61058f3660046147e5565b611270565b3480156105a057600080fd5b506103806105af366004614d62565b6001600160a01b03166000908152610299602052604090205490565b61046a6105d9366004614d7f565b611282565b3480156105ea57600080fd5b50610380611338565b3480156105ff57600080fd5b5061033261060e366004614d62565b6113e6565b34801561061f57600080fd5b5061064e61062e366004614852565b610298602052600090815260409020805460019091015460ff9091169082565b60405161033e929190614dda565b34801561066857600080fd5b5061012d5460ff16610332565b34801561068157600080fd5b50610380610690366004614d62565b6113fb565b3480156106a157600080fd5b506103326106b0366004614e06565b611416565b3480156106c157600080fd5b5061046a6106d03660046147e5565b6115aa565b3480156106e157600080fd5b5061028e546106f6906001600160a01b031681565b60405161033e9190614e5f565b34801561070f57600080fd5b5061046a6115c6565b34801561072457600080fd5b50610332610733366004614e73565b6115d6565b34801561074457600080fd5b5061046a610753366004614eaf565b61169c565b34801561076457600080fd5b506106f6610773366004614f23565b611810565b34801561078457600080fd5b50610332610793366004614d32565b611828565b3480156107a457600080fd5b5061035c611853565b3480156107b957600080fd5b5061046a6107c83660046147e5565b611862565b3480156107d957600080fd5b506103806102965481565b3480156107f057600080fd5b50610380600081565b34801561080557600080fd5b506103807f8f4f2da22e8ac8f11e15f9fc141cddbb5deea8800186560abb6e68c5496619a981565b34801561083957600080fd5b506103326108483660046147e5565b611874565b34801561085957600080fd5b5061046a610868366004614f45565b611905565b34801561087957600080fd5b506103806102935481565b34801561089057600080fd5b5061033261089f3660046147e5565b611a23565b3480156108b057600080fd5b5061046a6108bf3660046147e5565b611a3b565b3480156108d057600080fd5b506103806102915481565b3480156108e757600080fd5b5061046a6108f6366004614fcc565b611a82565b34801561090757600080fd5b50610380610916366004614e73565b611b84565b34801561092757600080fd5b5061035c610936366004614e73565b611b8f565b34801561094757600080fd5b50610380610956366004614852565b611d56565b34801561096757600080fd5b50610332610976366004614e06565b611d6d565b34801561098757600080fd5b50610332610996366004614e06565b611e4b565b3480156109a757600080fd5b5061046a6109b636600461501a565b611fa3565b3480156109c757600080fd5b5061046a6109d6366004614d32565b61204a565b3480156109e757600080fd5b506103806109f636600461509e565b61206f565b348015610a0757600080fd5b506103806102975481565b348015610a1e57600080fd5b506103806102945481565b610332610a37366004614e06565b61209a565b348015610a4857600080fd5b50610380610a57366004614d62565b61261e565b348015610a6857600080fd5b5061038061028f5481565b348015610a7f57600080fd5b506103806102925481565b60006001600160e01b03198216635a05180f60e01b1480610aaf5750610aaf82612691565b92915050565b606060cc8054610ac4906150cc565b80601f0160208091040260200160405190810160405280929190818152602001828054610af0906150cc565b8015610b3d5780601f10610b1257610100808354040283529160200191610b3d565b820191906000526020600020905b815481529060010190602001808311610b2057829003601f168201915b5050505050905090565b600080610b526126c6565b9050610b5f8185856126e8565b5060019392505050565b600080610b746126c6565b9050610b8185828561280c565b610b8c858585612880565b60019150505b9392505050565b6000610ba3612a24565b604051602001610bd890602080825260119082015270111a5cdc1d5d1950dc9959195b9d1a585b607a1b604082015260600190565b60405160208183030381529060405280519060200120826080015160400151604051602001610c0791906147ad565b6040516020818303038152906040528051906020012014610c8e5760405162461bcd60e51b815260206004820152603660248201527f4b5242546f6b656e3a206469737075746520636c61696d2074797065206d75736044820152751d08189948111a5cdc1d5d1950dc9959195b9d1a585b60521b60648201526084015b60405180910390fd5b610c966126c6565b6001600160a01b03168260600151602001516001600160a01b031614610d125760405162461bcd60e51b815260206004820152602b60248201527f4b5242546f6b656e3a20697373756572206d7573742062652074686520476f7660448201526a65726e206164647265737360a81b6064820152608401610c85565b8260400151604051602001610d2791906147ad565b60408051601f198184030181529082905280516020918201206080850151519092610d5292016147ad565b6040516020818303038152906040528051906020012014610ddb5760405162461bcd60e51b815260206004820152603c60248201527f4b5242546f6b656e3a206469737075746556432063726564656e7469616c537560448201527f626a6563742069642064696666657265732066726f6d205643206964000000006064820152608401610c85565b610de482612a8a565b6000610def84611b84565b9050600080828152610298602052604090205460ff166005811115610e1657610e16614dc4565b14158015610e48575060026000828152610298602052604090205460ff166005811115610e4557610e45614dc4565b14155b610ea05760405162461bcd60e51b815260206004820152602360248201527f4b5242546f6b656e3a20564320737461746520616c72656164792064697370756044820152621d195960ea1b6064820152608401610c85565b6000610eab84611b84565b60008381526102986020908152604091829020805460ff1916600217815560010183905581518581529081018390529192507f7a5b7de3bc82f24e3a2ec84fdd3d22a2611adff3df42e2917470dc204f0eb0a4910160405180910390a16000818152610298602052604090819020805460ff19166001179055517fb4323e298f3a82d5cf939b5e4ed408526ed5f8ebe42169c54ec2b667a85e1bc990610f54908390879061524b565b60405180910390a16000610f6a6012600a615442565b866080015160e00151610f7d9190615451565b9050610f9186606001516020015182612d70565b6000610fa882886080015160c0015160ff16612e78565b9050610fbc87608001516020015182612e87565b610fce87606001516020015182612e87565b6000610fdc6012600a615442565b876080015160e00151610fef9190615451565b9050600061100882896080015160c0015160ff16612e78565b905061101c88608001516020015182612fb5565b50600198975050505050505050565b61103c6110366126c6565b82612e87565b50565b60008281526065602052604090206001015461105a81613070565b6110648383613081565b505050565b610229546040516351cff8d960e01b81526001600160a01b03909116906351cff8d99061109a908490600401614e5f565b600060405180830381600087803b1580156110b457600080fd5b505af11580156110c8573d6000803e3d6000fd5b5050505050565b60006110d96130a3565b905090565b6110e66126c6565b6001600160a01b0316816001600160a01b03161461115e5760405162461bcd60e51b815260206004820152602f60248201527f416363657373436f6e74726f6c3a2063616e206f6e6c792072656e6f756e636560448201526e103937b632b9903337b91039b2b63360891b6064820152608401610c85565b6111688282613120565b5050565b306001600160a01b037f00000000000000000000000000000000000000000000000000000000000000001614156111b55760405162461bcd60e51b8152600401610c8590615470565b7f00000000000000000000000000000000000000000000000000000000000000006001600160a01b03166111e7613142565b6001600160a01b03161461120d5760405162461bcd60e51b8152600401610c85906154bc565b6112168161315e565b6040805160008082526020820190925261103c91839190613166565b60008061123d6126c6565b9050610b5f81858561124f858961206f565b6112599190615508565b6126e8565b611266612a24565b61126e6132d1565b565b611278612a24565b6111688282612fb5565b306001600160a01b037f00000000000000000000000000000000000000000000000000000000000000001614156112cb5760405162461bcd60e51b8152600401610c8590615470565b7f00000000000000000000000000000000000000000000000000000000000000006001600160a01b03166112fd613142565b6001600160a01b0316146113235760405162461bcd60e51b8152600401610c85906154bc565b61132c8261315e565b61116882826001613166565b6000306001600160a01b037f000000000000000000000000000000000000000000000000000000000000000016146113d35760405162461bcd60e51b815260206004820152603860248201527f555550535570677261646561626c653a206d757374206e6f742062652063616c6044820152771b1959081d1a1c9bdd59da0819195b1959d85d1958d85b1b60421b6064820152608401610c85565b50600080516020615e9c83398151915290565b61028e546001600160a01b0391821691161490565b6001600160a01b0316600090815260c9602052604090205490565b6000611432600080516020615e7c8339815191526107936126c6565b8061145d57506114406126c6565b6001600160a01b03168360800151602001516001600160a01b0316145b6114795760405162461bcd60e51b8152600401610c8590615520565b600061148484611b84565b905060016000828152610298602052604090205460ff1660058111156114ac576114ac614dc4565b146114c95760405162461bcd60e51b8152600401610c8590615576565b6000818152610298602052604090819020805460ff19169055517f9033e030b285e24d878a56c0809910a4fbc2c14bc876c3060bfdefc4f21ea68c9061151290839086906155ad565b60405180910390a160006115286012600a615442565b856080015160e0015161153b9190615451565b9050600061155482876080015160c0015160ff16612e78565b905061156886606001516020015183612d70565b61157a86606001516020015183612fb5565b61158c86608001516020015182612e87565b61159e86606001516020015182612e87565b50600195945050505050565b6115bc826115b66126c6565b8361280c565b6111688282612e87565b6115ce612a24565b61126e613324565b6000806115e283611b84565b90508260800151610140015142111561168c5760006116036012600a615442565b846080015160e001516116169190615451565b905061162a84606001516020015182612d70565b61163c84606001516020015182612fb5565b60008281526102986020908152604091829020805460ff1916600517905590518381527ff80dbaea4785589e52984ca36a31de106adc77759539a5c7d92883bf49692fe9910160405180910390a1505b5050608001516101400151421190565b6116a4612a24565b61028f899055610290889055610291879055610296869055848410156117325760405162461bcd60e51b815260206004820152603f60248201527f4b5242546f6b656e3a206e65774d61785072696365206d75737420626520677260448201527f6561746572206f7220657175616c207468616e206e65774d696e5072696365006064820152608401610c85565b610292859055610293849055828210156117b45760405162461bcd60e51b815260206004820152603f60248201527f4b5242546f6b656e3a206e65774d61785374616b65206d75737420626520677260448201527f6561746572206f7220657175616c207468616e206e65774d696e5374616b65006064820152608401610c85565b61029483905561029582905561028e80546001600160a01b0319166001600160a01b0383161790556040517ff2e795d4a33ae9a0d3282888375b8ae781ea4de1cbf101ac96150aa95ccff0b490600090a1505050505050505050565b6000828152609760205260408120610b929083613363565b60009182526065602090815260408084206001600160a01b0393909316845291905290205460ff1690565b606060cd8054610ac4906150cc565b61186a612a24565b6111688282612d70565b60008061187f6126c6565b9050600061188d828661206f565b9050838110156118ed5760405162461bcd60e51b815260206004820152602560248201527f45524332303a2064656372656173656420616c6c6f77616e63652062656c6f77604482015264207a65726f60d81b6064820152608401610c85565b6118fa82868684036126e8565b506001949350505050565b600054610100900460ff16158080156119255750600054600160ff909116105b8061194657506119343061336f565b158015611946575060005460ff166001145b6119a95760405162461bcd60e51b815260206004820152602e60248201527f496e697469616c697a61626c653a20636f6e747261637420697320616c72656160448201526d191e481a5b9a5d1a585b1a5e995960921b6064820152608401610c85565b6000805460ff1916600117905580156119cc576000805461ff0019166101001790555b6119d784848461337e565b8015611a1d576000805461ff0019169055604051600181527f7f26b83ff96e1f2b6a682f133852f6798a09c465da95921460cefb38474024989060200160405180910390a15b50505050565b600080611a2e6126c6565b9050610b5f818585612880565b611a4361340c565b611a4b612a24565b61029754811115611a5b57600080fd5b61029754611a699082613468565b61029755611a778282613474565b611168600161025c55565b6000611a8d836134e5565b90506000611a9b8284613533565b90506001600160a01b038116611b025760405162461bcd60e51b815260206004820152602660248201527f4b5242546f6b656e3a20696e76616c6964207369676e6174757265206164647260448201526565737328302960d01b6064820152608401610c85565b846001600160a01b0316816001600160a01b0316146110c85760405162461bcd60e51b815260206004820152603860248201527f4b5242546f6b656e3a207265636f76657265642061646472657373206469666660448201527732b93990333937b69032bc3832b1ba32b21039b4b3b732b960411b6064820152608401610c85565b6000610aaf82613557565b60606000611b9c83611b84565b6000818152610298602052604081205491925060ff90911690816005811115611bc757611bc7614dc4565b1415611bf05750506040805180820190915260048152634e6f6e6560e01b602082015292915050565b6001816005811115611c0457611c04614dc4565b1415611c2f575050604080518082019091526006815265125cdcdd595960d21b602082015292915050565b6002816005811115611c4357611c43614dc4565b1415611c70575050604080518082019091526008815267111a5cdc1d5d195960c21b602082015292915050565b6003816005811115611c8457611c84614dc4565b1415611cb057505060408051808201909152600781526614995d9bdad95960ca1b602082015292915050565b6004816005811115611cc457611cc4614dc4565b1415611cf257505060408051808201909152600981526814dd5cdc195b99195960ba1b602082015292915050565b6005816005811115611d0657611d06614dc4565b1415611d32575050604080518082019091526007815266115e1c1a5c995960ca1b602082015292915050565b505060408051808201909152600581526422b93937b960d91b602082015292915050565b6000818152609760205260408120610aaf9061364b565b6000611d776126c6565b6001600160a01b03168360600151602001516001600160a01b031614611daf5760405162461bcd60e51b8152600401610c85906155c6565b6000611dba84611b84565b905060016000828152610298602052604090205460ff166005811115611de257611de2614dc4565b14611dff5760405162461bcd60e51b8152600401610c8590615576565b6000818152610298602052604090819020805460ff19166003179055517f09e41d39f5fbe80f71bc2f0a44e937a0ee3dff62dd07f191a8a461a339891a039061151290839086906155ad565b6000611e556126c6565b6001600160a01b03168360600151602001516001600160a01b031614611e8d5760405162461bcd60e51b8152600401610c85906155c6565b6000611e9884611b84565b905060016000828152610298602052604090205460ff166005811115611ec057611ec0614dc4565b14611edd5760405162461bcd60e51b8152600401610c8590615576565b6000818152610298602052604090819020805460ff19166004179055517f78a24d70a605e5984bdf7233d4f5e3f53c63bda44f9caa9803b2ccabae03364390611f2990839086906155ad565b60405180910390a16000611f3f6012600a615442565b856080015160e00151611f529190615451565b90506000611f6b82876080015160c0015160ff16612e78565b9050611f7f86606001516020015183612d70565b611f9186606001516020015183612fb5565b61159e86608001516020015182612e87565b611fcf7f8f4f2da22e8ac8f11e15f9fc141cddbb5deea8800186560abb6e68c5496619a96107936126c6565b6120305760405162461bcd60e51b815260206004820152602c60248201527f4368696c644d696e7461626c6545524332303a20494e53554646494349454e5460448201526b5f5045524d495353494f4e5360a01b6064820152608401610c85565b600061203e82840184614852565b9050611a1d8482612fb5565b60008281526065602052604090206001015461206581613070565b6110648383613120565b6001600160a01b03918216600090815260ca6020908152604080832093909416825291909152205490565b60006120b6600080516020615e7c8339815191526107936126c6565b806120e157506120c46126c6565b6001600160a01b03168360800151602001516001600160a01b0316145b6120fd5760405162461bcd60e51b8152600401610c8590615520565b610292543410156121715760405162461bcd60e51b815260206004820152603860248201527f4b5242546f6b656e3a206d73672e76616c7565206d7573742062652067726561604482015277746572207468616e206d696e5072696365546f497373756560401b6064820152608401610c85565b610293543411156121e25760405162461bcd60e51b815260206004820152603560248201527f4b5242546f6b656e3a206d73672e76616c7565206d757374206265206c657373604482015274207468616e206d61785072696365546f497373756560581b6064820152608401610c85565b34836080015161010001511461225d5760405162461bcd60e51b815260206004820152603a60248201527f4b5242546f6b656e3a206d73672e76616c756520646f6573206e6f74206d617460448201527963682063726564656e7469616c5375626a6563742e707269636560301b6064820152608401610c85565b600061226884611b84565b905061228584606001516020015161227f86613557565b85611a82565b61228e84612a8a565b6000818152610298602052604081205460ff1660058111156122b2576122b2614dc4565b146123205760405162461bcd60e51b815260206004820152603860248201527f4b5242546f6b656e3a2056657269666961626c652043726564656e7469616c206044820152771a185cda08185b1c9958591e481899595b881a5cdcdd595960421b6064820152608401610c85565b610291546123358560600151602001516113fb565b10156123995760405162461bcd60e51b815260206004820152602d60248201527f4b5242546f6b656e3a2069737375657220646f6573206e6f742068617665206560448201526c6e6f7567682062616c616e636560981b6064820152608401610c85565b60006123a76012600a615442565b856080015160e001516123ba9190615451565b90506102945481101580156123d25750610295548111155b6124505760405162461bcd60e51b815260206004820152604360248201527f4b5242546f6b656e3a207374616b65206d757374206265206265747765656e2060448201527f6d696e5374616b65546f497373756520616e64206d61785374616b65546f497360648201526273756560e81b608482015260a401610c85565b61246285606001516020015182612e87565b60608501516020908101516001600160a01b0316600090815261029990915260409020546124909082613655565b6060860180516020908101516001600160a01b0390811660009081526102998352604080822095909555925182015193518581529316927f5dac0c1b1112564a045ba943c9d50270893e8e826c49be8e7073adc713ab7bd7910160405180910390a3604080518082019091528060018152600060209182018190528481526102989091526040902081518154829060ff1916600183600581111561253657612536614dc4565b0217905550602082015181600101559050507fb4323e298f3a82d5cf939b5e4ed408526ed5f8ebe42169c54ec2b667a85e1bc9828660405161257992919061524b565b60405180910390a1600061259882876080015160c0015160ff16612e78565b90506125ac86608001516020015182612fb5565b6125be86606001516020015182612fb5565b60006125e06125d98860800151610100015161029654613661565b606461366d565b6060880151602001519091506125ff906125fa3484613468565b613474565b6102975461260d9082613655565b610297555060019695505050505050565b610229546040516371d4ed8d60e11b81526000916001600160a01b03169063e3a9db1a90612650908590600401614e5f565b602060405180830381865afa15801561266d573d6000803e3d6000fd5b505050506040513d601f19601f82011682018060405250810190610aaf9190615611565b60006001600160e01b03198216637965db0b60e01b1480610aaf57506301ffc9a760e01b6001600160e01b0319831614610aaf565b60006126d1336113e6565b156126e3575060131936013560601c90565b503390565b6001600160a01b03831661274a5760405162461bcd60e51b8152602060048201526024808201527f45524332303a20617070726f76652066726f6d20746865207a65726f206164646044820152637265737360e01b6064820152608401610c85565b6001600160a01b0382166127ab5760405162461bcd60e51b815260206004820152602260248201527f45524332303a20617070726f766520746f20746865207a65726f206164647265604482015261737360f01b6064820152608401610c85565b6001600160a01b03838116600081815260ca602090815260408083209487168084529482529182902085905590518481527f8c5be1e5ebec7d5bd14f71427d1e84f3dd0314c0f7b2291e5b200ac8c7c3b925910160405180910390a3505050565b6000612818848461206f565b90506000198114611a1d57818110156128735760405162461bcd60e51b815260206004820152601d60248201527f45524332303a20696e73756666696369656e7420616c6c6f77616e63650000006044820152606401610c85565b611a1d84848484036126e8565b6001600160a01b0383166128e45760405162461bcd60e51b815260206004820152602560248201527f45524332303a207472616e736665722066726f6d20746865207a65726f206164604482015264647265737360d81b6064820152608401610c85565b6001600160a01b0382166129465760405162461bcd60e51b815260206004820152602360248201527f45524332303a207472616e7366657220746f20746865207a65726f206164647260448201526265737360e81b6064820152608401610c85565b612951838383613679565b6001600160a01b038316600090815260c96020526040902054818110156129c95760405162461bcd60e51b815260206004820152602660248201527f45524332303a207472616e7366657220616d6f756e7420657863656564732062604482015265616c616e636560d01b6064820152608401610c85565b6001600160a01b03808516600081815260c960205260408082208686039055928616808252908390208054860190559151600080516020615ee383398151915290612a179086815260200190565b60405180910390a3611a1d565b612a3e600080516020615e7c8339815191526107936126c6565b61126e5760405162461bcd60e51b815260206004820152601f60248201527f4b5242546f6b656e3a206d757374206861766520676f7665726e20726f6c65006044820152606401610c85565b6060810151602001516001600160a01b0316612ae85760405162461bcd60e51b815260206004820152601c60248201527f4b5242546f6b656e3a20626164206973737565722061646472657373000000006044820152606401610c85565b6080810151602001516001600160a01b0316612b565760405162461bcd60e51b815260206004820152602760248201527f4b5242546f6b656e3a206261642063726564656e7469616c5375626a656374206044820152666164647265737360c81b6064820152608401610c85565b608081015151604051612b6c91906020016147ad565b60408051601f198184030181529082905280516020918201206060840151519092612b9792016147ad565b604051602081830303815290604052805190602001201415612c195760405162461bcd60e51b815260206004820152603560248201527f4b5242546f6b656e3a2069737375657220444944206973207468652073616d6560448201527408185cc818dc9959195b9d1a585b14dd589a9958dd605a1b6064820152608401610c85565b8060800151602001516001600160a01b03168160600151602001516001600160a01b03161415612cad5760405162461bcd60e51b815260206004820152603960248201527f4b5242546f6b656e3a20697373756572206164647265737320697320746865206044820152781cd85b5948185cc818dc9959195b9d1a585b14dd589a9958dd603a1b6064820152608401610c85565b806080015161012001514211612d185760405162461bcd60e51b815260206004820152602a60248201527f4b5242546f6b656e3a2056432069737375616e63654461746520697320696e206044820152697468652066757475726560b01b6064820152608401610c85565b80608001516101400151421061103c5760405162461bcd60e51b815260206004820181905260248201527f4b5242546f6b656e3a2056432068617320616c726561647920657870697265646044820152606401610c85565b6001600160a01b038216612dd95760405162461bcd60e51b815260206004820152602a60248201527f4b5242546f6b656e3a206275726e207374616b652066726f6d20746865207a65604482015269726f206164647265737360b01b6064820152608401610c85565b6001600160a01b038216600090815261029960205260409020548111611168576001600160a01b03821660009081526102996020526040902054612e1d9082613468565b6001600160a01b038316600081815261029960205260408082209390935591517f5dac0c1b1112564a045ba943c9d50270893e8e826c49be8e7073adc713ab7bd790612e6c9085815260200190565b60405180910390a35050565b6000610b926125d98484613661565b6001600160a01b038216612ee75760405162461bcd60e51b815260206004820152602160248201527f45524332303a206275726e2066726f6d20746865207a65726f206164647265736044820152607360f81b6064820152608401610c85565b612ef382600083613679565b6001600160a01b038216600090815260c9602052604090205481811015612f675760405162461bcd60e51b815260206004820152602260248201527f45524332303a206275726e20616d6f756e7420657863656564732062616c616e604482015261636560f01b6064820152608401610c85565b6001600160a01b038316600081815260c960209081526040808320868603905560cb8054879003905551858152919291600080516020615ee3833981519152910160405180910390a3505050565b6001600160a01b03821661300b5760405162461bcd60e51b815260206004820152601f60248201527f45524332303a206d696e7420746f20746865207a65726f2061646472657373006044820152606401610c85565b61301760008383613679565b8060cb60008282546130299190615508565b90915550506001600160a01b038216600081815260c96020908152604080832080548601905551848152600080516020615ee3833981519152910160405180910390a35050565b61103c8161307c6126c6565b6137f3565b61308b828261384c565b600082815260976020526040902061106490826138d3565b60006110d97f8b73c3c69bb8fe3d512ecc4cf759cc79239f7b179b0ffacaa9a75d522b39400f6130d36101915490565b610192546040805160208101859052908101839052606081018290524660808201523060a082015260009060c0016040516020818303038152906040528051906020012090509392505050565b61312a82826138e8565b6000828152609760205260409020611064908261396d565b600080516020615e9c833981519152546001600160a01b031690565b61103c612a24565b7f4910fdfa16fed3260ed0e7147f7cc6da11a60208b5b9406d12a635614ffd91435460ff16156131995761106483613982565b826001600160a01b03166352d1902d6040518163ffffffff1660e01b8152600401602060405180830381865afa9250505080156131f3575060408051601f3d908101601f191682019092526131f091810190615611565b60015b6132565760405162461bcd60e51b815260206004820152602e60248201527f45524331393637557067726164653a206e657720696d706c656d656e7461746960448201526d6f6e206973206e6f74205555505360901b6064820152608401610c85565b600080516020615e9c83398151915281146132c55760405162461bcd60e51b815260206004820152602960248201527f45524331393637557067726164653a20756e737570706f727465642070726f786044820152681a58589b195555525160ba1b6064820152608401610c85565b50611064838383613a1c565b6132d9613a41565b61012d805460ff191690557f5db9ee0a495bf2e6ff9c91a7834c1ba4fdd244a5e8aa4e537bd38aeae4b073aa61330d6126c6565b60405161331a9190614e5f565b60405180910390a1565b61332c613a8b565b61012d805460ff191660011790557f62e78cea01bee320cd4e420270b5ea74000d11b0c9f74754ebdbfc544b05a25861330d6126c6565b6000610b928383613ad2565b6001600160a01b03163b151590565b600054610100900460ff166133a55760405162461bcd60e51b8152600401610c859061562a565b6133ad613afc565b6133b5613afc565b6133bd613afc565b6133c5613afc565b6133cf8383613b23565b6133d7613afc565b6133df613b71565b6133e7613afc565b6133f18382613ba5565b6133f9613be8565b613401613ca3565b611064838383613cca565b600261025c5414156134605760405162461bcd60e51b815260206004820152601f60248201527f5265656e7472616e637947756172643a207265656e7472616e742063616c6c006044820152606401610c85565b600261025c55565b6000610b928284615675565b6102295460405163f340fa0160e01b81526001600160a01b039091169063f340fa019083906134a7908690600401614e5f565b6000604051808303818588803b1580156134c057600080fd5b505af11580156134d4573d6000803e3d6000fd5b50505050505050565b600161025c55565b6000610aaf6134f26130a3565b8360405161190160f01b6020820152602281018390526042810182905260009060620160405160208183030381529060405280519060200120905092915050565b60008060006135428585613dc4565b9150915061354f81613e0a565b509392505050565b60007f63c4847aa3662952b34b8f76f3abc371c24535ee34fce5b3df34d029db924d4e60001b8260000151805190602001208360200151805190602001208460400151805190602001206135ae8660600151613f53565b6135bb8760800151613fac565b6135c88860a001516140a5565b60c0890151805160209182012060e08b015180519083012060405161362e9a9998979695949301988952602089019790975260408801959095526060870193909352608086019190915260a085015260c084015260e08301526101008201526101200190565b604051602081830303815290604052805190602001209050919050565b6000610aaf825490565b6000610b928284615508565b6000610b928284615451565b6000610b92828461568c565b6136848383836140fb565b61369e600080516020615e7c8339815191526107936126c6565b806136b057506001600160a01b038316155b806136c257506001600160a01b038216155b806136d8575061028f546136d5846113fb565b10155b61373a5760405162461bcd60e51b815260206004820152602d60248201527f4b5242546f6b656e3a2073656e64657220646f6573206e6f742068617665206560448201526c6e6f7567682062616c616e636560981b6064820152608401610c85565b613754600080516020615e7c8339815191526107936126c6565b8061376657506001600160a01b038316155b8061377857506001600160a01b038216155b8061378e57506102905461378b836113fb565b10155b6110645760405162461bcd60e51b815260206004820152603060248201527f4b5242546f6b656e3a20726563697069656e7420646f6573206e6f742068617660448201526f6520656e6f7567682062616c616e636560801b6064820152608401610c85565b6137fd8282611828565b6111685761380a81614162565b613815836020614174565b6040516020016138269291906156ae565b60408051601f198184030181529082905262461bcd60e51b8252610c85916004016147ad565b6138568282611828565b6111685760008281526065602090815260408083206001600160a01b03851684529091529020805460ff1916600117905561388f6126c6565b6001600160a01b0316816001600160a01b0316837f2f8788117e7eff1d82e926ec794901d17c78024a50270940304540a733656f0d60405160405180910390a45050565b6000610b92836001600160a01b03841661430f565b6138f28282611828565b156111685760008281526065602090815260408083206001600160a01b03851684529091529020805460ff191690556139296126c6565b6001600160a01b0316816001600160a01b0316837ff6391f5c32d9c69d2a47ea670b442974b53935d1edc7fd64eb21e047a839171b60405160405180910390a45050565b6000610b92836001600160a01b03841661435e565b61398b8161336f565b6139ed5760405162461bcd60e51b815260206004820152602d60248201527f455243313936373a206e657720696d706c656d656e746174696f6e206973206e60448201526c1bdd08184818dbdb9d1c9858dd609a1b6064820152608401610c85565b600080516020615e9c83398151915280546001600160a01b0319166001600160a01b0392909216919091179055565b613a2583614451565b600082511180613a325750805b1561106457611a1d8383614491565b61012d5460ff1661126e5760405162461bcd60e51b815260206004820152601460248201527314185d5cd8589b194e881b9bdd081c185d5cd95960621b6044820152606401610c85565b61012d5460ff161561126e5760405162461bcd60e51b815260206004820152601060248201526f14185d5cd8589b194e881c185d5cd95960821b6044820152606401610c85565b6000826000018281548110613ae957613ae961571d565b9060005260206000200154905092915050565b600054610100900460ff1661126e5760405162461bcd60e51b8152600401610c859061562a565b600054610100900460ff16613b4a5760405162461bcd60e51b8152600401610c859061562a565b8151613b5d9060cc906020850190614685565b5080516110649060cd906020840190614685565b600054610100900460ff16613b985760405162461bcd60e51b8152600401610c859061562a565b61012d805460ff19169055565b600054610100900460ff16613bcc5760405162461bcd60e51b8152600401610c859061562a565b8151602092830120815191909201206101919190915561019255565b600054610100900460ff16613c0f5760405162461bcd60e51b8152600401610c859061562a565b604051613c1b90614709565b604051809103906000f080158015613c37573d6000803e3d6000fd5b5061022980546001600160a01b0319166001600160a01b039290921691821790556040805163204a7f0760e21b81529051638129fc1c9160048082019260009290919082900301818387803b158015613c8f57600080fd5b505af1158015611a1d573d6000803e3d6000fd5b600054610100900460ff166134dd5760405162461bcd60e51b8152600401610c859061562a565b600054610100900460ff16613cf15760405162461bcd60e51b8152600401610c859061562a565b613d036000613cfe6126c6565b614583565b613d1d600080516020615e7c833981519152613cfe6126c6565b613d296012600a615442565b613d34906064615451565b61028f55613d446012600a615442565b613d4f906064615451565b61029055600a610296556012613d6690600a615442565b613d71906064615451565b61029155600061029255683635c9adc5dea0000061029355613d956012600a615442565b613da0906001615451565b61029455613db06012600a615442565b613dbb90600a615451565b61029555505050565b600080825160411415613dfb5760208301516040840151606085015160001a613def8782858561458d565b94509450505050613e03565b506000905060025b9250929050565b6000816004811115613e1e57613e1e614dc4565b1415613e275750565b6001816004811115613e3b57613e3b614dc4565b1415613e845760405162461bcd60e51b815260206004820152601860248201527745434453413a20696e76616c6964207369676e617475726560401b6044820152606401610c85565b6002816004811115613e9857613e98614dc4565b1415613ee65760405162461bcd60e51b815260206004820152601f60248201527f45434453413a20696e76616c6964207369676e6174757265206c656e677468006044820152606401610c85565b6003816004811115613efa57613efa614dc4565b141561103c5760405162461bcd60e51b815260206004820152602260248201527f45434453413a20696e76616c6964207369676e6174757265202773272076616c604482015261756560f01b6064820152608401610c85565b8051805160209182012081830151604080517fabb691e6e52ceb1ff8b3df91dc14323057e88efa3252486ed994fd62706cdfaa948101949094528301919091526001600160a01b0316606082015260009060800161362e565b60007f4b87db6c5998f503ac6519b5a7d74efcf2a230368deeaf54dd8bf078da459ff760001b82600001518051906020012083602001518460400151805190602001208560600151805190602001208660800151805190602001208760a00151805190602001208860c001518960e001518a61010001518b61012001518c610140015160405160200161362e9c9b9a999897969594939291909b8c5260208c019a909a526001600160a01b039890981660408b015260608a0196909652608089019490945260a088019290925260c087015260ff1660e08601526101008501526101208401526101408301526101608201526101800190565b8051805160209182012081830151805190830120604080517f1a58b7c56676b62343f37f4f3603a07ae6dd78bea300689bcefef0f9498c6cc994810194909452830191909152606082015260009060800161362e565b61012d5460ff16156110645760405162461bcd60e51b815260206004820152602a60248201527f45524332305061757361626c653a20746f6b656e207472616e736665722077686044820152691a5b19481c185d5cd95960b21b6064820152608401610c85565b6060610aaf6001600160a01b03831660145b60606000614183836002615451565b61418e906002615508565b6001600160401b038111156141a5576141a561486b565b6040519080825280601f01601f1916602001820160405280156141cf576020820181803683370190505b509050600360fc1b816000815181106141ea576141ea61571d565b60200101906001600160f81b031916908160001a905350600f60fb1b816001815181106142195761421961571d565b60200101906001600160f81b031916908160001a905350600061423d846002615451565b614248906001615508565b90505b60018111156142c0576f181899199a1a9b1b9c1cb0b131b232b360811b85600f166010811061427c5761427c61571d565b1a60f81b8282815181106142925761429261571d565b60200101906001600160f81b031916908160001a90535060049490941c936142b981615733565b905061424b565b508315610b925760405162461bcd60e51b815260206004820181905260248201527f537472696e67733a20686578206c656e67746820696e73756666696369656e746044820152606401610c85565b600081815260018301602052604081205461435657508154600181810184556000848152602080822090930184905584548482528286019093526040902091909155610aaf565b506000610aaf565b60008181526001830160205260408120548015614447576000614382600183615675565b855490915060009061439690600190615675565b90508181146143fb5760008660000182815481106143b6576143b661571d565b90600052602060002001549050808760000184815481106143d9576143d961571d565b6000918252602080832090910192909255918252600188019052604090208390555b855486908061440c5761440c61574a565b600190038181906000526020600020016000905590558560010160008681526020019081526020016000206000905560019350505050610aaf565b6000915050610aaf565b61445a81613982565b6040516001600160a01b038216907fbc7cd75a20ee27fd9adebab32041f755214dbc6bffa90cc0225b39da2e5c2d3b90600090a250565b606061449c8361336f565b6144f75760405162461bcd60e51b815260206004820152602660248201527f416464726573733a2064656c65676174652063616c6c20746f206e6f6e2d636f6044820152651b9d1c9858dd60d21b6064820152608401610c85565b600080846001600160a01b0316846040516145129190615760565b600060405180830381855af49150503d806000811461454d576040519150601f19603f3d011682016040523d82523d6000602084013e614552565b606091505b509150915061457a8282604051806060016040528060278152602001615ebc60279139614647565b95945050505050565b6111688282613081565b6000806fa2a8918ca85bafe22016d0b997e4df60600160ff1b038311156145ba575060009050600361463e565b6040805160008082526020820180845289905260ff881692820192909252606081018690526080810185905260019060a0016020604051602081039080840390855afa15801561460e573d6000803e3d6000fd5b5050604051601f1901519150506001600160a01b0381166146375760006001925092505061463e565b9150600090505b94509492505050565b60608315614656575081610b92565b610b92838381511561466b5781518083602001fd5b8060405162461bcd60e51b8152600401610c8591906147ad565b828054614691906150cc565b90600052602060002090601f0160209004810192826146b357600085556146f9565b82601f106146cc57805160ff19168380011785556146f9565b828001600101855582156146f9579182015b828111156146f95782518255916020019190600101906146de565b50614705929150614716565b5090565b6106ff8061577d83390190565b5b808211156147055760008155600101614717565b60006020828403121561473d57600080fd5b81356001600160e01b031981168114610b9257600080fd5b60005b83811015614770578181015183820152602001614758565b83811115611a1d5750506000910152565b60008151808452614799816020860160208601614755565b601f01601f19169290920160200192915050565b602081526000610b926020830184614781565b6001600160a01b038116811461103c57600080fd5b80356147e0816147c0565b919050565b600080604083850312156147f857600080fd5b8235614803816147c0565b946020939093013593505050565b60008060006060848603121561482657600080fd5b8335614831816147c0565b92506020840135614841816147c0565b929592945050506040919091013590565b60006020828403121561486457600080fd5b5035919050565b634e487b7160e01b600052604160045260246000fd5b604080519081016001600160401b03811182821017156148a3576148a361486b565b60405290565b60405161016081016001600160401b03811182821017156148a3576148a361486b565b60405161010081016001600160401b03811182821017156148a3576148a361486b565b600082601f83011261490057600080fd5b81356001600160401b038082111561491a5761491a61486b565b604051601f8301601f19908116603f011681019082821181831017156149425761494261486b565b8160405283815286602085880101111561495b57600080fd5b836020870160208301376000602085830101528094505050505092915050565b60006040828403121561498d57600080fd5b614995614881565b905081356001600160401b038111156149ad57600080fd5b6149b9848285016148ef565b82525060208201356149ca816147c0565b602082015292915050565b803560ff811681146147e057600080fd5b600061016082840312156149f957600080fd5b614a016148a9565b905081356001600160401b0380821115614a1a57600080fd5b614a26858386016148ef565b8352614a34602085016147d5565b60208401526040840135915080821115614a4d57600080fd5b614a59858386016148ef565b60408401526060840135915080821115614a7257600080fd5b614a7e858386016148ef565b60608401526080840135915080821115614a9757600080fd5b614aa3858386016148ef565b608084015260a0840135915080821115614abc57600080fd5b50614ac9848285016148ef565b60a083015250614adb60c083016149d5565b60c082015260e082013560e082015261010080830135818301525061012080830135818301525061014080830135818301525092915050565b600060408284031215614b2657600080fd5b614b2e614881565b905081356001600160401b0380821115614b4757600080fd5b614b53858386016148ef565b83526020840135915080821115614b6957600080fd5b50614b76848285016148ef565b60208301525092915050565b60006101008284031215614b9557600080fd5b614b9d6148cc565b905081356001600160401b0380821115614bb657600080fd5b614bc2858386016148ef565b83526020840135915080821115614bd857600080fd5b614be4858386016148ef565b60208401526040840135915080821115614bfd57600080fd5b614c09858386016148ef565b60408401526060840135915080821115614c2257600080fd5b614c2e8583860161497b565b60608401526080840135915080821115614c4757600080fd5b614c53858386016149e6565b608084015260a0840135915080821115614c6c57600080fd5b614c7885838601614b14565b60a084015260c0840135915080821115614c9157600080fd5b614c9d858386016148ef565b60c084015260e0840135915080821115614cb657600080fd5b50614cc3848285016148ef565b60e08301525092915050565b60008060408385031215614ce257600080fd5b82356001600160401b0380821115614cf957600080fd5b614d0586838701614b82565b93506020850135915080821115614d1b57600080fd5b50614d2885828601614b82565b9150509250929050565b60008060408385031215614d4557600080fd5b823591506020830135614d57816147c0565b809150509250929050565b600060208284031215614d7457600080fd5b8135610b92816147c0565b60008060408385031215614d9257600080fd5b8235614d9d816147c0565b915060208301356001600160401b03811115614db857600080fd5b614d28858286016148ef565b634e487b7160e01b600052602160045260246000fd5b6040810160068410614dfc57634e487b7160e01b600052602160045260246000fd5b9281526020015290565b60008060408385031215614e1957600080fd5b82356001600160401b0380821115614e3057600080fd5b614e3c86838701614b82565b93506020850135915080821115614e5257600080fd5b50614d28858286016148ef565b6001600160a01b0391909116815260200190565b600060208284031215614e8557600080fd5b81356001600160401b03811115614e9b57600080fd5b614ea784828501614b82565b949350505050565b60008060008060008060008060006101208a8c031215614ece57600080fd5b8935985060208a0135975060408a0135965060608a0135955060808a0135945060a08a0135935060c08a0135925060e08a013591506101008a0135614f12816147c0565b809150509295985092959850929598565b60008060408385031215614f3657600080fd5b50508035926020909101359150565b600080600060608486031215614f5a57600080fd5b83356001600160401b0380821115614f7157600080fd5b614f7d878388016148ef565b94506020860135915080821115614f9357600080fd5b614f9f878388016148ef565b93506040860135915080821115614fb557600080fd5b50614fc2868287016148ef565b9150509250925092565b600080600060608486031215614fe157600080fd5b8335614fec816147c0565b92506020840135915060408401356001600160401b0381111561500e57600080fd5b614fc2868287016148ef565b60008060006040848603121561502f57600080fd5b833561503a816147c0565b925060208401356001600160401b038082111561505657600080fd5b818601915086601f83011261506a57600080fd5b81358181111561507957600080fd5b87602082850101111561508b57600080fd5b6020830194508093505050509250925092565b600080604083850312156150b157600080fd5b82356150bc816147c0565b91506020830135614d57816147c0565b600181811c908216806150e057607f821691505b6020821081141561510157634e487b7160e01b600052602260045260246000fd5b50919050565b600081516040845261511c6040850182614781565b6020938401516001600160a01b0316949093019390935250919050565b6000610160825181855261514f82860182614781565b915050602083015161516c60208601826001600160a01b03169052565b50604083015184820360408601526151848282614781565b9150506060830151848203606086015261519e8282614781565b915050608083015184820360808601526151b88282614781565b91505060a083015184820360a08601526151d28282614781565b91505060c08301516151e960c086018260ff169052565b5060e08381015190850152610100808401519085015261012080840151908501526101409283015192909301919091525090565b60008151604084526152326040850182614781565b90506020830151848203602086015261457a8282614781565b8281526040602082015260008251610100806040850152615270610140850183614781565b91506020850151603f198086850301606087015261528e8483614781565b935060408701519150808685030160808701526152ab8483614781565b935060608701519150808685030160a08701526152c88483615107565b935060808701519150808685030160c08701526152e58483615139565b935060a08701519150808685030160e0870152615302848361521d565b935060c0870151915080868503018387015261531e8483614781565b935060e087015192508086850301610120870152505061533e8282614781565b9695505050505050565b634e487b7160e01b600052601160045260246000fd5b600181815b8085111561539957816000190482111561537f5761537f615348565b8085161561538c57918102915b93841c9390800290615363565b509250929050565b6000826153b057506001610aaf565b816153bd57506000610aaf565b81600181146153d357600281146153dd576153f9565b6001915050610aaf565b60ff8411156153ee576153ee615348565b50506001821b610aaf565b5060208310610133831016604e8410600b841016171561541c575081810a610aaf565b615426838361535e565b806000190482111561543a5761543a615348565b029392505050565b6000610b9260ff8416836153a1565b600081600019048311821515161561546b5761546b615348565b500290565b6020808252602c908201527f46756e6374696f6e206d7573742062652063616c6c6564207468726f7567682060408201526b19195b1959d85d1958d85b1b60a21b606082015260800190565b6020808252602c908201527f46756e6374696f6e206d7573742062652063616c6c6564207468726f7567682060408201526b6163746976652070726f787960a01b606082015260800190565b6000821982111561551b5761551b615348565b500190565b60208082526036908201527f4b5242546f6b656e3a2073656e646572206d757374206265207468652063726560408201527564656e7469616c5375626a656374206164647265737360501b606082015260800190565b6020808252601d908201527f4b5242546f6b656e3a207374617465206973206e6f7420497373756564000000604082015260600190565b828152604060208201526000614ea76040830184614781565b6020808252602b908201527f4b5242546f6b656e3a2073656e646572206d757374206265207468652069737360408201526a756572206164647265737360a81b606082015260800190565b60006020828403121561562357600080fd5b5051919050565b6020808252602b908201527f496e697469616c697a61626c653a20636f6e7472616374206973206e6f74206960408201526a6e697469616c697a696e6760a81b606082015260800190565b60008282101561568757615687615348565b500390565b6000826156a957634e487b7160e01b600052601260045260246000fd5b500490565b76020b1b1b2b9b9a1b7b73a3937b61d1030b1b1b7bab73a1604d1b8152600083516156e0816017850160208801614755565b7001034b99036b4b9b9b4b733903937b6329607d1b6017918401918201528351615711816028840160208801614755565b01602801949350505050565b634e487b7160e01b600052603260045260246000fd5b60008161574257615742615348565b506000190190565b634e487b7160e01b600052603160045260246000fd5b60008251615772818460208701614755565b919091019291505056fe608060405234801561001057600080fd5b506106df806100206000396000f3fe6080604052600436106100605760003560e01c806351cff8d914610065578063715018a6146100875780638129fc1c1461009c5780638da5cb5b146100b1578063e3a9db1a146100de578063f2fde38b14610122578063f340fa0114610142575b600080fd5b34801561007157600080fd5b50610085610080366004610614565b610155565b005b34801561009357600080fd5b506100856101cc565b3480156100a857600080fd5b506100856101e0565b3480156100bd57600080fd5b506033546040516001600160a01b0390911681526020015b60405180910390f35b3480156100ea57600080fd5b506101146100f9366004610614565b6001600160a01b031660009081526065602052604090205490565b6040519081526020016100d5565b34801561012e57600080fd5b5061008561013d366004610614565b6102f6565b610085610150366004610614565b61036c565b61015d6103de565b6001600160a01b03811660008181526065602052604081208054919055906101859082610438565b816001600160a01b03167f7084f5476618d8e60b11ef0d7d3f06914655adb8793e28ff7f018d4c76d505d5826040516101c091815260200190565b60405180910390a25050565b6101d46103de565b6101de6000610553565b565b600054610100900460ff16158080156102005750600054600160ff909116105b8061021a5750303b15801561021a575060005460ff166001145b6102825760405162461bcd60e51b815260206004820152602e60248201527f496e697469616c697a61626c653a20636f6e747261637420697320616c72656160448201526d191e481a5b9a5d1a585b1a5e995960921b60648201526084015b60405180910390fd5b6000805460ff1916600117905580156102a5576000805461ff0019166101001790555b6102ad6105a5565b80156102f3576000805461ff0019169055604051600181527f7f26b83ff96e1f2b6a682f133852f6798a09c465da95921460cefb38474024989060200160405180910390a15b50565b6102fe6103de565b6001600160a01b0381166103635760405162461bcd60e51b815260206004820152602660248201527f4f776e61626c653a206e6577206f776e657220697320746865207a65726f206160448201526564647265737360d01b6064820152608401610279565b6102f381610553565b6103746103de565b6001600160a01b03811660009081526065602052604081208054349283929161039e908490610638565b90915550506040518181526001600160a01b038316907f2da466a7b24304f47e87fa2e1e5a81b9831ce54fec19055ce277ca2f39ba42c4906020016101c0565b6033546001600160a01b031633146101de5760405162461bcd60e51b815260206004820181905260248201527f4f776e61626c653a2063616c6c6572206973206e6f7420746865206f776e65726044820152606401610279565b804710156104885760405162461bcd60e51b815260206004820152601d60248201527f416464726573733a20696e73756666696369656e742062616c616e63650000006044820152606401610279565b6000826001600160a01b03168260405160006040518083038185875af1925050503d80600081146104d5576040519150601f19603f3d011682016040523d82523d6000602084013e6104da565b606091505b505090508061054e5760405162461bcd60e51b815260206004820152603a60248201527f416464726573733a20756e61626c6520746f2073656e642076616c75652c20726044820152791958da5c1a595b9d081b585e481a185d99481c995d995c9d195960321b6064820152608401610279565b505050565b603380546001600160a01b038381166001600160a01b0319831681179093556040519116919082907f8be0079c531659141344cd1fd0a4f28419497f9722a3daafe3b4186f6b6457e090600090a35050565b600054610100900460ff166105cc5760405162461bcd60e51b81526004016102799061065e565b6101de600054610100900460ff166105f65760405162461bcd60e51b81526004016102799061065e565b6101de33610553565b6001600160a01b03811681146102f357600080fd5b60006020828403121561062657600080fd5b8135610631816105ff565b9392505050565b6000821982111561065957634e487b7160e01b600052601160045260246000fd5b500190565b6020808252602b908201527f496e697469616c 697a61626c653a20636f6e7472616374206973206e6f74206960408201526a6e697469616c697a696e6760a81b60608201526080019056fea26469706673582212202c8271a2cea9abdeb9f1af907d388d181a93436d618e97c9dd7d87f028602e6b64736f6c634300080c0033899bd46557473cb80307a9dabc297131ced39608330a2d29b2d52b660c03923e360894a13ba1a3210667c828492db98dca3e2076cc3735a920a3ca505d382bbc416464726573733a206c6f772d6c6576656c2064656c65676174652063616c6c206661696c6564ddf252ad1be2c89b69c2b068fc378daa952ba7f163c4a11628f55a4df523b3efa26469706673582212208672fcd1ef0dff987e69f7aa9eaf279277207014bc9d0631da5754e948857b0564736f6c634300080c0033",
  "linkReferences": {},
  "deployedLinkReferences": {}
}