{
  "_format": "hh-sol-artifact-1",
  "contractName": "KrebitNFT",
  "sourceName": "contracts/KrebitNFT.sol",
  "abi": [
    {
      "inputs": [],
      "stateMutability": "nonpayable",
      "type": "constructor"
    },
    {
      "anonymous": false,
      "inputs": [
        {
          "indexed": false,
          "internalType": "address",
          "name": "previousAdmin",
          "type": "address"
        },
        {
          "indexed": false,
          "internalType": "address",
          "name": "newAdmin",
          "type": "address"
        }
      ],
      "name": "AdminChanged",
      "type": "event"
    },
    {
      "anonymous": false,
      "inputs": [
        {
          "indexed": true,
          "internalType": "address",
          "name": "account",
          "type": "address"
        },
        {
          "indexed": true,
          "internalType": "address",
          "name": "operator",
          "type": "address"
        },
        {
          "indexed": false,
          "internalType": "bool",
          "name": "approved",
          "type": "bool"
        }
      ],
      "name": "ApprovalForAll",
      "type": "event"
    },
    {
      "anonymous": false,
      "inputs": [
        {
          "indexed": true,
          "internalType": "address",
          "name": "beacon",
          "type": "address"
        }
      ],
      "name": "BeaconUpgraded",
      "type": "event"
    },
    {
      "anonymous": false,
      "inputs": [
        {
          "indexed": false,
          "internalType": "uint8",
          "name": "version",
          "type": "uint8"
        }
      ],
      "name": "Initialized",
      "type": "event"
    },
    {
      "anonymous": false,
      "inputs": [
        {
          "indexed": false,
          "internalType": "address",
          "name": "account",
          "type": "address"
        }
      ],
      "name": "Paused",
      "type": "event"
    },
    {
      "anonymous": false,
      "inputs": [
        {
          "indexed": true,
          "internalType": "bytes32",
          "name": "role",
          "type": "bytes32"
        },
        {
          "indexed": true,
          "internalType": "bytes32",
          "name": "previousAdminRole",
          "type": "bytes32"
        },
        {
          "indexed": true,
          "internalType": "bytes32",
          "name": "newAdminRole",
          "type": "bytes32"
        }
      ],
      "name": "RoleAdminChanged",
      "type": "event"
    },
    {
      "anonymous": false,
      "inputs": [
        {
          "indexed": true,
          "internalType": "bytes32",
          "name": "role",
          "type": "bytes32"
        },
        {
          "indexed": true,
          "internalType": "address",
          "name": "account",
          "type": "address"
        },
        {
          "indexed": true,
          "internalType": "address",
          "name": "sender",
          "type": "address"
        }
      ],
      "name": "RoleGranted",
      "type": "event"
    },
    {
      "anonymous": false,
      "inputs": [
        {
          "indexed": true,
          "internalType": "bytes32",
          "name": "role",
          "type": "bytes32"
        },
        {
          "indexed": true,
          "internalType": "address",
          "name": "account",
          "type": "address"
        },
        {
          "indexed": true,
          "internalType": "address",
          "name": "sender",
          "type": "address"
        }
      ],
      "name": "RoleRevoked",
      "type": "event"
    },
    {
      "anonymous": false,
      "inputs": [
        {
          "indexed": true,
          "internalType": "address",
          "name": "operator",
          "type": "address"
        },
        {
          "indexed": true,
          "internalType": "address",
          "name": "from",
          "type": "address"
        },
        {
          "indexed": true,
          "internalType": "address",
          "name": "to",
          "type": "address"
        },
        {
          "indexed": false,
          "internalType": "uint256[]",
          "name": "ids",
          "type": "uint256[]"
        },
        {
          "indexed": false,
          "internalType": "uint256[]",
          "name": "values",
          "type": "uint256[]"
        }
      ],
      "name": "TransferBatch",
      "type": "event"
    },
    {
      "anonymous": false,
      "inputs": [
        {
          "indexed": true,
          "internalType": "address",
          "name": "operator",
          "type": "address"
        },
        {
          "indexed": true,
          "internalType": "address",
          "name": "from",
          "type": "address"
        },
        {
          "indexed": true,
          "internalType": "address",
          "name": "to",
          "type": "address"
        },
        {
          "indexed": false,
          "internalType": "uint256",
          "name": "id",
          "type": "uint256"
        },
        {
          "indexed": false,
          "internalType": "uint256",
          "name": "value",
          "type": "uint256"
        }
      ],
      "name": "TransferSingle",
      "type": "event"
    },
    {
      "anonymous": false,
      "inputs": [
        {
          "indexed": false,
          "internalType": "string",
          "name": "value",
          "type": "string"
        },
        {
          "indexed": true,
          "internalType": "uint256",
          "name": "id",
          "type": "uint256"
        }
      ],
      "name": "URI",
      "type": "event"
    },
    {
      "anonymous": false,
      "inputs": [
        {
          "indexed": false,
          "internalType": "address",
          "name": "account",
          "type": "address"
        }
      ],
      "name": "Unpaused",
      "type": "event"
    },
    {
      "anonymous": false,
      "inputs": [],
      "name": "Updated",
      "type": "event"
    },
    {
      "anonymous": false,
      "inputs": [
        {
          "indexed": true,
          "internalType": "address",
          "name": "implementation",
          "type": "address"
        }
      ],
      "name": "Upgraded",
      "type": "event"
    },
    {
      "inputs": [],
      "name": "DEFAULT_ADMIN_ROLE",
      "outputs": [
        {
          "internalType": "bytes32",
          "name": "",
          "type": "bytes32"
        }
      ],
      "stateMutability": "view",
      "type": "function"
    },
    {
      "inputs": [],
      "name": "DEPOSITOR_ROLE",
      "outputs": [
        {
          "internalType": "bytes32",
          "name": "",
          "type": "bytes32"
        }
      ],
      "stateMutability": "view",
      "type": "function"
    },
    {
      "inputs": [],
      "name": "GOVERN_ROLE",
      "outputs": [
        {
          "internalType": "bytes32",
          "name": "",
          "type": "bytes32"
        }
      ],
      "stateMutability": "view",
      "type": "function"
    },
    {
      "inputs": [
        {
          "internalType": "address",
          "name": "account",
          "type": "address"
        },
        {
          "internalType": "uint256",
          "name": "id",
          "type": "uint256"
        }
      ],
      "name": "balanceOf",
      "outputs": [
        {
          "internalType": "uint256",
          "name": "",
          "type": "uint256"
        }
      ],
      "stateMutability": "view",
      "type": "function"
    },
    {
      "inputs": [
        {
          "internalType": "address[]",
          "name": "accounts",
          "type": "address[]"
        },
        {
          "internalType": "uint256[]",
          "name": "ids",
          "type": "uint256[]"
        }
      ],
      "name": "balanceOfBatch",
      "outputs": [
        {
          "internalType": "uint256[]",
          "name": "",
          "type": "uint256[]"
        }
      ],
      "stateMutability": "view",
      "type": "function"
    },
    {
      "inputs": [
        {
          "internalType": "address",
          "name": "account",
          "type": "address"
        },
        {
          "internalType": "string",
          "name": "credentialSubjectType",
          "type": "string"
        }
      ],
      "name": "balanceOfCredential",
      "outputs": [
        {
          "internalType": "uint256",
          "name": "",
          "type": "uint256"
        }
      ],
      "stateMutability": "view",
      "type": "function"
    },
    {
      "inputs": [
        {
          "internalType": "address",
          "name": "account",
          "type": "address"
        },
        {
          "internalType": "uint256",
          "name": "id",
          "type": "uint256"
        },
        {
          "internalType": "uint256",
          "name": "value",
          "type": "uint256"
        }
      ],
      "name": "burn",
      "outputs": [],
      "stateMutability": "nonpayable",
      "type": "function"
    },
    {
      "inputs": [
        {
          "internalType": "address",
          "name": "account",
          "type": "address"
        },
        {
          "internalType": "uint256[]",
          "name": "ids",
          "type": "uint256[]"
        },
        {
          "internalType": "uint256[]",
          "name": "values",
          "type": "uint256[]"
        }
      ],
      "name": "burnBatch",
      "outputs": [],
      "stateMutability": "nonpayable",
      "type": "function"
    },
    {
      "inputs": [],
      "name": "contractURI",
      "outputs": [
        {
          "internalType": "string",
          "name": "",
          "type": "string"
        }
      ],
      "stateMutability": "view",
      "type": "function"
    },
    {
      "inputs": [
        {
          "internalType": "uint256",
          "name": "",
          "type": "uint256"
        }
      ],
      "name": "credentialMinted",
      "outputs": [
        {
          "internalType": "bool",
          "name": "",
          "type": "bool"
        }
      ],
      "stateMutability": "view",
      "type": "function"
    },
    {
      "inputs": [
        {
          "internalType": "address",
          "name": "user",
          "type": "address"
        },
        {
          "internalType": "bytes",
          "name": "depositData",
          "type": "bytes"
        }
      ],
      "name": "deposit",
      "outputs": [],
      "stateMutability": "nonpayable",
      "type": "function"
    },
    {
      "inputs": [
        {
          "internalType": "uint256",
          "name": "id",
          "type": "uint256"
        }
      ],
      "name": "exists",
      "outputs": [
        {
          "internalType": "bool",
          "name": "",
          "type": "bool"
        }
      ],
      "stateMutability": "view",
      "type": "function"
    },
    {
      "inputs": [],
      "name": "feesAvailableForWithdraw",
      "outputs": [
        {
          "internalType": "uint256",
          "name": "",
          "type": "uint256"
        }
      ],
      "stateMutability": "view",
      "type": "function"
    },
    {
      "inputs": [],
      "name": "forceRegister",
      "outputs": [
        {
          "internalType": "bool",
          "name": "",
          "type": "bool"
        }
      ],
      "stateMutability": "view",
      "type": "function"
    },
    {
      "inputs": [
        {
          "internalType": "bytes32",
          "name": "role",
          "type": "bytes32"
        }
      ],
      "name": "getRoleAdmin",
      "outputs": [
        {
          "internalType": "bytes32",
          "name": "",
          "type": "bytes32"
        }
      ],
      "stateMutability": "view",
      "type": "function"
    },
    {
      "inputs": [
        {
          "internalType": "bytes32",
          "name": "role",
          "type": "bytes32"
        },
        {
          "internalType": "uint256",
          "name": "index",
          "type": "uint256"
        }
      ],
      "name": "getRoleMember",
      "outputs": [
        {
          "internalType": "address",
          "name": "",
          "type": "address"
        }
      ],
      "stateMutability": "view",
      "type": "function"
    },
    {
      "inputs": [
        {
          "internalType": "bytes32",
          "name": "role",
          "type": "bytes32"
        }
      ],
      "name": "getRoleMemberCount",
      "outputs": [
        {
          "internalType": "uint256",
          "name": "",
          "type": "uint256"
        }
      ],
      "stateMutability": "view",
      "type": "function"
    },
    {
      "inputs": [
        {
          "internalType": "string",
          "name": "credentialSubjectType",
          "type": "string"
        }
      ],
      "name": "getTokenId",
      "outputs": [
        {
          "internalType": "uint256",
          "name": "",
          "type": "uint256"
        }
      ],
      "stateMutability": "view",
      "type": "function"
    },
    {
      "inputs": [
        {
          "internalType": "bytes32",
          "name": "role",
          "type": "bytes32"
        },
        {
          "internalType": "address",
          "name": "account",
          "type": "address"
        }
      ],
      "name": "grantRole",
      "outputs": [],
      "stateMutability": "nonpayable",
      "type": "function"
    },
    {
      "inputs": [
        {
          "internalType": "bytes32",
          "name": "role",
          "type": "bytes32"
        },
        {
          "internalType": "address",
          "name": "account",
          "type": "address"
        }
      ],
      "name": "hasRole",
      "outputs": [
        {
          "internalType": "bool",
          "name": "",
          "type": "bool"
        }
      ],
      "stateMutability": "view",
      "type": "function"
    },
    {
      "inputs": [
        {
          "internalType": "string",
          "name": "uri",
          "type": "string"
        },
        {
          "internalType": "string",
          "name": "collectionURI",
          "type": "string"
        },
        {
          "internalType": "uint256",
          "name": "initialPrice",
          "type": "uint256"
        },
        {
          "internalType": "address",
          "name": "krebitAddress",
          "type": "address"
        }
      ],
      "name": "initialize",
      "outputs": [],
      "stateMutability": "nonpayable",
      "type": "function"
    },
    {
      "inputs": [
        {
          "internalType": "address",
          "name": "account",
          "type": "address"
        },
        {
          "internalType": "address",
          "name": "operator",
          "type": "address"
        }
      ],
      "name": "isApprovedForAll",
      "outputs": [
        {
          "internalType": "bool",
          "name": "",
          "type": "bool"
        }
      ],
      "stateMutability": "view",
      "type": "function"
    },
    {
      "inputs": [
        {
          "internalType": "address",
          "name": "forwarder",
          "type": "address"
        }
      ],
      "name": "isTrustedForwarder",
      "outputs": [
        {
          "internalType": "bool",
          "name": "",
          "type": "bool"
        }
      ],
      "stateMutability": "view",
      "type": "function"
    },
    {
      "inputs": [
        {
          "internalType": "address",
          "name": "to",
          "type": "address"
        },
        {
          "internalType": "string",
          "name": "credentialSubjectType",
          "type": "string"
        },
        {
          "components": [
            {
              "internalType": "string",
              "name": "_context",
              "type": "string"
            },
            {
              "internalType": "string",
              "name": "_type",
              "type": "string"
            },
            {
              "internalType": "string",
              "name": "id",
              "type": "string"
            },
            {
              "components": [
                {
                  "internalType": "string",
                  "name": "id",
                  "type": "string"
                },
                {
                  "internalType": "address",
                  "name": "ethereumAddress",
                  "type": "address"
                }
              ],
              "internalType": "struct VCTypes.Issuer",
              "name": "issuer",
              "type": "tuple"
            },
            {
              "components": [
                {
                  "internalType": "string",
                  "name": "id",
                  "type": "string"
                },
                {
                  "internalType": "address",
                  "name": "ethereumAddress",
                  "type": "address"
                },
                {
                  "internalType": "string",
                  "name": "_type",
                  "type": "string"
                },
                {
                  "internalType": "string",
                  "name": "typeSchema",
                  "type": "string"
                },
                {
                  "internalType": "string",
                  "name": "value",
                  "type": "string"
                },
                {
                  "internalType": "string",
                  "name": "encrypted",
                  "type": "string"
                },
                {
                  "internalType": "uint8",
                  "name": "trust",
                  "type": "uint8"
                },
                {
                  "internalType": "uint256",
                  "name": "stake",
                  "type": "uint256"
                },
                {
                  "internalType": "uint256",
                  "name": "price",
                  "type": "uint256"
                },
                {
                  "internalType": "uint256",
                  "name": "nbf",
                  "type": "uint256"
                },
                {
                  "internalType": "uint256",
                  "name": "exp",
                  "type": "uint256"
                }
              ],
              "internalType": "struct VCTypes.CredentialSubject",
              "name": "credentialSubject",
              "type": "tuple"
            },
            {
              "components": [
                {
                  "internalType": "string",
                  "name": "id",
                  "type": "string"
                },
                {
                  "internalType": "string",
                  "name": "_type",
                  "type": "string"
                }
              ],
              "internalType": "struct VCTypes.CredentialSchema",
              "name": "credentialSchema",
              "type": "tuple"
            },
            {
              "internalType": "string",
              "name": "issuanceDate",
              "type": "string"
            },
            {
              "internalType": "string",
              "name": "expirationDate",
              "type": "string"
            }
          ],
          "internalType": "struct VCTypes.VerifiableCredential",
          "name": "vc",
          "type": "tuple"
        },
        {
          "internalType": "bytes",
          "name": "proofValue",
          "type": "bytes"
        },
        {
          "internalType": "bytes",
          "name": "data",
          "type": "bytes"
        }
      ],
      "name": "mintWithCredential",
      "outputs": [],
      "stateMutability": "payable",
      "type": "function"
    },
    {
      "inputs": [],
      "name": "pause",
      "outputs": [],
      "stateMutability": "nonpayable",
      "type": "function"
    },
    {
      "inputs": [],
      "name": "paused",
      "outputs": [
        {
          "internalType": "bool",
          "name": "",
          "type": "bool"
        }
      ],
      "stateMutability": "view",
      "type": "function"
    },
    {
      "inputs": [
        {
          "internalType": "address",
          "name": "dest",
          "type": "address"
        }
      ],
      "name": "payments",
      "outputs": [
        {
          "internalType": "uint256",
          "name": "",
          "type": "uint256"
        }
      ],
      "stateMutability": "view",
      "type": "function"
    },
    {
      "inputs": [],
      "name": "price",
      "outputs": [
        {
          "internalType": "uint256",
          "name": "",
          "type": "uint256"
        }
      ],
      "stateMutability": "view",
      "type": "function"
    },
    {
      "inputs": [],
      "name": "proxiableUUID",
      "outputs": [
        {
          "internalType": "bytes32",
          "name": "",
          "type": "bytes32"
        }
      ],
      "stateMutability": "view",
      "type": "function"
    },
    {
      "inputs": [
        {
          "internalType": "bytes32",
          "name": "role",
          "type": "bytes32"
        },
        {
          "internalType": "address",
          "name": "account",
          "type": "address"
        }
      ],
      "name": "renounceRole",
      "outputs": [],
      "stateMutability": "nonpayable",
      "type": "function"
    },
    {
      "inputs": [
        {
          "internalType": "bytes32",
          "name": "role",
          "type": "bytes32"
        },
        {
          "internalType": "address",
          "name": "account",
          "type": "address"
        }
      ],
      "name": "revokeRole",
      "outputs": [],
      "stateMutability": "nonpayable",
      "type": "function"
    },
    {
      "inputs": [
        {
          "internalType": "address",
          "name": "from",
          "type": "address"
        },
        {
          "internalType": "address",
          "name": "to",
          "type": "address"
        },
        {
          "internalType": "uint256[]",
          "name": "ids",
          "type": "uint256[]"
        },
        {
          "internalType": "uint256[]",
          "name": "amounts",
          "type": "uint256[]"
        },
        {
          "internalType": "bytes",
          "name": "data",
          "type": "bytes"
        }
      ],
      "name": "safeBatchTransferFrom",
      "outputs": [],
      "stateMutability": "nonpayable",
      "type": "function"
    },
    {
      "inputs": [
        {
          "internalType": "address",
          "name": "from",
          "type": "address"
        },
        {
          "internalType": "address",
          "name": "to",
          "type": "address"
        },
        {
          "internalType": "uint256",
          "name": "id",
          "type": "uint256"
        },
        {
          "internalType": "uint256",
          "name": "amount",
          "type": "uint256"
        },
        {
          "internalType": "bytes",
          "name": "data",
          "type": "bytes"
        }
      ],
      "name": "safeTransferFrom",
      "outputs": [],
      "stateMutability": "nonpayable",
      "type": "function"
    },
    {
      "inputs": [
        {
          "internalType": "address",
          "name": "operator",
          "type": "address"
        },
        {
          "internalType": "bool",
          "name": "approved",
          "type": "bool"
        }
      ],
      "name": "setApprovalForAll",
      "outputs": [],
      "stateMutability": "nonpayable",
      "type": "function"
    },
    {
      "inputs": [
        {
          "internalType": "string",
          "name": "newuri",
          "type": "string"
        }
      ],
      "name": "setContractURI",
      "outputs": [],
      "stateMutability": "nonpayable",
      "type": "function"
    },
    {
      "inputs": [
        {
          "internalType": "uint256",
          "name": "newPrice",
          "type": "uint256"
        }
      ],
      "name": "setPrice",
      "outputs": [],
      "stateMutability": "nonpayable",
      "type": "function"
    },
    {
      "inputs": [
        {
          "internalType": "address",
          "name": "newTrustedForwarder",
          "type": "address"
        }
      ],
      "name": "setTrustedForwarder",
      "outputs": [],
      "stateMutability": "nonpayable",
      "type": "function"
    },
    {
      "inputs": [
        {
          "internalType": "string",
          "name": "newuri",
          "type": "string"
        }
      ],
      "name": "setURI",
      "outputs": [],
      "stateMutability": "nonpayable",
      "type": "function"
    },
    {
      "inputs": [
        {
          "internalType": "bool",
          "name": "force",
          "type": "bool"
        }
      ],
      "name": "setforceRegister",
      "outputs": [],
      "stateMutability": "nonpayable",
      "type": "function"
    },
    {
      "inputs": [
        {
          "internalType": "bytes4",
          "name": "interfaceId",
          "type": "bytes4"
        }
      ],
      "name": "supportsInterface",
      "outputs": [
        {
          "internalType": "bool",
          "name": "",
          "type": "bool"
        }
      ],
      "stateMutability": "view",
      "type": "function"
    },
    {
      "inputs": [
        {
          "internalType": "uint256",
          "name": "id",
          "type": "uint256"
        }
      ],
      "name": "totalSupply",
      "outputs": [
        {
          "internalType": "uint256",
          "name": "",
          "type": "uint256"
        }
      ],
      "stateMutability": "view",
      "type": "function"
    },
    {
      "inputs": [],
      "name": "trustedForwarder",
      "outputs": [
        {
          "internalType": "address",
          "name": "",
          "type": "address"
        }
      ],
      "stateMutability": "view",
      "type": "function"
    },
    {
      "inputs": [],
      "name": "unpause",
      "outputs": [],
      "stateMutability": "nonpayable",
      "type": "function"
    },
    {
      "inputs": [
        {
          "internalType": "address",
          "name": "newImplementation",
          "type": "address"
        }
      ],
      "name": "upgradeTo",
      "outputs": [],
      "stateMutability": "nonpayable",
      "type": "function"
    },
    {
      "inputs": [
        {
          "internalType": "address",
          "name": "newImplementation",
          "type": "address"
        },
        {
          "internalType": "bytes",
          "name": "data",
          "type": "bytes"
        }
      ],
      "name": "upgradeToAndCall",
      "outputs": [],
      "stateMutability": "payable",
      "type": "function"
    },
    {
      "inputs": [
        {
          "internalType": "uint256",
          "name": "",
          "type": "uint256"
        }
      ],
      "name": "uri",
      "outputs": [
        {
          "internalType": "string",
          "name": "",
          "type": "string"
        }
      ],
      "stateMutability": "view",
      "type": "function"
    },
    {
      "inputs": [
        {
          "internalType": "uint256[]",
          "name": "ids",
          "type": "uint256[]"
        },
        {
          "internalType": "uint256[]",
          "name": "amounts",
          "type": "uint256[]"
        }
      ],
      "name": "withdrawBatch",
      "outputs": [],
      "stateMutability": "nonpayable",
      "type": "function"
    },
    {
      "inputs": [
        {
          "internalType": "address payable",
          "name": "_to",
          "type": "address"
        },
        {
          "internalType": "uint256",
          "name": "_amount",
          "type": "uint256"
        }
      ],
      "name": "withdrawFees",
      "outputs": [],
      "stateMutability": "nonpayable",
      "type": "function"
    },
    {
      "inputs": [
        {
          "internalType": "address payable",
          "name": "payee",
          "type": "address"
        }
      ],
      "name": "withdrawPayments",
      "outputs": [],
      "stateMutability": "nonpayable",
      "type": "function"
    },
    {
      "inputs": [
        {
          "internalType": "uint256",
          "name": "id",
          "type": "uint256"
        },
        {
          "internalType": "uint256",
          "name": "amount",
          "type": "uint256"
        }
      ],
      "name": "withdrawSingle",
      "outputs": [],
      "stateMutability": "nonpayable",
      "type": "function"
    }
  ],
  "bytecode": "0x60a0604052306080523480156200001557600080fd5b506200002062000026565b620000e8565b600054610100900460ff1615620000935760405162461bcd60e51b815260206004820152602760248201527f496e697469616c697a61626c653a20636f6e747261637420697320696e697469604482015266616c697a696e6760c81b606482015260840160405180910390fd5b60005460ff9081161015620000e6576000805460ff191660ff9081179091556040519081527f7f26b83ff96e1f2b6a682f133852f6798a09c465da95921460cefb38474024989060200160405180910390a15b565b6080516154a46200012060003960008181610c1601528181610c5601528181610e3301528181610e730152610eeb01526154a46000f3fe6080604052600436106102685760003560e01c80636b20c45411610145578063bd3a13f6116100bc578063bd3a13f614610752578063bd85b03914610772578063ca15c873146107a0578063ca6b12f1146107c0578063cf2c52cb146107d3578063d547741f146107f3578063da74222814610813578063de5785d514610833578063e2982c211461084a578063e8a3d4851461086a578063e985e9c51461087f578063f242432a146108c8578063f5298aca146108e857600080fd5b80636b20c454146105cf5780637da0a877146105ef5780638456cb591461061d5780639010d07c1461063257806391b7f5ed1461065257806391d1485414610672578063938e3d7b14610692578063a035b1fe146106b2578063a217fddf146106c9578063a22cb465146106de578063a3b0b5a3146106fe578063ad3b1b471461073257600080fd5b806336568abe116101e457806336568abe146104405780633659cfe61461046057806337b0f07d1461048057806338b7f4461461049b5780633f4ba83a146104bd57806343401543146104d25780634e1273f4146104f25780634f1ef2861461051f5780634f558e791461053257806352d1902d14610562578063572b6c05146105775780635c5fb521146105975780635c975abb146105b757600080fd5b8062fdd58e1461026d57806301ffc9a7146102a057806302fe5305146102d057806306b6ac69146102f25780630e89341c146103125780631e7663bc1461033f5780631ecd34801461035f5780632262f53f14610390578063248a9ca3146103b05780632eb2c2d6146103e05780632f2ff15d1461040057806331b3eb9414610420575b600080fd5b34801561027957600080fd5b5061028d610288366004613cd2565b610908565b6040519081526020015b60405180910390f35b3480156102ac57600080fd5b506102c06102bb366004613d14565b610964565b6040519015158152602001610297565b3480156102dc57600080fd5b506102f06102eb366004613e67565b61096f565b005b3480156102fe57600080fd5b5061028d61030d366004613ea3565b610983565b34801561031e57600080fd5b5061033261032d366004613ef2565b6109bf565b6040516102979190613f63565b34801561034b57600080fd5b5061028d61035a366004613e67565b610a53565b34801561036b57600080fd5b506102c061037a366004613ef2565b6102926020526000908152604090205460ff1681565b34801561039c57600080fd5b506102f06103ab366004613f76565b610a84565b3480156103bc57600080fd5b5061028d6103cb366004613ef2565b60009081526065602052604090206001015490565b3480156103ec57600080fd5b506102f06103fb36600461402c565b610a9a565b34801561040c57600080fd5b506102f061041b3660046140d9565b610af8565b34801561042c57600080fd5b506102f061043b366004614109565b610b22565b34801561044c57600080fd5b506102f061045b3660046140d9565b610b81565b34801561046c57600080fd5b506102f061047b366004614109565b610c0b565b34801561048c57600080fd5b50610291546102c09060ff1681565b3480156104a757600080fd5b5061028d60008051602061540883398151915281565b3480156104c957600080fd5b506102f0610cd1565b3480156104de57600080fd5b506102f06104ed366004614134565b610ce3565b3480156104fe57600080fd5b5061051261050d366004614151565b610cff565b604051610297919061424e565b6102f061052d366004613ea3565b610e28565b34801561053e57600080fd5b506102c061054d366004613ef2565b60009081526101916020526040902054151590565b34801561056e57600080fd5b5061028d610ede565b34801561058357600080fd5b506102c0610592366004614109565b610f8d565b3480156105a357600080fd5b506102f06105b23660046142ac565b610fa2565b3480156105c357600080fd5b5060fb5460ff166102c0565b3480156105db57600080fd5b506102f06105ea366004614317565b61101d565b3480156105fb57600080fd5b5061028e54610610906001600160a01b031681565b604051610297919061438c565b34801561062957600080fd5b506102f0611072565b34801561063e57600080fd5b5061061061064d366004613f76565b611082565b34801561065e57600080fd5b506102f061066d366004613ef2565b61109a565b34801561067e57600080fd5b506102c061068d3660046140d9565b6110d4565b34801561069e57600080fd5b506102f06106ad366004613e67565b6110ff565b3480156106be57600080fd5b5061028d61028f5481565b3480156106d557600080fd5b5061028d600081565b3480156106ea57600080fd5b506102f06106f93660046143a0565b61111b565b34801561070a57600080fd5b5061028d7f8f4f2da22e8ac8f11e15f9fc141cddbb5deea8800186560abb6e68c5496619a981565b34801561073e57600080fd5b506102f061074d366004613cd2565b61112d565b34801561075e57600080fd5b506102f061076d3660046143ce565b611174565b34801561077e57600080fd5b5061028d61078d366004613ef2565b6000908152610191602052604090205490565b3480156107ac57600080fd5b5061028d6107bb366004613ef2565b611293565b6102f06107ce366004614661565b6112aa565b3480156107df57600080fd5b506102f06107ee36600461481b565b611841565b3480156107ff57600080fd5b506102f061080e3660046140d9565b611964565b34801561081f57600080fd5b506102f061082e366004614109565b611989565b34801561083f57600080fd5b5061028d6102905481565b34801561085657600080fd5b5061028d610865366004614109565b6119d9565b34801561087657600080fd5b50610332611a4c565b34801561088b57600080fd5b506102c061089a36600461489f565b6001600160a01b03918216600090815260ca6020908152604080832093909416825291909152205460ff1690565b3480156108d457600080fd5b506102f06108e33660046148cd565b611adf565b3480156108f457600080fd5b506102f0610903366004614935565b611b36565b60006001600160a01b0383166109395760405162461bcd60e51b81526004016109309061496a565b60405180910390fd5b50600081815260c9602090815260408083206001600160a01b03861684529091529020545b92915050565b600061095e82611b8b565b610977611bcb565b61098081611c31565b50565b60006001600160a01b0383166109ab5760405162461bcd60e51b81526004016109309061496a565b6109b88361028884610a53565b9392505050565b606060cb80546109ce906149b4565b80601f01602080910402602001604051908101604052809291908181526020018280546109fa906149b4565b8015610a475780601f10610a1c57610100808354040283529160200191610a47565b820191906000526020600020905b815481529060010190602001808311610a2a57829003601f168201915b50505050509050919050565b600081604051602001610a669190613f63565b60408051601f19818403018152919052805160209091012092915050565b610a96610a8f611c44565b8383611c66565b5050565b610aa2611c44565b6001600160a01b0316856001600160a01b03161480610ac85750610ac88561089a611c44565b610ae45760405162461bcd60e51b8152600401610930906149ef565b610af18585858585611d80565b5050505050565b600082815260656020526040902060010154610b1381611f1e565b610b1d8383611f2f565b505050565b610227546040516351cff8d960e01b81526001600160a01b03909116906351cff8d990610b5390849060040161438c565b600060405180830381600087803b158015610b6d57600080fd5b505af1158015610af1573d6000803e3d6000fd5b610b89611c44565b6001600160a01b0316816001600160a01b031614610c015760405162461bcd60e51b815260206004820152602f60248201527f416363657373436f6e74726f6c3a2063616e206f6e6c792072656e6f756e636560448201526e103937b632b9903337b91039b2b63360891b6064820152608401610930565b610a968282611f51565b306001600160a01b037f0000000000000000000000000000000000000000000000000000000000000000161415610c545760405162461bcd60e51b815260040161093090614a3d565b7f00000000000000000000000000000000000000000000000000000000000000006001600160a01b0316610c86611f73565b6001600160a01b031614610cac5760405162461bcd60e51b815260040161093090614a89565b610cb581611f8f565b6040805160008082526020820190925261098091839190611f97565b610cd9611bcb565b610ce1612102565b565b610ceb611bcb565b610291805460ff1916911515919091179055565b60608151835114610d645760405162461bcd60e51b815260206004820152602960248201527f455243313135353a206163636f756e747320616e6420696473206c656e677468604482015268040dad2e6dac2e8c6d60bb1b6064820152608401610930565b600083516001600160401b03811115610d7f57610d7f613d31565b604051908082528060200260200182016040528015610da8578160200160208202803683370190505b50905060005b8451811015610e2057610df3858281518110610dcc57610dcc614ad5565b6020026020010151858381518110610de657610de6614ad5565b6020026020010151610908565b828281518110610e0557610e05614ad5565b6020908102919091010152610e1981614b01565b9050610dae565b509392505050565b306001600160a01b037f0000000000000000000000000000000000000000000000000000000000000000161415610e715760405162461bcd60e51b815260040161093090614a3d565b7f00000000000000000000000000000000000000000000000000000000000000006001600160a01b0316610ea3611f73565b6001600160a01b031614610ec95760405162461bcd60e51b815260040161093090614a89565b610ed282611f8f565b610a9682826001611f97565b6000306001600160a01b037f00000000000000000000000000000000000000000000000000000000000000001614610f795760405162461bcd60e51b815260206004820152603860248201527f555550535570677261646561626c653a206d757374206e6f742062652063616c6044820152771b1959081d1a1c9bdd59da0819195b1959d85d1958d85b1b60421b6064820152608401610930565b506000805160206154288339815191525b90565b61028e546001600160a01b0391821691161490565b611017610fad611c44565b8585808060200260200160405190810160405280939291908181526020018383602002808284376000920191909152505060408051602080890282810182019093528882529093508892508791829185019084908082843760009201919091525061215492505050565b50505050565b611025611c44565b6001600160a01b0316836001600160a01b0316148061104b575061104b8361089a611c44565b6110675760405162461bcd60e51b8152600401610930906149ef565b610b1d838383612154565b61107a611bcb565b610ce16122e8565b60008281526097602052604081206109b89083612326565b6110a2611bcb565b61028f8190556040517ff2e795d4a33ae9a0d3282888375b8ae781ea4de1cbf101ac96150aa95ccff0b490600090a150565b60009182526065602090815260408084206001600160a01b0393909316845291905290205460ff1690565b611107611bcb565b8051610a969061028d906020840190613c14565b610a96611126611c44565b8383612332565b611135612413565b61113d611bcb565b6102905481111561114d57600080fd5b6102905461115b908261246f565b61029055611169828261247b565b610a96600161025a55565b600054610100900460ff16158080156111945750600054600160ff909116105b806111b557506111a3306124db565b1580156111b5575060005460ff166001145b6112185760405162461bcd60e51b815260206004820152602e60248201527f496e697469616c697a61626c653a20636f6e747261637420697320616c72656160448201526d191e481a5b9a5d1a585b1a5e995960921b6064820152608401610930565b6000805460ff19166001179055801561123b576000805461ff0019166101001790555b611247858585856124ea565b8015610af1576000805461ff0019169055604051600181527f7f26b83ff96e1f2b6a682f133852f6798a09c465da95921460cefb38474024989060200160405180910390a15050505050565b600081815260976020526040812061095e90612587565b6112b2612591565b6112cc60008051602061540883398151915261068d611c44565b806112f757506112da611c44565b6001600160a01b03168360800151602001516001600160a01b0316145b6113625760405162461bcd60e51b815260206004820152603660248201527f4b5242546f6b656e3a2073656e646572206d757374206265207468652063726560448201527564656e7469616c5375626a656374206164647265737360501b6064820152608401610930565b846001600160a01b03168360800151602001516001600160a01b0316146113ec5760405162461bcd60e51b815260206004820152603860248201527f4d696e7420746f2061646472657373206d757374206265207468652076632e63604482015277726564656e7469616c5375626a656374206164647265737360401b6064820152608401610930565b6113f5836125d7565b836040516020016114069190613f63565b604051602081830303815290604052805190602001208360800151604001516040516020016114359190613f63565b60405160208183030381529060405280519060200120146114be5760405162461bcd60e51b815260206004820152603e60248201527f76632e63726564656e7469616c5375626a6563742e5f7479706520646f65736e60448201527f2774206d617463682063726564656e7469616c5375626a6563745479706500006064820152608401610930565b60006114c9846128bd565b6000818152610292602052604090205490915060ff16156115285760405162461bcd60e51b815260206004820152601960248201527810dc9959195b9d1a585b08185b1c9958591e481b5a5b9d1959603a1b6044820152606401610930565b6102915460ff168015611614575060405160200161155e906020808252600490820152634e6f6e6560e01b604082015260600190565b60408051601f1981840301815290829052805160209091012061028c5463606a836b60e11b835290916001600160a01b039091169063c0d506d6906115a7908890600401614d2c565b600060405180830381865afa1580156115c4573d6000803e3d6000fd5b505050506040513d6000823e601f3d908101601f191682016040526115ec9190810190614d3f565b6040516020016115fc9190613f63565b60405160208183030381529060405280519060200120145b1561175e5761028c5460808501516101000151604051636f64e57f60e11b81526000926001600160a01b03169163dec9cafe916116579089908990600401614dc0565b60206040518083038185885af1158015611675573d6000803e3d6000fd5b50505050506040513d601f19601f8201168201806040525081019061169a9190614de5565b9050806116f45760405162461bcd60e51b815260206004820152602260248201527f43726564656e7469616c206661696c656420746f206265207265676973746572604482015261195960f21b6064820152608401610930565b61028f546080860151610100015161170d90349061246f565b101561172b5760405162461bcd60e51b815260040161093090614e02565b61175461174a866080015161010001513461246f90919063ffffffff16565b61029054906129b1565b610290555061180b565b61028c546060850151602001516001600160a01b039091169063b25dd4fc90611786876128bd565b866040518463ffffffff1660e01b81526004016117a593929190614e49565b60006040518083038186803b1580156117bd57600080fd5b505afa1580156117d1573d6000803e3d6000fd5b5050505061028f543410156117f85760405162461bcd60e51b815260040161093090614e02565b6102905461180690346129b1565b610290555b6118208661181887610a53565b6001856129bd565b600090815261029260205260409020805460ff191660011790555050505050565b61186d7f8f4f2da22e8ac8f11e15f9fc141cddbb5deea8800186560abb6e68c5496619a961068d611c44565b6118d05760405162461bcd60e51b815260206004820152602e60248201527f4368696c644d696e7461626c65455243313135353a20494e535546464943494560448201526d4e545f5045524d495353494f4e5360901b6064820152608401610930565b600080806118e084860186614e70565b919450925090506001600160a01b0386166119505760405162461bcd60e51b815260206004820152602a60248201527f4368696c644d696e7461626c65455243313135353a20494e56414c49445f44456044820152692827a9a4aa2faaa9a2a960b11b6064820152608401610930565b61195c86848484612a98565b505050505050565b60008281526065602052604090206001015461197f81611f1e565b610b1d8383611f51565b611991611bcb565b61028e80546001600160a01b0319166001600160a01b0383161790556040517ff2e795d4a33ae9a0d3282888375b8ae781ea4de1cbf101ac96150aa95ccff0b490600090a150565b610227546040516371d4ed8d60e11b81526000916001600160a01b03169063e3a9db1a90611a0b90859060040161438c565b602060405180830381865afa158015611a28573d6000803e3d6000fd5b505050506040513d601f19601f8201168201806040525081019061095e9190614eed565b606061028d8054611a5c906149b4565b80601f0160208091040260200160405190810160405280929190818152602001828054611a88906149b4565b8015611ad55780601f10611aaa57610100808354040283529160200191611ad5565b820191906000526020600020905b815481529060010190602001808311611ab857829003601f168201915b5050505050905090565b611ae7611c44565b6001600160a01b0316856001600160a01b03161480611b0d5750611b0d8561089a611c44565b611b295760405162461bcd60e51b8152600401610930906149ef565b610af18585858585612bec565b611b3e611c44565b6001600160a01b0316836001600160a01b03161480611b645750611b648361089a611c44565b611b805760405162461bcd60e51b8152600401610930906149ef565b610b1d838383611c66565b60006001600160e01b03198216636cdb3d1360e11b1480611bbc57506001600160e01b031982166303a24d0760e21b145b8061095e575061095e82612d21565b611be560008051602061540883398151915261068d611c44565b610ce15760405162461bcd60e51b815260206004820181905260248201527f4b72656269744e46543a206d757374206861766520676f7665726e20726f6c656044820152606401610930565b8051610a969060cb906020840190613c14565b6000611c4f33610f8d565b15611c61575060131936013560601c90565b503390565b6001600160a01b038316611c8c5760405162461bcd60e51b815260040161093090614f06565b6000611c96611c44565b90506000611ca384612d46565b90506000611cb084612d46565b9050611cd083876000858560405180602001604052806000815250612d91565b600085815260c9602090815260408083206001600160a01b038a16845290915290205484811015611d135760405162461bcd60e51b815260040161093090614f49565b600086815260c9602090815260408083206001600160a01b038b81168086529184528285208a8703905582518b81529384018a90529092908816916000805160206153e8833981519152910160405180910390a46040805160208101909152600090525b50505050505050565b8151835114611da15760405162461bcd60e51b815260040161093090614f8d565b6001600160a01b038416611dc75760405162461bcd60e51b815260040161093090614fd5565b6000611dd1611c44565b9050611de1818787878787612d91565b60005b8451811015611eca576000858281518110611e0157611e01614ad5565b602002602001015190506000858381518110611e1f57611e1f614ad5565b602090810291909101810151600084815260c9835260408082206001600160a01b038e168352909352919091205490915081811015611e705760405162461bcd60e51b81526004016109309061501a565b600083815260c9602090815260408083206001600160a01b038e8116855292528083208585039055908b16825281208054849290611eaf908490615064565b9250508190555050505080611ec390614b01565b9050611de4565b50846001600160a01b0316866001600160a01b0316826001600160a01b03166000805160206153c88339815191528787604051611f0892919061507c565b60405180910390a461195c818787878787612e3c565b61098081611f2a611c44565b612f9f565b611f398282612ff8565b6000828152609760205260409020610b1d908261307f565b611f5b8282613094565b6000828152609760205260409020610b1d9082613119565b600080516020615428833981519152546001600160a01b031690565b610980611bcb565b7f4910fdfa16fed3260ed0e7147f7cc6da11a60208b5b9406d12a635614ffd91435460ff1615611fca57610b1d8361312e565b826001600160a01b03166352d1902d6040518163ffffffff1660e01b8152600401602060405180830381865afa925050508015612024575060408051601f3d908101601f1916820190925261202191810190614eed565b60015b6120875760405162461bcd60e51b815260206004820152602e60248201527f45524331393637557067726164653a206e657720696d706c656d656e7461746960448201526d6f6e206973206e6f74205555505360901b6064820152608401610930565b60008051602061542883398151915281146120f65760405162461bcd60e51b815260206004820152602960248201527f45524331393637557067726164653a20756e737570706f727465642070726f786044820152681a58589b195555525160ba1b6064820152608401610930565b50610b1d8383836131c8565b61210a6131ed565b60fb805460ff191690557f5db9ee0a495bf2e6ff9c91a7834c1ba4fdd244a5e8aa4e537bd38aeae4b073aa61213d611c44565b60405161214a919061438c565b60405180910390a1565b6001600160a01b03831661217a5760405162461bcd60e51b815260040161093090614f06565b805182511461219b5760405162461bcd60e51b815260040161093090614f8d565b60006121a5611c44565b90506121c581856000868660405180602001604052806000815250612d91565b60005b835181101561228d5760008482815181106121e5576121e5614ad5565b60200260200101519050600084838151811061220357612203614ad5565b602090810291909101810151600084815260c9835260408082206001600160a01b038c1683529093529190912054909150818110156122545760405162461bcd60e51b815260040161093090614f49565b600092835260c9602090815260408085206001600160a01b038b168652909152909220910390558061228581614b01565b9150506121c8565b5060006001600160a01b0316846001600160a01b0316826001600160a01b03166000805160206153c883398151915286866040516122cc92919061507c565b60405180910390a4604080516020810190915260009052611017565b6122f0612591565b60fb805460ff191660011790557f62e78cea01bee320cd4e420270b5ea74000d11b0c9f74754ebdbfc544b05a25861213d611c44565b60006109b88383613236565b816001600160a01b0316836001600160a01b031614156123a65760405162461bcd60e51b815260206004820152602960248201527f455243313135353a2073657474696e6720617070726f76616c20737461747573604482015268103337b91039b2b63360b91b6064820152608401610930565b6001600160a01b03838116600081815260ca6020908152604080832094871680845294825291829020805460ff191686151590811790915591519182527f17307eab39ab6107e8899845ad3d59bd9653f200f220920489ca2b5937696c31910160405180910390a3505050565b600261025a5414156124675760405162461bcd60e51b815260206004820152601f60248201527f5265656e7472616e637947756172643a207265656e7472616e742063616c6c006044820152606401610930565b600261025a55565b60006109b882846150a1565b6102275460405163f340fa0160e01b81526001600160a01b039091169063f340fa019083906124ae90869060040161438c565b6000604051808303818588803b1580156124c757600080fd5b505af1158015611d77573d6000803e3d6000fd5b6001600160a01b03163b151590565b600054610100900460ff166125115760405162461bcd60e51b8152600401610930906150b8565b61251a84613260565b612522613287565b61252a6132ae565b612532613287565b61253a613287565b61028c80546001600160a01b0319166001600160a01b038316179055825161256a9061028d906020860190613c14565b5061028f829055610291805460ff191660011790556110176132e1565b600061095e825490565b60fb5460ff1615610ce15760405162461bcd60e51b815260206004820152601060248201526f14185d5cd8589b194e881c185d5cd95960821b6044820152606401610930565b6060810151602001516001600160a01b03166126355760405162461bcd60e51b815260206004820152601c60248201527f4b5242546f6b656e3a20626164206973737565722061646472657373000000006044820152606401610930565b6080810151602001516001600160a01b03166126a35760405162461bcd60e51b815260206004820152602760248201527f4b5242546f6b656e3a206261642063726564656e7469616c5375626a656374206044820152666164647265737360c81b6064820152608401610930565b6080810151516040516126b99190602001613f63565b60408051601f1981840301815290829052805160209182012060608401515190926126e49201613f63565b6040516020818303038152906040528051906020012014156127665760405162461bcd60e51b815260206004820152603560248201527f4b5242546f6b656e3a2069737375657220444944206973207468652073616d6560448201527408185cc818dc9959195b9d1a585b14dd589a9958dd605a1b6064820152608401610930565b8060800151602001516001600160a01b03168160600151602001516001600160a01b031614156127fa5760405162461bcd60e51b815260206004820152603960248201527f4b5242546f6b656e3a20697373756572206164647265737320697320746865206044820152781cd85b5948185cc818dc9959195b9d1a585b14dd589a9958dd603a1b6064820152608401610930565b8060800151610120015142116128655760405162461bcd60e51b815260206004820152602a60248201527f4b5242546f6b656e3a2056432069737375616e63654461746520697320696e206044820152697468652066757475726560b01b6064820152608401610930565b8060800151610140015142106109805760405162461bcd60e51b815260206004820181905260248201527f4b5242546f6b656e3a2056432068617320616c726561647920657870697265646044820152606401610930565b60007f63c4847aa3662952b34b8f76f3abc371c24535ee34fce5b3df34d029db924d4e60001b8260000151805190602001208360200151805190602001208460400151805190602001206129148660600151613334565b612921876080015161338d565b61292e8860a00151613486565b60c0890151805160209182012060e08b01518051908301206040516129949a9998979695949301988952602089019790975260408801959095526060870193909352608086019190915260a085015260c084015260e08301526101008201526101200190565b604051602081830303815290604052805190602001209050919050565b60006109b88284615064565b6001600160a01b0384166129e35760405162461bcd60e51b815260040161093090615103565b60006129ed611c44565b905060006129fa85612d46565b90506000612a0785612d46565b9050612a1883600089858589612d91565b600086815260c9602090815260408083206001600160a01b038b16845290915281208054879290612a4a908490615064565b909155505060408051878152602081018790526001600160a01b03808a1692600092918716916000805160206153e8833981519152910160405180910390a4611d77836000898989896134dc565b6001600160a01b038416612abe5760405162461bcd60e51b815260040161093090615103565b8151835114612adf5760405162461bcd60e51b815260040161093090614f8d565b6000612ae9611c44565b9050612afa81600087878787612d91565b60005b8451811015612b9657838181518110612b1857612b18614ad5565b602002602001015160c96000878481518110612b3657612b36614ad5565b602002602001015181526020019081526020016000206000886001600160a01b03166001600160a01b031681526020019081526020016000206000828254612b7e9190615064565b90915550819050612b8e81614b01565b915050612afd565b50846001600160a01b031660006001600160a01b0316826001600160a01b03166000805160206153c88339815191528787604051612bd592919061507c565b60405180910390a4610af181600087878787612e3c565b6001600160a01b038416612c125760405162461bcd60e51b815260040161093090614fd5565b6000612c1c611c44565b90506000612c2985612d46565b90506000612c3685612d46565b9050612c46838989858589612d91565b600086815260c9602090815260408083206001600160a01b038c16845290915290205485811015612c895760405162461bcd60e51b81526004016109309061501a565b600087815260c9602090815260408083206001600160a01b038d8116855292528083208985039055908a16825281208054889290612cc8908490615064565b909155505060408051888152602081018890526001600160a01b03808b16928c821692918816916000805160206153e8833981519152910160405180910390a4612d16848a8a8a8a8a6134dc565b505050505050505050565b60006001600160e01b03198216635a05180f60e01b148061095e575061095e8261359e565b60408051600180825281830190925260609160009190602080830190803683370190505090508281600081518110612d8057612d80614ad5565b602090810291909101015292915050565b612d99612591565b612da78686868686866135d3565b612dc160008051602061540883398151915261068d611c44565b80612dd357506001600160a01b038516155b80612de557506001600160a01b038416155b61195c5760405162461bcd60e51b815260206004820152602260248201527f4b72656269744e46543a205472616e7366657273206e6f7420737570706f7274604482015261195960f21b6064820152608401610930565b612e4e846001600160a01b03166124db565b1561195c5760405163bc197c8160e01b81526001600160a01b0385169063bc197c8190612e879089908990889088908890600401615144565b6020604051808303816000875af1925050508015612ec2575060408051601f3d908101601f19168201909252612ebf918101906151a2565b60015b612f6f57612ece6151bf565b806308c379a01415612f085750612ee36151da565b80612eee5750612f0a565b8060405162461bcd60e51b81526004016109309190613f63565b505b60405162461bcd60e51b815260206004820152603460248201527f455243313135353a207472616e7366657220746f206e6f6e2d455243313135356044820152732932b1b2b4bb32b91034b6b83632b6b2b73a32b960611b6064820152608401610930565b6001600160e01b0319811663bc197c8160e01b14611d775760405162461bcd60e51b815260040161093090615263565b612fa982826110d4565b610a9657612fb68161375d565b612fc183602061376f565b604051602001612fd29291906152ab565b60408051601f198184030181529082905262461bcd60e51b825261093091600401613f63565b61300282826110d4565b610a965760008281526065602090815260408083206001600160a01b03851684529091529020805460ff1916600117905561303b611c44565b6001600160a01b0316816001600160a01b0316837f2f8788117e7eff1d82e926ec794901d17c78024a50270940304540a733656f0d60405160405180910390a45050565b60006109b8836001600160a01b03841661390a565b61309e82826110d4565b15610a965760008281526065602090815260408083206001600160a01b03851684529091529020805460ff191690556130d5611c44565b6001600160a01b0316816001600160a01b0316837ff6391f5c32d9c69d2a47ea670b442974b53935d1edc7fd64eb21e047a839171b60405160405180910390a45050565b60006109b8836001600160a01b038416613959565b613137816124db565b6131995760405162461bcd60e51b815260206004820152602d60248201527f455243313936373a206e657720696d706c656d656e746174696f6e206973206e60448201526c1bdd08184818dbdb9d1c9858dd609a1b6064820152608401610930565b60008051602061542883398151915280546001600160a01b0319166001600160a01b0392909216919091179055565b6131d183613a4c565b6000825111806131de5750805b15610b1d576110178383613a8c565b60fb5460ff16610ce15760405162461bcd60e51b815260206004820152601460248201527314185d5cd8589b194e881b9bdd081c185d5cd95960621b6044820152606401610930565b600082600001828154811061324d5761324d614ad5565b9060005260206000200154905092915050565b600054610100900460ff166109775760405162461bcd60e51b8152600401610930906150b8565b600054610100900460ff16610ce15760405162461bcd60e51b8152600401610930906150b8565b600054610100900460ff166132d55760405162461bcd60e51b8152600401610930906150b8565b60fb805460ff19169055565b600054610100900460ff166133085760405162461bcd60e51b8152600401610930906150b8565b61331a6000613315611c44565b613b7e565b610ce1600080516020615408833981519152613315611c44565b8051805160209182012081830151604080517fabb691e6e52ceb1ff8b3df91dc14323057e88efa3252486ed994fd62706cdfaa948101949094528301919091526001600160a01b03166060820152600090608001612994565b60007f4b87db6c5998f503ac6519b5a7d74efcf2a230368deeaf54dd8bf078da459ff760001b82600001518051906020012083602001518460400151805190602001208560600151805190602001208660800151805190602001208760a00151805190602001208860c001518960e001518a61010001518b61012001518c61014001516040516020016129949c9b9a999897969594939291909b8c5260208c019a909a526001600160a01b039890981660408b015260608a0196909652608089019490945260a088019290925260c087015260ff1660e08601526101008501526101208401526101408301526101608201526101800190565b8051805160209182012081830151805190830120604080517f1a58b7c56676b62343f37f4f3603a07ae6dd78bea300689bcefef0f9498c6cc9948101949094528301919091526060820152600090608001612994565b6134ee846001600160a01b03166124db565b1561195c5760405163f23a6e6160e01b81526001600160a01b0385169063f23a6e6190613527908990899088908890889060040161531a565b6020604051808303816000875af1925050508015613562575060408051601f3d908101601f1916820190925261355f918101906151a2565b60015b61356e57612ece6151bf565b6001600160e01b0319811663f23a6e6160e01b14611d775760405162461bcd60e51b815260040161093090615263565b60006001600160e01b03198216637965db0b60e01b148061095e57506301ffc9a760e01b6001600160e01b031983161461095e565b6135e1868686868686613b88565b6001600160a01b0385166136695760005b83518110156136675782818151811061360d5761360d614ad5565b6020026020010151610191600086848151811061362c5761362c614ad5565b6020026020010151815260200190815260200160002060008282546136519190615064565b90915550613660905081614b01565b90506135f2565b505b6001600160a01b03841661195c5760005b8351811015611d7757600084828151811061369757613697614ad5565b6020026020010151905060008483815181106136b5576136b5614ad5565b6020026020010151905060006101916000848152602001908152602001600020549050818110156137395760405162461bcd60e51b815260206004820152602860248201527f455243313135353a206275726e20616d6f756e74206578636565647320746f74604482015267616c537570706c7960c01b6064820152608401610930565b600092835261019160205260409092209103905561375681614b01565b905061367a565b606061095e6001600160a01b03831660145b6060600061377e83600261535f565b613789906002615064565b6001600160401b038111156137a0576137a0613d31565b6040519080825280601f01601f1916602001820160405280156137ca576020820181803683370190505b509050600360fc1b816000815181106137e5576137e5614ad5565b60200101906001600160f81b031916908160001a905350600f60fb1b8160018151811061381457613814614ad5565b60200101906001600160f81b031916908160001a905350600061383884600261535f565b613843906001615064565b90505b60018111156138bb576f181899199a1a9b1b9c1cb0b131b232b360811b85600f166010811061387757613877614ad5565b1a60f81b82828151811061388d5761388d614ad5565b60200101906001600160f81b031916908160001a90535060049490941c936138b48161537e565b9050613846565b5083156109b85760405162461bcd60e51b815260206004820181905260248201527f537472696e67733a20686578206c656e67746820696e73756666696369656e746044820152606401610930565b60008181526001830160205260408120546139515750815460018181018455600084815260208082209093018490558454848252828601909352604090209190915561095e565b50600061095e565b60008181526001830160205260408120548015613a4257600061397d6001836150a1565b8554909150600090613991906001906150a1565b90508181146139f65760008660000182815481106139b1576139b1614ad5565b90600052602060002001549050808760000184815481106139d4576139d4614ad5565b6000918252602080832090910192909255918252600188019052604090208390555b8554869080613a0757613a07615395565b60019003818190600052602060002001600090559055856001016000868152602001908152602001600020600090556001935050505061095e565b600091505061095e565b613a558161312e565b6040516001600160a01b038216907fbc7cd75a20ee27fd9adebab32041f755214dbc6bffa90cc0225b39da2e5c2d3b90600090a250565b6060613a97836124db565b613af25760405162461bcd60e51b815260206004820152602660248201527f416464726573733a2064656c65676174652063616c6c20746f206e6f6e2d636f6044820152651b9d1c9858dd60d21b6064820152608401610930565b600080846001600160a01b031684604051613b0d91906153ab565b600060405180830381855af49150503d8060008114613b48576040519150601f19603f3d011682016040523d82523d6000602084013e613b4d565b606091505b5091509150613b75828260405180606001604052806027815260200161544860279139613bf0565b95945050505050565b610a968282611f2f565b60fb5460ff161561195c5760405162461bcd60e51b815260206004820152602c60248201527f455243313135355061757361626c653a20746f6b656e207472616e736665722060448201526b1dda1a5b19481c185d5cd95960a21b6064820152608401610930565b60608315613bff5750816109b8565b6109b88383815115612eee5781518083602001fd5b828054613c20906149b4565b90600052602060002090601f016020900481019282613c425760008555613c88565b82601f10613c5b57805160ff1916838001178555613c88565b82800160010185558215613c88579182015b82811115613c88578251825591602001919060010190613c6d565b50613c94929150613c98565b5090565b5b80821115613c945760008155600101613c99565b6001600160a01b038116811461098057600080fd5b8035613ccd81613cad565b919050565b60008060408385031215613ce557600080fd5b8235613cf081613cad565b946020939093013593505050565b6001600160e01b03198116811461098057600080fd5b600060208284031215613d2657600080fd5b81356109b881613cfe565b634e487b7160e01b600052604160045260246000fd5b604081018181106001600160401b0382111715613d6657613d66613d31565b60405250565b601f8201601f191681016001600160401b0381118282101715613d9157613d91613d31565b6040525050565b60405161016081016001600160401b0381118282101715613dbb57613dbb613d31565b60405290565b60405161010081016001600160401b0381118282101715613dbb57613dbb613d31565b60006001600160401b03821115613dfd57613dfd613d31565b50601f01601f191660200190565b600082601f830112613e1c57600080fd5b8135613e2781613de4565b604051613e348282613d6c565b828152856020848701011115613e4957600080fd5b82602086016020830137600092810160200192909252509392505050565b600060208284031215613e7957600080fd5b81356001600160401b03811115613e8f57600080fd5b613e9b84828501613e0b565b949350505050565b60008060408385031215613eb657600080fd5b8235613ec181613cad565b915060208301356001600160401b03811115613edc57600080fd5b613ee885828601613e0b565b9150509250929050565b600060208284031215613f0457600080fd5b5035919050565b60005b83811015613f26578181015183820152602001613f0e565b838111156110175750506000910152565b60008151808452613f4f816020860160208601613f0b565b601f01601f19169290920160200192915050565b6020815260006109b86020830184613f37565b60008060408385031215613f8957600080fd5b50508035926020909101359150565b60006001600160401b03821115613fb157613fb1613d31565b5060051b60200190565b600082601f830112613fcc57600080fd5b81356020613fd982613f98565b604051613fe68282613d6c565b83815260059390931b850182019282810191508684111561400657600080fd5b8286015b84811015614021578035835291830191830161400a565b509695505050505050565b600080600080600060a0868803121561404457600080fd5b853561404f81613cad565b9450602086013561405f81613cad565b935060408601356001600160401b038082111561407b57600080fd5b61408789838a01613fbb565b9450606088013591508082111561409d57600080fd5b6140a989838a01613fbb565b935060808801359150808211156140bf57600080fd5b506140cc88828901613e0b565b9150509295509295909350565b600080604083850312156140ec57600080fd5b8235915060208301356140fe81613cad565b809150509250929050565b60006020828403121561411b57600080fd5b81356109b881613cad565b801515811461098057600080fd5b60006020828403121561414657600080fd5b81356109b881614126565b6000806040838503121561416457600080fd5b82356001600160401b038082111561417b57600080fd5b818501915085601f83011261418f57600080fd5b8135602061419c82613f98565b6040516141a98282613d6c565b83815260059390931b85018201928281019150898411156141c957600080fd5b948201945b838610156141f05785356141e181613cad565b825294820194908201906141ce565b9650508601359250508082111561420657600080fd5b50613ee885828601613fbb565b600081518084526020808501945080840160005b8381101561424357815187529582019590820190600101614227565b509495945050505050565b6020815260006109b86020830184614213565b60008083601f84011261427357600080fd5b5081356001600160401b0381111561428a57600080fd5b6020830191508360208260051b85010111156142a557600080fd5b9250929050565b600080600080604085870312156142c257600080fd5b84356001600160401b03808211156142d957600080fd5b6142e588838901614261565b909650945060208701359150808211156142fe57600080fd5b5061430b87828801614261565b95989497509550505050565b60008060006060848603121561432c57600080fd5b833561433781613cad565b925060208401356001600160401b038082111561435357600080fd5b61435f87838801613fbb565b9350604086013591508082111561437557600080fd5b5061438286828701613fbb565b9150509250925092565b6001600160a01b0391909116815260200190565b600080604083850312156143b357600080fd5b82356143be81613cad565b915060208301356140fe81614126565b600080600080608085870312156143e457600080fd5b84356001600160401b03808211156143fb57600080fd5b61440788838901613e0b565b9550602087013591508082111561441d57600080fd5b5061442a87828801613e0b565b93505060408501359150606085013561444281613cad565b939692955090935050565b60006040828403121561445f57600080fd5b60405161446b81613d47565b80915082356001600160401b0381111561448457600080fd5b61449085828601613e0b565b82525060208301356144a181613cad565b6020919091015292915050565b803560ff81168114613ccd57600080fd5b600061016082840312156144d257600080fd5b6144da613d98565b905081356001600160401b03808211156144f357600080fd5b6144ff85838601613e0b565b835261450d60208501613cc2565b6020840152604084013591508082111561452657600080fd5b61453285838601613e0b565b6040840152606084013591508082111561454b57600080fd5b61455785838601613e0b565b6060840152608084013591508082111561457057600080fd5b61457c85838601613e0b565b608084015260a084013591508082111561459557600080fd5b506145a284828501613e0b565b60a0830152506145b460c083016144ae565b60c082015260e082013560e082015261010080830135818301525061012080830135818301525061014080830135818301525092915050565b6000604082840312156145ff57600080fd5b60405161460b81613d47565b80915082356001600160401b038082111561462557600080fd5b61463186838701613e0b565b8352602085013591508082111561464757600080fd5b5061465485828601613e0b565b6020830152505092915050565b600080600080600060a0868803121561467957600080fd5b853561468481613cad565b945060208601356001600160401b03808211156146a057600080fd5b6146ac89838a01613e0b565b955060408801359150808211156146c257600080fd5b90870190610100828a0312156146d757600080fd5b6146df613dc1565b8235828111156146ee57600080fd5b6146fa8b828601613e0b565b82525060208301358281111561470f57600080fd5b61471b8b828601613e0b565b60208301525060408301358281111561473357600080fd5b61473f8b828601613e0b565b60408301525060608301358281111561475757600080fd5b6147638b82860161444d565b60608301525060808301358281111561477b57600080fd5b6147878b8286016144bf565b60808301525060a08301358281111561479f57600080fd5b6147ab8b8286016145ed565b60a08301525060c0830135828111156147c357600080fd5b6147cf8b828601613e0b565b60c08301525060e0830135828111156147e757600080fd5b6147f38b828601613e0b565b60e0830152509450606088013591508082111561480f57600080fd5b6140a989838a01613e0b565b60008060006040848603121561483057600080fd5b833561483b81613cad565b925060208401356001600160401b038082111561485757600080fd5b818601915086601f83011261486b57600080fd5b81358181111561487a57600080fd5b87602082850101111561488c57600080fd5b6020830194508093505050509250925092565b600080604083850312156148b257600080fd5b82356148bd81613cad565b915060208301356140fe81613cad565b600080600080600060a086880312156148e557600080fd5b85356148f081613cad565b9450602086013561490081613cad565b9350604086013592506060860135915060808601356001600160401b0381111561492957600080fd5b6140cc88828901613e0b565b60008060006060848603121561494a57600080fd5b833561495581613cad565b95602085013595506040909401359392505050565b6020808252602a908201527f455243313135353a2061646472657373207a65726f206973206e6f742061207660408201526930b634b21037bbb732b960b11b606082015260800190565b600181811c908216806149c857607f821691505b602082108114156149e957634e487b7160e01b600052602260045260246000fd5b50919050565b6020808252602e908201527f455243313135353a2063616c6c6572206973206e6f7420746f6b656e206f776e60408201526d195c881bdc88185c1c1c9bdd995960921b606082015260800190565b6020808252602c908201527f46756e6374696f6e206d7573742062652063616c6c6564207468726f7567682060408201526b19195b1959d85d1958d85b1b60a21b606082015260800190565b6020808252602c908201527f46756e6374696f6e206d7573742062652063616c6c6564207468726f7567682060408201526b6163746976652070726f787960a01b606082015260800190565b634e487b7160e01b600052603260045260246000fd5b634e487b7160e01b600052601160045260246000fd5b6000600019821415614b1557614b15614aeb565b5060010190565b6000815160408452614b316040850182613f37565b6020938401516001600160a01b0316949093019390935250919050565b60006101608251818552614b6482860182613f37565b9150506020830151614b8160208601826001600160a01b03169052565b5060408301518482036040860152614b998282613f37565b91505060608301518482036060860152614bb38282613f37565b91505060808301518482036080860152614bcd8282613f37565b91505060a083015184820360a0860152614be78282613f37565b91505060c0830151614bfe60c086018260ff169052565b5060e08381015190850152610100808401519085015261012080840151908501526101409283015192909301919091525090565b6000815160408452614c476040850182613f37565b905060208301518482036020860152613b758282613f37565b60006101008251818552614c7682860182613f37565b91505060208301518482036020860152614c908282613f37565b91505060408301518482036040860152614caa8282613f37565b91505060608301518482036060860152614cc48282614b1c565b91505060808301518482036080860152614cde8282614b4e565b91505060a083015184820360a0860152614cf88282614c32565b91505060c083015184820360c0860152614d128282613f37565b91505060e083015184820360e0860152613b758282613f37565b6020815260006109b86020830184614c60565b600060208284031215614d5157600080fd5b81516001600160401b03811115614d6757600080fd5b8201601f81018413614d7857600080fd5b8051614d8381613de4565b604051614d908282613d6c565b828152866020848601011115614da557600080fd5b614db6836020830160208701613f0b565b9695505050505050565b604081526000614dd36040830185614c60565b8281036020840152613b758185613f37565b600060208284031215614df757600080fd5b81516109b881614126565b60208082526027908201527f416d6f756e742073656e74206973206c657373207468616e20746865206d696e6040820152667420707269636560c81b606082015260800190565b60018060a01b0384168152826020820152606060408201526000613b756060830184613f37565b600080600060608486031215614e8557600080fd5b83356001600160401b0380821115614e9c57600080fd5b614ea887838801613fbb565b94506020860135915080821115614ebe57600080fd5b614eca87838801613fbb565b93506040860135915080821115614ee057600080fd5b5061438286828701613e0b565b600060208284031215614eff57600080fd5b5051919050565b60208082526023908201527f455243313135353a206275726e2066726f6d20746865207a65726f206164647260408201526265737360e81b606082015260800190565b60208082526024908201527f455243313135353a206275726e20616d6f756e7420657863656564732062616c604082015263616e636560e01b606082015260800190565b60208082526028908201527f455243313135353a2069647320616e6420616d6f756e7473206c656e677468206040820152670dad2e6dac2e8c6d60c31b606082015260800190565b60208082526025908201527f455243313135353a207472616e7366657220746f20746865207a65726f206164604082015264647265737360d81b606082015260800190565b6020808252602a908201527f455243313135353a20696e73756666696369656e742062616c616e636520666f60408201526939103a3930b739b332b960b11b606082015260800190565b6000821982111561507757615077614aeb565b500190565b60408152600061508f6040830185614213565b8281036020840152613b758185614213565b6000828210156150b3576150b3614aeb565b500390565b6020808252602b908201527f496e697469616c697a61626c653a20636f6e7472616374206973206e6f74206960408201526a6e697469616c697a696e6760a81b606082015260800190565b60208082526021908201527f455243313135353a206d696e7420746f20746865207a65726f206164647265736040820152607360f81b606082015260800190565b6001600160a01b0386811682528516602082015260a06040820181905260009061517090830186614213565b82810360608401526151828186614213565b905082810360808401526151968185613f37565b98975050505050505050565b6000602082840312156151b457600080fd5b81516109b881613cfe565b600060033d1115610f8a5760046000803e5060005160e01c90565b600060443d10156151e85790565b6040516003193d81016004833e81513d6001600160401b03816024840111818411171561521757505050505090565b828501915081518181111561522f5750505050505090565b843d87010160208285010111156152495750505050505090565b61525860208286010187613d6c565b509095945050505050565b60208082526028908201527f455243313135353a204552433131353552656365697665722072656a656374656040820152676420746f6b656e7360c01b606082015260800190565b76020b1b1b2b9b9a1b7b73a3937b61d1030b1b1b7bab73a1604d1b8152600083516152dd816017850160208801613f0b565b7001034b99036b4b9b9b4b733903937b6329607d1b601791840191820152835161530e816028840160208801613f0b565b01602801949350505050565b6001600160a01b03868116825285166020820152604081018490526060810183905260a06080820181905260009061535490830184613f37565b979650505050505050565b600081600019048311821515161561537957615379614aeb565b500290565b60008161538d5761538d614aeb565b506000190190565b634e487b7160e01b600052603160045260246000fd5b600082516153bd818460208701613f0b565b919091019291505056fe4a39dc06d4c0dbc64b70af90fd698a233a518aa5d07e595d983b8c0526c8f7fbc3d58168c5ae7397731d063d5bbf3d657854427343f4c083240f7aacaa2d0f62899bd46557473cb80307a9dabc297131ced39608330a2d29b2d52b660c03923e360894a13ba1a3210667c828492db98dca3e2076cc3735a920a3ca505d382bbc416464726573733a206c6f772d6c6576656c2064656c65676174652063616c6c206661696c6564a26469706673582212202154a02752c6bf5bfcb48f75ec5cf1a2cb0d2efe1f4d60ceeb3865005691719b64736f6c634300080c0033",
  "linkReferences": {},
  "deployedLinkReferences": {}
}