{
  "_format": "hh-sol-artifact-1",
  "contractName": "KrebitNFTV01",
  "sourceName": "contracts/KrebitNFTV01.sol",
  "abi": [
    {
      "inputs": [],
      "stateMutability": "nonpayable",
      "type": "constructor"
    },
    {
      "anonymous": false,
      "inputs": [
        {
          "indexed": false,
          "internalType": "address",
          "name": "previousAdmin",
          "type": "address"
        },
        {
          "indexed": false,
          "internalType": "address",
          "name": "newAdmin",
          "type": "address"
        }
      ],
      "name": "AdminChanged",
      "type": "event"
    },
    {
      "anonymous": false,
      "inputs": [
        {
          "indexed": true,
          "internalType": "address",
          "name": "account",
          "type": "address"
        },
        {
          "indexed": true,
          "internalType": "address",
          "name": "operator",
          "type": "address"
        },
        {
          "indexed": false,
          "internalType": "bool",
          "name": "approved",
          "type": "bool"
        }
      ],
      "name": "ApprovalForAll",
      "type": "event"
    },
    {
      "anonymous": false,
      "inputs": [
        {
          "indexed": true,
          "internalType": "address",
          "name": "beacon",
          "type": "address"
        }
      ],
      "name": "BeaconUpgraded",
      "type": "event"
    },
    {
      "anonymous": false,
      "inputs": [
        {
          "indexed": false,
          "internalType": "uint8",
          "name": "version",
          "type": "uint8"
        }
      ],
      "name": "Initialized",
      "type": "event"
    },
    {
      "anonymous": false,
      "inputs": [
        {
          "indexed": false,
          "internalType": "address",
          "name": "account",
          "type": "address"
        }
      ],
      "name": "Paused",
      "type": "event"
    },
    {
      "anonymous": false,
      "inputs": [
        {
          "indexed": true,
          "internalType": "bytes32",
          "name": "role",
          "type": "bytes32"
        },
        {
          "indexed": true,
          "internalType": "bytes32",
          "name": "previousAdminRole",
          "type": "bytes32"
        },
        {
          "indexed": true,
          "internalType": "bytes32",
          "name": "newAdminRole",
          "type": "bytes32"
        }
      ],
      "name": "RoleAdminChanged",
      "type": "event"
    },
    {
      "anonymous": false,
      "inputs": [
        {
          "indexed": true,
          "internalType": "bytes32",
          "name": "role",
          "type": "bytes32"
        },
        {
          "indexed": true,
          "internalType": "address",
          "name": "account",
          "type": "address"
        },
        {
          "indexed": true,
          "internalType": "address",
          "name": "sender",
          "type": "address"
        }
      ],
      "name": "RoleGranted",
      "type": "event"
    },
    {
      "anonymous": false,
      "inputs": [
        {
          "indexed": true,
          "internalType": "bytes32",
          "name": "role",
          "type": "bytes32"
        },
        {
          "indexed": true,
          "internalType": "address",
          "name": "account",
          "type": "address"
        },
        {
          "indexed": true,
          "internalType": "address",
          "name": "sender",
          "type": "address"
        }
      ],
      "name": "RoleRevoked",
      "type": "event"
    },
    {
      "anonymous": false,
      "inputs": [
        {
          "indexed": true,
          "internalType": "address",
          "name": "operator",
          "type": "address"
        },
        {
          "indexed": true,
          "internalType": "address",
          "name": "from",
          "type": "address"
        },
        {
          "indexed": true,
          "internalType": "address",
          "name": "to",
          "type": "address"
        },
        {
          "indexed": false,
          "internalType": "uint256[]",
          "name": "ids",
          "type": "uint256[]"
        },
        {
          "indexed": false,
          "internalType": "uint256[]",
          "name": "values",
          "type": "uint256[]"
        }
      ],
      "name": "TransferBatch",
      "type": "event"
    },
    {
      "anonymous": false,
      "inputs": [
        {
          "indexed": true,
          "internalType": "address",
          "name": "operator",
          "type": "address"
        },
        {
          "indexed": true,
          "internalType": "address",
          "name": "from",
          "type": "address"
        },
        {
          "indexed": true,
          "internalType": "address",
          "name": "to",
          "type": "address"
        },
        {
          "indexed": false,
          "internalType": "uint256",
          "name": "id",
          "type": "uint256"
        },
        {
          "indexed": false,
          "internalType": "uint256",
          "name": "value",
          "type": "uint256"
        }
      ],
      "name": "TransferSingle",
      "type": "event"
    },
    {
      "anonymous": false,
      "inputs": [
        {
          "indexed": false,
          "internalType": "string",
          "name": "value",
          "type": "string"
        },
        {
          "indexed": true,
          "internalType": "uint256",
          "name": "id",
          "type": "uint256"
        }
      ],
      "name": "URI",
      "type": "event"
    },
    {
      "anonymous": false,
      "inputs": [
        {
          "indexed": false,
          "internalType": "address",
          "name": "account",
          "type": "address"
        }
      ],
      "name": "Unpaused",
      "type": "event"
    },
    {
      "anonymous": false,
      "inputs": [],
      "name": "Updated",
      "type": "event"
    },
    {
      "anonymous": false,
      "inputs": [
        {
          "indexed": true,
          "internalType": "address",
          "name": "implementation",
          "type": "address"
        }
      ],
      "name": "Upgraded",
      "type": "event"
    },
    {
      "inputs": [],
      "name": "DEFAULT_ADMIN_ROLE",
      "outputs": [
        {
          "internalType": "bytes32",
          "name": "",
          "type": "bytes32"
        }
      ],
      "stateMutability": "view",
      "type": "function"
    },
    {
      "inputs": [],
      "name": "GOVERN_ROLE",
      "outputs": [
        {
          "internalType": "bytes32",
          "name": "",
          "type": "bytes32"
        }
      ],
      "stateMutability": "view",
      "type": "function"
    },
    {
      "inputs": [
        {
          "internalType": "address",
          "name": "account",
          "type": "address"
        },
        {
          "internalType": "uint256",
          "name": "id",
          "type": "uint256"
        }
      ],
      "name": "balanceOf",
      "outputs": [
        {
          "internalType": "uint256",
          "name": "",
          "type": "uint256"
        }
      ],
      "stateMutability": "view",
      "type": "function"
    },
    {
      "inputs": [
        {
          "internalType": "address[]",
          "name": "accounts",
          "type": "address[]"
        },
        {
          "internalType": "uint256[]",
          "name": "ids",
          "type": "uint256[]"
        }
      ],
      "name": "balanceOfBatch",
      "outputs": [
        {
          "internalType": "uint256[]",
          "name": "",
          "type": "uint256[]"
        }
      ],
      "stateMutability": "view",
      "type": "function"
    },
    {
      "inputs": [
        {
          "internalType": "address",
          "name": "account",
          "type": "address"
        },
        {
          "internalType": "string",
          "name": "credentialSubjectType",
          "type": "string"
        }
      ],
      "name": "balanceOfCredential",
      "outputs": [
        {
          "internalType": "uint256",
          "name": "",
          "type": "uint256"
        }
      ],
      "stateMutability": "view",
      "type": "function"
    },
    {
      "inputs": [
        {
          "internalType": "address",
          "name": "account",
          "type": "address"
        },
        {
          "internalType": "uint256",
          "name": "id",
          "type": "uint256"
        },
        {
          "internalType": "uint256",
          "name": "value",
          "type": "uint256"
        }
      ],
      "name": "burn",
      "outputs": [],
      "stateMutability": "nonpayable",
      "type": "function"
    },
    {
      "inputs": [
        {
          "internalType": "address",
          "name": "account",
          "type": "address"
        },
        {
          "internalType": "uint256[]",
          "name": "ids",
          "type": "uint256[]"
        },
        {
          "internalType": "uint256[]",
          "name": "values",
          "type": "uint256[]"
        }
      ],
      "name": "burnBatch",
      "outputs": [],
      "stateMutability": "nonpayable",
      "type": "function"
    },
    {
      "inputs": [],
      "name": "contractURI",
      "outputs": [
        {
          "internalType": "string",
          "name": "",
          "type": "string"
        }
      ],
      "stateMutability": "view",
      "type": "function"
    },
    {
      "inputs": [
        {
          "internalType": "uint256",
          "name": "",
          "type": "uint256"
        }
      ],
      "name": "credentialMinted",
      "outputs": [
        {
          "internalType": "bool",
          "name": "",
          "type": "bool"
        }
      ],
      "stateMutability": "view",
      "type": "function"
    },
    {
      "inputs": [
        {
          "internalType": "uint256",
          "name": "id",
          "type": "uint256"
        }
      ],
      "name": "exists",
      "outputs": [
        {
          "internalType": "bool",
          "name": "",
          "type": "bool"
        }
      ],
      "stateMutability": "view",
      "type": "function"
    },
    {
      "inputs": [],
      "name": "feesAvailableForWithdraw",
      "outputs": [
        {
          "internalType": "uint256",
          "name": "",
          "type": "uint256"
        }
      ],
      "stateMutability": "view",
      "type": "function"
    },
    {
      "inputs": [],
      "name": "forceRegister",
      "outputs": [
        {
          "internalType": "bool",
          "name": "",
          "type": "bool"
        }
      ],
      "stateMutability": "view",
      "type": "function"
    },
    {
      "inputs": [
        {
          "internalType": "bytes32",
          "name": "role",
          "type": "bytes32"
        }
      ],
      "name": "getRoleAdmin",
      "outputs": [
        {
          "internalType": "bytes32",
          "name": "",
          "type": "bytes32"
        }
      ],
      "stateMutability": "view",
      "type": "function"
    },
    {
      "inputs": [
        {
          "internalType": "bytes32",
          "name": "role",
          "type": "bytes32"
        },
        {
          "internalType": "uint256",
          "name": "index",
          "type": "uint256"
        }
      ],
      "name": "getRoleMember",
      "outputs": [
        {
          "internalType": "address",
          "name": "",
          "type": "address"
        }
      ],
      "stateMutability": "view",
      "type": "function"
    },
    {
      "inputs": [
        {
          "internalType": "bytes32",
          "name": "role",
          "type": "bytes32"
        }
      ],
      "name": "getRoleMemberCount",
      "outputs": [
        {
          "internalType": "uint256",
          "name": "",
          "type": "uint256"
        }
      ],
      "stateMutability": "view",
      "type": "function"
    },
    {
      "inputs": [
        {
          "internalType": "string",
          "name": "credentialSubjectType",
          "type": "string"
        }
      ],
      "name": "getTokenId",
      "outputs": [
        {
          "internalType": "uint256",
          "name": "",
          "type": "uint256"
        }
      ],
      "stateMutability": "view",
      "type": "function"
    },
    {
      "inputs": [
        {
          "internalType": "bytes32",
          "name": "role",
          "type": "bytes32"
        },
        {
          "internalType": "address",
          "name": "account",
          "type": "address"
        }
      ],
      "name": "grantRole",
      "outputs": [],
      "stateMutability": "nonpayable",
      "type": "function"
    },
    {
      "inputs": [
        {
          "internalType": "bytes32",
          "name": "role",
          "type": "bytes32"
        },
        {
          "internalType": "address",
          "name": "account",
          "type": "address"
        }
      ],
      "name": "hasRole",
      "outputs": [
        {
          "internalType": "bool",
          "name": "",
          "type": "bool"
        }
      ],
      "stateMutability": "view",
      "type": "function"
    },
    {
      "inputs": [
        {
          "internalType": "string",
          "name": "uri",
          "type": "string"
        },
        {
          "internalType": "string",
          "name": "collectionURI",
          "type": "string"
        },
        {
          "internalType": "uint256",
          "name": "initialPrice",
          "type": "uint256"
        },
        {
          "internalType": "address",
          "name": "krebitAddress",
          "type": "address"
        }
      ],
      "name": "initialize",
      "outputs": [],
      "stateMutability": "nonpayable",
      "type": "function"
    },
    {
      "inputs": [
        {
          "internalType": "address",
          "name": "account",
          "type": "address"
        },
        {
          "internalType": "address",
          "name": "operator",
          "type": "address"
        }
      ],
      "name": "isApprovedForAll",
      "outputs": [
        {
          "internalType": "bool",
          "name": "",
          "type": "bool"
        }
      ],
      "stateMutability": "view",
      "type": "function"
    },
    {
      "inputs": [
        {
          "internalType": "address",
          "name": "forwarder",
          "type": "address"
        }
      ],
      "name": "isTrustedForwarder",
      "outputs": [
        {
          "internalType": "bool",
          "name": "",
          "type": "bool"
        }
      ],
      "stateMutability": "view",
      "type": "function"
    },
    {
      "inputs": [
        {
          "internalType": "address",
          "name": "to",
          "type": "address"
        },
        {
          "internalType": "string",
          "name": "credentialSubjectType",
          "type": "string"
        },
        {
          "components": [
            {
              "internalType": "string",
              "name": "_context",
              "type": "string"
            },
            {
              "internalType": "string",
              "name": "_type",
              "type": "string"
            },
            {
              "internalType": "string",
              "name": "id",
              "type": "string"
            },
            {
              "components": [
                {
                  "internalType": "string",
                  "name": "id",
                  "type": "string"
                },
                {
                  "internalType": "address",
                  "name": "ethereumAddress",
                  "type": "address"
                }
              ],
              "internalType": "struct VCTypesV01.Issuer",
              "name": "issuer",
              "type": "tuple"
            },
            {
              "components": [
                {
                  "internalType": "string",
                  "name": "id",
                  "type": "string"
                },
                {
                  "internalType": "address",
                  "name": "ethereumAddress",
                  "type": "address"
                },
                {
                  "internalType": "string",
                  "name": "_type",
                  "type": "string"
                },
                {
                  "internalType": "string",
                  "name": "typeSchema",
                  "type": "string"
                },
                {
                  "internalType": "string",
                  "name": "value",
                  "type": "string"
                },
                {
                  "internalType": "string",
                  "name": "encrypted",
                  "type": "string"
                },
                {
                  "internalType": "uint8",
                  "name": "trust",
                  "type": "uint8"
                },
                {
                  "internalType": "uint256",
                  "name": "stake",
                  "type": "uint256"
                },
                {
                  "internalType": "uint256",
                  "name": "price",
                  "type": "uint256"
                },
                {
                  "internalType": "uint256",
                  "name": "nbf",
                  "type": "uint256"
                },
                {
                  "internalType": "uint256",
                  "name": "exp",
                  "type": "uint256"
                }
              ],
              "internalType": "struct VCTypesV01.CredentialSubject",
              "name": "credentialSubject",
              "type": "tuple"
            },
            {
              "components": [
                {
                  "internalType": "string",
                  "name": "id",
                  "type": "string"
                },
                {
                  "internalType": "string",
                  "name": "_type",
                  "type": "string"
                }
              ],
              "internalType": "struct VCTypesV01.CredentialSchema",
              "name": "credentialSchema",
              "type": "tuple"
            },
            {
              "internalType": "string",
              "name": "issuanceDate",
              "type": "string"
            },
            {
              "internalType": "string",
              "name": "expirationDate",
              "type": "string"
            }
          ],
          "internalType": "struct VCTypesV01.VerifiableCredential",
          "name": "vc",
          "type": "tuple"
        },
        {
          "internalType": "bytes",
          "name": "proofValue",
          "type": "bytes"
        },
        {
          "internalType": "bytes",
          "name": "data",
          "type": "bytes"
        }
      ],
      "name": "mintWithCredential",
      "outputs": [],
      "stateMutability": "payable",
      "type": "function"
    },
    {
      "inputs": [],
      "name": "pause",
      "outputs": [],
      "stateMutability": "nonpayable",
      "type": "function"
    },
    {
      "inputs": [],
      "name": "paused",
      "outputs": [
        {
          "internalType": "bool",
          "name": "",
          "type": "bool"
        }
      ],
      "stateMutability": "view",
      "type": "function"
    },
    {
      "inputs": [
        {
          "internalType": "address",
          "name": "dest",
          "type": "address"
        }
      ],
      "name": "payments",
      "outputs": [
        {
          "internalType": "uint256",
          "name": "",
          "type": "uint256"
        }
      ],
      "stateMutability": "view",
      "type": "function"
    },
    {
      "inputs": [],
      "name": "price",
      "outputs": [
        {
          "internalType": "uint256",
          "name": "",
          "type": "uint256"
        }
      ],
      "stateMutability": "view",
      "type": "function"
    },
    {
      "inputs": [],
      "name": "proxiableUUID",
      "outputs": [
        {
          "internalType": "bytes32",
          "name": "",
          "type": "bytes32"
        }
      ],
      "stateMutability": "view",
      "type": "function"
    },
    {
      "inputs": [
        {
          "internalType": "bytes32",
          "name": "role",
          "type": "bytes32"
        },
        {
          "internalType": "address",
          "name": "account",
          "type": "address"
        }
      ],
      "name": "renounceRole",
      "outputs": [],
      "stateMutability": "nonpayable",
      "type": "function"
    },
    {
      "inputs": [
        {
          "internalType": "bytes32",
          "name": "role",
          "type": "bytes32"
        },
        {
          "internalType": "address",
          "name": "account",
          "type": "address"
        }
      ],
      "name": "revokeRole",
      "outputs": [],
      "stateMutability": "nonpayable",
      "type": "function"
    },
    {
      "inputs": [
        {
          "internalType": "address",
          "name": "from",
          "type": "address"
        },
        {
          "internalType": "address",
          "name": "to",
          "type": "address"
        },
        {
          "internalType": "uint256[]",
          "name": "ids",
          "type": "uint256[]"
        },
        {
          "internalType": "uint256[]",
          "name": "amounts",
          "type": "uint256[]"
        },
        {
          "internalType": "bytes",
          "name": "data",
          "type": "bytes"
        }
      ],
      "name": "safeBatchTransferFrom",
      "outputs": [],
      "stateMutability": "nonpayable",
      "type": "function"
    },
    {
      "inputs": [
        {
          "internalType": "address",
          "name": "from",
          "type": "address"
        },
        {
          "internalType": "address",
          "name": "to",
          "type": "address"
        },
        {
          "internalType": "uint256",
          "name": "id",
          "type": "uint256"
        },
        {
          "internalType": "uint256",
          "name": "amount",
          "type": "uint256"
        },
        {
          "internalType": "bytes",
          "name": "data",
          "type": "bytes"
        }
      ],
      "name": "safeTransferFrom",
      "outputs": [],
      "stateMutability": "nonpayable",
      "type": "function"
    },
    {
      "inputs": [
        {
          "internalType": "address",
          "name": "operator",
          "type": "address"
        },
        {
          "internalType": "bool",
          "name": "approved",
          "type": "bool"
        }
      ],
      "name": "setApprovalForAll",
      "outputs": [],
      "stateMutability": "nonpayable",
      "type": "function"
    },
    {
      "inputs": [
        {
          "internalType": "string",
          "name": "newuri",
          "type": "string"
        }
      ],
      "name": "setContractURI",
      "outputs": [],
      "stateMutability": "nonpayable",
      "type": "function"
    },
    {
      "inputs": [
        {
          "internalType": "bool",
          "name": "force",
          "type": "bool"
        }
      ],
      "name": "setContractURI",
      "outputs": [],
      "stateMutability": "nonpayable",
      "type": "function"
    },
    {
      "inputs": [
        {
          "internalType": "uint256",
          "name": "newPrice",
          "type": "uint256"
        }
      ],
      "name": "setPrice",
      "outputs": [],
      "stateMutability": "nonpayable",
      "type": "function"
    },
    {
      "inputs": [
        {
          "internalType": "address",
          "name": "newTrustedForwarder",
          "type": "address"
        }
      ],
      "name": "setTrustedForwarder",
      "outputs": [],
      "stateMutability": "nonpayable",
      "type": "function"
    },
    {
      "inputs": [
        {
          "internalType": "string",
          "name": "newuri",
          "type": "string"
        }
      ],
      "name": "setURI",
      "outputs": [],
      "stateMutability": "nonpayable",
      "type": "function"
    },
    {
      "inputs": [
        {
          "internalType": "bytes4",
          "name": "interfaceId",
          "type": "bytes4"
        }
      ],
      "name": "supportsInterface",
      "outputs": [
        {
          "internalType": "bool",
          "name": "",
          "type": "bool"
        }
      ],
      "stateMutability": "view",
      "type": "function"
    },
    {
      "inputs": [
        {
          "internalType": "uint256",
          "name": "id",
          "type": "uint256"
        }
      ],
      "name": "totalSupply",
      "outputs": [
        {
          "internalType": "uint256",
          "name": "",
          "type": "uint256"
        }
      ],
      "stateMutability": "view",
      "type": "function"
    },
    {
      "inputs": [],
      "name": "trustedForwarder",
      "outputs": [
        {
          "internalType": "address",
          "name": "",
          "type": "address"
        }
      ],
      "stateMutability": "view",
      "type": "function"
    },
    {
      "inputs": [],
      "name": "unpause",
      "outputs": [],
      "stateMutability": "nonpayable",
      "type": "function"
    },
    {
      "inputs": [
        {
          "internalType": "address",
          "name": "newImplementation",
          "type": "address"
        }
      ],
      "name": "upgradeTo",
      "outputs": [],
      "stateMutability": "nonpayable",
      "type": "function"
    },
    {
      "inputs": [
        {
          "internalType": "address",
          "name": "newImplementation",
          "type": "address"
        },
        {
          "internalType": "bytes",
          "name": "data",
          "type": "bytes"
        }
      ],
      "name": "upgradeToAndCall",
      "outputs": [],
      "stateMutability": "payable",
      "type": "function"
    },
    {
      "inputs": [
        {
          "internalType": "uint256",
          "name": "",
          "type": "uint256"
        }
      ],
      "name": "uri",
      "outputs": [
        {
          "internalType": "string",
          "name": "",
          "type": "string"
        }
      ],
      "stateMutability": "view",
      "type": "function"
    },
    {
      "inputs": [
        {
          "internalType": "address payable",
          "name": "_to",
          "type": "address"
        },
        {
          "internalType": "uint256",
          "name": "_amount",
          "type": "uint256"
        }
      ],
      "name": "withdrawFees",
      "outputs": [],
      "stateMutability": "nonpayable",
      "type": "function"
    },
    {
      "inputs": [
        {
          "internalType": "address payable",
          "name": "payee",
          "type": "address"
        }
      ],
      "name": "withdrawPayments",
      "outputs": [],
      "stateMutability": "nonpayable",
      "type": "function"
    }
  ],
  "bytecode": "0x60a0604052306080523480156200001557600080fd5b506200002062000026565b620000e8565b600054610100900460ff1615620000935760405162461bcd60e51b815260206004820152602760248201527f496e697469616c697a61626c653a20636f6e747261637420697320696e697469604482015266616c697a696e6760c81b606482015260840160405180910390fd5b60005460ff9081161015620000e6576000805460ff191660ff9081179091556040519081527f7f26b83ff96e1f2b6a682f133852f6798a09c465da95921460cefb38474024989060200160405180910390a15b565b608051614f346200012060003960008181610b4401528181610b8401528181610d4501528181610d850152610dfd0152614f346000f3fe60806040526004361061023c5760003560e01c80637da0a8771161012f578063bd85b039116100b1578063bd85b039146106b2578063c96ac12a146106e0578063ca15c87314610700578063ca6b12f114610720578063d547741f14610733578063da74222814610753578063de5785d514610773578063e2982c211461078a578063e8a3d485146107aa578063e985e9c5146107bf578063f242432a14610808578063f5298aca1461082857600080fd5b80637da0a877146105635780638456cb59146105915780639010d07c146105a657806391b7f5ed146105c657806391d14854146105e6578063938e3d7b14610606578063a035b1fe14610626578063a217fddf1461063d578063a22cb46514610652578063ad3b1b4714610672578063bd3a13f61461069257600080fd5b806336568abe116101c357806336568abe146103f45780633659cfe61461041457806337b0f07d1461043457806338b7f4461461044f5780633f4ba83a146104715780634e1273f4146104865780634f1ef286146104b35780634f558e79146104c657806352d1902d146104f6578063572b6c051461050b5780635c975abb1461052b5780636b20c4541461054357600080fd5b8062fdd58e1461024157806301ffc9a71461027457806302fe5305146102a457806306b6ac69146102c65780630e89341c146102e65780631e7663bc146103135780631ecd348014610333578063248a9ca3146103645780632eb2c2d6146103945780632f2ff15d146103b457806331b3eb94146103d4575b600080fd5b34801561024d57600080fd5b5061026161025c36600461397a565b610848565b6040519081526020015b60405180910390f35b34801561028057600080fd5b5061029461028f3660046139bc565b6108a4565b604051901515815260200161026b565b3480156102b057600080fd5b506102c46102bf366004613b0f565b6108af565b005b3480156102d257600080fd5b506102616102e1366004613b4b565b6108c3565b3480156102f257600080fd5b50610306610301366004613b9a565b6108ff565b60405161026b9190613c0b565b34801561031f57600080fd5b5061026161032e366004613b0f565b610993565b34801561033f57600080fd5b5061029461034e366004613b9a565b6102926020526000908152604090205460ff1681565b34801561037057600080fd5b5061026161037f366004613b9a565b60009081526065602052604090206001015490565b3480156103a057600080fd5b506102c46103af366004613cb2565b6109c4565b3480156103c057600080fd5b506102c46103cf366004613d5f565b610a22565b3480156103e057600080fd5b506102c46103ef366004613d8f565b610a4c565b34801561040057600080fd5b506102c461040f366004613d5f565b610aab565b34801561042057600080fd5b506102c461042f366004613d8f565b610b39565b34801561044057600080fd5b50610291546102949060ff1681565b34801561045b57600080fd5b50610261600080516020614e9883398151915281565b34801561047d57600080fd5b506102c4610bff565b34801561049257600080fd5b506104a66104a1366004613dac565b610c11565b60405161026b9190613ea9565b6102c46104c1366004613b4b565b610d3a565b3480156104d257600080fd5b506102946104e1366004613b9a565b60009081526101916020526040902054151590565b34801561050257600080fd5b50610261610df0565b34801561051757600080fd5b50610294610526366004613d8f565b610e9f565b34801561053757600080fd5b5060fb5460ff16610294565b34801561054f57600080fd5b506102c461055e366004613ebc565b610eb4565b34801561056f57600080fd5b5061028e54610584906001600160a01b031681565b60405161026b9190613f31565b34801561059d57600080fd5b506102c4610f09565b3480156105b257600080fd5b506105846105c1366004613f45565b610f19565b3480156105d257600080fd5b506102c46105e1366004613b9a565b610f31565b3480156105f257600080fd5b50610294610601366004613d5f565b610f6b565b34801561061257600080fd5b506102c4610621366004613b0f565b610f96565b34801561063257600080fd5b5061026161028f5481565b34801561064957600080fd5b50610261600081565b34801561065e57600080fd5b506102c461066d366004613f75565b610fb2565b34801561067e57600080fd5b506102c461068d36600461397a565b610fc4565b34801561069e57600080fd5b506102c46106ad366004613fa3565b61100b565b3480156106be57600080fd5b506102616106cd366004613b9a565b6000908152610191602052604090205490565b3480156106ec57600080fd5b506102c46106fb366004614022565b61112a565b34801561070c57600080fd5b5061026161071b366004613b9a565b611146565b6102c461072e366004614253565b61115d565b34801561073f57600080fd5b506102c461074e366004613d5f565b6116f4565b34801561075f57600080fd5b506102c461076e366004613d8f565b611719565b34801561077f57600080fd5b506102616102905481565b34801561079657600080fd5b506102616107a5366004613d8f565b611769565b3480156107b657600080fd5b506103066117dc565b3480156107cb57600080fd5b506102946107da36600461440d565b6001600160a01b03918216600090815260ca6020908152604080832093909416825291909152205460ff1690565b34801561081457600080fd5b506102c461082336600461443b565b61186f565b34801561083457600080fd5b506102c46108433660046144a3565b6118c6565b60006001600160a01b0383166108795760405162461bcd60e51b8152600401610870906144d8565b60405180910390fd5b50600081815260c9602090815260408083206001600160a01b03861684529091529020545b92915050565b600061089e8261191b565b6108b761195b565b6108c0816119c1565b50565b60006001600160a01b0383166108eb5760405162461bcd60e51b8152600401610870906144d8565b6108f88361025c84610993565b9392505050565b606060cb805461090e90614522565b80601f016020809104026020016040519081016040528092919081815260200182805461093a90614522565b80156109875780601f1061095c57610100808354040283529160200191610987565b820191906000526020600020905b81548152906001019060200180831161096a57829003601f168201915b50505050509050919050565b6000816040516020016109a69190613c0b565b60408051601f19818403018152919052805160209091012092915050565b6109cc6119d4565b6001600160a01b0316856001600160a01b031614806109f257506109f2856107da6119d4565b610a0e5760405162461bcd60e51b81526004016108709061455d565b610a1b85858585856119f6565b5050505050565b600082815260656020526040902060010154610a3d81611bae565b610a478383611bbf565b505050565b610227546040516351cff8d960e01b81526001600160a01b03909116906351cff8d990610a7d908490600401613f31565b600060405180830381600087803b158015610a9757600080fd5b505af1158015610a1b573d6000803e3d6000fd5b610ab36119d4565b6001600160a01b0316816001600160a01b031614610b2b5760405162461bcd60e51b815260206004820152602f60248201527f416363657373436f6e74726f6c3a2063616e206f6e6c792072656e6f756e636560448201526e103937b632b9903337b91039b2b63360891b6064820152608401610870565b610b358282611be1565b5050565b306001600160a01b037f0000000000000000000000000000000000000000000000000000000000000000161415610b825760405162461bcd60e51b8152600401610870906145ab565b7f00000000000000000000000000000000000000000000000000000000000000006001600160a01b0316610bb4611c03565b6001600160a01b031614610bda5760405162461bcd60e51b8152600401610870906145f7565b610be381611c1f565b604080516000808252602082019092526108c091839190611c27565b610c0761195b565b610c0f611d92565b565b60608151835114610c765760405162461bcd60e51b815260206004820152602960248201527f455243313135353a206163636f756e747320616e6420696473206c656e677468604482015268040dad2e6dac2e8c6d60bb1b6064820152608401610870565b600083516001600160401b03811115610c9157610c916139d9565b604051908082528060200260200182016040528015610cba578160200160208202803683370190505b50905060005b8451811015610d3257610d05858281518110610cde57610cde614643565b6020026020010151858381518110610cf857610cf8614643565b6020026020010151610848565b828281518110610d1757610d17614643565b6020908102919091010152610d2b8161466f565b9050610cc0565b509392505050565b306001600160a01b037f0000000000000000000000000000000000000000000000000000000000000000161415610d835760405162461bcd60e51b8152600401610870906145ab565b7f00000000000000000000000000000000000000000000000000000000000000006001600160a01b0316610db5611c03565b6001600160a01b031614610ddb5760405162461bcd60e51b8152600401610870906145f7565b610de482611c1f565b610b3582826001611c27565b6000306001600160a01b037f00000000000000000000000000000000000000000000000000000000000000001614610e8b5760405162461bcd60e51b815260206004820152603860248201527f555550535570677261646561626c653a206d757374206e6f742062652063616c6044820152771b1959081d1a1c9bdd59da0819195b1959d85d1958d85b1b60421b6064820152608401610870565b50600080516020614eb88339815191525b90565b61028e546001600160a01b0391821691161490565b610ebc6119d4565b6001600160a01b0316836001600160a01b03161480610ee25750610ee2836107da6119d4565b610efe5760405162461bcd60e51b81526004016108709061455d565b610a47838383611de4565b610f1161195b565b610c0f611f8c565b60008281526097602052604081206108f89083611fca565b610f3961195b565b61028f8190556040517ff2e795d4a33ae9a0d3282888375b8ae781ea4de1cbf101ac96150aa95ccff0b490600090a150565b60009182526065602090815260408084206001600160a01b0393909316845291905290205460ff1690565b610f9e61195b565b8051610b359061028d9060208401906138bc565b610b35610fbd6119d4565b8383611fd6565b610fcc6120b7565b610fd461195b565b61029054811115610fe457600080fd5b61029054610ff29082612113565b61029055611000828261211f565b610b35600161025a55565b600054610100900460ff161580801561102b5750600054600160ff909116105b8061104c575061103a30612188565b15801561104c575060005460ff166001145b6110af5760405162461bcd60e51b815260206004820152602e60248201527f496e697469616c697a61626c653a20636f6e747261637420697320616c72656160448201526d191e481a5b9a5d1a585b1a5e995960921b6064820152608401610870565b6000805460ff1916600117905580156110d2576000805461ff0019166101001790555b6110de85858585612197565b8015610a1b576000805461ff0019169055604051600181527f7f26b83ff96e1f2b6a682f133852f6798a09c465da95921460cefb38474024989060200160405180910390a15050505050565b61113261195b565b610291805460ff1916911515919091179055565b600081815260976020526040812061089e90612234565b61116561223e565b61117f600080516020614e988339815191526106016119d4565b806111aa575061118d6119d4565b6001600160a01b03168360800151602001516001600160a01b0316145b6112155760405162461bcd60e51b815260206004820152603660248201527f4b5242546f6b656e3a2073656e646572206d757374206265207468652063726560448201527564656e7469616c5375626a656374206164647265737360501b6064820152608401610870565b846001600160a01b03168360800151602001516001600160a01b03161461129f5760405162461bcd60e51b815260206004820152603860248201527f4d696e7420746f2061646472657373206d757374206265207468652076632e63604482015277726564656e7469616c5375626a656374206164647265737360401b6064820152608401610870565b6112a883612284565b836040516020016112b99190613c0b565b604051602081830303815290604052805190602001208360800151604001516040516020016112e89190613c0b565b60405160208183030381529060405280519060200120146113715760405162461bcd60e51b815260206004820152603e60248201527f76632e63726564656e7469616c5375626a6563742e5f7479706520646f65736e60448201527f2774206d617463682063726564656e7469616c5375626a6563745479706500006064820152608401610870565b600061137c8461256a565b6000818152610292602052604090205490915060ff16156113db5760405162461bcd60e51b815260206004820152601960248201527810dc9959195b9d1a585b08185b1c9958591e481b5a5b9d1959603a1b6044820152606401610870565b6102915460ff1680156114c75750604051602001611411906020808252600490820152634e6f6e6560e01b604082015260600190565b60408051601f1981840301815290829052805160209091012061028c5463606a836b60e11b835290916001600160a01b039091169063c0d506d69061145a90889060040161489a565b600060405180830381865afa158015611477573d6000803e3d6000fd5b505050506040513d6000823e601f3d908101601f1916820160405261149f91908101906148ad565b6040516020016114af9190613c0b565b60405160208183030381529060405280519060200120145b156116115761028c5460808501516101000151604051636f64e57f60e11b81526000926001600160a01b03169163dec9cafe9161150a908990899060040161492e565b60206040518083038185885af1158015611528573d6000803e3d6000fd5b50505050506040513d601f19601f8201168201806040525081019061154d9190614953565b9050806115a75760405162461bcd60e51b815260206004820152602260248201527f43726564656e7469616c206661696c656420746f206265207265676973746572604482015261195960f21b6064820152608401610870565b61028f54608086015161010001516115c0903490612113565b10156115de5760405162461bcd60e51b815260040161087090614970565b6116076115fd866080015161010001513461211390919063ffffffff16565b610290549061265e565b61029055506116be565b61028c546060850151602001516001600160a01b039091169063b25dd4fc906116398761256a565b866040518463ffffffff1660e01b8152600401611658939291906149b7565b60006040518083038186803b15801561167057600080fd5b505afa158015611684573d6000803e3d6000fd5b5050505061028f543410156116ab5760405162461bcd60e51b815260040161087090614970565b610290546116b9903461265e565b610290555b6116d3866116cb87610993565b60018561266a565b600090815261029260205260409020805460ff191660011790555050505050565b60008281526065602052604090206001015461170f81611bae565b610a478383611be1565b61172161195b565b61028e80546001600160a01b0319166001600160a01b0383161790556040517ff2e795d4a33ae9a0d3282888375b8ae781ea4de1cbf101ac96150aa95ccff0b490600090a150565b610227546040516371d4ed8d60e11b81526000916001600160a01b03169063e3a9db1a9061179b908590600401613f31565b602060405180830381865afa1580156117b8573d6000803e3d6000fd5b505050506040513d601f19601f8201168201806040525081019061089e91906149de565b606061028d80546117ec90614522565b80601f016020809104026020016040519081016040528092919081815260200182805461181890614522565b80156118655780601f1061183a57610100808354040283529160200191611865565b820191906000526020600020905b81548152906001019060200180831161184857829003601f168201915b5050505050905090565b6118776119d4565b6001600160a01b0316856001600160a01b0316148061189d575061189d856107da6119d4565b6118b95760405162461bcd60e51b81526004016108709061455d565b610a1b858585858561277f565b6118ce6119d4565b6001600160a01b0316836001600160a01b031614806118f457506118f4836107da6119d4565b6119105760405162461bcd60e51b81526004016108709061455d565b610a478383836128b4565b60006001600160e01b03198216636cdb3d1360e11b148061194c57506001600160e01b031982166303a24d0760e21b145b8061089e575061089e826129c9565b611975600080516020614e988339815191526106016119d4565b610c0f5760405162461bcd60e51b815260206004820181905260248201527f4b72656269744e46543a206d757374206861766520676f7665726e20726f6c656044820152606401610870565b8051610b359060cb9060208401906138bc565b60006119df33610e9f565b156119f1575060131936013560601c90565b503390565b8151835114611a175760405162461bcd60e51b8152600401610870906149f7565b6001600160a01b038416611a3d5760405162461bcd60e51b815260040161087090614a3f565b6000611a476119d4565b9050611a578187878787876129ee565b60005b8451811015611b40576000858281518110611a7757611a77614643565b602002602001015190506000858381518110611a9557611a95614643565b602090810291909101810151600084815260c9835260408082206001600160a01b038e168352909352919091205490915081811015611ae65760405162461bcd60e51b815260040161087090614a84565b600083815260c9602090815260408083206001600160a01b038e8116855292528083208585039055908b16825281208054849290611b25908490614ace565b9250508190555050505080611b399061466f565b9050611a5a565b50846001600160a01b0316866001600160a01b0316826001600160a01b03167f4a39dc06d4c0dbc64b70af90fd698a233a518aa5d07e595d983b8c0526c8f7fb8787604051611b90929190614ae6565b60405180910390a4611ba6818787878787612a99565b505050505050565b6108c081611bba6119d4565b612bfc565b611bc98282612c55565b6000828152609760205260409020610a479082612cdc565b611beb8282612cf1565b6000828152609760205260409020610a479082612d76565b600080516020614eb8833981519152546001600160a01b031690565b6108c061195b565b7f4910fdfa16fed3260ed0e7147f7cc6da11a60208b5b9406d12a635614ffd91435460ff1615611c5a57610a4783612d8b565b826001600160a01b03166352d1902d6040518163ffffffff1660e01b8152600401602060405180830381865afa925050508015611cb4575060408051601f3d908101601f19168201909252611cb1918101906149de565b60015b611d175760405162461bcd60e51b815260206004820152602e60248201527f45524331393637557067726164653a206e657720696d706c656d656e7461746960448201526d6f6e206973206e6f74205555505360901b6064820152608401610870565b600080516020614eb88339815191528114611d865760405162461bcd60e51b815260206004820152602960248201527f45524331393637557067726164653a20756e737570706f727465642070726f786044820152681a58589b195555525160ba1b6064820152608401610870565b50610a47838383612e25565b611d9a612e4a565b60fb805460ff191690557f5db9ee0a495bf2e6ff9c91a7834c1ba4fdd244a5e8aa4e537bd38aeae4b073aa611dcd6119d4565b604051611dda9190613f31565b60405180910390a1565b6001600160a01b038316611e0a5760405162461bcd60e51b815260040161087090614b0b565b8051825114611e2b5760405162461bcd60e51b8152600401610870906149f7565b6000611e356119d4565b9050611e55818560008686604051806020016040528060008152506129ee565b60005b8351811015611f1d576000848281518110611e7557611e75614643565b602002602001015190506000848381518110611e9357611e93614643565b602090810291909101810151600084815260c9835260408082206001600160a01b038c168352909352919091205490915081811015611ee45760405162461bcd60e51b815260040161087090614b4e565b600092835260c9602090815260408085206001600160a01b038b1686529091529092209103905580611f158161466f565b915050611e58565b5060006001600160a01b0316846001600160a01b0316826001600160a01b03167f4a39dc06d4c0dbc64b70af90fd698a233a518aa5d07e595d983b8c0526c8f7fb8686604051611f6e929190614ae6565b60405180910390a46040805160208101909152600090525b50505050565b611f9461223e565b60fb805460ff191660011790557f62e78cea01bee320cd4e420270b5ea74000d11b0c9f74754ebdbfc544b05a258611dcd6119d4565b60006108f88383612e93565b816001600160a01b0316836001600160a01b0316141561204a5760405162461bcd60e51b815260206004820152602960248201527f455243313135353a2073657474696e6720617070726f76616c20737461747573604482015268103337b91039b2b63360b91b6064820152608401610870565b6001600160a01b03838116600081815260ca6020908152604080832094871680845294825291829020805460ff191686151590811790915591519182527f17307eab39ab6107e8899845ad3d59bd9653f200f220920489ca2b5937696c31910160405180910390a3505050565b600261025a54141561210b5760405162461bcd60e51b815260206004820152601f60248201527f5265656e7472616e637947756172643a207265656e7472616e742063616c6c006044820152606401610870565b600261025a55565b60006108f88284614b92565b6102275460405163f340fa0160e01b81526001600160a01b039091169063f340fa01908390612152908690600401613f31565b6000604051808303818588803b15801561216b57600080fd5b505af115801561217f573d6000803e3d6000fd5b50505050505050565b6001600160a01b03163b151590565b600054610100900460ff166121be5760405162461bcd60e51b815260040161087090614ba9565b6121c784612ebd565b6121cf612ee4565b6121d7612f0b565b6121df612ee4565b6121e7612ee4565b61028c80546001600160a01b0319166001600160a01b03831617905582516122179061028d9060208601906138bc565b5061028f829055610291805460ff19166001179055611f86612f3e565b600061089e825490565b60fb5460ff1615610c0f5760405162461bcd60e51b815260206004820152601060248201526f14185d5cd8589b194e881c185d5cd95960821b6044820152606401610870565b6060810151602001516001600160a01b03166122e25760405162461bcd60e51b815260206004820152601c60248201527f4b5242546f6b656e3a20626164206973737565722061646472657373000000006044820152606401610870565b6080810151602001516001600160a01b03166123505760405162461bcd60e51b815260206004820152602760248201527f4b5242546f6b656e3a206261642063726564656e7469616c5375626a656374206044820152666164647265737360c81b6064820152608401610870565b6080810151516040516123669190602001613c0b565b60408051601f1981840301815290829052805160209182012060608401515190926123919201613c0b565b6040516020818303038152906040528051906020012014156124135760405162461bcd60e51b815260206004820152603560248201527f4b5242546f6b656e3a2069737375657220444944206973207468652073616d6560448201527408185cc818dc9959195b9d1a585b14dd589a9958dd605a1b6064820152608401610870565b8060800151602001516001600160a01b03168160600151602001516001600160a01b031614156124a75760405162461bcd60e51b815260206004820152603960248201527f4b5242546f6b656e3a20697373756572206164647265737320697320746865206044820152781cd85b5948185cc818dc9959195b9d1a585b14dd589a9958dd603a1b6064820152608401610870565b8060800151610120015142116125125760405162461bcd60e51b815260206004820152602a60248201527f4b5242546f6b656e3a2056432069737375616e63654461746520697320696e206044820152697468652066757475726560b01b6064820152608401610870565b8060800151610140015142106108c05760405162461bcd60e51b815260206004820181905260248201527f4b5242546f6b656e3a2056432068617320616c726561647920657870697265646044820152606401610870565b60007f63c4847aa3662952b34b8f76f3abc371c24535ee34fce5b3df34d029db924d4e60001b8260000151805190602001208360200151805190602001208460400151805190602001206125c18660600151612f91565b6125ce8760800151612fea565b6125db8860a001516130e3565b60c0890151805160209182012060e08b01518051908301206040516126419a9998979695949301988952602089019790975260408801959095526060870193909352608086019190915260a085015260c084015260e08301526101008201526101200190565b604051602081830303815290604052805190602001209050919050565b60006108f88284614ace565b6001600160a01b0384166126ca5760405162461bcd60e51b815260206004820152602160248201527f455243313135353a206d696e7420746f20746865207a65726f206164647265736044820152607360f81b6064820152608401610870565b60006126d46119d4565b905060006126e185613139565b905060006126ee85613139565b90506126ff836000898585896129ee565b600086815260c9602090815260408083206001600160a01b038b16845290915281208054879290612731908490614ace565b909155505060408051878152602081018790526001600160a01b03808a169260009291871691600080516020614e78833981519152910160405180910390a461217f83600089898989613184565b6001600160a01b0384166127a55760405162461bcd60e51b815260040161087090614a3f565b60006127af6119d4565b905060006127bc85613139565b905060006127c985613139565b90506127d98389898585896129ee565b600086815260c9602090815260408083206001600160a01b038c1684529091529020548581101561281c5760405162461bcd60e51b815260040161087090614a84565b600087815260c9602090815260408083206001600160a01b038d8116855292528083208985039055908a1682528120805488929061285b908490614ace565b909155505060408051888152602081018890526001600160a01b03808b16928c82169291881691600080516020614e78833981519152910160405180910390a46128a9848a8a8a8a8a613184565b505050505050505050565b6001600160a01b0383166128da5760405162461bcd60e51b815260040161087090614b0b565b60006128e46119d4565b905060006128f184613139565b905060006128fe84613139565b905061291e838760008585604051806020016040528060008152506129ee565b600085815260c9602090815260408083206001600160a01b038a168452909152902054848110156129615760405162461bcd60e51b815260040161087090614b4e565b600086815260c9602090815260408083206001600160a01b038b81168086529184528285208a8703905582518b81529384018a9052909290881691600080516020614e78833981519152910160405180910390a460408051602081019091526000905261217f565b60006001600160e01b03198216635a05180f60e01b148061089e575061089e82613246565b6129f661223e565b612a0486868686868661327b565b612a1e600080516020614e988339815191526106016119d4565b80612a3057506001600160a01b038516155b80612a4257506001600160a01b038416155b611ba65760405162461bcd60e51b815260206004820152602260248201527f4b72656269744e46543a205472616e7366657273206e6f7420737570706f7274604482015261195960f21b6064820152608401610870565b612aab846001600160a01b0316612188565b15611ba65760405163bc197c8160e01b81526001600160a01b0385169063bc197c8190612ae49089908990889088908890600401614bf4565b6020604051808303816000875af1925050508015612b1f575060408051601f3d908101601f19168201909252612b1c91810190614c52565b60015b612bcc57612b2b614c6f565b806308c379a01415612b655750612b40614c8a565b80612b4b5750612b67565b8060405162461bcd60e51b81526004016108709190613c0b565b505b60405162461bcd60e51b815260206004820152603460248201527f455243313135353a207472616e7366657220746f206e6f6e2d455243313135356044820152732932b1b2b4bb32b91034b6b83632b6b2b73a32b960611b6064820152608401610870565b6001600160e01b0319811663bc197c8160e01b1461217f5760405162461bcd60e51b815260040161087090614d13565b612c068282610f6b565b610b3557612c1381613405565b612c1e836020613417565b604051602001612c2f929190614d5b565b60408051601f198184030181529082905262461bcd60e51b825261087091600401613c0b565b612c5f8282610f6b565b610b355760008281526065602090815260408083206001600160a01b03851684529091529020805460ff19166001179055612c986119d4565b6001600160a01b0316816001600160a01b0316837f2f8788117e7eff1d82e926ec794901d17c78024a50270940304540a733656f0d60405160405180910390a45050565b60006108f8836001600160a01b0384166135b2565b612cfb8282610f6b565b15610b355760008281526065602090815260408083206001600160a01b03851684529091529020805460ff19169055612d326119d4565b6001600160a01b0316816001600160a01b0316837ff6391f5c32d9c69d2a47ea670b442974b53935d1edc7fd64eb21e047a839171b60405160405180910390a45050565b60006108f8836001600160a01b038416613601565b612d9481612188565b612df65760405162461bcd60e51b815260206004820152602d60248201527f455243313936373a206e657720696d706c656d656e746174696f6e206973206e60448201526c1bdd08184818dbdb9d1c9858dd609a1b6064820152608401610870565b600080516020614eb883398151915280546001600160a01b0319166001600160a01b0392909216919091179055565b612e2e836136f4565b600082511180612e3b5750805b15610a4757611f868383613734565b60fb5460ff16610c0f5760405162461bcd60e51b815260206004820152601460248201527314185d5cd8589b194e881b9bdd081c185d5cd95960621b6044820152606401610870565b6000826000018281548110612eaa57612eaa614643565b9060005260206000200154905092915050565b600054610100900460ff166108b75760405162461bcd60e51b815260040161087090614ba9565b600054610100900460ff16610c0f5760405162461bcd60e51b815260040161087090614ba9565b600054610100900460ff16612f325760405162461bcd60e51b815260040161087090614ba9565b60fb805460ff19169055565b600054610100900460ff16612f655760405162461bcd60e51b815260040161087090614ba9565b612f776000612f726119d4565b613826565b610c0f600080516020614e98833981519152612f726119d4565b8051805160209182012081830151604080517fabb691e6e52ceb1ff8b3df91dc14323057e88efa3252486ed994fd62706cdfaa948101949094528301919091526001600160a01b03166060820152600090608001612641565b60007f4b87db6c5998f503ac6519b5a7d74efcf2a230368deeaf54dd8bf078da459ff760001b82600001518051906020012083602001518460400151805190602001208560600151805190602001208660800151805190602001208760a00151805190602001208860c001518960e001518a61010001518b61012001518c61014001516040516020016126419c9b9a999897969594939291909b8c5260208c019a909a526001600160a01b039890981660408b015260608a0196909652608089019490945260a088019290925260c087015260ff1660e08601526101008501526101208401526101408301526101608201526101800190565b8051805160209182012081830151805190830120604080517f1a58b7c56676b62343f37f4f3603a07ae6dd78bea300689bcefef0f9498c6cc9948101949094528301919091526060820152600090608001612641565b6040805160018082528183019092526060916000919060208083019080368337019050509050828160008151811061317357613173614643565b602090810291909101015292915050565b613196846001600160a01b0316612188565b15611ba65760405163f23a6e6160e01b81526001600160a01b0385169063f23a6e61906131cf9089908990889088908890600401614dca565b6020604051808303816000875af192505050801561320a575060408051601f3d908101601f1916820190925261320791810190614c52565b60015b61321657612b2b614c6f565b6001600160e01b0319811663f23a6e6160e01b1461217f5760405162461bcd60e51b815260040161087090614d13565b60006001600160e01b03198216637965db0b60e01b148061089e57506301ffc9a760e01b6001600160e01b031983161461089e565b613289868686868686613830565b6001600160a01b0385166133115760005b835181101561330f578281815181106132b5576132b5614643565b602002602001015161019160008684815181106132d4576132d4614643565b6020026020010151815260200190815260200160002060008282546132f99190614ace565b9091555061330890508161466f565b905061329a565b505b6001600160a01b038416611ba65760005b835181101561217f57600084828151811061333f5761333f614643565b60200260200101519050600084838151811061335d5761335d614643565b6020026020010151905060006101916000848152602001908152602001600020549050818110156133e15760405162461bcd60e51b815260206004820152602860248201527f455243313135353a206275726e20616d6f756e74206578636565647320746f74604482015267616c537570706c7960c01b6064820152608401610870565b60009283526101916020526040909220910390556133fe8161466f565b9050613322565b606061089e6001600160a01b03831660145b60606000613426836002614e0f565b613431906002614ace565b6001600160401b03811115613448576134486139d9565b6040519080825280601f01601f191660200182016040528015613472576020820181803683370190505b509050600360fc1b8160008151811061348d5761348d614643565b60200101906001600160f81b031916908160001a905350600f60fb1b816001815181106134bc576134bc614643565b60200101906001600160f81b031916908160001a90535060006134e0846002614e0f565b6134eb906001614ace565b90505b6001811115613563576f181899199a1a9b1b9c1cb0b131b232b360811b85600f166010811061351f5761351f614643565b1a60f81b82828151811061353557613535614643565b60200101906001600160f81b031916908160001a90535060049490941c9361355c81614e2e565b90506134ee565b5083156108f85760405162461bcd60e51b815260206004820181905260248201527f537472696e67733a20686578206c656e67746820696e73756666696369656e746044820152606401610870565b60008181526001830160205260408120546135f95750815460018181018455600084815260208082209093018490558454848252828601909352604090209190915561089e565b50600061089e565b600081815260018301602052604081205480156136ea576000613625600183614b92565b855490915060009061363990600190614b92565b905081811461369e57600086600001828154811061365957613659614643565b906000526020600020015490508087600001848154811061367c5761367c614643565b6000918252602080832090910192909255918252600188019052604090208390555b85548690806136af576136af614e45565b60019003818190600052602060002001600090559055856001016000868152602001908152602001600020600090556001935050505061089e565b600091505061089e565b6136fd81612d8b565b6040516001600160a01b038216907fbc7cd75a20ee27fd9adebab32041f755214dbc6bffa90cc0225b39da2e5c2d3b90600090a250565b606061373f83612188565b61379a5760405162461bcd60e51b815260206004820152602660248201527f416464726573733a2064656c65676174652063616c6c20746f206e6f6e2d636f6044820152651b9d1c9858dd60d21b6064820152608401610870565b600080846001600160a01b0316846040516137b59190614e5b565b600060405180830381855af49150503d80600081146137f0576040519150601f19603f3d011682016040523d82523d6000602084013e6137f5565b606091505b509150915061381d8282604051806060016040528060278152602001614ed860279139613898565b95945050505050565b610b358282611bbf565b60fb5460ff1615611ba65760405162461bcd60e51b815260206004820152602c60248201527f455243313135355061757361626c653a20746f6b656e207472616e736665722060448201526b1dda1a5b19481c185d5cd95960a21b6064820152608401610870565b606083156138a75750816108f8565b6108f88383815115612b4b5781518083602001fd5b8280546138c890614522565b90600052602060002090601f0160209004810192826138ea5760008555613930565b82601f1061390357805160ff1916838001178555613930565b82800160010185558215613930579182015b82811115613930578251825591602001919060010190613915565b5061393c929150613940565b5090565b5b8082111561393c5760008155600101613941565b6001600160a01b03811681146108c057600080fd5b803561397581613955565b919050565b6000806040838503121561398d57600080fd5b823561399881613955565b946020939093013593505050565b6001600160e01b0319811681146108c057600080fd5b6000602082840312156139ce57600080fd5b81356108f8816139a6565b634e487b7160e01b600052604160045260246000fd5b604081018181106001600160401b0382111715613a0e57613a0e6139d9565b60405250565b601f8201601f191681016001600160401b0381118282101715613a3957613a396139d9565b6040525050565b60405161016081016001600160401b0381118282101715613a6357613a636139d9565b60405290565b60405161010081016001600160401b0381118282101715613a6357613a636139d9565b60006001600160401b03821115613aa557613aa56139d9565b50601f01601f191660200190565b600082601f830112613ac457600080fd5b8135613acf81613a8c565b604051613adc8282613a14565b828152856020848701011115613af157600080fd5b82602086016020830137600092810160200192909252509392505050565b600060208284031215613b2157600080fd5b81356001600160401b03811115613b3757600080fd5b613b4384828501613ab3565b949350505050565b60008060408385031215613b5e57600080fd5b8235613b6981613955565b915060208301356001600160401b03811115613b8457600080fd5b613b9085828601613ab3565b9150509250929050565b600060208284031215613bac57600080fd5b5035919050565b60005b83811015613bce578181015183820152602001613bb6565b83811115611f865750506000910152565b60008151808452613bf7816020860160208601613bb3565b601f01601f19169290920160200192915050565b6020815260006108f86020830184613bdf565b60006001600160401b03821115613c3757613c376139d9565b5060051b60200190565b600082601f830112613c5257600080fd5b81356020613c5f82613c1e565b604051613c6c8282613a14565b83815260059390931b8501820192828101915086841115613c8c57600080fd5b8286015b84811015613ca75780358352918301918301613c90565b509695505050505050565b600080600080600060a08688031215613cca57600080fd5b8535613cd581613955565b94506020860135613ce581613955565b935060408601356001600160401b0380821115613d0157600080fd5b613d0d89838a01613c41565b94506060880135915080821115613d2357600080fd5b613d2f89838a01613c41565b93506080880135915080821115613d4557600080fd5b50613d5288828901613ab3565b9150509295509295909350565b60008060408385031215613d7257600080fd5b823591506020830135613d8481613955565b809150509250929050565b600060208284031215613da157600080fd5b81356108f881613955565b60008060408385031215613dbf57600080fd5b82356001600160401b0380821115613dd657600080fd5b818501915085601f830112613dea57600080fd5b81356020613df782613c1e565b604051613e048282613a14565b83815260059390931b8501820192828101915089841115613e2457600080fd5b948201945b83861015613e4b578535613e3c81613955565b82529482019490820190613e29565b96505086013592505080821115613e6157600080fd5b50613b9085828601613c41565b600081518084526020808501945080840160005b83811015613e9e57815187529582019590820190600101613e82565b509495945050505050565b6020815260006108f86020830184613e6e565b600080600060608486031215613ed157600080fd5b8335613edc81613955565b925060208401356001600160401b0380821115613ef857600080fd5b613f0487838801613c41565b93506040860135915080821115613f1a57600080fd5b50613f2786828701613c41565b9150509250925092565b6001600160a01b0391909116815260200190565b60008060408385031215613f5857600080fd5b50508035926020909101359150565b80151581146108c057600080fd5b60008060408385031215613f8857600080fd5b8235613f9381613955565b91506020830135613d8481613f67565b60008060008060808587031215613fb957600080fd5b84356001600160401b0380821115613fd057600080fd5b613fdc88838901613ab3565b95506020870135915080821115613ff257600080fd5b50613fff87828801613ab3565b93505060408501359150606085013561401781613955565b939692955090935050565b60006020828403121561403457600080fd5b81356108f881613f67565b60006040828403121561405157600080fd5b60405161405d816139ef565b80915082356001600160401b0381111561407657600080fd5b61408285828601613ab3565b825250602083013561409381613955565b6020919091015292915050565b803560ff8116811461397557600080fd5b600061016082840312156140c457600080fd5b6140cc613a40565b905081356001600160401b03808211156140e557600080fd5b6140f185838601613ab3565b83526140ff6020850161396a565b6020840152604084013591508082111561411857600080fd5b61412485838601613ab3565b6040840152606084013591508082111561413d57600080fd5b61414985838601613ab3565b6060840152608084013591508082111561416257600080fd5b61416e85838601613ab3565b608084015260a084013591508082111561418757600080fd5b5061419484828501613ab3565b60a0830152506141a660c083016140a0565b60c082015260e082013560e082015261010080830135818301525061012080830135818301525061014080830135818301525092915050565b6000604082840312156141f157600080fd5b6040516141fd816139ef565b80915082356001600160401b038082111561421757600080fd5b61422386838701613ab3565b8352602085013591508082111561423957600080fd5b5061424685828601613ab3565b6020830152505092915050565b600080600080600060a0868803121561426b57600080fd5b853561427681613955565b945060208601356001600160401b038082111561429257600080fd5b61429e89838a01613ab3565b955060408801359150808211156142b457600080fd5b90870190610100828a0312156142c957600080fd5b6142d1613a69565b8235828111156142e057600080fd5b6142ec8b828601613ab3565b82525060208301358281111561430157600080fd5b61430d8b828601613ab3565b60208301525060408301358281111561432557600080fd5b6143318b828601613ab3565b60408301525060608301358281111561434957600080fd5b6143558b82860161403f565b60608301525060808301358281111561436d57600080fd5b6143798b8286016140b1565b60808301525060a08301358281111561439157600080fd5b61439d8b8286016141df565b60a08301525060c0830135828111156143b557600080fd5b6143c18b828601613ab3565b60c08301525060e0830135828111156143d957600080fd5b6143e58b828601613ab3565b60e0830152509450606088013591508082111561440157600080fd5b613d2f89838a01613ab3565b6000806040838503121561442057600080fd5b823561442b81613955565b91506020830135613d8481613955565b600080600080600060a0868803121561445357600080fd5b853561445e81613955565b9450602086013561446e81613955565b9350604086013592506060860135915060808601356001600160401b0381111561449757600080fd5b613d5288828901613ab3565b6000806000606084860312156144b857600080fd5b83356144c381613955565b95602085013595506040909401359392505050565b6020808252602a908201527f455243313135353a2061646472657373207a65726f206973206e6f742061207660408201526930b634b21037bbb732b960b11b606082015260800190565b600181811c9082168061453657607f821691505b6020821081141561455757634e487b7160e01b600052602260045260246000fd5b50919050565b6020808252602e908201527f455243313135353a2063616c6c6572206973206e6f7420746f6b656e206f776e60408201526d195c881bdc88185c1c1c9bdd995960921b606082015260800190565b6020808252602c908201527f46756e6374696f6e206d7573742062652063616c6c6564207468726f7567682060408201526b19195b1959d85d1958d85b1b60a21b606082015260800190565b6020808252602c908201527f46756e6374696f6e206d7573742062652063616c6c6564207468726f7567682060408201526b6163746976652070726f787960a01b606082015260800190565b634e487b7160e01b600052603260045260246000fd5b634e487b7160e01b600052601160045260246000fd5b600060001982141561468357614683614659565b5060010190565b600081516040845261469f6040850182613bdf565b6020938401516001600160a01b0316949093019390935250919050565b600061016082518185526146d282860182613bdf565b91505060208301516146ef60208601826001600160a01b03169052565b50604083015184820360408601526147078282613bdf565b915050606083015184820360608601526147218282613bdf565b9150506080830151848203608086015261473b8282613bdf565b91505060a083015184820360a08601526147558282613bdf565b91505060c083015161476c60c086018260ff169052565b5060e08381015190850152610100808401519085015261012080840151908501526101409283015192909301919091525090565b60008151604084526147b56040850182613bdf565b90506020830151848203602086015261381d8282613bdf565b600061010082518185526147e482860182613bdf565b915050602083015184820360208601526147fe8282613bdf565b915050604083015184820360408601526148188282613bdf565b91505060608301518482036060860152614832828261468a565b9150506080830151848203608086015261484c82826146bc565b91505060a083015184820360a086015261486682826147a0565b91505060c083015184820360c08601526148808282613bdf565b91505060e083015184820360e086015261381d8282613bdf565b6020815260006108f860208301846147ce565b6000602082840312156148bf57600080fd5b81516001600160401b038111156148d557600080fd5b8201601f810184136148e657600080fd5b80516148f181613a8c565b6040516148fe8282613a14565b82815286602084860101111561491357600080fd5b614924836020830160208701613bb3565b9695505050505050565b60408152600061494160408301856147ce565b828103602084015261381d8185613bdf565b60006020828403121561496557600080fd5b81516108f881613f67565b60208082526027908201527f416d6f756e742073656e74206973206c657373207468616e20746865206d696e6040820152667420707269636560c81b606082015260800190565b60018060a01b038416815282602082015260606040820152600061381d6060830184613bdf565b6000602082840312156149f057600080fd5b5051919050565b60208082526028908201527f455243313135353a2069647320616e6420616d6f756e7473206c656e677468206040820152670dad2e6dac2e8c6d60c31b606082015260800190565b60208082526025908201527f455243313135353a207472616e7366657220746f20746865207a65726f206164604082015264647265737360d81b606082015260800190565b6020808252602a908201527f455243313135353a20696e73756666696369656e742062616c616e636520666f60408201526939103a3930b739b332b960b11b606082015260800190565b60008219821115614ae157614ae1614659565b500190565b604081526000614af96040830185613e6e565b828103602084015261381d8185613e6e565b60208082526023908201527f455243313135353a206275726e2066726f6d20746865207a65726f206164647260408201526265737360e81b606082015260800190565b60208082526024908201527f455243313135353a206275726e20616d6f756e7420657863656564732062616c604082015263616e636560e01b606082015260800190565b600082821015614ba457614ba4614659565b500390565b6020808252602b908201527f496e697469616c697a61626c653a20636f6e7472616374206973206e6f74206960408201526a6e697469616c697a696e6760a81b606082015260800190565b6001600160a01b0386811682528516602082015260a060408201819052600090614c2090830186613e6e565b8281036060840152614c328186613e6e565b90508281036080840152614c468185613bdf565b98975050505050505050565b600060208284031215614c6457600080fd5b81516108f8816139a6565b600060033d1115610e9c5760046000803e5060005160e01c90565b600060443d1015614c985790565b6040516003193d81016004833e81513d6001600160401b038160248401118184111715614cc757505050505090565b8285019150815181811115614cdf5750505050505090565b843d8701016020828501011115614cf95750505050505090565b614d0860208286010187613a14565b509095945050505050565b60208082526028908201527f455243313135353a204552433131353552656365697665722072656a656374656040820152676420746f6b656e7360c01b606082015260800190565b76020b1b1b2b9b9a1b7b73a3937b61d1030b1b1b7bab73a1604d1b815260008351614d8d816017850160208801613bb3565b7001034b99036b4b9b9b4b733903937b6329607d1b6017918401918201528351614dbe816028840160208801613bb3565b01602801949350505050565b6001600160a01b03868116825285166020820152604081018490526060810183905260a060808201819052600090614e0490830184613bdf565b979650505050505050565b6000816000190483118215151615614e2957614e29614659565b500290565b600081614e3d57614e3d614659565b506000190190565b634e487b7160e01b600052603160045260246000fd5b60008251614e6d818460208701613bb3565b919091019291505056fec3d58168c5ae7397731d063d5bbf3d657854427343f4c083240f7aacaa2d0f62899bd46557473cb80307a9dabc297131ced39608330a2d29b2d52b660c03923e360894a13ba1a3210667c828492db98dca3e2076cc3735a920a3ca505d382bbc416464726573733a206c6f772d6c6576656c2064656c65676174652063616c6c206661696c6564a26469706673582212205ea986f78fe3b0b7116b40ce309332217edbda23858b1707492212f3a054a26f64736f6c634300080c0033",
  "linkReferences": {},
  "deployedLinkReferences": {}
}