{
  "_format": "hh-sol-artifact-1",
  "contractName": "EscrowUpgradeable",
  "sourceName": "@openzeppelin/contracts-upgradeable/utils/escrow/EscrowUpgradeable.sol",
  "abi": [
    {
      "anonymous": false,
      "inputs": [
        {
          "indexed": true,
          "internalType": "address",
          "name": "payee",
          "type": "address"
        },
        {
          "indexed": false,
          "internalType": "uint256",
          "name": "weiAmount",
          "type": "uint256"
        }
      ],
      "name": "Deposited",
      "type": "event"
    },
    {
      "anonymous": false,
      "inputs": [
        {
          "indexed": true,
          "internalType": "address",
          "name": "previousOwner",
          "type": "address"
        },
        {
          "indexed": true,
          "internalType": "address",
          "name": "newOwner",
          "type": "address"
        }
      ],
      "name": "OwnershipTransferred",
      "type": "event"
    },
    {
      "anonymous": false,
      "inputs": [
        {
          "indexed": true,
          "internalType": "address",
          "name": "payee",
          "type": "address"
        },
        {
          "indexed": false,
          "internalType": "uint256",
          "name": "weiAmount",
          "type": "uint256"
        }
      ],
      "name": "Withdrawn",
      "type": "event"
    },
    {
      "inputs": [
        {
          "internalType": "address",
          "name": "payee",
          "type": "address"
        }
      ],
      "name": "deposit",
      "outputs": [],
      "stateMutability": "payable",
      "type": "function"
    },
    {
      "inputs": [
        {
          "internalType": "address",
          "name": "payee",
          "type": "address"
        }
      ],
      "name": "depositsOf",
      "outputs": [
        {
          "internalType": "uint256",
          "name": "",
          "type": "uint256"
        }
      ],
      "stateMutability": "view",
      "type": "function"
    },
    {
      "inputs": [],
      "name": "initialize",
      "outputs": [],
      "stateMutability": "nonpayable",
      "type": "function"
    },
    {
      "inputs": [],
      "name": "owner",
      "outputs": [
        {
          "internalType": "address",
          "name": "",
          "type": "address"
        }
      ],
      "stateMutability": "view",
      "type": "function"
    },
    {
      "inputs": [],
      "name": "renounceOwnership",
      "outputs": [],
      "stateMutability": "nonpayable",
      "type": "function"
    },
    {
      "inputs": [
        {
          "internalType": "address",
          "name": "newOwner",
          "type": "address"
        }
      ],
      "name": "transferOwnership",
      "outputs": [],
      "stateMutability": "nonpayable",
      "type": "function"
    },
    {
      "inputs": [
        {
          "internalType": "address payable",
          "name": "payee",
          "type": "address"
        }
      ],
      "name": "withdraw",
      "outputs": [],
      "stateMutability": "nonpayable",
      "type": "function"
    }
  ],
  "bytecode": "0x608060405234801561001057600080fd5b50610756806100206000396000f3fe6080604052600436106100605760003560e01c806351cff8d914610065578063715018a6146100875780638129fc1c1461009c5780638da5cb5b146100b1578063e3a9db1a146100e3578063f2fde38b14610127578063f340fa0114610147575b600080fd5b34801561007157600080fd5b50610085610080366004610656565b61015a565b005b34801561009357600080fd5b50610085610201565b3480156100a857600080fd5b5061008561023c565b3480156100bd57600080fd5b506100c66102fd565b6040516001600160a01b0390911681526020015b60405180910390f35b3480156100ef57600080fd5b506101196100fe366004610656565b6001600160a01b031660009081526065602052604090205490565b6040519081526020016100da565b34801561013357600080fd5b50610085610142366004610656565b61030c565b610085610155366004610656565b6103a9565b336101636102fd565b6001600160a01b0316146101925760405162461bcd60e51b81526004016101899061067a565b60405180910390fd5b6001600160a01b03811660008181526065602052604081208054919055906101ba9082610442565b816001600160a01b03167f7084f5476618d8e60b11ef0d7d3f06914655adb8793e28ff7f018d4c76d505d5826040516101f591815260200190565b60405180910390a25050565b3361020a6102fd565b6001600160a01b0316146102305760405162461bcd60e51b81526004016101899061067a565b61023a600061055d565b565b600054610100900460ff166102575760005460ff161561025b565b303b155b6102be5760405162461bcd60e51b815260206004820152602e60248201527f496e697469616c697a61626c653a20636f6e747261637420697320616c72656160448201526d191e481a5b9a5d1a585b1a5e995960921b6064820152608401610189565b600054610100900460ff161580156102e0576000805461ffff19166101011790555b6102e86105af565b80156102fa576000805461ff00191690555b50565b6033546001600160a01b031690565b336103156102fd565b6001600160a01b03161461033b5760405162461bcd60e51b81526004016101899061067a565b6001600160a01b0381166103a05760405162461bcd60e51b815260206004820152602660248201527f4f776e61626c653a206e6577206f776e657220697320746865207a65726f206160448201526564647265737360d01b6064820152608401610189565b6102fa8161055d565b336103b26102fd565b6001600160a01b0316146103d85760405162461bcd60e51b81526004016101899061067a565b6001600160a01b0381166000908152606560205260408120805434928392916104029084906106af565b90915550506040518181526001600160a01b038316907f2da466a7b24304f47e87fa2e1e5a81b9831ce54fec19055ce277ca2f39ba42c4906020016101f5565b804710156104925760405162461bcd60e51b815260206004820152601d60248201527f416464726573733a20696e73756666696369656e742062616c616e63650000006044820152606401610189565b6000826001600160a01b03168260405160006040518083038185875af1925050503d80600081146104df576040519150601f19603f3d011682016040523d82523d6000602084013e6104e4565b606091505b50509050806105585760405162461bcd60e51b815260206004820152603a60248201527f416464726573733a20756e61626c6520746f2073656e642076616c75652c20726044820152791958da5c1a595b9d081b585e481a185d99481c995d995c9d195960321b6064820152608401610189565b505050565b603380546001600160a01b038381166001600160a01b0319831681179093556040519116919082907f8be0079c531659141344cd1fd0a4f28419497f9722a3daafe3b4186f6b6457e090600090a35050565b600054610100900460ff166105d65760405162461bcd60e51b8152600401610189906106d5565b6105de6105ea565b6105e6610611565b61023a5b600054610100900460ff1661023a5760405162461bcd60e51b8152600401610189906106d5565b600054610100900460ff166106385760405162461bcd60e51b8152600401610189906106d5565b61023a3361055d565b6001600160a01b03811681146102fa57600080fd5b60006020828403121561066857600080fd5b813561067381610641565b9392505050565b6020808252818101527f4f776e61626c653a2063616c6c6572206973206e6f7420746865206f776e6572604082015260600190565b600082198211156106d057634e487b7160e01b600052601160045260246000fd5b500190565b6020808252602b908201527f496e697469616c697a61626c653a20636f6e7472616374206973206e6f74206960408201526a6e697469616c697a696e6760a81b60608201526080019056fea2646970667358221220483b02579c958947e30a2623d3e5cd1eb715378a2610106ec69d599a6715d8a864736f6c634300080c0033",
  "linkReferences": {},
  "deployedLinkReferences": {}
}