{
  "_format": "hh-sol-artifact-1",
  "contractName": "KRBCredentialNFT",
  "sourceName": "contracts/KRBCredentialNFT.sol",
  "abi": [
    {
      "inputs": [
        {
          "internalType": "string",
          "name": "name",
          "type": "string"
        },
        {
          "internalType": "string",
          "name": "symbol",
          "type": "string"
        },
        {
          "internalType": "string",
          "name": "baseTokenURI",
          "type": "string"
        },
        {
          "internalType": "string",
          "name": "metadataURI",
          "type": "string"
        },
        {
          "internalType": "uint256",
          "name": "initialPrice",
          "type": "uint256"
        },
        {
          "internalType": "address",
          "name": "krebitAddress",
          "type": "address"
        },
        {
          "internalType": "string",
          "name": "credentialType",
          "type": "string"
        },
        {
          "internalType": "string",
          "name": "credentialValue",
          "type": "string"
        }
      ],
      "stateMutability": "nonpayable",
      "type": "constructor"
    },
    {
      "anonymous": false,
      "inputs": [
        {
          "indexed": true,
          "internalType": "address",
          "name": "owner",
          "type": "address"
        },
        {
          "indexed": true,
          "internalType": "address",
          "name": "approved",
          "type": "address"
        },
        {
          "indexed": true,
          "internalType": "uint256",
          "name": "tokenId",
          "type": "uint256"
        }
      ],
      "name": "Approval",
      "type": "event"
    },
    {
      "anonymous": false,
      "inputs": [
        {
          "indexed": true,
          "internalType": "address",
          "name": "owner",
          "type": "address"
        },
        {
          "indexed": true,
          "internalType": "address",
          "name": "operator",
          "type": "address"
        },
        {
          "indexed": false,
          "internalType": "bool",
          "name": "approved",
          "type": "bool"
        }
      ],
      "name": "ApprovalForAll",
      "type": "event"
    },
    {
      "anonymous": false,
      "inputs": [
        {
          "indexed": false,
          "internalType": "address",
          "name": "account",
          "type": "address"
        }
      ],
      "name": "Paused",
      "type": "event"
    },
    {
      "anonymous": false,
      "inputs": [
        {
          "indexed": true,
          "internalType": "bytes32",
          "name": "role",
          "type": "bytes32"
        },
        {
          "indexed": true,
          "internalType": "bytes32",
          "name": "previousAdminRole",
          "type": "bytes32"
        },
        {
          "indexed": true,
          "internalType": "bytes32",
          "name": "newAdminRole",
          "type": "bytes32"
        }
      ],
      "name": "RoleAdminChanged",
      "type": "event"
    },
    {
      "anonymous": false,
      "inputs": [
        {
          "indexed": true,
          "internalType": "bytes32",
          "name": "role",
          "type": "bytes32"
        },
        {
          "indexed": true,
          "internalType": "address",
          "name": "account",
          "type": "address"
        },
        {
          "indexed": true,
          "internalType": "address",
          "name": "sender",
          "type": "address"
        }
      ],
      "name": "RoleGranted",
      "type": "event"
    },
    {
      "anonymous": false,
      "inputs": [
        {
          "indexed": true,
          "internalType": "bytes32",
          "name": "role",
          "type": "bytes32"
        },
        {
          "indexed": true,
          "internalType": "address",
          "name": "account",
          "type": "address"
        },
        {
          "indexed": true,
          "internalType": "address",
          "name": "sender",
          "type": "address"
        }
      ],
      "name": "RoleRevoked",
      "type": "event"
    },
    {
      "anonymous": false,
      "inputs": [
        {
          "indexed": true,
          "internalType": "address",
          "name": "from",
          "type": "address"
        },
        {
          "indexed": true,
          "internalType": "address",
          "name": "to",
          "type": "address"
        },
        {
          "indexed": true,
          "internalType": "uint256",
          "name": "tokenId",
          "type": "uint256"
        }
      ],
      "name": "Transfer",
      "type": "event"
    },
    {
      "anonymous": false,
      "inputs": [
        {
          "indexed": false,
          "internalType": "address",
          "name": "account",
          "type": "address"
        }
      ],
      "name": "Unpaused",
      "type": "event"
    },
    {
      "anonymous": false,
      "inputs": [],
      "name": "Updated",
      "type": "event"
    },
    {
      "inputs": [],
      "name": "DEFAULT_ADMIN_ROLE",
      "outputs": [
        {
          "internalType": "bytes32",
          "name": "",
          "type": "bytes32"
        }
      ],
      "stateMutability": "view",
      "type": "function"
    },
    {
      "inputs": [],
      "name": "PAUSER_ROLE",
      "outputs": [
        {
          "internalType": "bytes32",
          "name": "",
          "type": "bytes32"
        }
      ],
      "stateMutability": "view",
      "type": "function"
    },
    {
      "inputs": [],
      "name": "ROYALTY_SETTER_ROLE",
      "outputs": [
        {
          "internalType": "bytes32",
          "name": "",
          "type": "bytes32"
        }
      ],
      "stateMutability": "view",
      "type": "function"
    },
    {
      "inputs": [
        {
          "internalType": "address",
          "name": "to",
          "type": "address"
        },
        {
          "internalType": "uint256",
          "name": "tokenId",
          "type": "uint256"
        }
      ],
      "name": "approve",
      "outputs": [],
      "stateMutability": "nonpayable",
      "type": "function"
    },
    {
      "inputs": [
        {
          "internalType": "address",
          "name": "owner",
          "type": "address"
        }
      ],
      "name": "balanceOf",
      "outputs": [
        {
          "internalType": "uint256",
          "name": "",
          "type": "uint256"
        }
      ],
      "stateMutability": "view",
      "type": "function"
    },
    {
      "inputs": [
        {
          "internalType": "uint256",
          "name": "tokenId",
          "type": "uint256"
        }
      ],
      "name": "burn",
      "outputs": [],
      "stateMutability": "nonpayable",
      "type": "function"
    },
    {
      "inputs": [],
      "name": "contractURI",
      "outputs": [
        {
          "internalType": "string",
          "name": "",
          "type": "string"
        }
      ],
      "stateMutability": "view",
      "type": "function"
    },
    {
      "inputs": [],
      "name": "feesAvailableForWithdraw",
      "outputs": [
        {
          "internalType": "uint256",
          "name": "",
          "type": "uint256"
        }
      ],
      "stateMutability": "view",
      "type": "function"
    },
    {
      "inputs": [
        {
          "internalType": "uint256",
          "name": "tokenId",
          "type": "uint256"
        }
      ],
      "name": "getApproved",
      "outputs": [
        {
          "internalType": "address",
          "name": "",
          "type": "address"
        }
      ],
      "stateMutability": "view",
      "type": "function"
    },
    {
      "inputs": [
        {
          "internalType": "bytes32",
          "name": "role",
          "type": "bytes32"
        }
      ],
      "name": "getRoleAdmin",
      "outputs": [
        {
          "internalType": "bytes32",
          "name": "",
          "type": "bytes32"
        }
      ],
      "stateMutability": "view",
      "type": "function"
    },
    {
      "inputs": [
        {
          "internalType": "bytes32",
          "name": "role",
          "type": "bytes32"
        },
        {
          "internalType": "address",
          "name": "account",
          "type": "address"
        }
      ],
      "name": "grantRole",
      "outputs": [],
      "stateMutability": "nonpayable",
      "type": "function"
    },
    {
      "inputs": [
        {
          "internalType": "bytes32",
          "name": "role",
          "type": "bytes32"
        },
        {
          "internalType": "address",
          "name": "account",
          "type": "address"
        }
      ],
      "name": "hasRole",
      "outputs": [
        {
          "internalType": "bool",
          "name": "",
          "type": "bool"
        }
      ],
      "stateMutability": "view",
      "type": "function"
    },
    {
      "inputs": [
        {
          "internalType": "address",
          "name": "owner",
          "type": "address"
        },
        {
          "internalType": "address",
          "name": "operator",
          "type": "address"
        }
      ],
      "name": "isApprovedForAll",
      "outputs": [
        {
          "internalType": "bool",
          "name": "",
          "type": "bool"
        }
      ],
      "stateMutability": "view",
      "type": "function"
    },
    {
      "inputs": [
        {
          "internalType": "address",
          "name": "to",
          "type": "address"
        },
        {
          "internalType": "uint256",
          "name": "tokenId",
          "type": "uint256"
        },
        {
          "components": [
            {
              "internalType": "string",
              "name": "_context",
              "type": "string"
            },
            {
              "internalType": "string",
              "name": "_type",
              "type": "string"
            },
            {
              "internalType": "string",
              "name": "id",
              "type": "string"
            },
            {
              "components": [
                {
                  "internalType": "string",
                  "name": "id",
                  "type": "string"
                },
                {
                  "internalType": "address",
                  "name": "ethereumAddress",
                  "type": "address"
                }
              ],
              "internalType": "struct VCTypesV01.Issuer",
              "name": "issuer",
              "type": "tuple"
            },
            {
              "components": [
                {
                  "internalType": "string",
                  "name": "id",
                  "type": "string"
                },
                {
                  "internalType": "address",
                  "name": "ethereumAddress",
                  "type": "address"
                },
                {
                  "internalType": "string",
                  "name": "_type",
                  "type": "string"
                },
                {
                  "internalType": "string",
                  "name": "typeSchema",
                  "type": "string"
                },
                {
                  "internalType": "string",
                  "name": "value",
                  "type": "string"
                },
                {
                  "internalType": "string",
                  "name": "encrypted",
                  "type": "string"
                },
                {
                  "internalType": "uint8",
                  "name": "trust",
                  "type": "uint8"
                },
                {
                  "internalType": "uint256",
                  "name": "stake",
                  "type": "uint256"
                },
                {
                  "internalType": "uint256",
                  "name": "price",
                  "type": "uint256"
                },
                {
                  "internalType": "uint256",
                  "name": "nbf",
                  "type": "uint256"
                },
                {
                  "internalType": "uint256",
                  "name": "exp",
                  "type": "uint256"
                }
              ],
              "internalType": "struct VCTypesV01.CredentialSubject",
              "name": "credentialSubject",
              "type": "tuple"
            },
            {
              "components": [
                {
                  "internalType": "string",
                  "name": "id",
                  "type": "string"
                },
                {
                  "internalType": "string",
                  "name": "_type",
                  "type": "string"
                }
              ],
              "internalType": "struct VCTypesV01.CredentialSchema",
              "name": "credentialSchema",
              "type": "tuple"
            },
            {
              "internalType": "string",
              "name": "issuanceDate",
              "type": "string"
            },
            {
              "internalType": "string",
              "name": "expirationDate",
              "type": "string"
            }
          ],
          "internalType": "struct VCTypesV01.VerifiableCredential",
          "name": "vc",
          "type": "tuple"
        }
      ],
      "name": "mintWithCredential",
      "outputs": [],
      "stateMutability": "payable",
      "type": "function"
    },
    {
      "inputs": [],
      "name": "name",
      "outputs": [
        {
          "internalType": "string",
          "name": "",
          "type": "string"
        }
      ],
      "stateMutability": "view",
      "type": "function"
    },
    {
      "inputs": [
        {
          "internalType": "uint256",
          "name": "tokenId",
          "type": "uint256"
        }
      ],
      "name": "ownerOf",
      "outputs": [
        {
          "internalType": "address",
          "name": "",
          "type": "address"
        }
      ],
      "stateMutability": "view",
      "type": "function"
    },
    {
      "inputs": [],
      "name": "pause",
      "outputs": [],
      "stateMutability": "nonpayable",
      "type": "function"
    },
    {
      "inputs": [],
      "name": "paused",
      "outputs": [
        {
          "internalType": "bool",
          "name": "",
          "type": "bool"
        }
      ],
      "stateMutability": "view",
      "type": "function"
    },
    {
      "inputs": [
        {
          "internalType": "address",
          "name": "dest",
          "type": "address"
        }
      ],
      "name": "payments",
      "outputs": [
        {
          "internalType": "uint256",
          "name": "",
          "type": "uint256"
        }
      ],
      "stateMutability": "view",
      "type": "function"
    },
    {
      "inputs": [],
      "name": "price",
      "outputs": [
        {
          "internalType": "uint256",
          "name": "",
          "type": "uint256"
        }
      ],
      "stateMutability": "view",
      "type": "function"
    },
    {
      "inputs": [
        {
          "internalType": "bytes32",
          "name": "role",
          "type": "bytes32"
        },
        {
          "internalType": "address",
          "name": "account",
          "type": "address"
        }
      ],
      "name": "renounceRole",
      "outputs": [],
      "stateMutability": "nonpayable",
      "type": "function"
    },
    {
      "inputs": [],
      "name": "requiredCredentialType",
      "outputs": [
        {
          "internalType": "string",
          "name": "",
          "type": "string"
        }
      ],
      "stateMutability": "view",
      "type": "function"
    },
    {
      "inputs": [],
      "name": "requiredCredentialValue",
      "outputs": [
        {
          "internalType": "string",
          "name": "",
          "type": "string"
        }
      ],
      "stateMutability": "view",
      "type": "function"
    },
    {
      "inputs": [
        {
          "internalType": "bytes32",
          "name": "role",
          "type": "bytes32"
        },
        {
          "internalType": "address",
          "name": "account",
          "type": "address"
        }
      ],
      "name": "revokeRole",
      "outputs": [],
      "stateMutability": "nonpayable",
      "type": "function"
    },
    {
      "inputs": [
        {
          "internalType": "uint256",
          "name": "_tokenId",
          "type": "uint256"
        },
        {
          "internalType": "uint256",
          "name": "_salePrice",
          "type": "uint256"
        }
      ],
      "name": "royaltyInfo",
      "outputs": [
        {
          "internalType": "address",
          "name": "",
          "type": "address"
        },
        {
          "internalType": "uint256",
          "name": "",
          "type": "uint256"
        }
      ],
      "stateMutability": "view",
      "type": "function"
    },
    {
      "inputs": [
        {
          "internalType": "address",
          "name": "from",
          "type": "address"
        },
        {
          "internalType": "address",
          "name": "to",
          "type": "address"
        },
        {
          "internalType": "uint256",
          "name": "tokenId",
          "type": "uint256"
        }
      ],
      "name": "safeTransferFrom",
      "outputs": [],
      "stateMutability": "nonpayable",
      "type": "function"
    },
    {
      "inputs": [
        {
          "internalType": "address",
          "name": "from",
          "type": "address"
        },
        {
          "internalType": "address",
          "name": "to",
          "type": "address"
        },
        {
          "internalType": "uint256",
          "name": "tokenId",
          "type": "uint256"
        },
        {
          "internalType": "bytes",
          "name": "data",
          "type": "bytes"
        }
      ],
      "name": "safeTransferFrom",
      "outputs": [],
      "stateMutability": "nonpayable",
      "type": "function"
    },
    {
      "inputs": [
        {
          "internalType": "address",
          "name": "operator",
          "type": "address"
        },
        {
          "internalType": "bool",
          "name": "approved",
          "type": "bool"
        }
      ],
      "name": "setApprovalForAll",
      "outputs": [],
      "stateMutability": "nonpayable",
      "type": "function"
    },
    {
      "inputs": [
        {
          "internalType": "address",
          "name": "receiver",
          "type": "address"
        },
        {
          "internalType": "uint96",
          "name": "feeNumerator",
          "type": "uint96"
        }
      ],
      "name": "setDefaultRoyalty",
      "outputs": [],
      "stateMutability": "nonpayable",
      "type": "function"
    },
    {
      "inputs": [
        {
          "internalType": "uint256",
          "name": "newPrice",
          "type": "uint256"
        }
      ],
      "name": "setPrice",
      "outputs": [],
      "stateMutability": "nonpayable",
      "type": "function"
    },
    {
      "inputs": [
        {
          "internalType": "string",
          "name": "credentialType",
          "type": "string"
        },
        {
          "internalType": "string",
          "name": "credentialValue",
          "type": "string"
        }
      ],
      "name": "setRequiredCredential",
      "outputs": [],
      "stateMutability": "nonpayable",
      "type": "function"
    },
    {
      "inputs": [
        {
          "internalType": "bytes4",
          "name": "interfaceId",
          "type": "bytes4"
        }
      ],
      "name": "supportsInterface",
      "outputs": [
        {
          "internalType": "bool",
          "name": "",
          "type": "bool"
        }
      ],
      "stateMutability": "view",
      "type": "function"
    },
    {
      "inputs": [],
      "name": "symbol",
      "outputs": [
        {
          "internalType": "string",
          "name": "",
          "type": "string"
        }
      ],
      "stateMutability": "view",
      "type": "function"
    },
    {
      "inputs": [
        {
          "internalType": "uint256",
          "name": "index",
          "type": "uint256"
        }
      ],
      "name": "tokenByIndex",
      "outputs": [
        {
          "internalType": "uint256",
          "name": "",
          "type": "uint256"
        }
      ],
      "stateMutability": "view",
      "type": "function"
    },
    {
      "inputs": [
        {
          "internalType": "address",
          "name": "owner",
          "type": "address"
        },
        {
          "internalType": "uint256",
          "name": "index",
          "type": "uint256"
        }
      ],
      "name": "tokenOfOwnerByIndex",
      "outputs": [
        {
          "internalType": "uint256",
          "name": "",
          "type": "uint256"
        }
      ],
      "stateMutability": "view",
      "type": "function"
    },
    {
      "inputs": [
        {
          "internalType": "uint256",
          "name": "tokenId",
          "type": "uint256"
        }
      ],
      "name": "tokenURI",
      "outputs": [
        {
          "internalType": "string",
          "name": "",
          "type": "string"
        }
      ],
      "stateMutability": "view",
      "type": "function"
    },
    {
      "inputs": [],
      "name": "totalSupply",
      "outputs": [
        {
          "internalType": "uint256",
          "name": "",
          "type": "uint256"
        }
      ],
      "stateMutability": "view",
      "type": "function"
    },
    {
      "inputs": [
        {
          "internalType": "address",
          "name": "from",
          "type": "address"
        },
        {
          "internalType": "address",
          "name": "to",
          "type": "address"
        },
        {
          "internalType": "uint256",
          "name": "tokenId",
          "type": "uint256"
        }
      ],
      "name": "transferFrom",
      "outputs": [],
      "stateMutability": "nonpayable",
      "type": "function"
    },
    {
      "inputs": [],
      "name": "unpause",
      "outputs": [],
      "stateMutability": "nonpayable",
      "type": "function"
    },
    {
      "inputs": [
        {
          "internalType": "address payable",
          "name": "_to",
          "type": "address"
        },
        {
          "internalType": "uint256",
          "name": "_amount",
          "type": "uint256"
        }
      ],
      "name": "withdrawFees",
      "outputs": [],
      "stateMutability": "nonpayable",
      "type": "function"
    },
    {
      "inputs": [
        {
          "internalType": "address payable",
          "name": "payee",
          "type": "address"
        }
      ],
      "name": "withdrawPayments",
      "outputs": [],
      "stateMutability": "nonpayable",
      "type": "function"
    }
  ],
  "bytecode": "0x60a06040523480156200001157600080fd5b50604051620044f5380380620044f58339810160408190526200003491620003e2565b8751889088906200004d90600290602085019062000244565b5080516200006390600390602084019062000244565b5050600c805460ff19169055506040516200007e90620002d3565b604051809103906000f0801580156200009b573d6000803e3d6000fd5b506001600160a01b03166080526001600e558551620000c290601090602089019062000244565b508451620000d890601190602088019062000244565b508151620000ee90601490602085019062000244565b5080516200010490601590602084019062000244565b506012849055600f80546001600160a01b0319166001600160a01b038516179055620001396000620001333390565b6200019f565b620001657f65d7a28e3265b37a6474929f336521b332c1681b933f6cb9f3376673440d862a336200019f565b620001917fe8af128b9b5dbd17bb2a0ae1c50a8ac258e80a668c749226d6999d0778527509336200019f565b505050505050505062000544565b6000828152600d602090815260408083206001600160a01b038516845290915290205460ff1662000240576000828152600d602090815260408083206001600160a01b03851684529091529020805460ff19166001179055620001ff3390565b6001600160a01b0316816001600160a01b0316837f2f8788117e7eff1d82e926ec794901d17c78024a50270940304540a733656f0d60405160405180910390a45b5050565b828054620002529062000507565b90600052602060002090601f016020900481019282620002765760008555620002c1565b82601f106200029157805160ff1916838001178555620002c1565b82800160010185558215620002c1579182015b82811115620002c1578251825591602001919060010190620002a4565b50620002cf929150620002e1565b5090565b6105888062003f6d83390190565b5b80821115620002cf5760008155600101620002e2565b634e487b7160e01b600052604160045260246000fd5b600082601f8301126200032057600080fd5b81516001600160401b03808211156200033d576200033d620002f8565b604051601f8301601f19908116603f01168101908282118183101715620003685762000368620002f8565b816040528381526020925086838588010111156200038557600080fd5b600091505b83821015620003a957858201830151818301840152908201906200038a565b83821115620003bb5760008385830101525b9695505050505050565b80516001600160a01b0381168114620003dd57600080fd5b919050565b600080600080600080600080610100898b0312156200040057600080fd5b88516001600160401b03808211156200041857600080fd5b620004268c838d016200030e565b995060208b01519150808211156200043d57600080fd5b6200044b8c838d016200030e565b985060408b01519150808211156200046257600080fd5b620004708c838d016200030e565b975060608b01519150808211156200048757600080fd5b620004958c838d016200030e565b965060808b01519550620004ac60a08c01620003c5565b945060c08b0151915080821115620004c357600080fd5b620004d18c838d016200030e565b935060e08b0151915080821115620004e857600080fd5b50620004f78b828c016200030e565b9150509295985092959890939650565b600181811c908216806200051c57607f821691505b602082108114156200053e57634e487b7160e01b600052602260045260246000fd5b50919050565b6080516139ff6200056e60003960008181610b520152818161141b0152611f7c01526139ff6000f3fe6080604052600436106102065760003560e01c80636352211e11610119578063ad3b1b47116100a6578063ad3b1b47146105be578063b88d4fde146105de578063c87b56dd146105fe578063d547741f1461061e578063de5785d51461063e578063e2982c2114610654578063e63ab1e914610674578063e8a3d48514610696578063e985e9c5146106ab578063f05ec999146106cb578063f44acff9146106eb57600080fd5b80636352211e146104b657806370a08231146104d6578063774bccfd146104f65780638456cb591461050957806391b7f5ed1461051e57806391d148541461053e57806395d89b411461055e578063a035b1fe14610573578063a217fddf14610589578063a22cb4651461059e57600080fd5b80632f2ff15d116101975780632f2ff15d146103945780632f745c59146103b457806331b3eb94146103d457806336568abe146103f45780633f4ba83a1461041457806342842e0e1461042957806342966c68146104495780634f6ccce7146104695780635576104c146104895780635c975abb1461049e57600080fd5b806301ffc9a71461020b57806304634d8d1461024057806306fdde0314610262578063081812fc14610284578063095ea7b3146102b157806317d6159b146102d157806318160ddd146102e657806323b872dd14610305578063248a9ca3146103255780632a55205a14610355575b600080fd5b34801561021757600080fd5b5061022b610226366004612a49565b61070d565b60405190151581526020015b60405180910390f35b34801561024c57600080fd5b5061026061025b366004612a8b565b61071e565b005b34801561026e57600080fd5b50610277610745565b6040516102379190612b28565b34801561029057600080fd5b506102a461029f366004612b3b565b6107d7565b6040516102379190612b54565b3480156102bd57600080fd5b506102606102cc366004612b68565b6107fe565b3480156102dd57600080fd5b50610277610914565b3480156102f257600080fd5b50600a545b604051908152602001610237565b34801561031157600080fd5b50610260610320366004612b94565b6109a2565b34801561033157600080fd5b506102f7610340366004612b3b565b6000908152600d602052604090206001015490565b34801561036157600080fd5b50610375610370366004612bd5565b6109d4565b604080516001600160a01b039093168352602083019190915201610237565b3480156103a057600080fd5b506102606103af366004612bf7565b610a80565b3480156103c057600080fd5b506102f76103cf366004612b68565b610aa5565b3480156103e057600080fd5b506102606103ef366004612c1c565b610b3b565b34801561040057600080fd5b5061026061040f366004612bf7565b610bbc565b34801561042057600080fd5b50610260610c3a565b34801561043557600080fd5b50610260610444366004612b94565b610c5d565b34801561045557600080fd5b50610260610464366004612b3b565b610c78565b34801561047557600080fd5b506102f7610484366004612b3b565b610ca6565b34801561049557600080fd5b50610277610d39565b3480156104aa57600080fd5b50600c5460ff1661022b565b3480156104c257600080fd5b506102a46104d1366004612b3b565b610d46565b3480156104e257600080fd5b506102f76104f1366004612c1c565b610d7b565b610260610504366004612f79565b610e01565b34801561051557600080fd5b506102606111eb565b34801561052a57600080fd5b50610260610539366004612b3b565b61120b565b34801561054a57600080fd5b5061022b610559366004612bf7565b611255565b34801561056a57600080fd5b50610277611280565b34801561057f57600080fd5b506102f760125481565b34801561059557600080fd5b506102f7600081565b3480156105aa57600080fd5b506102606105b9366004613100565b61128f565b3480156105ca57600080fd5b506102606105d9366004612b68565b61129a565b3480156105ea57600080fd5b506102606105f9366004613133565b61133d565b34801561060a57600080fd5b50610277610619366004612b3b565b611375565b34801561062a57600080fd5b50610260610639366004612bf7565b6113dc565b34801561064a57600080fd5b506102f760135481565b34801561066057600080fd5b506102f761066f366004612c1c565b611401565b34801561068057600080fd5b506102f760008051602061396a83398151915281565b3480156106a257600080fd5b50610277611491565b3480156106b757600080fd5b5061022b6106c63660046131b2565b6114a0565b3480156106d757600080fd5b506102606106e63660046131e0565b6114ce565b3480156106f757600080fd5b506102f76000805160206139aa83398151915281565b60006107188261152f565b92915050565b6000805160206139aa83398151915261073681611554565b610740838361155e565b505050565b60606002805461075490613243565b80601f016020809104026020016040519081016040528092919081815260200182805461078090613243565b80156107cd5780601f106107a2576101008083540402835291602001916107cd565b820191906000526020600020905b8154815290600101906020018083116107b057829003601f168201915b5050505050905090565b60006107e282611657565b506000908152600660205260409020546001600160a01b031690565b600061080982610d46565b9050806001600160a01b0316836001600160a01b0316141561087c5760405162461bcd60e51b815260206004820152602160248201527f4552433732313a20617070726f76616c20746f2063757272656e74206f776e656044820152603960f91b60648201526084015b60405180910390fd5b336001600160a01b0382161480610898575061089881336114a0565b61090a5760405162461bcd60e51b815260206004820152603e60248201527f4552433732313a20617070726f76652063616c6c6572206973206e6f7420746f60448201527f6b656e206f776e6572206e6f7220617070726f76656420666f7220616c6c00006064820152608401610873565b610740838361167c565b6015805461092190613243565b80601f016020809104026020016040519081016040528092919081815260200182805461094d90613243565b801561099a5780601f1061096f5761010080835404028352916020019161099a565b820191906000526020600020905b81548152906001019060200180831161097d57829003601f168201915b505050505081565b6109ad335b826116ea565b6109c95760405162461bcd60e51b81526004016108739061327e565b610740838383611749565b60008281526001602090815260408083208151808301909252546001600160a01b038116808352600160a01b9091046001600160601b0316928201929092528291610a495750604080518082019091526000546001600160a01b0381168252600160a01b90046001600160601b031660208201525b602081015160009061271090610a68906001600160601b0316876132e2565b610a729190613317565b915196919550909350505050565b6000828152600d6020526040902060010154610a9b81611554565b61074083836118de565b6000610ab083610d7b565b8210610b125760405162461bcd60e51b815260206004820152602b60248201527f455243373231456e756d657261626c653a206f776e657220696e646578206f7560448201526a74206f6620626f756e647360a81b6064820152608401610873565b506001600160a01b03919091166000908152600860209081526040808320938352929052205490565b6040516351cff8d960e01b81526001600160a01b037f000000000000000000000000000000000000000000000000000000000000000016906351cff8d990610b87908490600401612b54565b600060405180830381600087803b158015610ba157600080fd5b505af1158015610bb5573d6000803e3d6000fd5b5050505050565b6001600160a01b0381163314610c2c5760405162461bcd60e51b815260206004820152602f60248201527f416363657373436f6e74726f6c3a2063616e206f6e6c792072656e6f756e636560448201526e103937b632b9903337b91039b2b63360891b6064820152608401610873565b610c368282611964565b5050565b60008051602061396a833981519152610c5281611554565b610c5a6119cb565b50565b6107408383836040518060200160405280600081525061133d565b610c81336109a7565b610c9d5760405162461bcd60e51b81526004016108739061327e565b610c5a81611a17565b6000610cb1600a5490565b8210610d145760405162461bcd60e51b815260206004820152602c60248201527f455243373231456e756d657261626c653a20676c6f62616c20696e646578206f60448201526b7574206f6620626f756e647360a01b6064820152608401610873565b600a8281548110610d2757610d2761332b565b90600052602060002001549050919050565b6014805461092190613243565b6000818152600460205260408120546001600160a01b0316806107185760405162461bcd60e51b815260040161087390613341565b60006001600160a01b038216610de55760405162461bcd60e51b815260206004820152602960248201527f4552433732313a2061646472657373207a65726f206973206e6f7420612076616044820152683634b21037bbb732b960b91b6064820152608401610873565b506001600160a01b031660009081526005602052604090205490565b610e09611a20565b826001600160a01b03168160800151602001516001600160a01b031614610e935760405162461bcd60e51b815260206004820152603860248201527f4d696e7420746f2061646472657373206d757374206265207468652076632e63604482015277726564656e7469616c5375626a656374206164647265737360401b6064820152608401610873565b610e9c81611a68565b60405165125cdcdd595960d21b602082015260260160408051601f19818403018152908290528051602090910120600f5463606a836b60e11b835290916001600160a01b039091169063c0d506d690610ef99085906004016134c0565b600060405180830381865afa158015610f16573d6000803e3d6000fd5b505050506040513d6000823e601f3d908101601f19168201604052610f3e91908101906135b5565b604051602001610f4e9190613622565b6040516020818303038152906040528051906020012014610fbb5760405162461bcd60e51b815260206004820152602160248201527f43726564656e7469616c206973206e6f7420696e2049737375656420737461746044820152606560f81b6064820152608401610873565b61105360148054610fcb90613243565b80601f0160208091040260200160405190810160405280929190818152602001828054610ff790613243565b80156110445780601f1061101957610100808354040283529160200191611044565b820191906000526020600020905b81548152906001019060200180831161102757829003601f168201915b50505050508260200151611d4e565b601460405160200161106591906136d8565b604051602081830303815290604052906110925760405162461bcd60e51b81526004016108739190612b28565b5061112f601580546110a390613243565b80601f01602080910402602001604051908101604052809291908181526020018280546110cf90613243565b801561111c5780601f106110f15761010080835404028352916020019161111c565b820191906000526020600020905b8154815290600101906020018083116110ff57829003601f168201915b5050505050826080015160800151611d4e565b60156040516020016111419190613722565b6040516020818303038152906040529061116e5760405162461bcd60e51b81526004016108739190612b28565b506012543410156111d15760405162461bcd60e51b815260206004820152602760248201527f416d6f756e742073656e74206973206c657373207468616e20746865206d696e6044820152667420707269636560c81b6064820152608401610873565b6013546111de9034611e2b565b6013556107408383611e37565b60008051602061396a83398151915261120381611554565b610c5a611e51565b6000805160206139aa83398151915261122381611554565b60128290556040517ff2e795d4a33ae9a0d3282888375b8ae781ea4de1cbf101ac96150aa95ccff0b490600090a15050565b6000918252600d602090815260408084206001600160a01b0393909316845291905290205460ff1690565b60606003805461075490613243565b610c36338383611e8e565b6002600e5414156112ed5760405162461bcd60e51b815260206004820152601f60248201527f5265656e7472616e637947756172643a207265656e7472616e742063616c6c006044820152606401610873565b6002600e556000805160206139aa83398151915261130a81611554565b60135482111561131957600080fd5b6013546113269083611f59565b6013556113338383611f65565b50506001600e5550565b61134733836116ea565b6113635760405162461bcd60e51b81526004016108739061327e565b61136f84848484611fe9565b50505050565b606061138082611657565b600061138a61201c565b905060008151116113aa57604051806020016040528060008152506113d5565b806113b48461202b565b6040516020016113c5929190613785565b6040516020818303038152906040525b9392505050565b6000828152600d60205260409020600101546113f781611554565b6107408383611964565b6040516371d4ed8d60e11b81526000906001600160a01b037f0000000000000000000000000000000000000000000000000000000000000000169063e3a9db1a90611450908590600401612b54565b602060405180830381865afa15801561146d573d6000803e3d6000fd5b505050506040513d601f19601f8201168201806040525081019061071891906137b4565b60606011805461075490613243565b6001600160a01b03918216600090815260076020908152604080832093909416825291909152205460ff1690565b60006114d981611554565b82516114ec90601490602086019061299a565b50815161150090601590602085019061299a565b506040517ff2e795d4a33ae9a0d3282888375b8ae781ea4de1cbf101ac96150aa95ccff0b490600090a1505050565b60006001600160e01b03198216637965db0b60e01b1480610718575061071882612128565b610c5a8133612133565b6127106001600160601b03821611156115cc5760405162461bcd60e51b815260206004820152602a60248201527f455243323938313a20726f79616c7479206665652077696c6c206578636565646044820152692073616c65507269636560b01b6064820152608401610873565b6001600160a01b03821661161e5760405162461bcd60e51b815260206004820152601960248201527822a921991c9c189d1034b73b30b634b2103932b1b2b4bb32b960391b6044820152606401610873565b604080518082019091526001600160a01b039092168083526001600160601b039091166020909201829052600160a01b90910217600055565b61166081612197565b610c5a5760405162461bcd60e51b815260040161087390613341565b600081815260066020526040902080546001600160a01b0319166001600160a01b03841690811790915581906116b182610d46565b6001600160a01b03167f8c5be1e5ebec7d5bd14f71427d1e84f3dd0314c0f7b2291e5b200ac8c7c3b92560405160405180910390a45050565b6000806116f683610d46565b9050806001600160a01b0316846001600160a01b0316148061171d575061171d81856114a0565b806117415750836001600160a01b0316611736846107d7565b6001600160a01b0316145b949350505050565b826001600160a01b031661175c82610d46565b6001600160a01b0316146117c05760405162461bcd60e51b815260206004820152602560248201527f4552433732313a207472616e736665722066726f6d20696e636f72726563742060448201526437bbb732b960d91b6064820152608401610873565b6001600160a01b0382166118225760405162461bcd60e51b8152602060048201526024808201527f4552433732313a207472616e7366657220746f20746865207a65726f206164646044820152637265737360e01b6064820152608401610873565b61182d8383836121b4565b61183860008261167c565b6001600160a01b03831660009081526005602052604081208054600192906118619084906137cd565b90915550506001600160a01b038216600090815260056020526040812080546001929061188f9084906137e4565b909155505060008181526004602052604080822080546001600160a01b0319166001600160a01b03868116918217909255915184939187169160008051602061398a83398151915291a4505050565b6118e88282611255565b610c36576000828152600d602090815260408083206001600160a01b03851684529091529020805460ff191660011790556119203390565b6001600160a01b0316816001600160a01b0316837f2f8788117e7eff1d82e926ec794901d17c78024a50270940304540a733656f0d60405160405180910390a45050565b61196e8282611255565b15610c36576000828152600d602090815260408083206001600160a01b0385168085529252808320805460ff1916905551339285917ff6391f5c32d9c69d2a47ea670b442974b53935d1edc7fd64eb21e047a839171b9190a45050565b6119d36121c7565b600c805460ff191690557f5db9ee0a495bf2e6ff9c91a7834c1ba4fdd244a5e8aa4e537bd38aeae4b073aa335b604051611a0d9190612b54565b60405180910390a1565b610c5a81612210565b600c5460ff1615611a665760405162461bcd60e51b815260206004820152601060248201526f14185d5cd8589b194e881c185d5cd95960821b6044820152606401610873565b565b6060810151602001516001600160a01b0316611ac65760405162461bcd60e51b815260206004820152601c60248201527f4b5242546f6b656e3a20626164206973737565722061646472657373000000006044820152606401610873565b6080810151602001516001600160a01b0316611b345760405162461bcd60e51b815260206004820152602760248201527f4b5242546f6b656e3a206261642063726564656e7469616c5375626a656374206044820152666164647265737360c81b6064820152608401610873565b608081015151604051611b4a9190602001613622565b60408051601f198184030181529082905280516020918201206060840151519092611b759201613622565b604051602081830303815290604052805190602001201415611bf75760405162461bcd60e51b815260206004820152603560248201527f4b5242546f6b656e3a2069737375657220444944206973207468652073616d6560448201527408185cc818dc9959195b9d1a585b14dd589a9958dd605a1b6064820152608401610873565b8060800151602001516001600160a01b03168160600151602001516001600160a01b03161415611c8b5760405162461bcd60e51b815260206004820152603960248201527f4b5242546f6b656e3a20697373756572206164647265737320697320746865206044820152781cd85b5948185cc818dc9959195b9d1a585b14dd589a9958dd603a1b6064820152608401610873565b806080015161012001514211611cf65760405162461bcd60e51b815260206004820152602a60248201527f4b5242546f6b656e3a2056432069737375616e63654461746520697320696e206044820152697468652066757475726560b01b6064820152608401610873565b806080015161014001514210610c5a5760405162461bcd60e51b815260206004820181905260248201527f4b5242546f6b656e3a2056432068617320616c726561647920657870697265646044820152606401610873565b81518151600091849184911115611d6a57600092505050610718565b6000925060005b82518251611d7f91906137cd565b8111611e2257600160005b8451811015611dfe57848181518110611da557611da561332b565b01602001516001600160f81b03191684611dbf83866137e4565b81518110611dcf57611dcf61332b565b01602001516001600160f81b03191614611dec5760009150611dfe565b80611df6816137fc565b915050611d8a565b508015611e0f576001945050611e22565b5080611e1a816137fc565b915050611d71565b50505092915050565b60006113d582846137e4565b610c3682826040518060200160405280600081525061222a565b611e59611a20565b600c805460ff191660011790557f62e78cea01bee320cd4e420270b5ea74000d11b0c9f74754ebdbfc544b05a258611a003390565b816001600160a01b0316836001600160a01b03161415611eec5760405162461bcd60e51b815260206004820152601960248201527822a9219b99189d1030b8383937bb32903a379031b0b63632b960391b6044820152606401610873565b6001600160a01b03838116600081815260076020908152604080832094871680845294825291829020805460ff191686151590811790915591519182527f17307eab39ab6107e8899845ad3d59bd9653f200f220920489ca2b5937696c31910160405180910390a3505050565b60006113d582846137cd565b60405163f340fa0160e01b81526001600160a01b037f0000000000000000000000000000000000000000000000000000000000000000169063f340fa01908390611fb3908690600401612b54565b6000604051808303818588803b158015611fcc57600080fd5b505af1158015611fe0573d6000803e3d6000fd5b50505050505050565b611ff4848484611749565b6120008484848461225d565b61136f5760405162461bcd60e51b815260040161087390613817565b60606010805461075490613243565b60608161204f5750506040805180820190915260018152600360fc1b602082015290565b8160005b81156120795780612063816137fc565b91506120729050600a83613317565b9150612053565b6000816001600160401b0381111561209357612093612c39565b6040519080825280601f01601f1916602001820160405280156120bd576020820181803683370190505b5090505b8415611741576120d26001836137cd565b91506120df600a86613869565b6120ea9060306137e4565b60f81b8183815181106120ff576120ff61332b565b60200101906001600160f81b031916908160001a905350612121600a86613317565b94506120c1565b60006107188261235b565b61213d8282611255565b610c3657612155816001600160a01b03166014612380565b612160836020612380565b60405160200161217192919061387d565b60408051601f198184030181529082905262461bcd60e51b825261087391600401612b28565b6000908152600460205260409020546001600160a01b0316151590565b6121bc611a20565b61074083838361251b565b600c5460ff16611a665760405162461bcd60e51b815260206004820152601460248201527314185d5cd8589b194e881b9bdd081c185d5cd95960621b6044820152606401610873565b612219816125d3565b600090815260016020526040812055565b6122348383612668565b612241600084848461225d565b6107405760405162461bcd60e51b815260040161087390613817565b60006001600160a01b0384163b1561235057604051630a85bd0160e11b81526001600160a01b0385169063150b7a02906122a19033908990889088906004016138ec565b6020604051808303816000875af19250505080156122dc575060408051601f3d908101601f191682019092526122d99181019061391f565b60015b612336573d80801561230a576040519150601f19603f3d011682016040523d82523d6000602084013e61230f565b606091505b50805161232e5760405162461bcd60e51b815260040161087390613817565b805181602001fd5b6001600160e01b031916630a85bd0160e11b149050611741565b506001949350505050565b60006001600160e01b0319821663780e9d6360e01b1480610718575061071882612795565b6060600061238f8360026132e2565b61239a9060026137e4565b6001600160401b038111156123b1576123b1612c39565b6040519080825280601f01601f1916602001820160405280156123db576020820181803683370190505b509050600360fc1b816000815181106123f6576123f661332b565b60200101906001600160f81b031916908160001a905350600f60fb1b816001815181106124255761242561332b565b60200101906001600160f81b031916908160001a90535060006124498460026132e2565b6124549060016137e4565b90505b60018111156124cc576f181899199a1a9b1b9c1cb0b131b232b360811b85600f16601081106124885761248861332b565b1a60f81b82828151811061249e5761249e61332b565b60200101906001600160f81b031916908160001a90535060049490941c936124c58161393c565b9050612457565b5083156113d55760405162461bcd60e51b815260206004820181905260248201527f537472696e67733a20686578206c656e67746820696e73756666696369656e746044820152606401610873565b6001600160a01b0383166125765761257181600a80546000838152600b60205260408120829055600182018355919091527fc65a7bb8d6351c1cf70c95a316cc6a92839c986682d98bc35f958f4883f9d2a80155565b612599565b816001600160a01b0316836001600160a01b0316146125995761259983826127d5565b6001600160a01b0382166125b05761074081612872565b826001600160a01b0316826001600160a01b031614610740576107408282612921565b60006125de82610d46565b90506125ec816000846121b4565b6125f760008361167c565b6001600160a01b03811660009081526005602052604081208054600192906126209084906137cd565b909155505060008281526004602052604080822080546001600160a01b0319169055518391906001600160a01b0384169060008051602061398a833981519152908390a45050565b6001600160a01b0382166126be5760405162461bcd60e51b815260206004820181905260248201527f4552433732313a206d696e7420746f20746865207a65726f20616464726573736044820152606401610873565b6126c781612197565b156127145760405162461bcd60e51b815260206004820152601c60248201527f4552433732313a20746f6b656e20616c7265616479206d696e746564000000006044820152606401610873565b612720600083836121b4565b6001600160a01b03821660009081526005602052604081208054600192906127499084906137e4565b909155505060008181526004602052604080822080546001600160a01b0319166001600160a01b038616908117909155905183929060008051602061398a833981519152908290a45050565b60006001600160e01b031982166380ac58cd60e01b14806127c657506001600160e01b03198216635b5e139f60e01b145b80610718575061071882612965565b600060016127e284610d7b565b6127ec91906137cd565b60008381526009602052604090205490915080821461283f576001600160a01b03841660009081526008602090815260408083208584528252808320548484528184208190558352600990915290208190555b5060009182526009602090815260408084208490556001600160a01b039094168352600881528383209183525290812055565b600a54600090612884906001906137cd565b6000838152600b6020526040812054600a80549394509092849081106128ac576128ac61332b565b9060005260206000200154905080600a83815481106128cd576128cd61332b565b6000918252602080832090910192909255828152600b9091526040808220849055858252812055600a80548061290557612905613953565b6001900381819060005260206000200160009055905550505050565b600061292c83610d7b565b6001600160a01b039093166000908152600860209081526040808320868452825280832085905593825260099052919091209190915550565b60006001600160e01b0319821663152a902d60e11b148061071857506301ffc9a760e01b6001600160e01b0319831614610718565b8280546129a690613243565b90600052602060002090601f0160209004810192826129c85760008555612a0e565b82601f106129e157805160ff1916838001178555612a0e565b82800160010185558215612a0e579182015b82811115612a0e5782518255916020019190600101906129f3565b50612a1a929150612a1e565b5090565b5b80821115612a1a5760008155600101612a1f565b6001600160e01b031981168114610c5a57600080fd5b600060208284031215612a5b57600080fd5b81356113d581612a33565b6001600160a01b0381168114610c5a57600080fd5b8035612a8681612a66565b919050565b60008060408385031215612a9e57600080fd5b8235612aa981612a66565b915060208301356001600160601b0381168114612ac557600080fd5b809150509250929050565b60005b83811015612aeb578181015183820152602001612ad3565b8381111561136f5750506000910152565b60008151808452612b14816020860160208601612ad0565b601f01601f19169290920160200192915050565b6020815260006113d56020830184612afc565b600060208284031215612b4d57600080fd5b5035919050565b6001600160a01b0391909116815260200190565b60008060408385031215612b7b57600080fd5b8235612b8681612a66565b946020939093013593505050565b600080600060608486031215612ba957600080fd5b8335612bb481612a66565b92506020840135612bc481612a66565b929592945050506040919091013590565b60008060408385031215612be857600080fd5b50508035926020909101359150565b60008060408385031215612c0a57600080fd5b823591506020830135612ac581612a66565b600060208284031215612c2e57600080fd5b81356113d581612a66565b634e487b7160e01b600052604160045260246000fd5b604080519081016001600160401b0381118282101715612c7157612c71612c39565b60405290565b60405161016081016001600160401b0381118282101715612c7157612c71612c39565b60405161010081016001600160401b0381118282101715612c7157612c71612c39565b604051601f8201601f191681016001600160401b0381118282101715612ce557612ce5612c39565b604052919050565b60006001600160401b03821115612d0657612d06612c39565b50601f01601f191660200190565b6000612d27612d2284612ced565b612cbd565b9050828152838383011115612d3b57600080fd5b828260208301376000602084830101529392505050565b600082601f830112612d6357600080fd5b6113d583833560208501612d14565b600060408284031215612d8457600080fd5b612d8c612c4f565b905081356001600160401b03811115612da457600080fd5b612db084828501612d52565b8252506020820135612dc181612a66565b602082015292915050565b803560ff81168114612a8657600080fd5b60006101608284031215612df057600080fd5b612df8612c77565b905081356001600160401b0380821115612e1157600080fd5b612e1d85838601612d52565b8352612e2b60208501612a7b565b60208401526040840135915080821115612e4457600080fd5b612e5085838601612d52565b60408401526060840135915080821115612e6957600080fd5b612e7585838601612d52565b60608401526080840135915080821115612e8e57600080fd5b612e9a85838601612d52565b608084015260a0840135915080821115612eb357600080fd5b50612ec084828501612d52565b60a083015250612ed260c08301612dcc565b60c082015260e082013560e082015261010080830135818301525061012080830135818301525061014080830135818301525092915050565b600060408284031215612f1d57600080fd5b612f25612c4f565b905081356001600160401b0380821115612f3e57600080fd5b612f4a85838601612d52565b83526020840135915080821115612f6057600080fd5b50612f6d84828501612d52565b60208301525092915050565b600080600060608486031215612f8e57600080fd5b8335612f9981612a66565b92506020840135915060408401356001600160401b0380821115612fbc57600080fd5b908501906101008288031215612fd157600080fd5b612fd9612c9a565b823582811115612fe857600080fd5b612ff489828601612d52565b82525060208301358281111561300957600080fd5b61301589828601612d52565b60208301525060408301358281111561302d57600080fd5b61303989828601612d52565b60408301525060608301358281111561305157600080fd5b61305d89828601612d72565b60608301525060808301358281111561307557600080fd5b61308189828601612ddd565b60808301525060a08301358281111561309957600080fd5b6130a589828601612f0b565b60a08301525060c0830135828111156130bd57600080fd5b6130c989828601612d52565b60c08301525060e0830135828111156130e157600080fd5b6130ed89828601612d52565b60e0830152508093505050509250925092565b6000806040838503121561311357600080fd5b823561311e81612a66565b915060208301358015158114612ac557600080fd5b6000806000806080858703121561314957600080fd5b843561315481612a66565b9350602085013561316481612a66565b92506040850135915060608501356001600160401b0381111561318657600080fd5b8501601f8101871361319757600080fd5b6131a687823560208401612d14565b91505092959194509250565b600080604083850312156131c557600080fd5b82356131d081612a66565b91506020830135612ac581612a66565b600080604083850312156131f357600080fd5b82356001600160401b038082111561320a57600080fd5b61321686838701612d52565b9350602085013591508082111561322c57600080fd5b5061323985828601612d52565b9150509250929050565b600181811c9082168061325757607f821691505b6020821081141561327857634e487b7160e01b600052602260045260246000fd5b50919050565b6020808252602e908201527f4552433732313a2063616c6c6572206973206e6f7420746f6b656e206f776e6560408201526d1c881b9bdc88185c1c1c9bdd995960921b606082015260800190565b634e487b7160e01b600052601160045260246000fd5b60008160001904831182151516156132fc576132fc6132cc565b500290565b634e487b7160e01b600052601260045260246000fd5b60008261332657613326613301565b500490565b634e487b7160e01b600052603260045260246000fd5b602080825260189082015277115490cdcc8c4e881a5b9d985b1a59081d1bdad95b88125160421b604082015260600190565b60008151604084526133886040850182612afc565b6020938401516001600160a01b0316949093019390935250919050565b600061016082518185526133bb82860182612afc565b91505060208301516133d860208601826001600160a01b03169052565b50604083015184820360408601526133f08282612afc565b9150506060830151848203606086015261340a8282612afc565b915050608083015184820360808601526134248282612afc565b91505060a083015184820360a086015261343e8282612afc565b91505060c083015161345560c086018260ff169052565b5060e08381015190850152610100808401519085015261012080840151908501526101409283015192909301919091525090565b600081516040845261349e6040850182612afc565b9050602083015184820360208601526134b78282612afc565b95945050505050565b60208152600082516101008060208501526134df610120850183612afc565b91506020850151601f19808685030160408701526134fd8483612afc565b9350604087015191508086850301606087015261351a8483612afc565b935060608701519150808685030160808701526135378483613373565b935060808701519150808685030160a087015261355484836133a5565b935060a08701519150808685030160c08701526135718483613489565b935060c08701519150808685030160e087015261358e8483612afc565b935060e08701519150808685030183870152506135ab8382612afc565b9695505050505050565b6000602082840312156135c757600080fd5b81516001600160401b038111156135dd57600080fd5b8201601f810184136135ee57600080fd5b80516135fc612d2282612ced565b81815285602083850101111561361157600080fd5b6134b7826020830160208601612ad0565b60008251613634818460208701612ad0565b9190910192915050565b8054600090600181811c908083168061365857607f831692505b602080841082141561367a57634e487b7160e01b600052602260045260246000fd5b81801561368e576001811461369f576136cc565b60ff198616895284890196506136cc565b60008881526020902060005b868110156136c45781548b8201529085019083016136ab565b505084890196505b50505050505092915050565b7f76632e5f7479706520646f65736e2774206d617463682072657175697265644381526e03932b232b73a34b0b62a3cb8329d1608d1b602082015260006113d5602f83018461363e565b7f76632e63726564656e7469616c5375626a6563742e76616c756520646f65736e81527f2774206d6174636820726571756972656443726564656e7469616c56616c756560208201526101d160f51b604082015260006113d5604283018461363e565b60008351613797818460208801612ad0565b8351908301906137ab818360208801612ad0565b01949350505050565b6000602082840312156137c657600080fd5b5051919050565b6000828210156137df576137df6132cc565b500390565b600082198211156137f7576137f76132cc565b500190565b6000600019821415613810576138106132cc565b5060010190565b60208082526032908201527f4552433732313a207472616e7366657220746f206e6f6e20455243373231526560408201527131b2b4bb32b91034b6b83632b6b2b73a32b960711b606082015260800190565b60008261387857613878613301565b500690565b76020b1b1b2b9b9a1b7b73a3937b61d1030b1b1b7bab73a1604d1b8152600083516138af816017850160208801612ad0565b7001034b99036b4b9b9b4b733903937b6329607d1b60179184019182015283516138e0816028840160208801612ad0565b01602801949350505050565b6001600160a01b03858116825284166020820152604081018390526080606082018190526000906135ab90830184612afc565b60006020828403121561393157600080fd5b81516113d581612a33565b60008161394b5761394b6132cc565b506000190190565b634e487b7160e01b600052603160045260246000fdfe65d7a28e3265b37a6474929f336521b332c1681b933f6cb9f3376673440d862addf252ad1be2c89b69c2b068fc378daa952ba7f163c4a11628f55a4df523b3efe8af128b9b5dbd17bb2a0ae1c50a8ac258e80a668c749226d6999d0778527509a2646970667358221220d3f2961a2387127ca994df9581663059cb97543998130e79c686c386eef41af464736f6c634300080c0033608060405234801561001057600080fd5b5061001a3361001f565b61006f565b600080546001600160a01b038381166001600160a01b0319831681178455604051919092169283917f8be0079c531659141344cd1fd0a4f28419497f9722a3daafe3b4186f6b6457e09190a35050565b61050a8061007e6000396000f3fe6080604052600436106100555760003560e01c806351cff8d91461005a578063715018a61461007c5780638da5cb5b14610091578063e3a9db1a146100be578063f2fde38b14610102578063f340fa0114610122575b600080fd5b34801561006657600080fd5b5061007a61007536600461048a565b610135565b005b34801561008857600080fd5b5061007a6101ac565b34801561009d57600080fd5b506000546040516001600160a01b0390911681526020015b60405180910390f35b3480156100ca57600080fd5b506100f46100d936600461048a565b6001600160a01b031660009081526001602052604090205490565b6040519081526020016100b5565b34801561010e57600080fd5b5061007a61011d36600461048a565b6101c0565b61007a61013036600461048a565b61023e565b61013d6102b0565b6001600160a01b0381166000818152600160205260408120805491905590610165908261030a565b816001600160a01b03167f7084f5476618d8e60b11ef0d7d3f06914655adb8793e28ff7f018d4c76d505d5826040516101a091815260200190565b60405180910390a25050565b6101b46102b0565b6101be6000610425565b565b6101c86102b0565b6001600160a01b0381166102325760405162461bcd60e51b815260206004820152602660248201527f4f776e61626c653a206e6577206f776e657220697320746865207a65726f206160448201526564647265737360d01b60648201526084015b60405180910390fd5b61023b81610425565b50565b6102466102b0565b6001600160a01b0381166000908152600160205260408120805434928392916102709084906104ae565b90915550506040518181526001600160a01b038316907f2da466a7b24304f47e87fa2e1e5a81b9831ce54fec19055ce277ca2f39ba42c4906020016101a0565b6000546001600160a01b031633146101be5760405162461bcd60e51b815260206004820181905260248201527f4f776e61626c653a2063616c6c6572206973206e6f7420746865206f776e65726044820152606401610229565b8047101561035a5760405162461bcd60e51b815260206004820152601d60248201527f416464726573733a20696e73756666696369656e742062616c616e63650000006044820152606401610229565b6000826001600160a01b03168260405160006040518083038185875af1925050503d80600081146103a7576040519150601f19603f3d011682016040523d82523d6000602084013e6103ac565b606091505b50509050806104205760405162461bcd60e51b815260206004820152603a60248201527f416464726573733a20756e61626c6520746f2073656e642076616c75652c20726044820152791958da5c1a595b9d081b585e481a185d99481c995d995c9d195960321b6064820152608401610229565b505050565b600080546001600160a01b038381166001600160a01b0319831681178455604051919092169283917f8be0079c531659141344cd1fd0a4f28419497f9722a3daafe3b4186f6b6457e09190a35050565b6001600160a01b038116811461023b57600080fd5b60006020828403121561049c57600080fd5b81356104a781610475565b9392505050565b600082198211156104cf57634e487b7160e01b600052601160045260246000fd5b50019056fea2646970667358221220c3a33d8270e378db5d35f41da390829ed66f9edf654c52e354e5ef6a9f009cf564736f6c634300080c0033",
  "linkReferences": {},
  "deployedLinkReferences": {}
}