{
  "_format": "hh-sol-artifact-1",
  "contractName": "KRBCredentialNFT",
  "sourceName": "contracts/KRBCredentialNFT.sol",
  "abi": [
    {
      "inputs": [
        {
          "internalType": "string",
          "name": "name",
          "type": "string"
        },
        {
          "internalType": "string",
          "name": "symbol",
          "type": "string"
        },
        {
          "internalType": "string",
          "name": "baseTokenURI",
          "type": "string"
        },
        {
          "internalType": "string",
          "name": "metadataURI",
          "type": "string"
        },
        {
          "internalType": "uint256",
          "name": "initialPrice",
          "type": "uint256"
        },
        {
          "internalType": "address",
          "name": "krebitAddress",
          "type": "address"
        }
      ],
      "stateMutability": "nonpayable",
      "type": "constructor"
    },
    {
      "anonymous": false,
      "inputs": [
        {
          "indexed": true,
          "internalType": "address",
          "name": "owner",
          "type": "address"
        },
        {
          "indexed": true,
          "internalType": "address",
          "name": "approved",
          "type": "address"
        },
        {
          "indexed": true,
          "internalType": "uint256",
          "name": "tokenId",
          "type": "uint256"
        }
      ],
      "name": "Approval",
      "type": "event"
    },
    {
      "anonymous": false,
      "inputs": [
        {
          "indexed": true,
          "internalType": "address",
          "name": "owner",
          "type": "address"
        },
        {
          "indexed": true,
          "internalType": "address",
          "name": "operator",
          "type": "address"
        },
        {
          "indexed": false,
          "internalType": "bool",
          "name": "approved",
          "type": "bool"
        }
      ],
      "name": "ApprovalForAll",
      "type": "event"
    },
    {
      "anonymous": false,
      "inputs": [
        {
          "indexed": false,
          "internalType": "address",
          "name": "account",
          "type": "address"
        }
      ],
      "name": "Paused",
      "type": "event"
    },
    {
      "anonymous": false,
      "inputs": [
        {
          "indexed": true,
          "internalType": "bytes32",
          "name": "role",
          "type": "bytes32"
        },
        {
          "indexed": true,
          "internalType": "bytes32",
          "name": "previousAdminRole",
          "type": "bytes32"
        },
        {
          "indexed": true,
          "internalType": "bytes32",
          "name": "newAdminRole",
          "type": "bytes32"
        }
      ],
      "name": "RoleAdminChanged",
      "type": "event"
    },
    {
      "anonymous": false,
      "inputs": [
        {
          "indexed": true,
          "internalType": "bytes32",
          "name": "role",
          "type": "bytes32"
        },
        {
          "indexed": true,
          "internalType": "address",
          "name": "account",
          "type": "address"
        },
        {
          "indexed": true,
          "internalType": "address",
          "name": "sender",
          "type": "address"
        }
      ],
      "name": "RoleGranted",
      "type": "event"
    },
    {
      "anonymous": false,
      "inputs": [
        {
          "indexed": true,
          "internalType": "bytes32",
          "name": "role",
          "type": "bytes32"
        },
        {
          "indexed": true,
          "internalType": "address",
          "name": "account",
          "type": "address"
        },
        {
          "indexed": true,
          "internalType": "address",
          "name": "sender",
          "type": "address"
        }
      ],
      "name": "RoleRevoked",
      "type": "event"
    },
    {
      "anonymous": false,
      "inputs": [
        {
          "indexed": true,
          "internalType": "address",
          "name": "from",
          "type": "address"
        },
        {
          "indexed": true,
          "internalType": "address",
          "name": "to",
          "type": "address"
        },
        {
          "indexed": true,
          "internalType": "uint256",
          "name": "tokenId",
          "type": "uint256"
        }
      ],
      "name": "Transfer",
      "type": "event"
    },
    {
      "anonymous": false,
      "inputs": [
        {
          "indexed": false,
          "internalType": "address",
          "name": "account",
          "type": "address"
        }
      ],
      "name": "Unpaused",
      "type": "event"
    },
    {
      "anonymous": false,
      "inputs": [],
      "name": "Updated",
      "type": "event"
    },
    {
      "inputs": [],
      "name": "DEFAULT_ADMIN_ROLE",
      "outputs": [
        {
          "internalType": "bytes32",
          "name": "",
          "type": "bytes32"
        }
      ],
      "stateMutability": "view",
      "type": "function"
    },
    {
      "inputs": [],
      "name": "PAUSER_ROLE",
      "outputs": [
        {
          "internalType": "bytes32",
          "name": "",
          "type": "bytes32"
        }
      ],
      "stateMutability": "view",
      "type": "function"
    },
    {
      "inputs": [],
      "name": "ROYALTY_SETTER_ROLE",
      "outputs": [
        {
          "internalType": "bytes32",
          "name": "",
          "type": "bytes32"
        }
      ],
      "stateMutability": "view",
      "type": "function"
    },
    {
      "inputs": [
        {
          "internalType": "address",
          "name": "to",
          "type": "address"
        },
        {
          "internalType": "uint256",
          "name": "tokenId",
          "type": "uint256"
        }
      ],
      "name": "approve",
      "outputs": [],
      "stateMutability": "nonpayable",
      "type": "function"
    },
    {
      "inputs": [
        {
          "internalType": "address",
          "name": "owner",
          "type": "address"
        }
      ],
      "name": "balanceOf",
      "outputs": [
        {
          "internalType": "uint256",
          "name": "",
          "type": "uint256"
        }
      ],
      "stateMutability": "view",
      "type": "function"
    },
    {
      "inputs": [
        {
          "internalType": "uint256",
          "name": "tokenId",
          "type": "uint256"
        }
      ],
      "name": "burn",
      "outputs": [],
      "stateMutability": "nonpayable",
      "type": "function"
    },
    {
      "inputs": [],
      "name": "contractURI",
      "outputs": [
        {
          "internalType": "string",
          "name": "",
          "type": "string"
        }
      ],
      "stateMutability": "view",
      "type": "function"
    },
    {
      "inputs": [],
      "name": "feesAvailableForWithdraw",
      "outputs": [
        {
          "internalType": "uint256",
          "name": "",
          "type": "uint256"
        }
      ],
      "stateMutability": "view",
      "type": "function"
    },
    {
      "inputs": [
        {
          "internalType": "uint256",
          "name": "tokenId",
          "type": "uint256"
        }
      ],
      "name": "getApproved",
      "outputs": [
        {
          "internalType": "address",
          "name": "",
          "type": "address"
        }
      ],
      "stateMutability": "view",
      "type": "function"
    },
    {
      "inputs": [
        {
          "internalType": "bytes32",
          "name": "role",
          "type": "bytes32"
        }
      ],
      "name": "getRoleAdmin",
      "outputs": [
        {
          "internalType": "bytes32",
          "name": "",
          "type": "bytes32"
        }
      ],
      "stateMutability": "view",
      "type": "function"
    },
    {
      "inputs": [
        {
          "internalType": "bytes32",
          "name": "role",
          "type": "bytes32"
        },
        {
          "internalType": "address",
          "name": "account",
          "type": "address"
        }
      ],
      "name": "grantRole",
      "outputs": [],
      "stateMutability": "nonpayable",
      "type": "function"
    },
    {
      "inputs": [
        {
          "internalType": "bytes32",
          "name": "role",
          "type": "bytes32"
        },
        {
          "internalType": "address",
          "name": "account",
          "type": "address"
        }
      ],
      "name": "hasRole",
      "outputs": [
        {
          "internalType": "bool",
          "name": "",
          "type": "bool"
        }
      ],
      "stateMutability": "view",
      "type": "function"
    },
    {
      "inputs": [
        {
          "internalType": "address",
          "name": "owner",
          "type": "address"
        },
        {
          "internalType": "address",
          "name": "operator",
          "type": "address"
        }
      ],
      "name": "isApprovedForAll",
      "outputs": [
        {
          "internalType": "bool",
          "name": "",
          "type": "bool"
        }
      ],
      "stateMutability": "view",
      "type": "function"
    },
    {
      "inputs": [
        {
          "internalType": "address",
          "name": "to",
          "type": "address"
        },
        {
          "internalType": "uint256",
          "name": "tokenId",
          "type": "uint256"
        },
        {
          "components": [
            {
              "internalType": "string",
              "name": "_context",
              "type": "string"
            },
            {
              "internalType": "string",
              "name": "_type",
              "type": "string"
            },
            {
              "internalType": "string",
              "name": "id",
              "type": "string"
            },
            {
              "components": [
                {
                  "internalType": "string",
                  "name": "id",
                  "type": "string"
                },
                {
                  "internalType": "address",
                  "name": "ethereumAddress",
                  "type": "address"
                }
              ],
              "internalType": "struct VCTypesV01.Issuer",
              "name": "issuer",
              "type": "tuple"
            },
            {
              "components": [
                {
                  "internalType": "string",
                  "name": "id",
                  "type": "string"
                },
                {
                  "internalType": "address",
                  "name": "ethereumAddress",
                  "type": "address"
                },
                {
                  "internalType": "string",
                  "name": "_type",
                  "type": "string"
                },
                {
                  "internalType": "string",
                  "name": "typeSchema",
                  "type": "string"
                },
                {
                  "internalType": "string",
                  "name": "value",
                  "type": "string"
                },
                {
                  "internalType": "string",
                  "name": "encrypted",
                  "type": "string"
                },
                {
                  "internalType": "uint8",
                  "name": "trust",
                  "type": "uint8"
                },
                {
                  "internalType": "uint256",
                  "name": "stake",
                  "type": "uint256"
                },
                {
                  "internalType": "uint256",
                  "name": "price",
                  "type": "uint256"
                },
                {
                  "internalType": "uint256",
                  "name": "nbf",
                  "type": "uint256"
                },
                {
                  "internalType": "uint256",
                  "name": "exp",
                  "type": "uint256"
                }
              ],
              "internalType": "struct VCTypesV01.CredentialSubject",
              "name": "credentialSubject",
              "type": "tuple"
            },
            {
              "components": [
                {
                  "internalType": "string",
                  "name": "id",
                  "type": "string"
                },
                {
                  "internalType": "string",
                  "name": "_type",
                  "type": "string"
                }
              ],
              "internalType": "struct VCTypesV01.CredentialSchema",
              "name": "credentialSchema",
              "type": "tuple"
            },
            {
              "internalType": "string",
              "name": "issuanceDate",
              "type": "string"
            },
            {
              "internalType": "string",
              "name": "expirationDate",
              "type": "string"
            }
          ],
          "internalType": "struct VCTypesV01.VerifiableCredential",
          "name": "vc",
          "type": "tuple"
        }
      ],
      "name": "mintWithCredential",
      "outputs": [],
      "stateMutability": "payable",
      "type": "function"
    },
    {
      "inputs": [],
      "name": "name",
      "outputs": [
        {
          "internalType": "string",
          "name": "",
          "type": "string"
        }
      ],
      "stateMutability": "view",
      "type": "function"
    },
    {
      "inputs": [
        {
          "internalType": "uint256",
          "name": "tokenId",
          "type": "uint256"
        }
      ],
      "name": "ownerOf",
      "outputs": [
        {
          "internalType": "address",
          "name": "",
          "type": "address"
        }
      ],
      "stateMutability": "view",
      "type": "function"
    },
    {
      "inputs": [],
      "name": "pause",
      "outputs": [],
      "stateMutability": "nonpayable",
      "type": "function"
    },
    {
      "inputs": [],
      "name": "paused",
      "outputs": [
        {
          "internalType": "bool",
          "name": "",
          "type": "bool"
        }
      ],
      "stateMutability": "view",
      "type": "function"
    },
    {
      "inputs": [
        {
          "internalType": "address",
          "name": "dest",
          "type": "address"
        }
      ],
      "name": "payments",
      "outputs": [
        {
          "internalType": "uint256",
          "name": "",
          "type": "uint256"
        }
      ],
      "stateMutability": "view",
      "type": "function"
    },
    {
      "inputs": [],
      "name": "price",
      "outputs": [
        {
          "internalType": "uint256",
          "name": "",
          "type": "uint256"
        }
      ],
      "stateMutability": "view",
      "type": "function"
    },
    {
      "inputs": [
        {
          "internalType": "bytes32",
          "name": "role",
          "type": "bytes32"
        },
        {
          "internalType": "address",
          "name": "account",
          "type": "address"
        }
      ],
      "name": "renounceRole",
      "outputs": [],
      "stateMutability": "nonpayable",
      "type": "function"
    },
    {
      "inputs": [
        {
          "internalType": "bytes32",
          "name": "role",
          "type": "bytes32"
        },
        {
          "internalType": "address",
          "name": "account",
          "type": "address"
        }
      ],
      "name": "revokeRole",
      "outputs": [],
      "stateMutability": "nonpayable",
      "type": "function"
    },
    {
      "inputs": [
        {
          "internalType": "uint256",
          "name": "_tokenId",
          "type": "uint256"
        },
        {
          "internalType": "uint256",
          "name": "_salePrice",
          "type": "uint256"
        }
      ],
      "name": "royaltyInfo",
      "outputs": [
        {
          "internalType": "address",
          "name": "",
          "type": "address"
        },
        {
          "internalType": "uint256",
          "name": "",
          "type": "uint256"
        }
      ],
      "stateMutability": "view",
      "type": "function"
    },
    {
      "inputs": [
        {
          "internalType": "address",
          "name": "from",
          "type": "address"
        },
        {
          "internalType": "address",
          "name": "to",
          "type": "address"
        },
        {
          "internalType": "uint256",
          "name": "tokenId",
          "type": "uint256"
        }
      ],
      "name": "safeTransferFrom",
      "outputs": [],
      "stateMutability": "nonpayable",
      "type": "function"
    },
    {
      "inputs": [
        {
          "internalType": "address",
          "name": "from",
          "type": "address"
        },
        {
          "internalType": "address",
          "name": "to",
          "type": "address"
        },
        {
          "internalType": "uint256",
          "name": "tokenId",
          "type": "uint256"
        },
        {
          "internalType": "bytes",
          "name": "data",
          "type": "bytes"
        }
      ],
      "name": "safeTransferFrom",
      "outputs": [],
      "stateMutability": "nonpayable",
      "type": "function"
    },
    {
      "inputs": [
        {
          "internalType": "address",
          "name": "operator",
          "type": "address"
        },
        {
          "internalType": "bool",
          "name": "approved",
          "type": "bool"
        }
      ],
      "name": "setApprovalForAll",
      "outputs": [],
      "stateMutability": "nonpayable",
      "type": "function"
    },
    {
      "inputs": [
        {
          "internalType": "address",
          "name": "receiver",
          "type": "address"
        },
        {
          "internalType": "uint96",
          "name": "feeNumerator",
          "type": "uint96"
        }
      ],
      "name": "setDefaultRoyalty",
      "outputs": [],
      "stateMutability": "nonpayable",
      "type": "function"
    },
    {
      "inputs": [
        {
          "internalType": "uint256",
          "name": "newPrice",
          "type": "uint256"
        }
      ],
      "name": "setPrice",
      "outputs": [],
      "stateMutability": "nonpayable",
      "type": "function"
    },
    {
      "inputs": [
        {
          "internalType": "bytes4",
          "name": "interfaceId",
          "type": "bytes4"
        }
      ],
      "name": "supportsInterface",
      "outputs": [
        {
          "internalType": "bool",
          "name": "",
          "type": "bool"
        }
      ],
      "stateMutability": "view",
      "type": "function"
    },
    {
      "inputs": [],
      "name": "symbol",
      "outputs": [
        {
          "internalType": "string",
          "name": "",
          "type": "string"
        }
      ],
      "stateMutability": "view",
      "type": "function"
    },
    {
      "inputs": [
        {
          "internalType": "uint256",
          "name": "index",
          "type": "uint256"
        }
      ],
      "name": "tokenByIndex",
      "outputs": [
        {
          "internalType": "uint256",
          "name": "",
          "type": "uint256"
        }
      ],
      "stateMutability": "view",
      "type": "function"
    },
    {
      "inputs": [
        {
          "internalType": "address",
          "name": "owner",
          "type": "address"
        },
        {
          "internalType": "uint256",
          "name": "index",
          "type": "uint256"
        }
      ],
      "name": "tokenOfOwnerByIndex",
      "outputs": [
        {
          "internalType": "uint256",
          "name": "",
          "type": "uint256"
        }
      ],
      "stateMutability": "view",
      "type": "function"
    },
    {
      "inputs": [
        {
          "internalType": "uint256",
          "name": "tokenId",
          "type": "uint256"
        }
      ],
      "name": "tokenURI",
      "outputs": [
        {
          "internalType": "string",
          "name": "",
          "type": "string"
        }
      ],
      "stateMutability": "view",
      "type": "function"
    },
    {
      "inputs": [],
      "name": "totalSupply",
      "outputs": [
        {
          "internalType": "uint256",
          "name": "",
          "type": "uint256"
        }
      ],
      "stateMutability": "view",
      "type": "function"
    },
    {
      "inputs": [
        {
          "internalType": "address",
          "name": "from",
          "type": "address"
        },
        {
          "internalType": "address",
          "name": "to",
          "type": "address"
        },
        {
          "internalType": "uint256",
          "name": "tokenId",
          "type": "uint256"
        }
      ],
      "name": "transferFrom",
      "outputs": [],
      "stateMutability": "nonpayable",
      "type": "function"
    },
    {
      "inputs": [],
      "name": "unpause",
      "outputs": [],
      "stateMutability": "nonpayable",
      "type": "function"
    },
    {
      "inputs": [
        {
          "internalType": "address payable",
          "name": "_to",
          "type": "address"
        },
        {
          "internalType": "uint256",
          "name": "_amount",
          "type": "uint256"
        }
      ],
      "name": "withdrawFees",
      "outputs": [],
      "stateMutability": "nonpayable",
      "type": "function"
    },
    {
      "inputs": [
        {
          "internalType": "address payable",
          "name": "payee",
          "type": "address"
        }
      ],
      "name": "withdrawPayments",
      "outputs": [],
      "stateMutability": "nonpayable",
      "type": "function"
    }
  ],
  "bytecode": "0x60a06040523480156200001157600080fd5b5060405162003f4c38038062003f4c8339810160408190526200003491620003b4565b8551869086906200004d90600290602085019062000216565b5080516200006390600390602084019062000216565b5050600c805460ff19169055506040516200007e90620002a5565b604051809103906000f0801580156200009b573d6000803e3d6000fd5b506001600160a01b03166080526001600e558351620000c290601090602087019062000216565b508251620000d890601190602086019062000216565b506012829055600f80546001600160a01b0319166001600160a01b0383161790556200010d6000620001073390565b62000171565b620001397f65d7a28e3265b37a6474929f336521b332c1681b933f6cb9f3376673440d862a3362000171565b620001657fe8af128b9b5dbd17bb2a0ae1c50a8ac258e80a668c749226d6999d07785275093362000171565b505050505050620004c5565b6000828152600d602090815260408083206001600160a01b038516845290915290205460ff1662000212576000828152600d602090815260408083206001600160a01b03851684529091529020805460ff19166001179055620001d13390565b6001600160a01b0316816001600160a01b0316837f2f8788117e7eff1d82e926ec794901d17c78024a50270940304540a733656f0d60405160405180910390a45b5050565b828054620002249062000488565b90600052602060002090601f01602090048101928262000248576000855562000293565b82601f106200026357805160ff191683800117855562000293565b8280016001018555821562000293579182015b828111156200029357825182559160200191906001019062000276565b50620002a1929150620002b3565b5090565b61058880620039c483390190565b5b80821115620002a15760008155600101620002b4565b634e487b7160e01b600052604160045260246000fd5b600082601f830112620002f257600080fd5b81516001600160401b03808211156200030f576200030f620002ca565b604051601f8301601f19908116603f011681019082821181831017156200033a576200033a620002ca565b816040528381526020925086838588010111156200035757600080fd5b600091505b838210156200037b57858201830151818301840152908201906200035c565b838211156200038d5760008385830101525b9695505050505050565b80516001600160a01b0381168114620003af57600080fd5b919050565b60008060008060008060c08789031215620003ce57600080fd5b86516001600160401b0380821115620003e657600080fd5b620003f48a838b01620002e0565b975060208901519150808211156200040b57600080fd5b620004198a838b01620002e0565b965060408901519150808211156200043057600080fd5b6200043e8a838b01620002e0565b955060608901519150808211156200045557600080fd5b506200046489828a01620002e0565b935050608087015191506200047c60a0880162000397565b90509295509295509295565b600181811c908216806200049d57607f821691505b60208210811415620004bf57634e487b7160e01b600052602260045260246000fd5b50919050565b6080516134d5620004ef60003960008181610a59015281816112720152611c9501526134d56000f3fe6080604052600436106101e55760003560e01c806370a0823111610103578063ad3b1b471161009b578063ad3b1b4714610573578063b88d4fde14610593578063c87b56dd146105b3578063d547741f146105d3578063de5785d5146105f3578063e2982c2114610609578063e63ab1e914610629578063e8a3d4851461064b578063e985e9c514610660578063f44acff91461068057600080fd5b806370a082311461048b578063774bccfd146104ab5780638456cb59146104be57806391b7f5ed146104d357806391d14854146104f357806395d89b4114610513578063a035b1fe14610528578063a217fddf1461053e578063a22cb4651461055357600080fd5b80632f2ff15d116101815780632f2ff15d1461035e5780632f745c591461037e57806331b3eb941461039e57806336568abe146103be5780633f4ba83a146103de57806342842e0e146103f357806342966c68146104135780634f6ccce7146104335780635c975abb146104535780636352211e1461046b57600080fd5b806301ffc9a7146101ea57806304634d8d1461021f57806306fdde0314610241578063081812fc14610263578063095ea7b31461029057806318160ddd146102b057806323b872dd146102cf578063248a9ca3146102ef5780632a55205a1461031f575b600080fd5b3480156101f657600080fd5b5061020a6102053660046126c9565b6106a2565b60405190151581526020015b60405180910390f35b34801561022b57600080fd5b5061023f61023a36600461270b565b6106b3565b005b34801561024d57600080fd5b506102566106da565b60405161021691906127a8565b34801561026f57600080fd5b5061028361027e3660046127bb565b61076c565b60405161021691906127d4565b34801561029c57600080fd5b5061023f6102ab3660046127e8565b610793565b3480156102bc57600080fd5b50600a545b604051908152602001610216565b3480156102db57600080fd5b5061023f6102ea366004612814565b6108a9565b3480156102fb57600080fd5b506102c161030a3660046127bb565b6000908152600d602052604090206001015490565b34801561032b57600080fd5b5061033f61033a366004612855565b6108db565b604080516001600160a01b039093168352602083019190915201610216565b34801561036a57600080fd5b5061023f610379366004612877565b610987565b34801561038a57600080fd5b506102c16103993660046127e8565b6109ac565b3480156103aa57600080fd5b5061023f6103b936600461289c565b610a42565b3480156103ca57600080fd5b5061023f6103d9366004612877565b610ac3565b3480156103ea57600080fd5b5061023f610b41565b3480156103ff57600080fd5b5061023f61040e366004612814565b610b64565b34801561041f57600080fd5b5061023f61042e3660046127bb565b610b7f565b34801561043f57600080fd5b506102c161044e3660046127bb565b610bad565b34801561045f57600080fd5b50600c5460ff1661020a565b34801561047757600080fd5b506102836104863660046127bb565b610c40565b34801561049757600080fd5b506102c16104a636600461289c565b610c75565b61023f6104b9366004612bf9565b610cfb565b3480156104ca57600080fd5b5061023f611042565b3480156104df57600080fd5b5061023f6104ee3660046127bb565b611062565b3480156104ff57600080fd5b5061020a61050e366004612877565b6110ac565b34801561051f57600080fd5b506102566110d7565b34801561053457600080fd5b506102c160125481565b34801561054a57600080fd5b506102c1600081565b34801561055f57600080fd5b5061023f61056e366004612d80565b6110e6565b34801561057f57600080fd5b5061023f61058e3660046127e8565b6110f1565b34801561059f57600080fd5b5061023f6105ae366004612db3565b611194565b3480156105bf57600080fd5b506102566105ce3660046127bb565b6111cc565b3480156105df57600080fd5b5061023f6105ee366004612877565b611233565b3480156105ff57600080fd5b506102c160135481565b34801561061557600080fd5b506102c161062436600461289c565b611258565b34801561063557600080fd5b506102c160008051602061344083398151915281565b34801561065757600080fd5b506102566112e8565b34801561066c57600080fd5b5061020a61067b366004612e32565b6112f7565b34801561068c57600080fd5b506102c160008051602061348083398151915281565b60006106ad82611325565b92915050565b6000805160206134808339815191526106cb8161134a565b6106d58383611354565b505050565b6060600280546106e990612e60565b80601f016020809104026020016040519081016040528092919081815260200182805461071590612e60565b80156107625780601f1061073757610100808354040283529160200191610762565b820191906000526020600020905b81548152906001019060200180831161074557829003601f168201915b5050505050905090565b60006107778261144d565b506000908152600660205260409020546001600160a01b031690565b600061079e82610c40565b9050806001600160a01b0316836001600160a01b031614156108115760405162461bcd60e51b815260206004820152602160248201527f4552433732313a20617070726f76616c20746f2063757272656e74206f776e656044820152603960f91b60648201526084015b60405180910390fd5b336001600160a01b038216148061082d575061082d81336112f7565b61089f5760405162461bcd60e51b815260206004820152603e60248201527f4552433732313a20617070726f76652063616c6c6572206973206e6f7420746f60448201527f6b656e206f776e6572206e6f7220617070726f76656420666f7220616c6c00006064820152608401610808565b6106d58383611472565b6108b4335b826114e0565b6108d05760405162461bcd60e51b815260040161080890612e9b565b6106d583838361153f565b60008281526001602090815260408083208151808301909252546001600160a01b038116808352600160a01b9091046001600160601b03169282019290925282916109505750604080518082019091526000546001600160a01b0381168252600160a01b90046001600160601b031660208201525b60208101516000906127109061096f906001600160601b031687612eff565b6109799190612f34565b915196919550909350505050565b6000828152600d60205260409020600101546109a28161134a565b6106d583836116d4565b60006109b783610c75565b8210610a195760405162461bcd60e51b815260206004820152602b60248201527f455243373231456e756d657261626c653a206f776e657220696e646578206f7560448201526a74206f6620626f756e647360a81b6064820152608401610808565b506001600160a01b03919091166000908152600860209081526040808320938352929052205490565b6040516351cff8d960e01b81526001600160a01b037f000000000000000000000000000000000000000000000000000000000000000016906351cff8d990610a8e9084906004016127d4565b600060405180830381600087803b158015610aa857600080fd5b505af1158015610abc573d6000803e3d6000fd5b5050505050565b6001600160a01b0381163314610b335760405162461bcd60e51b815260206004820152602f60248201527f416363657373436f6e74726f6c3a2063616e206f6e6c792072656e6f756e636560448201526e103937b632b9903337b91039b2b63360891b6064820152608401610808565b610b3d828261175a565b5050565b600080516020613440833981519152610b598161134a565b610b616117c1565b50565b6106d583838360405180602001604052806000815250611194565b610b88336108ae565b610ba45760405162461bcd60e51b815260040161080890612e9b565b610b618161180d565b6000610bb8600a5490565b8210610c1b5760405162461bcd60e51b815260206004820152602c60248201527f455243373231456e756d657261626c653a20676c6f62616c20696e646578206f60448201526b7574206f6620626f756e647360a01b6064820152608401610808565b600a8281548110610c2e57610c2e612f48565b90600052602060002001549050919050565b6000818152600460205260408120546001600160a01b0316806106ad5760405162461bcd60e51b815260040161080890612f5e565b60006001600160a01b038216610cdf5760405162461bcd60e51b815260206004820152602960248201527f4552433732313a2061646472657373207a65726f206973206e6f7420612076616044820152683634b21037bbb732b960b91b6064820152608401610808565b506001600160a01b031660009081526005602052604090205490565b610d03611816565b826001600160a01b03168160800151602001516001600160a01b031614610da25760405162461bcd60e51b815260206004820152604760248201527f4b524243726564656e7469616c4e46543a204d696e7420746f2061646472657360448201527f73206d757374206265207468652063726564656e7469616c5375626a656374206064820152666164647265737360c81b608482015260a401610808565b610dab8161185e565b60405165125cdcdd595960d21b602082015260260160408051601f19818403018152908290528051602090910120600f5463606a836b60e11b835290916001600160a01b039091169063c0d506d690610e089085906004016130dd565b600060405180830381865afa158015610e25573d6000803e3d6000fd5b505050506040513d6000823e601f3d908101601f19168201604052610e4d91908101906131d2565b604051602001610e5d919061323f565b6040516020818303038152906040528051906020012014610eca5760405162461bcd60e51b815260206004820152602160248201527f43726564656e7469616c206973206e6f7420696e2049737375656420737461746044820152606560f81b6064820152608401610808565b604051602001610f0a907f5b2256657269666961626c6543726564656e7469616c222c226f6c6465725468815263616e225d60e01b602082015260240190565b604051602081830303815290604052805190602001208160200151604051602001610f35919061323f565b6040516020818303038152906040528051906020012014610fb45760405162461bcd60e51b815260206004820152603360248201527f4b524243726564656e7469616c4e46543a2063726564656e7469616c20747970604482015272329036bab9ba1031329037b63232b92a3430b760691b6064820152608401610808565b6012543410156110285760405162461bcd60e51b815260206004820152603960248201527f4b524243726564656e7469616c4e46543a20416d6f756e742073656e74206973604482015278206c657373207468616e20746865206d696e7420707269636560381b6064820152608401610808565b6013546110359034611b44565b6013556106d58383611b50565b60008051602061344083398151915261105a8161134a565b610b61611b6a565b60008051602061348083398151915261107a8161134a565b60128290556040517ff2e795d4a33ae9a0d3282888375b8ae781ea4de1cbf101ac96150aa95ccff0b490600090a15050565b6000918252600d602090815260408084206001600160a01b0393909316845291905290205460ff1690565b6060600380546106e990612e60565b610b3d338383611ba7565b6002600e5414156111445760405162461bcd60e51b815260206004820152601f60248201527f5265656e7472616e637947756172643a207265656e7472616e742063616c6c006044820152606401610808565b6002600e556000805160206134808339815191526111618161134a565b60135482111561117057600080fd5b60135461117d9083611c72565b60135561118a8383611c7e565b50506001600e5550565b61119e33836114e0565b6111ba5760405162461bcd60e51b815260040161080890612e9b565b6111c684848484611d02565b50505050565b60606111d78261144d565b60006111e1611d35565b90506000815111611201576040518060200160405280600081525061122c565b8061120b84611d44565b60405160200161121c92919061325b565b6040516020818303038152906040525b9392505050565b6000828152600d602052604090206001015461124e8161134a565b6106d5838361175a565b6040516371d4ed8d60e11b81526000906001600160a01b037f0000000000000000000000000000000000000000000000000000000000000000169063e3a9db1a906112a79085906004016127d4565b602060405180830381865afa1580156112c4573d6000803e3d6000fd5b505050506040513d601f19601f820116820180604052508101906106ad919061328a565b6060601180546106e990612e60565b6001600160a01b03918216600090815260076020908152604080832093909416825291909152205460ff1690565b60006001600160e01b03198216637965db0b60e01b14806106ad57506106ad82611e41565b610b618133611e4c565b6127106001600160601b03821611156113c25760405162461bcd60e51b815260206004820152602a60248201527f455243323938313a20726f79616c7479206665652077696c6c206578636565646044820152692073616c65507269636560b01b6064820152608401610808565b6001600160a01b0382166114145760405162461bcd60e51b815260206004820152601960248201527822a921991c9c189d1034b73b30b634b2103932b1b2b4bb32b960391b6044820152606401610808565b604080518082019091526001600160a01b039092168083526001600160601b039091166020909201829052600160a01b90910217600055565b61145681611eb0565b610b615760405162461bcd60e51b815260040161080890612f5e565b600081815260066020526040902080546001600160a01b0319166001600160a01b03841690811790915581906114a782610c40565b6001600160a01b03167f8c5be1e5ebec7d5bd14f71427d1e84f3dd0314c0f7b2291e5b200ac8c7c3b92560405160405180910390a45050565b6000806114ec83610c40565b9050806001600160a01b0316846001600160a01b03161480611513575061151381856112f7565b806115375750836001600160a01b031661152c8461076c565b6001600160a01b0316145b949350505050565b826001600160a01b031661155282610c40565b6001600160a01b0316146115b65760405162461bcd60e51b815260206004820152602560248201527f4552433732313a207472616e736665722066726f6d20696e636f72726563742060448201526437bbb732b960d91b6064820152608401610808565b6001600160a01b0382166116185760405162461bcd60e51b8152602060048201526024808201527f4552433732313a207472616e7366657220746f20746865207a65726f206164646044820152637265737360e01b6064820152608401610808565b611623838383611ecd565b61162e600082611472565b6001600160a01b03831660009081526005602052604081208054600192906116579084906132a3565b90915550506001600160a01b03821660009081526005602052604081208054600192906116859084906132ba565b909155505060008181526004602052604080822080546001600160a01b0319166001600160a01b03868116918217909255915184939187169160008051602061346083398151915291a4505050565b6116de82826110ac565b610b3d576000828152600d602090815260408083206001600160a01b03851684529091529020805460ff191660011790556117163390565b6001600160a01b0316816001600160a01b0316837f2f8788117e7eff1d82e926ec794901d17c78024a50270940304540a733656f0d60405160405180910390a45050565b61176482826110ac565b15610b3d576000828152600d602090815260408083206001600160a01b0385168085529252808320805460ff1916905551339285917ff6391f5c32d9c69d2a47ea670b442974b53935d1edc7fd64eb21e047a839171b9190a45050565b6117c9611ee0565b600c805460ff191690557f5db9ee0a495bf2e6ff9c91a7834c1ba4fdd244a5e8aa4e537bd38aeae4b073aa335b60405161180391906127d4565b60405180910390a1565b610b6181611f29565b600c5460ff161561185c5760405162461bcd60e51b815260206004820152601060248201526f14185d5cd8589b194e881c185d5cd95960821b6044820152606401610808565b565b6060810151602001516001600160a01b03166118bc5760405162461bcd60e51b815260206004820152601c60248201527f4b5242546f6b656e3a20626164206973737565722061646472657373000000006044820152606401610808565b6080810151602001516001600160a01b031661192a5760405162461bcd60e51b815260206004820152602760248201527f4b5242546f6b656e3a206261642063726564656e7469616c5375626a656374206044820152666164647265737360c81b6064820152608401610808565b608081015151604051611940919060200161323f565b60408051601f19818403018152908290528051602091820120606084015151909261196b920161323f565b6040516020818303038152906040528051906020012014156119ed5760405162461bcd60e51b815260206004820152603560248201527f4b5242546f6b656e3a2069737375657220444944206973207468652073616d6560448201527408185cc818dc9959195b9d1a585b14dd589a9958dd605a1b6064820152608401610808565b8060800151602001516001600160a01b03168160600151602001516001600160a01b03161415611a815760405162461bcd60e51b815260206004820152603960248201527f4b5242546f6b656e3a20697373756572206164647265737320697320746865206044820152781cd85b5948185cc818dc9959195b9d1a585b14dd589a9958dd603a1b6064820152608401610808565b806080015161012001514211611aec5760405162461bcd60e51b815260206004820152602a60248201527f4b5242546f6b656e3a2056432069737375616e63654461746520697320696e206044820152697468652066757475726560b01b6064820152608401610808565b806080015161014001514210610b615760405162461bcd60e51b815260206004820181905260248201527f4b5242546f6b656e3a2056432068617320616c726561647920657870697265646044820152606401610808565b600061122c82846132ba565b610b3d828260405180602001604052806000815250611f43565b611b72611816565b600c805460ff191660011790557f62e78cea01bee320cd4e420270b5ea74000d11b0c9f74754ebdbfc544b05a2586117f63390565b816001600160a01b0316836001600160a01b03161415611c055760405162461bcd60e51b815260206004820152601960248201527822a9219b99189d1030b8383937bb32903a379031b0b63632b960391b6044820152606401610808565b6001600160a01b03838116600081815260076020908152604080832094871680845294825291829020805460ff191686151590811790915591519182527f17307eab39ab6107e8899845ad3d59bd9653f200f220920489ca2b5937696c31910160405180910390a3505050565b600061122c82846132a3565b60405163f340fa0160e01b81526001600160a01b037f0000000000000000000000000000000000000000000000000000000000000000169063f340fa01908390611ccc9086906004016127d4565b6000604051808303818588803b158015611ce557600080fd5b505af1158015611cf9573d6000803e3d6000fd5b50505050505050565b611d0d84848461153f565b611d1984848484611f76565b6111c65760405162461bcd60e51b8152600401610808906132d2565b6060601080546106e990612e60565b606081611d685750506040805180820190915260018152600360fc1b602082015290565b8160005b8115611d925780611d7c81613324565b9150611d8b9050600a83612f34565b9150611d6c565b6000816001600160401b03811115611dac57611dac6128b9565b6040519080825280601f01601f191660200182016040528015611dd6576020820181803683370190505b5090505b841561153757611deb6001836132a3565b9150611df8600a8661333f565b611e039060306132ba565b60f81b818381518110611e1857611e18612f48565b60200101906001600160f81b031916908160001a905350611e3a600a86612f34565b9450611dda565b60006106ad82612074565b611e5682826110ac565b610b3d57611e6e816001600160a01b03166014612099565b611e79836020612099565b604051602001611e8a929190613353565b60408051601f198184030181529082905262461bcd60e51b8252610808916004016127a8565b6000908152600460205260409020546001600160a01b0316151590565b611ed5611816565b6106d5838383612234565b600c5460ff1661185c5760405162461bcd60e51b815260206004820152601460248201527314185d5cd8589b194e881b9bdd081c185d5cd95960621b6044820152606401610808565b611f32816122ec565b600090815260016020526040812055565b611f4d8383612381565b611f5a6000848484611f76565b6106d55760405162461bcd60e51b8152600401610808906132d2565b60006001600160a01b0384163b1561206957604051630a85bd0160e11b81526001600160a01b0385169063150b7a0290611fba9033908990889088906004016133c2565b6020604051808303816000875af1925050508015611ff5575060408051601f3d908101601f19168201909252611ff2918101906133f5565b60015b61204f573d808015612023576040519150601f19603f3d011682016040523d82523d6000602084013e612028565b606091505b5080516120475760405162461bcd60e51b8152600401610808906132d2565b805181602001fd5b6001600160e01b031916630a85bd0160e11b149050611537565b506001949350505050565b60006001600160e01b0319821663780e9d6360e01b14806106ad57506106ad826124ae565b606060006120a8836002612eff565b6120b39060026132ba565b6001600160401b038111156120ca576120ca6128b9565b6040519080825280601f01601f1916602001820160405280156120f4576020820181803683370190505b509050600360fc1b8160008151811061210f5761210f612f48565b60200101906001600160f81b031916908160001a905350600f60fb1b8160018151811061213e5761213e612f48565b60200101906001600160f81b031916908160001a9053506000612162846002612eff565b61216d9060016132ba565b90505b60018111156121e5576f181899199a1a9b1b9c1cb0b131b232b360811b85600f16601081106121a1576121a1612f48565b1a60f81b8282815181106121b7576121b7612f48565b60200101906001600160f81b031916908160001a90535060049490941c936121de81613412565b9050612170565b50831561122c5760405162461bcd60e51b815260206004820181905260248201527f537472696e67733a20686578206c656e67746820696e73756666696369656e746044820152606401610808565b6001600160a01b03831661228f5761228a81600a80546000838152600b60205260408120829055600182018355919091527fc65a7bb8d6351c1cf70c95a316cc6a92839c986682d98bc35f958f4883f9d2a80155565b6122b2565b816001600160a01b0316836001600160a01b0316146122b2576122b283826124ee565b6001600160a01b0382166122c9576106d58161258b565b826001600160a01b0316826001600160a01b0316146106d5576106d5828261263a565b60006122f782610c40565b905061230581600084611ecd565b612310600083611472565b6001600160a01b03811660009081526005602052604081208054600192906123399084906132a3565b909155505060008281526004602052604080822080546001600160a01b0319169055518391906001600160a01b03841690600080516020613460833981519152908390a45050565b6001600160a01b0382166123d75760405162461bcd60e51b815260206004820181905260248201527f4552433732313a206d696e7420746f20746865207a65726f20616464726573736044820152606401610808565b6123e081611eb0565b1561242d5760405162461bcd60e51b815260206004820152601c60248201527f4552433732313a20746f6b656e20616c7265616479206d696e746564000000006044820152606401610808565b61243960008383611ecd565b6001600160a01b03821660009081526005602052604081208054600192906124629084906132ba565b909155505060008181526004602052604080822080546001600160a01b0319166001600160a01b0386169081179091559051839290600080516020613460833981519152908290a45050565b60006001600160e01b031982166380ac58cd60e01b14806124df57506001600160e01b03198216635b5e139f60e01b145b806106ad57506106ad8261267e565b600060016124fb84610c75565b61250591906132a3565b600083815260096020526040902054909150808214612558576001600160a01b03841660009081526008602090815260408083208584528252808320548484528184208190558352600990915290208190555b5060009182526009602090815260408084208490556001600160a01b039094168352600881528383209183525290812055565b600a5460009061259d906001906132a3565b6000838152600b6020526040812054600a80549394509092849081106125c5576125c5612f48565b9060005260206000200154905080600a83815481106125e6576125e6612f48565b6000918252602080832090910192909255828152600b9091526040808220849055858252812055600a80548061261e5761261e613429565b6001900381819060005260206000200160009055905550505050565b600061264583610c75565b6001600160a01b039093166000908152600860209081526040808320868452825280832085905593825260099052919091209190915550565b60006001600160e01b0319821663152a902d60e11b14806106ad57506301ffc9a760e01b6001600160e01b03198316146106ad565b6001600160e01b031981168114610b6157600080fd5b6000602082840312156126db57600080fd5b813561122c816126b3565b6001600160a01b0381168114610b6157600080fd5b8035612706816126e6565b919050565b6000806040838503121561271e57600080fd5b8235612729816126e6565b915060208301356001600160601b038116811461274557600080fd5b809150509250929050565b60005b8381101561276b578181015183820152602001612753565b838111156111c65750506000910152565b60008151808452612794816020860160208601612750565b601f01601f19169290920160200192915050565b60208152600061122c602083018461277c565b6000602082840312156127cd57600080fd5b5035919050565b6001600160a01b0391909116815260200190565b600080604083850312156127fb57600080fd5b8235612806816126e6565b946020939093013593505050565b60008060006060848603121561282957600080fd5b8335612834816126e6565b92506020840135612844816126e6565b929592945050506040919091013590565b6000806040838503121561286857600080fd5b50508035926020909101359150565b6000806040838503121561288a57600080fd5b823591506020830135612745816126e6565b6000602082840312156128ae57600080fd5b813561122c816126e6565b634e487b7160e01b600052604160045260246000fd5b604080519081016001600160401b03811182821017156128f1576128f16128b9565b60405290565b60405161016081016001600160401b03811182821017156128f1576128f16128b9565b60405161010081016001600160401b03811182821017156128f1576128f16128b9565b604051601f8201601f191681016001600160401b0381118282101715612965576129656128b9565b604052919050565b60006001600160401b03821115612986576129866128b9565b50601f01601f191660200190565b60006129a76129a28461296d565b61293d565b90508281528383830111156129bb57600080fd5b828260208301376000602084830101529392505050565b600082601f8301126129e357600080fd5b61122c83833560208501612994565b600060408284031215612a0457600080fd5b612a0c6128cf565b905081356001600160401b03811115612a2457600080fd5b612a30848285016129d2565b8252506020820135612a41816126e6565b602082015292915050565b803560ff8116811461270657600080fd5b60006101608284031215612a7057600080fd5b612a786128f7565b905081356001600160401b0380821115612a9157600080fd5b612a9d858386016129d2565b8352612aab602085016126fb565b60208401526040840135915080821115612ac457600080fd5b612ad0858386016129d2565b60408401526060840135915080821115612ae957600080fd5b612af5858386016129d2565b60608401526080840135915080821115612b0e57600080fd5b612b1a858386016129d2565b608084015260a0840135915080821115612b3357600080fd5b50612b40848285016129d2565b60a083015250612b5260c08301612a4c565b60c082015260e082013560e082015261010080830135818301525061012080830135818301525061014080830135818301525092915050565b600060408284031215612b9d57600080fd5b612ba56128cf565b905081356001600160401b0380821115612bbe57600080fd5b612bca858386016129d2565b83526020840135915080821115612be057600080fd5b50612bed848285016129d2565b60208301525092915050565b600080600060608486031215612c0e57600080fd5b8335612c19816126e6565b92506020840135915060408401356001600160401b0380821115612c3c57600080fd5b908501906101008288031215612c5157600080fd5b612c5961291a565b823582811115612c6857600080fd5b612c74898286016129d2565b825250602083013582811115612c8957600080fd5b612c95898286016129d2565b602083015250604083013582811115612cad57600080fd5b612cb9898286016129d2565b604083015250606083013582811115612cd157600080fd5b612cdd898286016129f2565b606083015250608083013582811115612cf557600080fd5b612d0189828601612a5d565b60808301525060a083013582811115612d1957600080fd5b612d2589828601612b8b565b60a08301525060c083013582811115612d3d57600080fd5b612d49898286016129d2565b60c08301525060e083013582811115612d6157600080fd5b612d6d898286016129d2565b60e0830152508093505050509250925092565b60008060408385031215612d9357600080fd5b8235612d9e816126e6565b91506020830135801515811461274557600080fd5b60008060008060808587031215612dc957600080fd5b8435612dd4816126e6565b93506020850135612de4816126e6565b92506040850135915060608501356001600160401b03811115612e0657600080fd5b8501601f81018713612e1757600080fd5b612e2687823560208401612994565b91505092959194509250565b60008060408385031215612e4557600080fd5b8235612e50816126e6565b91506020830135612745816126e6565b600181811c90821680612e7457607f821691505b60208210811415612e9557634e487b7160e01b600052602260045260246000fd5b50919050565b6020808252602e908201527f4552433732313a2063616c6c6572206973206e6f7420746f6b656e206f776e6560408201526d1c881b9bdc88185c1c1c9bdd995960921b606082015260800190565b634e487b7160e01b600052601160045260246000fd5b6000816000190483118215151615612f1957612f19612ee9565b500290565b634e487b7160e01b600052601260045260246000fd5b600082612f4357612f43612f1e565b500490565b634e487b7160e01b600052603260045260246000fd5b602080825260189082015277115490cdcc8c4e881a5b9d985b1a59081d1bdad95b88125160421b604082015260600190565b6000815160408452612fa5604085018261277c565b6020938401516001600160a01b0316949093019390935250919050565b60006101608251818552612fd88286018261277c565b9150506020830151612ff560208601826001600160a01b03169052565b506040830151848203604086015261300d828261277c565b91505060608301518482036060860152613027828261277c565b91505060808301518482036080860152613041828261277c565b91505060a083015184820360a086015261305b828261277c565b91505060c083015161307260c086018260ff169052565b5060e08381015190850152610100808401519085015261012080840151908501526101409283015192909301919091525090565b60008151604084526130bb604085018261277c565b9050602083015184820360208601526130d4828261277c565b95945050505050565b60208152600082516101008060208501526130fc61012085018361277c565b91506020850151601f198086850301604087015261311a848361277c565b93506040870151915080868503016060870152613137848361277c565b935060608701519150808685030160808701526131548483612f90565b935060808701519150808685030160a08701526131718483612fc2565b935060a08701519150808685030160c087015261318e84836130a6565b935060c08701519150808685030160e08701526131ab848361277c565b935060e08701519150808685030183870152506131c8838261277c565b9695505050505050565b6000602082840312156131e457600080fd5b81516001600160401b038111156131fa57600080fd5b8201601f8101841361320b57600080fd5b80516132196129a28261296d565b81815285602083850101111561322e57600080fd5b6130d4826020830160208601612750565b60008251613251818460208701612750565b9190910192915050565b6000835161326d818460208801612750565b835190830190613281818360208801612750565b01949350505050565b60006020828403121561329c57600080fd5b5051919050565b6000828210156132b5576132b5612ee9565b500390565b600082198211156132cd576132cd612ee9565b500190565b60208082526032908201527f4552433732313a207472616e7366657220746f206e6f6e20455243373231526560408201527131b2b4bb32b91034b6b83632b6b2b73a32b960711b606082015260800190565b600060001982141561333857613338612ee9565b5060010190565b60008261334e5761334e612f1e565b500690565b76020b1b1b2b9b9a1b7b73a3937b61d1030b1b1b7bab73a1604d1b815260008351613385816017850160208801612750565b7001034b99036b4b9b9b4b733903937b6329607d1b60179184019182015283516133b6816028840160208801612750565b01602801949350505050565b6001600160a01b03858116825284166020820152604081018390526080606082018190526000906131c89083018461277c565b60006020828403121561340757600080fd5b815161122c816126b3565b60008161342157613421612ee9565b506000190190565b634e487b7160e01b600052603160045260246000fdfe65d7a28e3265b37a6474929f336521b332c1681b933f6cb9f3376673440d862addf252ad1be2c89b69c2b068fc378daa952ba7f163c4a11628f55a4df523b3efe8af128b9b5dbd17bb2a0ae1c50a8ac258e80a668c749226d6999d0778527509a264697066735822122063afe91ce55fea8665dfdfb9d9d7a1714deff1894168452e3cebf71f98fb2c7a64736f6c634300080c0033608060405234801561001057600080fd5b5061001a3361001f565b61006f565b600080546001600160a01b038381166001600160a01b0319831681178455604051919092169283917f8be0079c531659141344cd1fd0a4f28419497f9722a3daafe3b4186f6b6457e09190a35050565b61050a8061007e6000396000f3fe6080604052600436106100555760003560e01c806351cff8d91461005a578063715018a61461007c5780638da5cb5b14610091578063e3a9db1a146100be578063f2fde38b14610102578063f340fa0114610122575b600080fd5b34801561006657600080fd5b5061007a61007536600461048a565b610135565b005b34801561008857600080fd5b5061007a6101ac565b34801561009d57600080fd5b506000546040516001600160a01b0390911681526020015b60405180910390f35b3480156100ca57600080fd5b506100f46100d936600461048a565b6001600160a01b031660009081526001602052604090205490565b6040519081526020016100b5565b34801561010e57600080fd5b5061007a61011d36600461048a565b6101c0565b61007a61013036600461048a565b61023e565b61013d6102b0565b6001600160a01b0381166000818152600160205260408120805491905590610165908261030a565b816001600160a01b03167f7084f5476618d8e60b11ef0d7d3f06914655adb8793e28ff7f018d4c76d505d5826040516101a091815260200190565b60405180910390a25050565b6101b46102b0565b6101be6000610425565b565b6101c86102b0565b6001600160a01b0381166102325760405162461bcd60e51b815260206004820152602660248201527f4f776e61626c653a206e6577206f776e657220697320746865207a65726f206160448201526564647265737360d01b60648201526084015b60405180910390fd5b61023b81610425565b50565b6102466102b0565b6001600160a01b0381166000908152600160205260408120805434928392916102709084906104ae565b90915550506040518181526001600160a01b038316907f2da466a7b24304f47e87fa2e1e5a81b9831ce54fec19055ce277ca2f39ba42c4906020016101a0565b6000546001600160a01b031633146101be5760405162461bcd60e51b815260206004820181905260248201527f4f776e61626c653a2063616c6c6572206973206e6f7420746865206f776e65726044820152606401610229565b8047101561035a5760405162461bcd60e51b815260206004820152601d60248201527f416464726573733a20696e73756666696369656e742062616c616e63650000006044820152606401610229565b6000826001600160a01b03168260405160006040518083038185875af1925050503d80600081146103a7576040519150601f19603f3d011682016040523d82523d6000602084013e6103ac565b606091505b50509050806104205760405162461bcd60e51b815260206004820152603a60248201527f416464726573733a20756e61626c6520746f2073656e642076616c75652c20726044820152791958da5c1a595b9d081b585e481a185d99481c995d995c9d195960321b6064820152608401610229565b505050565b600080546001600160a01b038381166001600160a01b0319831681178455604051919092169283917f8be0079c531659141344cd1fd0a4f28419497f9722a3daafe3b4186f6b6457e09190a35050565b6001600160a01b038116811461023b57600080fd5b60006020828403121561049c57600080fd5b81356104a781610475565b9392505050565b600082198211156104cf57634e487b7160e01b600052601160045260246000fd5b50019056fea2646970667358221220c3a33d8270e378db5d35f41da390829ed66f9edf654c52e354e5ef6a9f009cf564736f6c634300080c0033",
  "linkReferences": {},
  "deployedLinkReferences": {}
}